{
  "_format": "hh-sol-artifact-1",
  "contractName": "MineralWarehouse",
  "sourceName": "contracts/modules/MineralWarehouse.sol",
  "abi": [
    {
      "inputs": [
        {
          "internalType": "address",
          "name": "rolesManagerAddress",
          "type": "address"
        },
        {
          "internalType": "address",
          "name": "mineralRegistryAddress",
          "type": "address"
        }
      ],
      "stateMutability": "nonpayable",
      "type": "constructor"
    },
    {
      "inputs": [],
      "name": "AccessControlBadConfirmation",
      "type": "error"
    },
    {
      "inputs": [
        {
          "internalType": "address",
          "name": "account",
          "type": "address"
        },
        {
          "internalType": "bytes32",
          "name": "neededRole",
          "type": "bytes32"
        }
      ],
      "name": "AccessControlUnauthorizedAccount",
      "type": "error"
    },
    {
      "inputs": [
        {
          "internalType": "address",
          "name": "caller",
          "type": "address"
        },
        {
          "internalType": "bytes32",
          "name": "role",
          "type": "bytes32"
        }
      ],
      "name": "AddressDoesNotHaveRequiredRole",
      "type": "error"
    },
    {
      "inputs": [
        {
          "internalType": "address",
          "name": "caller",
          "type": "address"
        }
      ],
      "name": "DisputeResolution__AlreadyVoted",
      "type": "error"
    },
    {
      "inputs": [
        {
          "internalType": "uint256",
          "name": "disputeId",
          "type": "uint256"
        }
      ],
      "name": "DisputeResolution__DisputeEscalated_UnableToVote",
      "type": "error"
    },
    {
      "inputs": [
        {
          "internalType": "uint256",
          "name": "disputeId",
          "type": "uint256"
        }
      ],
      "name": "DisputeResolution__DisputeNotEscalated",
      "type": "error"
    },
    {
      "inputs": [
        {
          "internalType": "uint256",
          "name": "disputeId",
          "type": "uint256"
        }
      ],
      "name": "DisputeResolution__DisputeStatusNotPending",
      "type": "error"
    },
    {
      "inputs": [],
      "name": "DisputeResolution__DisputeStatusNotPendingOrEscalated",
      "type": "error"
    },
    {
      "inputs": [],
      "name": "DisputeResolution__InvalidDisputeDefendantAddress",
      "type": "error"
    },
    {
      "inputs": [],
      "name": "DisputeResolution__InvalidDisputeDetails",
      "type": "error"
    },
    {
      "inputs": [],
      "name": "DisputeResolution__InvalidDisputeEvidence",
      "type": "error"
    },
    {
      "inputs": [],
      "name": "DisputeResolution__InvalidDisputeIdOrNotFound",
      "type": "error"
    },
    {
      "inputs": [],
      "name": "DisputeResolution__InvalidMineralIdOrNotFound",
      "type": "error"
    },
    {
      "inputs": [],
      "name": "DisputeResolution__InvalidResolutionDetails",
      "type": "error"
    },
    {
      "inputs": [
        {
          "internalType": "address",
          "name": "caller",
          "type": "address"
        }
      ],
      "name": "DisputeResolution__NotEligibleToVote",
      "type": "error"
    },
    {
      "inputs": [],
      "name": "DisputeResolution__VotingPeriodStillActive",
      "type": "error"
    },
    {
      "inputs": [
        {
          "internalType": "address",
          "name": "token",
          "type": "address"
        },
        {
          "internalType": "uint256",
          "name": "tokenAmount",
          "type": "uint256"
        }
      ],
      "name": "ERC20TokenTransferFailed",
      "type": "error"
    },
    {
      "inputs": [
        {
          "internalType": "address",
          "name": "caller",
          "type": "address"
        }
      ],
      "name": "InsufficientPermissionsToPerformAction",
      "type": "error"
    },
    {
      "inputs": [],
      "name": "InvalidAccountAddress",
      "type": "error"
    },
    {
      "inputs": [
        {
          "internalType": "string",
          "name": "mineralId",
          "type": "string"
        }
      ],
      "name": "InvalidMineralIdOrNotFound",
      "type": "error"
    },
    {
      "inputs": [],
      "name": "InvalidPaymentMethods",
      "type": "error"
    },
    {
      "inputs": [
        {
          "internalType": "string",
          "name": "currentStatus",
          "type": "string"
        },
        {
          "internalType": "string",
          "name": "attemptedStatus",
          "type": "string"
        }
      ],
      "name": "InvalidTransportStateTransition",
      "type": "error"
    },
    {
      "inputs": [
        {
          "internalType": "string",
          "name": "mineralId",
          "type": "string"
        }
      ],
      "name": "MineralNotMarketReady",
      "type": "error"
    },
    {
      "inputs": [
        {
          "internalType": "string",
          "name": "mineralId",
          "type": "string"
        }
      ],
      "name": "MineralNotReadyToTrade",
      "type": "error"
    },
    {
      "inputs": [],
      "name": "MineralRegistry__InvalidMineralDestination",
      "type": "error"
    },
    {
      "inputs": [],
      "name": "MineralRegistry__InvalidMineralDetails",
      "type": "error"
    },
    {
      "inputs": [
        {
          "internalType": "string",
          "name": "mineralId",
          "type": "string"
        }
      ],
      "name": "MineralRegistry__InvalidMineralIdOrNotFound",
      "type": "error"
    },
    {
      "inputs": [],
      "name": "MineralRegistry__InvalidMineralLocation",
      "type": "error"
    },
    {
      "inputs": [],
      "name": "MineralRegistry__InvalidMineralName",
      "type": "error"
    },
    {
      "inputs": [],
      "name": "MineralRegistry__InvalidMineralOrigin",
      "type": "error"
    },
    {
      "inputs": [],
      "name": "MineralRegistry__InvalidMineralPurityPercentage",
      "type": "error"
    },
    {
      "inputs": [],
      "name": "MineralRegistry__InvalidMineralStatus",
      "type": "error"
    },
    {
      "inputs": [],
      "name": "MineralRegistry__InvalidMineralStorageConditions",
      "type": "error"
    },
    {
      "inputs": [],
      "name": "MineralRegistry__InvalidMineralType",
      "type": "error"
    },
    {
      "inputs": [],
      "name": "MineralRegistry__InvalidMineralWeight",
      "type": "error"
    },
    {
      "inputs": [],
      "name": "MineralRegistry__InvalidReceivingPartyAddress",
      "type": "error"
    },
    {
      "inputs": [],
      "name": "MineralRegistry__MineralAlreadyAudited",
      "type": "error"
    },
    {
      "inputs": [],
      "name": "MineralRegistry__MineralAlreadyInspected",
      "type": "error"
    },
    {
      "inputs": [],
      "name": "MineralRegistry__MineralAlreadyPurchased",
      "type": "error"
    },
    {
      "inputs": [],
      "name": "MineralRegistry__MineralNotAudited",
      "type": "error"
    },
    {
      "inputs": [],
      "name": "MineralRegistry__MineralNotInspected",
      "type": "error"
    },
    {
      "inputs": [
        {
          "internalType": "string",
          "name": "mineralId",
          "type": "string"
        }
      ],
      "name": "MineralRegistry__MineralNotRegistered",
      "type": "error"
    },
    {
      "inputs": [],
      "name": "MineralWarehouse__ETHTransferFailed",
      "type": "error"
    },
    {
      "inputs": [],
      "name": "MineralWarehouse__IncorrectETHAmount",
      "type": "error"
    },
    {
      "inputs": [],
      "name": "MineralWarehouse__InvalidMineralPrice",
      "type": "error"
    },
    {
      "inputs": [],
      "name": "MineralWarehouse__InvalidNumberOfPrices",
      "type": "error"
    },
    {
      "inputs": [
        {
          "internalType": "address",
          "name": "tokenAddress",
          "type": "address"
        }
      ],
      "name": "MineralWarehouse__InvalidTokenAddress",
      "type": "error"
    },
    {
      "inputs": [],
      "name": "MineralWarehouse__InvalidTokenPrice",
      "type": "error"
    },
    {
      "inputs": [
        {
          "internalType": "string",
          "name": "mineralId",
          "type": "string"
        }
      ],
      "name": "MineralWarehouse__MineralAlreadySold",
      "type": "error"
    },
    {
      "inputs": [
        {
          "internalType": "string",
          "name": "mineralId",
          "type": "string"
        }
      ],
      "name": "MineralWarehouse__MineralNotFoundInWarehouse",
      "type": "error"
    },
    {
      "inputs": [
        {
          "internalType": "string",
          "name": "mineralId",
          "type": "string"
        }
      ],
      "name": "MineralWarehouse__MineralNotMarketReady",
      "type": "error"
    },
    {
      "inputs": [
        {
          "internalType": "string",
          "name": "mineralId",
          "type": "string"
        }
      ],
      "name": "MineralWarehouse__MineralNotRefined",
      "type": "error"
    },
    {
      "inputs": [
        {
          "internalType": "address",
          "name": "tokenAddress",
          "type": "address"
        }
      ],
      "name": "MineralWarehouse__UnacceptedToken",
      "type": "error"
    },
    {
      "inputs": [
        {
          "internalType": "address[]",
          "name": "tokenAddresses",
          "type": "address[]"
        }
      ],
      "name": "MineralWarehouse__UnacceptedTokens",
      "type": "error"
    },
    {
      "inputs": [
        {
          "internalType": "address",
          "name": "seller",
          "type": "address"
        }
      ],
      "name": "MineralWarehouse__UnauthorizedSeller",
      "type": "error"
    },
    {
      "inputs": [
        {
          "internalType": "string",
          "name": "mineralId",
          "type": "string"
        },
        {
          "internalType": "address",
          "name": "caller",
          "type": "address"
        }
      ],
      "name": "NotAssignedTransporter",
      "type": "error"
    },
    {
      "inputs": [],
      "name": "RolesManager__AccountAlreadyHasRole",
      "type": "error"
    },
    {
      "inputs": [],
      "name": "RolesManager__AccountDoesNotHaveRole",
      "type": "error"
    },
    {
      "inputs": [],
      "name": "RolesManager__InvalidAddress",
      "type": "error"
    },
    {
      "inputs": [],
      "name": "RolesManager__InvalidMineralDestination",
      "type": "error"
    },
    {
      "inputs": [],
      "name": "RolesManager__InvalidMineralIdOrNotFound",
      "type": "error"
    },
    {
      "inputs": [],
      "name": "RolesManager__InvalidMineralName",
      "type": "error"
    },
    {
      "inputs": [],
      "name": "RolesManager__InvalidMineralOrigin",
      "type": "error"
    },
    {
      "inputs": [],
      "name": "RolesManager__InvalidMineralPurityPercentage",
      "type": "error"
    },
    {
      "inputs": [],
      "name": "RolesManager__InvalidMineralStorageConditions",
      "type": "error"
    },
    {
      "inputs": [],
      "name": "RolesManager__InvalidMineralType",
      "type": "error"
    },
    {
      "inputs": [],
      "name": "RolesManager__InvalidMineralWeight",
      "type": "error"
    },
    {
      "inputs": [],
      "name": "RolesManager__InvalidReceivingPartyAddress",
      "type": "error"
    },
    {
      "inputs": [],
      "name": "RolesManager__InvalidRole",
      "type": "error"
    },
    {
      "inputs": [
        {
          "internalType": "string",
          "name": "mineralId",
          "type": "string"
        }
      ],
      "name": "RolesManager__MineralAlreadyAudited",
      "type": "error"
    },
    {
      "inputs": [
        {
          "internalType": "string",
          "name": "mineralId",
          "type": "string"
        }
      ],
      "name": "RolesManager__MineralAlreadyInspected",
      "type": "error"
    },
    {
      "inputs": [
        {
          "internalType": "string",
          "name": "mineralId",
          "type": "string"
        }
      ],
      "name": "RolesManager__MineralAlreadyPurchased",
      "type": "error"
    },
    {
      "inputs": [
        {
          "internalType": "string",
          "name": "mineralId",
          "type": "string"
        }
      ],
      "name": "RolesManager__MineralAlreadyRefined",
      "type": "error"
    },
    {
      "inputs": [
        {
          "internalType": "string",
          "name": "mineralId",
          "type": "string"
        }
      ],
      "name": "RolesManager__MineralNotMarketReady",
      "type": "error"
    },
    {
      "inputs": [
        {
          "internalType": "uint256",
          "name": "purityPercentage",
          "type": "uint256"
        }
      ],
      "name": "RolesManager__MineralPurityPercentageTooLowToRegister",
      "type": "error"
    },
    {
      "inputs": [
        {
          "internalType": "address",
          "name": "caller",
          "type": "address"
        }
      ],
      "name": "RolesManager__NotTheAssignedBuyer",
      "type": "error"
    },
    {
      "inputs": [
        {
          "internalType": "string",
          "name": "mineralId",
          "type": "string"
        }
      ],
      "name": "SupplychainValidator__InvalidMineralIdOrNotFound",
      "type": "error"
    },
    {
      "inputs": [],
      "name": "SupplychainValidator__InvalidMineralOwnershipChain",
      "type": "error"
    },
    {
      "inputs": [],
      "name": "SupplychainValidator__InvalidMineralTransactionHistory",
      "type": "error"
    },
    {
      "inputs": [
        {
          "internalType": "uint256",
          "name": "tokenId",
          "type": "uint256"
        },
        {
          "internalType": "address",
          "name": "caller",
          "type": "address"
        }
      ],
      "name": "Tokenization__CallerNotMineralTokenOwner",
      "type": "error"
    },
    {
      "inputs": [
        {
          "internalType": "uint256",
          "name": "tokenId",
          "type": "uint256"
        }
      ],
      "name": "Tokenization__InvalidTokenId",
      "type": "error"
    },
    {
      "inputs": [
        {
          "internalType": "uint256",
          "name": "tokenId",
          "type": "uint256"
        }
      ],
      "name": "Tokenization__InvalidTokenIdOrNotFound",
      "type": "error"
    },
    {
      "inputs": [
        {
          "internalType": "uint256",
          "name": "tokenId",
          "type": "uint256"
        }
      ],
      "name": "Tokenization__TokenAlreadyExists",
      "type": "error"
    },
    {
      "inputs": [
        {
          "internalType": "uint256",
          "name": "tokenId",
          "type": "uint256"
        }
      ],
      "name": "Tokenization__TokenIsAlreadyMinted",
      "type": "error"
    },
    {
      "inputs": [
        {
          "internalType": "uint256",
          "name": "index",
          "type": "uint256"
        }
      ],
      "name": "TransactionLog__InvalidOperationIndex",
      "type": "error"
    },
    {
      "inputs": [],
      "name": "TransactionLog__InvalidOperationType",
      "type": "error"
    },
    {
      "inputs": [
        {
          "internalType": "uint256",
          "name": "transactionId",
          "type": "uint256"
        }
      ],
      "name": "TransactionLog__InvalidTransactionIdOrNotFound",
      "type": "error"
    },
    {
      "inputs": [
        {
          "internalType": "string",
          "name": "mineralId",
          "type": "string"
        }
      ],
      "name": "TransportRequestAlreadyExists",
      "type": "error"
    },
    {
      "anonymous": false,
      "inputs": [
        {
          "indexed": true,
          "internalType": "address",
          "name": "assignee",
          "type": "address"
        },
        {
          "indexed": false,
          "internalType": "uint256",
          "name": "timestamp",
          "type": "uint256"
        }
      ],
      "name": "AdminRoleAssigned",
      "type": "event"
    },
    {
      "anonymous": false,
      "inputs": [
        {
          "indexed": true,
          "internalType": "address",
          "name": "revokee",
          "type": "address"
        },
        {
          "indexed": false,
          "internalType": "string",
          "name": "reason",
          "type": "string"
        },
        {
          "indexed": false,
          "internalType": "uint256",
          "name": "timestamp",
          "type": "uint256"
        }
      ],
      "name": "AdminRoleRevoked",
      "type": "event"
    },
    {
      "anonymous": false,
      "inputs": [
        {
          "indexed": true,
          "internalType": "address",
          "name": "assignee",
          "type": "address"
        },
        {
          "indexed": false,
          "internalType": "uint256",
          "name": "timestamp",
          "type": "uint256"
        }
      ],
      "name": "AuditorRoleAssigned",
      "type": "event"
    },
    {
      "anonymous": false,
      "inputs": [
        {
          "indexed": true,
          "internalType": "address",
          "name": "revokee",
          "type": "address"
        },
        {
          "indexed": false,
          "internalType": "string",
          "name": "reason",
          "type": "string"
        },
        {
          "indexed": false,
          "internalType": "uint256",
          "name": "timestamp",
          "type": "uint256"
        }
      ],
      "name": "AuditorRoleRevoked",
      "type": "event"
    },
    {
      "anonymous": false,
      "inputs": [
        {
          "indexed": true,
          "internalType": "address",
          "name": "assignee",
          "type": "address"
        },
        {
          "indexed": false,
          "internalType": "uint256",
          "name": "timestamp",
          "type": "uint256"
        }
      ],
      "name": "BuyerRoleAssigned",
      "type": "event"
    },
    {
      "anonymous": false,
      "inputs": [
        {
          "indexed": true,
          "internalType": "address",
          "name": "revokee",
          "type": "address"
        },
        {
          "indexed": false,
          "internalType": "string",
          "name": "reason",
          "type": "string"
        },
        {
          "indexed": false,
          "internalType": "uint256",
          "name": "timestamp",
          "type": "uint256"
        }
      ],
      "name": "BuyerRoleRevoked",
      "type": "event"
    },
    {
      "anonymous": false,
      "inputs": [
        {
          "indexed": true,
          "internalType": "address",
          "name": "assignee",
          "type": "address"
        },
        {
          "indexed": false,
          "internalType": "uint256",
          "name": "timestamp",
          "type": "uint256"
        }
      ],
      "name": "InspectorRoleAssigned",
      "type": "event"
    },
    {
      "anonymous": false,
      "inputs": [
        {
          "indexed": true,
          "internalType": "address",
          "name": "revokee",
          "type": "address"
        },
        {
          "indexed": false,
          "internalType": "string",
          "name": "reason",
          "type": "string"
        },
        {
          "indexed": false,
          "internalType": "uint256",
          "name": "timestamp",
          "type": "uint256"
        }
      ],
      "name": "InspectorRoleRevoked",
      "type": "event"
    },
    {
      "anonymous": false,
      "inputs": [
        {
          "indexed": true,
          "internalType": "address",
          "name": "assignee",
          "type": "address"
        },
        {
          "indexed": false,
          "internalType": "uint256",
          "name": "timestamp",
          "type": "uint256"
        }
      ],
      "name": "MinerRoleAssigned",
      "type": "event"
    },
    {
      "anonymous": false,
      "inputs": [
        {
          "indexed": true,
          "internalType": "address",
          "name": "revokee",
          "type": "address"
        },
        {
          "indexed": false,
          "internalType": "string",
          "name": "reason",
          "type": "string"
        },
        {
          "indexed": false,
          "internalType": "uint256",
          "name": "timestamp",
          "type": "uint256"
        }
      ],
      "name": "MinerRoleRevoked",
      "type": "event"
    },
    {
      "anonymous": false,
      "inputs": [
        {
          "indexed": false,
          "internalType": "string",
          "name": "mineralId",
          "type": "string"
        },
        {
          "indexed": false,
          "internalType": "string",
          "name": "status",
          "type": "string"
        },
        {
          "indexed": true,
          "internalType": "address",
          "name": "auditor",
          "type": "address"
        },
        {
          "indexed": false,
          "internalType": "uint256",
          "name": "auditedAt",
          "type": "uint256"
        }
      ],
      "name": "MineralAudited",
      "type": "event"
    },
    {
      "anonymous": false,
      "inputs": [
        {
          "indexed": false,
          "internalType": "string",
          "name": "mineralId",
          "type": "string"
        },
        {
          "indexed": false,
          "internalType": "string",
          "name": "mineralStatus",
          "type": "string"
        },
        {
          "indexed": true,
          "internalType": "address",
          "name": "inspector",
          "type": "address"
        },
        {
          "indexed": false,
          "internalType": "uint256",
          "name": "inspectedAt",
          "type": "uint256"
        }
      ],
      "name": "MineralInspected",
      "type": "event"
    },
    {
      "anonymous": false,
      "inputs": [
        {
          "indexed": false,
          "internalType": "string",
          "name": "mineralId",
          "type": "string"
        },
        {
          "indexed": false,
          "internalType": "string",
          "name": "price",
          "type": "string"
        },
        {
          "indexed": true,
          "internalType": "address",
          "name": "lister",
          "type": "address"
        }
      ],
      "name": "MineralListedForSale",
      "type": "event"
    },
    {
      "anonymous": false,
      "inputs": [
        {
          "indexed": false,
          "internalType": "string",
          "name": "mineralId",
          "type": "string"
        },
        {
          "indexed": false,
          "internalType": "string",
          "name": "previousLocation",
          "type": "string"
        },
        {
          "indexed": false,
          "internalType": "string",
          "name": "newLocation",
          "type": "string"
        },
        {
          "indexed": true,
          "internalType": "address",
          "name": "tranporter",
          "type": "address"
        }
      ],
      "name": "MineralLocationUpdated",
      "type": "event"
    },
    {
      "anonymous": false,
      "inputs": [
        {
          "indexed": false,
          "internalType": "string",
          "name": "mineralId",
          "type": "string"
        },
        {
          "indexed": true,
          "internalType": "address",
          "name": "buyer",
          "type": "address"
        },
        {
          "indexed": false,
          "internalType": "uint256",
          "name": "purchasedAt",
          "type": "uint256"
        }
      ],
      "name": "MineralPurchased",
      "type": "event"
    },
    {
      "anonymous": false,
      "inputs": [
        {
          "indexed": false,
          "internalType": "string",
          "name": "mineralId",
          "type": "string"
        },
        {
          "indexed": true,
          "internalType": "address",
          "name": "ApprovedBy",
          "type": "address"
        },
        {
          "indexed": false,
          "internalType": "string",
          "name": "status",
          "type": "string"
        },
        {
          "indexed": false,
          "internalType": "uint256",
          "name": "inspectionDate",
          "type": "uint256"
        }
      ],
      "name": "MineralReadyToTrade",
      "type": "event"
    },
    {
      "anonymous": false,
      "inputs": [
        {
          "indexed": false,
          "internalType": "string",
          "name": "mineralId",
          "type": "string"
        },
        {
          "indexed": false,
          "internalType": "string",
          "name": "refineryReport",
          "type": "string"
        },
        {
          "indexed": true,
          "internalType": "address",
          "name": "refiner",
          "type": "address"
        },
        {
          "indexed": false,
          "internalType": "uint256",
          "name": "refinedAt",
          "type": "uint256"
        }
      ],
      "name": "MineralRefined",
      "type": "event"
    },
    {
      "anonymous": false,
      "inputs": [
        {
          "indexed": false,
          "internalType": "string",
          "name": "mineralId",
          "type": "string"
        },
        {
          "indexed": false,
          "internalType": "string",
          "name": "mineralName",
          "type": "string"
        },
        {
          "indexed": false,
          "internalType": "string",
          "name": "mineralType",
          "type": "string"
        },
        {
          "indexed": false,
          "internalType": "string",
          "name": "origin",
          "type": "string"
        },
        {
          "indexed": false,
          "internalType": "uint256",
          "name": "weight",
          "type": "uint256"
        },
        {
          "indexed": false,
          "internalType": "uint256",
          "name": "purityPercentage",
          "type": "uint256"
        },
        {
          "indexed": true,
          "internalType": "address",
          "name": "miner",
          "type": "address"
        },
        {
          "indexed": false,
          "internalType": "uint256",
          "name": "registeredAt",
          "type": "uint256"
        }
      ],
      "name": "MineralRegistered",
      "type": "event"
    },
    {
      "anonymous": false,
      "inputs": [
        {
          "indexed": false,
          "internalType": "string",
          "name": "mineralId",
          "type": "string"
        },
        {
          "indexed": true,
          "internalType": "address",
          "name": "buyer",
          "type": "address"
        },
        {
          "indexed": false,
          "internalType": "address",
          "name": "seller",
          "type": "address"
        },
        {
          "indexed": false,
          "internalType": "uint256",
          "name": "soldAt",
          "type": "uint256"
        }
      ],
      "name": "MineralSold",
      "type": "event"
    },
    {
      "anonymous": false,
      "inputs": [
        {
          "indexed": false,
          "internalType": "string",
          "name": "mineralId",
          "type": "string"
        },
        {
          "indexed": true,
          "internalType": "address",
          "name": "refiner",
          "type": "address"
        },
        {
          "indexed": false,
          "internalType": "uint256",
          "name": "storedAt",
          "type": "uint256"
        }
      ],
      "name": "MineralStored",
      "type": "event"
    },
    {
      "anonymous": false,
      "inputs": [
        {
          "indexed": false,
          "internalType": "string",
          "name": "mineralId",
          "type": "string"
        },
        {
          "indexed": true,
          "internalType": "address",
          "name": "transporter",
          "type": "address"
        },
        {
          "indexed": false,
          "internalType": "address",
          "name": "receivingParty",
          "type": "address"
        },
        {
          "indexed": false,
          "internalType": "string",
          "name": "origin",
          "type": "string"
        },
        {
          "indexed": false,
          "internalType": "string",
          "name": "destination",
          "type": "string"
        },
        {
          "indexed": false,
          "internalType": "uint256",
          "name": "transportedAt",
          "type": "uint256"
        }
      ],
      "name": "MineralTransported",
      "type": "event"
    },
    {
      "anonymous": false,
      "inputs": [
        {
          "indexed": false,
          "internalType": "string",
          "name": "mineralId",
          "type": "string"
        },
        {
          "indexed": false,
          "internalType": "string",
          "name": "updatedField",
          "type": "string"
        },
        {
          "indexed": false,
          "internalType": "string",
          "name": "newValue",
          "type": "string"
        },
        {
          "indexed": true,
          "internalType": "address",
          "name": "updatedBy",
          "type": "address"
        },
        {
          "indexed": false,
          "internalType": "uint256",
          "name": "updatedAt",
          "type": "uint256"
        }
      ],
      "name": "MineralUpdated",
      "type": "event"
    },
    {
      "anonymous": false,
      "inputs": [
        {
          "indexed": true,
          "internalType": "address",
          "name": "assignee",
          "type": "address"
        },
        {
          "indexed": false,
          "internalType": "uint256",
          "name": "timestamp",
          "type": "uint256"
        }
      ],
      "name": "RefinerRoleAssigned",
      "type": "event"
    },
    {
      "anonymous": false,
      "inputs": [
        {
          "indexed": true,
          "internalType": "address",
          "name": "revokee",
          "type": "address"
        },
        {
          "indexed": false,
          "internalType": "string",
          "name": "reason",
          "type": "string"
        },
        {
          "indexed": false,
          "internalType": "uint256",
          "name": "timestamp",
          "type": "uint256"
        }
      ],
      "name": "RefinerRoleRevoked",
      "type": "event"
    },
    {
      "anonymous": false,
      "inputs": [
        {
          "indexed": true,
          "internalType": "bytes32",
          "name": "role",
          "type": "bytes32"
        },
        {
          "indexed": true,
          "internalType": "bytes32",
          "name": "previousAdminRole",
          "type": "bytes32"
        },
        {
          "indexed": true,
          "internalType": "bytes32",
          "name": "newAdminRole",
          "type": "bytes32"
        }
      ],
      "name": "RoleAdminChanged",
      "type": "event"
    },
    {
      "anonymous": false,
      "inputs": [
        {
          "indexed": true,
          "internalType": "address",
          "name": "account",
          "type": "address"
        },
        {
          "indexed": true,
          "internalType": "bytes32",
          "name": "role",
          "type": "bytes32"
        },
        {
          "indexed": false,
          "internalType": "uint256",
          "name": "roleAssignedAt",
          "type": "uint256"
        }
      ],
      "name": "RoleAssigned",
      "type": "event"
    },
    {
      "anonymous": false,
      "inputs": [
        {
          "indexed": true,
          "internalType": "bytes32",
          "name": "role",
          "type": "bytes32"
        },
        {
          "indexed": true,
          "internalType": "address",
          "name": "account",
          "type": "address"
        },
        {
          "indexed": true,
          "internalType": "address",
          "name": "sender",
          "type": "address"
        }
      ],
      "name": "RoleGranted",
      "type": "event"
    },
    {
      "anonymous": false,
      "inputs": [
        {
          "indexed": true,
          "internalType": "bytes32",
          "name": "role",
          "type": "bytes32"
        },
        {
          "indexed": true,
          "internalType": "address",
          "name": "account",
          "type": "address"
        },
        {
          "indexed": true,
          "internalType": "address",
          "name": "sender",
          "type": "address"
        }
      ],
      "name": "RoleRevoked",
      "type": "event"
    },
    {
      "anonymous": false,
      "inputs": [
        {
          "indexed": false,
          "internalType": "bytes32",
          "name": "role",
          "type": "bytes32"
        },
        {
          "indexed": false,
          "internalType": "address",
          "name": "account",
          "type": "address"
        },
        {
          "indexed": false,
          "internalType": "address",
          "name": "revoker",
          "type": "address"
        },
        {
          "indexed": false,
          "internalType": "uint256",
          "name": "roleRevokedAt",
          "type": "uint256"
        }
      ],
      "name": "RoleRevoked",
      "type": "event"
    },
    {
      "anonymous": false,
      "inputs": [
        {
          "indexed": true,
          "internalType": "address",
          "name": "assignee",
          "type": "address"
        },
        {
          "indexed": false,
          "internalType": "uint256",
          "name": "timestamp",
          "type": "uint256"
        }
      ],
      "name": "TransporterRoleAssigned",
      "type": "event"
    },
    {
      "anonymous": false,
      "inputs": [
        {
          "indexed": true,
          "internalType": "address",
          "name": "revokee",
          "type": "address"
        },
        {
          "indexed": false,
          "internalType": "string",
          "name": "reason",
          "type": "string"
        },
        {
          "indexed": false,
          "internalType": "uint256",
          "name": "timestamp",
          "type": "uint256"
        }
      ],
      "name": "TransporterRoleRevoked",
      "type": "event"
    },
    {
      "inputs": [],
      "name": "AUDITOR_ROLE",
      "outputs": [
        {
          "internalType": "bytes32",
          "name": "",
          "type": "bytes32"
        }
      ],
      "stateMutability": "view",
      "type": "function"
    },
    {
      "inputs": [],
      "name": "BUYER_ROLE",
      "outputs": [
        {
          "internalType": "bytes32",
          "name": "",
          "type": "bytes32"
        }
      ],
      "stateMutability": "view",
      "type": "function"
    },
    {
      "inputs": [],
      "name": "DEFAULT_ADMIN_ROLE",
      "outputs": [
        {
          "internalType": "bytes32",
          "name": "",
          "type": "bytes32"
        }
      ],
      "stateMutability": "view",
      "type": "function"
    },
    {
      "inputs": [],
      "name": "INSPECTOR_ROLE",
      "outputs": [
        {
          "internalType": "bytes32",
          "name": "",
          "type": "bytes32"
        }
      ],
      "stateMutability": "view",
      "type": "function"
    },
    {
      "inputs": [],
      "name": "MINER_ROLE",
      "outputs": [
        {
          "internalType": "bytes32",
          "name": "",
          "type": "bytes32"
        }
      ],
      "stateMutability": "view",
      "type": "function"
    },
    {
      "inputs": [],
      "name": "REFINER_ROLE",
      "outputs": [
        {
          "internalType": "bytes32",
          "name": "",
          "type": "bytes32"
        }
      ],
      "stateMutability": "view",
      "type": "function"
    },
    {
      "inputs": [],
      "name": "TRANSPORTER_ROLE",
      "outputs": [
        {
          "internalType": "bytes32",
          "name": "",
          "type": "bytes32"
        }
      ],
      "stateMutability": "view",
      "type": "function"
    },
    {
      "inputs": [
        {
          "internalType": "string",
          "name": "mineralId",
          "type": "string"
        },
        {
          "internalType": "string",
          "name": "report",
          "type": "string"
        }
      ],
      "name": "_auditMineral",
      "outputs": [],
      "stateMutability": "nonpayable",
      "type": "function"
    },
    {
      "inputs": [
        {
          "internalType": "string",
          "name": "mineralId",
          "type": "string"
        }
      ],
      "name": "_checkAuditAndInspectionStatus",
      "outputs": [
        {
          "internalType": "bool",
          "name": "isAudited",
          "type": "bool"
        },
        {
          "internalType": "bool",
          "name": "isInspected",
          "type": "bool"
        }
      ],
      "stateMutability": "nonpayable",
      "type": "function"
    },
    {
      "inputs": [
        {
          "internalType": "string",
          "name": "mineralId",
          "type": "string"
        }
      ],
      "name": "_getMineralHistory",
      "outputs": [
        {
          "components": [
            {
              "internalType": "string",
              "name": "id",
              "type": "string"
            },
            {
              "internalType": "string",
              "name": "fieldChanged",
              "type": "string"
            },
            {
              "internalType": "string",
              "name": "newValue",
              "type": "string"
            },
            {
              "internalType": "address",
              "name": "updatedBy",
              "type": "address"
            },
            {
              "internalType": "uint256",
              "name": "timestamp",
              "type": "uint256"
            }
          ],
          "internalType": "struct RolesManager.MineralHistory[]",
          "name": "",
          "type": "tuple[]"
        }
      ],
      "stateMutability": "view",
      "type": "function"
    },
    {
      "inputs": [
        {
          "internalType": "address",
          "name": "",
          "type": "address"
        }
      ],
      "name": "acceptedTokens",
      "outputs": [
        {
          "internalType": "bool",
          "name": "",
          "type": "bool"
        }
      ],
      "stateMutability": "view",
      "type": "function"
    },
    {
      "inputs": [
        {
          "internalType": "address",
          "name": "_token",
          "type": "address"
        }
      ],
      "name": "addAcceptedToken",
      "outputs": [],
      "stateMutability": "nonpayable",
      "type": "function"
    },
    {
      "inputs": [
        {
          "internalType": "address",
          "name": "account",
          "type": "address"
        }
      ],
      "name": "assignAuditor",
      "outputs": [],
      "stateMutability": "nonpayable",
      "type": "function"
    },
    {
      "inputs": [
        {
          "internalType": "address",
          "name": "account",
          "type": "address"
        }
      ],
      "name": "assignBuyer",
      "outputs": [],
      "stateMutability": "nonpayable",
      "type": "function"
    },
    {
      "inputs": [
        {
          "internalType": "address",
          "name": "account",
          "type": "address"
        }
      ],
      "name": "assignInspector",
      "outputs": [],
      "stateMutability": "nonpayable",
      "type": "function"
    },
    {
      "inputs": [
        {
          "internalType": "address",
          "name": "account",
          "type": "address"
        }
      ],
      "name": "assignMiner",
      "outputs": [],
      "stateMutability": "nonpayable",
      "type": "function"
    },
    {
      "inputs": [
        {
          "internalType": "address",
          "name": "account",
          "type": "address"
        }
      ],
      "name": "assignRefiner",
      "outputs": [],
      "stateMutability": "nonpayable",
      "type": "function"
    },
    {
      "inputs": [
        {
          "internalType": "address",
          "name": "account",
          "type": "address"
        }
      ],
      "name": "assignTransporter",
      "outputs": [],
      "stateMutability": "nonpayable",
      "type": "function"
    },
    {
      "inputs": [
        {
          "internalType": "string",
          "name": "mineralId",
          "type": "string"
        }
      ],
      "name": "checkAuditAndInspectionStatus",
      "outputs": [
        {
          "internalType": "bool",
          "name": "isAudited",
          "type": "bool"
        },
        {
          "internalType": "bool",
          "name": "isInspected",
          "type": "bool"
        }
      ],
      "stateMutability": "nonpayable",
      "type": "function"
    },
    {
      "inputs": [],
      "name": "getAllRoleCounts",
      "outputs": [
        {
          "internalType": "uint256",
          "name": "minerCount",
          "type": "uint256"
        },
        {
          "internalType": "uint256",
          "name": "refinerCount",
          "type": "uint256"
        },
        {
          "internalType": "uint256",
          "name": "transporterCount",
          "type": "uint256"
        },
        {
          "internalType": "uint256",
          "name": "auditorCount",
          "type": "uint256"
        },
        {
          "internalType": "uint256",
          "name": "inspectorCount",
          "type": "uint256"
        },
        {
          "internalType": "uint256",
          "name": "buyerCount",
          "type": "uint256"
        }
      ],
      "stateMutability": "view",
      "type": "function"
    },
    {
      "inputs": [
        {
          "internalType": "string",
          "name": "mineralId",
          "type": "string"
        }
      ],
      "name": "getMineralDetails",
      "outputs": [
        {
          "components": [
            {
              "internalType": "string",
              "name": "id",
              "type": "string"
            },
            {
              "internalType": "string",
              "name": "name",
              "type": "string"
            },
            {
              "internalType": "string",
              "name": "origin",
              "type": "string"
            },
            {
              "internalType": "string",
              "name": "mineralType",
              "type": "string"
            },
            {
              "internalType": "uint256",
              "name": "weight",
              "type": "uint256"
            },
            {
              "internalType": "uint256",
              "name": "purityPercentage",
              "type": "uint256"
            },
            {
              "internalType": "string",
              "name": "storageConditions",
              "type": "string"
            },
            {
              "internalType": "address",
              "name": "registeredBy",
              "type": "address"
            },
            {
              "internalType": "string",
              "name": "currentStatus",
              "type": "string"
            },
            {
              "internalType": "string",
              "name": "currentLocation",
              "type": "string"
            },
            {
              "internalType": "address",
              "name": "currentHandler",
              "type": "address"
            },
            {
              "internalType": "bool",
              "name": "isPurchased",
              "type": "bool"
            },
            {
              "internalType": "bool",
              "name": "isRefined",
              "type": "bool"
            },
            {
              "internalType": "bool",
              "name": "isAudited",
              "type": "bool"
            },
            {
              "internalType": "bool",
              "name": "isInspected",
              "type": "bool"
            },
            {
              "internalType": "uint256",
              "name": "timestamp",
              "type": "uint256"
            }
          ],
          "internalType": "struct RolesManager.MineralDetails",
          "name": "",
          "type": "tuple"
        }
      ],
      "stateMutability": "view",
      "type": "function"
    },
    {
      "inputs": [
        {
          "internalType": "string",
          "name": "mineralId",
          "type": "string"
        }
      ],
      "name": "getMineralHistory",
      "outputs": [
        {
          "components": [
            {
              "internalType": "string",
              "name": "id",
              "type": "string"
            },
            {
              "internalType": "string",
              "name": "fieldChanged",
              "type": "string"
            },
            {
              "internalType": "string",
              "name": "newValue",
              "type": "string"
            },
            {
              "internalType": "address",
              "name": "updatedBy",
              "type": "address"
            },
            {
              "internalType": "uint256",
              "name": "timestamp",
              "type": "uint256"
            }
          ],
          "internalType": "struct RolesManager.MineralHistory[]",
          "name": "",
          "type": "tuple[]"
        }
      ],
      "stateMutability": "view",
      "type": "function"
    },
    {
      "inputs": [
        {
          "internalType": "string",
          "name": "_mineralId",
          "type": "string"
        },
        {
          "internalType": "address",
          "name": "token",
          "type": "address"
        }
      ],
      "name": "getMineralPriceInToken",
      "outputs": [
        {
          "internalType": "uint256",
          "name": "",
          "type": "uint256"
        }
      ],
      "stateMutability": "view",
      "type": "function"
    },
    {
      "inputs": [
        {
          "internalType": "bytes32",
          "name": "role",
          "type": "bytes32"
        }
      ],
      "name": "getRoleAdmin",
      "outputs": [
        {
          "internalType": "bytes32",
          "name": "",
          "type": "bytes32"
        }
      ],
      "stateMutability": "view",
      "type": "function"
    },
    {
      "inputs": [
        {
          "internalType": "bytes32",
          "name": "role",
          "type": "bytes32"
        }
      ],
      "name": "getRoleMemberCount",
      "outputs": [
        {
          "internalType": "uint256",
          "name": "count",
          "type": "uint256"
        }
      ],
      "stateMutability": "view",
      "type": "function"
    },
    {
      "inputs": [
        {
          "internalType": "address",
          "name": "account",
          "type": "address"
        }
      ],
      "name": "getRolesForAddress",
      "outputs": [
        {
          "internalType": "string[]",
          "name": "roles",
          "type": "string[]"
        }
      ],
      "stateMutability": "view",
      "type": "function"
    },
    {
      "inputs": [
        {
          "internalType": "bytes32",
          "name": "role",
          "type": "bytes32"
        },
        {
          "internalType": "address",
          "name": "account",
          "type": "address"
        }
      ],
      "name": "grantRole",
      "outputs": [],
      "stateMutability": "nonpayable",
      "type": "function"
    },
    {
      "inputs": [
        {
          "internalType": "address",
          "name": "account",
          "type": "address"
        }
      ],
      "name": "hasAdminRole",
      "outputs": [
        {
          "internalType": "bool",
          "name": "",
          "type": "bool"
        }
      ],
      "stateMutability": "view",
      "type": "function"
    },
    {
      "inputs": [
        {
          "internalType": "address",
          "name": "account",
          "type": "address"
        }
      ],
      "name": "hasAuditorRole",
      "outputs": [
        {
          "internalType": "bool",
          "name": "",
          "type": "bool"
        }
      ],
      "stateMutability": "view",
      "type": "function"
    },
    {
      "inputs": [
        {
          "internalType": "address",
          "name": "account",
          "type": "address"
        }
      ],
      "name": "hasBuyerRole",
      "outputs": [
        {
          "internalType": "bool",
          "name": "",
          "type": "bool"
        }
      ],
      "stateMutability": "view",
      "type": "function"
    },
    {
      "inputs": [
        {
          "internalType": "address",
          "name": "account",
          "type": "address"
        }
      ],
      "name": "hasInspectorRole",
      "outputs": [
        {
          "internalType": "bool",
          "name": "",
          "type": "bool"
        }
      ],
      "stateMutability": "view",
      "type": "function"
    },
    {
      "inputs": [
        {
          "internalType": "address",
          "name": "account",
          "type": "address"
        }
      ],
      "name": "hasMinerRole",
      "outputs": [
        {
          "internalType": "bool",
          "name": "",
          "type": "bool"
        }
      ],
      "stateMutability": "view",
      "type": "function"
    },
    {
      "inputs": [
        {
          "internalType": "address",
          "name": "account",
          "type": "address"
        }
      ],
      "name": "hasRefinerRole",
      "outputs": [
        {
          "internalType": "bool",
          "name": "",
          "type": "bool"
        }
      ],
      "stateMutability": "view",
      "type": "function"
    },
    {
      "inputs": [
        {
          "internalType": "bytes32",
          "name": "role",
          "type": "bytes32"
        },
        {
          "internalType": "address",
          "name": "account",
          "type": "address"
        }
      ],
      "name": "hasRole",
      "outputs": [
        {
          "internalType": "bool",
          "name": "",
          "type": "bool"
        }
      ],
      "stateMutability": "view",
      "type": "function"
    },
    {
      "inputs": [
        {
          "internalType": "address",
          "name": "account",
          "type": "address"
        }
      ],
      "name": "hasTransporterRole",
      "outputs": [
        {
          "internalType": "bool",
          "name": "",
          "type": "bool"
        }
      ],
      "stateMutability": "view",
      "type": "function"
    },
    {
      "inputs": [
        {
          "internalType": "string",
          "name": "mineralId",
          "type": "string"
        },
        {
          "internalType": "string",
          "name": "report",
          "type": "string"
        }
      ],
      "name": "inspectMineral",
      "outputs": [],
      "stateMutability": "nonpayable",
      "type": "function"
    },
    {
      "inputs": [
        {
          "internalType": "string",
          "name": "mineralId",
          "type": "string"
        }
      ],
      "name": "isMineralAudited",
      "outputs": [
        {
          "internalType": "bool",
          "name": "",
          "type": "bool"
        }
      ],
      "stateMutability": "view",
      "type": "function"
    },
    {
      "inputs": [
        {
          "internalType": "string",
          "name": "mineralId",
          "type": "string"
        }
      ],
      "name": "isMineralInspected",
      "outputs": [
        {
          "internalType": "bool",
          "name": "",
          "type": "bool"
        }
      ],
      "stateMutability": "view",
      "type": "function"
    },
    {
      "inputs": [
        {
          "internalType": "string",
          "name": "_mineralId",
          "type": "string"
        }
      ],
      "name": "isMineralMarketReady",
      "outputs": [
        {
          "internalType": "bool",
          "name": "",
          "type": "bool"
        }
      ],
      "stateMutability": "view",
      "type": "function"
    },
    {
      "inputs": [
        {
          "internalType": "string",
          "name": "mineralId",
          "type": "string"
        }
      ],
      "name": "isMineralRegistered",
      "outputs": [
        {
          "internalType": "bool",
          "name": "",
          "type": "bool"
        }
      ],
      "stateMutability": "nonpayable",
      "type": "function"
    },
    {
      "inputs": [
        {
          "internalType": "string",
          "name": "_mineralId",
          "type": "string"
        },
        {
          "internalType": "string",
          "name": "_price",
          "type": "string"
        }
      ],
      "name": "list_Mineral_ForSale",
      "outputs": [],
      "stateMutability": "nonpayable",
      "type": "function"
    },
    {
      "inputs": [
        {
          "internalType": "string",
          "name": "",
          "type": "string"
        }
      ],
      "name": "mineralDetails",
      "outputs": [
        {
          "internalType": "string",
          "name": "id",
          "type": "string"
        },
        {
          "internalType": "string",
          "name": "name",
          "type": "string"
        },
        {
          "internalType": "string",
          "name": "origin",
          "type": "string"
        },
        {
          "internalType": "string",
          "name": "mineralType",
          "type": "string"
        },
        {
          "internalType": "uint256",
          "name": "weight",
          "type": "uint256"
        },
        {
          "internalType": "uint256",
          "name": "purityPercentage",
          "type": "uint256"
        },
        {
          "internalType": "string",
          "name": "storageConditions",
          "type": "string"
        },
        {
          "internalType": "address",
          "name": "registeredBy",
          "type": "address"
        },
        {
          "internalType": "string",
          "name": "currentStatus",
          "type": "string"
        },
        {
          "internalType": "string",
          "name": "currentLocation",
          "type": "string"
        },
        {
          "internalType": "address",
          "name": "currentHandler",
          "type": "address"
        },
        {
          "internalType": "bool",
          "name": "isPurchased",
          "type": "bool"
        },
        {
          "internalType": "bool",
          "name": "isRefined",
          "type": "bool"
        },
        {
          "internalType": "bool",
          "name": "isAudited",
          "type": "bool"
        },
        {
          "internalType": "bool",
          "name": "isInspected",
          "type": "bool"
        },
        {
          "internalType": "uint256",
          "name": "timestamp",
          "type": "uint256"
        }
      ],
      "stateMutability": "view",
      "type": "function"
    },
    {
      "inputs": [
        {
          "internalType": "string",
          "name": "",
          "type": "string"
        },
        {
          "internalType": "uint256",
          "name": "",
          "type": "uint256"
        }
      ],
      "name": "mineralHistories",
      "outputs": [
        {
          "internalType": "string",
          "name": "id",
          "type": "string"
        },
        {
          "internalType": "string",
          "name": "fieldChanged",
          "type": "string"
        },
        {
          "internalType": "string",
          "name": "newValue",
          "type": "string"
        },
        {
          "internalType": "address",
          "name": "updatedBy",
          "type": "address"
        },
        {
          "internalType": "uint256",
          "name": "timestamp",
          "type": "uint256"
        }
      ],
      "stateMutability": "view",
      "type": "function"
    },
    {
      "inputs": [
        {
          "internalType": "string",
          "name": "mineralId",
          "type": "string"
        }
      ],
      "name": "purchaseMineral",
      "outputs": [],
      "stateMutability": "nonpayable",
      "type": "function"
    },
    {
      "inputs": [
        {
          "internalType": "string",
          "name": "_mineralId",
          "type": "string"
        },
        {
          "internalType": "enum MineralWarehouse.PaymentMethod",
          "name": "method",
          "type": "uint8"
        },
        {
          "internalType": "address",
          "name": "token",
          "type": "address"
        },
        {
          "internalType": "uint256",
          "name": "amount",
          "type": "uint256"
        }
      ],
      "name": "purchase_mineral",
      "outputs": [],
      "stateMutability": "payable",
      "type": "function"
    },
    {
      "inputs": [
        {
          "internalType": "string",
          "name": "mineralId",
          "type": "string"
        },
        {
          "internalType": "string",
          "name": "report",
          "type": "string"
        }
      ],
      "name": "refineMineral",
      "outputs": [],
      "stateMutability": "nonpayable",
      "type": "function"
    },
    {
      "inputs": [
        {
          "internalType": "string",
          "name": "_name",
          "type": "string"
        },
        {
          "internalType": "string",
          "name": "_mineralType",
          "type": "string"
        },
        {
          "internalType": "uint256",
          "name": "_weight",
          "type": "uint256"
        },
        {
          "internalType": "string",
          "name": "_origin",
          "type": "string"
        },
        {
          "internalType": "uint256",
          "name": "_purityPercentage",
          "type": "uint256"
        },
        {
          "internalType": "string",
          "name": "_storageConditions",
          "type": "string"
        }
      ],
      "name": "registerMineral",
      "outputs": [
        {
          "internalType": "string",
          "name": "",
          "type": "string"
        }
      ],
      "stateMutability": "nonpayable",
      "type": "function"
    },
    {
      "inputs": [
        {
          "internalType": "bytes32",
          "name": "role",
          "type": "bytes32"
        },
        {
          "internalType": "address",
          "name": "callerConfirmation",
          "type": "address"
        }
      ],
      "name": "renounceRole",
      "outputs": [],
      "stateMutability": "nonpayable",
      "type": "function"
    },
    {
      "inputs": [
        {
          "internalType": "address",
          "name": "account",
          "type": "address"
        },
        {
          "internalType": "string",
          "name": "reason",
          "type": "string"
        }
      ],
      "name": "revokeAuditor",
      "outputs": [],
      "stateMutability": "nonpayable",
      "type": "function"
    },
    {
      "inputs": [
        {
          "internalType": "address",
          "name": "account",
          "type": "address"
        },
        {
          "internalType": "string",
          "name": "reason",
          "type": "string"
        }
      ],
      "name": "revokeBuyer",
      "outputs": [],
      "stateMutability": "nonpayable",
      "type": "function"
    },
    {
      "inputs": [
        {
          "internalType": "address",
          "name": "account",
          "type": "address"
        },
        {
          "internalType": "string",
          "name": "reason",
          "type": "string"
        }
      ],
      "name": "revokeInspector",
      "outputs": [],
      "stateMutability": "nonpayable",
      "type": "function"
    },
    {
      "inputs": [
        {
          "internalType": "address",
          "name": "account",
          "type": "address"
        },
        {
          "internalType": "string",
          "name": "reason",
          "type": "string"
        }
      ],
      "name": "revokeMiner",
      "outputs": [],
      "stateMutability": "nonpayable",
      "type": "function"
    },
    {
      "inputs": [
        {
          "internalType": "address",
          "name": "account",
          "type": "address"
        },
        {
          "internalType": "string",
          "name": "reason",
          "type": "string"
        }
      ],
      "name": "revokeRefiner",
      "outputs": [],
      "stateMutability": "nonpayable",
      "type": "function"
    },
    {
      "inputs": [
        {
          "internalType": "bytes32",
          "name": "role",
          "type": "bytes32"
        },
        {
          "internalType": "address",
          "name": "account",
          "type": "address"
        }
      ],
      "name": "revokeRole",
      "outputs": [],
      "stateMutability": "nonpayable",
      "type": "function"
    },
    {
      "inputs": [
        {
          "internalType": "address",
          "name": "account",
          "type": "address"
        },
        {
          "internalType": "string",
          "name": "reason",
          "type": "string"
        }
      ],
      "name": "revokeTransporter",
      "outputs": [],
      "stateMutability": "nonpayable",
      "type": "function"
    },
    {
      "inputs": [
        {
          "internalType": "bytes32",
          "name": "",
          "type": "bytes32"
        }
      ],
      "name": "roleMemberCount",
      "outputs": [
        {
          "internalType": "uint256",
          "name": "",
          "type": "uint256"
        }
      ],
      "stateMutability": "view",
      "type": "function"
    },
    {
      "inputs": [
        {
          "internalType": "string",
          "name": "_mineralId",
          "type": "string"
        },
        {
          "internalType": "uint256",
          "name": "_priceETH",
          "type": "uint256"
        },
        {
          "internalType": "address[]",
          "name": "tokens",
          "type": "address[]"
        },
        {
          "internalType": "uint256[]",
          "name": "prices",
          "type": "uint256[]"
        }
      ],
      "name": "store_refined_mineral_to_warehouse",
      "outputs": [],
      "stateMutability": "nonpayable",
      "type": "function"
    },
    {
      "inputs": [
        {
          "internalType": "bytes4",
          "name": "interfaceId",
          "type": "bytes4"
        }
      ],
      "name": "supportsInterface",
      "outputs": [
        {
          "internalType": "bool",
          "name": "",
          "type": "bool"
        }
      ],
      "stateMutability": "view",
      "type": "function"
    },
    {
      "inputs": [
        {
          "internalType": "string",
          "name": "mineralId",
          "type": "string"
        },
        {
          "internalType": "address",
          "name": "_receivingParty",
          "type": "address"
        },
        {
          "internalType": "string",
          "name": "_origin",
          "type": "string"
        },
        {
          "internalType": "string",
          "name": "_destination",
          "type": "string"
        }
      ],
      "name": "transferMineral",
      "outputs": [],
      "stateMutability": "nonpayable",
      "type": "function"
    },
    {
      "inputs": [
        {
          "internalType": "string",
          "name": "mineralId",
          "type": "string"
        },
        {
          "internalType": "string",
          "name": "newLocation",
          "type": "string"
        }
      ],
      "name": "updateMineralLocation",
      "outputs": [],
      "stateMutability": "nonpayable",
      "type": "function"
    },
    {
      "inputs": [
        {
          "internalType": "string",
          "name": "mineralId",
          "type": "string"
        },
        {
          "internalType": "string",
          "name": "newStatus",
          "type": "string"
        }
      ],
      "name": "updateMineralStatus",
      "outputs": [],
      "stateMutability": "nonpayable",
      "type": "function"
    }
  ],
  "bytecode": "0x608034620003d75762005b6190601f38839003908101601f19168201906001600160401b03821183831017620003dc5780839160409586948552833981010312620003d7576200004f81620003f2565b6200005e6020809301620003f2565b91434201804211620003c15760019081556200007a3362000407565b5060008080526004808452868220805460001991908281146200039b5785019055828052818552838884205587514281527f458ea7e03b3466b3cf9bc2d66ddea8b11fe9469982816f42666888e6c8c6e664863392a2620000db3362000487565b507fa952726ef2588ad078edf35b066f7c7406e207cb0003bbaba8cb53eba9553e728084528286528884208054838114620003ae57860190558352818552838884205587514281527f593f046317558c2857b92915c62c99f2d2108f7bc6f1e1b3c5376cd559abf559863392a2620001533362000529565b507f59a1c48e5837ad7a7f3dcedcbe129bf3249ec4fbf651fd4f5e2600ead39fe2f58084528286528884208054838114620003ae57860190558352818552838884205587514281527f4a02edd19f09212e54b2ac85d7d3a4a2e3fbf424e6710c3f817d9b4cecc9cdb3863392a2620001cb33620005c6565b5060008051602062005b018339815191528084528286528884208054838114620003ae57860190558352818552838884205587514281527f49cc27c2a068c01cf703c3923dfc679109b5f6c27bd1f61b542c159e3a73e092863392a2620002323362000652565b5060008051602062005b218339815191528084528286528884208054838114620003ae57860190558352818552838884205587514281527ff8ed9ac482b0f7c12999b3f157f758f84e39cd339fa301ea203823ac29e97505863392a26200029933620006de565b5060008051602062005b418339815191528084528286528884208054838114620003ae57860190558352818552838884205587514281527f4e3eede475de92d3e23765b737dbb67646352b3328c1a437d7f089766d7be751863392a262000300336200076a565b5060008051602062005ae1833981519152908184528286528884209081549081146200039b57850190558252835285902055835142815233917f964e50cb3bdb84c00a30f56ae15d538d23dc6db14f891d7d819761b161e990a691a260018060a01b038091169160018060a01b0319928084600554161760055583600754161760075516906006541617600655516152ca9081620007f78239f35b634e487b7160e01b855260118452602485fd5b634e487b7160e01b865260118552602486fd5b634e487b7160e01b600052601160045260246000fd5b600080fd5b634e487b7160e01b600052604160045260246000fd5b51906001600160a01b0382168203620003d757565b6001600160a01b031660008181527fad3228b676f7d3cd4284a5443f17f1962b36e491b30a40b2405849e597ba5fb5602052604081205490919060ff166200048357818052816020526040822081835260205260408220600160ff19825416179055339160008051602062005ac18339815191528180a4600190565b5090565b6001600160a01b031660008181527fbb3fcc25fbffa12ea463b3505377899a4d5ddb4858b9c7bd36764686d9425b3660205260408120549091907fa952726ef2588ad078edf35b066f7c7406e207cb0003bbaba8cb53eba9553e729060ff166200052457808352826020526040832082845260205260408320600160ff1982541617905560008051602062005ac1833981519152339380a4600190565b505090565b6001600160a01b031660008181527f0d2d6a5d08cb5d871289c0a3ca855d9da72909a111c24cce2d5c2b34a20daa5460205260408120549091907f59a1c48e5837ad7a7f3dcedcbe129bf3249ec4fbf651fd4f5e2600ead39fe2f59060ff166200052457808352826020526040832082845260205260408320600160ff1982541617905560008051602062005ac1833981519152339380a4600190565b6001600160a01b031660008181527facfff8a39fb957d9d1c8e3ef9f08385e3fcf7bb23ab7ba0ad0f8df93dbde6a68602052604081205490919060008051602062005b018339815191529060ff166200052457808352826020526040832082845260205260408320600160ff1982541617905560008051602062005ac1833981519152339380a4600190565b6001600160a01b031660008181527ff3fa603c74bfe2a4719960e47343678c3dc690d2b27a2295acc6fc430833aaf9602052604081205490919060008051602062005b218339815191529060ff166200052457808352826020526040832082845260205260408320600160ff1982541617905560008051602062005ac1833981519152339380a4600190565b6001600160a01b031660008181527f4130a4caca6023b0ba21488ee680ce5c3df22860b1cd8b02cd2a0bcb0de98851602052604081205490919060008051602062005b418339815191529060ff166200052457808352826020526040832082845260205260408320600160ff1982541617905560008051602062005ac1833981519152339380a4600190565b6001600160a01b031660008181527fbce5fd3347e0dc338dcc0e895534dd4af2740eec95f56cd4ca4b4b2ada357ca0602052604081205490919060008051602062005ae18339815191529060ff166200052457808352826020526040832082845260205260408320600160ff1982541617905560008051602062005ac1833981519152339380a460019056fe608080604052600436101561001357600080fd5b60003560e01c90816301ffc9a714613f4b575080630958fc2d14613e915780630dacad2e14613dd7578063126ee33814613ade578063129b5c45146139775780631c7588fc14613828578063248a9ca3146137f95780632ba3e5ac146137a65780632f2ff15d14613767578063309514df146136ec5780633499c3a21461369c57806335ba62071461359657806336568abe1461354f5780633a7adea514612f245780633eee83f114612e6d57806343d990d814612a9b578063480d1dd3146129e15780634e2a3109146128e85780634eabbe77146128bf5780635aee1b151461269c5780636377741d146125e25780636394f6e6146125b95780636e1d616e1461259057806370e22e421461254057806375a2b0d41461238757806379451cd71461235e5780637a01a1da146123355780637ae9c160146122ba5780637cde2b99146121c1578063826fe0f51461206157806382dc4a05146120225780638604d28814611e815780638850845f14611e3157806391d1485414611de4578063981642c614611d3c5780639969119414611c3e5780639b188dd614611bc3578063a217fddf14611ba7578063a354aec714611926578063a672d987146117c1578063a917601b14611707578063abaa536f146116b7578063ac851dfd14611625578063b6ba1ca7146115f9578063b9c5b833146114d4578063beae461514611484578063c395fcb314611422578063c5db94be1461138b578063ca15c873146112a1578063cc82b090146111d5578063d547741f14611194578063de7ce39114611144578063df422bf214610c1d578063e2e3edeb14610b3c578063e3a3c52214610b13578063e438fdf814610a98578063ef4c0c9414610801578063f17f3523146105f8578063f5716a8514610540578063f6e2314b146103a55763fc1032eb146102be57600080fd5b346103a0576102cc366140ef565b6102d461442c565b6102dd82614380565b1561038e576103657f93e936184fad9f80c7000aa987f91be0cd621bacde11839fdc7139f3d9c2407b91600080516020615235833981519152806000526000602052610330600160406000200154614484565b61033985614a29565b506000526004602052604060002080548061037c575b505060405191829160408352604083019061423d565b4260208301526001600160a01b03909416930390a2005b61038590614ce7565b9055388061034f565b604051632ac1560560e21b8152600490fd5b600080fd5b346103a0576020806003193601126103a0576004356001600160401b0381116103a0576103d6903690600401614053565b906040519082519261040e610415838301956103f381878961412e565b850194848160029788815203019020604051928380926141a7565b0382614032565b8281519101208151908186201490811591610537575b50610510576104426040519485925192839161412e565b83019281816003958681520301902080549161045d83614262565b9361046b6040519586614032565b8385526000928352818320908286015b85851061049457604051806104908982614279565b0390f35b6005846001926040516104a681613ffc565b6040516104b78161040e818b6141a7565b81526040516104cc8161040e81898c016141a7565b838201526040516104e38161040e818a8c016141a7565b6040820152848060a01b038c8801541660608201526004870154608082015281520193019401939161047b565b9061053360405192839263f855236d60e01b84526004840152602483019061423d565b0390fd5b9050158561042b565b346103a05761054e366140ef565b61055661442c565b61055f826143ab565b1561038e576103657f4614600adaea632b1e4c381ad24471dab7b587dca104c8dd4da76bc64f19716f916000805160206152558339815191528060005260006020526105b2600160406000200154614484565b6105bb856149b4565b50600052600460205260406000208054806105e657505060405191829160408352604083019061423d565b6105ef90614ce7565b9055848061034f565b346103a05760803660031901126103a0576001600160401b036004358181116103a057610629903690600401614053565b90610632613fb4565b906044358181116103a05761064b903690600401614053565b906064359081116103a057610664903690600401614053565b9060008051602061515583398151915260005260209260008452604060002033600052845260ff60406000205416156107e9576001600160a01b031680156107d7578151156107c5578251156107b357604051600160ff600a8851938881818c01966106d181838a61412e565b81016002815203019020015460a01c161515146107915793610782939261077492600a61072c847f55b00b3c29344a545244b18d70b135e423405427088bd5425f13d690b82310b4998b60405193849283925192839161412e565b8101600281520301902001336bffffffffffffffffffffffff60a01b8254161790556107636040519860a08a5260a08a019061423d565b92880152868203604088015261423d565b90848203606086015261423d565b914260808201528033930390a2005b604051632072bb0160e11b81526004810186905280610533602482018961423d565b604051635dbef47560e01b8152600490fd5b6040516326813e6f60e01b8152600490fd5b60405163bea3fd2f60e01b8152600490fd5b604051630568555f60e41b8152336004820152602490fd5b60803660031901126103a0576004356001600160401b0381116103a05761082c903690600401614053565b60243560028110156103a0576044356001600160a01b0381811693918490036103a05733600090815260008051602061511583398151915260209081526040909120549094606435949160ff16156107e957604051868186516108928183858b0161412e565b810160088152030190209460048601926108b360ff855460081c1615615099565b6109aa5750506006840154340361096e5760008080808560018901541681903415610964575b3491f115610958577f940131602d0921830dc2448c37a7e380fa8625c7c0b95d4aa8f3f26f84d270ae936001915b610100815442600385015563010000008560b81b033360181b1690828660b81b031916171790550154166109466040519260608452606084019061423d565b938201524260408201528033930390a2005b6040513d6000823e3d90fd5b6108fc91506108d9565b60405162461bcd60e51b8152600481018690526014602482015273125b98dbdc9c9958dd0811551208185b5bdd5b9d60621b6044820152606490fd5b816000526007860187526040600020548103610a5a578690606485600189015416600060405195869485936323b872dd60e01b8552336004860152602485015260448401525af1801561095857610a27575b507f940131602d0921830dc2448c37a7e380fa8625c7c0b95d4aa8f3f26f84d270ae93600191610907565b8581813d8311610a53575b610a3c8183614032565b810103126103a05751801515036103a057856109fc565b503d610a32565b60405162461bcd60e51b8152600481018890526016602482015275125b98dbdc9c9958dd081d1bdad95b88185b5bdd5b9d60521b6044820152606490fd5b346103a057610aa6366140ef565b610aae61442c565b610ab782614401565b1561038e576103657f352e14c53d161e2481e65145b53265d1608f979a93a06df66d4c99b2a84ddc6391600080516020615175833981519152806000526000602052610b0a600160406000200154614484565b6105bb8561493f565b346103a05760003660031901126103a05760206040516000805160206151758339815191528152f35b346103a0576020806003193601126103a0576004356001600160401b0381116103a057610b6d903690600401614053565b9060405161040e610ba1845192848181880195610b8b81838961412e565b81016002815203019020604051928380926141a7565b8281519101208351908183201490811591610c14575b50610bf157600a610bd78360ff938660405193849283925192839161412e565b81016002815203019020015460b81c166040519015158152f35b5061053360405192839263f855236d60e01b84526004840152602483019061423d565b90501584610bb7565b346103a0576020806003193601126103a0576001600160a01b03610c3f613f9e565b168015611132576000906000805260008352604060002081600052835260ff8060406000205416611129575b60008051602061521583398151915291826000526000855260406000208160005285528160406000205416611119575b600080516020615255833981519152806000526000865260406000208260005286528260406000205416611109575b6000805160206151558339815191528060005260008752604060002083600052875283604060002054166110f9575b6000805160206152358339815191528060005260008852604060002084600052885284604060002054166110e9575b600080516020615175833981519152918260005260008952604060002085600052895285604060002054166110d9575b6000805160206151f5833981519152938460005260008a526040600020866000528a5286604060002054166110c9575b610d9189614262565b98610d9f6040519a8b614032565b808a52610dae601f1991614262565b018a8a60005b8381106110b857505050506000976000805260008b526040600020876000528b52876040600020541661107d575b60005260008a526040600020866000528a528660406000205416611040575b6000526000895260406000208560005289528560406000205416611001575b6000526000885260406000208460005288528460406000205416610fbe575b6000526000875260406000208360005287528360406000205416610f7f575b6000526000865260406000208260005286528260406000205416610f3e575b60005260008552604060002090600052845260406000205416610efb575b506040519082820192808352815180945260408301938160408260051b8601019301916000955b828710610ecf5785850386f35b909192938280610eeb600193603f198a8203018652885161423d565b9601920196019592919092610ec2565b610f3790604051610f0b81614017565b6005815264212aaca2a960d91b85820152610f268285614d01565b52610f318184614d01565b50614cd8565b5082610e9b565b92610f7990604051610f4f81614017565b600981526824a729a822a1aa27a960b91b88820152610f6e8288614d01565b52610f318187614d01565b92610e7d565b93610fb890604051610f9081614017565b600781526620aaa224aa27a960c91b89820152610fad8289614d01565b52610f318188614d01565b93610e5e565b94610ffb90604051610fcf81614017565b600b81526a2a2920a729a827a92a22a960a91b8a820152610ff0828a614d01565b52610f318189614d01565b94610e3f565b9561103a9060405161101281614017565b60078152662922a324a722a960c91b8b82015261102f828b614d01565b52610f31818a614d01565b95610e20565b966110779060405161105181614017565b600581526426a4a722a960d91b8c82015261106c828c614d01565b52610f31818b614d01565b96610e01565b975060405161108b81614017565b600581526420a226a4a760d91b8b8201526110a58a614cf4565b526110af89614cf4565b50600197610de2565b606083828194010152018b90610db4565b976110d390614cd8565b97610d88565b966110e390614cd8565b96610d58565b956110f390614cd8565b95610d28565b9461110390614cd8565b94610cf9565b9361111390614cd8565b93610cca565b9261112390614cd8565b92610c9b565b60019250610c6b565b60405163200db56f60e11b8152600490fd5b346103a05760203660031901126103a05761115d613f9e565b6001600160a01b031660009081526000805160206151d5833981519152602090815260409182902054915160ff9092161515825290f35b346103a05760403660031901126103a0576111d36004356111b3613fb4565b908060005260006020526111ce600160406000200154614484565b614a9e565b005b346103a05760203660031901126103a0576111ee613f9e565b6001600160a01b0381169081156111325761120761442c565b61121081614401565b61128f5761121d90614702565b5060008051602061517583398151915260005260046020527f9d423956391424a558206d539d4c7b96f2596f9d71b6fe92efe1f071a870ba94805461126190614cd8565b90557f49cc27c2a068c01cf703c3923dfc679109b5f6c27bd1f61b542c159e3a73e0926020604051428152a2005b6040516314726de560e21b8152600490fd5b346103a05760203660031901126103a05760043560008051602061521583398151915281148015611374575b801561135d575b8015611346575b801561132f575b8015611318575b156113065760005260046020526020604060002054604051908152f35b604051636b9c461160e01b8152600490fd5b506000805160206151f583398151915281146112e9565b5060008051602061517583398151915281146112e2565b5060008051602061523583398151915281146112db565b5060008051602061515583398151915281146112d4565b5060008051602061525583398151915281146112cd565b346103a05760403660031901126103a0576004356001600160401b0381116103a0576113bb903690600401614053565b600761140060206001600160a01b036113d2613fb4565b169384600052600a82526113ed60ff60406000205416615058565b816040519382858094519384920161412e565b8101600881520301902001906000526020526020604060002054604051908152f35b346103a05760203660031901126103a05761143b613f9e565b6001600160a01b031660009081527fad3228b676f7d3cd4284a5443f17f1962b36e491b30a40b2405849e597ba5fb5602090815260409182902054915160ff9092161515825290f35b346103a05760203660031901126103a05761149d613f9e565b6001600160a01b03166000908152600080516020615115833981519152602090815260409182902054915160ff9092161515825290f35b346103a05760003660031901126103a057600460209081527f973ccc145476ef147b966a44694f8b2d26bac5a3d44a844fec6be696fe5fea70547f02ff85b9f193a3a7824cbaf5a79db262c0bac955152adf2752c6413d76b2d3c7547f0e08e55c6329ca2d4f38429c472032b4e97537c869a64c376bb7e702721eb8c3547fa792fa383e6bd9c6b4465bbfd8031f4b47377210fa121067c03906e9afac6246547f9d423956391424a558206d539d4c7b96f2596f9d71b6fe92efe1f071a870ba94546000805160206151f58339815191526000527f5455ba4b8a75b33fa0f1f7affd9817680912f06b7b194bcf9ac01183c4930020546040805196875296860194909452948401919091526060830152608082019290925260a081019190915260c090f35b346103a05760203660031901126103a05760043560005260046020526020604060002054604051908152f35b346103a0576020806003193601126103a0576004356001600160401b0381116103a057611656903690600401614053565b8051156105105760405161040e61167a835192858181870195610b8b81838961412e565b838151910120908251902003611694575060405160018152f35b906105336040519283926311bb0bc960e31b84526004840152602483019061423d565b346103a05760203660031901126103a0576116d0613f9e565b6001600160a01b031660009081526000805160206150d5833981519152602090815260409182902054915160ff9092161515825290f35b346103a05760203660031901126103a057611720613f9e565b6001600160a01b0381169081156111325761173961442c565b611742816143d6565b61128f5761174f9061468b565b5060008051602061515583398151915260005260046020527f0e08e55c6329ca2d4f38429c472032b4e97537c869a64c376bb7e702721eb8c3805461179390614cd8565b90557f964e50cb3bdb84c00a30f56ae15d538d23dc6db14f891d7d819761b161e990a66020604051428152a2005b346103a05760203660031901126103a0576004356001600160401b0381116103a0576117f46117f9913690600401614053565b614de6565b604051809160208252805161181c6102009182602086015261022085019061423d565b9161189261186a611856611842602085015196601f1997888a83030160408b015261423d565b6040850151878983030160608a015261423d565b60608401518688830301608089015261423d565b608083015160a087015260a083015160c087015260c0830151858783030160e088015261423d565b6118da60018060a01b03916118c58360e08601511661010090818a01528501519161012092888a830301848b015261423d565b9084015161014096888303018789015261423d565b938201511661016090818601528101511515610180908186015281015115156101a0908186015281015115156101c090818601528101511515906101e091828601520151908301520390f35b346103a057611934366140a9565b60405182519161040e611954602093848181890197610b8b81838b61412e565b8281519101208451908185201490811591611b9e575b50611b7c57805115611b6a5760008051602061525583398151915260005260008252604060002033600052825260ff60406000205416158015611b39575b8015611b08575b8015611ad7575b6107e95760408281611a41827fae67159e13d82231d3f408edcc7f75fa4e81aeacf670d6bcc87883e5c6a9935397611a0f8760088c611ac89b88518092516119ff81838a61412e565b8101600281520301902001614b01565b8351600b8b51611a2081848661412e565b82019160028352848142940301902001558351809381928c5192839161412e565b8101600381520301902091611a978251611a5a81613ffc565b898152835194611a6986614017565b600686526553746174757360d01b958685820152848301528785830152336060830152426080830152614c10565b611aab82519860808a5260808a019061423d565b928884039182818b0152600685528401520182870152019061423d565b914260608201528033930390a2005b5060008051602061517583398151915260005260008252604060002033600052825260ff60406000205416156119b6565b5060008051602061523583398151915260005260008252604060002033600052825260ff60406000205416156119af565b5060008051602061515583398151915260005260008252604060002033600052825260ff60406000205416156119a8565b60405163ab36986360e01b8152600490fd5b60405163f855236d60e01b81526004810183905280610533602482018761423d565b9050158561196a565b346103a05760003660031901126103a057602060405160008152f35b346103a057611bd1366140ef565b611bd961442c565b611be282614355565b1561038e576103657f69e94e373f69f3f945457a07b335722310788af9cd459a33df6f72cc9e964043916000805160206151f5833981519152806000526000602052611c35600160406000200154614484565b6105bb856148ca565b346103a057611c4c366140a9565b336000908152600080516020615135833981519152602090815260409091205491929160ff16156107e957604051600160ff600a855193858181890196611c9481838a61412e565b81016002815203019020015460b81c16151514611d195791600a611ce8611d14937f3a9eebd240f4c9f631531ebc672c4c040de483b868ccebe8a3a1fdad70cde0d99560405180938192875192839161412e565b8101600281520301902001600160b81b60ff60b81b198254161790556040519182913395429184614caa565b0390a2005b50610533604051928392636f5f944160e11b84526004840152602483019061423d565b346103a0576020806003193601126103a0576004356001600160401b0381116103a057611d6d903690600401614053565b9060405161040e611d8b845192848181880195610b8b81838961412e565b8281519101208351908183201490811591611ddb575b50610bf157600a611dc18360ff938660405193849283925192839161412e565b81016002815203019020015460b01c166040519015158152f35b90501584611da1565b346103a05760403660031901126103a057611dfd613fb4565b600435600052600060205260406000209060018060a01b0316600052602052602060ff604060002054166040519015158152f35b346103a05760203660031901126103a057611e4a613f9e565b6001600160a01b03166000908152600080516020615135833981519152602090815260409182902054915160ff9092161515825290f35b346103a057611e8f366140a9565b3360009081526000805160206151d5833981519152602090815260409091205491929160ff16156107e95760405181818451611ece818385890161412e565b8101600881520301902060048101805460ff811615611fe857611ef760ff8260081c1615615099565b60018301546001600160a01b03163303611fb75760ff8160b81c1615611f7f5792611f5c8660057f48009e0de65db9a1c994f7f48e9cfe917749fa06f868b8948251d3789a00a6559795611d149562010000611f709962ff0000191617905501614b01565b60405193849360408552604085019061423d565b9083820390840152339561423d565b60405162461bcd60e51b815260048101859052601060248201526f4e6f74206d61726b657420726561647960801b6044820152606490fd5b60405162461bcd60e51b81526004810185905260096024820152682737ba1037bbb732b960b91b6044820152606490fd5b60405162461bcd60e51b8152600481018590526012602482015271135a5b995c985b081b9bdd081cdd1bdc995960721b6044820152606490fd5b346103a05760203660031901126103a0576001600160a01b03612043613f9e565b16600052600a602052602060ff604060002054166040519015158152f35b346103a0576020806003193601126103a0576004356001600160401b0381116103a057612092903690600401614053565b906040519082519261040e6120af838301956103f381878961412e565b82815191012081519081862014908115916121b8575b506121a6576120dc6040519485925192839161412e565b8301928181600395868152030190208054916120f783614262565b936121056040519586614032565b8385526000928352818320908286015b85851061212a57604051806104908982614279565b60058460019260405161213c81613ffc565b60405161214d8161040e818b6141a7565b81526040516121628161040e81898c016141a7565b838201526040516121798161040e818a8c016141a7565b6040820152848060a01b038c88015416606082015260048701546080820152815201930194019391612115565b6040516329d7b10b60e11b8152600490fd5b905015856120c5565b346103a0576121cf366140a9565b3360009081526000805160206151d5833981519152602090815260409091205491929160ff16156107e957604051600160ff600a85519385818189019661221781838a61412e565b81016002815203019020015460a81c161515146122975791600a61226b611d14937fa214f45af6d86b0d5ff7bb48f888cf4205e4a383da35fcbebfdbd9bd8e6d5a7c9560405180938192875192839161412e565b8101600281520301902001600160a81b60ff60a81b198254161790556040519182913395429184614caa565b5061053360405192839263701203b760e01b84526004840152602483019061423d565b346103a0576122c8366140ef565b6122d061442c565b6122d9826143d6565b1561038e576103657f71577b91708c73ee54b43c6709958ff42e4bcc084910648ce7c3d16928b51d529160008051602061515583398151915280600052600060205261232c600160406000200154614484565b6105bb85614855565b346103a05760003660031901126103a05760206040516000805160206151f58339815191528152f35b346103a05760003660031901126103a05760206040516000805160206152558339815191528152f35b346103a0576020806003193601126103a0576004356001600160401b0381116103a0576123b8903690600401614053565b906000805260008152604060002033600052815260ff60406000205416156107e95760405161040e6123f7845192848181880195610b8b81838961412e565b8281519101208351908183201490811591612537575b506121a65760ff600a6040518481875161242881838961412e565b81016002815203019020015460b01c168061250b575b156124e8576124b760ff92600a926040517f10f4ba4c7bb6f0c442f54585004a6e24440bea5c2d2e6f36b688e3e624762e2233918061247e428b83614d15565b0390a2848460405184818a5161249581838961412e565b81016002815203019020015460b01c169560405193849283925192839161412e565b81016002815203019020015460b81c1690610490604051928392839092916020906040830194151583521515910152565b506105336040519283926348cddbdb60e11b84526004840152602483019061423d565b5060ff600a6040518481875161252281838961412e565b81016002815203019020015460b81c1661243e565b9050158461240d565b346103a05760203660031901126103a057612559613f9e565b6001600160a01b031660009081526000805160206151b5833981519152602090815260409182902054915160ff9092161515825290f35b346103a05760003660031901126103a05760206040516000805160206152358339815191528152f35b346103a05760003660031901126103a05760206040516000805160206152158339815191528152f35b346103a05760203660031901126103a0576125fb613f9e565b6001600160a01b0381169081156111325761261461442c565b61261d816143ab565b61128f5761262a90614614565b5060008051602061525583398151915260005260046020527f02ff85b9f193a3a7824cbaf5a79db262c0bac955152adf2752c6413d76b2d3c7805461266e90614cd8565b90557f4e3eede475de92d3e23765b737dbb67646352b3328c1a437d7f089766d7be7516020604051428152a2005b346103a05760203660031901126103a0576004356001600160401b0381116103a0576126cc903690600401614053565b60405181818093516020819301916126e39261412e565b810160028152036020019020604051806126fd81846141a7565b036127089082614032565b604051918261271a81600184016141a7565b036127259084614032565b6040518061273681600285016141a7565b036127419082614032565b604051918261275381600384016141a7565b0361275e9084614032565b6004810154600582015460405194918561277b81600687016141a7565b036127869087614032565b60078401546040516001600160a01b03979093918816929091846127ad8160088a016141a7565b036127b89086614032565b60405195866127ca8160098b016141a7565b036127d59088614032565b600a88015497600b0154986040519c8d9c8d61020090818152016127f89161423d565b8d810360208f01526128099161423d565b8c810360408e015261281a9161423d565b8b810360608d015261282b9161423d565b9160808b015260a08a015288810360c08a01526128479161423d565b9060e088015286810361010088015261285f9161423d565b8581036101208701526128719161423d565b9281166101408501528060a01c60ff1615156101608501528060a81c60ff1615156101808501528060b01c60ff1615156101a085015260b81c60ff1615156101c08401526101e08301520390f35b346103a05760003660031901126103a05760206040516000805160206151558339815191528152f35b346103a0576128f6366140a9565b3360009081526000805160206150d5833981519152602090815260409091205491929160ff16156107e957604051600160ff600a85519385818189019661293e81838a61412e565b81016002815203019020015460b01c161515146129be5791600a612992611d14937fa9de1934279a83f8cfaaecf6a7002ac10aeaea244c8c763f3752f3fc4c3e631d9560405180938192875192839161412e565b8101600281520301902001600160b01b60ff60b01b198254161790556040519182913395429184614caa565b5061053360405192839263c817400d60e01b84526004840152602483019061423d565b346103a05760203660031901126103a0576129fa613f9e565b6001600160a01b03811690811561113257612a1361442c565b612a1c81614380565b61128f57612a299061459d565b5060008051602061523583398151915260005260046020527fa792fa383e6bd9c6b4465bbfd8031f4b47377210fa121067c03906e9afac62468054612a6d90614cd8565b90557f4a02edd19f09212e54b2ac85d7d3a4a2e3fbf424e6710c3f817d9b4cecc9cdb36020604051428152a2005b346103a05760803660031901126103a0576001600160401b036004358181116103a057612acc903690600401614053565b602491823592604435918083116103a057366023840112156103a057826004013594612af786614262565b93612b056040519586614032565b868552602096848887019160051b830101913683116103a0578501905b828210612e4e575050506064359182116103a057366023830112156103a0578160040135612b4f81614262565b92612b5d6040519485614032565b818452848885019260051b820101913683116103a05785899201905b838210612e3f575050505060008051602061525583398151915260005260008652604060002033600052865260ff93846040600020541615612e2857610180612bc187614de6565b015115612dee578051835103612db6578115612d7e5760405187818851612beb8183858d0161412e565b8101600881520301902091612c008784614b01565b600183810180546001600160a01b0319163317905560048401805442600287015560ff60ff60b81b0119166001600160b81b011790556006840191909155948592600701906000845b612d11575b50505050505060095491600160401b831015612cfc57820180600955821015612ce8575090612cc5817f250d87dc011edb5ebb474599d748faa904e99846d065ed0e939f8e99c0deb2f79360096000527f6e1540171b6c0c960b71a7020d9f60077f6af931a8bbf590da0223dacf75c7af01614b01565b612cda6040519160408352604083019061423d565b9242908201528033930390a2005b634e487b7160e01b60009081526032600452fd5b50634e487b7160e01b60009081526041600452fd5b8351811015612d7957612d73906001600160a01b0380612d318388614d01565b5116600052600a8c52612d4a8460406000205416615058565b612d548289614d01565b5190612d608388614d01565b5116600052848c52604060002055614cd8565b84612c49565b612c4e565b60405162461bcd60e51b81526004810188905260118186015270496e76616c69642045544820707269636560781b6044820152606490fd5b60405162461bcd60e51b815260048101889052601181860152704d69736d6174636865642061727261797360781b6044820152606490fd5b60405162461bcd60e51b81526004810188905260138186015272135a5b995c985b081b9bdd081c99599a5b9959606a1b6044820152606490fd5b604051630568555f60e41b81523360048201528490fd5b81358152908201908201612b79565b81356001600160a01b03811681036103a0578152908801908801612b22565b346103a05760203660031901126103a057612e86613f9e565b3360009081527fad3228b676f7d3cd4284a5443f17f1962b36e491b30a40b2405849e597ba5fb5602052604090205460ff16156107e9576001600160a01b03168015612ee7576000908152600a60205260409020805460ff19166001179055005b60405162461bcd60e51b8152602060048201526015602482015274496e76616c696420746f6b656e206164647265737360581b6044820152606490fd5b346103a05760c03660031901126103a0576001600160401b036004358181116103a057612f55903690600401614053565b6024358281116103a057612f6d903690600401614053565b906064358381116103a057612f86903690600401614053565b9260a4359081116103a057612f9f903690600401614053565b336000908152600080516020615195833981519152602052604090205490929060ff16156107e95781511561353d578351156107c55780511561352b57604435156135195760843515801561350d575b6134fb57605060843511156134e1578251156134cf5760015461301181614cd8565b60015560405161305760748260208101948651613032818860208b0161412e565b8201903360601b60208301524260348301526054820152036054810184520182614032565b519020926040519361306885614017565b600a8552602036818701378451156134b957603060208601538451600110156134b9576078602186015360005b60048110613426575050610490946107747f73c819068ba25b88a32cb91f9b552ab50d9cccb7c4abdeb2a04f44373b715393936133f5936131176021604051809a85516130e9816020850160208a0161412e565b8201602d60f81b6020820152613108825180936020878501910161412e565b0103600181018b520189614032565b6040519061312482613fca565b888252876020830152846040830152826060830152604435608083015260843560a083015260c08201523360e082015260405161316081614017565b600381526252617760e81b602082015261010082015260405161318281614017565b600d81526c26b4b734b7339021b2b73a32b960991b6020820152610120820152336101408201526000610160820152600061018082015260006101a082015260006101c0820152426101e0820152600b6101e06131ee60208b816040519382858094519384920161412e565b8101600281520301902092613204815185614b01565b613215602082015160018601614b01565b613226604082015160028601614b01565b613237606082015160038601614b01565b6080810151600485015560a0810151600585015561325c60c082015160068601614b01565b60e08101516007850180546001600160a01b0319166001600160a01b039283161790556101008201516132929060088701614b01565b6132a461012083015160098701614b01565b600a8501906101408301511681549060ff60a01b610160850151151560a01b1660ff60a81b610180860151151560a81b169060ff60b01b6101a0870151151560b01b169260ff60b81b6101c0880151151560b81b16946001600160401b0360c01b161717171717905501519101556133c16040516020818161332c8c8381519384920161412e565b810160038152030190206040519067027b934b3b4b71d160c51b602083015261337360288388516133638184840160208d0161412e565b8101036008810185520183614032565b6040519161338083613ffc565b8a835260405161338f81614017565b600a815269149959da5cdd195c995960b21b602082015260208401526040830152336060830152426080830152614c10565b6133e76040519660e088526133d960e089018a61423d565b9088820360208a015261423d565b90868203604088015261423d565b91604435608082015260843560a08201524260c08201528033930390a260405191829160208352602083019061423d565b60208110156134b95781811a90600f613443818460041c16614d65565b908260011b9360028486048114851517156134a3578581018091116134a35761347361347a9460001a918c614d54565b5316614d65565b9160039081018091116134a35761349861349e9360001a9189614d54565b53614cd8565b613095565b634e487b7160e01b600052601160045260246000fd5b634e487b7160e01b600052603260045260246000fd5b60405163bfccc8e960e01b8152600490fd5b60405163d05db01960e01b81526084356004820152602490fd5b604051633abe7db760e21b8152600490fd5b50606460843511612fef565b60405163fd83f8d960e01b8152600490fd5b60405163a765e58f60e01b8152600490fd5b604051630ac6e45360e31b8152600490fd5b346103a05760403660031901126103a057613568613fb4565b336001600160a01b03821603613584576111d390600435614a9e565b60405163334bd91960e11b8152600490fd5b346103a05760403660031901126103a0576004356001600160401b0381116103a0576135c6903690600401614053565b6135e2602060243592816040519382858094519384920161412e565b8101600381520301902080548210156103a0576136719161360291614151565b506040519061361c8261361581846141a7565b0383614032565b6040516136308161040e81600186016141a7565b61368d6040516136478161040e81600288016141a7565b61367f600460018060a01b036003870154169501549360405197889760a0895260a089019061423d565b90878203602089015261423d565b90858203604087015261423d565b91606084015260808301520390f35b346103a05760203660031901126103a0576136b5613f9e565b6001600160a01b03166000908152600080516020615195833981519152602090815260409182902054915160ff9092161515825290f35b346103a0576136fa366140ef565b61370261442c565b61370b8261432a565b1561038e576103657f125f88db22967983b401f70f6804d47f43cb545fcb725d0b335fe7d43d9b4a4a9160008051602061521583398151915280600052600060205261375e600160406000200154614484565b6105bb856147e0565b346103a05760403660031901126103a0576111d3600435613786613fb4565b908060005260006020526137a1600160406000200154614484565b614779565b346103a05760203660031901126103a0576004356001600160401b0381116103a05760ff60046137df60206113ed819536908501614053565b81016008815203019020015460b81c166040519015158152f35b346103a05760203660031901126103a05760043560005260006020526020600160406000200154604051908152f35b346103a0576020806003193601126103a0576004356001600160401b0381116103a057613859903690600401614053565b906000805260008152604060002033600052815260ff60406000205416156107e95760405161040e613898845192848181880195610b8b81838961412e565b828151910120835190818320149081159161396e575b50610bf15760ff600a604051848187516138c981838961412e565b81016002815203019020015460b01c1680613942575b1561391f576124b760ff92600a926040517f10f4ba4c7bb6f0c442f54585004a6e24440bea5c2d2e6f36b688e3e624762e2233918061247e428b83614d15565b5061053360405192839263642b2f5b60e11b84526004840152602483019061423d565b5060ff600a6040518481875161395981838961412e565b81016002815203019020015460b81c166138df565b905015846138ae565b346103a057613985366140a9565b3360009081526000805160206151b583398151915260209081526040909120549192909160ff16156107e9576040519061040e6139cf825193858181860196610b8b81838a61412e565b8381519101208151908184201490811591613ad5575b50613ab257835115613aa057611d14613a9184613a58613a708860096119ff85613a849a613a5f848c7f81dbbd3ba646453a262e90d0495aadc4d783bab49b0a8be2cd84f220cae608bb9f604051809251613a4181838961412e565b8101600281520301902001604051988980926141a7565b0388614032565b604051809381928d5192839161412e565b60405195869560608752606087019061423d565b918583039086015261423d565b8281036040840152339561423d565b604051635b6571a560e01b8152600490fd5b8261053360405192839263f855236d60e01b84526004840152602483019061423d565b905015856139e5565b346103a0576020806003193601126103a0576004356001600160401b0381116103a057613b0f903690600401614053565b906000805160206151f583398151915260005260008152604060002033600052815260ff918260406000205416156107e95760405181519383830194613b5681848861412e565b8201906001816002938481528588600a97889303019020015460a01c16151514613db557600080526000855260406000203360005285528060406000205416156107e95761040e613bc9604051878180613bb48c8b5192839161412e565b810187815203019020604051928380926141a7565b8581519101208451908188201490811591613dac575b506121a6578083604051878180613bfa8c8b5192839161412e565b810187815203019020015460b01c1680613d81575b15613d5f576040517f10f4ba4c7bb6f0c442f54585004a6e24440bea5c2d2e6f36b688e3e624762e22339180613c46428983614d15565b0390a28083604051878180613c5f8c8b5192839161412e565b810187815203019020015460b01c169083604051878180613c848c8b5192839161412e565b810187815203019020015460b81c1681613d57575b5015613d3557837ffed1001c142a7ab386454a2f7d78b013ba7ff40595d10c128f2fb6463ccd7b7a9495613d07928460405184818951613cda81838961412e565b81018581520301902001805460ff60a01b1916600160a01b1790556040518651909485938290859061412e565b8201908152030190200180546001600160a01b031916331790556040805181815291612cda9183019061423d565b6040516348cddbdb60e11b81526004810185905280610533602482018661423d565b905086613c99565b6040516348cddbdb60e11b81526004810186905280610533602482018761423d565b508083604051878180613d988c8b5192839161412e565b810187815203019020015460b81c16613c0f565b90501587613bdf565b604051632072bb0160e11b81526004810186905280610533602482018761423d565b346103a05760203660031901126103a057613df0613f9e565b6001600160a01b03811690811561113257613e0961442c565b613e1281614355565b61128f57613e1f90614526565b506000805160206151f583398151915260005260046020527f5455ba4b8a75b33fa0f1f7affd9817680912f06b7b194bcf9ac01183c49300208054613e6390614cd8565b90557ff8ed9ac482b0f7c12999b3f157f758f84e39cd339fa301ea203823ac29e975056020604051428152a2005b346103a05760203660031901126103a057613eaa613f9e565b6001600160a01b03811690811561113257613ec361442c565b613ecc8161432a565b61128f57613ed9906144aa565b5060008051602061521583398151915260005260046020527f973ccc145476ef147b966a44694f8b2d26bac5a3d44a844fec6be696fe5fea708054613f1d90614cd8565b90557f593f046317558c2857b92915c62c99f2d2108f7bc6f1e1b3c5376cd559abf5596020604051428152a2005b346103a05760203660031901126103a0576004359063ffffffff60e01b82168092036103a057602091637965db0b60e01b8114908115613f8d575b5015158152f35b6301ffc9a760e01b14905083613f86565b600435906001600160a01b03821682036103a057565b602435906001600160a01b03821682036103a057565b61020081019081106001600160401b03821117613fe657604052565b634e487b7160e01b600052604160045260246000fd5b60a081019081106001600160401b03821117613fe657604052565b604081019081106001600160401b03821117613fe657604052565b90601f801991011681019081106001600160401b03821117613fe657604052565b81601f820112156103a0578035906001600160401b038211613fe65760405192614087601f8401601f191660200185614032565b828452602083830101116103a057816000926020809301838601378301015290565b9060406003198301126103a0576001600160401b036004358181116103a057836140d591600401614053565b926024359182116103a0576140ec91600401614053565b90565b9060406003198301126103a0576004356001600160a01b03811681036103a05791602435906001600160401b0382116103a0576140ec91600401614053565b60005b8381106141415750506000910152565b8181015183820152602001614131565b80548210156134b9576000526005602060002091020190600090565b90600182811c9216801561419d575b602083101461418757565b634e487b7160e01b600052602260045260246000fd5b91607f169161417c565b90600092918054916141b88361416d565b91828252600193848116908160001461421a57506001146141da575b50505050565b90919394506000526020928360002092846000945b8386106142065750505050010190388080806141d4565b8054858701830152940193859082016141ef565b9294505050602093945060ff191683830152151560051b010190388080806141d4565b906020916142568151809281855285808601910161412e565b601f01601f1916010190565b6001600160401b038111613fe65760051b60200190565b602080820190808352835180925260409283810182858560051b8401019601946000925b8584106142ae575050505050505090565b909192939495968580600192603f198582030187528a51906142fe6142ee6142de845160a080865285019061423d565b858501518482038786015261423d565b888401518382038a85015261423d565b916060868060a01b0381830151169083015260808091015191015299019401940192959493919061429d565b6001600160a01b03166000908152600080516020615195833981519152602052604090205460ff1690565b6001600160a01b03166000908152600080516020615115833981519152602052604090205460ff1690565b6001600160a01b031660009081526000805160206150d5833981519152602052604090205460ff1690565b6001600160a01b031660009081526000805160206151d5833981519152602052604090205460ff1690565b6001600160a01b031660009081526000805160206151b5833981519152602052604090205460ff1690565b6001600160a01b03166000908152600080516020615135833981519152602052604090205460ff1690565b3360009081527fad3228b676f7d3cd4284a5443f17f1962b36e491b30a40b2405849e597ba5fb5602052604081205460ff16156144665750565b6044906040519063e2517d3f60e01b82523360048301526024820152fd5b80600052600060205260406000203360005260205260ff60406000205416156144665750565b6001600160a01b0316600081815260008051602061519583398151915260205260408120549091906000805160206152158339815191529060ff1661452157808352826020526040832082845260205260408320600160ff198254161790556000805160206150f5833981519152339380a4600190565b505090565b6001600160a01b0316600081815260008051602061511583398151915260205260408120549091906000805160206151f58339815191529060ff1661452157808352826020526040832082845260205260408320600160ff198254161790556000805160206150f5833981519152339380a4600190565b6001600160a01b031660008181526000805160206150d583398151915260205260408120549091906000805160206152358339815191529060ff1661452157808352826020526040832082845260205260408320600160ff198254161790556000805160206150f5833981519152339380a4600190565b6001600160a01b031660008181526000805160206151d583398151915260205260408120549091906000805160206152558339815191529060ff1661452157808352826020526040832082845260205260408320600160ff198254161790556000805160206150f5833981519152339380a4600190565b6001600160a01b031660008181526000805160206151b583398151915260205260408120549091906000805160206151558339815191529060ff1661452157808352826020526040832082845260205260408320600160ff198254161790556000805160206150f5833981519152339380a4600190565b6001600160a01b0316600081815260008051602061513583398151915260205260408120549091906000805160206151758339815191529060ff1661452157808352826020526040832082845260205260408320600160ff198254161790556000805160206150f5833981519152339380a4600190565b9060009180835282602052604083209160018060a01b03169182845260205260ff6040842054161560001461452157808352826020526040832082845260205260408320600160ff198254161790556000805160206150f5833981519152339380a4600190565b6001600160a01b0316600081815260008051602061519583398151915260205260408120549091906000805160206152158339815191529060ff16156145215780835282602052604083208284526020526040832060ff198154169055600080516020615275833981519152339380a4600190565b6001600160a01b031660008181526000805160206151b583398151915260205260408120549091906000805160206151558339815191529060ff16156145215780835282602052604083208284526020526040832060ff198154169055600080516020615275833981519152339380a4600190565b6001600160a01b0316600081815260008051602061511583398151915260205260408120549091906000805160206151f58339815191529060ff16156145215780835282602052604083208284526020526040832060ff198154169055600080516020615275833981519152339380a4600190565b6001600160a01b0316600081815260008051602061513583398151915260205260408120549091906000805160206151758339815191529060ff16156145215780835282602052604083208284526020526040832060ff198154169055600080516020615275833981519152339380a4600190565b6001600160a01b031660008181526000805160206151d583398151915260205260408120549091906000805160206152558339815191529060ff16156145215780835282602052604083208284526020526040832060ff198154169055600080516020615275833981519152339380a4600190565b6001600160a01b031660008181526000805160206150d583398151915260205260408120549091906000805160206152358339815191529060ff16156145215780835282602052604083208284526020526040832060ff198154169055600080516020615275833981519152339380a4600190565b9060009180835282602052604083209160018060a01b03169182845260205260ff6040842054166000146145215780835282602052604083208284526020526040832060ff198154169055600080516020615275833981519152339380a4600190565b91909182516001600160401b038111613fe657614b1e825461416d565b601f8111614bc8575b50602080601f8311600114614b64575081929394600092614b59575b50508160011b916000199060031b1c1916179055565b015190503880614b43565b90601f198316958460005282600020926000905b888210614bb057505083600195969710614b97575b505050811b019055565b015160001960f88460031b161c19169055388080614b8d565b80600185968294968601518155019501930190614b78565b600083815260208120601f840160051c81019260208510614c06575b601f0160051c01915b828110614bfb575050614b27565b818155600101614bed565b9092508290614be4565b8054600160401b811015613fe657614c2d91600182018155614151565b919091614c9457608081614c446004935185614b01565b614c55602082015160018601614b01565b614c66604082015160028601614b01565b6003840160018060a01b036060830151166bffffffffffffffffffffffff60a01b8254161790550151910155565b634e487b7160e01b600052600060045260246000fd5b939291614cd390614cc560409360608852606088019061423d565b90868203602088015261423d565b930152565b60001981146134a35760010190565b80156134a3576000190190565b8051156134b95760200190565b80518210156134b95760209160051b010190565b9291906040614d2d819260608752606087019061423d565b8581036020870152600c81526b54726164696e67526561647960a01b602082015201930152565b9081518110156134b9570160200190565b60009060ff16600a811015614d9157603091500160ff81116134a35760f81b6001600160f81b03191690565b60610160ff8111614dd25760ff6009199116019060ff8211614dbe575060f81b6001600160f81b03191690565b634e487b7160e01b81526011600452602490fd5b634e487b7160e01b82526011600452602482fd5b6040805190614df482613fca565b816060918282526020948386840152838284015283808401526000908160808501528160a08501528460c08501528160e085015261010092858486015261012086818701526101409084828801526101609285848901528a6101809587878b01526101a09780898c0152806101c0809c01526101e0809d015261040e614e9d84518351948181860196614e8881838a61412e565b810160028152030190208551928380926141a7565b8d8151910120815190818420149081159161504f575b5061502d578c90835180938192518092614ecc9261412e565b81016002815203019020988982519c614ee48e613fca565b83518e81614ef281866141a7565b03614efd9083614032565b52835180600181940190614f10916141a7565b03614f1b9083614032565b8d0152815180614f2e8160028e016141a7565b03614f399082614032565b8c83015281519081614f4e8160038e016141a7565b03614f599083614032565b8c0152600489015460808c0152600589015460a08c0152805180614f808160068d016141a7565b03614f8b9082614032565b60c08c015260078901546001600160a01b0390811660e08d01528151909781614fb78160088e016141a7565b03614fc29083614032565b8c0152519081614fd58160098c016141a7565b03614fe09083614032565b8a0152600a870154948516908901528360a01c60ff161515908801528260a81c60ff161515908701528160b01c60ff1615159086015260b81c60ff16151590840152600b01549082015290565b8c610533845192839263f855236d60e01b84526004840152602483019061423d565b90501538614eb3565b1561505f57565b60405162461bcd60e51b8152602060048201526012602482015271151bdad95b881b9bdd081858d8d95c1d195960721b6044820152606490fd5b156150a057565b60405162461bcd60e51b815260206004820152600c60248201526b105b1c9958591e481cdbdb1960a21b6044820152606490fdfe0d2d6a5d08cb5d871289c0a3ca855d9da72909a111c24cce2d5c2b34a20daa542f8788117e7eff1d82e926ec794901d17c78024a50270940304540a733656f0df3fa603c74bfe2a4719960e47343678c3dc690d2b27a2295acc6fc430833aaf9acfff8a39fb957d9d1c8e3ef9f08385e3fcf7bb23ab7ba0ad0f8df93dbde6a68ddaa901e2fe3bda354fe0ede2785152d5c109282a613fe024a056a3e66c41bb3273dcf2136c7d8ef632bb8ef13dbca69a8f36fa620c7468671b3153d46a211c0bb3fcc25fbffa12ea463b3505377899a4d5ddb4858b9c7bd36764686d9425b36bce5fd3347e0dc338dcc0e895534dd4af2740eec95f56cd4ca4b4b2ada357ca04130a4caca6023b0ba21488ee680ce5c3df22860b1cd8b02cd2a0bcb0de98851f8cd32ed93fc2f9fc78152a14807c9609af3d99c5fe4dc6b106a801aaddfe90ea952726ef2588ad078edf35b066f7c7406e207cb0003bbaba8cb53eba9553e7259a1c48e5837ad7a7f3dcedcbe129bf3249ec4fbf651fd4f5e2600ead39fe2f5a977e1a3444218ff332edf735c56487bbe59922b15c88777d443eb8b78020f4df6391f5c32d9c69d2a47ea670b442974b53935d1edc7fd64eb21e047a839171ba26469706673582212202893943155840b524bfa5867f47322806d833a16516d3252f38f5051b522e8c264736f6c634300081400332f8788117e7eff1d82e926ec794901d17c78024a50270940304540a733656f0dddaa901e2fe3bda354fe0ede2785152d5c109282a613fe024a056a3e66c41bb3273dcf2136c7d8ef632bb8ef13dbca69a8f36fa620c7468671b3153d46a211c0f8cd32ed93fc2f9fc78152a14807c9609af3d99c5fe4dc6b106a801aaddfe90ea977e1a3444218ff332edf735c56487bbe59922b15c88777d443eb8b78020f4d",
  "linkReferences": {},
  "deployedLinkReferences": {}
}