{
  "_format": "hh-sol-artifact-1",
  "contractName": "SupplychainValidator",
  "sourceName": "contracts/core/SupplychainValidator.sol",
  "abi": [
    {
      "inputs": [
        {
          "internalType": "address",
          "name": "_rolesManager",
          "type": "address"
        },
        {
          "internalType": "address",
          "name": "_mineralRegistry",
          "type": "address"
        },
        {
          "internalType": "address",
          "name": "_privacyGuard",
          "type": "address"
        },
        {
          "internalType": "address",
          "name": "_tokenization",
          "type": "address"
        },
        {
          "internalType": "address",
          "name": "_transactionLog",
          "type": "address"
        },
        {
          "internalType": "address",
          "name": "_logisticsManager",
          "type": "address"
        }
      ],
      "stateMutability": "nonpayable",
      "type": "constructor"
    },
    {
      "inputs": [],
      "name": "AccessControlBadConfirmation",
      "type": "error"
    },
    {
      "inputs": [
        {
          "internalType": "address",
          "name": "account",
          "type": "address"
        },
        {
          "internalType": "bytes32",
          "name": "neededRole",
          "type": "bytes32"
        }
      ],
      "name": "AccessControlUnauthorizedAccount",
      "type": "error"
    },
    {
      "inputs": [
        {
          "internalType": "address",
          "name": "caller",
          "type": "address"
        },
        {
          "internalType": "bytes32",
          "name": "role",
          "type": "bytes32"
        }
      ],
      "name": "AddressDoesNotHaveRequiredRole",
      "type": "error"
    },
    {
      "inputs": [
        {
          "internalType": "address",
          "name": "caller",
          "type": "address"
        }
      ],
      "name": "DisputeResolution__AlreadyVoted",
      "type": "error"
    },
    {
      "inputs": [
        {
          "internalType": "uint256",
          "name": "disputeId",
          "type": "uint256"
        }
      ],
      "name": "DisputeResolution__DisputeEscalated_UnableToVote",
      "type": "error"
    },
    {
      "inputs": [
        {
          "internalType": "uint256",
          "name": "disputeId",
          "type": "uint256"
        }
      ],
      "name": "DisputeResolution__DisputeNotEscalated",
      "type": "error"
    },
    {
      "inputs": [
        {
          "internalType": "uint256",
          "name": "disputeId",
          "type": "uint256"
        }
      ],
      "name": "DisputeResolution__DisputeStatusNotPending",
      "type": "error"
    },
    {
      "inputs": [],
      "name": "DisputeResolution__DisputeStatusNotPendingOrEscalated",
      "type": "error"
    },
    {
      "inputs": [],
      "name": "DisputeResolution__InvalidDisputeDefendantAddress",
      "type": "error"
    },
    {
      "inputs": [],
      "name": "DisputeResolution__InvalidDisputeDetails",
      "type": "error"
    },
    {
      "inputs": [],
      "name": "DisputeResolution__InvalidDisputeEvidence",
      "type": "error"
    },
    {
      "inputs": [],
      "name": "DisputeResolution__InvalidDisputeIdOrNotFound",
      "type": "error"
    },
    {
      "inputs": [],
      "name": "DisputeResolution__InvalidMineralIdOrNotFound",
      "type": "error"
    },
    {
      "inputs": [],
      "name": "DisputeResolution__InvalidResolutionDetails",
      "type": "error"
    },
    {
      "inputs": [
        {
          "internalType": "address",
          "name": "caller",
          "type": "address"
        }
      ],
      "name": "DisputeResolution__NotEligibleToVote",
      "type": "error"
    },
    {
      "inputs": [],
      "name": "DisputeResolution__VotingPeriodStillActive",
      "type": "error"
    },
    {
      "inputs": [
        {
          "internalType": "address",
          "name": "token",
          "type": "address"
        },
        {
          "internalType": "uint256",
          "name": "tokenAmount",
          "type": "uint256"
        }
      ],
      "name": "ERC20TokenTransferFailed",
      "type": "error"
    },
    {
      "inputs": [
        {
          "internalType": "address",
          "name": "caller",
          "type": "address"
        }
      ],
      "name": "InsufficientPermissionsToPerformAction",
      "type": "error"
    },
    {
      "inputs": [],
      "name": "InvalidAccountAddress",
      "type": "error"
    },
    {
      "inputs": [
        {
          "internalType": "string",
          "name": "mineralId",
          "type": "string"
        }
      ],
      "name": "InvalidMineralIdOrNotFound",
      "type": "error"
    },
    {
      "inputs": [],
      "name": "InvalidPaymentMethods",
      "type": "error"
    },
    {
      "inputs": [
        {
          "internalType": "string",
          "name": "currentStatus",
          "type": "string"
        },
        {
          "internalType": "string",
          "name": "attemptedStatus",
          "type": "string"
        }
      ],
      "name": "InvalidTransportStateTransition",
      "type": "error"
    },
    {
      "inputs": [
        {
          "internalType": "string",
          "name": "mineralId",
          "type": "string"
        }
      ],
      "name": "MineralNotMarketReady",
      "type": "error"
    },
    {
      "inputs": [
        {
          "internalType": "string",
          "name": "mineralId",
          "type": "string"
        }
      ],
      "name": "MineralNotReadyToTrade",
      "type": "error"
    },
    {
      "inputs": [],
      "name": "MineralRegistry__InvalidMineralDestination",
      "type": "error"
    },
    {
      "inputs": [],
      "name": "MineralRegistry__InvalidMineralDetails",
      "type": "error"
    },
    {
      "inputs": [
        {
          "internalType": "string",
          "name": "mineralId",
          "type": "string"
        }
      ],
      "name": "MineralRegistry__InvalidMineralIdOrNotFound",
      "type": "error"
    },
    {
      "inputs": [],
      "name": "MineralRegistry__InvalidMineralLocation",
      "type": "error"
    },
    {
      "inputs": [],
      "name": "MineralRegistry__InvalidMineralName",
      "type": "error"
    },
    {
      "inputs": [],
      "name": "MineralRegistry__InvalidMineralOrigin",
      "type": "error"
    },
    {
      "inputs": [],
      "name": "MineralRegistry__InvalidMineralPurityPercentage",
      "type": "error"
    },
    {
      "inputs": [],
      "name": "MineralRegistry__InvalidMineralStatus",
      "type": "error"
    },
    {
      "inputs": [],
      "name": "MineralRegistry__InvalidMineralStorageConditions",
      "type": "error"
    },
    {
      "inputs": [],
      "name": "MineralRegistry__InvalidMineralType",
      "type": "error"
    },
    {
      "inputs": [],
      "name": "MineralRegistry__InvalidMineralWeight",
      "type": "error"
    },
    {
      "inputs": [],
      "name": "MineralRegistry__InvalidReceivingPartyAddress",
      "type": "error"
    },
    {
      "inputs": [],
      "name": "MineralRegistry__MineralAlreadyAudited",
      "type": "error"
    },
    {
      "inputs": [],
      "name": "MineralRegistry__MineralAlreadyInspected",
      "type": "error"
    },
    {
      "inputs": [],
      "name": "MineralRegistry__MineralAlreadyPurchased",
      "type": "error"
    },
    {
      "inputs": [],
      "name": "MineralRegistry__MineralNotAudited",
      "type": "error"
    },
    {
      "inputs": [],
      "name": "MineralRegistry__MineralNotInspected",
      "type": "error"
    },
    {
      "inputs": [
        {
          "internalType": "string",
          "name": "mineralId",
          "type": "string"
        }
      ],
      "name": "MineralRegistry__MineralNotRegistered",
      "type": "error"
    },
    {
      "inputs": [],
      "name": "MineralWarehouse__ETHTransferFailed",
      "type": "error"
    },
    {
      "inputs": [],
      "name": "MineralWarehouse__IncorrectETHAmount",
      "type": "error"
    },
    {
      "inputs": [],
      "name": "MineralWarehouse__InvalidETHPrice",
      "type": "error"
    },
    {
      "inputs": [],
      "name": "MineralWarehouse__InvalidMineralPrice",
      "type": "error"
    },
    {
      "inputs": [],
      "name": "MineralWarehouse__InvalidNumberOfPrices",
      "type": "error"
    },
    {
      "inputs": [
        {
          "internalType": "address",
          "name": "tokenAddress",
          "type": "address"
        }
      ],
      "name": "MineralWarehouse__InvalidTokenAddress",
      "type": "error"
    },
    {
      "inputs": [],
      "name": "MineralWarehouse__InvalidTokenPrice",
      "type": "error"
    },
    {
      "inputs": [
        {
          "internalType": "string",
          "name": "mineralId",
          "type": "string"
        }
      ],
      "name": "MineralWarehouse__MineralAlreadySold",
      "type": "error"
    },
    {
      "inputs": [
        {
          "internalType": "string",
          "name": "mineralId",
          "type": "string"
        }
      ],
      "name": "MineralWarehouse__MineralNotFoundInWarehouse",
      "type": "error"
    },
    {
      "inputs": [
        {
          "internalType": "string",
          "name": "mineralId",
          "type": "string"
        }
      ],
      "name": "MineralWarehouse__MineralNotMarketReady",
      "type": "error"
    },
    {
      "inputs": [
        {
          "internalType": "string",
          "name": "mineralId",
          "type": "string"
        }
      ],
      "name": "MineralWarehouse__MineralNotRefined",
      "type": "error"
    },
    {
      "inputs": [],
      "name": "MineralWarehouse__MismatchedArrays",
      "type": "error"
    },
    {
      "inputs": [
        {
          "internalType": "address",
          "name": "tokenAddress",
          "type": "address"
        }
      ],
      "name": "MineralWarehouse__TokenNotAccepted",
      "type": "error"
    },
    {
      "inputs": [
        {
          "internalType": "address",
          "name": "tokenAddress",
          "type": "address"
        }
      ],
      "name": "MineralWarehouse__UnacceptedToken",
      "type": "error"
    },
    {
      "inputs": [
        {
          "internalType": "address[]",
          "name": "tokenAddresses",
          "type": "address[]"
        }
      ],
      "name": "MineralWarehouse__UnacceptedTokens",
      "type": "error"
    },
    {
      "inputs": [
        {
          "internalType": "address",
          "name": "seller",
          "type": "address"
        }
      ],
      "name": "MineralWarehouse__UnauthorizedSeller",
      "type": "error"
    },
    {
      "inputs": [
        {
          "internalType": "string",
          "name": "mineralId",
          "type": "string"
        },
        {
          "internalType": "address",
          "name": "caller",
          "type": "address"
        }
      ],
      "name": "NotAssignedTransporter",
      "type": "error"
    },
    {
      "inputs": [],
      "name": "RolesManager__AccountAlreadyHasRole",
      "type": "error"
    },
    {
      "inputs": [],
      "name": "RolesManager__AccountDoesNotHaveRole",
      "type": "error"
    },
    {
      "inputs": [],
      "name": "RolesManager__InvalidAddress",
      "type": "error"
    },
    {
      "inputs": [],
      "name": "RolesManager__InvalidMineralDestination",
      "type": "error"
    },
    {
      "inputs": [],
      "name": "RolesManager__InvalidMineralIdOrNotFound",
      "type": "error"
    },
    {
      "inputs": [],
      "name": "RolesManager__InvalidMineralName",
      "type": "error"
    },
    {
      "inputs": [],
      "name": "RolesManager__InvalidMineralOrigin",
      "type": "error"
    },
    {
      "inputs": [],
      "name": "RolesManager__InvalidMineralPurityPercentage",
      "type": "error"
    },
    {
      "inputs": [],
      "name": "RolesManager__InvalidMineralStorageConditions",
      "type": "error"
    },
    {
      "inputs": [],
      "name": "RolesManager__InvalidMineralType",
      "type": "error"
    },
    {
      "inputs": [],
      "name": "RolesManager__InvalidMineralWeight",
      "type": "error"
    },
    {
      "inputs": [],
      "name": "RolesManager__InvalidReceivingPartyAddress",
      "type": "error"
    },
    {
      "inputs": [],
      "name": "RolesManager__InvalidRole",
      "type": "error"
    },
    {
      "inputs": [
        {
          "internalType": "string",
          "name": "mineralId",
          "type": "string"
        }
      ],
      "name": "RolesManager__MineralAlreadyAudited",
      "type": "error"
    },
    {
      "inputs": [
        {
          "internalType": "string",
          "name": "mineralId",
          "type": "string"
        }
      ],
      "name": "RolesManager__MineralAlreadyInspected",
      "type": "error"
    },
    {
      "inputs": [
        {
          "internalType": "string",
          "name": "mineralId",
          "type": "string"
        }
      ],
      "name": "RolesManager__MineralAlreadyPurchased",
      "type": "error"
    },
    {
      "inputs": [
        {
          "internalType": "string",
          "name": "mineralId",
          "type": "string"
        }
      ],
      "name": "RolesManager__MineralAlreadyRefined",
      "type": "error"
    },
    {
      "inputs": [
        {
          "internalType": "string",
          "name": "mineralId",
          "type": "string"
        }
      ],
      "name": "RolesManager__MineralNotMarketReady",
      "type": "error"
    },
    {
      "inputs": [
        {
          "internalType": "uint256",
          "name": "purityPercentage",
          "type": "uint256"
        }
      ],
      "name": "RolesManager__MineralPurityPercentageTooLowToRegister",
      "type": "error"
    },
    {
      "inputs": [
        {
          "internalType": "address",
          "name": "caller",
          "type": "address"
        }
      ],
      "name": "RolesManager__NotTheAssignedBuyer",
      "type": "error"
    },
    {
      "inputs": [
        {
          "internalType": "string",
          "name": "mineralId",
          "type": "string"
        }
      ],
      "name": "SupplychainValidator__InvalidMineralIdOrNotFound",
      "type": "error"
    },
    {
      "inputs": [],
      "name": "SupplychainValidator__InvalidMineralOwnershipChain",
      "type": "error"
    },
    {
      "inputs": [],
      "name": "SupplychainValidator__InvalidMineralTransactionHistory",
      "type": "error"
    },
    {
      "inputs": [
        {
          "internalType": "uint256",
          "name": "tokenId",
          "type": "uint256"
        },
        {
          "internalType": "address",
          "name": "caller",
          "type": "address"
        }
      ],
      "name": "Tokenization__CallerNotMineralTokenOwner",
      "type": "error"
    },
    {
      "inputs": [
        {
          "internalType": "uint256",
          "name": "tokenId",
          "type": "uint256"
        }
      ],
      "name": "Tokenization__InvalidTokenId",
      "type": "error"
    },
    {
      "inputs": [
        {
          "internalType": "uint256",
          "name": "tokenId",
          "type": "uint256"
        }
      ],
      "name": "Tokenization__InvalidTokenIdOrNotFound",
      "type": "error"
    },
    {
      "inputs": [
        {
          "internalType": "uint256",
          "name": "tokenId",
          "type": "uint256"
        }
      ],
      "name": "Tokenization__TokenAlreadyExists",
      "type": "error"
    },
    {
      "inputs": [
        {
          "internalType": "uint256",
          "name": "tokenId",
          "type": "uint256"
        }
      ],
      "name": "Tokenization__TokenIsAlreadyMinted",
      "type": "error"
    },
    {
      "inputs": [
        {
          "internalType": "uint256",
          "name": "index",
          "type": "uint256"
        }
      ],
      "name": "TransactionLog__InvalidOperationIndex",
      "type": "error"
    },
    {
      "inputs": [],
      "name": "TransactionLog__InvalidOperationType",
      "type": "error"
    },
    {
      "inputs": [
        {
          "internalType": "uint256",
          "name": "transactionId",
          "type": "uint256"
        }
      ],
      "name": "TransactionLog__InvalidTransactionIdOrNotFound",
      "type": "error"
    },
    {
      "inputs": [
        {
          "internalType": "string",
          "name": "mineralId",
          "type": "string"
        }
      ],
      "name": "TransportRequestAlreadyExists",
      "type": "error"
    },
    {
      "anonymous": false,
      "inputs": [
        {
          "indexed": true,
          "internalType": "address",
          "name": "assignee",
          "type": "address"
        },
        {
          "indexed": false,
          "internalType": "uint256",
          "name": "timestamp",
          "type": "uint256"
        }
      ],
      "name": "AdminRoleAssigned",
      "type": "event"
    },
    {
      "anonymous": false,
      "inputs": [
        {
          "indexed": true,
          "internalType": "address",
          "name": "revokee",
          "type": "address"
        },
        {
          "indexed": false,
          "internalType": "string",
          "name": "reason",
          "type": "string"
        },
        {
          "indexed": false,
          "internalType": "uint256",
          "name": "timestamp",
          "type": "uint256"
        }
      ],
      "name": "AdminRoleRevoked",
      "type": "event"
    },
    {
      "anonymous": false,
      "inputs": [
        {
          "indexed": true,
          "internalType": "address",
          "name": "assignee",
          "type": "address"
        },
        {
          "indexed": false,
          "internalType": "uint256",
          "name": "timestamp",
          "type": "uint256"
        }
      ],
      "name": "AuditorRoleAssigned",
      "type": "event"
    },
    {
      "anonymous": false,
      "inputs": [
        {
          "indexed": true,
          "internalType": "address",
          "name": "revokee",
          "type": "address"
        },
        {
          "indexed": false,
          "internalType": "string",
          "name": "reason",
          "type": "string"
        },
        {
          "indexed": false,
          "internalType": "uint256",
          "name": "timestamp",
          "type": "uint256"
        }
      ],
      "name": "AuditorRoleRevoked",
      "type": "event"
    },
    {
      "anonymous": false,
      "inputs": [
        {
          "indexed": true,
          "internalType": "address",
          "name": "assignee",
          "type": "address"
        },
        {
          "indexed": false,
          "internalType": "uint256",
          "name": "timestamp",
          "type": "uint256"
        }
      ],
      "name": "BuyerRoleAssigned",
      "type": "event"
    },
    {
      "anonymous": false,
      "inputs": [
        {
          "indexed": true,
          "internalType": "address",
          "name": "revokee",
          "type": "address"
        },
        {
          "indexed": false,
          "internalType": "string",
          "name": "reason",
          "type": "string"
        },
        {
          "indexed": false,
          "internalType": "uint256",
          "name": "timestamp",
          "type": "uint256"
        }
      ],
      "name": "BuyerRoleRevoked",
      "type": "event"
    },
    {
      "anonymous": false,
      "inputs": [
        {
          "indexed": true,
          "internalType": "address",
          "name": "assignee",
          "type": "address"
        },
        {
          "indexed": false,
          "internalType": "uint256",
          "name": "timestamp",
          "type": "uint256"
        }
      ],
      "name": "InspectorRoleAssigned",
      "type": "event"
    },
    {
      "anonymous": false,
      "inputs": [
        {
          "indexed": true,
          "internalType": "address",
          "name": "revokee",
          "type": "address"
        },
        {
          "indexed": false,
          "internalType": "string",
          "name": "reason",
          "type": "string"
        },
        {
          "indexed": false,
          "internalType": "uint256",
          "name": "timestamp",
          "type": "uint256"
        }
      ],
      "name": "InspectorRoleRevoked",
      "type": "event"
    },
    {
      "anonymous": false,
      "inputs": [
        {
          "indexed": true,
          "internalType": "address",
          "name": "assignee",
          "type": "address"
        },
        {
          "indexed": false,
          "internalType": "uint256",
          "name": "timestamp",
          "type": "uint256"
        }
      ],
      "name": "MinerRoleAssigned",
      "type": "event"
    },
    {
      "anonymous": false,
      "inputs": [
        {
          "indexed": true,
          "internalType": "address",
          "name": "revokee",
          "type": "address"
        },
        {
          "indexed": false,
          "internalType": "string",
          "name": "reason",
          "type": "string"
        },
        {
          "indexed": false,
          "internalType": "uint256",
          "name": "timestamp",
          "type": "uint256"
        }
      ],
      "name": "MinerRoleRevoked",
      "type": "event"
    },
    {
      "anonymous": false,
      "inputs": [
        {
          "indexed": false,
          "internalType": "string",
          "name": "mineralId",
          "type": "string"
        },
        {
          "indexed": false,
          "internalType": "string",
          "name": "status",
          "type": "string"
        },
        {
          "indexed": true,
          "internalType": "address",
          "name": "auditor",
          "type": "address"
        },
        {
          "indexed": false,
          "internalType": "uint256",
          "name": "auditedAt",
          "type": "uint256"
        }
      ],
      "name": "MineralAudited",
      "type": "event"
    },
    {
      "anonymous": false,
      "inputs": [
        {
          "indexed": false,
          "internalType": "string",
          "name": "mineralId",
          "type": "string"
        },
        {
          "indexed": false,
          "internalType": "string",
          "name": "mineralStatus",
          "type": "string"
        },
        {
          "indexed": true,
          "internalType": "address",
          "name": "inspector",
          "type": "address"
        },
        {
          "indexed": false,
          "internalType": "uint256",
          "name": "inspectedAt",
          "type": "uint256"
        }
      ],
      "name": "MineralInspected",
      "type": "event"
    },
    {
      "anonymous": false,
      "inputs": [
        {
          "indexed": false,
          "internalType": "string",
          "name": "mineralId",
          "type": "string"
        },
        {
          "indexed": true,
          "internalType": "address",
          "name": "buyer",
          "type": "address"
        },
        {
          "indexed": false,
          "internalType": "uint256",
          "name": "purchasedAt",
          "type": "uint256"
        }
      ],
      "name": "MineralPurchased",
      "type": "event"
    },
    {
      "anonymous": false,
      "inputs": [
        {
          "indexed": false,
          "internalType": "string",
          "name": "mineralId",
          "type": "string"
        },
        {
          "indexed": true,
          "internalType": "address",
          "name": "ApprovedBy",
          "type": "address"
        },
        {
          "indexed": false,
          "internalType": "string",
          "name": "status",
          "type": "string"
        },
        {
          "indexed": false,
          "internalType": "uint256",
          "name": "inspectionDate",
          "type": "uint256"
        }
      ],
      "name": "MineralReadyToTrade",
      "type": "event"
    },
    {
      "anonymous": false,
      "inputs": [
        {
          "indexed": false,
          "internalType": "string",
          "name": "mineralId",
          "type": "string"
        },
        {
          "indexed": false,
          "internalType": "string",
          "name": "refineryReport",
          "type": "string"
        },
        {
          "indexed": true,
          "internalType": "address",
          "name": "refiner",
          "type": "address"
        },
        {
          "indexed": false,
          "internalType": "uint256",
          "name": "refinedAt",
          "type": "uint256"
        }
      ],
      "name": "MineralRefined",
      "type": "event"
    },
    {
      "anonymous": false,
      "inputs": [
        {
          "indexed": false,
          "internalType": "string",
          "name": "mineralId",
          "type": "string"
        },
        {
          "indexed": false,
          "internalType": "string",
          "name": "mineralName",
          "type": "string"
        },
        {
          "indexed": false,
          "internalType": "string",
          "name": "mineralType",
          "type": "string"
        },
        {
          "indexed": false,
          "internalType": "string",
          "name": "origin",
          "type": "string"
        },
        {
          "indexed": false,
          "internalType": "uint256",
          "name": "weight",
          "type": "uint256"
        },
        {
          "indexed": false,
          "internalType": "uint256",
          "name": "purityPercentage",
          "type": "uint256"
        },
        {
          "indexed": true,
          "internalType": "address",
          "name": "miner",
          "type": "address"
        },
        {
          "indexed": false,
          "internalType": "uint256",
          "name": "registeredAt",
          "type": "uint256"
        }
      ],
      "name": "MineralRegistered",
      "type": "event"
    },
    {
      "anonymous": false,
      "inputs": [
        {
          "indexed": false,
          "internalType": "string",
          "name": "mineralId",
          "type": "string"
        },
        {
          "indexed": true,
          "internalType": "address",
          "name": "transporter",
          "type": "address"
        },
        {
          "indexed": false,
          "internalType": "address",
          "name": "receivingParty",
          "type": "address"
        },
        {
          "indexed": false,
          "internalType": "string",
          "name": "origin",
          "type": "string"
        },
        {
          "indexed": false,
          "internalType": "string",
          "name": "destination",
          "type": "string"
        },
        {
          "indexed": false,
          "internalType": "uint256",
          "name": "transportedAt",
          "type": "uint256"
        }
      ],
      "name": "MineralTransported",
      "type": "event"
    },
    {
      "anonymous": false,
      "inputs": [
        {
          "indexed": true,
          "internalType": "address",
          "name": "actor",
          "type": "address"
        },
        {
          "indexed": false,
          "internalType": "string",
          "name": "operation",
          "type": "string"
        },
        {
          "indexed": false,
          "internalType": "uint256",
          "name": "timestamp",
          "type": "uint256"
        }
      ],
      "name": "OperationValidated",
      "type": "event"
    },
    {
      "anonymous": false,
      "inputs": [
        {
          "indexed": true,
          "internalType": "address",
          "name": "assignee",
          "type": "address"
        },
        {
          "indexed": false,
          "internalType": "uint256",
          "name": "timestamp",
          "type": "uint256"
        }
      ],
      "name": "RefinerRoleAssigned",
      "type": "event"
    },
    {
      "anonymous": false,
      "inputs": [
        {
          "indexed": true,
          "internalType": "address",
          "name": "revokee",
          "type": "address"
        },
        {
          "indexed": false,
          "internalType": "string",
          "name": "reason",
          "type": "string"
        },
        {
          "indexed": false,
          "internalType": "uint256",
          "name": "timestamp",
          "type": "uint256"
        }
      ],
      "name": "RefinerRoleRevoked",
      "type": "event"
    },
    {
      "anonymous": false,
      "inputs": [
        {
          "indexed": true,
          "internalType": "bytes32",
          "name": "role",
          "type": "bytes32"
        },
        {
          "indexed": true,
          "internalType": "bytes32",
          "name": "previousAdminRole",
          "type": "bytes32"
        },
        {
          "indexed": true,
          "internalType": "bytes32",
          "name": "newAdminRole",
          "type": "bytes32"
        }
      ],
      "name": "RoleAdminChanged",
      "type": "event"
    },
    {
      "anonymous": false,
      "inputs": [
        {
          "indexed": true,
          "internalType": "address",
          "name": "account",
          "type": "address"
        },
        {
          "indexed": true,
          "internalType": "bytes32",
          "name": "role",
          "type": "bytes32"
        },
        {
          "indexed": false,
          "internalType": "uint256",
          "name": "roleAssignedAt",
          "type": "uint256"
        }
      ],
      "name": "RoleAssigned",
      "type": "event"
    },
    {
      "anonymous": false,
      "inputs": [
        {
          "indexed": true,
          "internalType": "bytes32",
          "name": "role",
          "type": "bytes32"
        },
        {
          "indexed": true,
          "internalType": "address",
          "name": "account",
          "type": "address"
        },
        {
          "indexed": true,
          "internalType": "address",
          "name": "sender",
          "type": "address"
        }
      ],
      "name": "RoleGranted",
      "type": "event"
    },
    {
      "anonymous": false,
      "inputs": [
        {
          "indexed": true,
          "internalType": "bytes32",
          "name": "role",
          "type": "bytes32"
        },
        {
          "indexed": true,
          "internalType": "address",
          "name": "account",
          "type": "address"
        },
        {
          "indexed": true,
          "internalType": "address",
          "name": "sender",
          "type": "address"
        }
      ],
      "name": "RoleRevoked",
      "type": "event"
    },
    {
      "anonymous": false,
      "inputs": [
        {
          "indexed": false,
          "internalType": "bytes32",
          "name": "role",
          "type": "bytes32"
        },
        {
          "indexed": false,
          "internalType": "address",
          "name": "account",
          "type": "address"
        },
        {
          "indexed": false,
          "internalType": "address",
          "name": "revoker",
          "type": "address"
        },
        {
          "indexed": false,
          "internalType": "uint256",
          "name": "roleRevokedAt",
          "type": "uint256"
        }
      ],
      "name": "RoleRevoked",
      "type": "event"
    },
    {
      "anonymous": false,
      "inputs": [
        {
          "indexed": true,
          "internalType": "address",
          "name": "validator",
          "type": "address"
        },
        {
          "indexed": false,
          "internalType": "bool",
          "name": "isValid",
          "type": "bool"
        },
        {
          "indexed": false,
          "internalType": "string",
          "name": "mineralId",
          "type": "string"
        }
      ],
      "name": "SupplychainValidated",
      "type": "event"
    },
    {
      "anonymous": false,
      "inputs": [
        {
          "indexed": true,
          "internalType": "address",
          "name": "assignee",
          "type": "address"
        },
        {
          "indexed": false,
          "internalType": "uint256",
          "name": "timestamp",
          "type": "uint256"
        }
      ],
      "name": "TransporterRoleAssigned",
      "type": "event"
    },
    {
      "anonymous": false,
      "inputs": [
        {
          "indexed": true,
          "internalType": "address",
          "name": "revokee",
          "type": "address"
        },
        {
          "indexed": false,
          "internalType": "string",
          "name": "reason",
          "type": "string"
        },
        {
          "indexed": false,
          "internalType": "uint256",
          "name": "timestamp",
          "type": "uint256"
        }
      ],
      "name": "TransporterRoleRevoked",
      "type": "event"
    },
    {
      "inputs": [],
      "name": "AUDITOR_ROLE",
      "outputs": [
        {
          "internalType": "bytes32",
          "name": "",
          "type": "bytes32"
        }
      ],
      "stateMutability": "view",
      "type": "function"
    },
    {
      "inputs": [],
      "name": "BUYER_ROLE",
      "outputs": [
        {
          "internalType": "bytes32",
          "name": "",
          "type": "bytes32"
        }
      ],
      "stateMutability": "view",
      "type": "function"
    },
    {
      "inputs": [],
      "name": "DEFAULT_ADMIN_ROLE",
      "outputs": [
        {
          "internalType": "bytes32",
          "name": "",
          "type": "bytes32"
        }
      ],
      "stateMutability": "view",
      "type": "function"
    },
    {
      "inputs": [],
      "name": "INSPECTOR_ROLE",
      "outputs": [
        {
          "internalType": "bytes32",
          "name": "",
          "type": "bytes32"
        }
      ],
      "stateMutability": "view",
      "type": "function"
    },
    {
      "inputs": [],
      "name": "MINER_ROLE",
      "outputs": [
        {
          "internalType": "bytes32",
          "name": "",
          "type": "bytes32"
        }
      ],
      "stateMutability": "view",
      "type": "function"
    },
    {
      "inputs": [],
      "name": "REFINER_ROLE",
      "outputs": [
        {
          "internalType": "bytes32",
          "name": "",
          "type": "bytes32"
        }
      ],
      "stateMutability": "view",
      "type": "function"
    },
    {
      "inputs": [],
      "name": "TRANSPORTER_ROLE",
      "outputs": [
        {
          "internalType": "bytes32",
          "name": "",
          "type": "bytes32"
        }
      ],
      "stateMutability": "view",
      "type": "function"
    },
    {
      "inputs": [
        {
          "internalType": "string",
          "name": "mineralId",
          "type": "string"
        },
        {
          "internalType": "string",
          "name": "report",
          "type": "string"
        }
      ],
      "name": "_auditMineral",
      "outputs": [],
      "stateMutability": "nonpayable",
      "type": "function"
    },
    {
      "inputs": [
        {
          "internalType": "address",
          "name": "account",
          "type": "address"
        }
      ],
      "name": "assignAuditor",
      "outputs": [],
      "stateMutability": "nonpayable",
      "type": "function"
    },
    {
      "inputs": [
        {
          "internalType": "address",
          "name": "account",
          "type": "address"
        }
      ],
      "name": "assignBuyer",
      "outputs": [],
      "stateMutability": "nonpayable",
      "type": "function"
    },
    {
      "inputs": [
        {
          "internalType": "address",
          "name": "account",
          "type": "address"
        }
      ],
      "name": "assignInspector",
      "outputs": [],
      "stateMutability": "nonpayable",
      "type": "function"
    },
    {
      "inputs": [
        {
          "internalType": "address",
          "name": "account",
          "type": "address"
        }
      ],
      "name": "assignMiner",
      "outputs": [],
      "stateMutability": "nonpayable",
      "type": "function"
    },
    {
      "inputs": [
        {
          "internalType": "address",
          "name": "account",
          "type": "address"
        }
      ],
      "name": "assignRefiner",
      "outputs": [],
      "stateMutability": "nonpayable",
      "type": "function"
    },
    {
      "inputs": [
        {
          "internalType": "address",
          "name": "account",
          "type": "address"
        }
      ],
      "name": "assignTransporter",
      "outputs": [],
      "stateMutability": "nonpayable",
      "type": "function"
    },
    {
      "inputs": [
        {
          "internalType": "string",
          "name": "mineralId",
          "type": "string"
        }
      ],
      "name": "checkAuditAndInspectionStatus",
      "outputs": [
        {
          "internalType": "bool",
          "name": "isAudited",
          "type": "bool"
        },
        {
          "internalType": "bool",
          "name": "isInspected",
          "type": "bool"
        }
      ],
      "stateMutability": "nonpayable",
      "type": "function"
    },
    {
      "inputs": [],
      "name": "getAllRoleCounts",
      "outputs": [
        {
          "internalType": "uint256",
          "name": "minerCount",
          "type": "uint256"
        },
        {
          "internalType": "uint256",
          "name": "refinerCount",
          "type": "uint256"
        },
        {
          "internalType": "uint256",
          "name": "transporterCount",
          "type": "uint256"
        },
        {
          "internalType": "uint256",
          "name": "auditorCount",
          "type": "uint256"
        },
        {
          "internalType": "uint256",
          "name": "inspectorCount",
          "type": "uint256"
        },
        {
          "internalType": "uint256",
          "name": "buyerCount",
          "type": "uint256"
        }
      ],
      "stateMutability": "view",
      "type": "function"
    },
    {
      "inputs": [
        {
          "internalType": "string",
          "name": "mineralId",
          "type": "string"
        }
      ],
      "name": "getMineralHistory",
      "outputs": [
        {
          "components": [
            {
              "internalType": "string",
              "name": "id",
              "type": "string"
            },
            {
              "internalType": "string",
              "name": "fieldChanged",
              "type": "string"
            },
            {
              "internalType": "string",
              "name": "newValue",
              "type": "string"
            },
            {
              "internalType": "address",
              "name": "updatedBy",
              "type": "address"
            },
            {
              "internalType": "uint256",
              "name": "timestamp",
              "type": "uint256"
            }
          ],
          "internalType": "struct RolesManager.MineralHistory[]",
          "name": "",
          "type": "tuple[]"
        }
      ],
      "stateMutability": "view",
      "type": "function"
    },
    {
      "inputs": [
        {
          "internalType": "bytes32",
          "name": "role",
          "type": "bytes32"
        }
      ],
      "name": "getRoleAdmin",
      "outputs": [
        {
          "internalType": "bytes32",
          "name": "",
          "type": "bytes32"
        }
      ],
      "stateMutability": "view",
      "type": "function"
    },
    {
      "inputs": [
        {
          "internalType": "bytes32",
          "name": "role",
          "type": "bytes32"
        }
      ],
      "name": "getRoleMemberCount",
      "outputs": [
        {
          "internalType": "uint256",
          "name": "count",
          "type": "uint256"
        }
      ],
      "stateMutability": "view",
      "type": "function"
    },
    {
      "inputs": [
        {
          "internalType": "address",
          "name": "account",
          "type": "address"
        }
      ],
      "name": "getRolesForAddress",
      "outputs": [
        {
          "internalType": "string[]",
          "name": "roles",
          "type": "string[]"
        }
      ],
      "stateMutability": "view",
      "type": "function"
    },
    {
      "inputs": [
        {
          "internalType": "bytes32",
          "name": "role",
          "type": "bytes32"
        },
        {
          "internalType": "address",
          "name": "account",
          "type": "address"
        }
      ],
      "name": "grantRole",
      "outputs": [],
      "stateMutability": "nonpayable",
      "type": "function"
    },
    {
      "inputs": [
        {
          "internalType": "address",
          "name": "account",
          "type": "address"
        }
      ],
      "name": "hasAdminRole",
      "outputs": [
        {
          "internalType": "bool",
          "name": "",
          "type": "bool"
        }
      ],
      "stateMutability": "view",
      "type": "function"
    },
    {
      "inputs": [
        {
          "internalType": "address",
          "name": "account",
          "type": "address"
        }
      ],
      "name": "hasAuditorRole",
      "outputs": [
        {
          "internalType": "bool",
          "name": "",
          "type": "bool"
        }
      ],
      "stateMutability": "view",
      "type": "function"
    },
    {
      "inputs": [
        {
          "internalType": "address",
          "name": "account",
          "type": "address"
        }
      ],
      "name": "hasBuyerRole",
      "outputs": [
        {
          "internalType": "bool",
          "name": "",
          "type": "bool"
        }
      ],
      "stateMutability": "view",
      "type": "function"
    },
    {
      "inputs": [
        {
          "internalType": "address",
          "name": "account",
          "type": "address"
        }
      ],
      "name": "hasInspectorRole",
      "outputs": [
        {
          "internalType": "bool",
          "name": "",
          "type": "bool"
        }
      ],
      "stateMutability": "view",
      "type": "function"
    },
    {
      "inputs": [
        {
          "internalType": "address",
          "name": "account",
          "type": "address"
        }
      ],
      "name": "hasMinerRole",
      "outputs": [
        {
          "internalType": "bool",
          "name": "",
          "type": "bool"
        }
      ],
      "stateMutability": "view",
      "type": "function"
    },
    {
      "inputs": [
        {
          "internalType": "address",
          "name": "account",
          "type": "address"
        }
      ],
      "name": "hasRefinerRole",
      "outputs": [
        {
          "internalType": "bool",
          "name": "",
          "type": "bool"
        }
      ],
      "stateMutability": "view",
      "type": "function"
    },
    {
      "inputs": [
        {
          "internalType": "bytes32",
          "name": "role",
          "type": "bytes32"
        },
        {
          "internalType": "address",
          "name": "account",
          "type": "address"
        }
      ],
      "name": "hasRole",
      "outputs": [
        {
          "internalType": "bool",
          "name": "",
          "type": "bool"
        }
      ],
      "stateMutability": "view",
      "type": "function"
    },
    {
      "inputs": [
        {
          "internalType": "address",
          "name": "account",
          "type": "address"
        }
      ],
      "name": "hasTransporterRole",
      "outputs": [
        {
          "internalType": "bool",
          "name": "",
          "type": "bool"
        }
      ],
      "stateMutability": "view",
      "type": "function"
    },
    {
      "inputs": [
        {
          "internalType": "string",
          "name": "mineralId",
          "type": "string"
        },
        {
          "internalType": "string",
          "name": "report",
          "type": "string"
        }
      ],
      "name": "inspectMineral",
      "outputs": [],
      "stateMutability": "nonpayable",
      "type": "function"
    },
    {
      "inputs": [
        {
          "internalType": "string",
          "name": "mineralId",
          "type": "string"
        }
      ],
      "name": "isMineralRegistered",
      "outputs": [
        {
          "internalType": "bool",
          "name": "",
          "type": "bool"
        }
      ],
      "stateMutability": "nonpayable",
      "type": "function"
    },
    {
      "inputs": [
        {
          "internalType": "string",
          "name": "mineralId",
          "type": "string"
        }
      ],
      "name": "logValidationResult",
      "outputs": [
        {
          "internalType": "bool",
          "name": "",
          "type": "bool"
        },
        {
          "internalType": "string",
          "name": "",
          "type": "string"
        }
      ],
      "stateMutability": "nonpayable",
      "type": "function"
    },
    {
      "inputs": [
        {
          "internalType": "string",
          "name": "",
          "type": "string"
        }
      ],
      "name": "mineralDetails",
      "outputs": [
        {
          "internalType": "string",
          "name": "id",
          "type": "string"
        },
        {
          "internalType": "string",
          "name": "name",
          "type": "string"
        },
        {
          "internalType": "string",
          "name": "origin",
          "type": "string"
        },
        {
          "internalType": "string",
          "name": "mineralType",
          "type": "string"
        },
        {
          "internalType": "uint256",
          "name": "weight",
          "type": "uint256"
        },
        {
          "internalType": "uint256",
          "name": "purityPercentage",
          "type": "uint256"
        },
        {
          "internalType": "string",
          "name": "storageConditions",
          "type": "string"
        },
        {
          "internalType": "address",
          "name": "registeredBy",
          "type": "address"
        },
        {
          "internalType": "string",
          "name": "currentStatus",
          "type": "string"
        },
        {
          "internalType": "string",
          "name": "currentLocation",
          "type": "string"
        },
        {
          "internalType": "address",
          "name": "currentHandler",
          "type": "address"
        },
        {
          "internalType": "bool",
          "name": "isPurchased",
          "type": "bool"
        },
        {
          "internalType": "bool",
          "name": "isRefined",
          "type": "bool"
        },
        {
          "internalType": "bool",
          "name": "isAudited",
          "type": "bool"
        },
        {
          "internalType": "bool",
          "name": "isInspected",
          "type": "bool"
        },
        {
          "internalType": "uint256",
          "name": "timestamp",
          "type": "uint256"
        }
      ],
      "stateMutability": "view",
      "type": "function"
    },
    {
      "inputs": [
        {
          "internalType": "string",
          "name": "",
          "type": "string"
        },
        {
          "internalType": "uint256",
          "name": "",
          "type": "uint256"
        }
      ],
      "name": "mineralHistories",
      "outputs": [
        {
          "internalType": "string",
          "name": "id",
          "type": "string"
        },
        {
          "internalType": "string",
          "name": "fieldChanged",
          "type": "string"
        },
        {
          "internalType": "string",
          "name": "newValue",
          "type": "string"
        },
        {
          "internalType": "address",
          "name": "updatedBy",
          "type": "address"
        },
        {
          "internalType": "uint256",
          "name": "timestamp",
          "type": "uint256"
        }
      ],
      "stateMutability": "view",
      "type": "function"
    },
    {
      "inputs": [
        {
          "internalType": "string",
          "name": "mineralId",
          "type": "string"
        }
      ],
      "name": "purchaseMineral",
      "outputs": [],
      "stateMutability": "nonpayable",
      "type": "function"
    },
    {
      "inputs": [
        {
          "internalType": "string",
          "name": "mineralId",
          "type": "string"
        },
        {
          "internalType": "string",
          "name": "report",
          "type": "string"
        }
      ],
      "name": "refineMineral",
      "outputs": [],
      "stateMutability": "nonpayable",
      "type": "function"
    },
    {
      "inputs": [
        {
          "internalType": "string",
          "name": "_name",
          "type": "string"
        },
        {
          "internalType": "string",
          "name": "_mineralType",
          "type": "string"
        },
        {
          "internalType": "uint256",
          "name": "_weight",
          "type": "uint256"
        },
        {
          "internalType": "string",
          "name": "_origin",
          "type": "string"
        },
        {
          "internalType": "uint256",
          "name": "_purityPercentage",
          "type": "uint256"
        },
        {
          "internalType": "string",
          "name": "_storageConditions",
          "type": "string"
        }
      ],
      "name": "registerMineral",
      "outputs": [
        {
          "internalType": "string",
          "name": "",
          "type": "string"
        }
      ],
      "stateMutability": "nonpayable",
      "type": "function"
    },
    {
      "inputs": [
        {
          "internalType": "bytes32",
          "name": "role",
          "type": "bytes32"
        },
        {
          "internalType": "address",
          "name": "callerConfirmation",
          "type": "address"
        }
      ],
      "name": "renounceRole",
      "outputs": [],
      "stateMutability": "nonpayable",
      "type": "function"
    },
    {
      "inputs": [
        {
          "internalType": "address",
          "name": "account",
          "type": "address"
        },
        {
          "internalType": "string",
          "name": "reason",
          "type": "string"
        }
      ],
      "name": "revokeAuditor",
      "outputs": [],
      "stateMutability": "nonpayable",
      "type": "function"
    },
    {
      "inputs": [
        {
          "internalType": "address",
          "name": "account",
          "type": "address"
        },
        {
          "internalType": "string",
          "name": "reason",
          "type": "string"
        }
      ],
      "name": "revokeBuyer",
      "outputs": [],
      "stateMutability": "nonpayable",
      "type": "function"
    },
    {
      "inputs": [
        {
          "internalType": "address",
          "name": "account",
          "type": "address"
        },
        {
          "internalType": "string",
          "name": "reason",
          "type": "string"
        }
      ],
      "name": "revokeInspector",
      "outputs": [],
      "stateMutability": "nonpayable",
      "type": "function"
    },
    {
      "inputs": [
        {
          "internalType": "address",
          "name": "account",
          "type": "address"
        },
        {
          "internalType": "string",
          "name": "reason",
          "type": "string"
        }
      ],
      "name": "revokeMiner",
      "outputs": [],
      "stateMutability": "nonpayable",
      "type": "function"
    },
    {
      "inputs": [
        {
          "internalType": "address",
          "name": "account",
          "type": "address"
        },
        {
          "internalType": "string",
          "name": "reason",
          "type": "string"
        }
      ],
      "name": "revokeRefiner",
      "outputs": [],
      "stateMutability": "nonpayable",
      "type": "function"
    },
    {
      "inputs": [
        {
          "internalType": "bytes32",
          "name": "role",
          "type": "bytes32"
        },
        {
          "internalType": "address",
          "name": "account",
          "type": "address"
        }
      ],
      "name": "revokeRole",
      "outputs": [],
      "stateMutability": "nonpayable",
      "type": "function"
    },
    {
      "inputs": [
        {
          "internalType": "address",
          "name": "account",
          "type": "address"
        },
        {
          "internalType": "string",
          "name": "reason",
          "type": "string"
        }
      ],
      "name": "revokeTransporter",
      "outputs": [],
      "stateMutability": "nonpayable",
      "type": "function"
    },
    {
      "inputs": [
        {
          "internalType": "bytes32",
          "name": "",
          "type": "bytes32"
        }
      ],
      "name": "roleMemberCount",
      "outputs": [
        {
          "internalType": "uint256",
          "name": "",
          "type": "uint256"
        }
      ],
      "stateMutability": "view",
      "type": "function"
    },
    {
      "inputs": [
        {
          "internalType": "bytes4",
          "name": "interfaceId",
          "type": "bytes4"
        }
      ],
      "name": "supportsInterface",
      "outputs": [
        {
          "internalType": "bool",
          "name": "",
          "type": "bool"
        }
      ],
      "stateMutability": "view",
      "type": "function"
    },
    {
      "inputs": [
        {
          "internalType": "string",
          "name": "mineralId",
          "type": "string"
        },
        {
          "internalType": "address",
          "name": "_receivingParty",
          "type": "address"
        },
        {
          "internalType": "string",
          "name": "_origin",
          "type": "string"
        },
        {
          "internalType": "string",
          "name": "_destination",
          "type": "string"
        }
      ],
      "name": "transferMineral",
      "outputs": [],
      "stateMutability": "nonpayable",
      "type": "function"
    },
    {
      "inputs": [
        {
          "internalType": "string",
          "name": "mineralId",
          "type": "string"
        },
        {
          "internalType": "address",
          "name": "inspector",
          "type": "address"
        }
      ],
      "name": "validateInspectionOperation",
      "outputs": [],
      "stateMutability": "nonpayable",
      "type": "function"
    },
    {
      "inputs": [
        {
          "internalType": "string",
          "name": "mineralId",
          "type": "string"
        }
      ],
      "name": "validateMiningOperation",
      "outputs": [],
      "stateMutability": "nonpayable",
      "type": "function"
    },
    {
      "inputs": [
        {
          "internalType": "string",
          "name": "mineralId",
          "type": "string"
        },
        {
          "internalType": "address",
          "name": "buyer",
          "type": "address"
        }
      ],
      "name": "validatePurchaseOperation",
      "outputs": [],
      "stateMutability": "nonpayable",
      "type": "function"
    },
    {
      "inputs": [
        {
          "internalType": "string",
          "name": "mineralId",
          "type": "string"
        }
      ],
      "name": "validateRefiningOperation",
      "outputs": [],
      "stateMutability": "nonpayable",
      "type": "function"
    },
    {
      "inputs": [
        {
          "internalType": "string",
          "name": "mineralId",
          "type": "string"
        }
      ],
      "name": "validateSupplychain",
      "outputs": [
        {
          "internalType": "bool",
          "name": "isValid",
          "type": "bool"
        },
        {
          "internalType": "string",
          "name": "validationReason",
          "type": "string"
        }
      ],
      "stateMutability": "nonpayable",
      "type": "function"
    },
    {
      "inputs": [
        {
          "internalType": "string",
          "name": "mineralId",
          "type": "string"
        },
        {
          "internalType": "address",
          "name": "to",
          "type": "address"
        }
      ],
      "name": "validateTransportationOperation",
      "outputs": [],
      "stateMutability": "nonpayable",
      "type": "function"
    }
  ],
  "bytecode": "0x6080346200043757601f62005fde38819003918201601f191683019291906001600160401b038411838510176200043c578160c092849260409687528339810103126200043757620000518162000452565b9060206200006181830162000452565b916200006f85820162000452565b906200007e6060820162000452565b936200009b60a0620000936080850162000452565b930162000452565b9343420180421162000421576001908155620000b73362000467565b50600080805260048084528a822080546000199190828114620003fb5785019055828052818552838c8420558b514281527f458ea7e03b3466b3cf9bc2d66ddea8b11fe9469982816f42666888e6c8c6e664863392a26200011833620004e7565b507fa952726ef2588ad078edf35b066f7c7406e207cb0003bbaba8cb53eba9553e728084528286528c842080548381146200040e57860190558352818552838c8420558b514281527f593f046317558c2857b92915c62c99f2d2108f7bc6f1e1b3c5376cd559abf559863392a2620001903362000589565b507f59a1c48e5837ad7a7f3dcedcbe129bf3249ec4fbf651fd4f5e2600ead39fe2f58084528286528c842080548381146200040e57860190558352818552838c8420558b514281527f4a02edd19f09212e54b2ac85d7d3a4a2e3fbf424e6710c3f817d9b4cecc9cdb3863392a2620002083362000626565b5060008051602062005f7e8339815191528084528286528c842080548381146200040e57860190558352818552838c8420558b514281527f49cc27c2a068c01cf703c3923dfc679109b5f6c27bd1f61b542c159e3a73e092863392a26200026f33620006b2565b5060008051602062005f9e8339815191528084528286528c842080548381146200040e57860190558352818552838c8420558b514281527ff8ed9ac482b0f7c12999b3f157f758f84e39cd339fa301ea203823ac29e97505863392a2620002d6336200073e565b5060008051602062005fbe8339815191528084528286528c842080548381146200040e57860190558352818552838c8420558b514281527f4e3eede475de92d3e23765b737dbb67646352b3328c1a437d7f089766d7be751863392a26200033d33620007ca565b5060008051602062005f5e833981519152908184528286528c8420908154908114620003fb57850190558252835289902055875142815233917f964e50cb3bdb84c00a30f56ae15d538d23dc6db14f891d7d819761b161e990a691a260018060a01b03948580948180948160018060a01b03199b168b6005541617600555168960065416176006551687600754161760075516856008541617600855168360095416176009551690600a541617600a55516156e79081620008578239f35b634e487b7160e01b855260118452602485fd5b634e487b7160e01b865260118552602486fd5b634e487b7160e01b600052601160045260246000fd5b600080fd5b634e487b7160e01b600052604160045260246000fd5b51906001600160a01b03821682036200043757565b6001600160a01b031660008181527fad3228b676f7d3cd4284a5443f17f1962b36e491b30a40b2405849e597ba5fb5602052604081205490919060ff16620004e357818052816020526040822081835260205260408220600160ff19825416179055339160008051602062005f3e8339815191528180a4600190565b5090565b6001600160a01b031660008181527fbb3fcc25fbffa12ea463b3505377899a4d5ddb4858b9c7bd36764686d9425b3660205260408120549091907fa952726ef2588ad078edf35b066f7c7406e207cb0003bbaba8cb53eba9553e729060ff166200058457808352826020526040832082845260205260408320600160ff1982541617905560008051602062005f3e833981519152339380a4600190565b505090565b6001600160a01b031660008181527f0d2d6a5d08cb5d871289c0a3ca855d9da72909a111c24cce2d5c2b34a20daa5460205260408120549091907f59a1c48e5837ad7a7f3dcedcbe129bf3249ec4fbf651fd4f5e2600ead39fe2f59060ff166200058457808352826020526040832082845260205260408320600160ff1982541617905560008051602062005f3e833981519152339380a4600190565b6001600160a01b031660008181527facfff8a39fb957d9d1c8e3ef9f08385e3fcf7bb23ab7ba0ad0f8df93dbde6a68602052604081205490919060008051602062005f7e8339815191529060ff166200058457808352826020526040832082845260205260408320600160ff1982541617905560008051602062005f3e833981519152339380a4600190565b6001600160a01b031660008181527ff3fa603c74bfe2a4719960e47343678c3dc690d2b27a2295acc6fc430833aaf9602052604081205490919060008051602062005f9e8339815191529060ff166200058457808352826020526040832082845260205260408320600160ff1982541617905560008051602062005f3e833981519152339380a4600190565b6001600160a01b031660008181527f4130a4caca6023b0ba21488ee680ce5c3df22860b1cd8b02cd2a0bcb0de98851602052604081205490919060008051602062005fbe8339815191529060ff166200058457808352826020526040832082845260205260408320600160ff1982541617905560008051602062005f3e833981519152339380a4600190565b6001600160a01b031660008181527fbce5fd3347e0dc338dcc0e895534dd4af2740eec95f56cd4ca4b4b2ada357ca0602052604081205490919060008051602062005f5e8339815191529060ff166200058457808352826020526040832082845260205260408320600160ff1982541617905560008051602062005f3e833981519152339380a460019056fe608080604052600436101561001357600080fd5b600090813560e01c90816301ffc9a714613ff2575080630958fc2d14613f555780630dacad2e14613eb8578063126ee33814613ba4578063248a9ca314613b785780632f2ff15d14613b3b578063309514df14613ac257806331bc398914613a795780633499c3a214613a2557806335ba62071461391c57806336568abe146138d45780633a7adea5146126c0578063480d1dd3146126235780634e2a3109146125275780634eabbe77146124fe5780635aee1b15146122d85780636377741d1461223b5780636394f6e6146122125780636e1d616e146121e957806370e22e421461219557806375a2b0d414611fb157806379451cd714611f885780637a01a1da14611f5f5780637ae9c16014611ee65780637cde2b9914611dea578063826fe0f514611bbc5780638850845f14611b685780638cfa6e8914611a3857806391d14854146119ed57806399691194146118e95780639b188dd614611870578063a217fddf14611854578063a917601b146117b7578063aae18574146115ca578063abaa536f14611573578063ac1bce1b146113f1578063ac851dfd146113ac578063b6ba1ca714611382578063b9c5b833146112c1578063beae46151461126a578063c148f517146111a5578063c395fcb31461115c578063ca15c87314611073578063cc82b09014610fc4578063d547741f14610f83578063d98b1c0e14610e36578063de7ce39114610ddf578063df422bf2146108ea578063e3a3c522146108c1578063e438fdf814610848578063f17f352314610655578063f5716a85146105dc578063fc1032eb146104fd5763ff40c3fc1461027357600080fd5b346104fa5761028136614374565b906000805160206155b283398151915283526020918383526040842033600052835260ff60406000205416156104e2576102ba82614d68565b1580156104d9575b6104b157600854604051632f581fdf60e21b8152600481018590528593926001600160a01b03928316918681806102fc60248201896141f1565b0381865afa9081156104a6578691610470575b50823b1561046c57604051632142170760e11b81523360048201526001600160a01b0392909216602483015260448201529084908290606490829084905af190811561046157849161044d575b505060095416803b156104495760405163132a174d60e21b815233600482015260606024820152600e60648201526d2a3930b739b837b93a30ba34b7b760911b608482015291839183918290849082906103c79060a483015b838103600319016044850152906141f1565b03925af1801561043e57610426575b50506000805160206155f28339815191526040516040815261041760408201604090600e81526d2a3930b739b837b93a30ba34b7b760911b60208201520190565b9242908201528033930390a280f35b61042f906140c0565b61043a5781386103d6565b5080fd5b6040513d84823e3d90fd5b8280fd5b610456906140c0565b61044957823861035c565b6040513d86823e3d90fd5b8580fd5b809650878092503d831161049f575b6104898183614109565b8101031261049a578694513861030f565b600080fd5b503d61047f565b6040513d88823e3d90fd5b50906104d5604051928392631a599d5b60e01b8452600484015260248301906141f1565b0390fd5b508151156102c2565b604051630568555f60e41b8152336004820152602490fd5b80fd5b50346104fa5761050c3661418c565b610514614523565b61051d8261442f565b156105ca576105a07f93e936184fad9f80c7000aa987f91be0cd621bacde11839fdc7139f3d9c2407b916000805160206156528339815191528086528560205261056d600160408820015461457b565b61057685614be6565b5085526004602052604085208054806105b8575b50506040519182916040835260408301906141f1565b4260208301526001600160a01b03909416930390a280f35b6105c190614d23565b9055388061058a565b604051632ac1560560e21b8152600490fd5b50346104fa576105eb3661418c565b6105f3614523565b6105fc8261446c565b156105ca576105a07f4614600adaea632b1e4c381ad24471dab7b587dca104c8dd4da76bc64f19716f916000805160206156728339815191528086528560205261064c600160408820015461457b565b61057685614b5f565b50346104fa5760803660031901126104fa576001600160401b0360043581811161044957610687903690600401614145565b9061069061405d565b604435828111610844576106a8903690600401614145565b91606435908111610844576106c1903690600401614145565b916000805160206155b283398151915285526020918583526040862033600052835260ff60406000205416156104e2576001600160a01b03168015610832578151156108205783511561080e57604051600160ff600a8851938781818c019661072b81838a6141ce565b81016002815203019020015460a01c161515146107ec57927f55b00b3c29344a545244b18d70b135e423405427088bd5425f13d690b82310b494926107ce92600a610786846107dc988b6040519384928392519283916141ce565b8101600281520301902001336bffffffffffffffffffffffff60a01b8254161790556107bd6040519860a08a5260a08a01906141f1565b9288015286820360408801526141f1565b9084820360608601526141f1565b914260808201528033930390a280f35b604051632072bb0160e11b815260048101859052806104d560248201896141f1565b604051635dbef47560e01b8152600490fd5b6040516326813e6f60e01b8152600490fd5b60405163bea3fd2f60e01b8152600490fd5b8480fd5b50346104fa576108573661418c565b61085f614523565b610868826144e6565b156105ca576105a07f352e14c53d161e2481e65145b53265d1608f979a93a06df66d4c99b2a84ddc63916000805160206155d2833981519152808652856020526108b8600160408820015461457b565b61057685614ad8565b50346104fa57806003193601126104fa5760206040516000805160206155d28339815191528152f35b50346104fa5760208060031936011261043a576001600160a01b0361090d614047565b168015610dcd5782908380528383526040842081600052835260ff8060406000205416610dc4575b60008051602061563283398151915291828652858552604086208160005285528160406000205416610db4575b600080516020615672833981519152808752868652604087208260005286528260406000205416610da4575b6000805160206155b2833981519152808852878752604088208360005287528360406000205416610d94575b600080516020615652833981519152808952888852604089208460005288528460406000205416610d84575b6000805160206155d283398151915291828a5289895260408a208560005289528560406000205416610d74575b60008051602061561283398151915293848b528a8a5260408b20866000528a528660406000205416610d64575b610a4989614d30565b98610a576040519a8b614109565b808a52610a66601f1991614d30565b018a8c5b8b838210610d5457505050508a978b80528b8b5260408c20876000528b528760406000205416610d19575b8b528a8a5260408b20866000528a528660406000205416610cdc575b8a5289895260408a208560005289528560406000205416610c9d575b8952888852604089208460005288528460406000205416610c5a575b8852878752604088208360005287528360406000205416610c1b575b8752868652604087208260005286528260406000205416610bda575b86528585526040862090600052845260406000205416610b97575b506040805183815282518185018190529093600582901b850183019381019285015b828710610b6b5785850386f35b909192938280610b87600193603f198a820301865288516141f1565b9601920196019592919092610b5e565b610bd390604051610ba7816140d3565b6005815264212aaca2a960d91b85820152610bc28285614d54565b52610bcd8184614d54565b50614cfe565b5038610b3c565b92610c1590604051610beb816140d3565b600981526824a729a822a1aa27a960b91b88820152610c0a8288614d54565b52610bcd8187614d54565b92610b21565b93610c5490604051610c2c816140d3565b600781526620aaa224aa27a960c91b89820152610c498289614d54565b52610bcd8188614d54565b93610b05565b94610c9790604051610c6b816140d3565b600b81526a2a2920a729a827a92a22a960a91b8a820152610c8c828a614d54565b52610bcd8189614d54565b94610ae9565b95610cd690604051610cae816140d3565b60078152662922a324a722a960c91b8b820152610ccb828b614d54565b52610bcd818a614d54565b95610acd565b96610d1390604051610ced816140d3565b600581526426a4a722a960d91b8c820152610d08828c614d54565b52610bcd818b614d54565b96610ab1565b9750604051610d27816140d3565b600581526420a226a4a760d91b8b820152610d418a614d47565b52610d4b89614d47565b50600197610a95565b8282606092010152018b90610a6a565b97610d6e90614cfe565b97610a40565b96610d7e90614cfe565b96610a13565b95610d8e90614cfe565b956109e6565b94610d9e90614cfe565b946109ba565b93610dae90614cfe565b9361098e565b92610dbe90614cfe565b92610962565b60019250610935565b60405163200db56f60e11b8152600490fd5b50346104fa5760203660031901126104fa576040610dfb614047565b91600080516020615672833981519152815280602052209060018060a01b0316600052602052602060ff604060002054166040519015158152f35b50346104fa57610e4536614374565b6000805160206155d2833981519152835282602052604083203360005260205260ff60406000205416156104e257610e7c82614d68565b158015610f7a575b610f585760095483916001600160a01b0391821691823b15610f5457610ef49284928360405180968195829463132a174d60e21b845216998a600484015260606024840152600a60648401526924b739b832b1ba34b7b760b11b608484015260a0604484015260a48301906141f1565b03925af1801561043e57610f40575b50506000805160206155f2833981519152608060405160408152600960408201526824b739b832b1ba37b960b91b6060820152426020820152a280f35b610f49906140c0565b61043a578138610f03565b8380fd5b604051631a599d5b60e01b815260206004820152806104d560248201856141f1565b50815115610e84565b50346104fa5760403660031901126104fa57610fc0600435610fa361405d565b9080845283602052610fbb600160408620015461457b565b614c6d565b5080f35b50346104fa5760203660031901126104fa57610fde614047565b6001600160a01b038116908115610dcd57610ff7614523565b611000816144e6565b6110615761100d90614853565b506000805160206155d283398151915282526004602052604082206110328154614cfe565b90557f49cc27c2a068c01cf703c3923dfc679109b5f6c27bd1f61b542c159e3a73e0926020604051428152a280f35b6040516314726de560e21b8152600490fd5b50346104fa5760203660031901126104fa5760043560008051602061563283398151915281148015611145575b801561112e575b8015611117575b8015611100575b80156110e9575b156110d7578160409160209352600483522054604051908152f35b604051636b9c461160e01b8152600490fd5b5060008051602061561283398151915281146110bc565b506000805160206155d283398151915281146110b5565b5060008051602061565283398151915281146110ae565b506000805160206155b283398151915281146110a7565b5060008051602061567283398151915281146110a0565b50346104fa5760203660031901126104fa576040611178614047565b9180805280602052209060018060a01b0316600052602052602060ff604060002054166040519015158152f35b50346104fa5760203660031901126104fa576004356001600160401b03811161043a576111d6903690600401614145565b805115801561125a575b611235576111ed81614ee3565b917f519db7059c719f6bb8d56c2768c9dcdcb55b2e489fdc3a585449acb3ad499e586040518061121f33948683614216565b0390a261123160405192839283614216565b0390f35b60405163788cb7c360e11b8152602060048201529081906104d59060248301906141f1565b5061126481614d68565b156111e0565b50346104fa5760203660031901126104fa576040611286614047565b91600080516020615612833981519152815280602052209060018060a01b0316600052602052602060ff604060002054166040519015158152f35b50346104fa57806003193601126104fa578060008051602061563283398151915260c09252600460205260408120549060008051602061567283398151915281526040812054906000805160206155b28339815191528152604081205460008051602061565283398151915282526040822054906000805160206155d28339815191528352604080842054936000805160206156128339815191528152205493604051958652602086015260408501526060840152608083015260a0820152f35b50346104fa5760203660031901126104fa5760406020916004358152600483522054604051908152f35b50346104fa5760203660031901126104fa57600435906001600160401b0382116104fa5760206113e76113e23660048601614145565b614d68565b6040519015158152f35b50346104fa57600319906020368301126104fa576004356001600160401b03811161043a57611424903690600401614145565b91600080516020615672833981519152825281602052604082203360005260205260ff60406000205416156104e25761145c83614d68565b15801561156a575b61154857600954919283926001600160a01b031691823b156115435760405163132a174d60e21b8152336004820152606060248201526008606482015267526566696e696e6760c01b608482015292849284928391859183916114d6919060a484015b918483030160448501526141f1565b03925af1801561043e5761152f575b50604051604081526000805160206155f283398151915261151f604083016040906008815267526566696e696e6760c01b60208201520190565b914260208201528033930390a280f35b611538906140c0565b6104fa5780386114e5565b505050fd5b604051631a599d5b60e01b815260206004820152806104d560248201866141f1565b50825115611464565b50346104fa5760203660031901126104fa57604061158f614047565b91600080516020615652833981519152815280602052209060018060a01b0316600052602052602060ff604060002054166040519015158152f35b50346104fa576115d936614374565b9060008051602061561283398151915283526020918383526040842033600052835260ff60406000205416156104e25761161282614d68565b1580156117ae575b6104b157600854604051632f581fdf60e21b8152600481018590528593926001600160a01b039283169186818061165460248201896141f1565b0381865afa9081156104a657869161177d575b50823b1561046c57604051632142170760e11b81523360048201526001600160a01b0392909216602483015260448201529084908290606490829084905af1908115610461578491611769575b505060095416803b156104495760405163132a174d60e21b8152336004820152606060248201526008606482015267507572636861736560c01b6084820152918391839182908490829061170b9060a483016103b5565b03925af1801561043e57611755575b50506000805160206155f283398151915260405160408152610417604082016040906008815267507572636861736560c01b60208201520190565b61175e906140c0565b61043a57813861171a565b611772906140c0565b6104495782386116b4565b809650878092503d83116117a7575b6117968183614109565b8101031261049a5786945138611667565b503d61178c565b5081511561161a565b50346104fa5760203660031901126104fa576117d1614047565b6001600160a01b038116908115610dcd576117ea614523565b6117f3816144a9565b61106157611800906147ca565b506000805160206155b283398151915282526004602052604082206118258154614cfe565b90557f964e50cb3bdb84c00a30f56ae15d538d23dc6db14f891d7d819761b161e990a66020604051428152a280f35b50346104fa57806003193601126104fa57602090604051908152f35b50346104fa5761187f3661418c565b611887614523565b611890826143f2565b156105ca576105a07f69e94e373f69f3f945457a07b335722310788af9cd459a33df6f72cc9e96404391600080516020615612833981519152808652856020526118e0600160408820015461457b565b61057685614a51565b50346104fa576118f836614331565b906000805160206155d2833981519152835260208381526040842033600052815260ff60406000205416156104e257604051600160ff600a85519385818189019661194481838a6141ce565b81016002815203019020015460b81c161515146119ca5791600a6119986119c4937f3a9eebd240f4c9f631531ebc672c4c040de483b868ccebe8a3a1fdad70cde0d9956040518093819287519283916141ce565b8101600281520301902001600160b81b60ff60b81b198254161790556040519182913395429184614cd0565b0390a280f35b506104d5604051928392636f5f944160e11b8452600484015260248301906141f1565b50346104fa5760403660031901126104fa576040611a0961405d565b91600435815280602052209060018060a01b0316600052602052602060ff604060002054166040519015158152f35b50346104fa5760031960203682011261043a576004356001600160401b03811161044957611a6a903690600401614145565b906000805160206156328339815191528352826020526040832033845260205260ff604084205416156104e257611aa082614d68565b158015611b5f575b610f58576009548391906001600160a01b0316803b156104495760405163132a174d60e21b81523360048201526060602482015260066064820152654d696e696e6760d01b6084820152938492839185918391611b09919060a484016114c7565b03925af1801561043e57611b50575b50604051604081526000805160206155f283398151915261151f6040830160409060068152654d696e696e6760d01b60208201520190565b611b59906140c0565b38611b18565b50815115611aa8565b50346104fa5760203660031901126104fa5760ff6040602092611b89614047565b6000805160206155d283398151915282528185528282206001600160a01b03909116825284522054604051911615158152f35b50346104fa5760208060031936011261043a576004356001600160401b03811161044957611bee903690600401614145565b604051815191611c24611c2b85830194611c098186886141ce565b8401938681600296878152030190206040519283809261429b565b0382614109565b8481519101208151908185201490811591611de1575b50611dcf578490611c5a604051948592519283916141ce565b83019284816003958681520301902091825490611c7682614d30565b94611c846040519687614109565b82865286860191829585528785209185935b858510611d4b57505050505050604051928484019085855251809152604084019460408260051b8601019392955b828710611cd15785850386f35b909192938280600192603f19898203018552875190611d20611d0e611cfe845160a08086528501906141f1565b85850151848203878601526141f1565b604084015183820360408501526141f1565b916060868060a01b038183015116908301526080809101519101529601920196019592919092611cc4565b60058a60019260409c9b999c51611d61816140a5565b604051611d7281611c24818c61429b565b8152604051611d8781611c2481898d0161429b565b83820152604051611d9e81611c24818b8d0161429b565b6040820152848060a01b03868901541660608201526004880154608082015281520194019401939298959798611c96565b6040516329d7b10b60e11b8152600490fd5b90501538611c41565b50346104fa57611df936614331565b906000805160206156728339815191528352602083815260408420338552815260ff604085205416156104e257604051600160ff600a855193858181890196611e4381838a6141ce565b81016002815203019020015460a81c16151514611ec35791600a611e976119c4937fa214f45af6d86b0d5ff7bb48f888cf4205e4a383da35fcbebfdbd9bd8e6d5a7c956040518093819287519283916141ce565b8101600281520301902001600160a81b60ff60a81b198254161790556040519182913395429184614cd0565b506104d560405192839263701203b760e01b8452600484015260248301906141f1565b50346104fa57611ef53661418c565b611efd614523565b611f06826144a9565b156105ca576105a07f71577b91708c73ee54b43c6709958ff42e4bcc084910648ce7c3d16928b51d52916000805160206155b283398151915280865285602052611f56600160408820015461457b565b610576856149ca565b50346104fa57806003193601126104fa5760206040516000805160206156128339815191528152f35b50346104fa57806003193601126104fa5760206040516000805160206156728339815191528152f35b50346104fa5760208060031936011261043a576004356001600160401b038111610449576040611fe760ff923690600401614145565b938080528084528181203382528452205416156104e257604051611c2461203184519284818188019561201b8183896141ce565b810160028152030190206040519283809261429b565b828151910120835190818320149081159161218c575b50611dcf5760ff600a604051848187516120628183896141ce565b81016002815203019020015460b01c1680612160575b1561213d579060ff600a61211e83604096958751606081527f10f4ba4c7bb6f0c442f54585004a6e24440bea5c2d2e6f36b688e3e624762e226120be606083018a6141f1565b916b54726164696e67526561647960a01b85828503948582850152600c81520152428b8201528a33930190a28484895184818b516120fd8183896141ce565b81016002815203019020015460b01c169688519384928392519283916141ce565b81016002815203019020015460b81c1683519215158352151590820152f35b506104d56040519283926348cddbdb60e11b8452600484015260248301906141f1565b5060ff600a604051848187516121778183896141ce565b81016002815203019020015460b81c16612078565b90501538612047565b50346104fa5760203660031901126104fa5760ff60406020926121b6614047565b6000805160206155b283398151915282528185528282206001600160a01b03909116825284522054604051911615158152f35b50346104fa57806003193601126104fa5760206040516000805160206156528339815191528152f35b50346104fa57806003193601126104fa5760206040516000805160206156328339815191528152f35b50346104fa5760203660031901126104fa57612255614047565b6001600160a01b038116908115610dcd5761226e614523565b6122778161446c565b6110615761228490614741565b5060008051602061567283398151915282526004602052604082206122a98154614cfe565b90557f4e3eede475de92d3e23765b737dbb67646352b3328c1a437d7f089766d7be7516020604051428152a280f35b50346104fa5760203660031901126104fa57600435906001600160401b0382116104fa575061230b903690600401614145565b6040518181809351602081930191612322926141ce565b8101600281520360200190206040518061233c818461429b565b036123479082614109565b6040519182612359816001840161429b565b036123649084614109565b60405180612375816002850161429b565b036123809082614109565b6040519182612392816003840161429b565b0361239d9084614109565b600481015460058201546040519491856123ba816006870161429b565b036123c59087614109565b60078401546040516001600160a01b03979093918816929091846123ec8160088a0161429b565b036123f79086614109565b60405195866124098160098b0161429b565b036124149088614109565b600a88015497600b0154986040519c8d9c8d6102009081815201612437916141f1565b8d810360208f0152612448916141f1565b8c810360408e0152612459916141f1565b8b810360608d015261246a916141f1565b9160808b015260a08a015288810360c08a0152612486916141f1565b9060e088015286810361010088015261249e916141f1565b8581036101208701526124b0916141f1565b9281166101408501528060a01c60ff1615156101608501528060a81c60ff1615156101808501528060b01c60ff1615156101a085015260b81c60ff1615156101c08401526101e08301520390f35b50346104fa57806003193601126104fa5760206040516000805160206155b28339815191528152f35b50346104fa5761253636614331565b906000805160206156528339815191528352602083815260408420338552815260ff604085205416156104e257604051600160ff600a85519385818189019661258081838a6141ce565b81016002815203019020015460b01c161515146126005791600a6125d46119c4937fa9de1934279a83f8cfaaecf6a7002ac10aeaea244c8c763f3752f3fc4c3e631d956040518093819287519283916141ce565b8101600281520301902001600160b01b60ff60b01b198254161790556040519182913395429184614cd0565b506104d560405192839263c817400d60e01b8452600484015260248301906141f1565b50346104fa5760203660031901126104fa5761263d614047565b6001600160a01b038116908115610dcd57612656614523565b61265f8161442f565b6110615761266c906146b8565b5060008051602061565283398151915282526004602052604082206126918154614cfe565b90557f4a02edd19f09212e54b2ac85d7d3a4a2e3fbf424e6710c3f817d9b4cecc9cdb36020604051428152a280f35b50346104fa5760c03660031901126104fa576004356001600160401b03811161043a576126f1903690600401614145565b6024356001600160401b03811161044957612710903690600401614145565b906064356001600160401b038111610f5457612730903690600401614145565b60a4356001600160401b0381116108445761274f903690600401614145565b926000805160206156328339815191528552846020526040852033865260205260ff604086205416156104e2578251156138c257815115610820578051156138b0576044351561389e57608435158015613892575b613880576050608435111561386657835115613854576001546127c681614cfe565b60015560405161280c607482602081019486516127e7818860208b016141ce565b8201903360601b60208301524260348301526054820152036054810184520182614109565b519020936040519461281d866140d3565b600a86526020368188013785511561384057603060208701538551600110156138405760786021870153865b6004811061378557505061289e602160405180978551612870816020850160208a016141ce565b8201602d60f81b602082015261288f82518093602087850191016141ce565b01036001810188520186614109565b604051906128ab82614073565b858252846020830152836040830152826060830152604435608083015260843560a083015260c08201523360e08201526040516128e7816140d3565b600381526252617760e81b6020820152610100820152604051612909816140d3565b600d81526c26b4b734b7339021b2b73a32b960991b6020820152610120820152336101408201528561016082015285610180820152856101a0820152856101c0820152426101e082015260405160208187516129688183858c016141ce565b810160028152030190209080518051906001600160401b0382116131135781906129928554614261565b601f8111613738575b50602090601f83116001146136cf578a926136c4575b50508160011b916000199060031b1c19161782555b60208101518051906001600160401b0382116131135781906129eb6001860154614261565b601f8111613674575b50602090601f8311600114613605578a926135fa575b50508160011b916000199060031b1c19161760018301555b60408101518051906001600160401b038211613113578190612a476002860154614261565b601f81116135aa575b50602090601f831160011461353b578a92613530575b50508160011b916000199060031b1c19161760028301555b60608101518051906001600160401b038211613113578190612aa36003860154614261565b601f81116134e0575b50602090601f8311600114613471578a92613466575b50508160011b916000199060031b1c19161760038301555b6080810151600483015560a0810151600583015560c08101518051906001600160401b038211613113578190612b136006860154614261565b601f8111613416575b50602090601f83116001146133a7578a9261339c575b50508160011b916000199060031b1c19161760068301555b60e08101516007830180546001600160a01b0319166001600160a01b03929092169190911790556101008101518051906001600160401b038211613113578190612b976008860154614261565b601f811161334c575b50602090601f83116001146132dd578a926132d2575b50508160011b916000199060031b1c19161760088301555b6101208101518051906001600160401b03821161311357612bf26009850154614261565b601f811161328e575b50602090601f831160011461321b579180600b94926101e0948c92613210575b50508160011b916000199060031b1c19161760098501555b600a840160018060a01b036101408301511681549060ff60a01b610160850151151560a01b1660ff60a81b610180860151151560a81b169060ff60b01b6101a0870151151560b01b169260ff60b81b6101c0880151151560b81b16946001600160401b0360c01b161717171717905501519101556040516020818651612cbc8183858b016141ce565b810160038152030190206040519067027b934b3b4b71d160c51b6020830152612d036028838651612cf38184840160208b016141ce565b8101036008810185520183614109565b60405191612d10836140a5565b868352604051612d1f816140d3565b600a815269149959da5cdd195c995960b21b602082015260208401526040830152336060830152426080830152805490680100000000000000008210156131fc5790612d709160018201815561422f565b9190916131e85780518051906001600160401b038211613113578190612d968554614261565b601f811161319b575b50602090601f8311600114613132578a92613127575b50508160011b916000199060031b1c19161782555b60208101518051906001600160401b038211613113578190612def6001860154614261565b601f81116130c3575b50602090601f8311600114613054578a92613049575b50508160011b916000199060031b1c19161760018301555b6040810151968751906001600160401b03821161303557612e4a6002850154614261565b601f8111612ff1575b50602090601f8311600114612f535760806107ce9484612f1798957f73c819068ba25b88a32cb91f9b552ab50d9cccb7c4abdeb2a04f44373b7153939a98956112319e60049692612f48575b50508160011b916000199060031b1c19161760028501555b6003840160018060a01b036060830151166bffffffffffffffffffffffff60a01b8254161790550151910155612f096040519660e08852612efb60e089018a6141f1565b9088820360208a01526141f1565b9086820360408801526141f1565b91604435608082015260843560a08201524260c08201528033930390a26040519182916020835260208301906141f1565b015190503880612e9f565b98600285018a5260208a20995b601f1984168110612fd9575060806107ce946001856112319d7f73c819068ba25b88a32cb91f9b552ab50d9cccb7c4abdeb2a04f44373b7153939b9996600496612f179c99601f19811610612fc0575b505050811b016002850155612eb7565b015160001960f88460031b161c19169055388080612fb0565b828201518b556001909a019960209283019201612f60565b60028501825260208220601f840160051c81016020851061302e575b601f830160051c82018110613023575050612e53565b83815560010161300d565b508061300d565b634e487b7160e01b81526041600452602490fd5b015190503880612e0e565b9250600185018a5260208a20908a935b601f19841685106130a8576001945083601f1981161061308f575b505050811b016001830155612e26565b015160001960f88460031b161c1916905538808061307f565b81810151835560209485019460019093019290910190613064565b909150600185018a5260208a20601f840160051c81016020851061310c575b90849392915b601f830160051c820181106130fe575050612df8565b8c81558594506001016130e8565b50806130e2565b634e487b7160e01b89526041600452602489fd5b015190503880612db5565b9250848a5260208a20908a935b601f1984168510613180576001945083601f19811610613167575b505050811b018255612dca565b015160001960f88460031b161c1916905538808061315a565b8181015183556020948501946001909301929091019061313f565b909150848a5260208a20601f840160051c8101602085106131e1575b90849392915b601f830160051c820181106131d3575050612d9f565b8c81558594506001016131bd565b50806131b7565b634e487b7160e01b87526004879052602487fd5b634e487b7160e01b88526041600452602488fd5b015190503880612c1b565b90600985018a5260208a20918a5b601f1985168110613276575092600b94926001926101e09583601f1981161061325d575b505050811b016009850155612c33565b015160001960f88460031b161c1916905538808061324d565b91926020600181928685015181550194019201613229565b600985018a5260208a20601f840160051c8101602085106132cb575b601f830160051c820181106132c0575050612bfb565b8b81556001016132aa565b50806132aa565b015190503880612bb6565b9250600885018a5260208a20908a935b601f1984168510613331576001945083601f19811610613318575b505050811b016008830155612bce565b015160001960f88460031b161c19169055388080613308565b818101518355602094850194600190930192909101906132ed565b909150600885018a5260208a20601f840160051c810160208510613395575b90849392915b601f830160051c82018110613387575050612ba0565b8c8155859450600101613371565b508061336b565b015190503880612b32565b9250600685018a5260208a20908a935b601f19841685106133fb576001945083601f198116106133e2575b505050811b016006830155612b4a565b015160001960f88460031b161c191690553880806133d2565b818101518355602094850194600190930192909101906133b7565b909150600685018a5260208a20601f840160051c81016020851061345f575b90849392915b601f830160051c82018110613451575050612b1c565b8c815585945060010161343b565b5080613435565b015190503880612ac2565b9250600385018a5260208a20908a935b601f19841685106134c5576001945083601f198116106134ac575b505050811b016003830155612ada565b015160001960f88460031b161c1916905538808061349c565b81810151835560209485019460019093019290910190613481565b909150600385018a5260208a20601f840160051c810160208510613529575b90849392915b601f830160051c8201811061351b575050612aac565b8c8155859450600101613505565b50806134ff565b015190503880612a66565b9250600285018a5260208a20908a935b601f198416851061358f576001945083601f19811610613576575b505050811b016002830155612a7e565b015160001960f88460031b161c19169055388080613566565b8181015183556020948501946001909301929091019061354b565b909150600285018a5260208a20601f840160051c8101602085106135f3575b90849392915b601f830160051c820181106135e5575050612a50565b8c81558594506001016135cf565b50806135c9565b015190503880612a0a565b9250600185018a5260208a20908a935b601f1984168510613659576001945083601f19811610613640575b505050811b016001830155612a22565b015160001960f88460031b161c19169055388080613630565b81810151835560209485019460019093019290910190613615565b909150600185018a5260208a20601f840160051c8101602085106136bd575b90849392915b601f830160051c820181106136af5750506129f4565b8c8155859450600101613699565b5080613693565b0151905038806129b1565b9250848a5260208a20908a935b601f198416851061371d576001945083601f19811610613704575b505050811b0182556129c6565b015160001960f88460031b161c191690553880806136f7565b818101518355602094850194600190930192909101906136dc565b909150848a5260208a20601f840160051c81016020851061377e575b90849392915b601f830160051c8201811061377057505061299b565b8c815585945060010161375a565b5080613754565b602081101561382c5781811a600f6137a1818360041c16614dff565b918360011b926002908585048214861517156138185784820180921161381857906137d46137db9493928e1a918d614dee565b5316614dff565b600391820180921161380457906137f96137ff93928b1a918a614dee565b53614cfe565b612849565b634e487b7160e01b8a52601160045260248afd5b634e487b7160e01b8d52601160045260248dfd5b634e487b7160e01b88526032600452602488fd5b634e487b7160e01b87526032600452602487fd5b60405163bfccc8e960e01b8152600490fd5b60405163d05db01960e01b81526084356004820152602490fd5b604051633abe7db760e21b8152600490fd5b506064608435116127a4565b60405163fd83f8d960e01b8152600490fd5b60405163a765e58f60e01b8152600490fd5b604051630ac6e45360e31b8152600490fd5b50346104fa5760403660031901126104fa576138ee61405d565b336001600160a01b0382160361390a57610fc090600435614c6d565b60405163334bd91960e11b8152600490fd5b50346104fa5760403660031901126104fa576004356001600160401b03811161043a5761394d903690600401614145565b9061396a60206024359381604051938285809451938492016141ce565b810160038152030190209081548310156104fa576139fa61398b848461422f565b50604051906139a58261399e818461429b565b0383614109565b6040516139b981611c24816001860161429b565b613a166040516139d081611c24816002880161429b565b613a08600460018060a01b036003870154169501549360405197889760a0895260a08901906141f1565b9087820360208901526141f1565b9085820360408701526141f1565b91606084015260808301520390f35b50346104fa5760203660031901126104fa5760ff6040602092613a46614047565b60008051602061563283398151915282528185528282206001600160a01b03909116825284522054604051911615158152f35b50346104fa5760203660031901126104fa57600435906001600160401b0382116104fa57613ab2613aad3660048501614145565b614ee3565b9061123160405192839283614216565b50346104fa57613ad13661418c565b613ad9614523565b613ae2826143b5565b156105ca576105a07f125f88db22967983b401f70f6804d47f43cb545fcb725d0b335fe7d43d9b4a4a9160008051602061563283398151915280865285602052613b32600160408820015461457b565b61057685614943565b50346104fa5760403660031901126104fa57610fc0600435613b5b61405d565b9080845283602052613b73600160408620015461457b565b6148dc565b50346104fa5760203660031901126104fa57600160406020926004358152808452200154604051908152f35b50346104fa5760208060031936011261043a576004356001600160401b03811161044957613bd6903690600401614145565b600080516020615612833981519152835282825260408320338452825260ff80604085205416156104e2576040519082519084840191613c178185856141ce565b8301906001816002938481528689600a98899303019020015460a01c16151514613e965786805286865260408720338852865280604088205416156104e257611c24613c8360405188818951613c6e81838b6141ce565b8101878152030190206040519283809261429b565b8681519101208551908185201490811591613e8d575b50611dcf57808460405188818951613cb281838b6141ce565b810187815203019020015460b01c1680613e64575b15613e4257604051606081527f10f4ba4c7bb6f0c442f54585004a6e24440bea5c2d2e6f36b688e3e624762e22613d0160608301886141f1565b916b54726164696e67526561647960a01b89828503948582850152600c81520152426040820152604033930190a2808460405188818951613d4381838b6141ce565b810187815203019020015460b01c16908460405188818951613d6681838b6141ce565b810187815203019020015460b81c1681613e3a575b5015613e1857848392613dea927ffed1001c142a7ab386454a2f7d78b013ba7ff40595d10c128f2fb6463ccd7b7a969560405184818951613dbd8183896141ce565b81018581520301902001805460ff60a01b1916600160a01b179055604051865190948593829085906141ce565b8201908152030190200180546001600160a01b031916331790556040805181815291610417918301906141f1565b6040516348cddbdb60e11b815260048101869052806104d560248201876141f1565b905038613d7b565b6040516348cddbdb60e11b815260048101879052806104d560248201886141f1565b50808460405188818951613e7981838b6141ce565b810187815203019020015460b81c16613cc7565b90501538613c99565b604051632072bb0160e11b815260048101879052806104d560248201886141f1565b50346104fa5760203660031901126104fa57613ed2614047565b6001600160a01b038116908115610dcd57613eeb614523565b613ef4816143f2565b61106157613f019061462f565b506000805160206156128339815191528252600460205260408220613f268154614cfe565b90557ff8ed9ac482b0f7c12999b3f157f758f84e39cd339fa301ea203823ac29e975056020604051428152a280f35b50346104fa5760203660031901126104fa57613f6f614047565b6001600160a01b038116908115610dcd57613f88614523565b613f91816143b5565b61106157613f9e906145a1565b506000805160206156328339815191528252600460205260408220613fc38154614cfe565b90557f593f046317558c2857b92915c62c99f2d2108f7bc6f1e1b3c5376cd559abf5596020604051428152a280f35b90503461043a57602036600319011261043a5760043563ffffffff60e01b81168091036104495760209250637965db0b60e01b8114908115614036575b5015158152f35b6301ffc9a760e01b1490503861402f565b600435906001600160a01b038216820361049a57565b602435906001600160a01b038216820361049a57565b61020081019081106001600160401b0382111761408f57604052565b634e487b7160e01b600052604160045260246000fd5b60a081019081106001600160401b0382111761408f57604052565b6001600160401b03811161408f57604052565b604081019081106001600160401b0382111761408f57604052565b606081019081106001600160401b0382111761408f57604052565b90601f801991011681019081106001600160401b0382111761408f57604052565b6001600160401b03811161408f57601f01601f191660200190565b81601f8201121561049a5780359061415c8261412a565b9261416a6040519485614109565b8284526020838301011161049a57816000926020809301838601378301015290565b90604060031983011261049a576004356001600160a01b038116810361049a5791602435906001600160401b03821161049a576141cb91600401614145565b90565b60005b8381106141e15750506000910152565b81810151838201526020016141d1565b9060209161420a815180928185528580860191016141ce565b601f01601f1916010190565b6040906141cb93921515815281602082015201906141f1565b805482101561424b576000526005602060002091020190600090565b634e487b7160e01b600052603260045260246000fd5b90600182811c92168015614291575b602083101461427b57565b634e487b7160e01b600052602260045260246000fd5b91607f1691614270565b90600092918054916142ac83614261565b91828252600193848116908160001461430e57506001146142ce575b50505050565b90919394506000526020928360002092846000945b8386106142fa5750505050010190388080806142c8565b8054858701830152940193859082016142e3565b9294505050602093945060ff191683830152151560051b010190388080806142c8565b90604060031983011261049a576001600160401b0360043581811161049a578361435d91600401614145565b9260243591821161049a576141cb91600401614145565b604060031982011261049a57600435906001600160401b03821161049a5761439e91600401614145565b906024356001600160a01b038116810361049a5790565b6001600160a01b031660009081527fbb3fcc25fbffa12ea463b3505377899a4d5ddb4858b9c7bd36764686d9425b36602052604090205460ff1690565b6001600160a01b031660009081527ff3fa603c74bfe2a4719960e47343678c3dc690d2b27a2295acc6fc430833aaf9602052604090205460ff1690565b6001600160a01b031660009081527f0d2d6a5d08cb5d871289c0a3ca855d9da72909a111c24cce2d5c2b34a20daa54602052604090205460ff1690565b6001600160a01b031660009081527f4130a4caca6023b0ba21488ee680ce5c3df22860b1cd8b02cd2a0bcb0de98851602052604090205460ff1690565b6001600160a01b031660009081527fbce5fd3347e0dc338dcc0e895534dd4af2740eec95f56cd4ca4b4b2ada357ca0602052604090205460ff1690565b6001600160a01b031660009081527facfff8a39fb957d9d1c8e3ef9f08385e3fcf7bb23ab7ba0ad0f8df93dbde6a68602052604090205460ff1690565b3360009081527fad3228b676f7d3cd4284a5443f17f1962b36e491b30a40b2405849e597ba5fb5602052604081205460ff161561455d5750565b6044906040519063e2517d3f60e01b82523360048301526024820152fd5b80600052600060205260406000203360005260205260ff604060002054161561455d5750565b6001600160a01b031660008181527fbb3fcc25fbffa12ea463b3505377899a4d5ddb4858b9c7bd36764686d9425b3660205260408120549091906000805160206156328339815191529060ff1661462a57808352826020526040832082845260205260408320600160ff19825416179055600080516020615592833981519152339380a4600190565b505090565b6001600160a01b031660008181527ff3fa603c74bfe2a4719960e47343678c3dc690d2b27a2295acc6fc430833aaf960205260408120549091906000805160206156128339815191529060ff1661462a57808352826020526040832082845260205260408320600160ff19825416179055600080516020615592833981519152339380a4600190565b6001600160a01b031660008181527f0d2d6a5d08cb5d871289c0a3ca855d9da72909a111c24cce2d5c2b34a20daa5460205260408120549091906000805160206156528339815191529060ff1661462a57808352826020526040832082845260205260408320600160ff19825416179055600080516020615592833981519152339380a4600190565b6001600160a01b031660008181527f4130a4caca6023b0ba21488ee680ce5c3df22860b1cd8b02cd2a0bcb0de9885160205260408120549091906000805160206156728339815191529060ff1661462a57808352826020526040832082845260205260408320600160ff19825416179055600080516020615592833981519152339380a4600190565b6001600160a01b031660008181527fbce5fd3347e0dc338dcc0e895534dd4af2740eec95f56cd4ca4b4b2ada357ca060205260408120549091906000805160206155b28339815191529060ff1661462a57808352826020526040832082845260205260408320600160ff19825416179055600080516020615592833981519152339380a4600190565b6001600160a01b031660008181527facfff8a39fb957d9d1c8e3ef9f08385e3fcf7bb23ab7ba0ad0f8df93dbde6a6860205260408120549091906000805160206155d28339815191529060ff1661462a57808352826020526040832082845260205260408320600160ff19825416179055600080516020615592833981519152339380a4600190565b9060009180835282602052604083209160018060a01b03169182845260205260ff6040842054161560001461462a57808352826020526040832082845260205260408320600160ff19825416179055600080516020615592833981519152339380a4600190565b6001600160a01b031660008181527fbb3fcc25fbffa12ea463b3505377899a4d5ddb4858b9c7bd36764686d9425b3660205260408120549091906000805160206156328339815191529060ff161561462a5780835282602052604083208284526020526040832060ff198154169055600080516020615692833981519152339380a4600190565b6001600160a01b031660008181527fbce5fd3347e0dc338dcc0e895534dd4af2740eec95f56cd4ca4b4b2ada357ca060205260408120549091906000805160206155b28339815191529060ff161561462a5780835282602052604083208284526020526040832060ff198154169055600080516020615692833981519152339380a4600190565b6001600160a01b031660008181527ff3fa603c74bfe2a4719960e47343678c3dc690d2b27a2295acc6fc430833aaf960205260408120549091906000805160206156128339815191529060ff161561462a5780835282602052604083208284526020526040832060ff198154169055600080516020615692833981519152339380a4600190565b6001600160a01b031660008181527facfff8a39fb957d9d1c8e3ef9f08385e3fcf7bb23ab7ba0ad0f8df93dbde6a6860205260408120549091906000805160206155d28339815191529060ff161561462a5780835282602052604083208284526020526040832060ff198154169055600080516020615692833981519152339380a4600190565b6001600160a01b031660008181527f4130a4caca6023b0ba21488ee680ce5c3df22860b1cd8b02cd2a0bcb0de9885160205260408120549091906000805160206156728339815191529060ff161561462a5780835282602052604083208284526020526040832060ff198154169055600080516020615692833981519152339380a4600190565b6001600160a01b031660008181527f0d2d6a5d08cb5d871289c0a3ca855d9da72909a111c24cce2d5c2b34a20daa5460205260408120549091906000805160206156528339815191529060ff161561462a5780835282602052604083208284526020526040832060ff198154169055600080516020615692833981519152339380a4600190565b9060009180835282602052604083209160018060a01b03169182845260205260ff60408420541660001461462a5780835282602052604083208284526020526040832060ff198154169055600080516020615692833981519152339380a4600190565b939291614cf990614ceb6040936060885260608801906141f1565b9086820360208801526141f1565b930152565b6000198114614d0d5760010190565b634e487b7160e01b600052601160045260246000fd5b8015614d0d576000190190565b6001600160401b03811161408f5760051b60200190565b80511561424b5760200190565b805182101561424b5760209160051b010190565b805115614dc957604051611c24614d8d8351926020818187019561201b8183896141ce565b60208151910120908251902003614da45750600190565b6040516311bb0bc960e31b8152602060048201529081906104d59060248301906141f1565b60405163f855236d60e01b8152602060048201529081906104d59060248301906141f1565b90815181101561424b570160200190565b60009060ff16600a811015614e2b57603091500160ff8111614d0d5760f81b6001600160f81b03191690565b60610160ff8111614e6c5760ff6009199116019060ff8211614e58575060f81b6001600160f81b03191690565b634e487b7160e01b81526011600452602490fd5b634e487b7160e01b82526011600452602482fd5b81601f8201121561049a578051614e968161412a565b92614ea46040519485614109565b8184526020828401011161049a576141cb91602080850191016141ce565b51906001600160a01b038216820361049a57565b5190811515820361049a57565b60065460405163a672d98760e01b815260206004820152906001600160a01b031660008280614f1560248201876141f1565b0381845afa91821561531d576000926153ee575b5060408051631d68ac3560e21b81526020600482015291829081600081614f53602482018a6141f1565b03925af190811561531d576000906000926153a6575b50156153675715615329576000614fa89260018060a01b03600954166040518080968194630fe7932160e31b83526020600484015260248301906141f1565b03915afa91821561531d57600092615187575b5081511561512e5761014081015182516001600160a01b0390911692815b61508c57505060e001516001600160a01b0390811691160361502a57600190604051615004816140d3565b6016815275537570706c79636861696e2069732056616c6964212160501b602082015290565b600090604051615039816140ee565b603f81527f4f776e65727368697020636861696e20646f6573206e6f74206c65616420626160208201527f636b20746f20746865206f726967696e616c2072656769737472616e74212100604082015290565b90926000198401848111614d0d576150a49083614d54565b51604081015190916001600160a01b039182169116036150dc57602001516001600160a01b0316926150d590614d23565b9081614fd9565b505050506000906040516150ef816140ee565b602981527f496e76616c6964206f776e65727368697020636861696e20696e207472616e73602082015268616374696f6e73212160b81b604082015290565b505060009060405161513f816140ee565b603281527f4e6f207472616e73616374696f6e20686973746f727920666f756e6420666f72602082015271081cdc1958da599a5959081b5a5b995c985b60721b604082015290565b9091503d806000833e61519a8183614109565b602082828101031261049a5781516001600160401b03811161049a57818301601f82850101121561049a5780830151906151d382614d30565b936151e16040519586614109565b828552602085019084810160208560051b85840101011161049a57602083820101915b60208560051b85840101018310615222575050505050509038614fbb565b8251906001600160401b03821161049a5760c0838601830188850103601f19011261049a57604051918260c08101106001600160401b0360c08501111761408f5760c0830160409081528487018201602081015185526152829101614ec2565b60208401526152976060828887010101614ec2565b60408401526080818786010101516001600160401b03811161049a576152c99060208a870191848a8901010101614e80565b6060840152838601810160a0810151608085015260c00151916001600160401b03831161049a5760209361530b8594938580958d8a01928c8b01010101614e80565b60a08201528152019301929050615204565b6040513d6000823e3d90fd5b505060009060405161533a816140d3565b601a81527f4d696e6572616c206973206e6f7420696e737065637465642121000000000000602082015290565b505050600090604051615379816140d3565b601881527f4d696e6572616c206973206e6f74206175646974656421210000000000000000602082015290565b9150506040813d6040116153e6575b816153c260409383614109565b8101031261049a576153df60206153d883614ed6565b9201614ed6565b9038614f69565b3d91506153b5565b9091503d806000833e6154018183614109565b810160208282031261049a5781516001600160401b039283821161049a5701906102008282031261049a576040519261543984614073565b825181811161049a578261544e918501614e80565b8452602083015181811161049a5782615468918501614e80565b6020850152604083015181811161049a5782615485918501614e80565b6040850152606083015181811161049a57826154a2918501614e80565b60608501526080830151608085015260a083015160a085015260c083015181811161049a57826154d3918501614e80565b60c08501526154e460e08401614ec2565b60e08501526101008084015182811161049a5783615503918601614e80565b90850152610120918284015191821161049a57615521918401614e80565b90830152610140615533818301614ec2565b90830152610160615545818301614ed6565b90830152610180615557818301614ed6565b908301526101a0615569818301614ed6565b908301526101c061557b818301614ed6565b908301526101e080910151908201529038614f2956fe2f8788117e7eff1d82e926ec794901d17c78024a50270940304540a733656f0dddaa901e2fe3bda354fe0ede2785152d5c109282a613fe024a056a3e66c41bb3273dcf2136c7d8ef632bb8ef13dbca69a8f36fa620c7468671b3153d46a211c0e79ff94798edc2ecc7df6ab28cddd17159206249cadadb34568ee57ca9ee4e35f8cd32ed93fc2f9fc78152a14807c9609af3d99c5fe4dc6b106a801aaddfe90ea952726ef2588ad078edf35b066f7c7406e207cb0003bbaba8cb53eba9553e7259a1c48e5837ad7a7f3dcedcbe129bf3249ec4fbf651fd4f5e2600ead39fe2f5a977e1a3444218ff332edf735c56487bbe59922b15c88777d443eb8b78020f4df6391f5c32d9c69d2a47ea670b442974b53935d1edc7fd64eb21e047a839171ba2646970667358221220bb62caf8d0a67cb69be43723b61c4d22d7b658238378acf5bb7b9ee00ec9262264736f6c634300081400332f8788117e7eff1d82e926ec794901d17c78024a50270940304540a733656f0dddaa901e2fe3bda354fe0ede2785152d5c109282a613fe024a056a3e66c41bb3273dcf2136c7d8ef632bb8ef13dbca69a8f36fa620c7468671b3153d46a211c0f8cd32ed93fc2f9fc78152a14807c9609af3d99c5fe4dc6b106a801aaddfe90ea977e1a3444218ff332edf735c56487bbe59922b15c88777d443eb8b78020f4d",
  "linkReferences": {},
  "deployedLinkReferences": {}
}