{
  "address": "0x7FC260d65d9EA702fe1B8609827ABeaa8F942Cd9",
  "abi": [
    {
      "inputs": [],
      "name": "AccessControlBadConfirmation",
      "type": "error"
    },
    {
      "inputs": [
        {
          "internalType": "address",
          "name": "account",
          "type": "address"
        },
        {
          "internalType": "bytes32",
          "name": "neededRole",
          "type": "bytes32"
        }
      ],
      "name": "AccessControlUnauthorizedAccount",
      "type": "error"
    },
    {
      "inputs": [
        {
          "internalType": "address",
          "name": "caller",
          "type": "address"
        },
        {
          "internalType": "bytes32",
          "name": "role",
          "type": "bytes32"
        }
      ],
      "name": "AddressDoesNotHaveRequiredRole",
      "type": "error"
    },
    {
      "inputs": [
        {
          "internalType": "address",
          "name": "caller",
          "type": "address"
        }
      ],
      "name": "DisputeResolution__AlreadyVoted",
      "type": "error"
    },
    {
      "inputs": [
        {
          "internalType": "uint256",
          "name": "disputeId",
          "type": "uint256"
        }
      ],
      "name": "DisputeResolution__DisputeEscalated_UnableToVote",
      "type": "error"
    },
    {
      "inputs": [
        {
          "internalType": "uint256",
          "name": "disputeId",
          "type": "uint256"
        }
      ],
      "name": "DisputeResolution__DisputeNotEscalated",
      "type": "error"
    },
    {
      "inputs": [
        {
          "internalType": "uint256",
          "name": "disputeId",
          "type": "uint256"
        }
      ],
      "name": "DisputeResolution__DisputeStatusNotPending",
      "type": "error"
    },
    {
      "inputs": [],
      "name": "DisputeResolution__DisputeStatusNotPendingOrEscalated",
      "type": "error"
    },
    {
      "inputs": [],
      "name": "DisputeResolution__InvalidDisputeDefendantAddress",
      "type": "error"
    },
    {
      "inputs": [],
      "name": "DisputeResolution__InvalidDisputeDetails",
      "type": "error"
    },
    {
      "inputs": [],
      "name": "DisputeResolution__InvalidDisputeEvidence",
      "type": "error"
    },
    {
      "inputs": [],
      "name": "DisputeResolution__InvalidDisputeIdOrNotFound",
      "type": "error"
    },
    {
      "inputs": [],
      "name": "DisputeResolution__InvalidMineralIdOrNotFound",
      "type": "error"
    },
    {
      "inputs": [],
      "name": "DisputeResolution__InvalidResolutionDetails",
      "type": "error"
    },
    {
      "inputs": [
        {
          "internalType": "address",
          "name": "caller",
          "type": "address"
        }
      ],
      "name": "DisputeResolution__NotEligibleToVote",
      "type": "error"
    },
    {
      "inputs": [],
      "name": "DisputeResolution__VotingPeriodStillActive",
      "type": "error"
    },
    {
      "inputs": [
        {
          "internalType": "address",
          "name": "token",
          "type": "address"
        },
        {
          "internalType": "uint256",
          "name": "tokenAmount",
          "type": "uint256"
        }
      ],
      "name": "ERC20TokenTransferFailed",
      "type": "error"
    },
    {
      "inputs": [
        {
          "internalType": "address",
          "name": "caller",
          "type": "address"
        }
      ],
      "name": "InsufficientPermissionsToPerformAction",
      "type": "error"
    },
    {
      "inputs": [],
      "name": "InvalidAccountAddress",
      "type": "error"
    },
    {
      "inputs": [
        {
          "internalType": "string",
          "name": "mineralId",
          "type": "string"
        }
      ],
      "name": "InvalidMineralIdOrNotFound",
      "type": "error"
    },
    {
      "inputs": [],
      "name": "InvalidPaymentMethods",
      "type": "error"
    },
    {
      "inputs": [
        {
          "internalType": "string",
          "name": "currentStatus",
          "type": "string"
        },
        {
          "internalType": "string",
          "name": "attemptedStatus",
          "type": "string"
        }
      ],
      "name": "InvalidTransportStateTransition",
      "type": "error"
    },
    {
      "inputs": [
        {
          "internalType": "string",
          "name": "mineralId",
          "type": "string"
        }
      ],
      "name": "MineralNotMarketReady",
      "type": "error"
    },
    {
      "inputs": [
        {
          "internalType": "string",
          "name": "mineralId",
          "type": "string"
        }
      ],
      "name": "MineralNotReadyToTrade",
      "type": "error"
    },
    {
      "inputs": [],
      "name": "MineralRegistry__InvalidMineralDestination",
      "type": "error"
    },
    {
      "inputs": [],
      "name": "MineralRegistry__InvalidMineralDetails",
      "type": "error"
    },
    {
      "inputs": [
        {
          "internalType": "string",
          "name": "mineralId",
          "type": "string"
        }
      ],
      "name": "MineralRegistry__InvalidMineralIdOrNotFound",
      "type": "error"
    },
    {
      "inputs": [],
      "name": "MineralRegistry__InvalidMineralLocation",
      "type": "error"
    },
    {
      "inputs": [],
      "name": "MineralRegistry__InvalidMineralName",
      "type": "error"
    },
    {
      "inputs": [],
      "name": "MineralRegistry__InvalidMineralOrigin",
      "type": "error"
    },
    {
      "inputs": [],
      "name": "MineralRegistry__InvalidMineralPurityPercentage",
      "type": "error"
    },
    {
      "inputs": [],
      "name": "MineralRegistry__InvalidMineralStatus",
      "type": "error"
    },
    {
      "inputs": [],
      "name": "MineralRegistry__InvalidMineralStorageConditions",
      "type": "error"
    },
    {
      "inputs": [],
      "name": "MineralRegistry__InvalidMineralType",
      "type": "error"
    },
    {
      "inputs": [],
      "name": "MineralRegistry__InvalidMineralWeight",
      "type": "error"
    },
    {
      "inputs": [],
      "name": "MineralRegistry__InvalidReceivingPartyAddress",
      "type": "error"
    },
    {
      "inputs": [],
      "name": "MineralRegistry__MineralAlreadyAudited",
      "type": "error"
    },
    {
      "inputs": [],
      "name": "MineralRegistry__MineralAlreadyInspected",
      "type": "error"
    },
    {
      "inputs": [],
      "name": "MineralRegistry__MineralAlreadyPurchased",
      "type": "error"
    },
    {
      "inputs": [],
      "name": "MineralRegistry__MineralNotAudited",
      "type": "error"
    },
    {
      "inputs": [],
      "name": "MineralRegistry__MineralNotInspected",
      "type": "error"
    },
    {
      "inputs": [
        {
          "internalType": "string",
          "name": "mineralId",
          "type": "string"
        }
      ],
      "name": "MineralRegistry__MineralNotRegistered",
      "type": "error"
    },
    {
      "inputs": [],
      "name": "MineralWarehouse__ETHTransferFailed",
      "type": "error"
    },
    {
      "inputs": [],
      "name": "MineralWarehouse__IncorrectETHAmount",
      "type": "error"
    },
    {
      "inputs": [],
      "name": "MineralWarehouse__InvalidMineralPrice",
      "type": "error"
    },
    {
      "inputs": [],
      "name": "MineralWarehouse__InvalidNumberOfPrices",
      "type": "error"
    },
    {
      "inputs": [
        {
          "internalType": "address",
          "name": "tokenAddress",
          "type": "address"
        }
      ],
      "name": "MineralWarehouse__InvalidTokenAddress",
      "type": "error"
    },
    {
      "inputs": [],
      "name": "MineralWarehouse__InvalidTokenPrice",
      "type": "error"
    },
    {
      "inputs": [
        {
          "internalType": "string",
          "name": "mineralId",
          "type": "string"
        }
      ],
      "name": "MineralWarehouse__MineralAlreadySold",
      "type": "error"
    },
    {
      "inputs": [
        {
          "internalType": "string",
          "name": "mineralId",
          "type": "string"
        }
      ],
      "name": "MineralWarehouse__MineralNotFoundInWarehouse",
      "type": "error"
    },
    {
      "inputs": [
        {
          "internalType": "string",
          "name": "mineralId",
          "type": "string"
        }
      ],
      "name": "MineralWarehouse__MineralNotMarketReady",
      "type": "error"
    },
    {
      "inputs": [
        {
          "internalType": "string",
          "name": "mineralId",
          "type": "string"
        }
      ],
      "name": "MineralWarehouse__MineralNotRefined",
      "type": "error"
    },
    {
      "inputs": [
        {
          "internalType": "address",
          "name": "tokenAddress",
          "type": "address"
        }
      ],
      "name": "MineralWarehouse__UnacceptedToken",
      "type": "error"
    },
    {
      "inputs": [
        {
          "internalType": "address[]",
          "name": "tokenAddresses",
          "type": "address[]"
        }
      ],
      "name": "MineralWarehouse__UnacceptedTokens",
      "type": "error"
    },
    {
      "inputs": [
        {
          "internalType": "address",
          "name": "seller",
          "type": "address"
        }
      ],
      "name": "MineralWarehouse__UnauthorizedSeller",
      "type": "error"
    },
    {
      "inputs": [
        {
          "internalType": "string",
          "name": "mineralId",
          "type": "string"
        },
        {
          "internalType": "address",
          "name": "caller",
          "type": "address"
        }
      ],
      "name": "NotAssignedTransporter",
      "type": "error"
    },
    {
      "inputs": [],
      "name": "RolesManager__AccountAlreadyHasRole",
      "type": "error"
    },
    {
      "inputs": [],
      "name": "RolesManager__AccountDoesNotHaveRole",
      "type": "error"
    },
    {
      "inputs": [],
      "name": "RolesManager__InvalidAddress",
      "type": "error"
    },
    {
      "inputs": [],
      "name": "RolesManager__InvalidMineralDestination",
      "type": "error"
    },
    {
      "inputs": [],
      "name": "RolesManager__InvalidMineralIdOrNotFound",
      "type": "error"
    },
    {
      "inputs": [],
      "name": "RolesManager__InvalidMineralName",
      "type": "error"
    },
    {
      "inputs": [],
      "name": "RolesManager__InvalidMineralOrigin",
      "type": "error"
    },
    {
      "inputs": [],
      "name": "RolesManager__InvalidMineralPurityPercentage",
      "type": "error"
    },
    {
      "inputs": [],
      "name": "RolesManager__InvalidMineralStorageConditions",
      "type": "error"
    },
    {
      "inputs": [],
      "name": "RolesManager__InvalidMineralType",
      "type": "error"
    },
    {
      "inputs": [],
      "name": "RolesManager__InvalidMineralWeight",
      "type": "error"
    },
    {
      "inputs": [],
      "name": "RolesManager__InvalidReceivingPartyAddress",
      "type": "error"
    },
    {
      "inputs": [],
      "name": "RolesManager__InvalidRole",
      "type": "error"
    },
    {
      "inputs": [
        {
          "internalType": "string",
          "name": "mineralId",
          "type": "string"
        }
      ],
      "name": "RolesManager__MineralAlreadyAudited",
      "type": "error"
    },
    {
      "inputs": [
        {
          "internalType": "string",
          "name": "mineralId",
          "type": "string"
        }
      ],
      "name": "RolesManager__MineralAlreadyInspected",
      "type": "error"
    },
    {
      "inputs": [
        {
          "internalType": "string",
          "name": "mineralId",
          "type": "string"
        }
      ],
      "name": "RolesManager__MineralAlreadyPurchased",
      "type": "error"
    },
    {
      "inputs": [
        {
          "internalType": "string",
          "name": "mineralId",
          "type": "string"
        }
      ],
      "name": "RolesManager__MineralAlreadyRefined",
      "type": "error"
    },
    {
      "inputs": [
        {
          "internalType": "string",
          "name": "mineralId",
          "type": "string"
        }
      ],
      "name": "RolesManager__MineralNotMarketReady",
      "type": "error"
    },
    {
      "inputs": [
        {
          "internalType": "uint256",
          "name": "purityPercentage",
          "type": "uint256"
        }
      ],
      "name": "RolesManager__MineralPurityPercentageTooLowToRegister",
      "type": "error"
    },
    {
      "inputs": [
        {
          "internalType": "address",
          "name": "caller",
          "type": "address"
        }
      ],
      "name": "RolesManager__NotTheAssignedBuyer",
      "type": "error"
    },
    {
      "inputs": [
        {
          "internalType": "string",
          "name": "mineralId",
          "type": "string"
        }
      ],
      "name": "SupplychainValidator__InvalidMineralIdOrNotFound",
      "type": "error"
    },
    {
      "inputs": [],
      "name": "SupplychainValidator__InvalidMineralOwnershipChain",
      "type": "error"
    },
    {
      "inputs": [],
      "name": "SupplychainValidator__InvalidMineralTransactionHistory",
      "type": "error"
    },
    {
      "inputs": [
        {
          "internalType": "uint256",
          "name": "tokenId",
          "type": "uint256"
        },
        {
          "internalType": "address",
          "name": "caller",
          "type": "address"
        }
      ],
      "name": "Tokenization__CallerNotMineralTokenOwner",
      "type": "error"
    },
    {
      "inputs": [
        {
          "internalType": "uint256",
          "name": "tokenId",
          "type": "uint256"
        }
      ],
      "name": "Tokenization__InvalidTokenId",
      "type": "error"
    },
    {
      "inputs": [
        {
          "internalType": "uint256",
          "name": "tokenId",
          "type": "uint256"
        }
      ],
      "name": "Tokenization__InvalidTokenIdOrNotFound",
      "type": "error"
    },
    {
      "inputs": [
        {
          "internalType": "uint256",
          "name": "tokenId",
          "type": "uint256"
        }
      ],
      "name": "Tokenization__TokenAlreadyExists",
      "type": "error"
    },
    {
      "inputs": [
        {
          "internalType": "uint256",
          "name": "tokenId",
          "type": "uint256"
        }
      ],
      "name": "Tokenization__TokenIsAlreadyMinted",
      "type": "error"
    },
    {
      "inputs": [
        {
          "internalType": "uint256",
          "name": "index",
          "type": "uint256"
        }
      ],
      "name": "TransactionLog__InvalidOperationIndex",
      "type": "error"
    },
    {
      "inputs": [],
      "name": "TransactionLog__InvalidOperationType",
      "type": "error"
    },
    {
      "inputs": [
        {
          "internalType": "uint256",
          "name": "transactionId",
          "type": "uint256"
        }
      ],
      "name": "TransactionLog__InvalidTransactionIdOrNotFound",
      "type": "error"
    },
    {
      "inputs": [
        {
          "internalType": "string",
          "name": "mineralId",
          "type": "string"
        }
      ],
      "name": "TransportRequestAlreadyExists",
      "type": "error"
    },
    {
      "anonymous": false,
      "inputs": [
        {
          "indexed": true,
          "internalType": "address",
          "name": "assignee",
          "type": "address"
        },
        {
          "indexed": false,
          "internalType": "uint256",
          "name": "timestamp",
          "type": "uint256"
        }
      ],
      "name": "AdminRoleAssigned",
      "type": "event"
    },
    {
      "anonymous": false,
      "inputs": [
        {
          "indexed": true,
          "internalType": "address",
          "name": "revokee",
          "type": "address"
        },
        {
          "indexed": false,
          "internalType": "string",
          "name": "reason",
          "type": "string"
        },
        {
          "indexed": false,
          "internalType": "uint256",
          "name": "timestamp",
          "type": "uint256"
        }
      ],
      "name": "AdminRoleRevoked",
      "type": "event"
    },
    {
      "anonymous": false,
      "inputs": [
        {
          "indexed": true,
          "internalType": "address",
          "name": "assignee",
          "type": "address"
        },
        {
          "indexed": false,
          "internalType": "uint256",
          "name": "timestamp",
          "type": "uint256"
        }
      ],
      "name": "AuditorRoleAssigned",
      "type": "event"
    },
    {
      "anonymous": false,
      "inputs": [
        {
          "indexed": true,
          "internalType": "address",
          "name": "revokee",
          "type": "address"
        },
        {
          "indexed": false,
          "internalType": "string",
          "name": "reason",
          "type": "string"
        },
        {
          "indexed": false,
          "internalType": "uint256",
          "name": "timestamp",
          "type": "uint256"
        }
      ],
      "name": "AuditorRoleRevoked",
      "type": "event"
    },
    {
      "anonymous": false,
      "inputs": [
        {
          "indexed": true,
          "internalType": "address",
          "name": "assignee",
          "type": "address"
        },
        {
          "indexed": false,
          "internalType": "uint256",
          "name": "timestamp",
          "type": "uint256"
        }
      ],
      "name": "BuyerRoleAssigned",
      "type": "event"
    },
    {
      "anonymous": false,
      "inputs": [
        {
          "indexed": true,
          "internalType": "address",
          "name": "revokee",
          "type": "address"
        },
        {
          "indexed": false,
          "internalType": "string",
          "name": "reason",
          "type": "string"
        },
        {
          "indexed": false,
          "internalType": "uint256",
          "name": "timestamp",
          "type": "uint256"
        }
      ],
      "name": "BuyerRoleRevoked",
      "type": "event"
    },
    {
      "anonymous": false,
      "inputs": [
        {
          "indexed": true,
          "internalType": "address",
          "name": "assignee",
          "type": "address"
        },
        {
          "indexed": false,
          "internalType": "uint256",
          "name": "timestamp",
          "type": "uint256"
        }
      ],
      "name": "InspectorRoleAssigned",
      "type": "event"
    },
    {
      "anonymous": false,
      "inputs": [
        {
          "indexed": true,
          "internalType": "address",
          "name": "revokee",
          "type": "address"
        },
        {
          "indexed": false,
          "internalType": "string",
          "name": "reason",
          "type": "string"
        },
        {
          "indexed": false,
          "internalType": "uint256",
          "name": "timestamp",
          "type": "uint256"
        }
      ],
      "name": "InspectorRoleRevoked",
      "type": "event"
    },
    {
      "anonymous": false,
      "inputs": [
        {
          "indexed": true,
          "internalType": "address",
          "name": "assignee",
          "type": "address"
        },
        {
          "indexed": false,
          "internalType": "uint256",
          "name": "timestamp",
          "type": "uint256"
        }
      ],
      "name": "MinerRoleAssigned",
      "type": "event"
    },
    {
      "anonymous": false,
      "inputs": [
        {
          "indexed": true,
          "internalType": "address",
          "name": "revokee",
          "type": "address"
        },
        {
          "indexed": false,
          "internalType": "string",
          "name": "reason",
          "type": "string"
        },
        {
          "indexed": false,
          "internalType": "uint256",
          "name": "timestamp",
          "type": "uint256"
        }
      ],
      "name": "MinerRoleRevoked",
      "type": "event"
    },
    {
      "anonymous": false,
      "inputs": [
        {
          "indexed": false,
          "internalType": "string",
          "name": "mineralId",
          "type": "string"
        },
        {
          "indexed": false,
          "internalType": "string",
          "name": "status",
          "type": "string"
        },
        {
          "indexed": true,
          "internalType": "address",
          "name": "auditor",
          "type": "address"
        },
        {
          "indexed": false,
          "internalType": "uint256",
          "name": "auditedAt",
          "type": "uint256"
        }
      ],
      "name": "MineralAudited",
      "type": "event"
    },
    {
      "anonymous": false,
      "inputs": [
        {
          "indexed": false,
          "internalType": "string",
          "name": "mineralId",
          "type": "string"
        },
        {
          "indexed": false,
          "internalType": "string",
          "name": "mineralStatus",
          "type": "string"
        },
        {
          "indexed": true,
          "internalType": "address",
          "name": "inspector",
          "type": "address"
        },
        {
          "indexed": false,
          "internalType": "uint256",
          "name": "inspectedAt",
          "type": "uint256"
        }
      ],
      "name": "MineralInspected",
      "type": "event"
    },
    {
      "anonymous": false,
      "inputs": [
        {
          "indexed": false,
          "internalType": "string",
          "name": "mineralId",
          "type": "string"
        },
        {
          "indexed": true,
          "internalType": "address",
          "name": "buyer",
          "type": "address"
        },
        {
          "indexed": false,
          "internalType": "uint256",
          "name": "purchasedAt",
          "type": "uint256"
        }
      ],
      "name": "MineralPurchased",
      "type": "event"
    },
    {
      "anonymous": false,
      "inputs": [
        {
          "indexed": false,
          "internalType": "string",
          "name": "mineralId",
          "type": "string"
        },
        {
          "indexed": true,
          "internalType": "address",
          "name": "ApprovedBy",
          "type": "address"
        },
        {
          "indexed": false,
          "internalType": "string",
          "name": "status",
          "type": "string"
        },
        {
          "indexed": false,
          "internalType": "uint256",
          "name": "inspectionDate",
          "type": "uint256"
        }
      ],
      "name": "MineralReadyToTrade",
      "type": "event"
    },
    {
      "anonymous": false,
      "inputs": [
        {
          "indexed": false,
          "internalType": "string",
          "name": "mineralId",
          "type": "string"
        },
        {
          "indexed": false,
          "internalType": "string",
          "name": "refineryReport",
          "type": "string"
        },
        {
          "indexed": true,
          "internalType": "address",
          "name": "refiner",
          "type": "address"
        },
        {
          "indexed": false,
          "internalType": "uint256",
          "name": "refinedAt",
          "type": "uint256"
        }
      ],
      "name": "MineralRefined",
      "type": "event"
    },
    {
      "anonymous": false,
      "inputs": [
        {
          "indexed": false,
          "internalType": "string",
          "name": "mineralId",
          "type": "string"
        },
        {
          "indexed": false,
          "internalType": "string",
          "name": "mineralName",
          "type": "string"
        },
        {
          "indexed": false,
          "internalType": "string",
          "name": "mineralType",
          "type": "string"
        },
        {
          "indexed": false,
          "internalType": "string",
          "name": "origin",
          "type": "string"
        },
        {
          "indexed": false,
          "internalType": "uint256",
          "name": "weight",
          "type": "uint256"
        },
        {
          "indexed": false,
          "internalType": "uint256",
          "name": "purityPercentage",
          "type": "uint256"
        },
        {
          "indexed": true,
          "internalType": "address",
          "name": "miner",
          "type": "address"
        },
        {
          "indexed": false,
          "internalType": "uint256",
          "name": "registeredAt",
          "type": "uint256"
        }
      ],
      "name": "MineralRegistered",
      "type": "event"
    },
    {
      "anonymous": false,
      "inputs": [
        {
          "indexed": false,
          "internalType": "string",
          "name": "mineralId",
          "type": "string"
        },
        {
          "indexed": true,
          "internalType": "address",
          "name": "transporter",
          "type": "address"
        },
        {
          "indexed": false,
          "internalType": "address",
          "name": "receivingParty",
          "type": "address"
        },
        {
          "indexed": false,
          "internalType": "string",
          "name": "origin",
          "type": "string"
        },
        {
          "indexed": false,
          "internalType": "string",
          "name": "destination",
          "type": "string"
        },
        {
          "indexed": false,
          "internalType": "uint256",
          "name": "transportedAt",
          "type": "uint256"
        }
      ],
      "name": "MineralTransported",
      "type": "event"
    },
    {
      "anonymous": false,
      "inputs": [
        {
          "indexed": true,
          "internalType": "address",
          "name": "assignee",
          "type": "address"
        },
        {
          "indexed": false,
          "internalType": "uint256",
          "name": "timestamp",
          "type": "uint256"
        }
      ],
      "name": "RefinerRoleAssigned",
      "type": "event"
    },
    {
      "anonymous": false,
      "inputs": [
        {
          "indexed": true,
          "internalType": "address",
          "name": "revokee",
          "type": "address"
        },
        {
          "indexed": false,
          "internalType": "string",
          "name": "reason",
          "type": "string"
        },
        {
          "indexed": false,
          "internalType": "uint256",
          "name": "timestamp",
          "type": "uint256"
        }
      ],
      "name": "RefinerRoleRevoked",
      "type": "event"
    },
    {
      "anonymous": false,
      "inputs": [
        {
          "indexed": true,
          "internalType": "bytes32",
          "name": "role",
          "type": "bytes32"
        },
        {
          "indexed": true,
          "internalType": "bytes32",
          "name": "previousAdminRole",
          "type": "bytes32"
        },
        {
          "indexed": true,
          "internalType": "bytes32",
          "name": "newAdminRole",
          "type": "bytes32"
        }
      ],
      "name": "RoleAdminChanged",
      "type": "event"
    },
    {
      "anonymous": false,
      "inputs": [
        {
          "indexed": true,
          "internalType": "address",
          "name": "account",
          "type": "address"
        },
        {
          "indexed": true,
          "internalType": "bytes32",
          "name": "role",
          "type": "bytes32"
        },
        {
          "indexed": false,
          "internalType": "uint256",
          "name": "roleAssignedAt",
          "type": "uint256"
        }
      ],
      "name": "RoleAssigned",
      "type": "event"
    },
    {
      "anonymous": false,
      "inputs": [
        {
          "indexed": true,
          "internalType": "bytes32",
          "name": "role",
          "type": "bytes32"
        },
        {
          "indexed": true,
          "internalType": "address",
          "name": "account",
          "type": "address"
        },
        {
          "indexed": true,
          "internalType": "address",
          "name": "sender",
          "type": "address"
        }
      ],
      "name": "RoleGranted",
      "type": "event"
    },
    {
      "anonymous": false,
      "inputs": [
        {
          "indexed": true,
          "internalType": "bytes32",
          "name": "role",
          "type": "bytes32"
        },
        {
          "indexed": true,
          "internalType": "address",
          "name": "account",
          "type": "address"
        },
        {
          "indexed": true,
          "internalType": "address",
          "name": "sender",
          "type": "address"
        }
      ],
      "name": "RoleRevoked",
      "type": "event"
    },
    {
      "anonymous": false,
      "inputs": [
        {
          "indexed": false,
          "internalType": "bytes32",
          "name": "role",
          "type": "bytes32"
        },
        {
          "indexed": false,
          "internalType": "address",
          "name": "account",
          "type": "address"
        },
        {
          "indexed": false,
          "internalType": "address",
          "name": "revoker",
          "type": "address"
        },
        {
          "indexed": false,
          "internalType": "uint256",
          "name": "roleRevokedAt",
          "type": "uint256"
        }
      ],
      "name": "RoleRevoked",
      "type": "event"
    },
    {
      "anonymous": false,
      "inputs": [
        {
          "indexed": false,
          "internalType": "string",
          "name": "mineralId",
          "type": "string"
        },
        {
          "indexed": true,
          "internalType": "address",
          "name": "transporter",
          "type": "address"
        },
        {
          "indexed": false,
          "internalType": "uint256",
          "name": "assignedAt",
          "type": "uint256"
        }
      ],
      "name": "TransportAssigned",
      "type": "event"
    },
    {
      "anonymous": false,
      "inputs": [
        {
          "indexed": false,
          "internalType": "string",
          "name": "mineralId",
          "type": "string"
        },
        {
          "indexed": true,
          "internalType": "address",
          "name": "transporter",
          "type": "address"
        },
        {
          "indexed": false,
          "internalType": "uint256",
          "name": "completedAt",
          "type": "uint256"
        }
      ],
      "name": "TransportCompleted",
      "type": "event"
    },
    {
      "anonymous": false,
      "inputs": [
        {
          "indexed": false,
          "internalType": "string",
          "name": "mineralId",
          "type": "string"
        },
        {
          "indexed": true,
          "internalType": "address",
          "name": "requester",
          "type": "address"
        },
        {
          "indexed": false,
          "internalType": "string",
          "name": "origin",
          "type": "string"
        },
        {
          "indexed": false,
          "internalType": "string",
          "name": "destination",
          "type": "string"
        },
        {
          "indexed": false,
          "internalType": "uint256",
          "name": "estimatedDeparture",
          "type": "uint256"
        },
        {
          "indexed": false,
          "internalType": "uint256",
          "name": "requestTimestamp",
          "type": "uint256"
        }
      ],
      "name": "TransportRequestCreated",
      "type": "event"
    },
    {
      "anonymous": false,
      "inputs": [
        {
          "indexed": false,
          "internalType": "string",
          "name": "mineralId",
          "type": "string"
        },
        {
          "indexed": false,
          "internalType": "string",
          "name": "newStatus",
          "type": "string"
        },
        {
          "indexed": false,
          "internalType": "uint256",
          "name": "updatedAt",
          "type": "uint256"
        }
      ],
      "name": "TransportStatusChanged",
      "type": "event"
    },
    {
      "anonymous": false,
      "inputs": [
        {
          "indexed": true,
          "internalType": "address",
          "name": "assignee",
          "type": "address"
        },
        {
          "indexed": false,
          "internalType": "uint256",
          "name": "timestamp",
          "type": "uint256"
        }
      ],
      "name": "TransporterRoleAssigned",
      "type": "event"
    },
    {
      "anonymous": false,
      "inputs": [
        {
          "indexed": true,
          "internalType": "address",
          "name": "revokee",
          "type": "address"
        },
        {
          "indexed": false,
          "internalType": "string",
          "name": "reason",
          "type": "string"
        },
        {
          "indexed": false,
          "internalType": "uint256",
          "name": "timestamp",
          "type": "uint256"
        }
      ],
      "name": "TransporterRoleRevoked",
      "type": "event"
    },
    {
      "inputs": [],
      "name": "AUDITOR_ROLE",
      "outputs": [
        {
          "internalType": "bytes32",
          "name": "",
          "type": "bytes32"
        }
      ],
      "stateMutability": "view",
      "type": "function"
    },
    {
      "inputs": [],
      "name": "BUYER_ROLE",
      "outputs": [
        {
          "internalType": "bytes32",
          "name": "",
          "type": "bytes32"
        }
      ],
      "stateMutability": "view",
      "type": "function"
    },
    {
      "inputs": [],
      "name": "DEFAULT_ADMIN_ROLE",
      "outputs": [
        {
          "internalType": "bytes32",
          "name": "",
          "type": "bytes32"
        }
      ],
      "stateMutability": "view",
      "type": "function"
    },
    {
      "inputs": [],
      "name": "INSPECTOR_ROLE",
      "outputs": [
        {
          "internalType": "bytes32",
          "name": "",
          "type": "bytes32"
        }
      ],
      "stateMutability": "view",
      "type": "function"
    },
    {
      "inputs": [],
      "name": "MINER_ROLE",
      "outputs": [
        {
          "internalType": "bytes32",
          "name": "",
          "type": "bytes32"
        }
      ],
      "stateMutability": "view",
      "type": "function"
    },
    {
      "inputs": [],
      "name": "REFINER_ROLE",
      "outputs": [
        {
          "internalType": "bytes32",
          "name": "",
          "type": "bytes32"
        }
      ],
      "stateMutability": "view",
      "type": "function"
    },
    {
      "inputs": [],
      "name": "TRANSPORTER_ROLE",
      "outputs": [
        {
          "internalType": "bytes32",
          "name": "",
          "type": "bytes32"
        }
      ],
      "stateMutability": "view",
      "type": "function"
    },
    {
      "inputs": [
        {
          "internalType": "string",
          "name": "mineralId",
          "type": "string"
        },
        {
          "internalType": "string",
          "name": "report",
          "type": "string"
        }
      ],
      "name": "_auditMineral",
      "outputs": [],
      "stateMutability": "nonpayable",
      "type": "function"
    },
    {
      "inputs": [
        {
          "internalType": "address",
          "name": "account",
          "type": "address"
        }
      ],
      "name": "assignAuditor",
      "outputs": [],
      "stateMutability": "nonpayable",
      "type": "function"
    },
    {
      "inputs": [
        {
          "internalType": "address",
          "name": "account",
          "type": "address"
        }
      ],
      "name": "assignBuyer",
      "outputs": [],
      "stateMutability": "nonpayable",
      "type": "function"
    },
    {
      "inputs": [
        {
          "internalType": "address",
          "name": "account",
          "type": "address"
        }
      ],
      "name": "assignInspector",
      "outputs": [],
      "stateMutability": "nonpayable",
      "type": "function"
    },
    {
      "inputs": [
        {
          "internalType": "address",
          "name": "account",
          "type": "address"
        }
      ],
      "name": "assignMiner",
      "outputs": [],
      "stateMutability": "nonpayable",
      "type": "function"
    },
    {
      "inputs": [
        {
          "internalType": "address",
          "name": "account",
          "type": "address"
        }
      ],
      "name": "assignRefiner",
      "outputs": [],
      "stateMutability": "nonpayable",
      "type": "function"
    },
    {
      "inputs": [
        {
          "internalType": "string",
          "name": "mineralId",
          "type": "string"
        },
        {
          "internalType": "address",
          "name": "transporter",
          "type": "address"
        },
        {
          "internalType": "uint256",
          "name": "estimatedArrival",
          "type": "uint256"
        }
      ],
      "name": "assignTransporter",
      "outputs": [],
      "stateMutability": "nonpayable",
      "type": "function"
    },
    {
      "inputs": [
        {
          "internalType": "address",
          "name": "account",
          "type": "address"
        }
      ],
      "name": "assignTransporter",
      "outputs": [],
      "stateMutability": "nonpayable",
      "type": "function"
    },
    {
      "inputs": [
        {
          "internalType": "string",
          "name": "mineralId",
          "type": "string"
        }
      ],
      "name": "checkAuditAndInspectionStatus",
      "outputs": [
        {
          "internalType": "bool",
          "name": "isAudited",
          "type": "bool"
        },
        {
          "internalType": "bool",
          "name": "isInspected",
          "type": "bool"
        }
      ],
      "stateMutability": "nonpayable",
      "type": "function"
    },
    {
      "inputs": [
        {
          "internalType": "string",
          "name": "mineralId",
          "type": "string"
        }
      ],
      "name": "completeTransport",
      "outputs": [],
      "stateMutability": "nonpayable",
      "type": "function"
    },
    {
      "inputs": [
        {
          "internalType": "string",
          "name": "mineralId",
          "type": "string"
        },
        {
          "internalType": "string",
          "name": "origin",
          "type": "string"
        },
        {
          "internalType": "string",
          "name": "destination",
          "type": "string"
        },
        {
          "internalType": "uint256",
          "name": "estimatedDeparture",
          "type": "uint256"
        },
        {
          "internalType": "string",
          "name": "transportConditions",
          "type": "string"
        }
      ],
      "name": "createTransportRequest",
      "outputs": [],
      "stateMutability": "nonpayable",
      "type": "function"
    },
    {
      "inputs": [],
      "name": "getAllRoleCounts",
      "outputs": [
        {
          "internalType": "uint256",
          "name": "minerCount",
          "type": "uint256"
        },
        {
          "internalType": "uint256",
          "name": "refinerCount",
          "type": "uint256"
        },
        {
          "internalType": "uint256",
          "name": "transporterCount",
          "type": "uint256"
        },
        {
          "internalType": "uint256",
          "name": "auditorCount",
          "type": "uint256"
        },
        {
          "internalType": "uint256",
          "name": "inspectorCount",
          "type": "uint256"
        },
        {
          "internalType": "uint256",
          "name": "buyerCount",
          "type": "uint256"
        }
      ],
      "stateMutability": "view",
      "type": "function"
    },
    {
      "inputs": [
        {
          "internalType": "string",
          "name": "mineralId",
          "type": "string"
        }
      ],
      "name": "getMineralHistory",
      "outputs": [
        {
          "components": [
            {
              "internalType": "string",
              "name": "id",
              "type": "string"
            },
            {
              "internalType": "string",
              "name": "fieldChanged",
              "type": "string"
            },
            {
              "internalType": "string",
              "name": "newValue",
              "type": "string"
            },
            {
              "internalType": "address",
              "name": "updatedBy",
              "type": "address"
            },
            {
              "internalType": "uint256",
              "name": "timestamp",
              "type": "uint256"
            }
          ],
          "internalType": "struct RolesManager.MineralHistory[]",
          "name": "",
          "type": "tuple[]"
        }
      ],
      "stateMutability": "view",
      "type": "function"
    },
    {
      "inputs": [
        {
          "internalType": "bytes32",
          "name": "role",
          "type": "bytes32"
        }
      ],
      "name": "getRoleAdmin",
      "outputs": [
        {
          "internalType": "bytes32",
          "name": "",
          "type": "bytes32"
        }
      ],
      "stateMutability": "view",
      "type": "function"
    },
    {
      "inputs": [
        {
          "internalType": "bytes32",
          "name": "role",
          "type": "bytes32"
        }
      ],
      "name": "getRoleMemberCount",
      "outputs": [
        {
          "internalType": "uint256",
          "name": "count",
          "type": "uint256"
        }
      ],
      "stateMutability": "view",
      "type": "function"
    },
    {
      "inputs": [
        {
          "internalType": "address",
          "name": "account",
          "type": "address"
        }
      ],
      "name": "getRolesForAddress",
      "outputs": [
        {
          "internalType": "string[]",
          "name": "roles",
          "type": "string[]"
        }
      ],
      "stateMutability": "view",
      "type": "function"
    },
    {
      "inputs": [
        {
          "internalType": "string",
          "name": "mineralId",
          "type": "string"
        }
      ],
      "name": "getTransportDetails",
      "outputs": [
        {
          "components": [
            {
              "internalType": "string",
              "name": "mineralId",
              "type": "string"
            },
            {
              "internalType": "address",
              "name": "requester",
              "type": "address"
            },
            {
              "internalType": "address",
              "name": "transporter",
              "type": "address"
            },
            {
              "internalType": "string",
              "name": "origin",
              "type": "string"
            },
            {
              "internalType": "string",
              "name": "destination",
              "type": "string"
            },
            {
              "internalType": "uint256",
              "name": "estimatedDeparture",
              "type": "uint256"
            },
            {
              "internalType": "uint256",
              "name": "actualDeparture",
              "type": "uint256"
            },
            {
              "internalType": "uint256",
              "name": "estimatedArrival",
              "type": "uint256"
            },
            {
              "internalType": "uint256",
              "name": "actualArrival",
              "type": "uint256"
            },
            {
              "internalType": "string",
              "name": "currentStatus",
              "type": "string"
            },
            {
              "internalType": "string",
              "name": "transportConditions",
              "type": "string"
            }
          ],
          "internalType": "struct LogisticsManager.TransportDetails",
          "name": "",
          "type": "tuple"
        }
      ],
      "stateMutability": "view",
      "type": "function"
    },
    {
      "inputs": [
        {
          "internalType": "string",
          "name": "mineralId",
          "type": "string"
        }
      ],
      "name": "getTransportStatus",
      "outputs": [
        {
          "internalType": "string",
          "name": "",
          "type": "string"
        }
      ],
      "stateMutability": "view",
      "type": "function"
    },
    {
      "inputs": [
        {
          "internalType": "address",
          "name": "transporter",
          "type": "address"
        }
      ],
      "name": "getTransporterAssignments",
      "outputs": [
        {
          "internalType": "string[]",
          "name": "",
          "type": "string[]"
        }
      ],
      "stateMutability": "view",
      "type": "function"
    },
    {
      "inputs": [
        {
          "internalType": "bytes32",
          "name": "role",
          "type": "bytes32"
        },
        {
          "internalType": "address",
          "name": "account",
          "type": "address"
        }
      ],
      "name": "grantRole",
      "outputs": [],
      "stateMutability": "nonpayable",
      "type": "function"
    },
    {
      "inputs": [
        {
          "internalType": "address",
          "name": "account",
          "type": "address"
        }
      ],
      "name": "hasAdminRole",
      "outputs": [
        {
          "internalType": "bool",
          "name": "",
          "type": "bool"
        }
      ],
      "stateMutability": "view",
      "type": "function"
    },
    {
      "inputs": [
        {
          "internalType": "address",
          "name": "account",
          "type": "address"
        }
      ],
      "name": "hasAuditorRole",
      "outputs": [
        {
          "internalType": "bool",
          "name": "",
          "type": "bool"
        }
      ],
      "stateMutability": "view",
      "type": "function"
    },
    {
      "inputs": [
        {
          "internalType": "address",
          "name": "account",
          "type": "address"
        }
      ],
      "name": "hasBuyerRole",
      "outputs": [
        {
          "internalType": "bool",
          "name": "",
          "type": "bool"
        }
      ],
      "stateMutability": "view",
      "type": "function"
    },
    {
      "inputs": [
        {
          "internalType": "address",
          "name": "account",
          "type": "address"
        }
      ],
      "name": "hasInspectorRole",
      "outputs": [
        {
          "internalType": "bool",
          "name": "",
          "type": "bool"
        }
      ],
      "stateMutability": "view",
      "type": "function"
    },
    {
      "inputs": [
        {
          "internalType": "address",
          "name": "account",
          "type": "address"
        }
      ],
      "name": "hasMinerRole",
      "outputs": [
        {
          "internalType": "bool",
          "name": "",
          "type": "bool"
        }
      ],
      "stateMutability": "view",
      "type": "function"
    },
    {
      "inputs": [
        {
          "internalType": "address",
          "name": "account",
          "type": "address"
        }
      ],
      "name": "hasRefinerRole",
      "outputs": [
        {
          "internalType": "bool",
          "name": "",
          "type": "bool"
        }
      ],
      "stateMutability": "view",
      "type": "function"
    },
    {
      "inputs": [
        {
          "internalType": "bytes32",
          "name": "role",
          "type": "bytes32"
        },
        {
          "internalType": "address",
          "name": "account",
          "type": "address"
        }
      ],
      "name": "hasRole",
      "outputs": [
        {
          "internalType": "bool",
          "name": "",
          "type": "bool"
        }
      ],
      "stateMutability": "view",
      "type": "function"
    },
    {
      "inputs": [
        {
          "internalType": "address",
          "name": "account",
          "type": "address"
        }
      ],
      "name": "hasTransporterRole",
      "outputs": [
        {
          "internalType": "bool",
          "name": "",
          "type": "bool"
        }
      ],
      "stateMutability": "view",
      "type": "function"
    },
    {
      "inputs": [
        {
          "internalType": "string",
          "name": "mineralId",
          "type": "string"
        },
        {
          "internalType": "string",
          "name": "report",
          "type": "string"
        }
      ],
      "name": "inspectMineral",
      "outputs": [],
      "stateMutability": "nonpayable",
      "type": "function"
    },
    {
      "inputs": [
        {
          "internalType": "string",
          "name": "mineralId",
          "type": "string"
        }
      ],
      "name": "isMineralRegistered",
      "outputs": [
        {
          "internalType": "bool",
          "name": "",
          "type": "bool"
        }
      ],
      "stateMutability": "nonpayable",
      "type": "function"
    },
    {
      "inputs": [
        {
          "internalType": "string",
          "name": "",
          "type": "string"
        }
      ],
      "name": "mineralDetails",
      "outputs": [
        {
          "internalType": "string",
          "name": "id",
          "type": "string"
        },
        {
          "internalType": "string",
          "name": "name",
          "type": "string"
        },
        {
          "internalType": "string",
          "name": "origin",
          "type": "string"
        },
        {
          "internalType": "string",
          "name": "mineralType",
          "type": "string"
        },
        {
          "internalType": "uint256",
          "name": "weight",
          "type": "uint256"
        },
        {
          "internalType": "uint256",
          "name": "purityPercentage",
          "type": "uint256"
        },
        {
          "internalType": "string",
          "name": "storageConditions",
          "type": "string"
        },
        {
          "internalType": "address",
          "name": "registeredBy",
          "type": "address"
        },
        {
          "internalType": "string",
          "name": "currentStatus",
          "type": "string"
        },
        {
          "internalType": "string",
          "name": "currentLocation",
          "type": "string"
        },
        {
          "internalType": "address",
          "name": "currentHandler",
          "type": "address"
        },
        {
          "internalType": "bool",
          "name": "isPurchased",
          "type": "bool"
        },
        {
          "internalType": "bool",
          "name": "isRefined",
          "type": "bool"
        },
        {
          "internalType": "bool",
          "name": "isAudited",
          "type": "bool"
        },
        {
          "internalType": "bool",
          "name": "isInspected",
          "type": "bool"
        },
        {
          "internalType": "uint256",
          "name": "timestamp",
          "type": "uint256"
        }
      ],
      "stateMutability": "view",
      "type": "function"
    },
    {
      "inputs": [
        {
          "internalType": "string",
          "name": "",
          "type": "string"
        },
        {
          "internalType": "uint256",
          "name": "",
          "type": "uint256"
        }
      ],
      "name": "mineralHistories",
      "outputs": [
        {
          "internalType": "string",
          "name": "id",
          "type": "string"
        },
        {
          "internalType": "string",
          "name": "fieldChanged",
          "type": "string"
        },
        {
          "internalType": "string",
          "name": "newValue",
          "type": "string"
        },
        {
          "internalType": "address",
          "name": "updatedBy",
          "type": "address"
        },
        {
          "internalType": "uint256",
          "name": "timestamp",
          "type": "uint256"
        }
      ],
      "stateMutability": "view",
      "type": "function"
    },
    {
      "inputs": [
        {
          "internalType": "string",
          "name": "mineralId",
          "type": "string"
        }
      ],
      "name": "purchaseMineral",
      "outputs": [],
      "stateMutability": "nonpayable",
      "type": "function"
    },
    {
      "inputs": [
        {
          "internalType": "string",
          "name": "mineralId",
          "type": "string"
        },
        {
          "internalType": "string",
          "name": "report",
          "type": "string"
        }
      ],
      "name": "refineMineral",
      "outputs": [],
      "stateMutability": "nonpayable",
      "type": "function"
    },
    {
      "inputs": [
        {
          "internalType": "string",
          "name": "_name",
          "type": "string"
        },
        {
          "internalType": "string",
          "name": "_mineralType",
          "type": "string"
        },
        {
          "internalType": "uint256",
          "name": "_weight",
          "type": "uint256"
        },
        {
          "internalType": "string",
          "name": "_origin",
          "type": "string"
        },
        {
          "internalType": "uint256",
          "name": "_purityPercentage",
          "type": "uint256"
        },
        {
          "internalType": "string",
          "name": "_storageConditions",
          "type": "string"
        }
      ],
      "name": "registerMineral",
      "outputs": [
        {
          "internalType": "string",
          "name": "",
          "type": "string"
        }
      ],
      "stateMutability": "nonpayable",
      "type": "function"
    },
    {
      "inputs": [
        {
          "internalType": "bytes32",
          "name": "role",
          "type": "bytes32"
        },
        {
          "internalType": "address",
          "name": "callerConfirmation",
          "type": "address"
        }
      ],
      "name": "renounceRole",
      "outputs": [],
      "stateMutability": "nonpayable",
      "type": "function"
    },
    {
      "inputs": [
        {
          "internalType": "address",
          "name": "account",
          "type": "address"
        },
        {
          "internalType": "string",
          "name": "reason",
          "type": "string"
        }
      ],
      "name": "revokeAuditor",
      "outputs": [],
      "stateMutability": "nonpayable",
      "type": "function"
    },
    {
      "inputs": [
        {
          "internalType": "address",
          "name": "account",
          "type": "address"
        },
        {
          "internalType": "string",
          "name": "reason",
          "type": "string"
        }
      ],
      "name": "revokeBuyer",
      "outputs": [],
      "stateMutability": "nonpayable",
      "type": "function"
    },
    {
      "inputs": [
        {
          "internalType": "address",
          "name": "account",
          "type": "address"
        },
        {
          "internalType": "string",
          "name": "reason",
          "type": "string"
        }
      ],
      "name": "revokeInspector",
      "outputs": [],
      "stateMutability": "nonpayable",
      "type": "function"
    },
    {
      "inputs": [
        {
          "internalType": "address",
          "name": "account",
          "type": "address"
        },
        {
          "internalType": "string",
          "name": "reason",
          "type": "string"
        }
      ],
      "name": "revokeMiner",
      "outputs": [],
      "stateMutability": "nonpayable",
      "type": "function"
    },
    {
      "inputs": [
        {
          "internalType": "address",
          "name": "account",
          "type": "address"
        },
        {
          "internalType": "string",
          "name": "reason",
          "type": "string"
        }
      ],
      "name": "revokeRefiner",
      "outputs": [],
      "stateMutability": "nonpayable",
      "type": "function"
    },
    {
      "inputs": [
        {
          "internalType": "bytes32",
          "name": "role",
          "type": "bytes32"
        },
        {
          "internalType": "address",
          "name": "account",
          "type": "address"
        }
      ],
      "name": "revokeRole",
      "outputs": [],
      "stateMutability": "nonpayable",
      "type": "function"
    },
    {
      "inputs": [
        {
          "internalType": "address",
          "name": "account",
          "type": "address"
        },
        {
          "internalType": "string",
          "name": "reason",
          "type": "string"
        }
      ],
      "name": "revokeTransporter",
      "outputs": [],
      "stateMutability": "nonpayable",
      "type": "function"
    },
    {
      "inputs": [
        {
          "internalType": "bytes32",
          "name": "",
          "type": "bytes32"
        }
      ],
      "name": "roleMemberCount",
      "outputs": [
        {
          "internalType": "uint256",
          "name": "",
          "type": "uint256"
        }
      ],
      "stateMutability": "view",
      "type": "function"
    },
    {
      "inputs": [
        {
          "internalType": "string",
          "name": "mineralId",
          "type": "string"
        }
      ],
      "name": "startTransport",
      "outputs": [],
      "stateMutability": "nonpayable",
      "type": "function"
    },
    {
      "inputs": [
        {
          "internalType": "bytes4",
          "name": "interfaceId",
          "type": "bytes4"
        }
      ],
      "name": "supportsInterface",
      "outputs": [
        {
          "internalType": "bool",
          "name": "",
          "type": "bool"
        }
      ],
      "stateMutability": "view",
      "type": "function"
    },
    {
      "inputs": [
        {
          "internalType": "string",
          "name": "mineralId",
          "type": "string"
        },
        {
          "internalType": "address",
          "name": "_receivingParty",
          "type": "address"
        },
        {
          "internalType": "string",
          "name": "_origin",
          "type": "string"
        },
        {
          "internalType": "string",
          "name": "_destination",
          "type": "string"
        }
      ],
      "name": "transferMineral",
      "outputs": [],
      "stateMutability": "nonpayable",
      "type": "function"
    },
    {
      "inputs": [
        {
          "internalType": "string",
          "name": "",
          "type": "string"
        }
      ],
      "name": "transportDetails",
      "outputs": [
        {
          "internalType": "string",
          "name": "mineralId",
          "type": "string"
        },
        {
          "internalType": "address",
          "name": "requester",
          "type": "address"
        },
        {
          "internalType": "address",
          "name": "transporter",
          "type": "address"
        },
        {
          "internalType": "string",
          "name": "origin",
          "type": "string"
        },
        {
          "internalType": "string",
          "name": "destination",
          "type": "string"
        },
        {
          "internalType": "uint256",
          "name": "estimatedDeparture",
          "type": "uint256"
        },
        {
          "internalType": "uint256",
          "name": "actualDeparture",
          "type": "uint256"
        },
        {
          "internalType": "uint256",
          "name": "estimatedArrival",
          "type": "uint256"
        },
        {
          "internalType": "uint256",
          "name": "actualArrival",
          "type": "uint256"
        },
        {
          "internalType": "string",
          "name": "currentStatus",
          "type": "string"
        },
        {
          "internalType": "string",
          "name": "transportConditions",
          "type": "string"
        }
      ],
      "stateMutability": "view",
      "type": "function"
    },
    {
      "inputs": [
        {
          "internalType": "address",
          "name": "",
          "type": "address"
        },
        {
          "internalType": "uint256",
          "name": "",
          "type": "uint256"
        }
      ],
      "name": "transporterAssignments",
      "outputs": [
        {
          "internalType": "string",
          "name": "",
          "type": "string"
        }
      ],
      "stateMutability": "view",
      "type": "function"
    }
  ],
  "transactionHash": "0xd346dd9275e872baa72dfbc6eaf24783b15bfbf1d72a2d491e0542612c8489c7",
  "args": [],
  "numDeployments": 2,
  "solcInputHash": "57a6037bb722bde0dd8b4081e797ae09",
  "bytecode": "0x608060405234620000d657434201804211620000c0576001556200002333620000db565b50600080805260046020527f17ef568e3e12ab5b9c7254a8d58478811de00f9e6eb34345acd53bf8fd09d3ec80546000198114620000ac579160409160018094019055808052600460205220556040514281527f458ea7e03b3466b3cf9bc2d66ddea8b11fe9469982816f42666888e6c8c6e66460203392a2604051614b0690816200016d8239f35b634e487b7160e01b83526011600452602483fd5b634e487b7160e01b600052601160045260246000fd5b600080fd5b6001600160a01b031660008181527fad3228b676f7d3cd4284a5443f17f1962b36e491b30a40b2405849e597ba5fb5602052604081205490919060ff166200016857818052816020526040822081835260205260408220600160ff1982541617905533917f2f8788117e7eff1d82e926ec794901d17c78024a50270940304540a733656f0d8180a4600190565b509056fe608080604052600436101561001357600080fd5b60003560e01c90816301ffc9a714613b69575080630958fc2d14613aaf5780630c1ab56014613a455780630dacad2e1461398b578063126ee338146136565780631cdfa16a146134705780631ce2933114613166578063248a9ca3146131375780632f2ff15d146130f8578063309514df1461307d5780633499c3a21461302d57806335ba620714612f2757806336568abe14612ee05780633a7adea51461281457806340c7ed0114612783578063480d1dd3146126c95780634a6f15cf146125375780634e2a31091461243e5780634eabbe77146124155780634fafc7e1146121f35780635aee1b1514611fd05780636377741d14611f165780636394f6e614611eed5780636e1d616e14611ec457806370e22e4214611e7457806375a2b0d414611ca057806379451cd714611c7757806379fdc9ec14611bed5780637a01a1da14611bc45780637ae9c16014611b495780637cde2b9914611a50578063826fe0f51461182b5780638850845f146117db57806391d148541461178e57806392f0f2c21461154457806399691194146114465780639b188dd6146113cb578063a217fddf146113af578063a917601b146112f5578063abaa536f146112a5578063ac851dfd146111d3578063b6ba1ca7146111a7578063b9c5b83314611082578063beae461514611032578063c395fcb314610fd0578063c818535a14610df4578063ca15c87314610d0a578063cc82b09014610c3e578063d547741f14610bfd578063de7ce39114610bad578063df422bf2146106d2578063e3a3c522146106a9578063e438fdf81461062e578063f17f352314610426578063f5716a851461036e5763fc1032eb1461028757600080fd5b346103695761029536613cf9565b61029d613fe6565b6102a682613f3a565b156103575761032e7f93e936184fad9f80c7000aa987f91be0cd621bacde11839fdc7139f3d9c2407b91600080516020614a718339815191528060005260006020526102f9600160406000200154614020565b610302856145c5565b5060005260046020526040600020805480610345575b5050604051918291604083526040830190613cd4565b4260208301526001600160a01b03909416930390a2005b61034e90614811565b90553880610318565b604051632ac1560560e21b8152600490fd5b600080fd5b346103695761037c36613cf9565b610384613fe6565b61038d82613f65565b156103575761032e7f4614600adaea632b1e4c381ad24471dab7b587dca104c8dd4da76bc64f19716f91600080516020614a918339815191528060005260006020526103e0600160406000200154614020565b6103e985614550565b5060005260046020526040600020805480610414575050604051918291604083526040830190613cd4565b61041d90614811565b90558480610318565b34610369576080366003190112610369576001600160401b0360043581811161036957610457903690600401613c5b565b90610460613bd2565b9060443581811161036957610479903690600401613c5b565b9060643590811161036957610492903690600401613c5b565b9060008051602061499183398151915260005260209260008452604060002033600052845260ff6040600020541615610616576001600160a01b03168015610604578151156105f2578251156105e057604051600160ff600a8851938881818c01966104ff81838a613cb1565b81016002815203019020015460a01c161515146105ba57936105ab939261059d92600a61055a847f55b00b3c29344a545244b18d70b135e423405427088bd5425f13d690b82310b4998b604051938492839251928391613cb1565b8101600281520301902001336001600160601b0360a01b82541617905561058c6040519860a08a5260a08a0190613cd4565b928801528682036040880152613cd4565b908482036060860152613cd4565b914260808201528033930390a2005b604051632072bb0160e11b815260048101869052806105dc6024820189613cd4565b0390fd5b604051635dbef47560e01b8152600490fd5b6040516326813e6f60e01b8152600490fd5b60405163bea3fd2f60e01b8152600490fd5b604051630568555f60e41b8152336004820152602490fd5b346103695761063c36613cf9565b610644613fe6565b61064d82613fbb565b156103575761032e7f352e14c53d161e2481e65145b53265d1608f979a93a06df66d4c99b2a84ddc63916000805160206149b18339815191528060005260006020526106a0600160406000200154614020565b6103e9856144db565b346103695760003660031901126103695760206040516000805160206149b18339815191528152f35b3461036957602080600319360112610369576001600160a01b036106f4613bbc565b16908115610b9b576000906000805260008152604060002083600052815260ff8060406000205416610b92575b600080516020614a5183398151915290816000526000835260406000208560005283528060406000205416610b82575b600080516020614a9183398151915294856000526000845260406000208160005284528160406000205416610b72575b600080516020614991833981519152806000526000855260406000208260005285528260406000205416610b62575b600080516020614a71833981519152806000526000865260406000208360005286528360406000205416610b52575b6000805160206149b183398151915290816000526000875260406000208460005287528460406000205416610b42575b600080516020614a3183398151915292836000526000885260406000208560005288528560406000205416610b32575b6108488961481e565b986108566040519a8b613c3a565b808a52610865601f199161481e565b019960005b8b8110610b2357506109619a506000976000805260008a526040600020876000528a528760406000205416610ae8575b6000526000895260406000208660005289528660406000205416610aab575b6000526000885260406000208560005288528560406000205416610a6c575b6000526000875260406000208460005287528460406000205416610a29575b60005260008652604060002083600052865283604060002054166109ea575b60005260008552604060002082600052855282604060002054166109a9575b60005260008452604060002090600052835260406000205416610965575b505060405191829182613e27565b0390f35b6109a19164212aaca2a960d91b6040519161097f83613c1f565b600583528201526109908285614842565b5261099b8184614842565b50614802565b508280610953565b926109e4906040516109ba81613c1f565b600981526824a729a822a1aa27a960b91b878201526109d98289614842565b5261099b8188614842565b92610935565b93610a23906040516109fb81613c1f565b600781526620aaa224aa27a960c91b88820152610a18828a614842565b5261099b8189614842565b93610916565b94610a6690604051610a3a81613c1f565b600b81526a2a2920a729a827a92a22a960a91b89820152610a5b828b614842565b5261099b818a614842565b946108f7565b95610aa590604051610a7d81613c1f565b60078152662922a324a722a960c91b8a820152610a9a828c614842565b5261099b818b614842565b956108d8565b96610ae290604051610abc81613c1f565b600581526426a4a722a960d91b8b820152610ad7828d614842565b5261099b818c614842565b966108b9565b9750604051610af681613c1f565b600581526420a226a4a760d91b8a820152610b108b614835565b52610b1a8a614835565b5060019761089a565b60608b82018b0152890161086a565b97610b3c90614802565b9761083f565b96610b4c90614802565b9661080f565b95610b5c90614802565b956107df565b94610b6c90614802565b946107b0565b93610b7c90614802565b93610781565b92610b8c90614802565b92610751565b60019250610721565b60405163200db56f60e11b8152600490fd5b3461036957602036600319011261036957610bc6613bbc565b6001600160a01b03166000908152600080516020614a11833981519152602090815260409182902054915160ff9092161515825290f35b3461036957604036600319011261036957610c3c600435610c1c613bd2565b90806000526000602052610c37600160406000200154614020565b61463a565b005b3461036957602036600319011261036957610c57613bbc565b6001600160a01b038116908115610b9b57610c70613fe6565b610c7981613fbb565b610cf857610c869061429e565b506000805160206149b183398151915260005260046020527f9d423956391424a558206d539d4c7b96f2596f9d71b6fe92efe1f071a870ba948054610cca90614802565b90557f49cc27c2a068c01cf703c3923dfc679109b5f6c27bd1f61b542c159e3a73e0926020604051428152a2005b6040516314726de560e21b8152600490fd5b3461036957602036600319011261036957600435600080516020614a5183398151915281148015610ddd575b8015610dc6575b8015610daf575b8015610d98575b8015610d81575b15610d6f5760005260046020526020604060002054604051908152f35b604051636b9c461160e01b8152600490fd5b50600080516020614a318339815191528114610d52565b506000805160206149b18339815191528114610d4b565b50600080516020614a718339815191528114610d44565b506000805160206149918339815191528114610d3d565b50600080516020614a918339815191528114610d36565b3461036957602080600319360112610369576004356001600160401b03811161036957610e25903690600401613c5b565b60008051602061499183398151915260005260008252604060002033600052825260ff604060002054161580610fad575b61061657604051610e84825191848181860194610e74818388613cb1565b8101600581520301902054613d57565b15610f895782610e9f91604051809381928651928391613cb1565b60059082019081520301902060028101546001600160a01b031633141580610f66575b610f4a577fc3dd1ec3ad39ee10242cb8244996d8e8c1c5ded2e9ed1bedae20ee05fa04fac392600960409242600682015501610f07610f018254613d57565b826146b4565b69125397d514905394d25560b21b90601482019055610f30835194606086526060860190613cd4565b91848303928382870152600a8152015242828401520190a1005b6040516352be09df60e01b8152806105dc3385600484016148e8565b506000805260008352604060002033600052835260ff6040600020541615610ec2565b50906105dc604051928392631a599d5b60e01b845260048401526024830190613cd4565b506000805260008252604060002033600052825260ff6040600020541615610e56565b3461036957602036600319011261036957610fe9613bbc565b6001600160a01b031660009081527fad3228b676f7d3cd4284a5443f17f1962b36e491b30a40b2405849e597ba5fb5602090815260409182902054915160ff9092161515825290f35b346103695760203660031901126103695761104b613bbc565b6001600160a01b03166000908152600080516020614951833981519152602090815260409182902054915160ff9092161515825290f35b3461036957600036600319011261036957600460209081527f973ccc145476ef147b966a44694f8b2d26bac5a3d44a844fec6be696fe5fea70547f02ff85b9f193a3a7824cbaf5a79db262c0bac955152adf2752c6413d76b2d3c7547f0e08e55c6329ca2d4f38429c472032b4e97537c869a64c376bb7e702721eb8c3547fa792fa383e6bd9c6b4465bbfd8031f4b47377210fa121067c03906e9afac6246547f9d423956391424a558206d539d4c7b96f2596f9d71b6fe92efe1f071a870ba9454600080516020614a318339815191526000527f5455ba4b8a75b33fa0f1f7affd9817680912f06b7b194bcf9ac01183c4930020546040805196875296860194909452948401919091526060830152608082019290925260a081019190915260c090f35b346103695760203660031901126103695760043560005260046020526020604060002054604051908152f35b3461036957602080600319360112610369576004356001600160401b03811161036957611204903690600401613c5b565b8051156112825760405161123e611245835192858181870195611228818389613cb1565b8101600281520301902060405192838092613d91565b0382613c3a565b83815191012090825190200361125f575060405160018152f35b906105dc6040519283926311bb0bc960e31b845260048401526024830190613cd4565b906105dc60405192839263f855236d60e01b845260048401526024830190613cd4565b34610369576020366003190112610369576112be613bbc565b6001600160a01b03166000908152600080516020614911833981519152602090815260409182902054915160ff9092161515825290f35b346103695760203660031901126103695761130e613bbc565b6001600160a01b038116908115610b9b57611327613fe6565b61133081613f90565b610cf85761133d90614227565b5060008051602061499183398151915260005260046020527f0e08e55c6329ca2d4f38429c472032b4e97537c869a64c376bb7e702721eb8c3805461138190614802565b90557f964e50cb3bdb84c00a30f56ae15d538d23dc6db14f891d7d819761b161e990a66020604051428152a2005b3461036957600036600319011261036957602060405160008152f35b34610369576113d936613cf9565b6113e1613fe6565b6113ea82613f0f565b156103575761032e7f69e94e373f69f3f945457a07b335722310788af9cd459a33df6f72cc9e96404391600080516020614a3183398151915280600052600060205261143d600160406000200154614020565b6103e985614466565b346103695761145436613e89565b336000908152600080516020614971833981519152602090815260409091205491929160ff161561061657604051600160ff600a85519385818189019661149c81838a613cb1565b81016002815203019020015460b81c161515146115215791600a6114f061151c937f3a9eebd240f4c9f631531ebc672c4c040de483b868ccebe8a3a1fdad70cde0d995604051809381928751928391613cb1565b8101600281520301902001600160b81b60ff60b81b1982541617905560405191829133954291846147e2565b0390a2005b506105dc604051928392636f5f944160e11b845260048401526024830190613cd4565b34610369576020366003190112610369576004356001600160401b038111610369576115e1602061157c610961933690600401613c5b565b606061014060405161158d81613be8565b828152600085820152600060408201528280820152826080820152600060a0820152600060c0820152600060e082015260006101008201528261012082015201528160405193828580945193849201613cb1565b81016005815203019020600a6116b7604051926115fd84613be8565b60405161160e8161123e8185613d91565b845260018101546001600160a01b039081166020860152600282015416604080860191909152516116468161123e8160038601613d91565b606085015260405161165f8161123e8160048601613d91565b6080850152600581015460a0850152600681015460c0850152600781015460e085015260088101546101008501526040516116a18161123e8160098601613d91565b61012085015261123e6040518094819301613d91565b610140820152604051918291602083526116df81516101606020860152610180850190613cd4565b60018060a01b03602083015116604085015260018060a01b03604083015116606085015261014061177b61173c611728606086015194601f1995868a83030160808b0152613cd4565b6080860151858983030160a08a0152613cd4565b60a085015160c088015260c085015160e088015260e0850151610100880152610100850151610120880152610120850151848883030184890152613cd4565b9201519084830301610160850152613cd4565b34610369576040366003190112610369576117a7613bd2565b600435600052600060205260406000209060018060a01b0316600052602052602060ff604060002054166040519015158152f35b34610369576020366003190112610369576117f4613bbc565b6001600160a01b03166000908152600080516020614971833981519152602090815260409182902054915160ff9092161515825290f35b3461036957602080600319360112610369576004356001600160401b0381116103695761185c903690600401613c5b565b6040519080519061123e61189385830193611878818787613cb1565b85019486816002978881520301902060405192838092613d91565b8481519101208151908184201490811591611a47575b50611a35578284916118c360405194859251928391613cb1565b830192828160039586815203019020908154906118df8261481e565b946118ed6040519687613c3a565b82865284860191829460005285600020916000935b8585106119b357604080518981528a51818b01819052600092600582901b83018101918b918d9085015b8287106119395785850386f35b909192938280600192603f19898203018552875190611988611976611966845160a0808652850190613cd4565b8585015184820387860152613cd4565b60408401518382036040850152613cd4565b916060868060a01b03818301511690830152608080910151910152960192019601959291909261192c565b60058860019260409b9a9b516119c881613c04565b6040516119d98161123e818c613d91565b81526040516119ee8161123e81898d01613d91565b83820152604051611a058161123e818b8d01613d91565b6040820152848060a01b038689015416606082015260048801546080820152815201940194019392979697611902565b6040516329d7b10b60e11b8152600490fd5b905015856118a9565b3461036957611a5e36613e89565b336000908152600080516020614a11833981519152602090815260409091205491929160ff161561061657604051600160ff600a855193858181890196611aa681838a613cb1565b81016002815203019020015460a81c16151514611b265791600a611afa61151c937fa214f45af6d86b0d5ff7bb48f888cf4205e4a383da35fcbebfdbd9bd8e6d5a7c95604051809381928751928391613cb1565b8101600281520301902001600160a81b60ff60a81b1982541617905560405191829133954291846147e2565b506105dc60405192839263701203b760e01b845260048401526024830190613cd4565b3461036957611b5736613cf9565b611b5f613fe6565b611b6882613f90565b156103575761032e7f71577b91708c73ee54b43c6709958ff42e4bcc084910648ce7c3d16928b51d5291600080516020614991833981519152806000526000602052611bbb600160406000200154614020565b6103e9856143f1565b34610369576000366003190112610369576020604051600080516020614a318339815191528152f35b3461036957604036600319011261036957611c06613bbc565b6001600160a01b0316600090815260066020526040902080546024359081101561036957611c3391613ecc565b611c615761123e611c4d6109619260405192838092613d91565b604051918291602083526020830190613cd4565b634e487b7160e01b600052600060045260246000fd5b34610369576000366003190112610369576020604051600080516020614a918339815191528152f35b3461036957602080600319360112610369576004356001600160401b03811161036957611cd1903690600401613c5b565b906000805260008152604060002033600052815260ff60406000205416156106165760405161123e611d10845192848181880195611228818389613cb1565b8281519101208351908183201490811591611e6b575b50611a355760ff600a60405184818751611d41818389613cb1565b81016002815203019020015460b01c1680611e3f575b15611e1c579060ff600a611dfd83604096958751606081527f10f4ba4c7bb6f0c442f54585004a6e24440bea5c2d2e6f36b688e3e624762e22611d9d606083018a613cd4565b916b54726164696e67526561647960a01b85828503948582850152600c81520152428b8201528a33930190a28484895184818b51611ddc818389613cb1565b81016002815203019020015460b01c16968851938492839251928391613cb1565b81016002815203019020015460b81c1683519215158352151590820152f35b506105dc6040519283926348cddbdb60e11b845260048401526024830190613cd4565b5060ff600a60405184818751611e56818389613cb1565b81016002815203019020015460b81c16611d57565b90501584611d26565b3461036957602036600319011261036957611e8d613bbc565b6001600160a01b031660009081526000805160206149f1833981519152602090815260409182902054915160ff9092161515825290f35b34610369576000366003190112610369576020604051600080516020614a718339815191528152f35b34610369576000366003190112610369576020604051600080516020614a518339815191528152f35b3461036957602036600319011261036957611f2f613bbc565b6001600160a01b038116908115610b9b57611f48613fe6565b611f5181613f65565b610cf857611f5e906141b0565b50600080516020614a9183398151915260005260046020527f02ff85b9f193a3a7824cbaf5a79db262c0bac955152adf2752c6413d76b2d3c78054611fa290614802565b90557f4e3eede475de92d3e23765b737dbb67646352b3328c1a437d7f089766d7be7516020604051428152a2005b34610369576020366003190112610369576004356001600160401b03811161036957612000903690600401613c5b565b604051818180935160208193019161201792613cb1565b810160028152036020019020604051806120318184613d91565b0361203c9082613c3a565b604051918261204e8160018401613d91565b036120599084613c3a565b6040518061206a8160028501613d91565b036120759082613c3a565b60405191826120878160038401613d91565b036120929084613c3a565b600481015460058201546040519491856120af8160068701613d91565b036120ba9087613c3a565b60078401546040516001600160a01b03979093918816929091846120e18160088a01613d91565b036120ec9086613c3a565b60405195866120fe8160098b01613d91565b036121099088613c3a565b600a88015497600b0154986040519c8d9c8d610200908181520161212c91613cd4565b8d810360208f015261213d91613cd4565b8c810360408e015261214e91613cd4565b8b810360608d015261215f91613cd4565b9160808b015260a08a015288810360c08a015261217b91613cd4565b9060e088015286810361010088015261219391613cd4565b8581036101208701526121a591613cd4565b9281166101408501528060a01c60ff1615156101608501528060a81c60ff1615156101808501528060b01c60ff1615156101a085015260b81c60ff1615156101c08401526101e08301520390f35b34610369576060366003190112610369576004356001600160401b03811161036957612223903690600401613c5b565b61222b613bd2565b90612234613fe6565b6040518151612250602092838181870194610e74818388613cb1565b156123f257600080516020614991833981519152600081815280845260408082206001600160a01b0390971680835296855290205460ff16156123d457506122a682600992604051809381928851928391613cb1565b8101600581520301902060028101856001600160601b0360a01b825416179055604435600782015501906122e36122dd8354613d57565b836146b4565b671054d4d251d3915160c21b91601083019055836000526006815260406000208054600160401b8110156123be5761232091600182018155613ecc565b929092611c61577fc3dd1ec3ad39ee10242cb8244996d8e8c1c5ded2e9ed1bedae20ee05fa04fac394612355856040956146de565b7fa2228ff5a947c697650afc815870b3dbbd2fd135e3655504861da0171e1c296484518581528061238887820189613cd4565b42878301520390a26123a4835194606086526060860190613cd4565b9184830392838287015260088152015242828401520190a1005b634e487b7160e01b600052604160045260246000fd5b84604491604051916302110df160e61b835260048301526024820152fd5b506105dc604051928392631a599d5b60e01b845260048401526024830190613cd4565b346103695760003660031901126103695760206040516000805160206149918339815191528152f35b346103695761244c36613e89565b336000908152600080516020614911833981519152602090815260409091205491929160ff161561061657604051600160ff600a85519385818189019661249481838a613cb1565b81016002815203019020015460b01c161515146125145791600a6124e861151c937fa9de1934279a83f8cfaaecf6a7002ac10aeaea244c8c763f3752f3fc4c3e631d95604051809381928751928391613cb1565b8101600281520301902001600160b01b60ff60b01b1982541617905560405191829133954291846147e2565b506105dc60405192839263c817400d60e01b845260048401526024830190613cd4565b34610369576020366003190112610369576004356001600160401b03811161036957612567903690600401613c5b565b604051818180935160208193019161257e92613cb1565b810160058152036020019020604051806125988184613d91565b036125a39082613c3a565b600182015460028301546040516001600160a01b03918216949290911690806125cf8160038601613d91565b036125da9082613c3a565b60405190816125ec8160048701613d91565b036125f79083613c3a565b600584015491600685015460078601549160088701549360405196878060098b019061262291613d91565b0361262d9089613c3a565b60405180600a819b019061264091613d91565b0361264b908a613c3a565b6040519a8b9a610160808d528c0161266291613cd4565b9160208c015260408b015289810360608b015261267e91613cd4565b88810360808a015261268f91613cd4565b9360a088015260c087015260e08601526101008501528381036101208501526126b791613cd4565b82810361014084015261096191613cd4565b34610369576020366003190112610369576126e2613bbc565b6001600160a01b038116908115610b9b576126fb613fe6565b61270481613f3a565b610cf85761271190614139565b50600080516020614a7183398151915260005260046020527fa792fa383e6bd9c6b4465bbfd8031f4b47377210fa121067c03906e9afac6246805461275590614802565b90557f4a02edd19f09212e54b2ac85d7d3a4a2e3fbf424e6710c3f817d9b4cecc9cdb36020604051428152a2005b3461036957602080600319360112610369576001600160a01b036127a5613bbc565b1660005260068152604060002080546127bd8161481e565b916127cb6040519384613c3a565b8183526000908152838120938084015b8383106127f057604051806109618782613e27565b60018281926040516128068161123e818d613d91565b8152019601920191946127db565b346103695760c0366003190112610369576004356001600160401b03811161036957612844903690600401613c5b565b6024356001600160401b03811161036957612863903690600401613c5b565b6064356001600160401b03811161036957612882903690600401613c5b565b9160a4356001600160401b038111610369576128a2903690600401613c5b565b3360009081526000805160206149d1833981519152602052604090205490929060ff161561061657815115612ece578351156105f257805115612ebc5760443515612eaa57608435158015612e9e575b612e8c5760506084351115612e7257825115612e605760015461291481614802565b60015560405161295a60748260208101948651612935818860208b01613cb1565b8201903360601b60208301524260348301526054820152036054810184520182613c3a565b519020926040519361296b85613c1f565b600a855260203681870137845115612e4a5760306020860153845160011015612e4a576078602186015360005b60048110612db75750506129ed6021604051809685516129bf816020850160208a01613cb1565b8201602d60f81b60208201526129de8251809360208785019101613cb1565b01036001810187520185613c3a565b60405190816102008101106001600160401b03610200840111176123be576102008201604052848252836020830152856040830152826060830152604435608083015260843560a083015260c08201523360e0820152604051612a4f81613c1f565b600381526252617760e81b6020820152610100820152604051612a7181613c1f565b600d81526c26b4b734b7339021b2b73a32b960991b6020820152610120820152336101408201526000610160820152600061018082015260006101a082015260006101c0820152426101e0820152600b6101e06040516020818851612ad98183858d01613cb1565b8101600281520301902092612aef8151856146de565b612b006020820151600186016146de565b612b116040820151600286016146de565b612b226060820151600386016146de565b6080810151600485015560a08101516005850155612b4760c0820151600686016146de565b60018060a01b0360e0820151166001600160601b0360a01b600786015416176007850155612b7d610100820151600886016146de565b612b8f610120820151600986016146de565b600a840160018060a01b036101408301511681549060ff60a01b610160850151151560a01b1660ff60a81b610180860151151560a81b169060ff60b01b6101a0870151151560b01b169260ff60b81b6101c0880151151560b81b16946001600160401b0360c01b161717171717905501519101556040516020818551612c188183858a01613cb1565b81016003815203019020936040519467027b934b3b4b71d160c51b6020870152612c606028878451612c508184840160208901613cb1565b8101036008810189520187613c3a565b60405195612c6d87613c04565b858752604051612c7c81613c1f565b600a815269149959da5cdd195c995960b21b6020820152602088015260408701523360608701524260808701528054600160401b8110156123be57612cc691600182018155613d3b565b919091611c615761059d7f73c819068ba25b88a32cb91f9b552ab50d9cccb7c4abdeb2a04f44373b71539393612d8693600460808a612d096109619c51856146de565b612d1a6020820151600186016146de565b612d2b6040820151600286016146de565b6003840160018060a01b036060830151166001600160601b0360a01b8254161790550151910155612d786040519660e08852612d6a60e089018a613cd4565b9088820360208a0152613cd4565b908682036040880152613cd4565b91604435608082015260843560a08201524260c08201528033930390a2604051918291602083526020830190613cd4565b6020811015612e4a5781811a90600f612dd4818460041c16614867565b908260011b936002848604811485151715612e3457858101809111612e3457612e04612e0b9460001a918c614856565b5316614867565b916003908101809111612e3457612e29612e2f9360001a9189614856565b53614802565b612998565b634e487b7160e01b600052601160045260246000fd5b634e487b7160e01b600052603260045260246000fd5b60405163bfccc8e960e01b8152600490fd5b60405163d05db01960e01b81526084356004820152602490fd5b604051633abe7db760e21b8152600490fd5b506064608435116128f2565b60405163fd83f8d960e01b8152600490fd5b60405163a765e58f60e01b8152600490fd5b604051630ac6e45360e31b8152600490fd5b3461036957604036600319011261036957612ef9613bd2565b336001600160a01b03821603612f1557610c3c9060043561463a565b60405163334bd91960e11b8152600490fd5b34610369576040366003190112610369576004356001600160401b03811161036957612f57903690600401613c5b565b612f736020602435928160405193828580945193849201613cb1565b8101600381520301902080548210156103695761300291612f9391613d3b565b5060405190612fad82612fa68184613d91565b0383613c3a565b604051612fc18161123e8160018601613d91565b61301e604051612fd88161123e8160028801613d91565b613010600460018060a01b036003870154169501549360405197889760a0895260a0890190613cd4565b908782036020890152613cd4565b908582036040870152613cd4565b91606084015260808301520390f35b3461036957602036600319011261036957613046613bbc565b6001600160a01b031660009081526000805160206149d1833981519152602090815260409182902054915160ff9092161515825290f35b346103695761308b36613cf9565b613093613fe6565b61309c82613ee4565b156103575761032e7f125f88db22967983b401f70f6804d47f43cb545fcb725d0b335fe7d43d9b4a4a91600080516020614a518339815191528060005260006020526130ef600160406000200154614020565b6103e98561437c565b3461036957604036600319011261036957610c3c600435613117613bd2565b90806000526000602052613132600160406000200154614020565b614315565b346103695760203660031901126103695760043560005260006020526020600160406000200154604051908152f35b346103695760a0366003190112610369576001600160401b0360043581811161036957613197903690600401613c5b565b90602435818111610369576131b0903690600401613c5b565b604435828111610369576131c8903690600401613c5b565b91608435908111610369576131e1903690600401613c5b565b3360009081526000805160206149d18339815191526020526040902054600080516020614a518339815191529060ff161561345257508351156134305760405160018551613233818460208a01613cb1565b82019160058352602081838060a01b03940301902001541661340e57916133e96133f7926133c67f2c021d270a9b743f31f9d61a02dcb260e441c140f40bca1570472176545d9ba0956040519061328982613be8565b8882523360208301526000604083015283606083015285608083015260643560a0830152600060c0830152600060e083015260006101008301526040516132cf81613c1f565b6009815268149154555154d5115160ba1b6020820152610120830152610140820152600a61014061330f60208b8160405193828580945193849201613cb1565b81016005815203019020926133258151856146de565b60208101516001850180546001600160a01b039283166001600160a01b0319918216179091556040830151600287018054919093169116179055606081015161337190600386016146de565b6133826080820151600486016146de565b60a0810151600585015560c0810151600685015560e0810151600785015561010081015160088501556133bd610120820151600986016146de565b015191016146de565b6133db6040519660a0885260a0880190613cd4565b908682036020880152613cd4565b908482036040860152613cd4565b9160643560608201524260808201528033930390a2005b60405163154d07f960e31b815260206004820152806105dc6024820187613cd4565b604051631a599d5b60e01b815260206004820152806105dc6024820187613cd4565b6044906040519063e2517d3f60e01b82523360048301526024820152fd5b3461036957602080600319360112610369576004356001600160401b038111610369576134a1903690600401613c5b565b60008051602061499183398151915260005260008252604060002033600052825260ff604060002054161580613633575b610616576040516134f0825191848181860194610e74818388613cb1565b15610f89578261350b91604051809381928651928391613cb1565b60059082019081520301902060028101546001600160a01b031633141580613610575b610f4a577fc3dd1ec3ad39ee10242cb8244996d8e8c1c5ded2e9ed1bedae20ee05fa04fac3926040914260088201556135a46004600983019261357a6135748554613d57565b856146b4565b6811115312559154915160ba1b9360128501905561359d86518093819301613d91565b0390613c3a565b82518381527faa8688d51e209ee0369da84fccd2f38698f1b56fe54976facc12e3cd14e27fae6135d685830187613cd4565b9142858201528033930390a26135f6835194606086526060860190613cd4565b9184830392838287015260098152015242828401520190a1005b506000805260008352604060002033600052835260ff604060002054161561352e565b506000805260008252604060002033600052825260ff60406000205416156134d2565b3461036957602080600319360112610369576004356001600160401b03811161036957613687903690600401613c5b565b90600080516020614a3183398151915260005260008152604060002033600052815260ff9182604060002054161561061657604051815193838301946136ce818488613cb1565b8201906001816002938481528588600a97889303019020015460a01c1615151461396957600080526000855260406000203360005285528060406000205416156106165761123e61374160405187818061372c8c8b51928391613cb1565b81018781520301902060405192838092613d91565b8581519101208451908188201490811591613960575b50611a355780836040518781806137728c8b51928391613cb1565b810187815203019020015460b01c1680613935575b1561391357604051606081527f10f4ba4c7bb6f0c442f54585004a6e24440bea5c2d2e6f36b688e3e624762e226137c16060830187613cd4565b916b54726164696e67526561647960a01b88828503948582850152600c81520152426040820152604033930190a280836040518781806138058c8b51928391613cb1565b810187815203019020015460b01c16908360405187818061382a8c8b51928391613cb1565b810187815203019020015460b81c168161390b575b50156138e957837ffed1001c142a7ab386454a2f7d78b013ba7ff40595d10c128f2fb6463ccd7b7a94956138ad928460405184818951613880818389613cb1565b81018581520301902001805460ff60a01b1916600160a01b17905560405186519094859382908590613cb1565b8201908152030190200180546001600160a01b0319163317905560408051818152916138db91830190613cd4565b9242908201528033930390a2005b6040516348cddbdb60e11b815260048101859052806105dc6024820186613cd4565b90508661383f565b6040516348cddbdb60e11b815260048101869052806105dc6024820187613cd4565b50808360405187818061394c8c8b51928391613cb1565b810187815203019020015460b81c16613787565b90501587613757565b604051632072bb0160e11b815260048101869052806105dc6024820187613cd4565b34610369576020366003190112610369576139a4613bbc565b6001600160a01b038116908115610b9b576139bd613fe6565b6139c681613f0f565b610cf8576139d3906140c2565b50600080516020614a3183398151915260005260046020527f5455ba4b8a75b33fa0f1f7affd9817680912f06b7b194bcf9ac01183c49300208054613a1790614802565b90557ff8ed9ac482b0f7c12999b3f157f758f84e39cd339fa301ea203823ac29e975056020604051428152a2005b34610369576020366003190112610369576004356001600160401b0381116103695761123e611c4d6009613a986020613a85610961963690600401613c5b565b8160405193828580945193849201613cb1565b810160058152030190200160405192838092613d91565b3461036957602036600319011261036957613ac8613bbc565b6001600160a01b038116908115610b9b57613ae1613fe6565b613aea81613ee4565b610cf857613af790614046565b50600080516020614a5183398151915260005260046020527f973ccc145476ef147b966a44694f8b2d26bac5a3d44a844fec6be696fe5fea708054613b3b90614802565b90557f593f046317558c2857b92915c62c99f2d2108f7bc6f1e1b3c5376cd559abf5596020604051428152a2005b34610369576020366003190112610369576004359063ffffffff60e01b821680920361036957602091637965db0b60e01b8114908115613bab575b5015158152f35b6301ffc9a760e01b14905083613ba4565b600435906001600160a01b038216820361036957565b602435906001600160a01b038216820361036957565b61016081019081106001600160401b038211176123be57604052565b60a081019081106001600160401b038211176123be57604052565b604081019081106001600160401b038211176123be57604052565b90601f801991011681019081106001600160401b038211176123be57604052565b81601f82011215610369578035906001600160401b0382116123be5760405192613c8f601f8401601f191660200185613c3a565b8284526020838301011161036957816000926020809301838601378301015290565b60005b838110613cc45750506000910152565b8181015183820152602001613cb4565b90602091613ced81518092818552858086019101613cb1565b601f01601f1916010190565b906040600319830112610369576004356001600160a01b03811681036103695791602435906001600160401b03821161036957613d3891600401613c5b565b90565b8054821015612e4a576000526005602060002091020190600090565b90600182811c92168015613d87575b6020831014613d7157565b634e487b7160e01b600052602260045260246000fd5b91607f1691613d66565b9060009291805491613da283613d57565b918282526001938481169081600014613e045750600114613dc4575b50505050565b90919394506000526020928360002092846000945b838610613df0575050505001019038808080613dbe565b805485870183015294019385908201613dd9565b9294505050602093945060ff191683830152151560051b01019038808080613dbe565b602080820190808352835180925260408301928160408460051b8301019501936000915b848310613e5b5750505050505090565b9091929394958480613e79600193603f198682030187528a51613cd4565b9801930193019194939290613e4b565b906040600319830112610369576001600160401b036004358181116103695783613eb591600401613c5b565b9260243591821161036957613d3891600401613c5b565b8054821015612e4a5760005260206000200190600090565b6001600160a01b031660009081526000805160206149d1833981519152602052604090205460ff1690565b6001600160a01b03166000908152600080516020614951833981519152602052604090205460ff1690565b6001600160a01b03166000908152600080516020614911833981519152602052604090205460ff1690565b6001600160a01b03166000908152600080516020614a11833981519152602052604090205460ff1690565b6001600160a01b031660009081526000805160206149f1833981519152602052604090205460ff1690565b6001600160a01b03166000908152600080516020614971833981519152602052604090205460ff1690565b3360009081527fad3228b676f7d3cd4284a5443f17f1962b36e491b30a40b2405849e597ba5fb5602052604081205460ff16156134525750565b80600052600060205260406000203360005260205260ff60406000205416156134525750565b6001600160a01b031660008181526000805160206149d18339815191526020526040812054909190600080516020614a518339815191529060ff166140bd57808352826020526040832082845260205260408320600160ff19825416179055600080516020614931833981519152339380a4600190565b505090565b6001600160a01b031660008181526000805160206149518339815191526020526040812054909190600080516020614a318339815191529060ff166140bd57808352826020526040832082845260205260408320600160ff19825416179055600080516020614931833981519152339380a4600190565b6001600160a01b031660008181526000805160206149118339815191526020526040812054909190600080516020614a718339815191529060ff166140bd57808352826020526040832082845260205260408320600160ff19825416179055600080516020614931833981519152339380a4600190565b6001600160a01b03166000818152600080516020614a118339815191526020526040812054909190600080516020614a918339815191529060ff166140bd57808352826020526040832082845260205260408320600160ff19825416179055600080516020614931833981519152339380a4600190565b6001600160a01b031660008181526000805160206149f183398151915260205260408120549091906000805160206149918339815191529060ff166140bd57808352826020526040832082845260205260408320600160ff19825416179055600080516020614931833981519152339380a4600190565b6001600160a01b0316600081815260008051602061497183398151915260205260408120549091906000805160206149b18339815191529060ff166140bd57808352826020526040832082845260205260408320600160ff19825416179055600080516020614931833981519152339380a4600190565b9060009180835282602052604083209160018060a01b03169182845260205260ff604084205416156000146140bd57808352826020526040832082845260205260408320600160ff19825416179055600080516020614931833981519152339380a4600190565b6001600160a01b031660008181526000805160206149d18339815191526020526040812054909190600080516020614a518339815191529060ff16156140bd5780835282602052604083208284526020526040832060ff198154169055600080516020614ab1833981519152339380a4600190565b6001600160a01b031660008181526000805160206149f183398151915260205260408120549091906000805160206149918339815191529060ff16156140bd5780835282602052604083208284526020526040832060ff198154169055600080516020614ab1833981519152339380a4600190565b6001600160a01b031660008181526000805160206149518339815191526020526040812054909190600080516020614a318339815191529060ff16156140bd5780835282602052604083208284526020526040832060ff198154169055600080516020614ab1833981519152339380a4600190565b6001600160a01b0316600081815260008051602061497183398151915260205260408120549091906000805160206149b18339815191529060ff16156140bd5780835282602052604083208284526020526040832060ff198154169055600080516020614ab1833981519152339380a4600190565b6001600160a01b03166000818152600080516020614a118339815191526020526040812054909190600080516020614a918339815191529060ff16156140bd5780835282602052604083208284526020526040832060ff198154169055600080516020614ab1833981519152339380a4600190565b6001600160a01b031660008181526000805160206149118339815191526020526040812054909190600080516020614a718339815191529060ff16156140bd5780835282602052604083208284526020526040832060ff198154169055600080516020614ab1833981519152339380a4600190565b9060009180835282602052604083209160018060a01b03169182845260205260ff6040842054166000146140bd5780835282602052604083208284526020526040832060ff198154169055600080516020614ab1833981519152339380a4600190565b8181106146a8575050565b6000815560010161469d565b90601f81116146c1575050565b6146dc91600052601f6020600020910160051c81019061469d565b565b91909182516001600160401b0381116123be576146fb8254613d57565b601f81116147a5575b50602080601f8311600114614741575081929394600092614736575b50508160011b916000199060031b1c1916179055565b015190503880614720565b90601f198316958460005282600020926000905b88821061478d57505083600195969710614774575b505050811b019055565b015160001960f88460031b161c1916905538808061476a565b80600185968294968601518155019501930190614755565b6147d290836000526020600020601f840160051c810191602085106147d8575b601f0160051c019061469d565b38614704565b90915081906147c5565b9392916147fd906133db604093606088526060880190613cd4565b930152565b6000198114612e345760010190565b8015612e34576000190190565b6001600160401b0381116123be5760051b60200190565b805115612e4a5760200190565b8051821015612e4a5760209160051b010190565b908151811015612e4a570160200190565b60009060ff16600a81101561489357603091500160ff8111612e345760f81b6001600160f81b03191690565b60610160ff81116148d45760ff6009199116019060ff82116148c0575060f81b6001600160f81b03191690565b634e487b7160e01b81526011600452602490fd5b634e487b7160e01b82526011600452602482fd5b90614900602091949394604084526040840190613cd4565b6001600160a01b0390941691015256fe0d2d6a5d08cb5d871289c0a3ca855d9da72909a111c24cce2d5c2b34a20daa542f8788117e7eff1d82e926ec794901d17c78024a50270940304540a733656f0df3fa603c74bfe2a4719960e47343678c3dc690d2b27a2295acc6fc430833aaf9acfff8a39fb957d9d1c8e3ef9f08385e3fcf7bb23ab7ba0ad0f8df93dbde6a68ddaa901e2fe3bda354fe0ede2785152d5c109282a613fe024a056a3e66c41bb3273dcf2136c7d8ef632bb8ef13dbca69a8f36fa620c7468671b3153d46a211c0bb3fcc25fbffa12ea463b3505377899a4d5ddb4858b9c7bd36764686d9425b36bce5fd3347e0dc338dcc0e895534dd4af2740eec95f56cd4ca4b4b2ada357ca04130a4caca6023b0ba21488ee680ce5c3df22860b1cd8b02cd2a0bcb0de98851f8cd32ed93fc2f9fc78152a14807c9609af3d99c5fe4dc6b106a801aaddfe90ea952726ef2588ad078edf35b066f7c7406e207cb0003bbaba8cb53eba9553e7259a1c48e5837ad7a7f3dcedcbe129bf3249ec4fbf651fd4f5e2600ead39fe2f5a977e1a3444218ff332edf735c56487bbe59922b15c88777d443eb8b78020f4df6391f5c32d9c69d2a47ea670b442974b53935d1edc7fd64eb21e047a839171ba26469706673582212201abc4dbea564c8bdda73ad58687dfcf7c1d699d3a977a332c50bfce09e7e768b64736f6c63430008140033",
  "devdoc": {
    "errors": {
      "AccessControlBadConfirmation()": [
        {
          "details": "The caller of a function is not the expected one. NOTE: Don't confuse with {AccessControlUnauthorizedAccount}."
        }
      ],
      "AccessControlUnauthorizedAccount(address,bytes32)": [
        {
          "details": "The `account` is missing a role."
        }
      ]
    },
    "events": {
      "RoleAdminChanged(bytes32,bytes32,bytes32)": {
        "details": "Emitted when `newAdminRole` is set as ``role``'s admin role, replacing `previousAdminRole` `DEFAULT_ADMIN_ROLE` is the starting admin for all roles, despite {RoleAdminChanged} not being emitted signaling this."
      },
      "RoleGranted(bytes32,address,address)": {
        "details": "Emitted when `account` is granted `role`. `sender` is the account that originated the contract call, an admin role bearer except when using {AccessControl-_setupRole}."
      },
      "RoleRevoked(bytes32,address,address)": {
        "details": "Emitted when `account` is revoked `role`. `sender` is the account that originated the contract call:   - if using `revokeRole`, it is the admin role bearer   - if using `renounceRole`, it is the role bearer (i.e. `account`)"
      }
    },
    "kind": "dev",
    "methods": {
      "_auditMineral(string,string)": {
        "details": "only the auditor can audit mineralDetails.Logs audit report on every successful audit.",
        "params": {
          "mineralId": "The ID of the mineral under audition.",
          "report": "The audit status report of the mineral under audition."
        }
      },
      "assignTransporter(string,address,uint256)": {
        "details": "Assign transporter to a request (Admin only)"
      },
      "checkAuditAndInspectionStatus(string)": {
        "details": "checks audit and inspection status",
        "params": {
          "mineralId": "The ID of the mineral to check for audit and inspection status Returns (isValid, isInspected) statuses of both audit and inspection of mineral according to mineralId"
        }
      },
      "completeTransport(string)": {
        "details": "Complete transport (Transporter only)"
      },
      "createTransportRequest(string,string,string,uint256,string)": {
        "details": "Create a new transport request (Miner or Admin only)"
      },
      "getAllRoleCounts()": {
        "details": "Returns all role counts in a single call",
        "returns": {
          "auditorCount": "Number of auditors",
          "buyerCount": "Number of buyers",
          "inspectorCount": "Number of inspectors",
          "minerCount": "Number of miners",
          "refinerCount": "Number of refiners",
          "transporterCount": "Number of transporters"
        }
      },
      "getRoleAdmin(bytes32)": {
        "details": "Returns the admin role that controls `role`. See {grantRole} and {revokeRole}. To change a role's admin, use {_setRoleAdmin}."
      },
      "getRoleMemberCount(bytes32)": {
        "details": "Returns the number of accounts that have a specific role",
        "params": {
          "role": "The role to query member count for"
        },
        "returns": {
          "count": "The number of accounts with the role"
        }
      },
      "getRolesForAddress(address)": {
        "details": "Returns all roles assigned to a given address",
        "params": {
          "account": "The address to check roles for"
        },
        "returns": {
          "roles": "An array of role names the address has"
        }
      },
      "grantRole(bytes32,address)": {
        "details": "Grants `role` to `account`. If `account` had not been already granted `role`, emits a {RoleGranted} event. Requirements: - the caller must have ``role``'s admin role. May emit a {RoleGranted} event."
      },
      "hasMinerRole(address)": {
        "details": "Roles helper functionschecks if an account has a specific role",
        "params": {
          "account": "The address of the account to checked with role association"
        }
      },
      "hasRole(bytes32,address)": {
        "details": "Returns `true` if `account` has been granted `role`."
      },
      "inspectMineral(string,string)": {
        "details": "only the inspector can inspect mineralDetailsLogs audit report on every successful inspection",
        "params": {
          "mineralId": "The ID of the mineral under inspection",
          "report": "The inspection status report of the mineral under inspection"
        }
      },
      "isMineralRegistered(string)": {
        "details": "checks if a mineral with the given ID is registered",
        "params": {
          "mineralId": "the ID of the mineral to check"
        },
        "returns": {
          "_0": "A boolean indicating whether the mineral is registered or not"
        }
      },
      "purchaseMineral(string)": {
        "details": "Only the buyer can purchase mineralDetails",
        "params": {
          "mineralId": "The ID of the mineral under purchase"
        }
      },
      "refineMineral(string,string)": {
        "details": "only the refiner can refiner a mineral",
        "params": {
          "mineralId": "The ID of the mineral under refinery"
        }
      },
      "registerMineral(string,string,uint256,string,uint256,string)": {
        "details": "Register a new mineral - only by miner.Every mineral is assigned a unique mineralId.",
        "params": {
          "_mineralType": "The type of a mineral.",
          "_name": "Mineral name.",
          "_origin": "Mineral Origin.",
          "_purityPercentage": "Mineral purity in percentage.",
          "_storageConditions": "Mineral Storage conditions.",
          "_weight": "Mineral weight in uint256."
        }
      },
      "renounceRole(bytes32,address)": {
        "details": "Revokes `role` from the calling account. Roles are often managed via {grantRole} and {revokeRole}: this function's purpose is to provide a mechanism for accounts to lose their privileges if they are compromised (such as when a trusted device is misplaced). If the calling account had been revoked `role`, emits a {RoleRevoked} event. Requirements: - the caller must be `callerConfirmation`. May emit a {RoleRevoked} event."
      },
      "revokeRole(bytes32,address)": {
        "details": "Revokes `role` from `account`. If `account` had been granted `role`, emits a {RoleRevoked} event. Requirements: - the caller must have ``role``'s admin role. May emit a {RoleRevoked} event."
      },
      "startTransport(string)": {
        "details": "Start transport (Transporter only)"
      },
      "supportsInterface(bytes4)": {
        "details": "See {IERC165-supportsInterface}."
      },
      "transferMineral(string,address,string,string)": {
        "details": "only the transporter can transport mineralDetails",
        "params": {
          "_destination": "The Destination area of the mineral(string)",
          "_origin": "The Original location of the mineral under transportation",
          "_receivingParty": "The address of the destination portal",
          "mineralId": "The ID of the mineral under transportation"
        }
      }
    },
    "version": 1
  },
  "userdoc": {
    "kind": "user",
    "methods": {
      "_auditMineral(string,string)": {
        "notice": "Emits MineralAudited event."
      },
      "inspectMineral(string,string)": {
        "notice": "Emits MineralInspected event on successful inspection"
      },
      "purchaseMineral(string)": {
        "notice": "Emits MineralPurchased event on successful purchase"
      },
      "refineMineral(string,string)": {
        "notice": "Emits MineralRefined event on successfl refining process"
      },
      "registerMineral(string,string,uint256,string,uint256,string)": {
        "notice": "Emits MineralRegistered event on successful registration."
      },
      "transferMineral(string,address,string,string)": {
        "notice": "Emits MineralTransported on successful transportation"
      }
    },
    "version": 1
  },
  "storageLayout": {
    "storage": [
      {
        "astId": 26,
        "contract": "contracts/modules/LogisticsManager.sol:LogisticsManager",
        "label": "_roles",
        "offset": 0,
        "slot": "0",
        "type": "t_mapping(t_bytes32,t_struct(RoleData)21_storage)"
      },
      {
        "astId": 3707,
        "contract": "contracts/modules/LogisticsManager.sol:LogisticsManager",
        "label": "nonce",
        "offset": 0,
        "slot": "1",
        "type": "t_uint256"
      },
      {
        "astId": 3712,
        "contract": "contracts/modules/LogisticsManager.sol:LogisticsManager",
        "label": "mineralDetails",
        "offset": 0,
        "slot": "2",
        "type": "t_mapping(t_string_memory_ptr,t_struct(MineralDetails)3689_storage)"
      },
      {
        "astId": 3718,
        "contract": "contracts/modules/LogisticsManager.sol:LogisticsManager",
        "label": "mineralHistories",
        "offset": 0,
        "slot": "3",
        "type": "t_mapping(t_string_memory_ptr,t_array(t_struct(MineralHistory)3700_storage)dyn_storage)"
      },
      {
        "astId": 3722,
        "contract": "contracts/modules/LogisticsManager.sol:LogisticsManager",
        "label": "roleMemberCount",
        "offset": 0,
        "slot": "4",
        "type": "t_mapping(t_bytes32,t_uint256)"
      },
      {
        "astId": 7048,
        "contract": "contracts/modules/LogisticsManager.sol:LogisticsManager",
        "label": "transportDetails",
        "offset": 0,
        "slot": "5",
        "type": "t_mapping(t_string_memory_ptr,t_struct(TransportDetails)7043_storage)"
      },
      {
        "astId": 7053,
        "contract": "contracts/modules/LogisticsManager.sol:LogisticsManager",
        "label": "transporterAssignments",
        "offset": 0,
        "slot": "6",
        "type": "t_mapping(t_address,t_array(t_string_storage)dyn_storage)"
      }
    ],
    "types": {
      "t_address": {
        "encoding": "inplace",
        "label": "address",
        "numberOfBytes": "20"
      },
      "t_array(t_string_storage)dyn_storage": {
        "base": "t_string_storage",
        "encoding": "dynamic_array",
        "label": "string[]",
        "numberOfBytes": "32"
      },
      "t_array(t_struct(MineralHistory)3700_storage)dyn_storage": {
        "base": "t_struct(MineralHistory)3700_storage",
        "encoding": "dynamic_array",
        "label": "struct RolesManager.MineralHistory[]",
        "numberOfBytes": "32"
      },
      "t_bool": {
        "encoding": "inplace",
        "label": "bool",
        "numberOfBytes": "1"
      },
      "t_bytes32": {
        "encoding": "inplace",
        "label": "bytes32",
        "numberOfBytes": "32"
      },
      "t_mapping(t_address,t_array(t_string_storage)dyn_storage)": {
        "encoding": "mapping",
        "key": "t_address",
        "label": "mapping(address => string[])",
        "numberOfBytes": "32",
        "value": "t_array(t_string_storage)dyn_storage"
      },
      "t_mapping(t_address,t_bool)": {
        "encoding": "mapping",
        "key": "t_address",
        "label": "mapping(address => bool)",
        "numberOfBytes": "32",
        "value": "t_bool"
      },
      "t_mapping(t_bytes32,t_struct(RoleData)21_storage)": {
        "encoding": "mapping",
        "key": "t_bytes32",
        "label": "mapping(bytes32 => struct AccessControl.RoleData)",
        "numberOfBytes": "32",
        "value": "t_struct(RoleData)21_storage"
      },
      "t_mapping(t_bytes32,t_uint256)": {
        "encoding": "mapping",
        "key": "t_bytes32",
        "label": "mapping(bytes32 => uint256)",
        "numberOfBytes": "32",
        "value": "t_uint256"
      },
      "t_mapping(t_string_memory_ptr,t_array(t_struct(MineralHistory)3700_storage)dyn_storage)": {
        "encoding": "mapping",
        "key": "t_string_memory_ptr",
        "label": "mapping(string => struct RolesManager.MineralHistory[])",
        "numberOfBytes": "32",
        "value": "t_array(t_struct(MineralHistory)3700_storage)dyn_storage"
      },
      "t_mapping(t_string_memory_ptr,t_struct(MineralDetails)3689_storage)": {
        "encoding": "mapping",
        "key": "t_string_memory_ptr",
        "label": "mapping(string => struct RolesManager.MineralDetails)",
        "numberOfBytes": "32",
        "value": "t_struct(MineralDetails)3689_storage"
      },
      "t_mapping(t_string_memory_ptr,t_struct(TransportDetails)7043_storage)": {
        "encoding": "mapping",
        "key": "t_string_memory_ptr",
        "label": "mapping(string => struct LogisticsManager.TransportDetails)",
        "numberOfBytes": "32",
        "value": "t_struct(TransportDetails)7043_storage"
      },
      "t_string_memory_ptr": {
        "encoding": "bytes",
        "label": "string",
        "numberOfBytes": "32"
      },
      "t_string_storage": {
        "encoding": "bytes",
        "label": "string",
        "numberOfBytes": "32"
      },
      "t_struct(MineralDetails)3689_storage": {
        "encoding": "inplace",
        "label": "struct RolesManager.MineralDetails",
        "members": [
          {
            "astId": 3658,
            "contract": "contracts/modules/LogisticsManager.sol:LogisticsManager",
            "label": "id",
            "offset": 0,
            "slot": "0",
            "type": "t_string_storage"
          },
          {
            "astId": 3660,
            "contract": "contracts/modules/LogisticsManager.sol:LogisticsManager",
            "label": "name",
            "offset": 0,
            "slot": "1",
            "type": "t_string_storage"
          },
          {
            "astId": 3662,
            "contract": "contracts/modules/LogisticsManager.sol:LogisticsManager",
            "label": "origin",
            "offset": 0,
            "slot": "2",
            "type": "t_string_storage"
          },
          {
            "astId": 3664,
            "contract": "contracts/modules/LogisticsManager.sol:LogisticsManager",
            "label": "mineralType",
            "offset": 0,
            "slot": "3",
            "type": "t_string_storage"
          },
          {
            "astId": 3666,
            "contract": "contracts/modules/LogisticsManager.sol:LogisticsManager",
            "label": "weight",
            "offset": 0,
            "slot": "4",
            "type": "t_uint256"
          },
          {
            "astId": 3668,
            "contract": "contracts/modules/LogisticsManager.sol:LogisticsManager",
            "label": "purityPercentage",
            "offset": 0,
            "slot": "5",
            "type": "t_uint256"
          },
          {
            "astId": 3670,
            "contract": "contracts/modules/LogisticsManager.sol:LogisticsManager",
            "label": "storageConditions",
            "offset": 0,
            "slot": "6",
            "type": "t_string_storage"
          },
          {
            "astId": 3672,
            "contract": "contracts/modules/LogisticsManager.sol:LogisticsManager",
            "label": "registeredBy",
            "offset": 0,
            "slot": "7",
            "type": "t_address"
          },
          {
            "astId": 3674,
            "contract": "contracts/modules/LogisticsManager.sol:LogisticsManager",
            "label": "currentStatus",
            "offset": 0,
            "slot": "8",
            "type": "t_string_storage"
          },
          {
            "astId": 3676,
            "contract": "contracts/modules/LogisticsManager.sol:LogisticsManager",
            "label": "currentLocation",
            "offset": 0,
            "slot": "9",
            "type": "t_string_storage"
          },
          {
            "astId": 3678,
            "contract": "contracts/modules/LogisticsManager.sol:LogisticsManager",
            "label": "currentHandler",
            "offset": 0,
            "slot": "10",
            "type": "t_address"
          },
          {
            "astId": 3680,
            "contract": "contracts/modules/LogisticsManager.sol:LogisticsManager",
            "label": "isPurchased",
            "offset": 20,
            "slot": "10",
            "type": "t_bool"
          },
          {
            "astId": 3682,
            "contract": "contracts/modules/LogisticsManager.sol:LogisticsManager",
            "label": "isRefined",
            "offset": 21,
            "slot": "10",
            "type": "t_bool"
          },
          {
            "astId": 3684,
            "contract": "contracts/modules/LogisticsManager.sol:LogisticsManager",
            "label": "isAudited",
            "offset": 22,
            "slot": "10",
            "type": "t_bool"
          },
          {
            "astId": 3686,
            "contract": "contracts/modules/LogisticsManager.sol:LogisticsManager",
            "label": "isInspected",
            "offset": 23,
            "slot": "10",
            "type": "t_bool"
          },
          {
            "astId": 3688,
            "contract": "contracts/modules/LogisticsManager.sol:LogisticsManager",
            "label": "timestamp",
            "offset": 0,
            "slot": "11",
            "type": "t_uint256"
          }
        ],
        "numberOfBytes": "384"
      },
      "t_struct(MineralHistory)3700_storage": {
        "encoding": "inplace",
        "label": "struct RolesManager.MineralHistory",
        "members": [
          {
            "astId": 3691,
            "contract": "contracts/modules/LogisticsManager.sol:LogisticsManager",
            "label": "id",
            "offset": 0,
            "slot": "0",
            "type": "t_string_storage"
          },
          {
            "astId": 3693,
            "contract": "contracts/modules/LogisticsManager.sol:LogisticsManager",
            "label": "fieldChanged",
            "offset": 0,
            "slot": "1",
            "type": "t_string_storage"
          },
          {
            "astId": 3695,
            "contract": "contracts/modules/LogisticsManager.sol:LogisticsManager",
            "label": "newValue",
            "offset": 0,
            "slot": "2",
            "type": "t_string_storage"
          },
          {
            "astId": 3697,
            "contract": "contracts/modules/LogisticsManager.sol:LogisticsManager",
            "label": "updatedBy",
            "offset": 0,
            "slot": "3",
            "type": "t_address"
          },
          {
            "astId": 3699,
            "contract": "contracts/modules/LogisticsManager.sol:LogisticsManager",
            "label": "timestamp",
            "offset": 0,
            "slot": "4",
            "type": "t_uint256"
          }
        ],
        "numberOfBytes": "160"
      },
      "t_struct(RoleData)21_storage": {
        "encoding": "inplace",
        "label": "struct AccessControl.RoleData",
        "members": [
          {
            "astId": 18,
            "contract": "contracts/modules/LogisticsManager.sol:LogisticsManager",
            "label": "hasRole",
            "offset": 0,
            "slot": "0",
            "type": "t_mapping(t_address,t_bool)"
          },
          {
            "astId": 20,
            "contract": "contracts/modules/LogisticsManager.sol:LogisticsManager",
            "label": "adminRole",
            "offset": 0,
            "slot": "1",
            "type": "t_bytes32"
          }
        ],
        "numberOfBytes": "64"
      },
      "t_struct(TransportDetails)7043_storage": {
        "encoding": "inplace",
        "label": "struct LogisticsManager.TransportDetails",
        "members": [
          {
            "astId": 7022,
            "contract": "contracts/modules/LogisticsManager.sol:LogisticsManager",
            "label": "mineralId",
            "offset": 0,
            "slot": "0",
            "type": "t_string_storage"
          },
          {
            "astId": 7024,
            "contract": "contracts/modules/LogisticsManager.sol:LogisticsManager",
            "label": "requester",
            "offset": 0,
            "slot": "1",
            "type": "t_address"
          },
          {
            "astId": 7026,
            "contract": "contracts/modules/LogisticsManager.sol:LogisticsManager",
            "label": "transporter",
            "offset": 0,
            "slot": "2",
            "type": "t_address"
          },
          {
            "astId": 7028,
            "contract": "contracts/modules/LogisticsManager.sol:LogisticsManager",
            "label": "origin",
            "offset": 0,
            "slot": "3",
            "type": "t_string_storage"
          },
          {
            "astId": 7030,
            "contract": "contracts/modules/LogisticsManager.sol:LogisticsManager",
            "label": "destination",
            "offset": 0,
            "slot": "4",
            "type": "t_string_storage"
          },
          {
            "astId": 7032,
            "contract": "contracts/modules/LogisticsManager.sol:LogisticsManager",
            "label": "estimatedDeparture",
            "offset": 0,
            "slot": "5",
            "type": "t_uint256"
          },
          {
            "astId": 7034,
            "contract": "contracts/modules/LogisticsManager.sol:LogisticsManager",
            "label": "actualDeparture",
            "offset": 0,
            "slot": "6",
            "type": "t_uint256"
          },
          {
            "astId": 7036,
            "contract": "contracts/modules/LogisticsManager.sol:LogisticsManager",
            "label": "estimatedArrival",
            "offset": 0,
            "slot": "7",
            "type": "t_uint256"
          },
          {
            "astId": 7038,
            "contract": "contracts/modules/LogisticsManager.sol:LogisticsManager",
            "label": "actualArrival",
            "offset": 0,
            "slot": "8",
            "type": "t_uint256"
          },
          {
            "astId": 7040,
            "contract": "contracts/modules/LogisticsManager.sol:LogisticsManager",
            "label": "currentStatus",
            "offset": 0,
            "slot": "9",
            "type": "t_string_storage"
          },
          {
            "astId": 7042,
            "contract": "contracts/modules/LogisticsManager.sol:LogisticsManager",
            "label": "transportConditions",
            "offset": 0,
            "slot": "10",
            "type": "t_string_storage"
          }
        ],
        "numberOfBytes": "352"
      },
      "t_uint256": {
        "encoding": "inplace",
        "label": "uint256",
        "numberOfBytes": "32"
      }
    }
  }
}