{
  "address": "0x2A9A36260938E63205f7eD088A80f5b4f34C3D7c",
  "abi": [
    {
      "inputs": [
        {
          "internalType": "address",
          "name": "rolesManagerAddress",
          "type": "address"
        }
      ],
      "stateMutability": "nonpayable",
      "type": "constructor"
    },
    {
      "inputs": [],
      "name": "AccessControlBadConfirmation",
      "type": "error"
    },
    {
      "inputs": [
        {
          "internalType": "address",
          "name": "account",
          "type": "address"
        },
        {
          "internalType": "bytes32",
          "name": "neededRole",
          "type": "bytes32"
        }
      ],
      "name": "AccessControlUnauthorizedAccount",
      "type": "error"
    },
    {
      "inputs": [
        {
          "internalType": "address",
          "name": "caller",
          "type": "address"
        },
        {
          "internalType": "bytes32",
          "name": "role",
          "type": "bytes32"
        }
      ],
      "name": "AddressDoesNotHaveRequiredRole",
      "type": "error"
    },
    {
      "inputs": [
        {
          "internalType": "address",
          "name": "caller",
          "type": "address"
        }
      ],
      "name": "DisputeResolution__AlreadyVoted",
      "type": "error"
    },
    {
      "inputs": [
        {
          "internalType": "uint256",
          "name": "disputeId",
          "type": "uint256"
        }
      ],
      "name": "DisputeResolution__DisputeEscalated_UnableToVote",
      "type": "error"
    },
    {
      "inputs": [
        {
          "internalType": "uint256",
          "name": "disputeId",
          "type": "uint256"
        }
      ],
      "name": "DisputeResolution__DisputeNotEscalated",
      "type": "error"
    },
    {
      "inputs": [
        {
          "internalType": "uint256",
          "name": "disputeId",
          "type": "uint256"
        }
      ],
      "name": "DisputeResolution__DisputeStatusNotPending",
      "type": "error"
    },
    {
      "inputs": [],
      "name": "DisputeResolution__DisputeStatusNotPendingOrEscalated",
      "type": "error"
    },
    {
      "inputs": [],
      "name": "DisputeResolution__InvalidDisputeDefendantAddress",
      "type": "error"
    },
    {
      "inputs": [],
      "name": "DisputeResolution__InvalidDisputeDetails",
      "type": "error"
    },
    {
      "inputs": [],
      "name": "DisputeResolution__InvalidDisputeEvidence",
      "type": "error"
    },
    {
      "inputs": [],
      "name": "DisputeResolution__InvalidDisputeIdOrNotFound",
      "type": "error"
    },
    {
      "inputs": [],
      "name": "DisputeResolution__InvalidMineralIdOrNotFound",
      "type": "error"
    },
    {
      "inputs": [],
      "name": "DisputeResolution__InvalidResolutionDetails",
      "type": "error"
    },
    {
      "inputs": [
        {
          "internalType": "address",
          "name": "caller",
          "type": "address"
        }
      ],
      "name": "DisputeResolution__NotEligibleToVote",
      "type": "error"
    },
    {
      "inputs": [],
      "name": "DisputeResolution__VotingPeriodStillActive",
      "type": "error"
    },
    {
      "inputs": [
        {
          "internalType": "address",
          "name": "token",
          "type": "address"
        },
        {
          "internalType": "uint256",
          "name": "tokenAmount",
          "type": "uint256"
        }
      ],
      "name": "ERC20TokenTransferFailed",
      "type": "error"
    },
    {
      "inputs": [
        {
          "internalType": "address",
          "name": "caller",
          "type": "address"
        }
      ],
      "name": "InsufficientPermissionsToPerformAction",
      "type": "error"
    },
    {
      "inputs": [],
      "name": "InvalidAccountAddress",
      "type": "error"
    },
    {
      "inputs": [
        {
          "internalType": "string",
          "name": "mineralId",
          "type": "string"
        }
      ],
      "name": "InvalidMineralIdOrNotFound",
      "type": "error"
    },
    {
      "inputs": [],
      "name": "InvalidPaymentMethods",
      "type": "error"
    },
    {
      "inputs": [
        {
          "internalType": "string",
          "name": "currentStatus",
          "type": "string"
        },
        {
          "internalType": "string",
          "name": "attemptedStatus",
          "type": "string"
        }
      ],
      "name": "InvalidTransportStateTransition",
      "type": "error"
    },
    {
      "inputs": [
        {
          "internalType": "string",
          "name": "mineralId",
          "type": "string"
        }
      ],
      "name": "MineralNotMarketReady",
      "type": "error"
    },
    {
      "inputs": [
        {
          "internalType": "string",
          "name": "mineralId",
          "type": "string"
        }
      ],
      "name": "MineralNotReadyToTrade",
      "type": "error"
    },
    {
      "inputs": [],
      "name": "MineralRegistry__InvalidMineralDestination",
      "type": "error"
    },
    {
      "inputs": [],
      "name": "MineralRegistry__InvalidMineralDetails",
      "type": "error"
    },
    {
      "inputs": [
        {
          "internalType": "string",
          "name": "mineralId",
          "type": "string"
        }
      ],
      "name": "MineralRegistry__InvalidMineralIdOrNotFound",
      "type": "error"
    },
    {
      "inputs": [],
      "name": "MineralRegistry__InvalidMineralLocation",
      "type": "error"
    },
    {
      "inputs": [],
      "name": "MineralRegistry__InvalidMineralName",
      "type": "error"
    },
    {
      "inputs": [],
      "name": "MineralRegistry__InvalidMineralOrigin",
      "type": "error"
    },
    {
      "inputs": [],
      "name": "MineralRegistry__InvalidMineralPurityPercentage",
      "type": "error"
    },
    {
      "inputs": [],
      "name": "MineralRegistry__InvalidMineralStatus",
      "type": "error"
    },
    {
      "inputs": [],
      "name": "MineralRegistry__InvalidMineralStorageConditions",
      "type": "error"
    },
    {
      "inputs": [],
      "name": "MineralRegistry__InvalidMineralType",
      "type": "error"
    },
    {
      "inputs": [],
      "name": "MineralRegistry__InvalidMineralWeight",
      "type": "error"
    },
    {
      "inputs": [],
      "name": "MineralRegistry__InvalidReceivingPartyAddress",
      "type": "error"
    },
    {
      "inputs": [],
      "name": "MineralRegistry__MineralAlreadyAudited",
      "type": "error"
    },
    {
      "inputs": [],
      "name": "MineralRegistry__MineralAlreadyInspected",
      "type": "error"
    },
    {
      "inputs": [],
      "name": "MineralRegistry__MineralAlreadyPurchased",
      "type": "error"
    },
    {
      "inputs": [],
      "name": "MineralRegistry__MineralNotAudited",
      "type": "error"
    },
    {
      "inputs": [],
      "name": "MineralRegistry__MineralNotInspected",
      "type": "error"
    },
    {
      "inputs": [
        {
          "internalType": "string",
          "name": "mineralId",
          "type": "string"
        }
      ],
      "name": "MineralRegistry__MineralNotRegistered",
      "type": "error"
    },
    {
      "inputs": [],
      "name": "MineralWarehouse__ETHTransferFailed",
      "type": "error"
    },
    {
      "inputs": [],
      "name": "MineralWarehouse__IncorrectETHAmount",
      "type": "error"
    },
    {
      "inputs": [],
      "name": "MineralWarehouse__InvalidETHPrice",
      "type": "error"
    },
    {
      "inputs": [],
      "name": "MineralWarehouse__InvalidMineralPrice",
      "type": "error"
    },
    {
      "inputs": [],
      "name": "MineralWarehouse__InvalidNumberOfPrices",
      "type": "error"
    },
    {
      "inputs": [
        {
          "internalType": "address",
          "name": "tokenAddress",
          "type": "address"
        }
      ],
      "name": "MineralWarehouse__InvalidTokenAddress",
      "type": "error"
    },
    {
      "inputs": [],
      "name": "MineralWarehouse__InvalidTokenPrice",
      "type": "error"
    },
    {
      "inputs": [
        {
          "internalType": "string",
          "name": "mineralId",
          "type": "string"
        }
      ],
      "name": "MineralWarehouse__MineralAlreadySold",
      "type": "error"
    },
    {
      "inputs": [
        {
          "internalType": "string",
          "name": "mineralId",
          "type": "string"
        }
      ],
      "name": "MineralWarehouse__MineralNotFoundInWarehouse",
      "type": "error"
    },
    {
      "inputs": [
        {
          "internalType": "string",
          "name": "mineralId",
          "type": "string"
        }
      ],
      "name": "MineralWarehouse__MineralNotMarketReady",
      "type": "error"
    },
    {
      "inputs": [
        {
          "internalType": "string",
          "name": "mineralId",
          "type": "string"
        }
      ],
      "name": "MineralWarehouse__MineralNotRefined",
      "type": "error"
    },
    {
      "inputs": [],
      "name": "MineralWarehouse__MismatchedArrays",
      "type": "error"
    },
    {
      "inputs": [
        {
          "internalType": "address",
          "name": "tokenAddress",
          "type": "address"
        }
      ],
      "name": "MineralWarehouse__TokenNotAccepted",
      "type": "error"
    },
    {
      "inputs": [
        {
          "internalType": "address",
          "name": "tokenAddress",
          "type": "address"
        }
      ],
      "name": "MineralWarehouse__UnacceptedToken",
      "type": "error"
    },
    {
      "inputs": [
        {
          "internalType": "address[]",
          "name": "tokenAddresses",
          "type": "address[]"
        }
      ],
      "name": "MineralWarehouse__UnacceptedTokens",
      "type": "error"
    },
    {
      "inputs": [
        {
          "internalType": "address",
          "name": "seller",
          "type": "address"
        }
      ],
      "name": "MineralWarehouse__UnauthorizedSeller",
      "type": "error"
    },
    {
      "inputs": [
        {
          "internalType": "string",
          "name": "mineralId",
          "type": "string"
        },
        {
          "internalType": "address",
          "name": "caller",
          "type": "address"
        }
      ],
      "name": "NotAssignedTransporter",
      "type": "error"
    },
    {
      "inputs": [],
      "name": "RolesManager__AccountAlreadyHasRole",
      "type": "error"
    },
    {
      "inputs": [],
      "name": "RolesManager__AccountDoesNotHaveRole",
      "type": "error"
    },
    {
      "inputs": [],
      "name": "RolesManager__InvalidAddress",
      "type": "error"
    },
    {
      "inputs": [],
      "name": "RolesManager__InvalidMineralDestination",
      "type": "error"
    },
    {
      "inputs": [],
      "name": "RolesManager__InvalidMineralIdOrNotFound",
      "type": "error"
    },
    {
      "inputs": [],
      "name": "RolesManager__InvalidMineralName",
      "type": "error"
    },
    {
      "inputs": [],
      "name": "RolesManager__InvalidMineralOrigin",
      "type": "error"
    },
    {
      "inputs": [],
      "name": "RolesManager__InvalidMineralPurityPercentage",
      "type": "error"
    },
    {
      "inputs": [],
      "name": "RolesManager__InvalidMineralStorageConditions",
      "type": "error"
    },
    {
      "inputs": [],
      "name": "RolesManager__InvalidMineralType",
      "type": "error"
    },
    {
      "inputs": [],
      "name": "RolesManager__InvalidMineralWeight",
      "type": "error"
    },
    {
      "inputs": [],
      "name": "RolesManager__InvalidReceivingPartyAddress",
      "type": "error"
    },
    {
      "inputs": [],
      "name": "RolesManager__InvalidRole",
      "type": "error"
    },
    {
      "inputs": [
        {
          "internalType": "string",
          "name": "mineralId",
          "type": "string"
        }
      ],
      "name": "RolesManager__MineralAlreadyAudited",
      "type": "error"
    },
    {
      "inputs": [
        {
          "internalType": "string",
          "name": "mineralId",
          "type": "string"
        }
      ],
      "name": "RolesManager__MineralAlreadyInspected",
      "type": "error"
    },
    {
      "inputs": [
        {
          "internalType": "string",
          "name": "mineralId",
          "type": "string"
        }
      ],
      "name": "RolesManager__MineralAlreadyPurchased",
      "type": "error"
    },
    {
      "inputs": [
        {
          "internalType": "string",
          "name": "mineralId",
          "type": "string"
        }
      ],
      "name": "RolesManager__MineralAlreadyRefined",
      "type": "error"
    },
    {
      "inputs": [
        {
          "internalType": "string",
          "name": "mineralId",
          "type": "string"
        }
      ],
      "name": "RolesManager__MineralNotMarketReady",
      "type": "error"
    },
    {
      "inputs": [
        {
          "internalType": "uint256",
          "name": "purityPercentage",
          "type": "uint256"
        }
      ],
      "name": "RolesManager__MineralPurityPercentageTooLowToRegister",
      "type": "error"
    },
    {
      "inputs": [
        {
          "internalType": "address",
          "name": "caller",
          "type": "address"
        }
      ],
      "name": "RolesManager__NotTheAssignedBuyer",
      "type": "error"
    },
    {
      "inputs": [
        {
          "internalType": "string",
          "name": "mineralId",
          "type": "string"
        }
      ],
      "name": "SupplychainValidator__InvalidMineralIdOrNotFound",
      "type": "error"
    },
    {
      "inputs": [],
      "name": "SupplychainValidator__InvalidMineralOwnershipChain",
      "type": "error"
    },
    {
      "inputs": [],
      "name": "SupplychainValidator__InvalidMineralTransactionHistory",
      "type": "error"
    },
    {
      "inputs": [
        {
          "internalType": "uint256",
          "name": "tokenId",
          "type": "uint256"
        },
        {
          "internalType": "address",
          "name": "caller",
          "type": "address"
        }
      ],
      "name": "Tokenization__CallerNotMineralTokenOwner",
      "type": "error"
    },
    {
      "inputs": [
        {
          "internalType": "uint256",
          "name": "tokenId",
          "type": "uint256"
        }
      ],
      "name": "Tokenization__InvalidTokenId",
      "type": "error"
    },
    {
      "inputs": [
        {
          "internalType": "uint256",
          "name": "tokenId",
          "type": "uint256"
        }
      ],
      "name": "Tokenization__InvalidTokenIdOrNotFound",
      "type": "error"
    },
    {
      "inputs": [
        {
          "internalType": "uint256",
          "name": "tokenId",
          "type": "uint256"
        }
      ],
      "name": "Tokenization__TokenAlreadyExists",
      "type": "error"
    },
    {
      "inputs": [
        {
          "internalType": "uint256",
          "name": "tokenId",
          "type": "uint256"
        }
      ],
      "name": "Tokenization__TokenIsAlreadyMinted",
      "type": "error"
    },
    {
      "inputs": [
        {
          "internalType": "uint256",
          "name": "index",
          "type": "uint256"
        }
      ],
      "name": "TransactionLog__InvalidOperationIndex",
      "type": "error"
    },
    {
      "inputs": [],
      "name": "TransactionLog__InvalidOperationType",
      "type": "error"
    },
    {
      "inputs": [
        {
          "internalType": "uint256",
          "name": "transactionId",
          "type": "uint256"
        }
      ],
      "name": "TransactionLog__InvalidTransactionIdOrNotFound",
      "type": "error"
    },
    {
      "inputs": [
        {
          "internalType": "string",
          "name": "mineralId",
          "type": "string"
        }
      ],
      "name": "TransportRequestAlreadyExists",
      "type": "error"
    },
    {
      "anonymous": false,
      "inputs": [
        {
          "indexed": true,
          "internalType": "address",
          "name": "assignee",
          "type": "address"
        },
        {
          "indexed": false,
          "internalType": "uint256",
          "name": "timestamp",
          "type": "uint256"
        }
      ],
      "name": "AdminRoleAssigned",
      "type": "event"
    },
    {
      "anonymous": false,
      "inputs": [
        {
          "indexed": true,
          "internalType": "address",
          "name": "revokee",
          "type": "address"
        },
        {
          "indexed": false,
          "internalType": "string",
          "name": "reason",
          "type": "string"
        },
        {
          "indexed": false,
          "internalType": "uint256",
          "name": "timestamp",
          "type": "uint256"
        }
      ],
      "name": "AdminRoleRevoked",
      "type": "event"
    },
    {
      "anonymous": false,
      "inputs": [
        {
          "indexed": true,
          "internalType": "address",
          "name": "assignee",
          "type": "address"
        },
        {
          "indexed": false,
          "internalType": "uint256",
          "name": "timestamp",
          "type": "uint256"
        }
      ],
      "name": "AuditorRoleAssigned",
      "type": "event"
    },
    {
      "anonymous": false,
      "inputs": [
        {
          "indexed": true,
          "internalType": "address",
          "name": "revokee",
          "type": "address"
        },
        {
          "indexed": false,
          "internalType": "string",
          "name": "reason",
          "type": "string"
        },
        {
          "indexed": false,
          "internalType": "uint256",
          "name": "timestamp",
          "type": "uint256"
        }
      ],
      "name": "AuditorRoleRevoked",
      "type": "event"
    },
    {
      "anonymous": false,
      "inputs": [
        {
          "indexed": true,
          "internalType": "address",
          "name": "assignee",
          "type": "address"
        },
        {
          "indexed": false,
          "internalType": "uint256",
          "name": "timestamp",
          "type": "uint256"
        }
      ],
      "name": "BuyerRoleAssigned",
      "type": "event"
    },
    {
      "anonymous": false,
      "inputs": [
        {
          "indexed": true,
          "internalType": "address",
          "name": "revokee",
          "type": "address"
        },
        {
          "indexed": false,
          "internalType": "string",
          "name": "reason",
          "type": "string"
        },
        {
          "indexed": false,
          "internalType": "uint256",
          "name": "timestamp",
          "type": "uint256"
        }
      ],
      "name": "BuyerRoleRevoked",
      "type": "event"
    },
    {
      "anonymous": false,
      "inputs": [
        {
          "indexed": true,
          "internalType": "address",
          "name": "assignee",
          "type": "address"
        },
        {
          "indexed": false,
          "internalType": "uint256",
          "name": "timestamp",
          "type": "uint256"
        }
      ],
      "name": "InspectorRoleAssigned",
      "type": "event"
    },
    {
      "anonymous": false,
      "inputs": [
        {
          "indexed": true,
          "internalType": "address",
          "name": "revokee",
          "type": "address"
        },
        {
          "indexed": false,
          "internalType": "string",
          "name": "reason",
          "type": "string"
        },
        {
          "indexed": false,
          "internalType": "uint256",
          "name": "timestamp",
          "type": "uint256"
        }
      ],
      "name": "InspectorRoleRevoked",
      "type": "event"
    },
    {
      "anonymous": false,
      "inputs": [
        {
          "indexed": true,
          "internalType": "address",
          "name": "assignee",
          "type": "address"
        },
        {
          "indexed": false,
          "internalType": "uint256",
          "name": "timestamp",
          "type": "uint256"
        }
      ],
      "name": "MinerRoleAssigned",
      "type": "event"
    },
    {
      "anonymous": false,
      "inputs": [
        {
          "indexed": true,
          "internalType": "address",
          "name": "revokee",
          "type": "address"
        },
        {
          "indexed": false,
          "internalType": "string",
          "name": "reason",
          "type": "string"
        },
        {
          "indexed": false,
          "internalType": "uint256",
          "name": "timestamp",
          "type": "uint256"
        }
      ],
      "name": "MinerRoleRevoked",
      "type": "event"
    },
    {
      "anonymous": false,
      "inputs": [
        {
          "indexed": false,
          "internalType": "string",
          "name": "mineralId",
          "type": "string"
        },
        {
          "indexed": false,
          "internalType": "string",
          "name": "status",
          "type": "string"
        },
        {
          "indexed": true,
          "internalType": "address",
          "name": "auditor",
          "type": "address"
        },
        {
          "indexed": false,
          "internalType": "uint256",
          "name": "auditedAt",
          "type": "uint256"
        }
      ],
      "name": "MineralAudited",
      "type": "event"
    },
    {
      "anonymous": false,
      "inputs": [
        {
          "indexed": false,
          "internalType": "string",
          "name": "mineralId",
          "type": "string"
        },
        {
          "indexed": false,
          "internalType": "string",
          "name": "mineralStatus",
          "type": "string"
        },
        {
          "indexed": true,
          "internalType": "address",
          "name": "inspector",
          "type": "address"
        },
        {
          "indexed": false,
          "internalType": "uint256",
          "name": "inspectedAt",
          "type": "uint256"
        }
      ],
      "name": "MineralInspected",
      "type": "event"
    },
    {
      "anonymous": false,
      "inputs": [
        {
          "indexed": false,
          "internalType": "string",
          "name": "mineralId",
          "type": "string"
        },
        {
          "indexed": false,
          "internalType": "string",
          "name": "price",
          "type": "string"
        },
        {
          "indexed": true,
          "internalType": "address",
          "name": "lister",
          "type": "address"
        }
      ],
      "name": "MineralListedForSale",
      "type": "event"
    },
    {
      "anonymous": false,
      "inputs": [
        {
          "indexed": false,
          "internalType": "string",
          "name": "mineralId",
          "type": "string"
        },
        {
          "indexed": true,
          "internalType": "address",
          "name": "buyer",
          "type": "address"
        },
        {
          "indexed": false,
          "internalType": "uint256",
          "name": "purchasedAt",
          "type": "uint256"
        }
      ],
      "name": "MineralPurchased",
      "type": "event"
    },
    {
      "anonymous": false,
      "inputs": [
        {
          "indexed": false,
          "internalType": "string",
          "name": "mineralId",
          "type": "string"
        },
        {
          "indexed": true,
          "internalType": "address",
          "name": "ApprovedBy",
          "type": "address"
        },
        {
          "indexed": false,
          "internalType": "string",
          "name": "status",
          "type": "string"
        },
        {
          "indexed": false,
          "internalType": "uint256",
          "name": "inspectionDate",
          "type": "uint256"
        }
      ],
      "name": "MineralReadyToTrade",
      "type": "event"
    },
    {
      "anonymous": false,
      "inputs": [
        {
          "indexed": false,
          "internalType": "string",
          "name": "mineralId",
          "type": "string"
        },
        {
          "indexed": false,
          "internalType": "string",
          "name": "refineryReport",
          "type": "string"
        },
        {
          "indexed": true,
          "internalType": "address",
          "name": "refiner",
          "type": "address"
        },
        {
          "indexed": false,
          "internalType": "uint256",
          "name": "refinedAt",
          "type": "uint256"
        }
      ],
      "name": "MineralRefined",
      "type": "event"
    },
    {
      "anonymous": false,
      "inputs": [
        {
          "indexed": false,
          "internalType": "string",
          "name": "mineralId",
          "type": "string"
        },
        {
          "indexed": false,
          "internalType": "string",
          "name": "mineralName",
          "type": "string"
        },
        {
          "indexed": false,
          "internalType": "string",
          "name": "mineralType",
          "type": "string"
        },
        {
          "indexed": false,
          "internalType": "string",
          "name": "origin",
          "type": "string"
        },
        {
          "indexed": false,
          "internalType": "uint256",
          "name": "weight",
          "type": "uint256"
        },
        {
          "indexed": false,
          "internalType": "uint256",
          "name": "purityPercentage",
          "type": "uint256"
        },
        {
          "indexed": true,
          "internalType": "address",
          "name": "miner",
          "type": "address"
        },
        {
          "indexed": false,
          "internalType": "uint256",
          "name": "registeredAt",
          "type": "uint256"
        }
      ],
      "name": "MineralRegistered",
      "type": "event"
    },
    {
      "anonymous": false,
      "inputs": [
        {
          "indexed": false,
          "internalType": "string",
          "name": "mineralId",
          "type": "string"
        },
        {
          "indexed": true,
          "internalType": "address",
          "name": "buyer",
          "type": "address"
        },
        {
          "indexed": false,
          "internalType": "address",
          "name": "seller",
          "type": "address"
        },
        {
          "indexed": false,
          "internalType": "uint256",
          "name": "soldAt",
          "type": "uint256"
        }
      ],
      "name": "MineralSold",
      "type": "event"
    },
    {
      "anonymous": false,
      "inputs": [
        {
          "indexed": false,
          "internalType": "string",
          "name": "mineralId",
          "type": "string"
        },
        {
          "indexed": true,
          "internalType": "address",
          "name": "refiner",
          "type": "address"
        },
        {
          "indexed": false,
          "internalType": "uint256",
          "name": "storedAt",
          "type": "uint256"
        }
      ],
      "name": "MineralStored",
      "type": "event"
    },
    {
      "anonymous": false,
      "inputs": [
        {
          "indexed": false,
          "internalType": "string",
          "name": "mineralId",
          "type": "string"
        },
        {
          "indexed": true,
          "internalType": "address",
          "name": "transporter",
          "type": "address"
        },
        {
          "indexed": false,
          "internalType": "address",
          "name": "receivingParty",
          "type": "address"
        },
        {
          "indexed": false,
          "internalType": "string",
          "name": "origin",
          "type": "string"
        },
        {
          "indexed": false,
          "internalType": "string",
          "name": "destination",
          "type": "string"
        },
        {
          "indexed": false,
          "internalType": "uint256",
          "name": "transportedAt",
          "type": "uint256"
        }
      ],
      "name": "MineralTransported",
      "type": "event"
    },
    {
      "anonymous": false,
      "inputs": [
        {
          "indexed": true,
          "internalType": "address",
          "name": "assignee",
          "type": "address"
        },
        {
          "indexed": false,
          "internalType": "uint256",
          "name": "timestamp",
          "type": "uint256"
        }
      ],
      "name": "RefinerRoleAssigned",
      "type": "event"
    },
    {
      "anonymous": false,
      "inputs": [
        {
          "indexed": true,
          "internalType": "address",
          "name": "revokee",
          "type": "address"
        },
        {
          "indexed": false,
          "internalType": "string",
          "name": "reason",
          "type": "string"
        },
        {
          "indexed": false,
          "internalType": "uint256",
          "name": "timestamp",
          "type": "uint256"
        }
      ],
      "name": "RefinerRoleRevoked",
      "type": "event"
    },
    {
      "anonymous": false,
      "inputs": [
        {
          "indexed": true,
          "internalType": "bytes32",
          "name": "role",
          "type": "bytes32"
        },
        {
          "indexed": true,
          "internalType": "bytes32",
          "name": "previousAdminRole",
          "type": "bytes32"
        },
        {
          "indexed": true,
          "internalType": "bytes32",
          "name": "newAdminRole",
          "type": "bytes32"
        }
      ],
      "name": "RoleAdminChanged",
      "type": "event"
    },
    {
      "anonymous": false,
      "inputs": [
        {
          "indexed": true,
          "internalType": "address",
          "name": "account",
          "type": "address"
        },
        {
          "indexed": true,
          "internalType": "bytes32",
          "name": "role",
          "type": "bytes32"
        },
        {
          "indexed": false,
          "internalType": "uint256",
          "name": "roleAssignedAt",
          "type": "uint256"
        }
      ],
      "name": "RoleAssigned",
      "type": "event"
    },
    {
      "anonymous": false,
      "inputs": [
        {
          "indexed": true,
          "internalType": "bytes32",
          "name": "role",
          "type": "bytes32"
        },
        {
          "indexed": true,
          "internalType": "address",
          "name": "account",
          "type": "address"
        },
        {
          "indexed": true,
          "internalType": "address",
          "name": "sender",
          "type": "address"
        }
      ],
      "name": "RoleGranted",
      "type": "event"
    },
    {
      "anonymous": false,
      "inputs": [
        {
          "indexed": true,
          "internalType": "bytes32",
          "name": "role",
          "type": "bytes32"
        },
        {
          "indexed": true,
          "internalType": "address",
          "name": "account",
          "type": "address"
        },
        {
          "indexed": true,
          "internalType": "address",
          "name": "sender",
          "type": "address"
        }
      ],
      "name": "RoleRevoked",
      "type": "event"
    },
    {
      "anonymous": false,
      "inputs": [
        {
          "indexed": false,
          "internalType": "bytes32",
          "name": "role",
          "type": "bytes32"
        },
        {
          "indexed": false,
          "internalType": "address",
          "name": "account",
          "type": "address"
        },
        {
          "indexed": false,
          "internalType": "address",
          "name": "revoker",
          "type": "address"
        },
        {
          "indexed": false,
          "internalType": "uint256",
          "name": "roleRevokedAt",
          "type": "uint256"
        }
      ],
      "name": "RoleRevoked",
      "type": "event"
    },
    {
      "anonymous": false,
      "inputs": [
        {
          "indexed": true,
          "internalType": "address",
          "name": "assignee",
          "type": "address"
        },
        {
          "indexed": false,
          "internalType": "uint256",
          "name": "timestamp",
          "type": "uint256"
        }
      ],
      "name": "TransporterRoleAssigned",
      "type": "event"
    },
    {
      "anonymous": false,
      "inputs": [
        {
          "indexed": true,
          "internalType": "address",
          "name": "revokee",
          "type": "address"
        },
        {
          "indexed": false,
          "internalType": "string",
          "name": "reason",
          "type": "string"
        },
        {
          "indexed": false,
          "internalType": "uint256",
          "name": "timestamp",
          "type": "uint256"
        }
      ],
      "name": "TransporterRoleRevoked",
      "type": "event"
    },
    {
      "inputs": [],
      "name": "AUDITOR_ROLE",
      "outputs": [
        {
          "internalType": "bytes32",
          "name": "",
          "type": "bytes32"
        }
      ],
      "stateMutability": "view",
      "type": "function"
    },
    {
      "inputs": [],
      "name": "BUYER_ROLE",
      "outputs": [
        {
          "internalType": "bytes32",
          "name": "",
          "type": "bytes32"
        }
      ],
      "stateMutability": "view",
      "type": "function"
    },
    {
      "inputs": [],
      "name": "DEFAULT_ADMIN_ROLE",
      "outputs": [
        {
          "internalType": "bytes32",
          "name": "",
          "type": "bytes32"
        }
      ],
      "stateMutability": "view",
      "type": "function"
    },
    {
      "inputs": [],
      "name": "INSPECTOR_ROLE",
      "outputs": [
        {
          "internalType": "bytes32",
          "name": "",
          "type": "bytes32"
        }
      ],
      "stateMutability": "view",
      "type": "function"
    },
    {
      "inputs": [],
      "name": "MINER_ROLE",
      "outputs": [
        {
          "internalType": "bytes32",
          "name": "",
          "type": "bytes32"
        }
      ],
      "stateMutability": "view",
      "type": "function"
    },
    {
      "inputs": [],
      "name": "REFINER_ROLE",
      "outputs": [
        {
          "internalType": "bytes32",
          "name": "",
          "type": "bytes32"
        }
      ],
      "stateMutability": "view",
      "type": "function"
    },
    {
      "inputs": [],
      "name": "TRANSPORTER_ROLE",
      "outputs": [
        {
          "internalType": "bytes32",
          "name": "",
          "type": "bytes32"
        }
      ],
      "stateMutability": "view",
      "type": "function"
    },
    {
      "inputs": [
        {
          "internalType": "string",
          "name": "mineralId",
          "type": "string"
        },
        {
          "internalType": "string",
          "name": "report",
          "type": "string"
        }
      ],
      "name": "_auditMineral",
      "outputs": [],
      "stateMutability": "nonpayable",
      "type": "function"
    },
    {
      "inputs": [
        {
          "internalType": "address",
          "name": "",
          "type": "address"
        }
      ],
      "name": "acceptedTokens",
      "outputs": [
        {
          "internalType": "bool",
          "name": "",
          "type": "bool"
        }
      ],
      "stateMutability": "view",
      "type": "function"
    },
    {
      "inputs": [
        {
          "internalType": "address",
          "name": "_token",
          "type": "address"
        }
      ],
      "name": "addAcceptedToken",
      "outputs": [],
      "stateMutability": "nonpayable",
      "type": "function"
    },
    {
      "inputs": [
        {
          "internalType": "address",
          "name": "account",
          "type": "address"
        }
      ],
      "name": "assignAuditor",
      "outputs": [],
      "stateMutability": "nonpayable",
      "type": "function"
    },
    {
      "inputs": [
        {
          "internalType": "address",
          "name": "account",
          "type": "address"
        }
      ],
      "name": "assignBuyer",
      "outputs": [],
      "stateMutability": "nonpayable",
      "type": "function"
    },
    {
      "inputs": [
        {
          "internalType": "address",
          "name": "account",
          "type": "address"
        }
      ],
      "name": "assignInspector",
      "outputs": [],
      "stateMutability": "nonpayable",
      "type": "function"
    },
    {
      "inputs": [
        {
          "internalType": "address",
          "name": "account",
          "type": "address"
        }
      ],
      "name": "assignMiner",
      "outputs": [],
      "stateMutability": "nonpayable",
      "type": "function"
    },
    {
      "inputs": [
        {
          "internalType": "address",
          "name": "account",
          "type": "address"
        }
      ],
      "name": "assignRefiner",
      "outputs": [],
      "stateMutability": "nonpayable",
      "type": "function"
    },
    {
      "inputs": [
        {
          "internalType": "address",
          "name": "account",
          "type": "address"
        }
      ],
      "name": "assignTransporter",
      "outputs": [],
      "stateMutability": "nonpayable",
      "type": "function"
    },
    {
      "inputs": [
        {
          "internalType": "string",
          "name": "mineralId",
          "type": "string"
        }
      ],
      "name": "checkAuditAndInspectionStatus",
      "outputs": [
        {
          "internalType": "bool",
          "name": "isAudited",
          "type": "bool"
        },
        {
          "internalType": "bool",
          "name": "isInspected",
          "type": "bool"
        }
      ],
      "stateMutability": "nonpayable",
      "type": "function"
    },
    {
      "inputs": [],
      "name": "getAllRoleCounts",
      "outputs": [
        {
          "internalType": "uint256",
          "name": "minerCount",
          "type": "uint256"
        },
        {
          "internalType": "uint256",
          "name": "refinerCount",
          "type": "uint256"
        },
        {
          "internalType": "uint256",
          "name": "transporterCount",
          "type": "uint256"
        },
        {
          "internalType": "uint256",
          "name": "auditorCount",
          "type": "uint256"
        },
        {
          "internalType": "uint256",
          "name": "inspectorCount",
          "type": "uint256"
        },
        {
          "internalType": "uint256",
          "name": "buyerCount",
          "type": "uint256"
        }
      ],
      "stateMutability": "view",
      "type": "function"
    },
    {
      "inputs": [
        {
          "internalType": "string",
          "name": "mineralId",
          "type": "string"
        }
      ],
      "name": "getMineralHistory",
      "outputs": [
        {
          "components": [
            {
              "internalType": "string",
              "name": "id",
              "type": "string"
            },
            {
              "internalType": "string",
              "name": "fieldChanged",
              "type": "string"
            },
            {
              "internalType": "string",
              "name": "newValue",
              "type": "string"
            },
            {
              "internalType": "address",
              "name": "updatedBy",
              "type": "address"
            },
            {
              "internalType": "uint256",
              "name": "timestamp",
              "type": "uint256"
            }
          ],
          "internalType": "struct RolesManager.MineralHistory[]",
          "name": "",
          "type": "tuple[]"
        }
      ],
      "stateMutability": "view",
      "type": "function"
    },
    {
      "inputs": [
        {
          "internalType": "string",
          "name": "_mineralId",
          "type": "string"
        },
        {
          "internalType": "address",
          "name": "token",
          "type": "address"
        }
      ],
      "name": "getMineralPriceInToken",
      "outputs": [
        {
          "internalType": "uint256",
          "name": "",
          "type": "uint256"
        }
      ],
      "stateMutability": "view",
      "type": "function"
    },
    {
      "inputs": [
        {
          "internalType": "bytes32",
          "name": "role",
          "type": "bytes32"
        }
      ],
      "name": "getRoleAdmin",
      "outputs": [
        {
          "internalType": "bytes32",
          "name": "",
          "type": "bytes32"
        }
      ],
      "stateMutability": "view",
      "type": "function"
    },
    {
      "inputs": [
        {
          "internalType": "bytes32",
          "name": "role",
          "type": "bytes32"
        }
      ],
      "name": "getRoleMemberCount",
      "outputs": [
        {
          "internalType": "uint256",
          "name": "count",
          "type": "uint256"
        }
      ],
      "stateMutability": "view",
      "type": "function"
    },
    {
      "inputs": [
        {
          "internalType": "address",
          "name": "account",
          "type": "address"
        }
      ],
      "name": "getRolesForAddress",
      "outputs": [
        {
          "internalType": "string[]",
          "name": "roles",
          "type": "string[]"
        }
      ],
      "stateMutability": "view",
      "type": "function"
    },
    {
      "inputs": [
        {
          "internalType": "bytes32",
          "name": "role",
          "type": "bytes32"
        },
        {
          "internalType": "address",
          "name": "account",
          "type": "address"
        }
      ],
      "name": "grantRole",
      "outputs": [],
      "stateMutability": "nonpayable",
      "type": "function"
    },
    {
      "inputs": [
        {
          "internalType": "address",
          "name": "account",
          "type": "address"
        }
      ],
      "name": "hasAdminRole",
      "outputs": [
        {
          "internalType": "bool",
          "name": "",
          "type": "bool"
        }
      ],
      "stateMutability": "view",
      "type": "function"
    },
    {
      "inputs": [
        {
          "internalType": "address",
          "name": "account",
          "type": "address"
        }
      ],
      "name": "hasAuditorRole",
      "outputs": [
        {
          "internalType": "bool",
          "name": "",
          "type": "bool"
        }
      ],
      "stateMutability": "view",
      "type": "function"
    },
    {
      "inputs": [
        {
          "internalType": "address",
          "name": "account",
          "type": "address"
        }
      ],
      "name": "hasBuyerRole",
      "outputs": [
        {
          "internalType": "bool",
          "name": "",
          "type": "bool"
        }
      ],
      "stateMutability": "view",
      "type": "function"
    },
    {
      "inputs": [
        {
          "internalType": "address",
          "name": "account",
          "type": "address"
        }
      ],
      "name": "hasInspectorRole",
      "outputs": [
        {
          "internalType": "bool",
          "name": "",
          "type": "bool"
        }
      ],
      "stateMutability": "view",
      "type": "function"
    },
    {
      "inputs": [
        {
          "internalType": "address",
          "name": "account",
          "type": "address"
        }
      ],
      "name": "hasMinerRole",
      "outputs": [
        {
          "internalType": "bool",
          "name": "",
          "type": "bool"
        }
      ],
      "stateMutability": "view",
      "type": "function"
    },
    {
      "inputs": [
        {
          "internalType": "address",
          "name": "account",
          "type": "address"
        }
      ],
      "name": "hasRefinerRole",
      "outputs": [
        {
          "internalType": "bool",
          "name": "",
          "type": "bool"
        }
      ],
      "stateMutability": "view",
      "type": "function"
    },
    {
      "inputs": [
        {
          "internalType": "bytes32",
          "name": "role",
          "type": "bytes32"
        },
        {
          "internalType": "address",
          "name": "account",
          "type": "address"
        }
      ],
      "name": "hasRole",
      "outputs": [
        {
          "internalType": "bool",
          "name": "",
          "type": "bool"
        }
      ],
      "stateMutability": "view",
      "type": "function"
    },
    {
      "inputs": [
        {
          "internalType": "address",
          "name": "account",
          "type": "address"
        }
      ],
      "name": "hasTransporterRole",
      "outputs": [
        {
          "internalType": "bool",
          "name": "",
          "type": "bool"
        }
      ],
      "stateMutability": "view",
      "type": "function"
    },
    {
      "inputs": [
        {
          "internalType": "string",
          "name": "mineralId",
          "type": "string"
        },
        {
          "internalType": "string",
          "name": "report",
          "type": "string"
        }
      ],
      "name": "inspectMineral",
      "outputs": [],
      "stateMutability": "nonpayable",
      "type": "function"
    },
    {
      "inputs": [
        {
          "internalType": "string",
          "name": "_mineralId",
          "type": "string"
        }
      ],
      "name": "isMineralMarketReady",
      "outputs": [
        {
          "internalType": "bool",
          "name": "",
          "type": "bool"
        }
      ],
      "stateMutability": "view",
      "type": "function"
    },
    {
      "inputs": [
        {
          "internalType": "string",
          "name": "mineralId",
          "type": "string"
        }
      ],
      "name": "isMineralRegistered",
      "outputs": [
        {
          "internalType": "bool",
          "name": "",
          "type": "bool"
        }
      ],
      "stateMutability": "nonpayable",
      "type": "function"
    },
    {
      "inputs": [
        {
          "internalType": "string",
          "name": "_mineralId",
          "type": "string"
        },
        {
          "internalType": "string",
          "name": "_price",
          "type": "string"
        }
      ],
      "name": "list_Mineral_ForSale",
      "outputs": [],
      "stateMutability": "nonpayable",
      "type": "function"
    },
    {
      "inputs": [
        {
          "internalType": "string",
          "name": "",
          "type": "string"
        }
      ],
      "name": "mineralDetails",
      "outputs": [
        {
          "internalType": "string",
          "name": "id",
          "type": "string"
        },
        {
          "internalType": "string",
          "name": "name",
          "type": "string"
        },
        {
          "internalType": "string",
          "name": "origin",
          "type": "string"
        },
        {
          "internalType": "string",
          "name": "mineralType",
          "type": "string"
        },
        {
          "internalType": "uint256",
          "name": "weight",
          "type": "uint256"
        },
        {
          "internalType": "uint256",
          "name": "purityPercentage",
          "type": "uint256"
        },
        {
          "internalType": "string",
          "name": "storageConditions",
          "type": "string"
        },
        {
          "internalType": "address",
          "name": "registeredBy",
          "type": "address"
        },
        {
          "internalType": "string",
          "name": "currentStatus",
          "type": "string"
        },
        {
          "internalType": "string",
          "name": "currentLocation",
          "type": "string"
        },
        {
          "internalType": "address",
          "name": "currentHandler",
          "type": "address"
        },
        {
          "internalType": "bool",
          "name": "isPurchased",
          "type": "bool"
        },
        {
          "internalType": "bool",
          "name": "isRefined",
          "type": "bool"
        },
        {
          "internalType": "bool",
          "name": "isAudited",
          "type": "bool"
        },
        {
          "internalType": "bool",
          "name": "isInspected",
          "type": "bool"
        },
        {
          "internalType": "uint256",
          "name": "timestamp",
          "type": "uint256"
        }
      ],
      "stateMutability": "view",
      "type": "function"
    },
    {
      "inputs": [
        {
          "internalType": "string",
          "name": "",
          "type": "string"
        },
        {
          "internalType": "uint256",
          "name": "",
          "type": "uint256"
        }
      ],
      "name": "mineralHistories",
      "outputs": [
        {
          "internalType": "string",
          "name": "id",
          "type": "string"
        },
        {
          "internalType": "string",
          "name": "fieldChanged",
          "type": "string"
        },
        {
          "internalType": "string",
          "name": "newValue",
          "type": "string"
        },
        {
          "internalType": "address",
          "name": "updatedBy",
          "type": "address"
        },
        {
          "internalType": "uint256",
          "name": "timestamp",
          "type": "uint256"
        }
      ],
      "stateMutability": "view",
      "type": "function"
    },
    {
      "inputs": [
        {
          "internalType": "string",
          "name": "mineralId",
          "type": "string"
        }
      ],
      "name": "purchaseMineral",
      "outputs": [],
      "stateMutability": "nonpayable",
      "type": "function"
    },
    {
      "inputs": [
        {
          "internalType": "string",
          "name": "_mineralId",
          "type": "string"
        },
        {
          "internalType": "enum MineralWarehouse.PaymentMethod",
          "name": "method",
          "type": "uint8"
        },
        {
          "internalType": "address",
          "name": "token",
          "type": "address"
        },
        {
          "internalType": "uint256",
          "name": "amount",
          "type": "uint256"
        }
      ],
      "name": "purchase_mineral",
      "outputs": [],
      "stateMutability": "payable",
      "type": "function"
    },
    {
      "inputs": [
        {
          "internalType": "string",
          "name": "mineralId",
          "type": "string"
        },
        {
          "internalType": "string",
          "name": "report",
          "type": "string"
        }
      ],
      "name": "refineMineral",
      "outputs": [],
      "stateMutability": "nonpayable",
      "type": "function"
    },
    {
      "inputs": [
        {
          "internalType": "string",
          "name": "_name",
          "type": "string"
        },
        {
          "internalType": "string",
          "name": "_mineralType",
          "type": "string"
        },
        {
          "internalType": "uint256",
          "name": "_weight",
          "type": "uint256"
        },
        {
          "internalType": "string",
          "name": "_origin",
          "type": "string"
        },
        {
          "internalType": "uint256",
          "name": "_purityPercentage",
          "type": "uint256"
        },
        {
          "internalType": "string",
          "name": "_storageConditions",
          "type": "string"
        }
      ],
      "name": "registerMineral",
      "outputs": [
        {
          "internalType": "string",
          "name": "",
          "type": "string"
        }
      ],
      "stateMutability": "nonpayable",
      "type": "function"
    },
    {
      "inputs": [
        {
          "internalType": "bytes32",
          "name": "role",
          "type": "bytes32"
        },
        {
          "internalType": "address",
          "name": "callerConfirmation",
          "type": "address"
        }
      ],
      "name": "renounceRole",
      "outputs": [],
      "stateMutability": "nonpayable",
      "type": "function"
    },
    {
      "inputs": [
        {
          "internalType": "address",
          "name": "account",
          "type": "address"
        },
        {
          "internalType": "string",
          "name": "reason",
          "type": "string"
        }
      ],
      "name": "revokeAuditor",
      "outputs": [],
      "stateMutability": "nonpayable",
      "type": "function"
    },
    {
      "inputs": [
        {
          "internalType": "address",
          "name": "account",
          "type": "address"
        },
        {
          "internalType": "string",
          "name": "reason",
          "type": "string"
        }
      ],
      "name": "revokeBuyer",
      "outputs": [],
      "stateMutability": "nonpayable",
      "type": "function"
    },
    {
      "inputs": [
        {
          "internalType": "address",
          "name": "account",
          "type": "address"
        },
        {
          "internalType": "string",
          "name": "reason",
          "type": "string"
        }
      ],
      "name": "revokeInspector",
      "outputs": [],
      "stateMutability": "nonpayable",
      "type": "function"
    },
    {
      "inputs": [
        {
          "internalType": "address",
          "name": "account",
          "type": "address"
        },
        {
          "internalType": "string",
          "name": "reason",
          "type": "string"
        }
      ],
      "name": "revokeMiner",
      "outputs": [],
      "stateMutability": "nonpayable",
      "type": "function"
    },
    {
      "inputs": [
        {
          "internalType": "address",
          "name": "account",
          "type": "address"
        },
        {
          "internalType": "string",
          "name": "reason",
          "type": "string"
        }
      ],
      "name": "revokeRefiner",
      "outputs": [],
      "stateMutability": "nonpayable",
      "type": "function"
    },
    {
      "inputs": [
        {
          "internalType": "bytes32",
          "name": "role",
          "type": "bytes32"
        },
        {
          "internalType": "address",
          "name": "account",
          "type": "address"
        }
      ],
      "name": "revokeRole",
      "outputs": [],
      "stateMutability": "nonpayable",
      "type": "function"
    },
    {
      "inputs": [
        {
          "internalType": "address",
          "name": "account",
          "type": "address"
        },
        {
          "internalType": "string",
          "name": "reason",
          "type": "string"
        }
      ],
      "name": "revokeTransporter",
      "outputs": [],
      "stateMutability": "nonpayable",
      "type": "function"
    },
    {
      "inputs": [
        {
          "internalType": "bytes32",
          "name": "",
          "type": "bytes32"
        }
      ],
      "name": "roleMemberCount",
      "outputs": [
        {
          "internalType": "uint256",
          "name": "",
          "type": "uint256"
        }
      ],
      "stateMutability": "view",
      "type": "function"
    },
    {
      "inputs": [
        {
          "internalType": "string",
          "name": "_mineralId",
          "type": "string"
        },
        {
          "internalType": "uint256",
          "name": "_priceETH",
          "type": "uint256"
        },
        {
          "internalType": "address[]",
          "name": "tokens",
          "type": "address[]"
        },
        {
          "internalType": "uint256[]",
          "name": "prices",
          "type": "uint256[]"
        }
      ],
      "name": "store_refined_mineral_to_warehouse",
      "outputs": [],
      "stateMutability": "nonpayable",
      "type": "function"
    },
    {
      "inputs": [
        {
          "internalType": "bytes4",
          "name": "interfaceId",
          "type": "bytes4"
        }
      ],
      "name": "supportsInterface",
      "outputs": [
        {
          "internalType": "bool",
          "name": "",
          "type": "bool"
        }
      ],
      "stateMutability": "view",
      "type": "function"
    },
    {
      "inputs": [
        {
          "internalType": "string",
          "name": "mineralId",
          "type": "string"
        },
        {
          "internalType": "address",
          "name": "_receivingParty",
          "type": "address"
        },
        {
          "internalType": "string",
          "name": "_origin",
          "type": "string"
        },
        {
          "internalType": "string",
          "name": "_destination",
          "type": "string"
        }
      ],
      "name": "transferMineral",
      "outputs": [],
      "stateMutability": "nonpayable",
      "type": "function"
    }
  ],
  "transactionHash": "0x360e9e4dfdb67f3be5c972b040ead0c68e3669370e3c31e5735a6ee251f7a7f4",
  "args": [
    "0x878515267D1C60928F7F48247bf52286B9Dd2b0b"
  ],
  "numDeployments": 3,
  "solcInputHash": "2f677c6ce168e0016b015b60d61b529e",
  "bytecode": "0x6080346200013657601f6200491a38819003918201601f19168301916001600160401b038311848410176200013b578084926020946040528339810103126200013657516001600160a01b03811690819003620001365743420180421162000120576001556200006f3362000151565b50600080805260046020527f17ef568e3e12ab5b9c7254a8d58478811de00f9e6eb34345acd53bf8fd09d3ec805460001981146200010c579160409160018094019055808052600460205220556040514281527f458ea7e03b3466b3cf9bc2d66ddea8b11fe9469982816f42666888e6c8c6e66460203392a2600680546001600160a01b0319169190911790556040516147379081620001e38239f35b634e487b7160e01b83526011600452602483fd5b634e487b7160e01b600052601160045260246000fd5b600080fd5b634e487b7160e01b600052604160045260246000fd5b6001600160a01b031660008181527fad3228b676f7d3cd4284a5443f17f1962b36e491b30a40b2405849e597ba5fb5602052604081205490919060ff16620001de57818052816020526040822081835260205260408220600160ff1982541617905533917f2f8788117e7eff1d82e926ec794901d17c78024a50270940304540a733656f0d8180a4600190565b509056fe608080604052600436101561001357600080fd5b60003560e01c90816301ffc9a714613827575080630958fc2d1461376d5780630dacad2e146136b3578063126ee3381461338c578063248a9ca31461335d5780632ba3e5ac146132f75780632f2ff15d146132b8578063309514df1461323d5780633499c3a2146131ed57806335ba6207146130e757806336568abe146130a05780633a7adea5146129ac5780633eee83f1146128f557806343d990d81461247a578063480d1dd3146123c05780634e2a3109146122c75780634eabbe771461229e5780635aee1b151461207b5780636377741d14611fc15780636394f6e614611f985780636e1d616e14611f6f57806370e22e4214611f1f57806375a2b0d414611d4b57806379451cd714611d225780637a01a1da14611cf95780637ae9c16014611c7e5780637cde2b9914611b85578063826fe0f51461196057806382dc4a05146119215780638604d288146117805780638850845f1461173057806391d14854146116e357806399691194146115e55780639b188dd61461156a578063a217fddf1461154e578063a917601b14611494578063abaa536f14611444578063ac851dfd14611372578063b6ba1ca714611346578063b9c5b83314611221578063beae4615146111d1578063c395fcb31461116f578063c5db94be146110c1578063ca15c87314610fd7578063cc82b09014610f0b578063d547741f14610eca578063de7ce39114610e7a578063df422bf214610953578063e3a3c5221461092a578063e438fdf8146108af578063ef4c0c9414610618578063f17f352314610410578063f5716a85146103585763fc1032eb1461027157600080fd5b346103535761027f36613953565b610287613c25565b61029082613b79565b15610341576103187f93e936184fad9f80c7000aa987f91be0cd621bacde11839fdc7139f3d9c2407b916000805160206146a28339815191528060005260006020526102e3600160406000200154613c7d565b6102ec85614222565b506000526004602052604060002080548061032f575b5050604051918291604083526040830190613aa4565b4260208301526001600160a01b03909416930390a2005b61033890614446565b90553880610302565b604051632ac1560560e21b8152600490fd5b600080fd5b346103535761036636613953565b61036e613c25565b61037782613ba4565b15610341576103187f4614600adaea632b1e4c381ad24471dab7b587dca104c8dd4da76bc64f19716f916000805160206146c28339815191528060005260006020526103ca600160406000200154613c7d565b6103d3856141ad565b50600052600460205260406000208054806103fe575050604051918291604083526040830190613aa4565b61040790614446565b90558480610302565b34610353576080366003190112610353576001600160401b03600435818111610353576104419036906004016138fd565b9061044a613890565b90604435818111610353576104639036906004016138fd565b906064359081116103535761047c9036906004016138fd565b906000805160206145c283398151915260005260209260008452604060002033600052845260ff6040600020541615610600576001600160a01b031680156105ee578151156105dc578251156105ca57604051600160ff600a8851938881818c01966104e981838a613995565b81016002815203019020015460a01c161515146105a45793610595939261058792600a610544847f55b00b3c29344a545244b18d70b135e423405427088bd5425f13d690b82310b4998b604051938492839251928391613995565b8101600281520301902001336001600160601b0360a01b8254161790556105766040519860a08a5260a08a0190613aa4565b928801528682036040880152613aa4565b908482036060860152613aa4565b914260808201528033930390a2005b604051632072bb0160e11b815260048101869052806105c66024820189613aa4565b0390fd5b604051635dbef47560e01b8152600490fd5b6040516326813e6f60e01b8152600490fd5b60405163bea3fd2f60e01b8152600490fd5b604051630568555f60e41b8152336004820152602490fd5b6080366003190112610353576004356001600160401b038111610353576106439036906004016138fd565b6024356002811015610353576044356001600160a01b0381811693918490036103535733600090815260008051602061458283398151915260209081526040909120549094606435949160ff161561060057604051868186516106a98183858b01613995565b810160078152030190209460048601926106ca60ff855460081c1615614506565b6107c157505060068401543403610785576000808080856001890154168190341561077b575b3491f11561076f577f940131602d0921830dc2448c37a7e380fa8625c7c0b95d4aa8f3f26f84d270ae936001915b610100815442600385015563010000008560b81b033360181b1690828660b81b0319161717905501541661075d60405192606084526060840190613aa4565b938201524260408201528033930390a2005b6040513d6000823e3d90fd5b6108fc91506106f0565b60405162461bcd60e51b8152600481018690526014602482015273125b98dbdc9c9958dd0811551208185b5bdd5b9d60621b6044820152606490fd5b816000526007860187526040600020548103610871578690606485600189015416600060405195869485936323b872dd60e01b8552336004860152602485015260448401525af1801561076f5761083e575b507f940131602d0921830dc2448c37a7e380fa8625c7c0b95d4aa8f3f26f84d270ae9360019161071e565b8581813d831161086a575b61085381836138dc565b810103126103535751801515036103535785610813565b503d610849565b60405162461bcd60e51b8152600481018890526016602482015275125b98dbdc9c9958dd081d1bdad95b88185b5bdd5b9d60521b6044820152606490fd5b34610353576108bd36613953565b6108c5613c25565b6108ce82613bfa565b15610341576103187f352e14c53d161e2481e65145b53265d1608f979a93a06df66d4c99b2a84ddc63916000805160206145e2833981519152806000526000602052610921600160406000200154613c7d565b6103d385614138565b346103535760003660031901126103535760206040516000805160206145e28339815191528152f35b3461035357602080600319360112610353576001600160a01b0361097561387a565b168015610e68576000906000805260008352604060002081600052835260ff8060406000205416610e5f575b60008051602061468283398151915291826000526000855260406000208160005285528160406000205416610e4f575b6000805160206146c2833981519152806000526000865260406000208260005286528260406000205416610e3f575b6000805160206145c2833981519152806000526000875260406000208360005287528360406000205416610e2f575b6000805160206146a2833981519152806000526000885260406000208460005288528460406000205416610e1f575b6000805160206145e283398151915291826000526000895260406000208560005289528560406000205416610e0f575b600080516020614662833981519152938460005260008a526040600020866000528a528660406000205416610dff575b610ac789613ac9565b98610ad56040519a8b6138dc565b808a52610ae4601f1991613ac9565b018a8a60005b838110610dee57505050506000976000805260008b526040600020876000528b528760406000205416610db3575b60005260008a526040600020866000528a528660406000205416610d76575b6000526000895260406000208560005289528560406000205416610d37575b6000526000885260406000208460005288528460406000205416610cf4575b6000526000875260406000208360005287528360406000205416610cb5575b6000526000865260406000208260005286528260406000205416610c74575b60005260008552604060002090600052845260406000205416610c31575b506040519082820192808352815180945260408301938160408260051b8601019301916000955b828710610c055785850386f35b909192938280610c21600193603f198a82030186528851613aa4565b9601920196019592919092610bf8565b610c6d90604051610c41816138c1565b6005815264212aaca2a960d91b85820152610c5c8285614460565b52610c678184614460565b50614437565b5082610bd1565b92610caf90604051610c85816138c1565b600981526824a729a822a1aa27a960b91b88820152610ca48288614460565b52610c678187614460565b92610bb3565b93610cee90604051610cc6816138c1565b600781526620aaa224aa27a960c91b89820152610ce38289614460565b52610c678188614460565b93610b94565b94610d3190604051610d05816138c1565b600b81526a2a2920a729a827a92a22a960a91b8a820152610d26828a614460565b52610c678189614460565b94610b75565b95610d7090604051610d48816138c1565b60078152662922a324a722a960c91b8b820152610d65828b614460565b52610c67818a614460565b95610b56565b96610dad90604051610d87816138c1565b600581526426a4a722a960d91b8c820152610da2828c614460565b52610c67818b614460565b96610b37565b9750604051610dc1816138c1565b600581526420a226a4a760d91b8b820152610ddb8a614453565b52610de589614453565b50600197610b18565b606083828194010152018b90610aea565b97610e0990614437565b97610abe565b96610e1990614437565b96610a8e565b95610e2990614437565b95610a5e565b94610e3990614437565b94610a2f565b93610e4990614437565b93610a00565b92610e5990614437565b926109d1565b600192506109a1565b60405163200db56f60e11b8152600490fd5b3461035357602036600319011261035357610e9361387a565b6001600160a01b03166000908152600080516020614642833981519152602090815260409182902054915160ff9092161515825290f35b3461035357604036600319011261035357610f09600435610ee9613890565b90806000526000602052610f04600160406000200154613c7d565b614297565b005b3461035357602036600319011261035357610f2461387a565b6001600160a01b038116908115610e6857610f3d613c25565b610f4681613bfa565b610fc557610f5390613efb565b506000805160206145e283398151915260005260046020527f9d423956391424a558206d539d4c7b96f2596f9d71b6fe92efe1f071a870ba948054610f9790614437565b90557f49cc27c2a068c01cf703c3923dfc679109b5f6c27bd1f61b542c159e3a73e0926020604051428152a2005b6040516314726de560e21b8152600490fd5b3461035357602036600319011261035357600435600080516020614682833981519152811480156110aa575b8015611093575b801561107c575b8015611065575b801561104e575b1561103c5760005260046020526020604060002054604051908152f35b604051636b9c461160e01b8152600490fd5b50600080516020614662833981519152811461101f565b506000805160206145e28339815191528114611018565b506000805160206146a28339815191528114611011565b506000805160206145c2833981519152811461100a565b506000805160206146c28339815191528114611003565b34610353576040366003190112610353576004356001600160401b038111610353576110f19036906004016138fd565b6001600160a01b03611101613890565b169081600052600960205260ff60406000205416156111565761113560206007928160405193828580945193849201613995565b81018481520301902001906000526020526020604060002054604051908152f35b604051632a7bcee360e11b815260048101839052602490fd5b346103535760203660031901126103535761118861387a565b6001600160a01b031660009081527fad3228b676f7d3cd4284a5443f17f1962b36e491b30a40b2405849e597ba5fb5602090815260409182902054915160ff9092161515825290f35b34610353576020366003190112610353576111ea61387a565b6001600160a01b03166000908152600080516020614582833981519152602090815260409182902054915160ff9092161515825290f35b3461035357600036600319011261035357600460209081527f973ccc145476ef147b966a44694f8b2d26bac5a3d44a844fec6be696fe5fea70547f02ff85b9f193a3a7824cbaf5a79db262c0bac955152adf2752c6413d76b2d3c7547f0e08e55c6329ca2d4f38429c472032b4e97537c869a64c376bb7e702721eb8c3547fa792fa383e6bd9c6b4465bbfd8031f4b47377210fa121067c03906e9afac6246547f9d423956391424a558206d539d4c7b96f2596f9d71b6fe92efe1f071a870ba94546000805160206146628339815191526000527f5455ba4b8a75b33fa0f1f7affd9817680912f06b7b194bcf9ac01183c4930020546040805196875296860194909452948401919091526060830152608082019290925260a081019190915260c090f35b346103535760203660031901126103535760043560005260046020526020604060002054604051908152f35b3461035357602080600319360112610353576004356001600160401b038111610353576113a39036906004016138fd565b805115611421576040516113dd6113e48351928581818701956113c7818389613995565b8101600281520301902060405192838092613a0e565b03826138dc565b8381519101209082519020036113fe575060405160018152f35b906105c66040519283926311bb0bc960e31b845260048401526024830190613aa4565b906105c660405192839263f855236d60e01b845260048401526024830190613aa4565b346103535760203660031901126103535761145d61387a565b6001600160a01b03166000908152600080516020614542833981519152602090815260409182902054915160ff9092161515825290f35b34610353576020366003190112610353576114ad61387a565b6001600160a01b038116908115610e68576114c6613c25565b6114cf81613bcf565b610fc5576114dc90613e84565b506000805160206145c283398151915260005260046020527f0e08e55c6329ca2d4f38429c472032b4e97537c869a64c376bb7e702721eb8c3805461152090614437565b90557f964e50cb3bdb84c00a30f56ae15d538d23dc6db14f891d7d819761b161e990a66020604051428152a2005b3461035357600036600319011261035357602060405160008152f35b346103535761157836613953565b611580613c25565b61158982613b4e565b15610341576103187f69e94e373f69f3f945457a07b335722310788af9cd459a33df6f72cc9e964043916000805160206146628339815191528060005260006020526115dc600160406000200154613c7d565b6103d3856140c3565b34610353576115f336613ae0565b3360009081526000805160206145a2833981519152602090815260409091205491929160ff161561060057604051600160ff600a85519385818189019661163b81838a613995565b81016002815203019020015460b81c161515146116c05791600a61168f6116bb937f3a9eebd240f4c9f631531ebc672c4c040de483b868ccebe8a3a1fdad70cde0d995604051809381928751928391613995565b8101600281520301902001600160b81b60ff60b81b198254161790556040519182913395429184614409565b0390a2005b506105c6604051928392636f5f944160e11b845260048401526024830190613aa4565b34610353576040366003190112610353576116fc613890565b600435600052600060205260406000209060018060a01b0316600052602052602060ff604060002054166040519015158152f35b346103535760203660031901126103535761174961387a565b6001600160a01b031660009081526000805160206145a2833981519152602090815260409182902054915160ff9092161515825290f35b346103535761178e36613ae0565b336000908152600080516020614642833981519152602090815260409091205491929160ff161561060057604051818184516117cd8183858901613995565b8101600781520301902060048101805460ff8116156118e7576117f660ff8260081c1615614506565b60018301546001600160a01b031633036118b65760ff8160b81c161561187e579261185b8660057f48009e0de65db9a1c994f7f48e9cfe917749fa06f868b8948251d3789a00a65597956116bb956201000061186f9962ff00001916179055016142fa565b604051938493604085526040850190613aa4565b90838203908401523395613aa4565b60405162461bcd60e51b815260048101859052601060248201526f4e6f74206d61726b657420726561647960801b6044820152606490fd5b60405162461bcd60e51b81526004810185905260096024820152682737ba1037bbb732b960b91b6044820152606490fd5b60405162461bcd60e51b8152600481018590526012602482015271135a5b995c985b081b9bdd081cdd1bdc995960721b6044820152606490fd5b34610353576020366003190112610353576001600160a01b0361194261387a565b166000526009602052602060ff604060002054166040519015158152f35b3461035357602080600319360112610353576004356001600160401b038111610353576119919036906004016138fd565b604051908051906113dd6119c8858301936119ad818787613995565b85019486816002978881520301902060405192838092613a0e565b8481519101208151908184201490811591611b7c575b50611b6a578284916119f860405194859251928391613995565b83019282816003958681520301902090815490611a1482613ac9565b94611a2260405196876138dc565b82865284860191829460005285600020916000935b858510611ae857604080518981528a51818b01819052600092600582901b83018101918b918d9085015b828710611a6e5785850386f35b909192938280600192603f19898203018552875190611abd611aab611a9b845160a0808652850190613aa4565b8585015184820387860152613aa4565b60408401518382036040850152613aa4565b916060868060a01b038183015116908301526080809101519101529601920196019592919092611a61565b60058860019260409b9a9b51611afd816138a6565b604051611b0e816113dd818c613a0e565b8152604051611b23816113dd81898d01613a0e565b83820152604051611b3a816113dd818b8d01613a0e565b6040820152848060a01b038689015416606082015260048801546080820152815201940194019392979697611a37565b6040516329d7b10b60e11b8152600490fd5b905015856119de565b3461035357611b9336613ae0565b336000908152600080516020614642833981519152602090815260409091205491929160ff161561060057604051600160ff600a855193858181890196611bdb81838a613995565b81016002815203019020015460a81c16151514611c5b5791600a611c2f6116bb937fa214f45af6d86b0d5ff7bb48f888cf4205e4a383da35fcbebfdbd9bd8e6d5a7c95604051809381928751928391613995565b8101600281520301902001600160a81b60ff60a81b198254161790556040519182913395429184614409565b506105c660405192839263701203b760e01b845260048401526024830190613aa4565b3461035357611c8c36613953565b611c94613c25565b611c9d82613bcf565b15610341576103187f71577b91708c73ee54b43c6709958ff42e4bcc084910648ce7c3d16928b51d52916000805160206145c2833981519152806000526000602052611cf0600160406000200154613c7d565b6103d38561404e565b346103535760003660031901126103535760206040516000805160206146628339815191528152f35b346103535760003660031901126103535760206040516000805160206146c28339815191528152f35b3461035357602080600319360112610353576004356001600160401b03811161035357611d7c9036906004016138fd565b906000805260008152604060002033600052815260ff6040600020541615610600576040516113dd611dbb8451928481818801956113c7818389613995565b8281519101208351908183201490811591611f16575b50611b6a5760ff600a60405184818751611dec818389613995565b81016002815203019020015460b01c1680611eea575b15611ec7579060ff600a611ea883604096958751606081527f10f4ba4c7bb6f0c442f54585004a6e24440bea5c2d2e6f36b688e3e624762e22611e48606083018a613aa4565b916b54726164696e67526561647960a01b85828503948582850152600c81520152428b8201528a33930190a28484895184818b51611e87818389613995565b81016002815203019020015460b01c16968851938492839251928391613995565b81016002815203019020015460b81c1683519215158352151590820152f35b506105c66040519283926348cddbdb60e11b845260048401526024830190613aa4565b5060ff600a60405184818751611f01818389613995565b81016002815203019020015460b81c16611e02565b90501584611dd1565b3461035357602036600319011261035357611f3861387a565b6001600160a01b03166000908152600080516020614622833981519152602090815260409182902054915160ff9092161515825290f35b346103535760003660031901126103535760206040516000805160206146a28339815191528152f35b346103535760003660031901126103535760206040516000805160206146828339815191528152f35b3461035357602036600319011261035357611fda61387a565b6001600160a01b038116908115610e6857611ff3613c25565b611ffc81613ba4565b610fc55761200990613e0d565b506000805160206146c283398151915260005260046020527f02ff85b9f193a3a7824cbaf5a79db262c0bac955152adf2752c6413d76b2d3c7805461204d90614437565b90557f4e3eede475de92d3e23765b737dbb67646352b3328c1a437d7f089766d7be7516020604051428152a2005b34610353576020366003190112610353576004356001600160401b038111610353576120ab9036906004016138fd565b60405181818093516020819301916120c292613995565b810160028152036020019020604051806120dc8184613a0e565b036120e790826138dc565b60405191826120f98160018401613a0e565b0361210490846138dc565b604051806121158160028501613a0e565b0361212090826138dc565b60405191826121328160038401613a0e565b0361213d90846138dc565b6004810154600582015460405194918561215a8160068701613a0e565b0361216590876138dc565b60078401546040516001600160a01b039790939188169290918461218c8160088a01613a0e565b0361219790866138dc565b60405195866121a98160098b01613a0e565b036121b490886138dc565b600a88015497600b0154986040519c8d9c8d61020090818152016121d791613aa4565b8d810360208f01526121e891613aa4565b8c810360408e01526121f991613aa4565b8b810360608d015261220a91613aa4565b9160808b015260a08a015288810360c08a015261222691613aa4565b9060e088015286810361010088015261223e91613aa4565b85810361012087015261225091613aa4565b9281166101408501528060a01c60ff1615156101608501528060a81c60ff1615156101808501528060b01c60ff1615156101a085015260b81c60ff1615156101c08401526101e08301520390f35b346103535760003660031901126103535760206040516000805160206145c28339815191528152f35b34610353576122d536613ae0565b336000908152600080516020614542833981519152602090815260409091205491929160ff161561060057604051600160ff600a85519385818189019661231d81838a613995565b81016002815203019020015460b01c1615151461239d5791600a6123716116bb937fa9de1934279a83f8cfaaecf6a7002ac10aeaea244c8c763f3752f3fc4c3e631d95604051809381928751928391613995565b8101600281520301902001600160b01b60ff60b01b198254161790556040519182913395429184614409565b506105c660405192839263c817400d60e01b845260048401526024830190613aa4565b34610353576020366003190112610353576123d961387a565b6001600160a01b038116908115610e68576123f2613c25565b6123fb81613b79565b610fc55761240890613d96565b506000805160206146a283398151915260005260046020527fa792fa383e6bd9c6b4465bbfd8031f4b47377210fa121067c03906e9afac6246805461244c90614437565b90557f4a02edd19f09212e54b2ac85d7d3a4a2e3fbf424e6710c3f817d9b4cecc9cdb36020604051428152a2005b34610353576080366003190112610353576001600160401b03600435818111610353576124ab9036906004016138fd565b604480359260249081358186116103535736602387011215610353578560040135956124d687613ac9565b906124e460405192836138dc565b878252602097858984019160051b83010191368311610353578601905b8282106128d6575050506064918235938411610353573660238501121561035357836004013561253081613ac9565b9461253e60405196876138dc565b818652868a87019260051b8201019136831161035357878b9201905b8382106128c757505050506000805160206146c283398151915260005260008852604060002033600052885260ff8060406000205416156128b0578781600a6040518c818186519601956125af818389613995565b81016002815203019020015460a81c161561288f57835186510361287d57821561286b5781600a6040518c818d516125e8818389613995565b81016002815203019020015460a81c16156128335783518651036127fd57896126239160409b9a999897969b51809381928c51928391613995565b8101600781520301902098612638888b6142fa565b60018a810180546001600160a01b0319163317905560048b0180544260028e015560ff60ff60b81b0119166001600160b81b0117905560068b01939093556000999296600790930192875b612750575b505050505050909192935060085491600160401b83101561273b57820180600855821015612727575090612704817f250d87dc011edb5ebb474599d748faa904e99846d065ed0e939f8e99c0deb2f79360086000527ff3f7a9fe364faab93b216da50a3214154f22a0a2b415b23a84c8169e8b636ee3016142fa565b61271960405191604083526040830190613aa4565b9242908201528033930390a2005b634e487b7160e01b60009081526032600452fd5b50634e487b7160e01b60009081526041600452fd5b84518b10156127f8576001600160a01b038061276c8d88614460565b511660005260098b528360406000205416156127c2578b6127b791868d9e9d61279a8d9e9f8c9d9e9c614460565b51926127a6858c614460565b511660005252604060002055614437565b9a9998979695612683565b5071151bdad95b881b9bdd081858d8d95c1d195960721b8a916012896040519462461bcd60e51b86526004860152840152820152fd5b612688565b60405162461bcd60e51b8152600481018b9052601181890152704d69736d6174636865642061727261797360781b818a01528590fd5b60405162461bcd60e51b8152600481018b905260138189015272135a5b995c985b081b9bdd081c99599a5b9959606a1b818a01528590fd5b60405163b4f6dd7160e01b8152600490fd5b604051639df5889d60e01b8152600490fd5b6040516324f76cfb60e01b8152600481018b9052806105c6818a018c613aa4565b604051630568555f60e41b81523360048201528690fd5b8135815290820190820161255a565b81356001600160a01b0381168103610353578152908901908901612501565b346103535760203660031901126103535761290e61387a565b3360009081527fad3228b676f7d3cd4284a5443f17f1962b36e491b30a40b2405849e597ba5fb5602052604090205460ff1615610600576001600160a01b0316801561296f576000908152600960205260409020805460ff19166001179055005b60405162461bcd60e51b8152602060048201526015602482015274496e76616c696420746f6b656e206164647265737360581b6044820152606490fd5b346103535760c0366003190112610353576004356001600160401b038111610353576129dc9036906004016138fd565b6024356001600160401b038111610353576129fb9036906004016138fd565b6064356001600160401b03811161035357612a1a9036906004016138fd565b9160a4356001600160401b03811161035357612a3a9036906004016138fd565b336000908152600080516020614602833981519152602052604090205490929060ff16156106005781511561308e578351156105dc5780511561307c576044351561306a5760843515801561305e575b61304c57605060843511156130325782511561302057600154612aac81614437565b600155604051612af260748260208101948651612acd818860208b01613995565b8201903360601b602083015242603483015260548201520360548101845201826138dc565b5190209260405193612b03856138c1565b600a85526020368187013784511561300a576030602086015384516001101561300a576078602186015360005b60048110612f77575050612b85602160405180968551612b57816020850160208a01613995565b8201602d60f81b6020820152612b768251809360208785019101613995565b010360018101875201856138dc565b6040519061020082018281106001600160401b03821117612f6157604052848252836020830152856040830152826060830152604435608083015260843560a083015260c08201523360e0820152604051612bdf816138c1565b600381526252617760e81b6020820152610100820152604051612c01816138c1565b600d81526c26b4b734b7339021b2b73a32b960991b6020820152610120820152336101408201526000610160820152600061018082015260006101a082015260006101c0820152426101e0820152600b6101e06040516020818851612c698183858d01613995565b8101600281520301902092612c7f8151856142fa565b612c906020820151600186016142fa565b612ca16040820151600286016142fa565b612cb26060820151600386016142fa565b6080810151600485015560a08101516005850155612cd760c0820151600686016142fa565b60018060a01b0360e0820151166001600160601b0360a01b600786015416176007850155612d0d610100820151600886016142fa565b612d1f610120820151600986016142fa565b600a840160018060a01b036101408301511681549060ff60a01b610160850151151560a01b1660ff60a81b610180860151151560a81b169060ff60b01b6101a0870151151560b01b169260ff60b81b6101c0880151151560b81b16946001600160401b0360c01b161717171717905501519101556040516020818551612da88183858a01613995565b81016003815203019020936040519467027b934b3b4b71d160c51b6020870152612df06028878451612de08184840160208901613995565b81010360088101895201876138dc565b60405195612dfd876138a6565b858752604051612e0c816138c1565b600a815269149959da5cdd195c995960b21b6020820152602088015260408701523360608701524260808701528054600160401b811015612f6157612e56916001820181556139b8565b919091612f4b576105877f73c819068ba25b88a32cb91f9b552ab50d9cccb7c4abdeb2a04f44373b71539393612f1693600460808a612e99612f479c51856142fa565b612eaa6020820151600186016142fa565b612ebb6040820151600286016142fa565b6003840160018060a01b036060830151166001600160601b0360a01b8254161790550151910155612f086040519660e08852612efa60e089018a613aa4565b9088820360208a0152613aa4565b908682036040880152613aa4565b91604435608082015260843560a08201524260c08201528033930390a2604051918291602083526020830190613aa4565b0390f35b634e487b7160e01b600052600060045260246000fd5b634e487b7160e01b600052604160045260246000fd5b602081101561300a5781811a90600f612f94818460041c16614485565b908260011b936002848604811485151715612ff457858101809111612ff457612fc4612fcb9460001a918c614474565b5316614485565b916003908101809111612ff457612fe9612fef9360001a9189614474565b53614437565b612b30565b634e487b7160e01b600052601160045260246000fd5b634e487b7160e01b600052603260045260246000fd5b60405163bfccc8e960e01b8152600490fd5b60405163d05db01960e01b81526084356004820152602490fd5b604051633abe7db760e21b8152600490fd5b50606460843511612a8a565b60405163fd83f8d960e01b8152600490fd5b60405163a765e58f60e01b8152600490fd5b604051630ac6e45360e31b8152600490fd5b34610353576040366003190112610353576130b9613890565b336001600160a01b038216036130d557610f0990600435614297565b60405163334bd91960e11b8152600490fd5b34610353576040366003190112610353576004356001600160401b038111610353576131179036906004016138fd565b6131336020602435928160405193828580945193849201613995565b810160038152030190208054821015610353576131c291613153916139b8565b506040519061316d826131668184613a0e565b03836138dc565b604051613181816113dd8160018601613a0e565b6131de604051613198816113dd8160028801613a0e565b6131d0600460018060a01b036003870154169501549360405197889760a0895260a0890190613aa4565b908782036020890152613aa4565b908582036040870152613aa4565b91606084015260808301520390f35b346103535760203660031901126103535761320661387a565b6001600160a01b03166000908152600080516020614602833981519152602090815260409182902054915160ff9092161515825290f35b346103535761324b36613953565b613253613c25565b61325c82613b23565b15610341576103187f125f88db22967983b401f70f6804d47f43cb545fcb725d0b335fe7d43d9b4a4a916000805160206146828339815191528060005260006020526132af600160406000200154613c7d565b6103d385613fd9565b3461035357604036600319011261035357610f096004356132d7613890565b908060005260006020526132f2600160406000200154613c7d565b613f72565b34610353576020366003190112610353576004356001600160401b0381116103535760ff600461334360206133308195369085016138fd565b8160405193828580945193849201613995565b81016007815203019020015460b81c166040519015158152f35b346103535760203660031901126103535760043560005260006020526020600160406000200154604051908152f35b3461035357602080600319360112610353576004356001600160401b038111610353576133bd9036906004016138fd565b9060008051602061466283398151915260005260008152604060002033600052815260ff918260406000205416156106005760405181519383830194613404818488613995565b8201906001816002938481528588600a97889303019020015460a01c161515146136915760008052600085526040600020336000528552806040600020541615610600576113dd6134776040518781806134628c8b51928391613995565b81018781520301902060405192838092613a0e565b8581519101208451908188201490811591613688575b50611b6a5780836040518781806134a88c8b51928391613995565b810187815203019020015460b01c168061365d575b1561363b57604051606081527f10f4ba4c7bb6f0c442f54585004a6e24440bea5c2d2e6f36b688e3e624762e226134f76060830187613aa4565b916b54726164696e67526561647960a01b88828503948582850152600c81520152426040820152604033930190a2808360405187818061353b8c8b51928391613995565b810187815203019020015460b01c1690836040518781806135608c8b51928391613995565b810187815203019020015460b81c1681613633575b501561361157837ffed1001c142a7ab386454a2f7d78b013ba7ff40595d10c128f2fb6463ccd7b7a94956135e39284604051848189516135b6818389613995565b81018581520301902001805460ff60a01b1916600160a01b17905560405186519094859382908590613995565b8201908152030190200180546001600160a01b03191633179055604080518181529161271991830190613aa4565b6040516348cddbdb60e11b815260048101859052806105c66024820186613aa4565b905086613575565b6040516348cddbdb60e11b815260048101869052806105c66024820187613aa4565b5080836040518781806136748c8b51928391613995565b810187815203019020015460b81c166134bd565b9050158761348d565b604051632072bb0160e11b815260048101869052806105c66024820187613aa4565b34610353576020366003190112610353576136cc61387a565b6001600160a01b038116908115610e68576136e5613c25565b6136ee81613b4e565b610fc5576136fb90613d1f565b5060008051602061466283398151915260005260046020527f5455ba4b8a75b33fa0f1f7affd9817680912f06b7b194bcf9ac01183c4930020805461373f90614437565b90557ff8ed9ac482b0f7c12999b3f157f758f84e39cd339fa301ea203823ac29e975056020604051428152a2005b346103535760203660031901126103535761378661387a565b6001600160a01b038116908115610e685761379f613c25565b6137a881613b23565b610fc5576137b590613ca3565b5060008051602061468283398151915260005260046020527f973ccc145476ef147b966a44694f8b2d26bac5a3d44a844fec6be696fe5fea7080546137f990614437565b90557f593f046317558c2857b92915c62c99f2d2108f7bc6f1e1b3c5376cd559abf5596020604051428152a2005b34610353576020366003190112610353576004359063ffffffff60e01b821680920361035357602091637965db0b60e01b8114908115613869575b5015158152f35b6301ffc9a760e01b14905083613862565b600435906001600160a01b038216820361035357565b602435906001600160a01b038216820361035357565b60a081019081106001600160401b03821117612f6157604052565b604081019081106001600160401b03821117612f6157604052565b90601f801991011681019081106001600160401b03821117612f6157604052565b81601f82011215610353578035906001600160401b038211612f615760405192613931601f8401601f1916602001856138dc565b8284526020838301011161035357816000926020809301838601378301015290565b906040600319830112610353576004356001600160a01b03811681036103535791602435906001600160401b03821161035357613992916004016138fd565b90565b60005b8381106139a85750506000910152565b8181015183820152602001613998565b805482101561300a576000526005602060002091020190600090565b90600182811c92168015613a04575b60208310146139ee57565b634e487b7160e01b600052602260045260246000fd5b91607f16916139e3565b9060009291805491613a1f836139d4565b918282526001938481169081600014613a815750600114613a41575b50505050565b90919394506000526020928360002092846000945b838610613a6d575050505001019038808080613a3b565b805485870183015294019385908201613a56565b9294505050602093945060ff191683830152151560051b01019038808080613a3b565b90602091613abd81518092818552858086019101613995565b601f01601f1916010190565b6001600160401b038111612f615760051b60200190565b906040600319830112610353576001600160401b036004358181116103535783613b0c916004016138fd565b9260243591821161035357613992916004016138fd565b6001600160a01b03166000908152600080516020614602833981519152602052604090205460ff1690565b6001600160a01b03166000908152600080516020614582833981519152602052604090205460ff1690565b6001600160a01b03166000908152600080516020614542833981519152602052604090205460ff1690565b6001600160a01b03166000908152600080516020614642833981519152602052604090205460ff1690565b6001600160a01b03166000908152600080516020614622833981519152602052604090205460ff1690565b6001600160a01b031660009081526000805160206145a2833981519152602052604090205460ff1690565b3360009081527fad3228b676f7d3cd4284a5443f17f1962b36e491b30a40b2405849e597ba5fb5602052604081205460ff1615613c5f5750565b6044906040519063e2517d3f60e01b82523360048301526024820152fd5b80600052600060205260406000203360005260205260ff6040600020541615613c5f5750565b6001600160a01b0316600081815260008051602061460283398151915260205260408120549091906000805160206146828339815191529060ff16613d1a57808352826020526040832082845260205260408320600160ff19825416179055600080516020614562833981519152339380a4600190565b505090565b6001600160a01b0316600081815260008051602061458283398151915260205260408120549091906000805160206146628339815191529060ff16613d1a57808352826020526040832082845260205260408320600160ff19825416179055600080516020614562833981519152339380a4600190565b6001600160a01b0316600081815260008051602061454283398151915260205260408120549091906000805160206146a28339815191529060ff16613d1a57808352826020526040832082845260205260408320600160ff19825416179055600080516020614562833981519152339380a4600190565b6001600160a01b0316600081815260008051602061464283398151915260205260408120549091906000805160206146c28339815191529060ff16613d1a57808352826020526040832082845260205260408320600160ff19825416179055600080516020614562833981519152339380a4600190565b6001600160a01b0316600081815260008051602061462283398151915260205260408120549091906000805160206145c28339815191529060ff16613d1a57808352826020526040832082845260205260408320600160ff19825416179055600080516020614562833981519152339380a4600190565b6001600160a01b031660008181526000805160206145a283398151915260205260408120549091906000805160206145e28339815191529060ff16613d1a57808352826020526040832082845260205260408320600160ff19825416179055600080516020614562833981519152339380a4600190565b9060009180835282602052604083209160018060a01b03169182845260205260ff60408420541615600014613d1a57808352826020526040832082845260205260408320600160ff19825416179055600080516020614562833981519152339380a4600190565b6001600160a01b0316600081815260008051602061460283398151915260205260408120549091906000805160206146828339815191529060ff1615613d1a5780835282602052604083208284526020526040832060ff1981541690556000805160206146e2833981519152339380a4600190565b6001600160a01b0316600081815260008051602061462283398151915260205260408120549091906000805160206145c28339815191529060ff1615613d1a5780835282602052604083208284526020526040832060ff1981541690556000805160206146e2833981519152339380a4600190565b6001600160a01b0316600081815260008051602061458283398151915260205260408120549091906000805160206146628339815191529060ff1615613d1a5780835282602052604083208284526020526040832060ff1981541690556000805160206146e2833981519152339380a4600190565b6001600160a01b031660008181526000805160206145a283398151915260205260408120549091906000805160206145e28339815191529060ff1615613d1a5780835282602052604083208284526020526040832060ff1981541690556000805160206146e2833981519152339380a4600190565b6001600160a01b0316600081815260008051602061464283398151915260205260408120549091906000805160206146c28339815191529060ff1615613d1a5780835282602052604083208284526020526040832060ff1981541690556000805160206146e2833981519152339380a4600190565b6001600160a01b0316600081815260008051602061454283398151915260205260408120549091906000805160206146a28339815191529060ff1615613d1a5780835282602052604083208284526020526040832060ff1981541690556000805160206146e2833981519152339380a4600190565b9060009180835282602052604083209160018060a01b03169182845260205260ff604084205416600014613d1a5780835282602052604083208284526020526040832060ff1981541690556000805160206146e2833981519152339380a4600190565b91909182516001600160401b038111612f615761431782546139d4565b601f81116143c1575b50602080601f831160011461435d575081929394600092614352575b50508160011b916000199060031b1c1916179055565b01519050388061433c565b90601f198316958460005282600020926000905b8882106143a957505083600195969710614390575b505050811b019055565b015160001960f88460031b161c19169055388080614386565b80600185968294968601518155019501930190614371565b600083815260208120601f840160051c810192602085106143ff575b601f0160051c01915b8281106143f4575050614320565b8181556001016143e6565b90925082906143dd565b93929161443290614424604093606088526060880190613aa4565b908682036020880152613aa4565b930152565b6000198114612ff45760010190565b8015612ff4576000190190565b80511561300a5760200190565b805182101561300a5760209160051b010190565b90815181101561300a570160200190565b60009060ff16600a8110156144b157603091500160ff8111612ff45760f81b6001600160f81b03191690565b60610160ff81116144f25760ff6009199116019060ff82116144de575060f81b6001600160f81b03191690565b634e487b7160e01b81526011600452602490fd5b634e487b7160e01b82526011600452602482fd5b1561450d57565b60405162461bcd60e51b815260206004820152600c60248201526b105b1c9958591e481cdbdb1960a21b6044820152606490fdfe0d2d6a5d08cb5d871289c0a3ca855d9da72909a111c24cce2d5c2b34a20daa542f8788117e7eff1d82e926ec794901d17c78024a50270940304540a733656f0df3fa603c74bfe2a4719960e47343678c3dc690d2b27a2295acc6fc430833aaf9acfff8a39fb957d9d1c8e3ef9f08385e3fcf7bb23ab7ba0ad0f8df93dbde6a68ddaa901e2fe3bda354fe0ede2785152d5c109282a613fe024a056a3e66c41bb3273dcf2136c7d8ef632bb8ef13dbca69a8f36fa620c7468671b3153d46a211c0bb3fcc25fbffa12ea463b3505377899a4d5ddb4858b9c7bd36764686d9425b36bce5fd3347e0dc338dcc0e895534dd4af2740eec95f56cd4ca4b4b2ada357ca04130a4caca6023b0ba21488ee680ce5c3df22860b1cd8b02cd2a0bcb0de98851f8cd32ed93fc2f9fc78152a14807c9609af3d99c5fe4dc6b106a801aaddfe90ea952726ef2588ad078edf35b066f7c7406e207cb0003bbaba8cb53eba9553e7259a1c48e5837ad7a7f3dcedcbe129bf3249ec4fbf651fd4f5e2600ead39fe2f5a977e1a3444218ff332edf735c56487bbe59922b15c88777d443eb8b78020f4df6391f5c32d9c69d2a47ea670b442974b53935d1edc7fd64eb21e047a839171ba2646970667358221220a6c458656cad21353c58915a6e4b4b9e7c9aa2612d7d66af62cfd46fbbb55a0164736f6c63430008140033",
  "devdoc": {
    "errors": {
      "AccessControlBadConfirmation()": [
        {
          "details": "The caller of a function is not the expected one. NOTE: Don't confuse with {AccessControlUnauthorizedAccount}."
        }
      ],
      "AccessControlUnauthorizedAccount(address,bytes32)": [
        {
          "details": "The `account` is missing a role."
        }
      ]
    },
    "events": {
      "RoleAdminChanged(bytes32,bytes32,bytes32)": {
        "details": "Emitted when `newAdminRole` is set as ``role``'s admin role, replacing `previousAdminRole` `DEFAULT_ADMIN_ROLE` is the starting admin for all roles, despite {RoleAdminChanged} not being emitted signaling this."
      },
      "RoleGranted(bytes32,address,address)": {
        "details": "Emitted when `account` is granted `role`. `sender` is the account that originated the contract call, an admin role bearer except when using {AccessControl-_setupRole}."
      },
      "RoleRevoked(bytes32,address,address)": {
        "details": "Emitted when `account` is revoked `role`. `sender` is the account that originated the contract call:   - if using `revokeRole`, it is the admin role bearer   - if using `renounceRole`, it is the role bearer (i.e. `account`)"
      }
    },
    "kind": "dev",
    "methods": {
      "_auditMineral(string,string)": {
        "details": "only the auditor can audit mineralDetails.Logs audit report on every successful audit.",
        "params": {
          "mineralId": "The ID of the mineral under audition.",
          "report": "The audit status report of the mineral under audition."
        }
      },
      "checkAuditAndInspectionStatus(string)": {
        "details": "checks audit and inspection status",
        "params": {
          "mineralId": "The ID of the mineral to check for audit and inspection status Returns (isValid, isInspected) statuses of both audit and inspection of mineral according to mineralId"
        }
      },
      "getAllRoleCounts()": {
        "details": "Returns all role counts in a single call",
        "returns": {
          "auditorCount": "Number of auditors",
          "buyerCount": "Number of buyers",
          "inspectorCount": "Number of inspectors",
          "minerCount": "Number of miners",
          "refinerCount": "Number of refiners",
          "transporterCount": "Number of transporters"
        }
      },
      "getRoleAdmin(bytes32)": {
        "details": "Returns the admin role that controls `role`. See {grantRole} and {revokeRole}. To change a role's admin, use {_setRoleAdmin}."
      },
      "getRoleMemberCount(bytes32)": {
        "details": "Returns the number of accounts that have a specific role",
        "params": {
          "role": "The role to query member count for"
        },
        "returns": {
          "count": "The number of accounts with the role"
        }
      },
      "getRolesForAddress(address)": {
        "details": "Returns all roles assigned to a given address",
        "params": {
          "account": "The address to check roles for"
        },
        "returns": {
          "roles": "An array of role names the address has"
        }
      },
      "grantRole(bytes32,address)": {
        "details": "Grants `role` to `account`. If `account` had not been already granted `role`, emits a {RoleGranted} event. Requirements: - the caller must have ``role``'s admin role. May emit a {RoleGranted} event."
      },
      "hasMinerRole(address)": {
        "details": "Roles helper functionschecks if an account has a specific role",
        "params": {
          "account": "The address of the account to checked with role association"
        }
      },
      "hasRole(bytes32,address)": {
        "details": "Returns `true` if `account` has been granted `role`."
      },
      "inspectMineral(string,string)": {
        "details": "only the inspector can inspect mineralDetailsLogs audit report on every successful inspection",
        "params": {
          "mineralId": "The ID of the mineral under inspection",
          "report": "The inspection status report of the mineral under inspection"
        }
      },
      "isMineralRegistered(string)": {
        "details": "checks if a mineral with the given ID is registered",
        "params": {
          "mineralId": "the ID of the mineral to check"
        },
        "returns": {
          "_0": "A boolean indicating whether the mineral is registered or not"
        }
      },
      "purchaseMineral(string)": {
        "details": "Only the buyer can purchase mineralDetails",
        "params": {
          "mineralId": "The ID of the mineral under purchase"
        }
      },
      "refineMineral(string,string)": {
        "details": "only the refiner can refiner a mineral",
        "params": {
          "mineralId": "The ID of the mineral under refinery"
        }
      },
      "registerMineral(string,string,uint256,string,uint256,string)": {
        "details": "Register a new mineral - only by miner.Every mineral is assigned a unique mineralId.",
        "params": {
          "_mineralType": "The type of a mineral.",
          "_name": "Mineral name.",
          "_origin": "Mineral Origin.",
          "_purityPercentage": "Mineral purity in percentage.",
          "_storageConditions": "Mineral Storage conditions.",
          "_weight": "Mineral weight in uint256."
        }
      },
      "renounceRole(bytes32,address)": {
        "details": "Revokes `role` from the calling account. Roles are often managed via {grantRole} and {revokeRole}: this function's purpose is to provide a mechanism for accounts to lose their privileges if they are compromised (such as when a trusted device is misplaced). If the calling account had been revoked `role`, emits a {RoleRevoked} event. Requirements: - the caller must be `callerConfirmation`. May emit a {RoleRevoked} event."
      },
      "revokeRole(bytes32,address)": {
        "details": "Revokes `role` from `account`. If `account` had been granted `role`, emits a {RoleRevoked} event. Requirements: - the caller must have ``role``'s admin role. May emit a {RoleRevoked} event."
      },
      "supportsInterface(bytes4)": {
        "details": "See {IERC165-supportsInterface}."
      },
      "transferMineral(string,address,string,string)": {
        "details": "only the transporter can transport mineralDetails",
        "params": {
          "_destination": "The Destination area of the mineral(string)",
          "_origin": "The Original location of the mineral under transportation",
          "_receivingParty": "The address of the destination portal",
          "mineralId": "The ID of the mineral under transportation"
        }
      }
    },
    "version": 1
  },
  "userdoc": {
    "kind": "user",
    "methods": {
      "_auditMineral(string,string)": {
        "notice": "Emits MineralAudited event."
      },
      "inspectMineral(string,string)": {
        "notice": "Emits MineralInspected event on successful inspection"
      },
      "purchaseMineral(string)": {
        "notice": "Emits MineralPurchased event on successful purchase"
      },
      "refineMineral(string,string)": {
        "notice": "Emits MineralRefined event on successfl refining process"
      },
      "registerMineral(string,string,uint256,string,uint256,string)": {
        "notice": "Emits MineralRegistered event on successful registration."
      },
      "transferMineral(string,address,string,string)": {
        "notice": "Emits MineralTransported on successful transportation"
      }
    },
    "version": 1
  },
  "storageLayout": {
    "storage": [
      {
        "astId": 26,
        "contract": "contracts/modules/MineralWarehouse.sol:MineralWarehouse",
        "label": "_roles",
        "offset": 0,
        "slot": "0",
        "type": "t_mapping(t_bytes32,t_struct(RoleData)21_storage)"
      },
      {
        "astId": 3707,
        "contract": "contracts/modules/MineralWarehouse.sol:MineralWarehouse",
        "label": "nonce",
        "offset": 0,
        "slot": "1",
        "type": "t_uint256"
      },
      {
        "astId": 3712,
        "contract": "contracts/modules/MineralWarehouse.sol:MineralWarehouse",
        "label": "mineralDetails",
        "offset": 0,
        "slot": "2",
        "type": "t_mapping(t_string_memory_ptr,t_struct(MineralDetails)3689_storage)"
      },
      {
        "astId": 3718,
        "contract": "contracts/modules/MineralWarehouse.sol:MineralWarehouse",
        "label": "mineralHistories",
        "offset": 0,
        "slot": "3",
        "type": "t_mapping(t_string_memory_ptr,t_array(t_struct(MineralHistory)3700_storage)dyn_storage)"
      },
      {
        "astId": 3722,
        "contract": "contracts/modules/MineralWarehouse.sol:MineralWarehouse",
        "label": "roleMemberCount",
        "offset": 0,
        "slot": "4",
        "type": "t_mapping(t_bytes32,t_uint256)"
      },
      {
        "astId": 8071,
        "contract": "contracts/modules/MineralWarehouse.sol:MineralWarehouse",
        "label": "mineralRegistry",
        "offset": 0,
        "slot": "5",
        "type": "t_contract(MineralRegistry)8056"
      },
      {
        "astId": 8074,
        "contract": "contracts/modules/MineralWarehouse.sol:MineralWarehouse",
        "label": "rolesManager",
        "offset": 0,
        "slot": "6",
        "type": "t_contract(RolesManager)5420"
      },
      {
        "astId": 8113,
        "contract": "contracts/modules/MineralWarehouse.sol:MineralWarehouse",
        "label": "warehouse",
        "offset": 0,
        "slot": "7",
        "type": "t_mapping(t_string_memory_ptr,t_struct(StoredMineral)8108_storage)"
      },
      {
        "astId": 8116,
        "contract": "contracts/modules/MineralWarehouse.sol:MineralWarehouse",
        "label": "storedMineralIds",
        "offset": 0,
        "slot": "8",
        "type": "t_array(t_string_storage)dyn_storage"
      },
      {
        "astId": 8120,
        "contract": "contracts/modules/MineralWarehouse.sol:MineralWarehouse",
        "label": "acceptedTokens",
        "offset": 0,
        "slot": "9",
        "type": "t_mapping(t_address,t_bool)"
      }
    ],
    "types": {
      "t_address": {
        "encoding": "inplace",
        "label": "address",
        "numberOfBytes": "20"
      },
      "t_array(t_string_storage)dyn_storage": {
        "base": "t_string_storage",
        "encoding": "dynamic_array",
        "label": "string[]",
        "numberOfBytes": "32"
      },
      "t_array(t_struct(MineralHistory)3700_storage)dyn_storage": {
        "base": "t_struct(MineralHistory)3700_storage",
        "encoding": "dynamic_array",
        "label": "struct RolesManager.MineralHistory[]",
        "numberOfBytes": "32"
      },
      "t_bool": {
        "encoding": "inplace",
        "label": "bool",
        "numberOfBytes": "1"
      },
      "t_bytes32": {
        "encoding": "inplace",
        "label": "bytes32",
        "numberOfBytes": "32"
      },
      "t_contract(MineralRegistry)8056": {
        "encoding": "inplace",
        "label": "contract MineralRegistry",
        "numberOfBytes": "20"
      },
      "t_contract(RolesManager)5420": {
        "encoding": "inplace",
        "label": "contract RolesManager",
        "numberOfBytes": "20"
      },
      "t_mapping(t_address,t_bool)": {
        "encoding": "mapping",
        "key": "t_address",
        "label": "mapping(address => bool)",
        "numberOfBytes": "32",
        "value": "t_bool"
      },
      "t_mapping(t_address,t_uint256)": {
        "encoding": "mapping",
        "key": "t_address",
        "label": "mapping(address => uint256)",
        "numberOfBytes": "32",
        "value": "t_uint256"
      },
      "t_mapping(t_bytes32,t_struct(RoleData)21_storage)": {
        "encoding": "mapping",
        "key": "t_bytes32",
        "label": "mapping(bytes32 => struct AccessControl.RoleData)",
        "numberOfBytes": "32",
        "value": "t_struct(RoleData)21_storage"
      },
      "t_mapping(t_bytes32,t_uint256)": {
        "encoding": "mapping",
        "key": "t_bytes32",
        "label": "mapping(bytes32 => uint256)",
        "numberOfBytes": "32",
        "value": "t_uint256"
      },
      "t_mapping(t_string_memory_ptr,t_array(t_struct(MineralHistory)3700_storage)dyn_storage)": {
        "encoding": "mapping",
        "key": "t_string_memory_ptr",
        "label": "mapping(string => struct RolesManager.MineralHistory[])",
        "numberOfBytes": "32",
        "value": "t_array(t_struct(MineralHistory)3700_storage)dyn_storage"
      },
      "t_mapping(t_string_memory_ptr,t_struct(MineralDetails)3689_storage)": {
        "encoding": "mapping",
        "key": "t_string_memory_ptr",
        "label": "mapping(string => struct RolesManager.MineralDetails)",
        "numberOfBytes": "32",
        "value": "t_struct(MineralDetails)3689_storage"
      },
      "t_mapping(t_string_memory_ptr,t_struct(StoredMineral)8108_storage)": {
        "encoding": "mapping",
        "key": "t_string_memory_ptr",
        "label": "mapping(string => struct MineralWarehouse.StoredMineral)",
        "numberOfBytes": "32",
        "value": "t_struct(StoredMineral)8108_storage"
      },
      "t_string_memory_ptr": {
        "encoding": "bytes",
        "label": "string",
        "numberOfBytes": "32"
      },
      "t_string_storage": {
        "encoding": "bytes",
        "label": "string",
        "numberOfBytes": "32"
      },
      "t_struct(MineralDetails)3689_storage": {
        "encoding": "inplace",
        "label": "struct RolesManager.MineralDetails",
        "members": [
          {
            "astId": 3658,
            "contract": "contracts/modules/MineralWarehouse.sol:MineralWarehouse",
            "label": "id",
            "offset": 0,
            "slot": "0",
            "type": "t_string_storage"
          },
          {
            "astId": 3660,
            "contract": "contracts/modules/MineralWarehouse.sol:MineralWarehouse",
            "label": "name",
            "offset": 0,
            "slot": "1",
            "type": "t_string_storage"
          },
          {
            "astId": 3662,
            "contract": "contracts/modules/MineralWarehouse.sol:MineralWarehouse",
            "label": "origin",
            "offset": 0,
            "slot": "2",
            "type": "t_string_storage"
          },
          {
            "astId": 3664,
            "contract": "contracts/modules/MineralWarehouse.sol:MineralWarehouse",
            "label": "mineralType",
            "offset": 0,
            "slot": "3",
            "type": "t_string_storage"
          },
          {
            "astId": 3666,
            "contract": "contracts/modules/MineralWarehouse.sol:MineralWarehouse",
            "label": "weight",
            "offset": 0,
            "slot": "4",
            "type": "t_uint256"
          },
          {
            "astId": 3668,
            "contract": "contracts/modules/MineralWarehouse.sol:MineralWarehouse",
            "label": "purityPercentage",
            "offset": 0,
            "slot": "5",
            "type": "t_uint256"
          },
          {
            "astId": 3670,
            "contract": "contracts/modules/MineralWarehouse.sol:MineralWarehouse",
            "label": "storageConditions",
            "offset": 0,
            "slot": "6",
            "type": "t_string_storage"
          },
          {
            "astId": 3672,
            "contract": "contracts/modules/MineralWarehouse.sol:MineralWarehouse",
            "label": "registeredBy",
            "offset": 0,
            "slot": "7",
            "type": "t_address"
          },
          {
            "astId": 3674,
            "contract": "contracts/modules/MineralWarehouse.sol:MineralWarehouse",
            "label": "currentStatus",
            "offset": 0,
            "slot": "8",
            "type": "t_string_storage"
          },
          {
            "astId": 3676,
            "contract": "contracts/modules/MineralWarehouse.sol:MineralWarehouse",
            "label": "currentLocation",
            "offset": 0,
            "slot": "9",
            "type": "t_string_storage"
          },
          {
            "astId": 3678,
            "contract": "contracts/modules/MineralWarehouse.sol:MineralWarehouse",
            "label": "currentHandler",
            "offset": 0,
            "slot": "10",
            "type": "t_address"
          },
          {
            "astId": 3680,
            "contract": "contracts/modules/MineralWarehouse.sol:MineralWarehouse",
            "label": "isPurchased",
            "offset": 20,
            "slot": "10",
            "type": "t_bool"
          },
          {
            "astId": 3682,
            "contract": "contracts/modules/MineralWarehouse.sol:MineralWarehouse",
            "label": "isRefined",
            "offset": 21,
            "slot": "10",
            "type": "t_bool"
          },
          {
            "astId": 3684,
            "contract": "contracts/modules/MineralWarehouse.sol:MineralWarehouse",
            "label": "isAudited",
            "offset": 22,
            "slot": "10",
            "type": "t_bool"
          },
          {
            "astId": 3686,
            "contract": "contracts/modules/MineralWarehouse.sol:MineralWarehouse",
            "label": "isInspected",
            "offset": 23,
            "slot": "10",
            "type": "t_bool"
          },
          {
            "astId": 3688,
            "contract": "contracts/modules/MineralWarehouse.sol:MineralWarehouse",
            "label": "timestamp",
            "offset": 0,
            "slot": "11",
            "type": "t_uint256"
          }
        ],
        "numberOfBytes": "384"
      },
      "t_struct(MineralHistory)3700_storage": {
        "encoding": "inplace",
        "label": "struct RolesManager.MineralHistory",
        "members": [
          {
            "astId": 3691,
            "contract": "contracts/modules/MineralWarehouse.sol:MineralWarehouse",
            "label": "id",
            "offset": 0,
            "slot": "0",
            "type": "t_string_storage"
          },
          {
            "astId": 3693,
            "contract": "contracts/modules/MineralWarehouse.sol:MineralWarehouse",
            "label": "fieldChanged",
            "offset": 0,
            "slot": "1",
            "type": "t_string_storage"
          },
          {
            "astId": 3695,
            "contract": "contracts/modules/MineralWarehouse.sol:MineralWarehouse",
            "label": "newValue",
            "offset": 0,
            "slot": "2",
            "type": "t_string_storage"
          },
          {
            "astId": 3697,
            "contract": "contracts/modules/MineralWarehouse.sol:MineralWarehouse",
            "label": "updatedBy",
            "offset": 0,
            "slot": "3",
            "type": "t_address"
          },
          {
            "astId": 3699,
            "contract": "contracts/modules/MineralWarehouse.sol:MineralWarehouse",
            "label": "timestamp",
            "offset": 0,
            "slot": "4",
            "type": "t_uint256"
          }
        ],
        "numberOfBytes": "160"
      },
      "t_struct(MineralSaleInfo)8086_storage": {
        "encoding": "inplace",
        "label": "struct MineralWarehouse.MineralSaleInfo",
        "members": [
          {
            "astId": 8079,
            "contract": "contracts/modules/MineralWarehouse.sol:MineralWarehouse",
            "label": "price",
            "offset": 0,
            "slot": "0",
            "type": "t_string_storage"
          },
          {
            "astId": 8081,
            "contract": "contracts/modules/MineralWarehouse.sol:MineralWarehouse",
            "label": "priceETH",
            "offset": 0,
            "slot": "1",
            "type": "t_uint256"
          },
          {
            "astId": 8085,
            "contract": "contracts/modules/MineralWarehouse.sol:MineralWarehouse",
            "label": "tokenPrices",
            "offset": 0,
            "slot": "2",
            "type": "t_mapping(t_address,t_uint256)"
          }
        ],
        "numberOfBytes": "96"
      },
      "t_struct(RoleData)21_storage": {
        "encoding": "inplace",
        "label": "struct AccessControl.RoleData",
        "members": [
          {
            "astId": 18,
            "contract": "contracts/modules/MineralWarehouse.sol:MineralWarehouse",
            "label": "hasRole",
            "offset": 0,
            "slot": "0",
            "type": "t_mapping(t_address,t_bool)"
          },
          {
            "astId": 20,
            "contract": "contracts/modules/MineralWarehouse.sol:MineralWarehouse",
            "label": "adminRole",
            "offset": 0,
            "slot": "1",
            "type": "t_bytes32"
          }
        ],
        "numberOfBytes": "64"
      },
      "t_struct(StoredMineral)8108_storage": {
        "encoding": "inplace",
        "label": "struct MineralWarehouse.StoredMineral",
        "members": [
          {
            "astId": 8088,
            "contract": "contracts/modules/MineralWarehouse.sol:MineralWarehouse",
            "label": "mineralId",
            "offset": 0,
            "slot": "0",
            "type": "t_string_storage"
          },
          {
            "astId": 8090,
            "contract": "contracts/modules/MineralWarehouse.sol:MineralWarehouse",
            "label": "refiner",
            "offset": 0,
            "slot": "1",
            "type": "t_address"
          },
          {
            "astId": 8092,
            "contract": "contracts/modules/MineralWarehouse.sol:MineralWarehouse",
            "label": "storedAt",
            "offset": 0,
            "slot": "2",
            "type": "t_uint256"
          },
          {
            "astId": 8094,
            "contract": "contracts/modules/MineralWarehouse.sol:MineralWarehouse",
            "label": "soldAt",
            "offset": 0,
            "slot": "3",
            "type": "t_uint256"
          },
          {
            "astId": 8096,
            "contract": "contracts/modules/MineralWarehouse.sol:MineralWarehouse",
            "label": "isStored",
            "offset": 0,
            "slot": "4",
            "type": "t_bool"
          },
          {
            "astId": 8098,
            "contract": "contracts/modules/MineralWarehouse.sol:MineralWarehouse",
            "label": "isSold",
            "offset": 1,
            "slot": "4",
            "type": "t_bool"
          },
          {
            "astId": 8100,
            "contract": "contracts/modules/MineralWarehouse.sol:MineralWarehouse",
            "label": "isForSale",
            "offset": 2,
            "slot": "4",
            "type": "t_bool"
          },
          {
            "astId": 8102,
            "contract": "contracts/modules/MineralWarehouse.sol:MineralWarehouse",
            "label": "buyer",
            "offset": 3,
            "slot": "4",
            "type": "t_address"
          },
          {
            "astId": 8104,
            "contract": "contracts/modules/MineralWarehouse.sol:MineralWarehouse",
            "label": "isMarketReady",
            "offset": 23,
            "slot": "4",
            "type": "t_bool"
          },
          {
            "astId": 8107,
            "contract": "contracts/modules/MineralWarehouse.sol:MineralWarehouse",
            "label": "saleInfo",
            "offset": 0,
            "slot": "5",
            "type": "t_struct(MineralSaleInfo)8086_storage"
          }
        ],
        "numberOfBytes": "256"
      },
      "t_uint256": {
        "encoding": "inplace",
        "label": "uint256",
        "numberOfBytes": "32"
      }
    }
  }
}