{
  "address": "0x2A3B0F7da8e33E458E995fbD69BDEFE7f5cc0af8",
  "abi": [
    {
      "inputs": [],
      "name": "AccessControlBadConfirmation",
      "type": "error"
    },
    {
      "inputs": [
        {
          "internalType": "address",
          "name": "account",
          "type": "address"
        },
        {
          "internalType": "bytes32",
          "name": "neededRole",
          "type": "bytes32"
        }
      ],
      "name": "AccessControlUnauthorizedAccount",
      "type": "error"
    },
    {
      "inputs": [
        {
          "internalType": "address",
          "name": "caller",
          "type": "address"
        },
        {
          "internalType": "bytes32",
          "name": "role",
          "type": "bytes32"
        }
      ],
      "name": "AddressDoesNotHaveRequiredRole",
      "type": "error"
    },
    {
      "inputs": [
        {
          "internalType": "address",
          "name": "caller",
          "type": "address"
        }
      ],
      "name": "DisputeResolution__AlreadyVoted",
      "type": "error"
    },
    {
      "inputs": [
        {
          "internalType": "uint256",
          "name": "disputeId",
          "type": "uint256"
        }
      ],
      "name": "DisputeResolution__DisputeEscalated_UnableToVote",
      "type": "error"
    },
    {
      "inputs": [
        {
          "internalType": "uint256",
          "name": "disputeId",
          "type": "uint256"
        }
      ],
      "name": "DisputeResolution__DisputeNotEscalated",
      "type": "error"
    },
    {
      "inputs": [
        {
          "internalType": "uint256",
          "name": "disputeId",
          "type": "uint256"
        }
      ],
      "name": "DisputeResolution__DisputeStatusNotPending",
      "type": "error"
    },
    {
      "inputs": [],
      "name": "DisputeResolution__DisputeStatusNotPendingOrEscalated",
      "type": "error"
    },
    {
      "inputs": [],
      "name": "DisputeResolution__InvalidDisputeDefendantAddress",
      "type": "error"
    },
    {
      "inputs": [],
      "name": "DisputeResolution__InvalidDisputeDetails",
      "type": "error"
    },
    {
      "inputs": [],
      "name": "DisputeResolution__InvalidDisputeEvidence",
      "type": "error"
    },
    {
      "inputs": [],
      "name": "DisputeResolution__InvalidDisputeIdOrNotFound",
      "type": "error"
    },
    {
      "inputs": [],
      "name": "DisputeResolution__InvalidMineralIdOrNotFound",
      "type": "error"
    },
    {
      "inputs": [],
      "name": "DisputeResolution__InvalidResolutionDetails",
      "type": "error"
    },
    {
      "inputs": [
        {
          "internalType": "address",
          "name": "caller",
          "type": "address"
        }
      ],
      "name": "DisputeResolution__NotEligibleToVote",
      "type": "error"
    },
    {
      "inputs": [],
      "name": "DisputeResolution__VotingPeriodStillActive",
      "type": "error"
    },
    {
      "inputs": [
        {
          "internalType": "address",
          "name": "token",
          "type": "address"
        },
        {
          "internalType": "uint256",
          "name": "tokenAmount",
          "type": "uint256"
        }
      ],
      "name": "ERC20TokenTransferFailed",
      "type": "error"
    },
    {
      "inputs": [
        {
          "internalType": "address",
          "name": "caller",
          "type": "address"
        }
      ],
      "name": "InsufficientPermissionsToPerformAction",
      "type": "error"
    },
    {
      "inputs": [],
      "name": "InvalidAccountAddress",
      "type": "error"
    },
    {
      "inputs": [
        {
          "internalType": "string",
          "name": "mineralId",
          "type": "string"
        }
      ],
      "name": "InvalidMineralIdOrNotFound",
      "type": "error"
    },
    {
      "inputs": [],
      "name": "InvalidPaymentMethods",
      "type": "error"
    },
    {
      "inputs": [
        {
          "internalType": "string",
          "name": "currentStatus",
          "type": "string"
        },
        {
          "internalType": "string",
          "name": "attemptedStatus",
          "type": "string"
        }
      ],
      "name": "InvalidTransportStateTransition",
      "type": "error"
    },
    {
      "inputs": [
        {
          "internalType": "string",
          "name": "mineralId",
          "type": "string"
        }
      ],
      "name": "MineralNotMarketReady",
      "type": "error"
    },
    {
      "inputs": [
        {
          "internalType": "string",
          "name": "mineralId",
          "type": "string"
        }
      ],
      "name": "MineralNotReadyToTrade",
      "type": "error"
    },
    {
      "inputs": [],
      "name": "MineralRegistry__InvalidMineralDestination",
      "type": "error"
    },
    {
      "inputs": [],
      "name": "MineralRegistry__InvalidMineralDetails",
      "type": "error"
    },
    {
      "inputs": [
        {
          "internalType": "string",
          "name": "mineralId",
          "type": "string"
        }
      ],
      "name": "MineralRegistry__InvalidMineralIdOrNotFound",
      "type": "error"
    },
    {
      "inputs": [],
      "name": "MineralRegistry__InvalidMineralLocation",
      "type": "error"
    },
    {
      "inputs": [],
      "name": "MineralRegistry__InvalidMineralName",
      "type": "error"
    },
    {
      "inputs": [],
      "name": "MineralRegistry__InvalidMineralOrigin",
      "type": "error"
    },
    {
      "inputs": [],
      "name": "MineralRegistry__InvalidMineralPurityPercentage",
      "type": "error"
    },
    {
      "inputs": [],
      "name": "MineralRegistry__InvalidMineralStatus",
      "type": "error"
    },
    {
      "inputs": [],
      "name": "MineralRegistry__InvalidMineralStorageConditions",
      "type": "error"
    },
    {
      "inputs": [],
      "name": "MineralRegistry__InvalidMineralType",
      "type": "error"
    },
    {
      "inputs": [],
      "name": "MineralRegistry__InvalidMineralWeight",
      "type": "error"
    },
    {
      "inputs": [],
      "name": "MineralRegistry__InvalidReceivingPartyAddress",
      "type": "error"
    },
    {
      "inputs": [],
      "name": "MineralRegistry__MineralAlreadyAudited",
      "type": "error"
    },
    {
      "inputs": [],
      "name": "MineralRegistry__MineralAlreadyInspected",
      "type": "error"
    },
    {
      "inputs": [],
      "name": "MineralRegistry__MineralAlreadyPurchased",
      "type": "error"
    },
    {
      "inputs": [],
      "name": "MineralRegistry__MineralNotAudited",
      "type": "error"
    },
    {
      "inputs": [],
      "name": "MineralRegistry__MineralNotInspected",
      "type": "error"
    },
    {
      "inputs": [
        {
          "internalType": "string",
          "name": "mineralId",
          "type": "string"
        }
      ],
      "name": "MineralRegistry__MineralNotRegistered",
      "type": "error"
    },
    {
      "inputs": [],
      "name": "MineralWarehouse__ETHTransferFailed",
      "type": "error"
    },
    {
      "inputs": [],
      "name": "MineralWarehouse__IncorrectETHAmount",
      "type": "error"
    },
    {
      "inputs": [],
      "name": "MineralWarehouse__InvalidMineralPrice",
      "type": "error"
    },
    {
      "inputs": [],
      "name": "MineralWarehouse__InvalidNumberOfPrices",
      "type": "error"
    },
    {
      "inputs": [
        {
          "internalType": "address",
          "name": "tokenAddress",
          "type": "address"
        }
      ],
      "name": "MineralWarehouse__InvalidTokenAddress",
      "type": "error"
    },
    {
      "inputs": [],
      "name": "MineralWarehouse__InvalidTokenPrice",
      "type": "error"
    },
    {
      "inputs": [
        {
          "internalType": "string",
          "name": "mineralId",
          "type": "string"
        }
      ],
      "name": "MineralWarehouse__MineralAlreadySold",
      "type": "error"
    },
    {
      "inputs": [
        {
          "internalType": "string",
          "name": "mineralId",
          "type": "string"
        }
      ],
      "name": "MineralWarehouse__MineralNotFoundInWarehouse",
      "type": "error"
    },
    {
      "inputs": [
        {
          "internalType": "string",
          "name": "mineralId",
          "type": "string"
        }
      ],
      "name": "MineralWarehouse__MineralNotMarketReady",
      "type": "error"
    },
    {
      "inputs": [
        {
          "internalType": "string",
          "name": "mineralId",
          "type": "string"
        }
      ],
      "name": "MineralWarehouse__MineralNotRefined",
      "type": "error"
    },
    {
      "inputs": [
        {
          "internalType": "address",
          "name": "tokenAddress",
          "type": "address"
        }
      ],
      "name": "MineralWarehouse__UnacceptedToken",
      "type": "error"
    },
    {
      "inputs": [
        {
          "internalType": "address[]",
          "name": "tokenAddresses",
          "type": "address[]"
        }
      ],
      "name": "MineralWarehouse__UnacceptedTokens",
      "type": "error"
    },
    {
      "inputs": [
        {
          "internalType": "address",
          "name": "seller",
          "type": "address"
        }
      ],
      "name": "MineralWarehouse__UnauthorizedSeller",
      "type": "error"
    },
    {
      "inputs": [
        {
          "internalType": "string",
          "name": "mineralId",
          "type": "string"
        },
        {
          "internalType": "address",
          "name": "caller",
          "type": "address"
        }
      ],
      "name": "NotAssignedTransporter",
      "type": "error"
    },
    {
      "inputs": [],
      "name": "PrivacyGuard__AccessDenied",
      "type": "error"
    },
    {
      "inputs": [],
      "name": "PrivacyGuard__DataAlreadyExists",
      "type": "error"
    },
    {
      "inputs": [],
      "name": "PrivacyGuard__InvalidDataOrNotFound",
      "type": "error"
    },
    {
      "inputs": [],
      "name": "PrivacyGuard__InvalidEncryptedContent",
      "type": "error"
    },
    {
      "inputs": [],
      "name": "RolesManager__AccountAlreadyHasRole",
      "type": "error"
    },
    {
      "inputs": [],
      "name": "RolesManager__AccountDoesNotHaveRole",
      "type": "error"
    },
    {
      "inputs": [],
      "name": "RolesManager__InvalidAddress",
      "type": "error"
    },
    {
      "inputs": [],
      "name": "RolesManager__InvalidMineralDestination",
      "type": "error"
    },
    {
      "inputs": [],
      "name": "RolesManager__InvalidMineralIdOrNotFound",
      "type": "error"
    },
    {
      "inputs": [],
      "name": "RolesManager__InvalidMineralName",
      "type": "error"
    },
    {
      "inputs": [],
      "name": "RolesManager__InvalidMineralOrigin",
      "type": "error"
    },
    {
      "inputs": [],
      "name": "RolesManager__InvalidMineralPurityPercentage",
      "type": "error"
    },
    {
      "inputs": [],
      "name": "RolesManager__InvalidMineralStorageConditions",
      "type": "error"
    },
    {
      "inputs": [],
      "name": "RolesManager__InvalidMineralType",
      "type": "error"
    },
    {
      "inputs": [],
      "name": "RolesManager__InvalidMineralWeight",
      "type": "error"
    },
    {
      "inputs": [],
      "name": "RolesManager__InvalidReceivingPartyAddress",
      "type": "error"
    },
    {
      "inputs": [],
      "name": "RolesManager__InvalidRole",
      "type": "error"
    },
    {
      "inputs": [
        {
          "internalType": "string",
          "name": "mineralId",
          "type": "string"
        }
      ],
      "name": "RolesManager__MineralAlreadyAudited",
      "type": "error"
    },
    {
      "inputs": [
        {
          "internalType": "string",
          "name": "mineralId",
          "type": "string"
        }
      ],
      "name": "RolesManager__MineralAlreadyInspected",
      "type": "error"
    },
    {
      "inputs": [
        {
          "internalType": "string",
          "name": "mineralId",
          "type": "string"
        }
      ],
      "name": "RolesManager__MineralAlreadyPurchased",
      "type": "error"
    },
    {
      "inputs": [
        {
          "internalType": "string",
          "name": "mineralId",
          "type": "string"
        }
      ],
      "name": "RolesManager__MineralAlreadyRefined",
      "type": "error"
    },
    {
      "inputs": [
        {
          "internalType": "string",
          "name": "mineralId",
          "type": "string"
        }
      ],
      "name": "RolesManager__MineralNotMarketReady",
      "type": "error"
    },
    {
      "inputs": [
        {
          "internalType": "uint256",
          "name": "purityPercentage",
          "type": "uint256"
        }
      ],
      "name": "RolesManager__MineralPurityPercentageTooLowToRegister",
      "type": "error"
    },
    {
      "inputs": [
        {
          "internalType": "address",
          "name": "caller",
          "type": "address"
        }
      ],
      "name": "RolesManager__NotTheAssignedBuyer",
      "type": "error"
    },
    {
      "inputs": [
        {
          "internalType": "string",
          "name": "mineralId",
          "type": "string"
        }
      ],
      "name": "SupplychainValidator__InvalidMineralIdOrNotFound",
      "type": "error"
    },
    {
      "inputs": [],
      "name": "SupplychainValidator__InvalidMineralOwnershipChain",
      "type": "error"
    },
    {
      "inputs": [],
      "name": "SupplychainValidator__InvalidMineralTransactionHistory",
      "type": "error"
    },
    {
      "inputs": [
        {
          "internalType": "uint256",
          "name": "tokenId",
          "type": "uint256"
        },
        {
          "internalType": "address",
          "name": "caller",
          "type": "address"
        }
      ],
      "name": "Tokenization__CallerNotMineralTokenOwner",
      "type": "error"
    },
    {
      "inputs": [
        {
          "internalType": "uint256",
          "name": "tokenId",
          "type": "uint256"
        }
      ],
      "name": "Tokenization__InvalidTokenId",
      "type": "error"
    },
    {
      "inputs": [
        {
          "internalType": "uint256",
          "name": "tokenId",
          "type": "uint256"
        }
      ],
      "name": "Tokenization__InvalidTokenIdOrNotFound",
      "type": "error"
    },
    {
      "inputs": [
        {
          "internalType": "uint256",
          "name": "tokenId",
          "type": "uint256"
        }
      ],
      "name": "Tokenization__TokenAlreadyExists",
      "type": "error"
    },
    {
      "inputs": [
        {
          "internalType": "uint256",
          "name": "tokenId",
          "type": "uint256"
        }
      ],
      "name": "Tokenization__TokenIsAlreadyMinted",
      "type": "error"
    },
    {
      "inputs": [
        {
          "internalType": "uint256",
          "name": "index",
          "type": "uint256"
        }
      ],
      "name": "TransactionLog__InvalidOperationIndex",
      "type": "error"
    },
    {
      "inputs": [],
      "name": "TransactionLog__InvalidOperationType",
      "type": "error"
    },
    {
      "inputs": [
        {
          "internalType": "uint256",
          "name": "transactionId",
          "type": "uint256"
        }
      ],
      "name": "TransactionLog__InvalidTransactionIdOrNotFound",
      "type": "error"
    },
    {
      "inputs": [
        {
          "internalType": "string",
          "name": "mineralId",
          "type": "string"
        }
      ],
      "name": "TransportRequestAlreadyExists",
      "type": "error"
    },
    {
      "anonymous": false,
      "inputs": [
        {
          "indexed": true,
          "internalType": "address",
          "name": "assignee",
          "type": "address"
        },
        {
          "indexed": false,
          "internalType": "uint256",
          "name": "timestamp",
          "type": "uint256"
        }
      ],
      "name": "AdminRoleAssigned",
      "type": "event"
    },
    {
      "anonymous": false,
      "inputs": [
        {
          "indexed": true,
          "internalType": "address",
          "name": "revokee",
          "type": "address"
        },
        {
          "indexed": false,
          "internalType": "string",
          "name": "reason",
          "type": "string"
        },
        {
          "indexed": false,
          "internalType": "uint256",
          "name": "timestamp",
          "type": "uint256"
        }
      ],
      "name": "AdminRoleRevoked",
      "type": "event"
    },
    {
      "anonymous": false,
      "inputs": [
        {
          "indexed": true,
          "internalType": "address",
          "name": "assignee",
          "type": "address"
        },
        {
          "indexed": false,
          "internalType": "uint256",
          "name": "timestamp",
          "type": "uint256"
        }
      ],
      "name": "AuditorRoleAssigned",
      "type": "event"
    },
    {
      "anonymous": false,
      "inputs": [
        {
          "indexed": true,
          "internalType": "address",
          "name": "revokee",
          "type": "address"
        },
        {
          "indexed": false,
          "internalType": "string",
          "name": "reason",
          "type": "string"
        },
        {
          "indexed": false,
          "internalType": "uint256",
          "name": "timestamp",
          "type": "uint256"
        }
      ],
      "name": "AuditorRoleRevoked",
      "type": "event"
    },
    {
      "anonymous": false,
      "inputs": [
        {
          "indexed": true,
          "internalType": "address",
          "name": "assignee",
          "type": "address"
        },
        {
          "indexed": false,
          "internalType": "uint256",
          "name": "timestamp",
          "type": "uint256"
        }
      ],
      "name": "BuyerRoleAssigned",
      "type": "event"
    },
    {
      "anonymous": false,
      "inputs": [
        {
          "indexed": true,
          "internalType": "address",
          "name": "revokee",
          "type": "address"
        },
        {
          "indexed": false,
          "internalType": "string",
          "name": "reason",
          "type": "string"
        },
        {
          "indexed": false,
          "internalType": "uint256",
          "name": "timestamp",
          "type": "uint256"
        }
      ],
      "name": "BuyerRoleRevoked",
      "type": "event"
    },
    {
      "anonymous": false,
      "inputs": [
        {
          "indexed": true,
          "internalType": "address",
          "name": "accessor",
          "type": "address"
        },
        {
          "indexed": true,
          "internalType": "uint256",
          "name": "dataId",
          "type": "uint256"
        },
        {
          "indexed": false,
          "internalType": "bool",
          "name": "success",
          "type": "bool"
        }
      ],
      "name": "DataAccessAttempt",
      "type": "event"
    },
    {
      "anonymous": false,
      "inputs": [
        {
          "indexed": true,
          "internalType": "address",
          "name": "assignee",
          "type": "address"
        },
        {
          "indexed": false,
          "internalType": "uint256",
          "name": "timestamp",
          "type": "uint256"
        }
      ],
      "name": "InspectorRoleAssigned",
      "type": "event"
    },
    {
      "anonymous": false,
      "inputs": [
        {
          "indexed": true,
          "internalType": "address",
          "name": "revokee",
          "type": "address"
        },
        {
          "indexed": false,
          "internalType": "string",
          "name": "reason",
          "type": "string"
        },
        {
          "indexed": false,
          "internalType": "uint256",
          "name": "timestamp",
          "type": "uint256"
        }
      ],
      "name": "InspectorRoleRevoked",
      "type": "event"
    },
    {
      "anonymous": false,
      "inputs": [
        {
          "indexed": true,
          "internalType": "address",
          "name": "assignee",
          "type": "address"
        },
        {
          "indexed": false,
          "internalType": "uint256",
          "name": "timestamp",
          "type": "uint256"
        }
      ],
      "name": "MinerRoleAssigned",
      "type": "event"
    },
    {
      "anonymous": false,
      "inputs": [
        {
          "indexed": true,
          "internalType": "address",
          "name": "revokee",
          "type": "address"
        },
        {
          "indexed": false,
          "internalType": "string",
          "name": "reason",
          "type": "string"
        },
        {
          "indexed": false,
          "internalType": "uint256",
          "name": "timestamp",
          "type": "uint256"
        }
      ],
      "name": "MinerRoleRevoked",
      "type": "event"
    },
    {
      "anonymous": false,
      "inputs": [
        {
          "indexed": false,
          "internalType": "string",
          "name": "mineralId",
          "type": "string"
        },
        {
          "indexed": false,
          "internalType": "string",
          "name": "status",
          "type": "string"
        },
        {
          "indexed": true,
          "internalType": "address",
          "name": "auditor",
          "type": "address"
        },
        {
          "indexed": false,
          "internalType": "uint256",
          "name": "auditedAt",
          "type": "uint256"
        }
      ],
      "name": "MineralAudited",
      "type": "event"
    },
    {
      "anonymous": false,
      "inputs": [
        {
          "indexed": false,
          "internalType": "string",
          "name": "mineralId",
          "type": "string"
        },
        {
          "indexed": false,
          "internalType": "string",
          "name": "mineralStatus",
          "type": "string"
        },
        {
          "indexed": true,
          "internalType": "address",
          "name": "inspector",
          "type": "address"
        },
        {
          "indexed": false,
          "internalType": "uint256",
          "name": "inspectedAt",
          "type": "uint256"
        }
      ],
      "name": "MineralInspected",
      "type": "event"
    },
    {
      "anonymous": false,
      "inputs": [
        {
          "indexed": false,
          "internalType": "string",
          "name": "mineralId",
          "type": "string"
        },
        {
          "indexed": true,
          "internalType": "address",
          "name": "buyer",
          "type": "address"
        },
        {
          "indexed": false,
          "internalType": "uint256",
          "name": "purchasedAt",
          "type": "uint256"
        }
      ],
      "name": "MineralPurchased",
      "type": "event"
    },
    {
      "anonymous": false,
      "inputs": [
        {
          "indexed": false,
          "internalType": "string",
          "name": "mineralId",
          "type": "string"
        },
        {
          "indexed": true,
          "internalType": "address",
          "name": "ApprovedBy",
          "type": "address"
        },
        {
          "indexed": false,
          "internalType": "string",
          "name": "status",
          "type": "string"
        },
        {
          "indexed": false,
          "internalType": "uint256",
          "name": "inspectionDate",
          "type": "uint256"
        }
      ],
      "name": "MineralReadyToTrade",
      "type": "event"
    },
    {
      "anonymous": false,
      "inputs": [
        {
          "indexed": false,
          "internalType": "string",
          "name": "mineralId",
          "type": "string"
        },
        {
          "indexed": false,
          "internalType": "string",
          "name": "refineryReport",
          "type": "string"
        },
        {
          "indexed": true,
          "internalType": "address",
          "name": "refiner",
          "type": "address"
        },
        {
          "indexed": false,
          "internalType": "uint256",
          "name": "refinedAt",
          "type": "uint256"
        }
      ],
      "name": "MineralRefined",
      "type": "event"
    },
    {
      "anonymous": false,
      "inputs": [
        {
          "indexed": false,
          "internalType": "string",
          "name": "mineralId",
          "type": "string"
        },
        {
          "indexed": false,
          "internalType": "string",
          "name": "mineralName",
          "type": "string"
        },
        {
          "indexed": false,
          "internalType": "string",
          "name": "mineralType",
          "type": "string"
        },
        {
          "indexed": false,
          "internalType": "string",
          "name": "origin",
          "type": "string"
        },
        {
          "indexed": false,
          "internalType": "uint256",
          "name": "weight",
          "type": "uint256"
        },
        {
          "indexed": false,
          "internalType": "uint256",
          "name": "purityPercentage",
          "type": "uint256"
        },
        {
          "indexed": true,
          "internalType": "address",
          "name": "miner",
          "type": "address"
        },
        {
          "indexed": false,
          "internalType": "uint256",
          "name": "registeredAt",
          "type": "uint256"
        }
      ],
      "name": "MineralRegistered",
      "type": "event"
    },
    {
      "anonymous": false,
      "inputs": [
        {
          "indexed": false,
          "internalType": "string",
          "name": "mineralId",
          "type": "string"
        },
        {
          "indexed": true,
          "internalType": "address",
          "name": "transporter",
          "type": "address"
        },
        {
          "indexed": false,
          "internalType": "address",
          "name": "receivingParty",
          "type": "address"
        },
        {
          "indexed": false,
          "internalType": "string",
          "name": "origin",
          "type": "string"
        },
        {
          "indexed": false,
          "internalType": "string",
          "name": "destination",
          "type": "string"
        },
        {
          "indexed": false,
          "internalType": "uint256",
          "name": "transportedAt",
          "type": "uint256"
        }
      ],
      "name": "MineralTransported",
      "type": "event"
    },
    {
      "anonymous": false,
      "inputs": [
        {
          "indexed": true,
          "internalType": "address",
          "name": "assignee",
          "type": "address"
        },
        {
          "indexed": false,
          "internalType": "uint256",
          "name": "timestamp",
          "type": "uint256"
        }
      ],
      "name": "RefinerRoleAssigned",
      "type": "event"
    },
    {
      "anonymous": false,
      "inputs": [
        {
          "indexed": true,
          "internalType": "address",
          "name": "revokee",
          "type": "address"
        },
        {
          "indexed": false,
          "internalType": "string",
          "name": "reason",
          "type": "string"
        },
        {
          "indexed": false,
          "internalType": "uint256",
          "name": "timestamp",
          "type": "uint256"
        }
      ],
      "name": "RefinerRoleRevoked",
      "type": "event"
    },
    {
      "anonymous": false,
      "inputs": [
        {
          "indexed": true,
          "internalType": "bytes32",
          "name": "role",
          "type": "bytes32"
        },
        {
          "indexed": true,
          "internalType": "bytes32",
          "name": "previousAdminRole",
          "type": "bytes32"
        },
        {
          "indexed": true,
          "internalType": "bytes32",
          "name": "newAdminRole",
          "type": "bytes32"
        }
      ],
      "name": "RoleAdminChanged",
      "type": "event"
    },
    {
      "anonymous": false,
      "inputs": [
        {
          "indexed": true,
          "internalType": "address",
          "name": "account",
          "type": "address"
        },
        {
          "indexed": true,
          "internalType": "bytes32",
          "name": "role",
          "type": "bytes32"
        },
        {
          "indexed": false,
          "internalType": "uint256",
          "name": "roleAssignedAt",
          "type": "uint256"
        }
      ],
      "name": "RoleAssigned",
      "type": "event"
    },
    {
      "anonymous": false,
      "inputs": [
        {
          "indexed": true,
          "internalType": "bytes32",
          "name": "role",
          "type": "bytes32"
        },
        {
          "indexed": true,
          "internalType": "address",
          "name": "account",
          "type": "address"
        },
        {
          "indexed": true,
          "internalType": "address",
          "name": "sender",
          "type": "address"
        }
      ],
      "name": "RoleGranted",
      "type": "event"
    },
    {
      "anonymous": false,
      "inputs": [
        {
          "indexed": true,
          "internalType": "bytes32",
          "name": "role",
          "type": "bytes32"
        },
        {
          "indexed": true,
          "internalType": "address",
          "name": "account",
          "type": "address"
        },
        {
          "indexed": true,
          "internalType": "address",
          "name": "sender",
          "type": "address"
        }
      ],
      "name": "RoleRevoked",
      "type": "event"
    },
    {
      "anonymous": false,
      "inputs": [
        {
          "indexed": false,
          "internalType": "bytes32",
          "name": "role",
          "type": "bytes32"
        },
        {
          "indexed": false,
          "internalType": "address",
          "name": "account",
          "type": "address"
        },
        {
          "indexed": false,
          "internalType": "address",
          "name": "revoker",
          "type": "address"
        },
        {
          "indexed": false,
          "internalType": "uint256",
          "name": "roleRevokedAt",
          "type": "uint256"
        }
      ],
      "name": "RoleRevoked",
      "type": "event"
    },
    {
      "anonymous": false,
      "inputs": [
        {
          "indexed": true,
          "internalType": "uint256",
          "name": "dataId",
          "type": "uint256"
        },
        {
          "indexed": true,
          "internalType": "address",
          "name": "addedBy",
          "type": "address"
        }
      ],
      "name": "SensitiveDataAdded",
      "type": "event"
    },
    {
      "anonymous": false,
      "inputs": [
        {
          "indexed": true,
          "internalType": "uint256",
          "name": "dataId",
          "type": "uint256"
        },
        {
          "indexed": true,
          "internalType": "address",
          "name": "deletedBy",
          "type": "address"
        }
      ],
      "name": "SensitiveDataDeleted",
      "type": "event"
    },
    {
      "anonymous": false,
      "inputs": [
        {
          "indexed": true,
          "internalType": "address",
          "name": "assignee",
          "type": "address"
        },
        {
          "indexed": false,
          "internalType": "uint256",
          "name": "timestamp",
          "type": "uint256"
        }
      ],
      "name": "TransporterRoleAssigned",
      "type": "event"
    },
    {
      "anonymous": false,
      "inputs": [
        {
          "indexed": true,
          "internalType": "address",
          "name": "revokee",
          "type": "address"
        },
        {
          "indexed": false,
          "internalType": "string",
          "name": "reason",
          "type": "string"
        },
        {
          "indexed": false,
          "internalType": "uint256",
          "name": "timestamp",
          "type": "uint256"
        }
      ],
      "name": "TransporterRoleRevoked",
      "type": "event"
    },
    {
      "inputs": [],
      "name": "AUDITOR_ROLE",
      "outputs": [
        {
          "internalType": "bytes32",
          "name": "",
          "type": "bytes32"
        }
      ],
      "stateMutability": "view",
      "type": "function"
    },
    {
      "inputs": [],
      "name": "BUYER_ROLE",
      "outputs": [
        {
          "internalType": "bytes32",
          "name": "",
          "type": "bytes32"
        }
      ],
      "stateMutability": "view",
      "type": "function"
    },
    {
      "inputs": [],
      "name": "DEFAULT_ADMIN_ROLE",
      "outputs": [
        {
          "internalType": "bytes32",
          "name": "",
          "type": "bytes32"
        }
      ],
      "stateMutability": "view",
      "type": "function"
    },
    {
      "inputs": [],
      "name": "INSPECTOR_ROLE",
      "outputs": [
        {
          "internalType": "bytes32",
          "name": "",
          "type": "bytes32"
        }
      ],
      "stateMutability": "view",
      "type": "function"
    },
    {
      "inputs": [],
      "name": "MINER_ROLE",
      "outputs": [
        {
          "internalType": "bytes32",
          "name": "",
          "type": "bytes32"
        }
      ],
      "stateMutability": "view",
      "type": "function"
    },
    {
      "inputs": [],
      "name": "REFINER_ROLE",
      "outputs": [
        {
          "internalType": "bytes32",
          "name": "",
          "type": "bytes32"
        }
      ],
      "stateMutability": "view",
      "type": "function"
    },
    {
      "inputs": [],
      "name": "TRANSPORTER_ROLE",
      "outputs": [
        {
          "internalType": "bytes32",
          "name": "",
          "type": "bytes32"
        }
      ],
      "stateMutability": "view",
      "type": "function"
    },
    {
      "inputs": [
        {
          "internalType": "string",
          "name": "mineralId",
          "type": "string"
        },
        {
          "internalType": "string",
          "name": "report",
          "type": "string"
        }
      ],
      "name": "_auditMineral",
      "outputs": [],
      "stateMutability": "nonpayable",
      "type": "function"
    },
    {
      "inputs": [
        {
          "internalType": "uint256",
          "name": "dataId",
          "type": "uint256"
        },
        {
          "internalType": "string",
          "name": "encryptedContent",
          "type": "string"
        }
      ],
      "name": "addSensitiveData",
      "outputs": [],
      "stateMutability": "nonpayable",
      "type": "function"
    },
    {
      "inputs": [
        {
          "internalType": "address",
          "name": "account",
          "type": "address"
        }
      ],
      "name": "assignAuditor",
      "outputs": [],
      "stateMutability": "nonpayable",
      "type": "function"
    },
    {
      "inputs": [
        {
          "internalType": "address",
          "name": "account",
          "type": "address"
        }
      ],
      "name": "assignBuyer",
      "outputs": [],
      "stateMutability": "nonpayable",
      "type": "function"
    },
    {
      "inputs": [
        {
          "internalType": "address",
          "name": "account",
          "type": "address"
        }
      ],
      "name": "assignInspector",
      "outputs": [],
      "stateMutability": "nonpayable",
      "type": "function"
    },
    {
      "inputs": [
        {
          "internalType": "address",
          "name": "account",
          "type": "address"
        }
      ],
      "name": "assignMiner",
      "outputs": [],
      "stateMutability": "nonpayable",
      "type": "function"
    },
    {
      "inputs": [
        {
          "internalType": "address",
          "name": "account",
          "type": "address"
        }
      ],
      "name": "assignRefiner",
      "outputs": [],
      "stateMutability": "nonpayable",
      "type": "function"
    },
    {
      "inputs": [
        {
          "internalType": "address",
          "name": "account",
          "type": "address"
        }
      ],
      "name": "assignTransporter",
      "outputs": [],
      "stateMutability": "nonpayable",
      "type": "function"
    },
    {
      "inputs": [
        {
          "internalType": "string",
          "name": "mineralId",
          "type": "string"
        }
      ],
      "name": "checkAuditAndInspectionStatus",
      "outputs": [
        {
          "internalType": "bool",
          "name": "isAudited",
          "type": "bool"
        },
        {
          "internalType": "bool",
          "name": "isInspected",
          "type": "bool"
        }
      ],
      "stateMutability": "nonpayable",
      "type": "function"
    },
    {
      "inputs": [
        {
          "internalType": "uint256",
          "name": "dataId",
          "type": "uint256"
        }
      ],
      "name": "deleteSensitiveData",
      "outputs": [],
      "stateMutability": "nonpayable",
      "type": "function"
    },
    {
      "inputs": [],
      "name": "getAllRoleCounts",
      "outputs": [
        {
          "internalType": "uint256",
          "name": "minerCount",
          "type": "uint256"
        },
        {
          "internalType": "uint256",
          "name": "refinerCount",
          "type": "uint256"
        },
        {
          "internalType": "uint256",
          "name": "transporterCount",
          "type": "uint256"
        },
        {
          "internalType": "uint256",
          "name": "auditorCount",
          "type": "uint256"
        },
        {
          "internalType": "uint256",
          "name": "inspectorCount",
          "type": "uint256"
        },
        {
          "internalType": "uint256",
          "name": "buyerCount",
          "type": "uint256"
        }
      ],
      "stateMutability": "view",
      "type": "function"
    },
    {
      "inputs": [
        {
          "internalType": "string",
          "name": "mineralId",
          "type": "string"
        }
      ],
      "name": "getMineralHistory",
      "outputs": [
        {
          "components": [
            {
              "internalType": "string",
              "name": "id",
              "type": "string"
            },
            {
              "internalType": "string",
              "name": "fieldChanged",
              "type": "string"
            },
            {
              "internalType": "string",
              "name": "newValue",
              "type": "string"
            },
            {
              "internalType": "address",
              "name": "updatedBy",
              "type": "address"
            },
            {
              "internalType": "uint256",
              "name": "timestamp",
              "type": "uint256"
            }
          ],
          "internalType": "struct RolesManager.MineralHistory[]",
          "name": "",
          "type": "tuple[]"
        }
      ],
      "stateMutability": "view",
      "type": "function"
    },
    {
      "inputs": [
        {
          "internalType": "bytes32",
          "name": "role",
          "type": "bytes32"
        }
      ],
      "name": "getRoleAdmin",
      "outputs": [
        {
          "internalType": "bytes32",
          "name": "",
          "type": "bytes32"
        }
      ],
      "stateMutability": "view",
      "type": "function"
    },
    {
      "inputs": [
        {
          "internalType": "bytes32",
          "name": "role",
          "type": "bytes32"
        }
      ],
      "name": "getRoleMemberCount",
      "outputs": [
        {
          "internalType": "uint256",
          "name": "count",
          "type": "uint256"
        }
      ],
      "stateMutability": "view",
      "type": "function"
    },
    {
      "inputs": [
        {
          "internalType": "address",
          "name": "account",
          "type": "address"
        }
      ],
      "name": "getRolesForAddress",
      "outputs": [
        {
          "internalType": "string[]",
          "name": "roles",
          "type": "string[]"
        }
      ],
      "stateMutability": "view",
      "type": "function"
    },
    {
      "inputs": [
        {
          "internalType": "uint256",
          "name": "dataId",
          "type": "uint256"
        }
      ],
      "name": "getSensitiveData",
      "outputs": [
        {
          "internalType": "string",
          "name": "",
          "type": "string"
        }
      ],
      "stateMutability": "nonpayable",
      "type": "function"
    },
    {
      "inputs": [
        {
          "internalType": "bytes32",
          "name": "role",
          "type": "bytes32"
        },
        {
          "internalType": "address",
          "name": "account",
          "type": "address"
        }
      ],
      "name": "grantRole",
      "outputs": [],
      "stateMutability": "nonpayable",
      "type": "function"
    },
    {
      "inputs": [
        {
          "internalType": "address",
          "name": "account",
          "type": "address"
        }
      ],
      "name": "hasAdminRole",
      "outputs": [
        {
          "internalType": "bool",
          "name": "",
          "type": "bool"
        }
      ],
      "stateMutability": "view",
      "type": "function"
    },
    {
      "inputs": [
        {
          "internalType": "address",
          "name": "account",
          "type": "address"
        }
      ],
      "name": "hasAuditorRole",
      "outputs": [
        {
          "internalType": "bool",
          "name": "",
          "type": "bool"
        }
      ],
      "stateMutability": "view",
      "type": "function"
    },
    {
      "inputs": [
        {
          "internalType": "address",
          "name": "account",
          "type": "address"
        }
      ],
      "name": "hasBuyerRole",
      "outputs": [
        {
          "internalType": "bool",
          "name": "",
          "type": "bool"
        }
      ],
      "stateMutability": "view",
      "type": "function"
    },
    {
      "inputs": [
        {
          "internalType": "address",
          "name": "account",
          "type": "address"
        }
      ],
      "name": "hasInspectorRole",
      "outputs": [
        {
          "internalType": "bool",
          "name": "",
          "type": "bool"
        }
      ],
      "stateMutability": "view",
      "type": "function"
    },
    {
      "inputs": [
        {
          "internalType": "address",
          "name": "account",
          "type": "address"
        }
      ],
      "name": "hasMinerRole",
      "outputs": [
        {
          "internalType": "bool",
          "name": "",
          "type": "bool"
        }
      ],
      "stateMutability": "view",
      "type": "function"
    },
    {
      "inputs": [
        {
          "internalType": "address",
          "name": "account",
          "type": "address"
        }
      ],
      "name": "hasRefinerRole",
      "outputs": [
        {
          "internalType": "bool",
          "name": "",
          "type": "bool"
        }
      ],
      "stateMutability": "view",
      "type": "function"
    },
    {
      "inputs": [
        {
          "internalType": "bytes32",
          "name": "role",
          "type": "bytes32"
        },
        {
          "internalType": "address",
          "name": "account",
          "type": "address"
        }
      ],
      "name": "hasRole",
      "outputs": [
        {
          "internalType": "bool",
          "name": "",
          "type": "bool"
        }
      ],
      "stateMutability": "view",
      "type": "function"
    },
    {
      "inputs": [
        {
          "internalType": "address",
          "name": "account",
          "type": "address"
        }
      ],
      "name": "hasTransporterRole",
      "outputs": [
        {
          "internalType": "bool",
          "name": "",
          "type": "bool"
        }
      ],
      "stateMutability": "view",
      "type": "function"
    },
    {
      "inputs": [
        {
          "internalType": "string",
          "name": "mineralId",
          "type": "string"
        },
        {
          "internalType": "string",
          "name": "report",
          "type": "string"
        }
      ],
      "name": "inspectMineral",
      "outputs": [],
      "stateMutability": "nonpayable",
      "type": "function"
    },
    {
      "inputs": [
        {
          "internalType": "string",
          "name": "mineralId",
          "type": "string"
        }
      ],
      "name": "isMineralRegistered",
      "outputs": [
        {
          "internalType": "bool",
          "name": "",
          "type": "bool"
        }
      ],
      "stateMutability": "nonpayable",
      "type": "function"
    },
    {
      "inputs": [
        {
          "internalType": "string",
          "name": "",
          "type": "string"
        }
      ],
      "name": "mineralDetails",
      "outputs": [
        {
          "internalType": "string",
          "name": "id",
          "type": "string"
        },
        {
          "internalType": "string",
          "name": "name",
          "type": "string"
        },
        {
          "internalType": "string",
          "name": "origin",
          "type": "string"
        },
        {
          "internalType": "string",
          "name": "mineralType",
          "type": "string"
        },
        {
          "internalType": "uint256",
          "name": "weight",
          "type": "uint256"
        },
        {
          "internalType": "uint256",
          "name": "purityPercentage",
          "type": "uint256"
        },
        {
          "internalType": "string",
          "name": "storageConditions",
          "type": "string"
        },
        {
          "internalType": "address",
          "name": "registeredBy",
          "type": "address"
        },
        {
          "internalType": "string",
          "name": "currentStatus",
          "type": "string"
        },
        {
          "internalType": "string",
          "name": "currentLocation",
          "type": "string"
        },
        {
          "internalType": "address",
          "name": "currentHandler",
          "type": "address"
        },
        {
          "internalType": "bool",
          "name": "isPurchased",
          "type": "bool"
        },
        {
          "internalType": "bool",
          "name": "isRefined",
          "type": "bool"
        },
        {
          "internalType": "bool",
          "name": "isAudited",
          "type": "bool"
        },
        {
          "internalType": "bool",
          "name": "isInspected",
          "type": "bool"
        },
        {
          "internalType": "uint256",
          "name": "timestamp",
          "type": "uint256"
        }
      ],
      "stateMutability": "view",
      "type": "function"
    },
    {
      "inputs": [
        {
          "internalType": "string",
          "name": "",
          "type": "string"
        },
        {
          "internalType": "uint256",
          "name": "",
          "type": "uint256"
        }
      ],
      "name": "mineralHistories",
      "outputs": [
        {
          "internalType": "string",
          "name": "id",
          "type": "string"
        },
        {
          "internalType": "string",
          "name": "fieldChanged",
          "type": "string"
        },
        {
          "internalType": "string",
          "name": "newValue",
          "type": "string"
        },
        {
          "internalType": "address",
          "name": "updatedBy",
          "type": "address"
        },
        {
          "internalType": "uint256",
          "name": "timestamp",
          "type": "uint256"
        }
      ],
      "stateMutability": "view",
      "type": "function"
    },
    {
      "inputs": [
        {
          "internalType": "string",
          "name": "mineralId",
          "type": "string"
        }
      ],
      "name": "purchaseMineral",
      "outputs": [],
      "stateMutability": "nonpayable",
      "type": "function"
    },
    {
      "inputs": [
        {
          "internalType": "string",
          "name": "mineralId",
          "type": "string"
        },
        {
          "internalType": "string",
          "name": "report",
          "type": "string"
        }
      ],
      "name": "refineMineral",
      "outputs": [],
      "stateMutability": "nonpayable",
      "type": "function"
    },
    {
      "inputs": [
        {
          "internalType": "string",
          "name": "_name",
          "type": "string"
        },
        {
          "internalType": "string",
          "name": "_mineralType",
          "type": "string"
        },
        {
          "internalType": "uint256",
          "name": "_weight",
          "type": "uint256"
        },
        {
          "internalType": "string",
          "name": "_origin",
          "type": "string"
        },
        {
          "internalType": "uint256",
          "name": "_purityPercentage",
          "type": "uint256"
        },
        {
          "internalType": "string",
          "name": "_storageConditions",
          "type": "string"
        }
      ],
      "name": "registerMineral",
      "outputs": [
        {
          "internalType": "string",
          "name": "",
          "type": "string"
        }
      ],
      "stateMutability": "nonpayable",
      "type": "function"
    },
    {
      "inputs": [
        {
          "internalType": "bytes32",
          "name": "role",
          "type": "bytes32"
        },
        {
          "internalType": "address",
          "name": "callerConfirmation",
          "type": "address"
        }
      ],
      "name": "renounceRole",
      "outputs": [],
      "stateMutability": "nonpayable",
      "type": "function"
    },
    {
      "inputs": [
        {
          "internalType": "address",
          "name": "account",
          "type": "address"
        },
        {
          "internalType": "string",
          "name": "reason",
          "type": "string"
        }
      ],
      "name": "revokeAuditor",
      "outputs": [],
      "stateMutability": "nonpayable",
      "type": "function"
    },
    {
      "inputs": [
        {
          "internalType": "address",
          "name": "account",
          "type": "address"
        },
        {
          "internalType": "string",
          "name": "reason",
          "type": "string"
        }
      ],
      "name": "revokeBuyer",
      "outputs": [],
      "stateMutability": "nonpayable",
      "type": "function"
    },
    {
      "inputs": [
        {
          "internalType": "address",
          "name": "account",
          "type": "address"
        },
        {
          "internalType": "string",
          "name": "reason",
          "type": "string"
        }
      ],
      "name": "revokeInspector",
      "outputs": [],
      "stateMutability": "nonpayable",
      "type": "function"
    },
    {
      "inputs": [
        {
          "internalType": "address",
          "name": "account",
          "type": "address"
        },
        {
          "internalType": "string",
          "name": "reason",
          "type": "string"
        }
      ],
      "name": "revokeMiner",
      "outputs": [],
      "stateMutability": "nonpayable",
      "type": "function"
    },
    {
      "inputs": [
        {
          "internalType": "address",
          "name": "account",
          "type": "address"
        },
        {
          "internalType": "string",
          "name": "reason",
          "type": "string"
        }
      ],
      "name": "revokeRefiner",
      "outputs": [],
      "stateMutability": "nonpayable",
      "type": "function"
    },
    {
      "inputs": [
        {
          "internalType": "bytes32",
          "name": "role",
          "type": "bytes32"
        },
        {
          "internalType": "address",
          "name": "account",
          "type": "address"
        }
      ],
      "name": "revokeRole",
      "outputs": [],
      "stateMutability": "nonpayable",
      "type": "function"
    },
    {
      "inputs": [
        {
          "internalType": "address",
          "name": "account",
          "type": "address"
        },
        {
          "internalType": "string",
          "name": "reason",
          "type": "string"
        }
      ],
      "name": "revokeTransporter",
      "outputs": [],
      "stateMutability": "nonpayable",
      "type": "function"
    },
    {
      "inputs": [
        {
          "internalType": "bytes32",
          "name": "",
          "type": "bytes32"
        }
      ],
      "name": "roleMemberCount",
      "outputs": [
        {
          "internalType": "uint256",
          "name": "",
          "type": "uint256"
        }
      ],
      "stateMutability": "view",
      "type": "function"
    },
    {
      "inputs": [
        {
          "internalType": "bytes4",
          "name": "interfaceId",
          "type": "bytes4"
        }
      ],
      "name": "supportsInterface",
      "outputs": [
        {
          "internalType": "bool",
          "name": "",
          "type": "bool"
        }
      ],
      "stateMutability": "view",
      "type": "function"
    },
    {
      "inputs": [
        {
          "internalType": "string",
          "name": "mineralId",
          "type": "string"
        },
        {
          "internalType": "address",
          "name": "_receivingParty",
          "type": "address"
        },
        {
          "internalType": "string",
          "name": "_origin",
          "type": "string"
        },
        {
          "internalType": "string",
          "name": "_destination",
          "type": "string"
        }
      ],
      "name": "transferMineral",
      "outputs": [],
      "stateMutability": "nonpayable",
      "type": "function"
    }
  ],
  "transactionHash": "0x6d21e2ba4ed58ac3c6a40d8f437efda30005db7444c5a2be3c7d2aa102ce821d",
  "args": [],
  "numDeployments": 2,
  "solcInputHash": "57a6037bb722bde0dd8b4081e797ae09",
  "bytecode": "0x608060405234620000d657434201804211620000c0576001556200002333620000db565b50600080805260046020527f17ef568e3e12ab5b9c7254a8d58478811de00f9e6eb34345acd53bf8fd09d3ec80546000198114620000ac579160409160018094019055808052600460205220556040514281527f458ea7e03b3466b3cf9bc2d66ddea8b11fe9469982816f42666888e6c8c6e66460203392a26040516148bb90816200016d8239f35b634e487b7160e01b83526011600452602483fd5b634e487b7160e01b600052601160045260246000fd5b600080fd5b6001600160a01b031660008181527fad3228b676f7d3cd4284a5443f17f1962b36e491b30a40b2405849e597ba5fb5602052604081205490919060ff166200016857818052816020526040822081835260205260408220600160ff1982541617905533917f2f8788117e7eff1d82e926ec794901d17c78024a50270940304540a733656f0d8180a4600190565b509056fe608080604052600436101561001357600080fd5b60003560e01c90816301ffc9a714613afc57508063049c0cc4146139305780630958fc2d146138765780630dacad2e146137bc578063126ee33814613487578063248a9ca3146134585780632f2ff15d14613419578063309514df1461339e5780633499c3a21461334e57806335ba62071461324f57806336568abe1461320857806336c9db9b1461311e578063372ba1cd1461304e5780633a7adea514611f2e578063480d1dd314611e745780634e2a310914611d7b5780634eabbe7714611d525780635aee1b1514611b2f5780636377741d14611a755780636394f6e614611a4c5780636e1d616e14611a2357806370e22e42146119d357806375a2b0d4146117ff57806379451cd7146117d65780637a01a1da146117ad5780637ae9c160146117325780637cde2b9914611639578063826fe0f5146114145780638850845f146113c457806391d148541461137757806399691194146112795780639b188dd6146111fe578063a217fddf146111e2578063a917601b14611128578063abaa536f146110d8578063ac851dfd14611006578063b6ba1ca714610fda578063b9c5b83314610eb5578063beae461514610e65578063c395fcb314610e03578063ca15c87314610d19578063cc82b09014610c4d578063d547741f14610c0c578063de7ce39114610bbc578063df422bf214610695578063e3a3c5221461066c578063e438fdf8146105f1578063f17f3523146103e4578063f5716a851461032c5763fc1032eb1461024557600080fd5b346103275761025336613c28565b61025b613ee3565b61026482613e37565b15610315576102ec7f93e936184fad9f80c7000aa987f91be0cd621bacde11839fdc7139f3d9c2407b916000805160206148268339815191528060005260006020526102b7600160406000200154613f1d565b6102c0856144c2565b5060005260046020526040600020805480610303575b5050604051918291604083526040830190613d79565b4260208301526001600160a01b03909416930390a2005b61030c906145ee565b905538806102d6565b604051632ac1560560e21b8152600490fd5b600080fd5b346103275761033a36613c28565b610342613ee3565b61034b82613e8d565b15610315576102ec7f4614600adaea632b1e4c381ad24471dab7b587dca104c8dd4da76bc64f19716f9160008051602061484683398151915280600052600060205261039e600160406000200154613f1d565b6103a78561444d565b50600052600460205260406000208054806103d2575050604051918291604083526040830190613d79565b6103db906145ee565b905584806102d6565b34610327576080366003190112610327576001600160401b0360043581811161032757610415903690600401613ba6565b9061041e613c12565b9060443581811161032757610437903690600401613ba6565b9060643590811161032757610450903690600401613ba6565b9060008051602061474683398151915260005260209260008452604060002033600052845260ff60406000205416156105d9576001600160a01b031680156105c7578151156105b5578251156105a357604051600160ff600a8851938881818c01966104bd81838a613c6a565b81016002815203019020015460a01c1615151461057d579361056e939261056092600a610518847f55b00b3c29344a545244b18d70b135e423405427088bd5425f13d690b82310b4998b604051938492839251928391613c6a565b8101600281520301902001336bffffffffffffffffffffffff60a01b82541617905561054f6040519860a08a5260a08a0190613d79565b928801528682036040880152613d79565b908482036060860152613d79565b914260808201528033930390a2005b604051632072bb0160e11b8152600481018690528061059f6024820189613d79565b0390fd5b604051635dbef47560e01b8152600490fd5b6040516326813e6f60e01b8152600490fd5b60405163bea3fd2f60e01b8152600490fd5b604051630568555f60e41b8152336004820152602490fd5b34610327576105ff36613c28565b610607613ee3565b61061082613e62565b15610315576102ec7f352e14c53d161e2481e65145b53265d1608f979a93a06df66d4c99b2a84ddc6391600080516020614766833981519152806000526000602052610663600160406000200154613f1d565b6103a7856143d8565b346103275760003660031901126103275760206040516000805160206147668339815191528152f35b3461032757602080600319360112610327576001600160a01b036106b7613bfc565b168015610baa576000906000805260008352604060002081600052835260ff8060406000205416610ba1575b60008051602061480683398151915291826000526000855260406000208160005285528160406000205416610b91575b600080516020614846833981519152806000526000865260406000208260005286528260406000205416610b81575b600080516020614746833981519152806000526000875260406000208360005287528360406000205416610b71575b600080516020614826833981519152806000526000885260406000208460005288528460406000205416610b61575b60008051602061476683398151915291826000526000895260406000208560005289528560406000205416610b51575b6000805160206147e6833981519152938460005260008a526040600020866000528a528660406000205416610b41575b610809896145fb565b986108176040519a8b613b85565b808a52610826601f19916145fb565b018a8a60005b838110610b3057505050506000976000805260008b526040600020876000528b528760406000205416610af5575b60005260008a526040600020866000528a528660406000205416610ab8575b6000526000895260406000208560005289528560406000205416610a79575b6000526000885260406000208460005288528460406000205416610a36575b60005260008752604060002083600052875283604060002054166109f7575b60005260008652604060002082600052865282604060002054166109b6575b60005260008552604060002090600052845260406000205416610973575b506040519082820192808352815180945260408301938160408260051b8601019301916000955b8287106109475785850386f35b909192938280610963600193603f198a82030186528851613d79565b960192019601959291909261093a565b6109af9060405161098381613b6a565b6005815264212aaca2a960d91b8582015261099e828561461f565b526109a9818461461f565b506145df565b5082610913565b926109f1906040516109c781613b6a565b600981526824a729a822a1aa27a960b91b888201526109e6828861461f565b526109a9818761461f565b926108f5565b93610a3090604051610a0881613b6a565b600781526620aaa224aa27a960c91b89820152610a25828961461f565b526109a9818861461f565b936108d6565b94610a7390604051610a4781613b6a565b600b81526a2a2920a729a827a92a22a960a91b8a820152610a68828a61461f565b526109a9818961461f565b946108b7565b95610ab290604051610a8a81613b6a565b60078152662922a324a722a960c91b8b820152610aa7828b61461f565b526109a9818a61461f565b95610898565b96610aef90604051610ac981613b6a565b600581526426a4a722a960d91b8c820152610ae4828c61461f565b526109a9818b61461f565b96610879565b9750604051610b0381613b6a565b600581526420a226a4a760d91b8b820152610b1d8a614612565b52610b2789614612565b5060019761085a565b606083828194010152018b9061082c565b97610b4b906145df565b97610800565b96610b5b906145df565b966107d0565b95610b6b906145df565b956107a0565b94610b7b906145df565b94610771565b93610b8b906145df565b93610742565b92610b9b906145df565b92610713565b600192506106e3565b60405163200db56f60e11b8152600490fd5b3461032757602036600319011261032757610bd5613bfc565b6001600160a01b031660009081526000805160206147c6833981519152602090815260409182902054915160ff9092161515825290f35b3461032757604036600319011261032757610c4b600435610c2b613c12565b90806000526000602052610c46600160406000200154613f1d565b614537565b005b3461032757602036600319011261032757610c66613bfc565b6001600160a01b038116908115610baa57610c7f613ee3565b610c8881613e62565b610d0757610c959061419b565b5060008051602061476683398151915260005260046020527f9d423956391424a558206d539d4c7b96f2596f9d71b6fe92efe1f071a870ba948054610cd9906145df565b90557f49cc27c2a068c01cf703c3923dfc679109b5f6c27bd1f61b542c159e3a73e0926020604051428152a2005b6040516314726de560e21b8152600490fd5b346103275760203660031901126103275760043560008051602061480683398151915281148015610dec575b8015610dd5575b8015610dbe575b8015610da7575b8015610d90575b15610d7e5760005260046020526020604060002054604051908152f35b604051636b9c461160e01b8152600490fd5b506000805160206147e68339815191528114610d61565b506000805160206147668339815191528114610d5a565b506000805160206148268339815191528114610d53565b506000805160206147468339815191528114610d4c565b506000805160206148468339815191528114610d45565b3461032757602036600319011261032757610e1c613bfc565b6001600160a01b031660009081527fad3228b676f7d3cd4284a5443f17f1962b36e491b30a40b2405849e597ba5fb5602090815260409182902054915160ff9092161515825290f35b3461032757602036600319011261032757610e7e613bfc565b6001600160a01b03166000908152600080516020614706833981519152602090815260409182902054915160ff9092161515825290f35b3461032757600036600319011261032757600460209081527f973ccc145476ef147b966a44694f8b2d26bac5a3d44a844fec6be696fe5fea70547f02ff85b9f193a3a7824cbaf5a79db262c0bac955152adf2752c6413d76b2d3c7547f0e08e55c6329ca2d4f38429c472032b4e97537c869a64c376bb7e702721eb8c3547fa792fa383e6bd9c6b4465bbfd8031f4b47377210fa121067c03906e9afac6246547f9d423956391424a558206d539d4c7b96f2596f9d71b6fe92efe1f071a870ba94546000805160206147e68339815191526000527f5455ba4b8a75b33fa0f1f7affd9817680912f06b7b194bcf9ac01183c4930020546040805196875296860194909452948401919091526060830152608082019290925260a081019190915260c090f35b346103275760203660031901126103275760043560005260046020526020604060002054604051908152f35b3461032757602080600319360112610327576004356001600160401b03811161032757611037903690600401613ba6565b8051156110b55760405161107161107883519285818187019561105b818389613c6a565b8101600281520301902060405192838092613ce3565b0382613b85565b838151910120908251902003611092575060405160018152f35b9061059f6040519283926311bb0bc960e31b845260048401526024830190613d79565b9061059f60405192839263f855236d60e01b845260048401526024830190613d79565b34610327576020366003190112610327576110f1613bfc565b6001600160a01b031660009081526000805160206146c6833981519152602090815260409182902054915160ff9092161515825290f35b3461032757602036600319011261032757611141613bfc565b6001600160a01b038116908115610baa5761115a613ee3565b61116381613eb8565b610d075761117090614124565b5060008051602061474683398151915260005260046020527f0e08e55c6329ca2d4f38429c472032b4e97537c869a64c376bb7e702721eb8c380546111b4906145df565b90557f964e50cb3bdb84c00a30f56ae15d538d23dc6db14f891d7d819761b161e990a66020604051428152a2005b3461032757600036600319011261032757602060405160008152f35b346103275761120c36613c28565b611214613ee3565b61121d82613e0c565b15610315576102ec7f69e94e373f69f3f945457a07b335722310788af9cd459a33df6f72cc9e964043916000805160206147e6833981519152806000526000602052611270600160406000200154613f1d565b6103a785614363565b346103275761128736613d9e565b336000908152600080516020614726833981519152602090815260409091205491929160ff16156105d957604051600160ff600a8551938581818901966112cf81838a613c6a565b81016002815203019020015460b81c161515146113545791600a61132361134f937f3a9eebd240f4c9f631531ebc672c4c040de483b868ccebe8a3a1fdad70cde0d995604051809381928751928391613c6a565b8101600281520301902001600160b81b60ff60b81b1982541617905560405191829133954291846145b1565b0390a2005b5061059f604051928392636f5f944160e11b845260048401526024830190613d79565b3461032757604036600319011261032757611390613c12565b600435600052600060205260406000209060018060a01b0316600052602052602060ff604060002054166040519015158152f35b34610327576020366003190112610327576113dd613bfc565b6001600160a01b03166000908152600080516020614726833981519152602090815260409182902054915160ff9092161515825290f35b3461032757602080600319360112610327576004356001600160401b03811161032757611445903690600401613ba6565b6040519080519061107161147c85830193611461818787613c6a565b85019486816002978881520301902060405192838092613ce3565b8481519101208151908184201490811591611630575b5061161e578284916114ac60405194859251928391613c6a565b830192828160039586815203019020908154906114c8826145fb565b946114d66040519687613b85565b82865284860191829460005285600020916000935b85851061159c57604080518981528a51818b01819052600092600582901b83018101918b918d9085015b8287106115225785850386f35b909192938280600192603f1989820301855287519061157161155f61154f845160a0808652850190613d79565b8585015184820387860152613d79565b60408401518382036040850152613d79565b916060868060a01b038183015116908301526080809101519101529601920196019592919092611515565b60058860019260409b9a9b516115b181613b4f565b6040516115c281611071818c613ce3565b81526040516115d78161107181898d01613ce3565b838201526040516115ee81611071818b8d01613ce3565b6040820152848060a01b0386890154166060820152600488015460808201528152019401940193929796976114eb565b6040516329d7b10b60e11b8152600490fd5b90501585611492565b346103275761164736613d9e565b3360009081526000805160206147c6833981519152602090815260409091205491929160ff16156105d957604051600160ff600a85519385818189019661168f81838a613c6a565b81016002815203019020015460a81c1615151461170f5791600a6116e361134f937fa214f45af6d86b0d5ff7bb48f888cf4205e4a383da35fcbebfdbd9bd8e6d5a7c95604051809381928751928391613c6a565b8101600281520301902001600160a81b60ff60a81b1982541617905560405191829133954291846145b1565b5061059f60405192839263701203b760e01b845260048401526024830190613d79565b346103275761174036613c28565b611748613ee3565b61175182613eb8565b15610315576102ec7f71577b91708c73ee54b43c6709958ff42e4bcc084910648ce7c3d16928b51d52916000805160206147468339815191528060005260006020526117a4600160406000200154613f1d565b6103a7856142ee565b346103275760003660031901126103275760206040516000805160206147e68339815191528152f35b346103275760003660031901126103275760206040516000805160206148468339815191528152f35b3461032757602080600319360112610327576004356001600160401b03811161032757611830903690600401613ba6565b906000805260008152604060002033600052815260ff60406000205416156105d95760405161107161186f84519284818188019561105b818389613c6a565b82815191012083519081832014908115916119ca575b5061161e5760ff600a604051848187516118a0818389613c6a565b81016002815203019020015460b01c168061199e575b1561197b579060ff600a61195c83604096958751606081527f10f4ba4c7bb6f0c442f54585004a6e24440bea5c2d2e6f36b688e3e624762e226118fc606083018a613d79565b916b54726164696e67526561647960a01b85828503948582850152600c81520152428b8201528a33930190a28484895184818b5161193b818389613c6a565b81016002815203019020015460b01c16968851938492839251928391613c6a565b81016002815203019020015460b81c1683519215158352151590820152f35b5061059f6040519283926348cddbdb60e11b845260048401526024830190613d79565b5060ff600a604051848187516119b5818389613c6a565b81016002815203019020015460b81c166118b6565b90501584611885565b34610327576020366003190112610327576119ec613bfc565b6001600160a01b031660009081526000805160206147a6833981519152602090815260409182902054915160ff9092161515825290f35b346103275760003660031901126103275760206040516000805160206148268339815191528152f35b346103275760003660031901126103275760206040516000805160206148068339815191528152f35b3461032757602036600319011261032757611a8e613bfc565b6001600160a01b038116908115610baa57611aa7613ee3565b611ab081613e8d565b610d0757611abd906140ad565b5060008051602061484683398151915260005260046020527f02ff85b9f193a3a7824cbaf5a79db262c0bac955152adf2752c6413d76b2d3c78054611b01906145df565b90557f4e3eede475de92d3e23765b737dbb67646352b3328c1a437d7f089766d7be7516020604051428152a2005b34610327576020366003190112610327576004356001600160401b03811161032757611b5f903690600401613ba6565b6040518181809351602081930191611b7692613c6a565b81016002815203602001902060405180611b908184613ce3565b03611b9b9082613b85565b6040519182611bad8160018401613ce3565b03611bb89084613b85565b60405180611bc98160028501613ce3565b03611bd49082613b85565b6040519182611be68160038401613ce3565b03611bf19084613b85565b60048101546005820154604051949185611c0e8160068701613ce3565b03611c199087613b85565b60078401546040516001600160a01b0397909391881692909184611c408160088a01613ce3565b03611c4b9086613b85565b6040519586611c5d8160098b01613ce3565b03611c689088613b85565b600a88015497600b0154986040519c8d9c8d6102009081815201611c8b91613d79565b8d810360208f0152611c9c91613d79565b8c810360408e0152611cad91613d79565b8b810360608d0152611cbe91613d79565b9160808b015260a08a015288810360c08a0152611cda91613d79565b9060e0880152868103610100880152611cf291613d79565b858103610120870152611d0491613d79565b9281166101408501528060a01c60ff1615156101608501528060a81c60ff1615156101808501528060b01c60ff1615156101a085015260b81c60ff1615156101c08401526101e08301520390f35b346103275760003660031901126103275760206040516000805160206147468339815191528152f35b3461032757611d8936613d9e565b3360009081526000805160206146c6833981519152602090815260409091205491929160ff16156105d957604051600160ff600a855193858181890196611dd181838a613c6a565b81016002815203019020015460b01c16151514611e515791600a611e2561134f937fa9de1934279a83f8cfaaecf6a7002ac10aeaea244c8c763f3752f3fc4c3e631d95604051809381928751928391613c6a565b8101600281520301902001600160b01b60ff60b01b1982541617905560405191829133954291846145b1565b5061059f60405192839263c817400d60e01b845260048401526024830190613d79565b3461032757602036600319011261032757611e8d613bfc565b6001600160a01b038116908115610baa57611ea6613ee3565b611eaf81613e37565b610d0757611ebc90614036565b5060008051602061482683398151915260005260046020527fa792fa383e6bd9c6b4465bbfd8031f4b47377210fa121067c03906e9afac62468054611f00906145df565b90557f4a02edd19f09212e54b2ac85d7d3a4a2e3fbf424e6710c3f817d9b4cecc9cdb36020604051428152a2005b346103275760c0366003190112610327576004356001600160401b03811161032757611f5e903690600401613ba6565b6024356001600160401b03811161032757611f7d903690600401613ba6565b906064356001600160401b03811161032757611f9d903690600401613ba6565b9060a4356001600160401b03811161032757611fbd903690600401613ba6565b336000908152600080516020614786833981519152602052604090205490929060ff16156105d95781511561303c578051156105b55783511561302a57604435156130185760843515801561300c575b612ffa5760506084351115612fe057825115612fce5760015461202f816145df565b600155604051612077607482602081019460206120528b88815193849201613c6a565b8201903360601b60208301524260348301526054820152036054810184520182613b85565b519020926040519361208885613b6a565b600a855260203681870137845115612fb85760306020860153845160011015612fb8576078602186015360005b60048110612f2557505061210a6021604051809688516120dc816020850160208d01613c6a565b8201602d60f81b60208201526120fb8251809360208785019101613c6a565b01036001810187520185613b85565b60405190816102008101106001600160401b03610200840111176128c5576102008201604052848252836020830152826040830152856060830152604435608083015260843560a083015260c08201523360e082015260405161216c81613b6a565b600381526252617760e81b602082015261010082015260405161218e81613b6a565b600d81526c26b4b734b7339021b2b73a32b960991b6020820152610120820152336101408201526000610160820152600061018082015260006101a082015260006101c0820152426101e082015260405160208186516121f18183858b01613c6a565b810160028152030190209080518051906001600160401b0382116128c557819061221b8554613ca9565b601f8111612ef3575b50602090601f8311600114612e8757600092612e7c575b50508160011b916000199060031b1c19161782555b60208101518051906001600160401b0382116128c55781906122756001860154613ca9565b601f8111612e47575b50602090601f8311600114612dd557600092612dca575b50508160011b916000199060031b1c19161760018301555b60408101518051906001600160401b0382116128c55781906122d26002860154613ca9565b601f8111612d95575b50602090601f8311600114612d2357600092612d18575b50508160011b916000199060031b1c19161760028301555b60608101518051906001600160401b0382116128c557819061232f6003860154613ca9565b601f8111612ce3575b50602090601f8311600114612c7157600092612c66575b50508160011b916000199060031b1c19161760038301555b6080810151600483015560a0810151600583015560c08101518051906001600160401b0382116128c55781906123a06006860154613ca9565b601f8111612c31575b50602090601f8311600114612bbf57600092612bb4575b50508160011b916000199060031b1c19161760068301555b60e08101516007830180546001600160a01b0319166001600160a01b03929092169190911790556101008101518051906001600160401b0382116128c55781906124256008860154613ca9565b601f8111612b7f575b50602090601f8311600114612b0d57600092612b02575b50508160011b916000199060031b1c19161760088301555b6101208101518051906001600160401b0382116128c5576124816009850154613ca9565b601f8111612acd575b50602090601f8311600114612a57579180600b94926101e094600092612a4c575b50508160011b916000199060031b1c19161760098501555b600a840160018060a01b036101408301511681549060ff60a01b610160850151151560a01b1660ff60a81b610180860151151560a81b169060ff60b01b6101a0870151151560b01b169260ff60b81b6101c0880151151560b81b16946001600160401b0360c01b16171717171790550151910155604051602081855161254c8183858a01613c6a565b81016003815203019020936040519467027b934b3b4b71d160c51b602087015261259460288785516125848184840160208a01613c6a565b8101036008810189520187613b85565b604051956125a187613b4f565b8587526040516125b081613b6a565b600a815269149959da5cdd195c995960b21b6020820152602088015260408701523360608701524260808701528054680100000000000000008110156128c5576125ff91600182018155613c8d565b612a365785518051906001600160401b0382116128c55781906126228454613ca9565b601f8111612a04575b50602090601f83116001146129985760009261298d575b50508160011b916000199060031b1c19161781555b60208601518051906001600160401b0382116128c557819061267c6001850154613ca9565b601f8111612958575b50602090601f83116001146128e6576000926128db575b50508160011b916000199060031b1c19161760018201555b60408601519586516001600160401b0381116128c5576126d76002840154613ca9565b601f8111612885575b506020601f82116001146127e457926004608061056094846127a498957f73c819068ba25b88a32cb91f9b552ab50d9cccb7c4abdeb2a04f44373b7153939a986127d59e6000926127d9575b50508160011b916000199060031b1c19161760028501555b6003840160018060a01b036060830151166bffffffffffffffffffffffff60a01b82541617905501519101556127966040519660e0885261278860e089018a613d79565b9088820360208a0152613d79565b908682036040880152613d79565b91604435608082015260843560a08201524260c08201528033930390a2604051918291602083526020830190613d79565b0390f35b015190508e8061272c565b6002840160005260206000209860005b601f198416811061286d57506080610560946001856127d59d7f73c819068ba25b88a32cb91f9b552ab50d9cccb7c4abdeb2a04f44373b7153939b99966004966127a49c99601f19811610612854575b505050811b016002850155612744565b015160001960f88460031b161c191690558e8080612844565b828201518b556001909a0199602092830192016127f4565b6128b590600285016000526020600020601f840160051c810191602085106128bb575b601f0160051c019061459a565b886126e0565b90915081906128a8565b634e487b7160e01b600052604160045260246000fd5b01519050888061269c565b9250600184016000526020600020906000935b601f198416851061293d576001945083601f19811610612924575b505050811b0160018201556126b4565b015160001960f88460031b161c19169055888080612914565b818101518355602094850194600190930192909101906128f9565b61298790600186016000526020600020601f850160051c810191602086106128bb57601f0160051c019061459a565b89612685565b015190508880612642565b9250836000526020600020906000935b601f19841685106129e9576001945083601f198116106129d0575b505050811b018155612657565b015160001960f88460031b161c191690558880806129c3565b818101518355602094850194600190930192909101906129a8565b612a3090856000526020600020601f850160051c810191602086106128bb57601f0160051c019061459a565b8961262b565b634e487b7160e01b600052600060045260246000fd5b015190508a806124ab565b906009850160005260206000209160005b601f1985168110612ab5575092600b94926001926101e09583601f19811610612a9c575b505050811b0160098501556124c3565b015160001960f88460031b161c191690558a8080612a8c565b91926020600181928685015181550194019201612a68565b612afc90600986016000526020600020601f850160051c810191602086106128bb57601f0160051c019061459a565b8861248a565b015190508880612445565b9250600885016000526020600020906000935b601f1984168510612b64576001945083601f19811610612b4b575b505050811b01600883015561245d565b015160001960f88460031b161c19169055888080612b3b565b81810151835560209485019460019093019290910190612b20565b612bae90600887016000526020600020601f850160051c810191602086106128bb57601f0160051c019061459a565b8961242e565b0151905088806123c0565b9250600685016000526020600020906000935b601f1984168510612c16576001945083601f19811610612bfd575b505050811b0160068301556123d8565b015160001960f88460031b161c19169055888080612bed565b81810151835560209485019460019093019290910190612bd2565b612c6090600687016000526020600020601f850160051c810191602086106128bb57601f0160051c019061459a565b896123a9565b01519050888061234f565b9250600385016000526020600020906000935b601f1984168510612cc8576001945083601f19811610612caf575b505050811b016003830155612367565b015160001960f88460031b161c19169055888080612c9f565b81810151835560209485019460019093019290910190612c84565b612d1290600387016000526020600020601f850160051c810191602086106128bb57601f0160051c019061459a565b89612338565b0151905088806122f2565b9250600285016000526020600020906000935b601f1984168510612d7a576001945083601f19811610612d61575b505050811b01600283015561230a565b015160001960f88460031b161c19169055888080612d51565b81810151835560209485019460019093019290910190612d36565b612dc490600287016000526020600020601f850160051c810191602086106128bb57601f0160051c019061459a565b896122db565b015190508880612295565b9250600185016000526020600020906000935b601f1984168510612e2c576001945083601f19811610612e13575b505050811b0160018301556122ad565b015160001960f88460031b161c19169055888080612e03565b81810151835560209485019460019093019290910190612de8565b612e7690600187016000526020600020601f850160051c810191602086106128bb57601f0160051c019061459a565b8961227e565b01519050888061223b565b9250846000526020600020906000935b601f1984168510612ed8576001945083601f19811610612ebf575b505050811b018255612250565b015160001960f88460031b161c19169055888080612eb2565b81810151835560209485019460019093019290910190612e97565b612f1f90866000526020600020601f850160051c810191602086106128bb57601f0160051c019061459a565b89612224565b6020811015612fb85781811a90600f612f42818460041c16614644565b908260011b936002848604811485151715612fa257858101809111612fa257612f72612f799460001a918c614633565b5316614644565b916003908101809111612fa257612f97612f9d9360001a9189614633565b536145df565b6120b5565b634e487b7160e01b600052601160045260246000fd5b634e487b7160e01b600052603260045260246000fd5b60405163bfccc8e960e01b8152600490fd5b60405163d05db01960e01b81526084356004820152602490fd5b604051633abe7db760e21b8152600490fd5b5060646084351161200d565b60405163fd83f8d960e01b8152600490fd5b60405163a765e58f60e01b8152600490fd5b604051630ac6e45360e31b8152600490fd5b346103275760203660031901126103275760043561306a613ee3565b806000526005602052613081604060002054613ca9565b1561310c57806000526005602052604060002061309e8154613ca9565b90816130ce575b33837fb62b4625d861d22f151c9471030dc9e30c533959a9fd858de54e4516c7de6b5c600080a3005b81601f600093116001146130e65750555b81806130a5565b908083918252613105601f60208420940160051c84016001850161459a565b55556130df565b604051636204cd4760e11b8152600490fd5b346103275760208060031936011261032757600435903315610baa5761314333613de1565b80156131f9575b80156131ea575b156131d857816000526005815261316c604060002054613ca9565b1561310c57816131bd92604051600181527fb83b3daf76c6ba71cc471e690f576fa1c4e51025b27973e36dfb39aec6c01c17843392a3600052600581526131c4604060002060405193848092613ce3565b0383613b85565b6127d5604051928284938452830190613d79565b60405163127ac4a160e21b8152600490fd5b506131f433613e62565b613151565b5061320333613e37565b61314a565b3461032757604036600319011261032757613221613c12565b336001600160a01b0382160361323d57610c4b90600435614537565b60405163334bd91960e11b8152600490fd5b34610327576040366003190112610327576004356001600160401b0381116103275761327f903690600401613ba6565b61329b6020602435928160405193828580945193849201613c6a565b81016003815203019020805482101561032757613323916132bb91613c8d565b50604051906132ce826131bd8184613ce3565b6040516132e2816110718160018601613ce3565b61333f6040516132f9816110718160028801613ce3565b613331600460018060a01b036003870154169501549360405197889760a0895260a0890190613d79565b908782036020890152613d79565b908582036040870152613d79565b91606084015260808301520390f35b3461032757602036600319011261032757613367613bfc565b6001600160a01b03166000908152600080516020614786833981519152602090815260409182902054915160ff9092161515825290f35b34610327576133ac36613c28565b6133b4613ee3565b6133bd82613de1565b15610315576102ec7f125f88db22967983b401f70f6804d47f43cb545fcb725d0b335fe7d43d9b4a4a91600080516020614806833981519152806000526000602052613410600160406000200154613f1d565b6103a785614279565b3461032757604036600319011261032757610c4b600435613438613c12565b90806000526000602052613453600160406000200154613f1d565b614212565b346103275760203660031901126103275760043560005260006020526020600160406000200154604051908152f35b3461032757602080600319360112610327576004356001600160401b038111610327576134b8903690600401613ba6565b906000805160206147e683398151915260005260008152604060002033600052815260ff918260406000205416156105d957604051815193838301946134ff818488613c6a565b8201906001816002938481528588600a97889303019020015460a01c1615151461379a57600080526000855260406000203360005285528060406000205416156105d95761107161357260405187818061355d8c8b51928391613c6a565b81018781520301902060405192838092613ce3565b8581519101208451908188201490811591613791575b5061161e5780836040518781806135a38c8b51928391613c6a565b810187815203019020015460b01c1680613766575b1561374457604051606081527f10f4ba4c7bb6f0c442f54585004a6e24440bea5c2d2e6f36b688e3e624762e226135f26060830187613d79565b916b54726164696e67526561647960a01b88828503948582850152600c81520152426040820152604033930190a280836040518781806136368c8b51928391613c6a565b810187815203019020015460b01c16908360405187818061365b8c8b51928391613c6a565b810187815203019020015460b81c168161373c575b501561371a57837ffed1001c142a7ab386454a2f7d78b013ba7ff40595d10c128f2fb6463ccd7b7a94956136de9284604051848189516136b1818389613c6a565b81018581520301902001805460ff60a01b1916600160a01b17905560405186519094859382908590613c6a565b8201908152030190200180546001600160a01b03191633179055604080518181529161370c91830190613d79565b9242908201528033930390a2005b6040516348cddbdb60e11b8152600481018590528061059f6024820186613d79565b905086613670565b6040516348cddbdb60e11b8152600481018690528061059f6024820187613d79565b50808360405187818061377d8c8b51928391613c6a565b810187815203019020015460b81c166135b8565b90501587613588565b604051632072bb0160e11b8152600481018690528061059f6024820187613d79565b34610327576020366003190112610327576137d5613bfc565b6001600160a01b038116908115610baa576137ee613ee3565b6137f781613e0c565b610d075761380490613fbf565b506000805160206147e683398151915260005260046020527f5455ba4b8a75b33fa0f1f7affd9817680912f06b7b194bcf9ac01183c49300208054613848906145df565b90557ff8ed9ac482b0f7c12999b3f157f758f84e39cd339fa301ea203823ac29e975056020604051428152a2005b346103275760203660031901126103275761388f613bfc565b6001600160a01b038116908115610baa576138a8613ee3565b6138b181613de1565b610d07576138be90613f43565b5060008051602061480683398151915260005260046020527f973ccc145476ef147b966a44694f8b2d26bac5a3d44a844fec6be696fe5fea708054613902906145df565b90557f593f046317558c2857b92915c62c99f2d2108f7bc6f1e1b3c5376cd559abf5596020604051428152a2005b34610327576040366003190112610327576001600160401b0360043560243582811161032757613964903690600401613ba6565b3360009081526000805160206146c68339815191526020908152604090912054919390916000805160206148268339815191529060ff1615613ade5750835115613acc57826000526005825260406000209184519182116128c5576139c98354613ca9565b601f8111613a9c575b5080601f8311600114613a35575081929394600092613a2a575b50508160011b916000199060031b1c19161790555b33907f7c17cbcab67b0d27c81330fe9e0350d15d98a0fca31c1a16e1b16af9a5430e2b600080a3005b0151905084806139ec565b90601f198316958460005282600020926000905b888210613a8457505083600195969710613a6b575b505050811b019055613a01565b015160001960f88460031b161c19169055848080613a5e565b80600185968294968601518155019501930190613a49565b613ac6908460005282600020601f850160051c8101918486106128bb57601f0160051c019061459a565b856139d2565b6040516319b7eb6b60e01b8152600490fd5b6044906040519063e2517d3f60e01b82523360048301526024820152fd5b34610327576020366003190112610327576004359063ffffffff60e01b821680920361032757602091637965db0b60e01b8114908115613b3e575b5015158152f35b6301ffc9a760e01b14905083613b37565b60a081019081106001600160401b038211176128c557604052565b604081019081106001600160401b038211176128c557604052565b90601f801991011681019081106001600160401b038211176128c557604052565b81601f82011215610327578035906001600160401b0382116128c55760405192613bda601f8401601f191660200185613b85565b8284526020838301011161032757816000926020809301838601378301015290565b600435906001600160a01b038216820361032757565b602435906001600160a01b038216820361032757565b906040600319830112610327576004356001600160a01b03811681036103275791602435906001600160401b03821161032757613c6791600401613ba6565b90565b60005b838110613c7d5750506000910152565b8181015183820152602001613c6d565b8054821015612fb8576000526005602060002091020190600090565b90600182811c92168015613cd9575b6020831014613cc357565b634e487b7160e01b600052602260045260246000fd5b91607f1691613cb8565b9060009291805491613cf483613ca9565b918282526001938481169081600014613d565750600114613d16575b50505050565b90919394506000526020928360002092846000945b838610613d42575050505001019038808080613d10565b805485870183015294019385908201613d2b565b9294505050602093945060ff191683830152151560051b01019038808080613d10565b90602091613d9281518092818552858086019101613c6a565b601f01601f1916010190565b906040600319830112610327576001600160401b036004358181116103275783613dca91600401613ba6565b9260243591821161032757613c6791600401613ba6565b6001600160a01b03166000908152600080516020614786833981519152602052604090205460ff1690565b6001600160a01b03166000908152600080516020614706833981519152602052604090205460ff1690565b6001600160a01b031660009081526000805160206146c6833981519152602052604090205460ff1690565b6001600160a01b03166000908152600080516020614726833981519152602052604090205460ff1690565b6001600160a01b031660009081526000805160206147c6833981519152602052604090205460ff1690565b6001600160a01b031660009081526000805160206147a6833981519152602052604090205460ff1690565b3360009081527fad3228b676f7d3cd4284a5443f17f1962b36e491b30a40b2405849e597ba5fb5602052604081205460ff1615613ade5750565b80600052600060205260406000203360005260205260ff6040600020541615613ade5750565b6001600160a01b0316600081815260008051602061478683398151915260205260408120549091906000805160206148068339815191529060ff16613fba57808352826020526040832082845260205260408320600160ff198254161790556000805160206146e6833981519152339380a4600190565b505090565b6001600160a01b0316600081815260008051602061470683398151915260205260408120549091906000805160206147e68339815191529060ff16613fba57808352826020526040832082845260205260408320600160ff198254161790556000805160206146e6833981519152339380a4600190565b6001600160a01b031660008181526000805160206146c683398151915260205260408120549091906000805160206148268339815191529060ff16613fba57808352826020526040832082845260205260408320600160ff198254161790556000805160206146e6833981519152339380a4600190565b6001600160a01b031660008181526000805160206147c683398151915260205260408120549091906000805160206148468339815191529060ff16613fba57808352826020526040832082845260205260408320600160ff198254161790556000805160206146e6833981519152339380a4600190565b6001600160a01b031660008181526000805160206147a683398151915260205260408120549091906000805160206147468339815191529060ff16613fba57808352826020526040832082845260205260408320600160ff198254161790556000805160206146e6833981519152339380a4600190565b6001600160a01b0316600081815260008051602061472683398151915260205260408120549091906000805160206147668339815191529060ff16613fba57808352826020526040832082845260205260408320600160ff198254161790556000805160206146e6833981519152339380a4600190565b9060009180835282602052604083209160018060a01b03169182845260205260ff60408420541615600014613fba57808352826020526040832082845260205260408320600160ff198254161790556000805160206146e6833981519152339380a4600190565b6001600160a01b0316600081815260008051602061478683398151915260205260408120549091906000805160206148068339815191529060ff1615613fba5780835282602052604083208284526020526040832060ff198154169055600080516020614866833981519152339380a4600190565b6001600160a01b031660008181526000805160206147a683398151915260205260408120549091906000805160206147468339815191529060ff1615613fba5780835282602052604083208284526020526040832060ff198154169055600080516020614866833981519152339380a4600190565b6001600160a01b0316600081815260008051602061470683398151915260205260408120549091906000805160206147e68339815191529060ff1615613fba5780835282602052604083208284526020526040832060ff198154169055600080516020614866833981519152339380a4600190565b6001600160a01b0316600081815260008051602061472683398151915260205260408120549091906000805160206147668339815191529060ff1615613fba5780835282602052604083208284526020526040832060ff198154169055600080516020614866833981519152339380a4600190565b6001600160a01b031660008181526000805160206147c683398151915260205260408120549091906000805160206148468339815191529060ff1615613fba5780835282602052604083208284526020526040832060ff198154169055600080516020614866833981519152339380a4600190565b6001600160a01b031660008181526000805160206146c683398151915260205260408120549091906000805160206148268339815191529060ff1615613fba5780835282602052604083208284526020526040832060ff198154169055600080516020614866833981519152339380a4600190565b9060009180835282602052604083209160018060a01b03169182845260205260ff604084205416600014613fba5780835282602052604083208284526020526040832060ff198154169055600080516020614866833981519152339380a4600190565b8181106145a5575050565b6000815560010161459a565b9392916145da906145cc604093606088526060880190613d79565b908682036020880152613d79565b930152565b6000198114612fa25760010190565b8015612fa2576000190190565b6001600160401b0381116128c55760051b60200190565b805115612fb85760200190565b8051821015612fb85760209160051b010190565b908151811015612fb8570160200190565b60009060ff16600a81101561467057603091500160ff8111612fa25760f81b6001600160f81b03191690565b60610160ff81116146b15760ff6009199116019060ff821161469d575060f81b6001600160f81b03191690565b634e487b7160e01b81526011600452602490fd5b634e487b7160e01b82526011600452602482fdfe0d2d6a5d08cb5d871289c0a3ca855d9da72909a111c24cce2d5c2b34a20daa542f8788117e7eff1d82e926ec794901d17c78024a50270940304540a733656f0df3fa603c74bfe2a4719960e47343678c3dc690d2b27a2295acc6fc430833aaf9acfff8a39fb957d9d1c8e3ef9f08385e3fcf7bb23ab7ba0ad0f8df93dbde6a68ddaa901e2fe3bda354fe0ede2785152d5c109282a613fe024a056a3e66c41bb3273dcf2136c7d8ef632bb8ef13dbca69a8f36fa620c7468671b3153d46a211c0bb3fcc25fbffa12ea463b3505377899a4d5ddb4858b9c7bd36764686d9425b36bce5fd3347e0dc338dcc0e895534dd4af2740eec95f56cd4ca4b4b2ada357ca04130a4caca6023b0ba21488ee680ce5c3df22860b1cd8b02cd2a0bcb0de98851f8cd32ed93fc2f9fc78152a14807c9609af3d99c5fe4dc6b106a801aaddfe90ea952726ef2588ad078edf35b066f7c7406e207cb0003bbaba8cb53eba9553e7259a1c48e5837ad7a7f3dcedcbe129bf3249ec4fbf651fd4f5e2600ead39fe2f5a977e1a3444218ff332edf735c56487bbe59922b15c88777d443eb8b78020f4df6391f5c32d9c69d2a47ea670b442974b53935d1edc7fd64eb21e047a839171ba2646970667358221220396852d37a8f14668affb67c3ca021e2aeb15ae5a2d534888886512e78fe446464736f6c63430008140033",
  "devdoc": {
    "errors": {
      "AccessControlBadConfirmation()": [
        {
          "details": "The caller of a function is not the expected one. NOTE: Don't confuse with {AccessControlUnauthorizedAccount}."
        }
      ],
      "AccessControlUnauthorizedAccount(address,bytes32)": [
        {
          "details": "The `account` is missing a role."
        }
      ]
    },
    "events": {
      "RoleAdminChanged(bytes32,bytes32,bytes32)": {
        "details": "Emitted when `newAdminRole` is set as ``role``'s admin role, replacing `previousAdminRole` `DEFAULT_ADMIN_ROLE` is the starting admin for all roles, despite {RoleAdminChanged} not being emitted signaling this."
      },
      "RoleGranted(bytes32,address,address)": {
        "details": "Emitted when `account` is granted `role`. `sender` is the account that originated the contract call, an admin role bearer except when using {AccessControl-_setupRole}."
      },
      "RoleRevoked(bytes32,address,address)": {
        "details": "Emitted when `account` is revoked `role`. `sender` is the account that originated the contract call:   - if using `revokeRole`, it is the admin role bearer   - if using `renounceRole`, it is the role bearer (i.e. `account`)"
      }
    },
    "kind": "dev",
    "methods": {
      "_auditMineral(string,string)": {
        "details": "only the auditor can audit mineralDetails.Logs audit report on every successful audit.",
        "params": {
          "mineralId": "The ID of the mineral under audition.",
          "report": "The audit status report of the mineral under audition."
        }
      },
      "addSensitiveData(uint256,string)": {
        "details": "Adds sensitive data to the system (only authorized roles)",
        "params": {
          "dataId": "The unique identifier for the data",
          "encryptedContent": "The encrypted content content of the data"
        }
      },
      "checkAuditAndInspectionStatus(string)": {
        "details": "checks audit and inspection status",
        "params": {
          "mineralId": "The ID of the mineral to check for audit and inspection status Returns (isValid, isInspected) statuses of both audit and inspection of mineral according to mineralId"
        }
      },
      "deleteSensitiveData(uint256)": {
        "details": "Deletes sensitive data (Only admin or authorized roles)",
        "params": {
          "dataId": "The unique identifier for the data"
        }
      },
      "getAllRoleCounts()": {
        "details": "Returns all role counts in a single call",
        "returns": {
          "auditorCount": "Number of auditors",
          "buyerCount": "Number of buyers",
          "inspectorCount": "Number of inspectors",
          "minerCount": "Number of miners",
          "refinerCount": "Number of refiners",
          "transporterCount": "Number of transporters"
        }
      },
      "getRoleAdmin(bytes32)": {
        "details": "Returns the admin role that controls `role`. See {grantRole} and {revokeRole}. To change a role's admin, use {_setRoleAdmin}."
      },
      "getRoleMemberCount(bytes32)": {
        "details": "Returns the number of accounts that have a specific role",
        "params": {
          "role": "The role to query member count for"
        },
        "returns": {
          "count": "The number of accounts with the role"
        }
      },
      "getRolesForAddress(address)": {
        "details": "Returns all roles assigned to a given address",
        "params": {
          "account": "The address to check roles for"
        },
        "returns": {
          "roles": "An array of role names the address has"
        }
      },
      "getSensitiveData(uint256)": {
        "details": "Retrieves sensitive data (Only authorized roles)",
        "params": {
          "dataId": "The unique identifier for the data"
        },
        "returns": {
          "_0": "The encrypted data content"
        }
      },
      "grantRole(bytes32,address)": {
        "details": "Grants `role` to `account`. If `account` had not been already granted `role`, emits a {RoleGranted} event. Requirements: - the caller must have ``role``'s admin role. May emit a {RoleGranted} event."
      },
      "hasMinerRole(address)": {
        "details": "Roles helper functionschecks if an account has a specific role",
        "params": {
          "account": "The address of the account to checked with role association"
        }
      },
      "hasRole(bytes32,address)": {
        "details": "Returns `true` if `account` has been granted `role`."
      },
      "inspectMineral(string,string)": {
        "details": "only the inspector can inspect mineralDetailsLogs audit report on every successful inspection",
        "params": {
          "mineralId": "The ID of the mineral under inspection",
          "report": "The inspection status report of the mineral under inspection"
        }
      },
      "isMineralRegistered(string)": {
        "details": "checks if a mineral with the given ID is registered",
        "params": {
          "mineralId": "the ID of the mineral to check"
        },
        "returns": {
          "_0": "A boolean indicating whether the mineral is registered or not"
        }
      },
      "purchaseMineral(string)": {
        "details": "Only the buyer can purchase mineralDetails",
        "params": {
          "mineralId": "The ID of the mineral under purchase"
        }
      },
      "refineMineral(string,string)": {
        "details": "only the refiner can refiner a mineral",
        "params": {
          "mineralId": "The ID of the mineral under refinery"
        }
      },
      "registerMineral(string,string,uint256,string,uint256,string)": {
        "details": "Register a new mineral - only by miner.Every mineral is assigned a unique mineralId.",
        "params": {
          "_mineralType": "The type of a mineral.",
          "_name": "Mineral name.",
          "_origin": "Mineral Origin.",
          "_purityPercentage": "Mineral purity in percentage.",
          "_storageConditions": "Mineral Storage conditions.",
          "_weight": "Mineral weight in uint256."
        }
      },
      "renounceRole(bytes32,address)": {
        "details": "Revokes `role` from the calling account. Roles are often managed via {grantRole} and {revokeRole}: this function's purpose is to provide a mechanism for accounts to lose their privileges if they are compromised (such as when a trusted device is misplaced). If the calling account had been revoked `role`, emits a {RoleRevoked} event. Requirements: - the caller must be `callerConfirmation`. May emit a {RoleRevoked} event."
      },
      "revokeRole(bytes32,address)": {
        "details": "Revokes `role` from `account`. If `account` had been granted `role`, emits a {RoleRevoked} event. Requirements: - the caller must have ``role``'s admin role. May emit a {RoleRevoked} event."
      },
      "supportsInterface(bytes4)": {
        "details": "See {IERC165-supportsInterface}."
      },
      "transferMineral(string,address,string,string)": {
        "details": "only the transporter can transport mineralDetails",
        "params": {
          "_destination": "The Destination area of the mineral(string)",
          "_origin": "The Original location of the mineral under transportation",
          "_receivingParty": "The address of the destination portal",
          "mineralId": "The ID of the mineral under transportation"
        }
      }
    },
    "version": 1
  },
  "userdoc": {
    "events": {
      "DataAccessAttempt(address,uint256,bool)": {
        "notice": "Events for logging access attemps"
      }
    },
    "kind": "user",
    "methods": {
      "_auditMineral(string,string)": {
        "notice": "Emits MineralAudited event."
      },
      "addSensitiveData(uint256,string)": {
        "notice": "Emits DataAdded event on successful addition of sensitive data"
      },
      "inspectMineral(string,string)": {
        "notice": "Emits MineralInspected event on successful inspection"
      },
      "purchaseMineral(string)": {
        "notice": "Emits MineralPurchased event on successful purchase"
      },
      "refineMineral(string,string)": {
        "notice": "Emits MineralRefined event on successfl refining process"
      },
      "registerMineral(string,string,uint256,string,uint256,string)": {
        "notice": "Emits MineralRegistered event on successful registration."
      },
      "transferMineral(string,address,string,string)": {
        "notice": "Emits MineralTransported on successful transportation"
      }
    },
    "version": 1
  },
  "storageLayout": {
    "storage": [
      {
        "astId": 26,
        "contract": "contracts/core/PrivacyGuard.sol:PrivacyGuard",
        "label": "_roles",
        "offset": 0,
        "slot": "0",
        "type": "t_mapping(t_bytes32,t_struct(RoleData)21_storage)"
      },
      {
        "astId": 3707,
        "contract": "contracts/core/PrivacyGuard.sol:PrivacyGuard",
        "label": "nonce",
        "offset": 0,
        "slot": "1",
        "type": "t_uint256"
      },
      {
        "astId": 3712,
        "contract": "contracts/core/PrivacyGuard.sol:PrivacyGuard",
        "label": "mineralDetails",
        "offset": 0,
        "slot": "2",
        "type": "t_mapping(t_string_memory_ptr,t_struct(MineralDetails)3689_storage)"
      },
      {
        "astId": 3718,
        "contract": "contracts/core/PrivacyGuard.sol:PrivacyGuard",
        "label": "mineralHistories",
        "offset": 0,
        "slot": "3",
        "type": "t_mapping(t_string_memory_ptr,t_array(t_struct(MineralHistory)3700_storage)dyn_storage)"
      },
      {
        "astId": 3722,
        "contract": "contracts/core/PrivacyGuard.sol:PrivacyGuard",
        "label": "roleMemberCount",
        "offset": 0,
        "slot": "4",
        "type": "t_mapping(t_bytes32,t_uint256)"
      },
      {
        "astId": 3263,
        "contract": "contracts/core/PrivacyGuard.sol:PrivacyGuard",
        "label": "encryptedData",
        "offset": 0,
        "slot": "5",
        "type": "t_mapping(t_uint256,t_string_storage)"
      }
    ],
    "types": {
      "t_address": {
        "encoding": "inplace",
        "label": "address",
        "numberOfBytes": "20"
      },
      "t_array(t_struct(MineralHistory)3700_storage)dyn_storage": {
        "base": "t_struct(MineralHistory)3700_storage",
        "encoding": "dynamic_array",
        "label": "struct RolesManager.MineralHistory[]",
        "numberOfBytes": "32"
      },
      "t_bool": {
        "encoding": "inplace",
        "label": "bool",
        "numberOfBytes": "1"
      },
      "t_bytes32": {
        "encoding": "inplace",
        "label": "bytes32",
        "numberOfBytes": "32"
      },
      "t_mapping(t_address,t_bool)": {
        "encoding": "mapping",
        "key": "t_address",
        "label": "mapping(address => bool)",
        "numberOfBytes": "32",
        "value": "t_bool"
      },
      "t_mapping(t_bytes32,t_struct(RoleData)21_storage)": {
        "encoding": "mapping",
        "key": "t_bytes32",
        "label": "mapping(bytes32 => struct AccessControl.RoleData)",
        "numberOfBytes": "32",
        "value": "t_struct(RoleData)21_storage"
      },
      "t_mapping(t_bytes32,t_uint256)": {
        "encoding": "mapping",
        "key": "t_bytes32",
        "label": "mapping(bytes32 => uint256)",
        "numberOfBytes": "32",
        "value": "t_uint256"
      },
      "t_mapping(t_string_memory_ptr,t_array(t_struct(MineralHistory)3700_storage)dyn_storage)": {
        "encoding": "mapping",
        "key": "t_string_memory_ptr",
        "label": "mapping(string => struct RolesManager.MineralHistory[])",
        "numberOfBytes": "32",
        "value": "t_array(t_struct(MineralHistory)3700_storage)dyn_storage"
      },
      "t_mapping(t_string_memory_ptr,t_struct(MineralDetails)3689_storage)": {
        "encoding": "mapping",
        "key": "t_string_memory_ptr",
        "label": "mapping(string => struct RolesManager.MineralDetails)",
        "numberOfBytes": "32",
        "value": "t_struct(MineralDetails)3689_storage"
      },
      "t_mapping(t_uint256,t_string_storage)": {
        "encoding": "mapping",
        "key": "t_uint256",
        "label": "mapping(uint256 => string)",
        "numberOfBytes": "32",
        "value": "t_string_storage"
      },
      "t_string_memory_ptr": {
        "encoding": "bytes",
        "label": "string",
        "numberOfBytes": "32"
      },
      "t_string_storage": {
        "encoding": "bytes",
        "label": "string",
        "numberOfBytes": "32"
      },
      "t_struct(MineralDetails)3689_storage": {
        "encoding": "inplace",
        "label": "struct RolesManager.MineralDetails",
        "members": [
          {
            "astId": 3658,
            "contract": "contracts/core/PrivacyGuard.sol:PrivacyGuard",
            "label": "id",
            "offset": 0,
            "slot": "0",
            "type": "t_string_storage"
          },
          {
            "astId": 3660,
            "contract": "contracts/core/PrivacyGuard.sol:PrivacyGuard",
            "label": "name",
            "offset": 0,
            "slot": "1",
            "type": "t_string_storage"
          },
          {
            "astId": 3662,
            "contract": "contracts/core/PrivacyGuard.sol:PrivacyGuard",
            "label": "origin",
            "offset": 0,
            "slot": "2",
            "type": "t_string_storage"
          },
          {
            "astId": 3664,
            "contract": "contracts/core/PrivacyGuard.sol:PrivacyGuard",
            "label": "mineralType",
            "offset": 0,
            "slot": "3",
            "type": "t_string_storage"
          },
          {
            "astId": 3666,
            "contract": "contracts/core/PrivacyGuard.sol:PrivacyGuard",
            "label": "weight",
            "offset": 0,
            "slot": "4",
            "type": "t_uint256"
          },
          {
            "astId": 3668,
            "contract": "contracts/core/PrivacyGuard.sol:PrivacyGuard",
            "label": "purityPercentage",
            "offset": 0,
            "slot": "5",
            "type": "t_uint256"
          },
          {
            "astId": 3670,
            "contract": "contracts/core/PrivacyGuard.sol:PrivacyGuard",
            "label": "storageConditions",
            "offset": 0,
            "slot": "6",
            "type": "t_string_storage"
          },
          {
            "astId": 3672,
            "contract": "contracts/core/PrivacyGuard.sol:PrivacyGuard",
            "label": "registeredBy",
            "offset": 0,
            "slot": "7",
            "type": "t_address"
          },
          {
            "astId": 3674,
            "contract": "contracts/core/PrivacyGuard.sol:PrivacyGuard",
            "label": "currentStatus",
            "offset": 0,
            "slot": "8",
            "type": "t_string_storage"
          },
          {
            "astId": 3676,
            "contract": "contracts/core/PrivacyGuard.sol:PrivacyGuard",
            "label": "currentLocation",
            "offset": 0,
            "slot": "9",
            "type": "t_string_storage"
          },
          {
            "astId": 3678,
            "contract": "contracts/core/PrivacyGuard.sol:PrivacyGuard",
            "label": "currentHandler",
            "offset": 0,
            "slot": "10",
            "type": "t_address"
          },
          {
            "astId": 3680,
            "contract": "contracts/core/PrivacyGuard.sol:PrivacyGuard",
            "label": "isPurchased",
            "offset": 20,
            "slot": "10",
            "type": "t_bool"
          },
          {
            "astId": 3682,
            "contract": "contracts/core/PrivacyGuard.sol:PrivacyGuard",
            "label": "isRefined",
            "offset": 21,
            "slot": "10",
            "type": "t_bool"
          },
          {
            "astId": 3684,
            "contract": "contracts/core/PrivacyGuard.sol:PrivacyGuard",
            "label": "isAudited",
            "offset": 22,
            "slot": "10",
            "type": "t_bool"
          },
          {
            "astId": 3686,
            "contract": "contracts/core/PrivacyGuard.sol:PrivacyGuard",
            "label": "isInspected",
            "offset": 23,
            "slot": "10",
            "type": "t_bool"
          },
          {
            "astId": 3688,
            "contract": "contracts/core/PrivacyGuard.sol:PrivacyGuard",
            "label": "timestamp",
            "offset": 0,
            "slot": "11",
            "type": "t_uint256"
          }
        ],
        "numberOfBytes": "384"
      },
      "t_struct(MineralHistory)3700_storage": {
        "encoding": "inplace",
        "label": "struct RolesManager.MineralHistory",
        "members": [
          {
            "astId": 3691,
            "contract": "contracts/core/PrivacyGuard.sol:PrivacyGuard",
            "label": "id",
            "offset": 0,
            "slot": "0",
            "type": "t_string_storage"
          },
          {
            "astId": 3693,
            "contract": "contracts/core/PrivacyGuard.sol:PrivacyGuard",
            "label": "fieldChanged",
            "offset": 0,
            "slot": "1",
            "type": "t_string_storage"
          },
          {
            "astId": 3695,
            "contract": "contracts/core/PrivacyGuard.sol:PrivacyGuard",
            "label": "newValue",
            "offset": 0,
            "slot": "2",
            "type": "t_string_storage"
          },
          {
            "astId": 3697,
            "contract": "contracts/core/PrivacyGuard.sol:PrivacyGuard",
            "label": "updatedBy",
            "offset": 0,
            "slot": "3",
            "type": "t_address"
          },
          {
            "astId": 3699,
            "contract": "contracts/core/PrivacyGuard.sol:PrivacyGuard",
            "label": "timestamp",
            "offset": 0,
            "slot": "4",
            "type": "t_uint256"
          }
        ],
        "numberOfBytes": "160"
      },
      "t_struct(RoleData)21_storage": {
        "encoding": "inplace",
        "label": "struct AccessControl.RoleData",
        "members": [
          {
            "astId": 18,
            "contract": "contracts/core/PrivacyGuard.sol:PrivacyGuard",
            "label": "hasRole",
            "offset": 0,
            "slot": "0",
            "type": "t_mapping(t_address,t_bool)"
          },
          {
            "astId": 20,
            "contract": "contracts/core/PrivacyGuard.sol:PrivacyGuard",
            "label": "adminRole",
            "offset": 0,
            "slot": "1",
            "type": "t_bytes32"
          }
        ],
        "numberOfBytes": "64"
      },
      "t_uint256": {
        "encoding": "inplace",
        "label": "uint256",
        "numberOfBytes": "32"
      }
    }
  }
}