{
  "_format": "hh-sol-artifact-1",
  "contractName": "TransactionLog",
  "sourceName": "contracts/logs/TransactionLog.sol",
  "abi": [
    {
      "inputs": [],
      "name": "AccessControlBadConfirmation",
      "type": "error"
    },
    {
      "inputs": [
        {
          "internalType": "address",
          "name": "account",
          "type": "address"
        },
        {
          "internalType": "bytes32",
          "name": "neededRole",
          "type": "bytes32"
        }
      ],
      "name": "AccessControlUnauthorizedAccount",
      "type": "error"
    },
    {
      "inputs": [
        {
          "internalType": "address",
          "name": "caller",
          "type": "address"
        },
        {
          "internalType": "bytes32",
          "name": "role",
          "type": "bytes32"
        }
      ],
      "name": "AddressDoesNotHaveRequiredRole",
      "type": "error"
    },
    {
      "inputs": [
        {
          "internalType": "address",
          "name": "caller",
          "type": "address"
        }
      ],
      "name": "DisputeResolution__AlreadyVoted",
      "type": "error"
    },
    {
      "inputs": [
        {
          "internalType": "uint256",
          "name": "disputeId",
          "type": "uint256"
        }
      ],
      "name": "DisputeResolution__DisputeEscalated_UnableToVote",
      "type": "error"
    },
    {
      "inputs": [
        {
          "internalType": "uint256",
          "name": "disputeId",
          "type": "uint256"
        }
      ],
      "name": "DisputeResolution__DisputeNotEscalated",
      "type": "error"
    },
    {
      "inputs": [
        {
          "internalType": "uint256",
          "name": "disputeId",
          "type": "uint256"
        }
      ],
      "name": "DisputeResolution__DisputeStatusNotPending",
      "type": "error"
    },
    {
      "inputs": [],
      "name": "DisputeResolution__DisputeStatusNotPendingOrEscalated",
      "type": "error"
    },
    {
      "inputs": [],
      "name": "DisputeResolution__InvalidDisputeDefendantAddress",
      "type": "error"
    },
    {
      "inputs": [],
      "name": "DisputeResolution__InvalidDisputeDetails",
      "type": "error"
    },
    {
      "inputs": [],
      "name": "DisputeResolution__InvalidDisputeEvidence",
      "type": "error"
    },
    {
      "inputs": [],
      "name": "DisputeResolution__InvalidDisputeIdOrNotFound",
      "type": "error"
    },
    {
      "inputs": [],
      "name": "DisputeResolution__InvalidMineralIdOrNotFound",
      "type": "error"
    },
    {
      "inputs": [],
      "name": "DisputeResolution__InvalidResolutionDetails",
      "type": "error"
    },
    {
      "inputs": [
        {
          "internalType": "address",
          "name": "caller",
          "type": "address"
        }
      ],
      "name": "DisputeResolution__NotEligibleToVote",
      "type": "error"
    },
    {
      "inputs": [],
      "name": "DisputeResolution__VotingPeriodStillActive",
      "type": "error"
    },
    {
      "inputs": [
        {
          "internalType": "address",
          "name": "token",
          "type": "address"
        },
        {
          "internalType": "uint256",
          "name": "tokenAmount",
          "type": "uint256"
        }
      ],
      "name": "ERC20TokenTransferFailed",
      "type": "error"
    },
    {
      "inputs": [
        {
          "internalType": "address",
          "name": "caller",
          "type": "address"
        }
      ],
      "name": "InsufficientPermissionsToPerformAction",
      "type": "error"
    },
    {
      "inputs": [],
      "name": "InvalidAccountAddress",
      "type": "error"
    },
    {
      "inputs": [
        {
          "internalType": "string",
          "name": "mineralId",
          "type": "string"
        }
      ],
      "name": "InvalidMineralIdOrNotFound",
      "type": "error"
    },
    {
      "inputs": [],
      "name": "InvalidPaymentMethods",
      "type": "error"
    },
    {
      "inputs": [
        {
          "internalType": "string",
          "name": "currentStatus",
          "type": "string"
        },
        {
          "internalType": "string",
          "name": "attemptedStatus",
          "type": "string"
        }
      ],
      "name": "InvalidTransportStateTransition",
      "type": "error"
    },
    {
      "inputs": [
        {
          "internalType": "string",
          "name": "mineralId",
          "type": "string"
        }
      ],
      "name": "MineralNotMarketReady",
      "type": "error"
    },
    {
      "inputs": [
        {
          "internalType": "string",
          "name": "mineralId",
          "type": "string"
        }
      ],
      "name": "MineralNotReadyToTrade",
      "type": "error"
    },
    {
      "inputs": [],
      "name": "MineralRegistry__InvalidMineralDestination",
      "type": "error"
    },
    {
      "inputs": [],
      "name": "MineralRegistry__InvalidMineralDetails",
      "type": "error"
    },
    {
      "inputs": [
        {
          "internalType": "string",
          "name": "mineralId",
          "type": "string"
        }
      ],
      "name": "MineralRegistry__InvalidMineralIdOrNotFound",
      "type": "error"
    },
    {
      "inputs": [],
      "name": "MineralRegistry__InvalidMineralLocation",
      "type": "error"
    },
    {
      "inputs": [],
      "name": "MineralRegistry__InvalidMineralName",
      "type": "error"
    },
    {
      "inputs": [],
      "name": "MineralRegistry__InvalidMineralOrigin",
      "type": "error"
    },
    {
      "inputs": [],
      "name": "MineralRegistry__InvalidMineralPurityPercentage",
      "type": "error"
    },
    {
      "inputs": [],
      "name": "MineralRegistry__InvalidMineralStatus",
      "type": "error"
    },
    {
      "inputs": [],
      "name": "MineralRegistry__InvalidMineralStorageConditions",
      "type": "error"
    },
    {
      "inputs": [],
      "name": "MineralRegistry__InvalidMineralType",
      "type": "error"
    },
    {
      "inputs": [],
      "name": "MineralRegistry__InvalidMineralWeight",
      "type": "error"
    },
    {
      "inputs": [],
      "name": "MineralRegistry__InvalidReceivingPartyAddress",
      "type": "error"
    },
    {
      "inputs": [],
      "name": "MineralRegistry__MineralAlreadyAudited",
      "type": "error"
    },
    {
      "inputs": [],
      "name": "MineralRegistry__MineralAlreadyInspected",
      "type": "error"
    },
    {
      "inputs": [],
      "name": "MineralRegistry__MineralAlreadyPurchased",
      "type": "error"
    },
    {
      "inputs": [],
      "name": "MineralRegistry__MineralNotAudited",
      "type": "error"
    },
    {
      "inputs": [],
      "name": "MineralRegistry__MineralNotInspected",
      "type": "error"
    },
    {
      "inputs": [
        {
          "internalType": "string",
          "name": "mineralId",
          "type": "string"
        }
      ],
      "name": "MineralRegistry__MineralNotRegistered",
      "type": "error"
    },
    {
      "inputs": [],
      "name": "MineralWarehouse__ETHTransferFailed",
      "type": "error"
    },
    {
      "inputs": [],
      "name": "MineralWarehouse__IncorrectETHAmount",
      "type": "error"
    },
    {
      "inputs": [],
      "name": "MineralWarehouse__InvalidETHPrice",
      "type": "error"
    },
    {
      "inputs": [],
      "name": "MineralWarehouse__InvalidMineralPrice",
      "type": "error"
    },
    {
      "inputs": [],
      "name": "MineralWarehouse__InvalidNumberOfPrices",
      "type": "error"
    },
    {
      "inputs": [
        {
          "internalType": "address",
          "name": "tokenAddress",
          "type": "address"
        }
      ],
      "name": "MineralWarehouse__InvalidTokenAddress",
      "type": "error"
    },
    {
      "inputs": [],
      "name": "MineralWarehouse__InvalidTokenPrice",
      "type": "error"
    },
    {
      "inputs": [
        {
          "internalType": "string",
          "name": "mineralId",
          "type": "string"
        }
      ],
      "name": "MineralWarehouse__MineralAlreadySold",
      "type": "error"
    },
    {
      "inputs": [
        {
          "internalType": "string",
          "name": "mineralId",
          "type": "string"
        }
      ],
      "name": "MineralWarehouse__MineralNotFoundInWarehouse",
      "type": "error"
    },
    {
      "inputs": [
        {
          "internalType": "string",
          "name": "mineralId",
          "type": "string"
        }
      ],
      "name": "MineralWarehouse__MineralNotMarketReady",
      "type": "error"
    },
    {
      "inputs": [
        {
          "internalType": "string",
          "name": "mineralId",
          "type": "string"
        }
      ],
      "name": "MineralWarehouse__MineralNotRefined",
      "type": "error"
    },
    {
      "inputs": [],
      "name": "MineralWarehouse__MismatchedArrays",
      "type": "error"
    },
    {
      "inputs": [
        {
          "internalType": "address",
          "name": "tokenAddress",
          "type": "address"
        }
      ],
      "name": "MineralWarehouse__TokenNotAccepted",
      "type": "error"
    },
    {
      "inputs": [
        {
          "internalType": "address",
          "name": "tokenAddress",
          "type": "address"
        }
      ],
      "name": "MineralWarehouse__UnacceptedToken",
      "type": "error"
    },
    {
      "inputs": [
        {
          "internalType": "address[]",
          "name": "tokenAddresses",
          "type": "address[]"
        }
      ],
      "name": "MineralWarehouse__UnacceptedTokens",
      "type": "error"
    },
    {
      "inputs": [
        {
          "internalType": "address",
          "name": "seller",
          "type": "address"
        }
      ],
      "name": "MineralWarehouse__UnauthorizedSeller",
      "type": "error"
    },
    {
      "inputs": [
        {
          "internalType": "string",
          "name": "mineralId",
          "type": "string"
        },
        {
          "internalType": "address",
          "name": "caller",
          "type": "address"
        }
      ],
      "name": "NotAssignedTransporter",
      "type": "error"
    },
    {
      "inputs": [],
      "name": "RolesManager__AccountAlreadyHasRole",
      "type": "error"
    },
    {
      "inputs": [],
      "name": "RolesManager__AccountDoesNotHaveRole",
      "type": "error"
    },
    {
      "inputs": [],
      "name": "RolesManager__InvalidAddress",
      "type": "error"
    },
    {
      "inputs": [],
      "name": "RolesManager__InvalidMineralDestination",
      "type": "error"
    },
    {
      "inputs": [],
      "name": "RolesManager__InvalidMineralIdOrNotFound",
      "type": "error"
    },
    {
      "inputs": [],
      "name": "RolesManager__InvalidMineralName",
      "type": "error"
    },
    {
      "inputs": [],
      "name": "RolesManager__InvalidMineralOrigin",
      "type": "error"
    },
    {
      "inputs": [],
      "name": "RolesManager__InvalidMineralPurityPercentage",
      "type": "error"
    },
    {
      "inputs": [],
      "name": "RolesManager__InvalidMineralStorageConditions",
      "type": "error"
    },
    {
      "inputs": [],
      "name": "RolesManager__InvalidMineralType",
      "type": "error"
    },
    {
      "inputs": [],
      "name": "RolesManager__InvalidMineralWeight",
      "type": "error"
    },
    {
      "inputs": [],
      "name": "RolesManager__InvalidReceivingPartyAddress",
      "type": "error"
    },
    {
      "inputs": [],
      "name": "RolesManager__InvalidRole",
      "type": "error"
    },
    {
      "inputs": [
        {
          "internalType": "string",
          "name": "mineralId",
          "type": "string"
        }
      ],
      "name": "RolesManager__MineralAlreadyAudited",
      "type": "error"
    },
    {
      "inputs": [
        {
          "internalType": "string",
          "name": "mineralId",
          "type": "string"
        }
      ],
      "name": "RolesManager__MineralAlreadyInspected",
      "type": "error"
    },
    {
      "inputs": [
        {
          "internalType": "string",
          "name": "mineralId",
          "type": "string"
        }
      ],
      "name": "RolesManager__MineralAlreadyPurchased",
      "type": "error"
    },
    {
      "inputs": [
        {
          "internalType": "string",
          "name": "mineralId",
          "type": "string"
        }
      ],
      "name": "RolesManager__MineralAlreadyRefined",
      "type": "error"
    },
    {
      "inputs": [
        {
          "internalType": "string",
          "name": "mineralId",
          "type": "string"
        }
      ],
      "name": "RolesManager__MineralNotMarketReady",
      "type": "error"
    },
    {
      "inputs": [
        {
          "internalType": "uint256",
          "name": "purityPercentage",
          "type": "uint256"
        }
      ],
      "name": "RolesManager__MineralPurityPercentageTooLowToRegister",
      "type": "error"
    },
    {
      "inputs": [
        {
          "internalType": "address",
          "name": "caller",
          "type": "address"
        }
      ],
      "name": "RolesManager__NotTheAssignedBuyer",
      "type": "error"
    },
    {
      "inputs": [
        {
          "internalType": "string",
          "name": "mineralId",
          "type": "string"
        }
      ],
      "name": "SupplychainValidator__InvalidMineralIdOrNotFound",
      "type": "error"
    },
    {
      "inputs": [],
      "name": "SupplychainValidator__InvalidMineralOwnershipChain",
      "type": "error"
    },
    {
      "inputs": [],
      "name": "SupplychainValidator__InvalidMineralTransactionHistory",
      "type": "error"
    },
    {
      "inputs": [
        {
          "internalType": "uint256",
          "name": "tokenId",
          "type": "uint256"
        },
        {
          "internalType": "address",
          "name": "caller",
          "type": "address"
        }
      ],
      "name": "Tokenization__CallerNotMineralTokenOwner",
      "type": "error"
    },
    {
      "inputs": [
        {
          "internalType": "uint256",
          "name": "tokenId",
          "type": "uint256"
        }
      ],
      "name": "Tokenization__InvalidTokenId",
      "type": "error"
    },
    {
      "inputs": [
        {
          "internalType": "uint256",
          "name": "tokenId",
          "type": "uint256"
        }
      ],
      "name": "Tokenization__InvalidTokenIdOrNotFound",
      "type": "error"
    },
    {
      "inputs": [
        {
          "internalType": "uint256",
          "name": "tokenId",
          "type": "uint256"
        }
      ],
      "name": "Tokenization__TokenAlreadyExists",
      "type": "error"
    },
    {
      "inputs": [
        {
          "internalType": "uint256",
          "name": "tokenId",
          "type": "uint256"
        }
      ],
      "name": "Tokenization__TokenIsAlreadyMinted",
      "type": "error"
    },
    {
      "inputs": [
        {
          "internalType": "uint256",
          "name": "index",
          "type": "uint256"
        }
      ],
      "name": "TransactionLog__InvalidOperationIndex",
      "type": "error"
    },
    {
      "inputs": [],
      "name": "TransactionLog__InvalidOperationType",
      "type": "error"
    },
    {
      "inputs": [
        {
          "internalType": "uint256",
          "name": "transactionId",
          "type": "uint256"
        }
      ],
      "name": "TransactionLog__InvalidTransactionIdOrNotFound",
      "type": "error"
    },
    {
      "inputs": [
        {
          "internalType": "string",
          "name": "mineralId",
          "type": "string"
        }
      ],
      "name": "TransportRequestAlreadyExists",
      "type": "error"
    },
    {
      "anonymous": false,
      "inputs": [
        {
          "indexed": true,
          "internalType": "address",
          "name": "assignee",
          "type": "address"
        },
        {
          "indexed": false,
          "internalType": "uint256",
          "name": "timestamp",
          "type": "uint256"
        }
      ],
      "name": "AdminRoleAssigned",
      "type": "event"
    },
    {
      "anonymous": false,
      "inputs": [
        {
          "indexed": true,
          "internalType": "address",
          "name": "revokee",
          "type": "address"
        },
        {
          "indexed": false,
          "internalType": "string",
          "name": "reason",
          "type": "string"
        },
        {
          "indexed": false,
          "internalType": "uint256",
          "name": "timestamp",
          "type": "uint256"
        }
      ],
      "name": "AdminRoleRevoked",
      "type": "event"
    },
    {
      "anonymous": false,
      "inputs": [
        {
          "indexed": true,
          "internalType": "address",
          "name": "assignee",
          "type": "address"
        },
        {
          "indexed": false,
          "internalType": "uint256",
          "name": "timestamp",
          "type": "uint256"
        }
      ],
      "name": "AuditorRoleAssigned",
      "type": "event"
    },
    {
      "anonymous": false,
      "inputs": [
        {
          "indexed": true,
          "internalType": "address",
          "name": "revokee",
          "type": "address"
        },
        {
          "indexed": false,
          "internalType": "string",
          "name": "reason",
          "type": "string"
        },
        {
          "indexed": false,
          "internalType": "uint256",
          "name": "timestamp",
          "type": "uint256"
        }
      ],
      "name": "AuditorRoleRevoked",
      "type": "event"
    },
    {
      "anonymous": false,
      "inputs": [
        {
          "indexed": true,
          "internalType": "address",
          "name": "assignee",
          "type": "address"
        },
        {
          "indexed": false,
          "internalType": "uint256",
          "name": "timestamp",
          "type": "uint256"
        }
      ],
      "name": "BuyerRoleAssigned",
      "type": "event"
    },
    {
      "anonymous": false,
      "inputs": [
        {
          "indexed": true,
          "internalType": "address",
          "name": "revokee",
          "type": "address"
        },
        {
          "indexed": false,
          "internalType": "string",
          "name": "reason",
          "type": "string"
        },
        {
          "indexed": false,
          "internalType": "uint256",
          "name": "timestamp",
          "type": "uint256"
        }
      ],
      "name": "BuyerRoleRevoked",
      "type": "event"
    },
    {
      "anonymous": false,
      "inputs": [
        {
          "indexed": true,
          "internalType": "address",
          "name": "assignee",
          "type": "address"
        },
        {
          "indexed": false,
          "internalType": "uint256",
          "name": "timestamp",
          "type": "uint256"
        }
      ],
      "name": "InspectorRoleAssigned",
      "type": "event"
    },
    {
      "anonymous": false,
      "inputs": [
        {
          "indexed": true,
          "internalType": "address",
          "name": "revokee",
          "type": "address"
        },
        {
          "indexed": false,
          "internalType": "string",
          "name": "reason",
          "type": "string"
        },
        {
          "indexed": false,
          "internalType": "uint256",
          "name": "timestamp",
          "type": "uint256"
        }
      ],
      "name": "InspectorRoleRevoked",
      "type": "event"
    },
    {
      "anonymous": false,
      "inputs": [
        {
          "indexed": true,
          "internalType": "address",
          "name": "assignee",
          "type": "address"
        },
        {
          "indexed": false,
          "internalType": "uint256",
          "name": "timestamp",
          "type": "uint256"
        }
      ],
      "name": "MinerRoleAssigned",
      "type": "event"
    },
    {
      "anonymous": false,
      "inputs": [
        {
          "indexed": true,
          "internalType": "address",
          "name": "revokee",
          "type": "address"
        },
        {
          "indexed": false,
          "internalType": "string",
          "name": "reason",
          "type": "string"
        },
        {
          "indexed": false,
          "internalType": "uint256",
          "name": "timestamp",
          "type": "uint256"
        }
      ],
      "name": "MinerRoleRevoked",
      "type": "event"
    },
    {
      "anonymous": false,
      "inputs": [
        {
          "indexed": false,
          "internalType": "string",
          "name": "mineralId",
          "type": "string"
        },
        {
          "indexed": false,
          "internalType": "string",
          "name": "status",
          "type": "string"
        },
        {
          "indexed": true,
          "internalType": "address",
          "name": "auditor",
          "type": "address"
        },
        {
          "indexed": false,
          "internalType": "uint256",
          "name": "auditedAt",
          "type": "uint256"
        }
      ],
      "name": "MineralAudited",
      "type": "event"
    },
    {
      "anonymous": false,
      "inputs": [
        {
          "indexed": false,
          "internalType": "string",
          "name": "mineralId",
          "type": "string"
        },
        {
          "indexed": false,
          "internalType": "string",
          "name": "mineralStatus",
          "type": "string"
        },
        {
          "indexed": true,
          "internalType": "address",
          "name": "inspector",
          "type": "address"
        },
        {
          "indexed": false,
          "internalType": "uint256",
          "name": "inspectedAt",
          "type": "uint256"
        }
      ],
      "name": "MineralInspected",
      "type": "event"
    },
    {
      "anonymous": false,
      "inputs": [
        {
          "indexed": false,
          "internalType": "string",
          "name": "mineralId",
          "type": "string"
        },
        {
          "indexed": true,
          "internalType": "address",
          "name": "buyer",
          "type": "address"
        },
        {
          "indexed": false,
          "internalType": "uint256",
          "name": "purchasedAt",
          "type": "uint256"
        }
      ],
      "name": "MineralPurchased",
      "type": "event"
    },
    {
      "anonymous": false,
      "inputs": [
        {
          "indexed": false,
          "internalType": "string",
          "name": "mineralId",
          "type": "string"
        },
        {
          "indexed": true,
          "internalType": "address",
          "name": "ApprovedBy",
          "type": "address"
        },
        {
          "indexed": false,
          "internalType": "string",
          "name": "status",
          "type": "string"
        },
        {
          "indexed": false,
          "internalType": "uint256",
          "name": "inspectionDate",
          "type": "uint256"
        }
      ],
      "name": "MineralReadyToTrade",
      "type": "event"
    },
    {
      "anonymous": false,
      "inputs": [
        {
          "indexed": false,
          "internalType": "string",
          "name": "mineralId",
          "type": "string"
        },
        {
          "indexed": false,
          "internalType": "string",
          "name": "refineryReport",
          "type": "string"
        },
        {
          "indexed": true,
          "internalType": "address",
          "name": "refiner",
          "type": "address"
        },
        {
          "indexed": false,
          "internalType": "uint256",
          "name": "refinedAt",
          "type": "uint256"
        }
      ],
      "name": "MineralRefined",
      "type": "event"
    },
    {
      "anonymous": false,
      "inputs": [
        {
          "indexed": false,
          "internalType": "string",
          "name": "mineralId",
          "type": "string"
        },
        {
          "indexed": false,
          "internalType": "string",
          "name": "mineralName",
          "type": "string"
        },
        {
          "indexed": false,
          "internalType": "string",
          "name": "mineralType",
          "type": "string"
        },
        {
          "indexed": false,
          "internalType": "string",
          "name": "origin",
          "type": "string"
        },
        {
          "indexed": false,
          "internalType": "uint256",
          "name": "weight",
          "type": "uint256"
        },
        {
          "indexed": false,
          "internalType": "uint256",
          "name": "purityPercentage",
          "type": "uint256"
        },
        {
          "indexed": true,
          "internalType": "address",
          "name": "miner",
          "type": "address"
        },
        {
          "indexed": false,
          "internalType": "uint256",
          "name": "registeredAt",
          "type": "uint256"
        }
      ],
      "name": "MineralRegistered",
      "type": "event"
    },
    {
      "anonymous": false,
      "inputs": [
        {
          "indexed": false,
          "internalType": "string",
          "name": "mineralId",
          "type": "string"
        },
        {
          "indexed": true,
          "internalType": "address",
          "name": "transporter",
          "type": "address"
        },
        {
          "indexed": false,
          "internalType": "address",
          "name": "receivingParty",
          "type": "address"
        },
        {
          "indexed": false,
          "internalType": "string",
          "name": "origin",
          "type": "string"
        },
        {
          "indexed": false,
          "internalType": "string",
          "name": "destination",
          "type": "string"
        },
        {
          "indexed": false,
          "internalType": "uint256",
          "name": "transportedAt",
          "type": "uint256"
        }
      ],
      "name": "MineralTransported",
      "type": "event"
    },
    {
      "anonymous": false,
      "inputs": [
        {
          "indexed": true,
          "internalType": "address",
          "name": "actor",
          "type": "address"
        },
        {
          "indexed": false,
          "internalType": "string",
          "name": "operationType",
          "type": "string"
        },
        {
          "indexed": false,
          "internalType": "string",
          "name": "mineralId",
          "type": "string"
        },
        {
          "indexed": false,
          "internalType": "uint256",
          "name": "timestamp",
          "type": "uint256"
        }
      ],
      "name": "OperationRecorded",
      "type": "event"
    },
    {
      "anonymous": false,
      "inputs": [
        {
          "indexed": true,
          "internalType": "address",
          "name": "assignee",
          "type": "address"
        },
        {
          "indexed": false,
          "internalType": "uint256",
          "name": "timestamp",
          "type": "uint256"
        }
      ],
      "name": "RefinerRoleAssigned",
      "type": "event"
    },
    {
      "anonymous": false,
      "inputs": [
        {
          "indexed": true,
          "internalType": "address",
          "name": "revokee",
          "type": "address"
        },
        {
          "indexed": false,
          "internalType": "string",
          "name": "reason",
          "type": "string"
        },
        {
          "indexed": false,
          "internalType": "uint256",
          "name": "timestamp",
          "type": "uint256"
        }
      ],
      "name": "RefinerRoleRevoked",
      "type": "event"
    },
    {
      "anonymous": false,
      "inputs": [
        {
          "indexed": true,
          "internalType": "bytes32",
          "name": "role",
          "type": "bytes32"
        },
        {
          "indexed": true,
          "internalType": "bytes32",
          "name": "previousAdminRole",
          "type": "bytes32"
        },
        {
          "indexed": true,
          "internalType": "bytes32",
          "name": "newAdminRole",
          "type": "bytes32"
        }
      ],
      "name": "RoleAdminChanged",
      "type": "event"
    },
    {
      "anonymous": false,
      "inputs": [
        {
          "indexed": true,
          "internalType": "address",
          "name": "account",
          "type": "address"
        },
        {
          "indexed": true,
          "internalType": "bytes32",
          "name": "role",
          "type": "bytes32"
        },
        {
          "indexed": false,
          "internalType": "uint256",
          "name": "roleAssignedAt",
          "type": "uint256"
        }
      ],
      "name": "RoleAssigned",
      "type": "event"
    },
    {
      "anonymous": false,
      "inputs": [
        {
          "indexed": true,
          "internalType": "bytes32",
          "name": "role",
          "type": "bytes32"
        },
        {
          "indexed": true,
          "internalType": "address",
          "name": "account",
          "type": "address"
        },
        {
          "indexed": true,
          "internalType": "address",
          "name": "sender",
          "type": "address"
        }
      ],
      "name": "RoleGranted",
      "type": "event"
    },
    {
      "anonymous": false,
      "inputs": [
        {
          "indexed": true,
          "internalType": "bytes32",
          "name": "role",
          "type": "bytes32"
        },
        {
          "indexed": true,
          "internalType": "address",
          "name": "account",
          "type": "address"
        },
        {
          "indexed": true,
          "internalType": "address",
          "name": "sender",
          "type": "address"
        }
      ],
      "name": "RoleRevoked",
      "type": "event"
    },
    {
      "anonymous": false,
      "inputs": [
        {
          "indexed": false,
          "internalType": "bytes32",
          "name": "role",
          "type": "bytes32"
        },
        {
          "indexed": false,
          "internalType": "address",
          "name": "account",
          "type": "address"
        },
        {
          "indexed": false,
          "internalType": "address",
          "name": "revoker",
          "type": "address"
        },
        {
          "indexed": false,
          "internalType": "uint256",
          "name": "roleRevokedAt",
          "type": "uint256"
        }
      ],
      "name": "RoleRevoked",
      "type": "event"
    },
    {
      "anonymous": false,
      "inputs": [
        {
          "indexed": true,
          "internalType": "uint256",
          "name": "transactionId",
          "type": "uint256"
        },
        {
          "indexed": true,
          "internalType": "address",
          "name": "sender",
          "type": "address"
        },
        {
          "indexed": true,
          "internalType": "address",
          "name": "receiver",
          "type": "address"
        },
        {
          "indexed": false,
          "internalType": "string",
          "name": "mineralId",
          "type": "string"
        },
        {
          "indexed": false,
          "internalType": "uint256",
          "name": "timestamp",
          "type": "uint256"
        },
        {
          "indexed": false,
          "internalType": "string",
          "name": "transactionType",
          "type": "string"
        }
      ],
      "name": "TransactionRecorded",
      "type": "event"
    },
    {
      "anonymous": false,
      "inputs": [
        {
          "indexed": true,
          "internalType": "address",
          "name": "assignee",
          "type": "address"
        },
        {
          "indexed": false,
          "internalType": "uint256",
          "name": "timestamp",
          "type": "uint256"
        }
      ],
      "name": "TransporterRoleAssigned",
      "type": "event"
    },
    {
      "anonymous": false,
      "inputs": [
        {
          "indexed": true,
          "internalType": "address",
          "name": "revokee",
          "type": "address"
        },
        {
          "indexed": false,
          "internalType": "string",
          "name": "reason",
          "type": "string"
        },
        {
          "indexed": false,
          "internalType": "uint256",
          "name": "timestamp",
          "type": "uint256"
        }
      ],
      "name": "TransporterRoleRevoked",
      "type": "event"
    },
    {
      "inputs": [],
      "name": "AUDITOR_ROLE",
      "outputs": [
        {
          "internalType": "bytes32",
          "name": "",
          "type": "bytes32"
        }
      ],
      "stateMutability": "view",
      "type": "function"
    },
    {
      "inputs": [],
      "name": "BUYER_ROLE",
      "outputs": [
        {
          "internalType": "bytes32",
          "name": "",
          "type": "bytes32"
        }
      ],
      "stateMutability": "view",
      "type": "function"
    },
    {
      "inputs": [],
      "name": "DEFAULT_ADMIN_ROLE",
      "outputs": [
        {
          "internalType": "bytes32",
          "name": "",
          "type": "bytes32"
        }
      ],
      "stateMutability": "view",
      "type": "function"
    },
    {
      "inputs": [],
      "name": "INSPECTOR_ROLE",
      "outputs": [
        {
          "internalType": "bytes32",
          "name": "",
          "type": "bytes32"
        }
      ],
      "stateMutability": "view",
      "type": "function"
    },
    {
      "inputs": [],
      "name": "MINER_ROLE",
      "outputs": [
        {
          "internalType": "bytes32",
          "name": "",
          "type": "bytes32"
        }
      ],
      "stateMutability": "view",
      "type": "function"
    },
    {
      "inputs": [],
      "name": "REFINER_ROLE",
      "outputs": [
        {
          "internalType": "bytes32",
          "name": "",
          "type": "bytes32"
        }
      ],
      "stateMutability": "view",
      "type": "function"
    },
    {
      "inputs": [],
      "name": "TRANSPORTER_ROLE",
      "outputs": [
        {
          "internalType": "bytes32",
          "name": "",
          "type": "bytes32"
        }
      ],
      "stateMutability": "view",
      "type": "function"
    },
    {
      "inputs": [
        {
          "internalType": "string",
          "name": "mineralId",
          "type": "string"
        },
        {
          "internalType": "string",
          "name": "report",
          "type": "string"
        }
      ],
      "name": "_auditMineral",
      "outputs": [],
      "stateMutability": "nonpayable",
      "type": "function"
    },
    {
      "inputs": [
        {
          "internalType": "address",
          "name": "account",
          "type": "address"
        }
      ],
      "name": "assignAuditor",
      "outputs": [],
      "stateMutability": "nonpayable",
      "type": "function"
    },
    {
      "inputs": [
        {
          "internalType": "address",
          "name": "account",
          "type": "address"
        }
      ],
      "name": "assignBuyer",
      "outputs": [],
      "stateMutability": "nonpayable",
      "type": "function"
    },
    {
      "inputs": [
        {
          "internalType": "address",
          "name": "account",
          "type": "address"
        }
      ],
      "name": "assignInspector",
      "outputs": [],
      "stateMutability": "nonpayable",
      "type": "function"
    },
    {
      "inputs": [
        {
          "internalType": "address",
          "name": "account",
          "type": "address"
        }
      ],
      "name": "assignMiner",
      "outputs": [],
      "stateMutability": "nonpayable",
      "type": "function"
    },
    {
      "inputs": [
        {
          "internalType": "address",
          "name": "account",
          "type": "address"
        }
      ],
      "name": "assignRefiner",
      "outputs": [],
      "stateMutability": "nonpayable",
      "type": "function"
    },
    {
      "inputs": [
        {
          "internalType": "address",
          "name": "account",
          "type": "address"
        }
      ],
      "name": "assignTransporter",
      "outputs": [],
      "stateMutability": "nonpayable",
      "type": "function"
    },
    {
      "inputs": [
        {
          "internalType": "string",
          "name": "mineralId",
          "type": "string"
        }
      ],
      "name": "checkAuditAndInspectionStatus",
      "outputs": [
        {
          "internalType": "bool",
          "name": "isAudited",
          "type": "bool"
        },
        {
          "internalType": "bool",
          "name": "isInspected",
          "type": "bool"
        }
      ],
      "stateMutability": "nonpayable",
      "type": "function"
    },
    {
      "inputs": [],
      "name": "getAllRoleCounts",
      "outputs": [
        {
          "internalType": "uint256",
          "name": "minerCount",
          "type": "uint256"
        },
        {
          "internalType": "uint256",
          "name": "refinerCount",
          "type": "uint256"
        },
        {
          "internalType": "uint256",
          "name": "transporterCount",
          "type": "uint256"
        },
        {
          "internalType": "uint256",
          "name": "auditorCount",
          "type": "uint256"
        },
        {
          "internalType": "uint256",
          "name": "inspectorCount",
          "type": "uint256"
        },
        {
          "internalType": "uint256",
          "name": "buyerCount",
          "type": "uint256"
        }
      ],
      "stateMutability": "view",
      "type": "function"
    },
    {
      "inputs": [
        {
          "internalType": "string",
          "name": "mineralId",
          "type": "string"
        }
      ],
      "name": "getMineralHistory",
      "outputs": [
        {
          "components": [
            {
              "internalType": "string",
              "name": "id",
              "type": "string"
            },
            {
              "internalType": "string",
              "name": "fieldChanged",
              "type": "string"
            },
            {
              "internalType": "string",
              "name": "newValue",
              "type": "string"
            },
            {
              "internalType": "address",
              "name": "updatedBy",
              "type": "address"
            },
            {
              "internalType": "uint256",
              "name": "timestamp",
              "type": "uint256"
            }
          ],
          "internalType": "struct RolesManager.MineralHistory[]",
          "name": "",
          "type": "tuple[]"
        }
      ],
      "stateMutability": "view",
      "type": "function"
    },
    {
      "inputs": [
        {
          "internalType": "uint256",
          "name": "index",
          "type": "uint256"
        }
      ],
      "name": "getOperation",
      "outputs": [
        {
          "internalType": "address",
          "name": "actor",
          "type": "address"
        },
        {
          "internalType": "string",
          "name": "operationType",
          "type": "string"
        },
        {
          "internalType": "string",
          "name": "mineralId",
          "type": "string"
        },
        {
          "internalType": "uint256",
          "name": "timestamp",
          "type": "uint256"
        }
      ],
      "stateMutability": "view",
      "type": "function"
    },
    {
      "inputs": [],
      "name": "getOperationsCount",
      "outputs": [
        {
          "internalType": "uint256",
          "name": "",
          "type": "uint256"
        }
      ],
      "stateMutability": "view",
      "type": "function"
    },
    {
      "inputs": [
        {
          "internalType": "bytes32",
          "name": "role",
          "type": "bytes32"
        }
      ],
      "name": "getRoleAdmin",
      "outputs": [
        {
          "internalType": "bytes32",
          "name": "",
          "type": "bytes32"
        }
      ],
      "stateMutability": "view",
      "type": "function"
    },
    {
      "inputs": [
        {
          "internalType": "bytes32",
          "name": "role",
          "type": "bytes32"
        }
      ],
      "name": "getRoleMemberCount",
      "outputs": [
        {
          "internalType": "uint256",
          "name": "count",
          "type": "uint256"
        }
      ],
      "stateMutability": "view",
      "type": "function"
    },
    {
      "inputs": [
        {
          "internalType": "address",
          "name": "account",
          "type": "address"
        }
      ],
      "name": "getRolesForAddress",
      "outputs": [
        {
          "internalType": "string[]",
          "name": "roles",
          "type": "string[]"
        }
      ],
      "stateMutability": "view",
      "type": "function"
    },
    {
      "inputs": [
        {
          "internalType": "uint256",
          "name": "transactionId",
          "type": "uint256"
        }
      ],
      "name": "getTransaction",
      "outputs": [
        {
          "components": [
            {
              "internalType": "uint256",
              "name": "transactionId",
              "type": "uint256"
            },
            {
              "internalType": "address",
              "name": "sender",
              "type": "address"
            },
            {
              "internalType": "address",
              "name": "receiver",
              "type": "address"
            },
            {
              "internalType": "string",
              "name": "mineralId",
              "type": "string"
            },
            {
              "internalType": "uint256",
              "name": "timestamp",
              "type": "uint256"
            },
            {
              "internalType": "string",
              "name": "transactionType",
              "type": "string"
            }
          ],
          "internalType": "struct TransactionLog.Transaction",
          "name": "",
          "type": "tuple"
        }
      ],
      "stateMutability": "view",
      "type": "function"
    },
    {
      "inputs": [
        {
          "internalType": "string",
          "name": "mineralId",
          "type": "string"
        }
      ],
      "name": "getTransactionsByMineral",
      "outputs": [
        {
          "components": [
            {
              "internalType": "uint256",
              "name": "transactionId",
              "type": "uint256"
            },
            {
              "internalType": "address",
              "name": "sender",
              "type": "address"
            },
            {
              "internalType": "address",
              "name": "receiver",
              "type": "address"
            },
            {
              "internalType": "string",
              "name": "mineralId",
              "type": "string"
            },
            {
              "internalType": "uint256",
              "name": "timestamp",
              "type": "uint256"
            },
            {
              "internalType": "string",
              "name": "transactionType",
              "type": "string"
            }
          ],
          "internalType": "struct TransactionLog.Transaction[]",
          "name": "",
          "type": "tuple[]"
        }
      ],
      "stateMutability": "view",
      "type": "function"
    },
    {
      "inputs": [
        {
          "internalType": "bytes32",
          "name": "role",
          "type": "bytes32"
        },
        {
          "internalType": "address",
          "name": "account",
          "type": "address"
        }
      ],
      "name": "grantRole",
      "outputs": [],
      "stateMutability": "nonpayable",
      "type": "function"
    },
    {
      "inputs": [
        {
          "internalType": "address",
          "name": "account",
          "type": "address"
        }
      ],
      "name": "hasAdminRole",
      "outputs": [
        {
          "internalType": "bool",
          "name": "",
          "type": "bool"
        }
      ],
      "stateMutability": "view",
      "type": "function"
    },
    {
      "inputs": [
        {
          "internalType": "address",
          "name": "account",
          "type": "address"
        }
      ],
      "name": "hasAuditorRole",
      "outputs": [
        {
          "internalType": "bool",
          "name": "",
          "type": "bool"
        }
      ],
      "stateMutability": "view",
      "type": "function"
    },
    {
      "inputs": [
        {
          "internalType": "address",
          "name": "account",
          "type": "address"
        }
      ],
      "name": "hasBuyerRole",
      "outputs": [
        {
          "internalType": "bool",
          "name": "",
          "type": "bool"
        }
      ],
      "stateMutability": "view",
      "type": "function"
    },
    {
      "inputs": [
        {
          "internalType": "address",
          "name": "account",
          "type": "address"
        }
      ],
      "name": "hasInspectorRole",
      "outputs": [
        {
          "internalType": "bool",
          "name": "",
          "type": "bool"
        }
      ],
      "stateMutability": "view",
      "type": "function"
    },
    {
      "inputs": [
        {
          "internalType": "address",
          "name": "account",
          "type": "address"
        }
      ],
      "name": "hasMinerRole",
      "outputs": [
        {
          "internalType": "bool",
          "name": "",
          "type": "bool"
        }
      ],
      "stateMutability": "view",
      "type": "function"
    },
    {
      "inputs": [
        {
          "internalType": "address",
          "name": "account",
          "type": "address"
        }
      ],
      "name": "hasRefinerRole",
      "outputs": [
        {
          "internalType": "bool",
          "name": "",
          "type": "bool"
        }
      ],
      "stateMutability": "view",
      "type": "function"
    },
    {
      "inputs": [
        {
          "internalType": "bytes32",
          "name": "role",
          "type": "bytes32"
        },
        {
          "internalType": "address",
          "name": "account",
          "type": "address"
        }
      ],
      "name": "hasRole",
      "outputs": [
        {
          "internalType": "bool",
          "name": "",
          "type": "bool"
        }
      ],
      "stateMutability": "view",
      "type": "function"
    },
    {
      "inputs": [
        {
          "internalType": "address",
          "name": "account",
          "type": "address"
        }
      ],
      "name": "hasTransporterRole",
      "outputs": [
        {
          "internalType": "bool",
          "name": "",
          "type": "bool"
        }
      ],
      "stateMutability": "view",
      "type": "function"
    },
    {
      "inputs": [
        {
          "internalType": "string",
          "name": "mineralId",
          "type": "string"
        },
        {
          "internalType": "string",
          "name": "report",
          "type": "string"
        }
      ],
      "name": "inspectMineral",
      "outputs": [],
      "stateMutability": "nonpayable",
      "type": "function"
    },
    {
      "inputs": [
        {
          "internalType": "string",
          "name": "mineralId",
          "type": "string"
        }
      ],
      "name": "isMineralRegistered",
      "outputs": [
        {
          "internalType": "bool",
          "name": "",
          "type": "bool"
        }
      ],
      "stateMutability": "nonpayable",
      "type": "function"
    },
    {
      "inputs": [
        {
          "internalType": "string",
          "name": "",
          "type": "string"
        }
      ],
      "name": "mineralDetails",
      "outputs": [
        {
          "internalType": "string",
          "name": "id",
          "type": "string"
        },
        {
          "internalType": "string",
          "name": "name",
          "type": "string"
        },
        {
          "internalType": "string",
          "name": "origin",
          "type": "string"
        },
        {
          "internalType": "string",
          "name": "mineralType",
          "type": "string"
        },
        {
          "internalType": "uint256",
          "name": "weight",
          "type": "uint256"
        },
        {
          "internalType": "uint256",
          "name": "purityPercentage",
          "type": "uint256"
        },
        {
          "internalType": "string",
          "name": "storageConditions",
          "type": "string"
        },
        {
          "internalType": "address",
          "name": "registeredBy",
          "type": "address"
        },
        {
          "internalType": "string",
          "name": "currentStatus",
          "type": "string"
        },
        {
          "internalType": "string",
          "name": "currentLocation",
          "type": "string"
        },
        {
          "internalType": "address",
          "name": "currentHandler",
          "type": "address"
        },
        {
          "internalType": "bool",
          "name": "isPurchased",
          "type": "bool"
        },
        {
          "internalType": "bool",
          "name": "isRefined",
          "type": "bool"
        },
        {
          "internalType": "bool",
          "name": "isAudited",
          "type": "bool"
        },
        {
          "internalType": "bool",
          "name": "isInspected",
          "type": "bool"
        },
        {
          "internalType": "uint256",
          "name": "timestamp",
          "type": "uint256"
        }
      ],
      "stateMutability": "view",
      "type": "function"
    },
    {
      "inputs": [
        {
          "internalType": "string",
          "name": "",
          "type": "string"
        },
        {
          "internalType": "uint256",
          "name": "",
          "type": "uint256"
        }
      ],
      "name": "mineralHistories",
      "outputs": [
        {
          "internalType": "string",
          "name": "id",
          "type": "string"
        },
        {
          "internalType": "string",
          "name": "fieldChanged",
          "type": "string"
        },
        {
          "internalType": "string",
          "name": "newValue",
          "type": "string"
        },
        {
          "internalType": "address",
          "name": "updatedBy",
          "type": "address"
        },
        {
          "internalType": "uint256",
          "name": "timestamp",
          "type": "uint256"
        }
      ],
      "stateMutability": "view",
      "type": "function"
    },
    {
      "inputs": [
        {
          "internalType": "string",
          "name": "mineralId",
          "type": "string"
        }
      ],
      "name": "purchaseMineral",
      "outputs": [],
      "stateMutability": "nonpayable",
      "type": "function"
    },
    {
      "inputs": [
        {
          "internalType": "address",
          "name": "actor",
          "type": "address"
        },
        {
          "internalType": "string",
          "name": "operationType",
          "type": "string"
        },
        {
          "internalType": "string",
          "name": "mineralId",
          "type": "string"
        }
      ],
      "name": "recordOperation",
      "outputs": [],
      "stateMutability": "nonpayable",
      "type": "function"
    },
    {
      "inputs": [
        {
          "internalType": "address",
          "name": "receiver",
          "type": "address"
        },
        {
          "internalType": "string",
          "name": "mineralId",
          "type": "string"
        },
        {
          "internalType": "string",
          "name": "transactionType",
          "type": "string"
        }
      ],
      "name": "recordTransaction",
      "outputs": [],
      "stateMutability": "nonpayable",
      "type": "function"
    },
    {
      "inputs": [
        {
          "internalType": "string",
          "name": "mineralId",
          "type": "string"
        },
        {
          "internalType": "string",
          "name": "report",
          "type": "string"
        }
      ],
      "name": "refineMineral",
      "outputs": [],
      "stateMutability": "nonpayable",
      "type": "function"
    },
    {
      "inputs": [
        {
          "internalType": "string",
          "name": "_name",
          "type": "string"
        },
        {
          "internalType": "string",
          "name": "_mineralType",
          "type": "string"
        },
        {
          "internalType": "uint256",
          "name": "_weight",
          "type": "uint256"
        },
        {
          "internalType": "string",
          "name": "_origin",
          "type": "string"
        },
        {
          "internalType": "uint256",
          "name": "_purityPercentage",
          "type": "uint256"
        },
        {
          "internalType": "string",
          "name": "_storageConditions",
          "type": "string"
        }
      ],
      "name": "registerMineral",
      "outputs": [
        {
          "internalType": "string",
          "name": "",
          "type": "string"
        }
      ],
      "stateMutability": "nonpayable",
      "type": "function"
    },
    {
      "inputs": [
        {
          "internalType": "bytes32",
          "name": "role",
          "type": "bytes32"
        },
        {
          "internalType": "address",
          "name": "callerConfirmation",
          "type": "address"
        }
      ],
      "name": "renounceRole",
      "outputs": [],
      "stateMutability": "nonpayable",
      "type": "function"
    },
    {
      "inputs": [
        {
          "internalType": "address",
          "name": "account",
          "type": "address"
        },
        {
          "internalType": "string",
          "name": "reason",
          "type": "string"
        }
      ],
      "name": "revokeAuditor",
      "outputs": [],
      "stateMutability": "nonpayable",
      "type": "function"
    },
    {
      "inputs": [
        {
          "internalType": "address",
          "name": "account",
          "type": "address"
        },
        {
          "internalType": "string",
          "name": "reason",
          "type": "string"
        }
      ],
      "name": "revokeBuyer",
      "outputs": [],
      "stateMutability": "nonpayable",
      "type": "function"
    },
    {
      "inputs": [
        {
          "internalType": "address",
          "name": "account",
          "type": "address"
        },
        {
          "internalType": "string",
          "name": "reason",
          "type": "string"
        }
      ],
      "name": "revokeInspector",
      "outputs": [],
      "stateMutability": "nonpayable",
      "type": "function"
    },
    {
      "inputs": [
        {
          "internalType": "address",
          "name": "account",
          "type": "address"
        },
        {
          "internalType": "string",
          "name": "reason",
          "type": "string"
        }
      ],
      "name": "revokeMiner",
      "outputs": [],
      "stateMutability": "nonpayable",
      "type": "function"
    },
    {
      "inputs": [
        {
          "internalType": "address",
          "name": "account",
          "type": "address"
        },
        {
          "internalType": "string",
          "name": "reason",
          "type": "string"
        }
      ],
      "name": "revokeRefiner",
      "outputs": [],
      "stateMutability": "nonpayable",
      "type": "function"
    },
    {
      "inputs": [
        {
          "internalType": "bytes32",
          "name": "role",
          "type": "bytes32"
        },
        {
          "internalType": "address",
          "name": "account",
          "type": "address"
        }
      ],
      "name": "revokeRole",
      "outputs": [],
      "stateMutability": "nonpayable",
      "type": "function"
    },
    {
      "inputs": [
        {
          "internalType": "address",
          "name": "account",
          "type": "address"
        },
        {
          "internalType": "string",
          "name": "reason",
          "type": "string"
        }
      ],
      "name": "revokeTransporter",
      "outputs": [],
      "stateMutability": "nonpayable",
      "type": "function"
    },
    {
      "inputs": [
        {
          "internalType": "bytes32",
          "name": "",
          "type": "bytes32"
        }
      ],
      "name": "roleMemberCount",
      "outputs": [
        {
          "internalType": "uint256",
          "name": "",
          "type": "uint256"
        }
      ],
      "stateMutability": "view",
      "type": "function"
    },
    {
      "inputs": [
        {
          "internalType": "bytes4",
          "name": "interfaceId",
          "type": "bytes4"
        }
      ],
      "name": "supportsInterface",
      "outputs": [
        {
          "internalType": "bool",
          "name": "",
          "type": "bool"
        }
      ],
      "stateMutability": "view",
      "type": "function"
    },
    {
      "inputs": [
        {
          "internalType": "string",
          "name": "mineralId",
          "type": "string"
        },
        {
          "internalType": "address",
          "name": "_receivingParty",
          "type": "address"
        },
        {
          "internalType": "string",
          "name": "_origin",
          "type": "string"
        },
        {
          "internalType": "string",
          "name": "_destination",
          "type": "string"
        }
      ],
      "name": "transferMineral",
      "outputs": [],
      "stateMutability": "nonpayable",
      "type": "function"
    }
  ],
  "bytecode": "0x604060808152346200035b5743420180421162000345576001908155620000263362000360565b506000808052600490602091808352848220805490600019918281146200031f5786019055828052818452848684205585514281527f458ea7e03b3466b3cf9bc2d66ddea8b11fe9469982816f42666888e6c8c6e664853392a26200008b33620003e0565b507fa952726ef2588ad078edf35b066f7c7406e207cb0003bbaba8cb53eba9553e7280845282855286842080548381146200033257870190558352818452848684205585514281527f593f046317558c2857b92915c62c99f2d2108f7bc6f1e1b3c5376cd559abf559853392a2620001033362000482565b507f59a1c48e5837ad7a7f3dcedcbe129bf3249ec4fbf651fd4f5e2600ead39fe2f580845282855286842080548381146200033257870190558352818452848684205585514281527f4a02edd19f09212e54b2ac85d7d3a4a2e3fbf424e6710c3f817d9b4cecc9cdb3853392a26200017b336200051f565b5060008051602062005cce83398151915280845282855286842080548381146200033257870190558352818452848684205585514281527f49cc27c2a068c01cf703c3923dfc679109b5f6c27bd1f61b542c159e3a73e092853392a2620001e233620005ab565b5060008051602062005cee83398151915280845282855286842080548381146200033257870190558352818452848684205585514281527ff8ed9ac482b0f7c12999b3f157f758f84e39cd339fa301ea203823ac29e97505853392a2620002493362000637565b5060008051602062005d0e83398151915280845282855286842080548381146200033257870190558352818452848684205585514281527f4e3eede475de92d3e23765b737dbb67646352b3328c1a437d7f089766d7be751853392a2620002b033620006c3565b5060008051602062005cae833981519152908184528285528684209081549081146200031f578601905582528252839020829055825142815233917f964e50cb3bdb84c00a30f56ae15d538d23dc6db14f891d7d819761b161e990a691a26008555161553e9081620007508239f35b634e487b7160e01b855260118452602485fd5b634e487b7160e01b865260118552602486fd5b634e487b7160e01b600052601160045260246000fd5b600080fd5b6001600160a01b031660008181527fad3228b676f7d3cd4284a5443f17f1962b36e491b30a40b2405849e597ba5fb5602052604081205490919060ff16620003dc57818052816020526040822081835260205260408220600160ff19825416179055339160008051602062005c8e8339815191528180a4600190565b5090565b6001600160a01b031660008181527fbb3fcc25fbffa12ea463b3505377899a4d5ddb4858b9c7bd36764686d9425b3660205260408120549091907fa952726ef2588ad078edf35b066f7c7406e207cb0003bbaba8cb53eba9553e729060ff166200047d57808352826020526040832082845260205260408320600160ff1982541617905560008051602062005c8e833981519152339380a4600190565b505090565b6001600160a01b031660008181527f0d2d6a5d08cb5d871289c0a3ca855d9da72909a111c24cce2d5c2b34a20daa5460205260408120549091907f59a1c48e5837ad7a7f3dcedcbe129bf3249ec4fbf651fd4f5e2600ead39fe2f59060ff166200047d57808352826020526040832082845260205260408320600160ff1982541617905560008051602062005c8e833981519152339380a4600190565b6001600160a01b031660008181527facfff8a39fb957d9d1c8e3ef9f08385e3fcf7bb23ab7ba0ad0f8df93dbde6a68602052604081205490919060008051602062005cce8339815191529060ff166200047d57808352826020526040832082845260205260408320600160ff1982541617905560008051602062005c8e833981519152339380a4600190565b6001600160a01b031660008181527ff3fa603c74bfe2a4719960e47343678c3dc690d2b27a2295acc6fc430833aaf9602052604081205490919060008051602062005cee8339815191529060ff166200047d57808352826020526040832082845260205260408320600160ff1982541617905560008051602062005c8e833981519152339380a4600190565b6001600160a01b031660008181527f4130a4caca6023b0ba21488ee680ce5c3df22860b1cd8b02cd2a0bcb0de98851602052604081205490919060008051602062005d0e8339815191529060ff166200047d57808352826020526040832082845260205260408320600160ff1982541617905560008051602062005c8e833981519152339380a4600190565b6001600160a01b031660008181527fbce5fd3347e0dc338dcc0e895534dd4af2740eec95f56cd4ca4b4b2ada357ca0602052604081205490919060008051602062005cae8339815191529060ff166200047d57808352826020526040832082845260205260408320600160ff1982541617905560008051602062005c8e833981519152339380a460019056fe608080604052600436101561001357600080fd5b60003560e01c90816301ffc9a714614614575080630958fc2d1461455a5780630dacad2e146144a0578063126ee3381461416b578063202e392414614076578063248a9ca3146140475780632f2ff15d14614008578063309514df14613f8d57806333ea3dc814613ea85780633499c3a214613e5857806335ba620714613d5257806336568abe14613d0b5780633a7adea514612b18578063480d1dd314612a5e5780634ca85d34146125e15780634e2a3109146124e85780634eabbe77146124bf5780635aee1b151461229c5780636377741d146121e25780636394f6e6146121b95780636e1d616e1461219057806370e22e421461214057806375a2b0d414611f6c57806379451cd714611f435780637a01a1da14611f1a5780637ae9c16014611e9f5780637cde2b9914611da65780637f3c990814611b2b578063826fe0f51461190657806383c4865c1461143c5780638850845f146113ec57806391d148541461139f57806399691194146112a15780639b188dd614611226578063a217fddf1461120a578063a917601b14611150578063abaa536f14611100578063ac851dfd1461102e578063b6ba1ca714611002578063b9c5b83314610edd578063beae461514610e8d578063c395fcb314610e3d578063ca15c87314610d53578063cc82b09014610c87578063d547741f14610c46578063dd1033f814610c28578063de7ce39114610bd8578063df422bf2146106b1578063e3a3c52214610688578063e438fdf81461060d578063f17f352314610405578063f5716a851461034d5763fc1032eb1461026657600080fd5b3461034857610274366147be565b61027c614ae3565b61028582614a37565b156103365761030d7f93e936184fad9f80c7000aa987f91be0cd621bacde11839fdc7139f3d9c2407b916000805160206154898339815191528060005260006020526102d8600160406000200154614b29565b6102e1856150ce565b5060005260046020526040600020805480610324575b5050604051918291604083526040830190614799565b4260208301526001600160a01b03909416930390a2005b61032d906151e3565b905538806102f7565b604051632ac1560560e21b8152600490fd5b600080fd5b346103485761035b366147be565b610363614ae3565b61036c82614a62565b156103365761030d7f4614600adaea632b1e4c381ad24471dab7b587dca104c8dd4da76bc64f19716f916000805160206154a98339815191528060005260006020526103bf600160406000200154614b29565b6103c885615059565b50600052600460205260406000208054806103f3575050604051918291604083526040830190614799565b6103fc906151e3565b905584806102f7565b34610348576080366003190112610348576001600160401b0360043581811161034857610436903690600401614720565b9061043f61467d565b9060443581811161034857610458903690600401614720565b9060643590811161034857610471903690600401614720565b906000805160206153a983398151915260005260209260008452604060002033600052845260ff60406000205416156105f5576001600160a01b031680156105e3578151156105d1578251156105bf57604051600160ff600a8851938881818c01966104de81838a614776565b81016002815203019020015460a01c16151514610599579361058a939261057c92600a610539847f55b00b3c29344a545244b18d70b135e423405427088bd5425f13d690b82310b4998b604051938492839251928391614776565b8101600281520301902001336001600160601b0360a01b82541617905561056b6040519860a08a5260a08a0190614799565b928801528682036040880152614799565b908482036060860152614799565b914260808201528033930390a2005b604051632072bb0160e11b815260048101869052806105bb6024820189614799565b0390fd5b604051635dbef47560e01b8152600490fd5b6040516326813e6f60e01b8152600490fd5b60405163bea3fd2f60e01b8152600490fd5b604051630568555f60e41b8152336004820152602490fd5b346103485761061b366147be565b610623614ae3565b61062c82614ab8565b156103365761030d7f352e14c53d161e2481e65145b53265d1608f979a93a06df66d4c99b2a84ddc63916000805160206153c983398151915280600052600060205261067f600160406000200154614b29565b6103c885614fe4565b346103485760003660031901126103485760206040516000805160206153c98339815191528152f35b3461034857602080600319360112610348576001600160a01b036106d3614667565b168015610bc6576000906000805260008352604060002081600052835260ff8060406000205416610bbd575b60008051602061546983398151915291826000526000855260406000208160005285528160406000205416610bad575b6000805160206154a9833981519152806000526000865260406000208260005286528260406000205416610b9d575b6000805160206153a9833981519152806000526000875260406000208360005287528360406000205416610b8d575b600080516020615489833981519152806000526000885260406000208460005288528460406000205416610b7d575b6000805160206153c983398151915291826000526000895260406000208560005289528560406000205416610b6d575b600080516020615449833981519152938460005260008a526040600020866000528a528660406000205416610b5d575b610825896151f0565b986108336040519a8b6146ff565b808a52610842601f19916151f0565b018a8a60005b838110610b4c57505050506000976000805260008b526040600020876000528b528760406000205416610b11575b60005260008a526040600020866000528a528660406000205416610ad4575b6000526000895260406000208560005289528560406000205416610a95575b6000526000885260406000208460005288528460406000205416610a52575b6000526000875260406000208360005287528360406000205416610a13575b60005260008652604060002082600052865282604060002054166109d2575b6000526000855260406000209060005284526040600020541661098f575b506040519082820192808352815180945260408301938160408260051b8601019301916000955b8287106109635785850386f35b90919293828061097f600193603f198a82030186528851614799565b9601920196019592919092610956565b6109cb9060405161099f816146e4565b6005815264212aaca2a960d91b858201526109ba8285615214565b526109c58184615214565b506151d4565b508261092f565b92610a0d906040516109e3816146e4565b600981526824a729a822a1aa27a960b91b88820152610a028288615214565b526109c58187615214565b92610911565b93610a4c90604051610a24816146e4565b600781526620aaa224aa27a960c91b89820152610a418289615214565b526109c58188615214565b936108f2565b94610a8f90604051610a63816146e4565b600b81526a2a2920a729a827a92a22a960a91b8a820152610a84828a615214565b526109c58189615214565b946108d3565b95610ace90604051610aa6816146e4565b60078152662922a324a722a960c91b8b820152610ac3828b615214565b526109c5818a615214565b956108b4565b96610b0b90604051610ae5816146e4565b600581526426a4a722a960d91b8c820152610b00828c615214565b526109c5818b615214565b96610895565b9750604051610b1f816146e4565b600581526420a226a4a760d91b8b820152610b398a615207565b52610b4389615207565b50600197610876565b606083828194010152018b90610848565b97610b67906151d4565b9761081c565b96610b77906151d4565b966107ec565b95610b87906151d4565b956107bc565b94610b97906151d4565b9461078d565b93610ba7906151d4565b9361075e565b92610bb7906151d4565b9261072f565b600192506106ff565b60405163200db56f60e11b8152600490fd5b3461034857602036600319011261034857610bf1614667565b6001600160a01b03166000908152600080516020615429833981519152602090815260409182902054915160ff9092161515825290f35b34610348576000366003190112610348576020600654604051908152f35b3461034857604036600319011261034857610c85600435610c6561467d565b90806000526000602052610c80600160406000200154614b29565b615143565b005b3461034857602036600319011261034857610ca0614667565b6001600160a01b038116908115610bc657610cb9614ae3565b610cc281614ab8565b610d4157610ccf90614da7565b506000805160206153c983398151915260005260046020527f9d423956391424a558206d539d4c7b96f2596f9d71b6fe92efe1f071a870ba948054610d13906151d4565b90557f49cc27c2a068c01cf703c3923dfc679109b5f6c27bd1f61b542c159e3a73e0926020604051428152a2005b6040516314726de560e21b8152600490fd5b346103485760203660031901126103485760043560008051602061546983398151915281148015610e26575b8015610e0f575b8015610df8575b8015610de1575b8015610dca575b15610db85760005260046020526020604060002054604051908152f35b604051636b9c461160e01b8152600490fd5b506000805160206154498339815191528114610d9b565b506000805160206153c98339815191528114610d94565b506000805160206154898339815191528114610d8d565b506000805160206153a98339815191528114610d86565b506000805160206154a98339815191528114610d7f565b3461034857602036600319011261034857610e56614667565b6001600160a01b031660009081526000805160206154e9833981519152602090815260409182902054915160ff9092161515825290f35b3461034857602036600319011261034857610ea6614667565b6001600160a01b03166000908152600080516020615369833981519152602090815260409182902054915160ff9092161515825290f35b3461034857600036600319011261034857600460209081527f973ccc145476ef147b966a44694f8b2d26bac5a3d44a844fec6be696fe5fea70547f02ff85b9f193a3a7824cbaf5a79db262c0bac955152adf2752c6413d76b2d3c7547f0e08e55c6329ca2d4f38429c472032b4e97537c869a64c376bb7e702721eb8c3547fa792fa383e6bd9c6b4465bbfd8031f4b47377210fa121067c03906e9afac6246547f9d423956391424a558206d539d4c7b96f2596f9d71b6fe92efe1f071a870ba94546000805160206154498339815191526000527f5455ba4b8a75b33fa0f1f7affd9817680912f06b7b194bcf9ac01183c4930020546040805196875296860194909452948401919091526060830152608082019290925260a081019190915260c090f35b346103485760203660031901126103485760043560005260046020526020604060002054604051908152f35b3461034857602080600319360112610348576004356001600160401b0381116103485761105f903690600401614720565b8051156110dd576040516110996110a0835192858181870195611083818389614776565b81016002815203019020604051928380926148b2565b03826146ff565b8381519101209082519020036110ba575060405160018152f35b906105bb6040519283926311bb0bc960e31b845260048401526024830190614799565b906105bb60405192839263f855236d60e01b845260048401526024830190614799565b3461034857602036600319011261034857611119614667565b6001600160a01b03166000908152600080516020615329833981519152602090815260409182902054915160ff9092161515825290f35b3461034857602036600319011261034857611169614667565b6001600160a01b038116908115610bc657611182614ae3565b61118b81614a8d565b610d415761119890614d30565b506000805160206153a983398151915260005260046020527f0e08e55c6329ca2d4f38429c472032b4e97537c869a64c376bb7e702721eb8c380546111dc906151d4565b90557f964e50cb3bdb84c00a30f56ae15d538d23dc6db14f891d7d819761b161e990a66020604051428152a2005b3461034857600036600319011261034857602060405160008152f35b3461034857611234366147be565b61123c614ae3565b61124582614a0c565b156103365761030d7f69e94e373f69f3f945457a07b335722310788af9cd459a33df6f72cc9e96404391600080516020615449833981519152806000526000602052611298600160406000200154614b29565b6103c885614f6f565b34610348576112af3661499e565b336000908152600080516020615389833981519152602090815260409091205491929160ff16156105f557604051600160ff600a8551938581818901966112f781838a614776565b81016002815203019020015460b81c1615151461137c5791600a61134b611377937f3a9eebd240f4c9f631531ebc672c4c040de483b868ccebe8a3a1fdad70cde0d995604051809381928751928391614776565b8101600281520301902001600160b81b60ff60b81b1982541617905560405191829133954291846151a6565b0390a2005b506105bb604051928392636f5f944160e11b845260048401526024830190614799565b34610348576040366003190112610348576113b861467d565b600435600052600060205260406000209060018060a01b0316600052602052602060ff604060002054166040519015158152f35b3461034857602036600319011261034857611405614667565b6001600160a01b03166000908152600080516020615389833981519152602090815260409182902054915160ff9092161515825290f35b346103485761144a36614948565b3360009081526000805160206153e9833981519152602052604090205490919060ff161580156118df575b80156118b8575b8015611891575b801561186a575b6105f5576040516110996114ac83519260208181870195611083818389614776565b60208151910120908251902003611845576001600160a01b039083821615610bc65782511561183357600854916114e2836151d4565b6008556040516114f1816146ae565b8381526020810133815260408201838816815260608301908582524260808501528760a0850152866000526007602052604060002092845184558560018501915116906001600160601b0360a01b9182825416179055856002850192511690825416179055518051906001600160401b038211611758576115756003840154614878565b601f81116117ec575b50602090601f831160011461177957918060a0949260059460009261176e575b50508160011b916000199060031b1c19161760038201555b60808401516004820155019101518051906001600160401b038211611758576115df8354614878565b601f8111611710575b50602090601f831160011461167e57928261166e9361165696937f667d00e0ddf8a4e20e7e21bdde9a71660b36c0d7e1645005cbcac348a11f43cc9896600092611673575b50508160011b916000199060031b1c19161790555b604051938493606085526060850190614799565b97426020850152838903604085015216963396614799565b0390a4005b015190508b8061162d565b90601f198316918460005260206000209260005b8181106116f857509361165696937f667d00e0ddf8a4e20e7e21bdde9a71660b36c0d7e1645005cbcac348a11f43cc9896936001938361166e98106116df575b505050811b019055611642565b015160001960f88460031b161c191690558b80806116d2565b92936020600181928786015181550195019301611692565b836000526020600020601f840160051c8101916020851061174e575b601f0160051c01905b81811061174257506115e8565b60008155600101611735565b909150819061172c565b634e487b7160e01b600052604160045260246000fd5b015190508b8061159e565b90601f198316916003850160005260206000209260005b8181106117d4575092600192859260059660a09896106117bb575b505050811b0160038201556115b6565b015160001960f88460031b161c191690558b80806117ab565b92936020600181928786015181550195019301611790565b600384016000526020600020601f840160051c81016020851061182c575b601f830160051c8201811061182057505061157e565b6000815560010161180a565b508061180a565b60405163667bdb3960e01b8152600490fd5b604051631a599d5b60e01b8152602060048201529081906105bb906024830190614799565b503360009081526000805160206154e9833981519152602052604090205460ff161561148a565b50336000908152600080516020615389833981519152602052604090205460ff1615611483565b50336000908152600080516020615329833981519152602052604090205460ff161561147c565b50336000908152600080516020615409833981519152602052604090205460ff1615611475565b3461034857602080600319360112610348576004356001600160401b03811161034857611937903690600401614720565b6040519080519061109961196e85830193611953818787614776565b850194868160029788815203019020604051928380926148b2565b8481519101208151908184201490811591611b22575b50611b105782849161199e60405194859251928391614776565b830192828160039586815203019020908154906119ba826151f0565b946119c860405196876146ff565b82865284860191829460005285600020916000935b858510611a8e57604080518981528a51818b01819052600092600582901b83018101918b918d9085015b828710611a145785850386f35b909192938280600192603f19898203018552875190611a63611a51611a41845160a0808652850190614799565b8585015184820387860152614799565b60408401518382036040850152614799565b916060868060a01b038183015116908301526080809101519101529601920196019592919092611a07565b60058860019260409b9a9b51611aa3816146c9565b604051611ab481611099818c6148b2565b8152604051611ac98161109981898d016148b2565b83820152604051611ae081611099818b8d016148b2565b6040820152848060a01b0386890154166060820152600488015460808201528152019401940193929796976119dd565b6040516329d7b10b60e11b8152600490fd5b90501585611984565b3461034857602080600319360112610348576004356001600160401b03811161034857611b5c903690600401614720565b604051908051611099611b7785840192611953818786614776565b8481519101208251822003611d8257600092600192600854935b848110611d2d5750611ba2856151f0565b94611bb060405196876146ff565b808652611bbf601f19916151f0565b018660005b828110611d175750505060009160015b858110611c3957604080518981528851818b01819052600092600582901b83018101918b8d01918d9085015b828710611c0d5785850386f35b909192938280611c29600193603f198a82030186528851614800565b9601920196019592919092611c00565b80600052876007808252600390611099611c5f83604060002001604051928380926148b2565b8381519101208651892014611c80575b505050611c7b906151d4565b611bd4565b916005611cfd859893611d0c95611c7b976000528452611099611cde60406000209260405196611caf886146ae565b8454885260018060a01b039081600187015416908901528b8501541660408801526040519283809286016148b2565b60608501526004810154608085015261109960405180948193016148b2565b60a0820152610ac3828b615214565b939050878980611c6f565b611d1f6152f4565b82828a010152018790611bc4565b8060005260078752611099611d4f6003604060002001604051928380926148b2565b8781519101208251852014611d6d575b611d68906151d4565b611b91565b94611d7a611d68916151d4565b959050611d5f565b50826105bb604051928392631a599d5b60e01b845260048401526024830190614799565b3461034857611db43661499e565b336000908152600080516020615429833981519152602090815260409091205491929160ff16156105f557604051600160ff600a855193858181890196611dfc81838a614776565b81016002815203019020015460a81c16151514611e7c5791600a611e50611377937fa214f45af6d86b0d5ff7bb48f888cf4205e4a383da35fcbebfdbd9bd8e6d5a7c95604051809381928751928391614776565b8101600281520301902001600160a81b60ff60a81b1982541617905560405191829133954291846151a6565b506105bb60405192839263701203b760e01b845260048401526024830190614799565b3461034857611ead366147be565b611eb5614ae3565b611ebe82614a8d565b156103365761030d7f71577b91708c73ee54b43c6709958ff42e4bcc084910648ce7c3d16928b51d52916000805160206153a9833981519152806000526000602052611f11600160406000200154614b29565b6103c885614efa565b346103485760003660031901126103485760206040516000805160206154498339815191528152f35b346103485760003660031901126103485760206040516000805160206154a98339815191528152f35b3461034857602080600319360112610348576004356001600160401b03811161034857611f9d903690600401614720565b906000805260008152604060002033600052815260ff60406000205416156105f557604051611099611fdc845192848181880195611083818389614776565b8281519101208351908183201490811591612137575b50611b105760ff600a6040518481875161200d818389614776565b81016002815203019020015460b01c168061210b575b156120e8579060ff600a6120c983604096958751606081527f10f4ba4c7bb6f0c442f54585004a6e24440bea5c2d2e6f36b688e3e624762e22612069606083018a614799565b916b54726164696e67526561647960a01b85828503948582850152600c81520152428b8201528a33930190a28484895184818b516120a8818389614776565b81016002815203019020015460b01c16968851938492839251928391614776565b81016002815203019020015460b81c1683519215158352151590820152f35b506105bb6040519283926348cddbdb60e11b845260048401526024830190614799565b5060ff600a60405184818751612122818389614776565b81016002815203019020015460b81c16612023565b90501584611ff2565b3461034857602036600319011261034857612159614667565b6001600160a01b03166000908152600080516020615409833981519152602090815260409182902054915160ff9092161515825290f35b346103485760003660031901126103485760206040516000805160206154898339815191528152f35b346103485760003660031901126103485760206040516000805160206154698339815191528152f35b34610348576020366003190112610348576121fb614667565b6001600160a01b038116908115610bc657612214614ae3565b61221d81614a62565b610d415761222a90614cb9565b506000805160206154a983398151915260005260046020527f02ff85b9f193a3a7824cbaf5a79db262c0bac955152adf2752c6413d76b2d3c7805461226e906151d4565b90557f4e3eede475de92d3e23765b737dbb67646352b3328c1a437d7f089766d7be7516020604051428152a2005b34610348576020366003190112610348576004356001600160401b038111610348576122cc903690600401614720565b60405181818093516020819301916122e392614776565b810160028152036020019020604051806122fd81846148b2565b0361230890826146ff565b604051918261231a81600184016148b2565b0361232590846146ff565b6040518061233681600285016148b2565b0361234190826146ff565b604051918261235381600384016148b2565b0361235e90846146ff565b6004810154600582015460405194918561237b81600687016148b2565b0361238690876146ff565b60078401546040516001600160a01b03979093918816929091846123ad8160088a016148b2565b036123b890866146ff565b60405195866123ca8160098b016148b2565b036123d590886146ff565b600a88015497600b0154986040519c8d9c8d61020090818152016123f891614799565b8d810360208f015261240991614799565b8c810360408e015261241a91614799565b8b810360608d015261242b91614799565b9160808b015260a08a015288810360c08a015261244791614799565b9060e088015286810361010088015261245f91614799565b85810361012087015261247191614799565b9281166101408501528060a01c60ff1615156101608501528060a81c60ff1615156101808501528060b01c60ff1615156101a085015260b81c60ff1615156101c08401526101e08301520390f35b346103485760003660031901126103485760206040516000805160206153a98339815191528152f35b34610348576124f63661499e565b336000908152600080516020615329833981519152602090815260409091205491929160ff16156105f557604051600160ff600a85519385818189019661253e81838a614776565b81016002815203019020015460b01c161515146125be5791600a612592611377937fa9de1934279a83f8cfaaecf6a7002ac10aeaea244c8c763f3752f3fc4c3e631d95604051809381928751928391614776565b8101600281520301902001600160b01b60ff60b01b1982541617905560405191829133954291846151a6565b506105bb60405192839263c817400d60e01b845260048401526024830190614799565b34610348576125ef36614948565b3360009081526000805160206153e983398151915260205260409020549192909160ff16158015612a37575b8015612a10575b80156129e9575b80156129c2575b6105f5576001600160a01b039080821615610bc65760405161109961266385519260208181890195611083818389614776565b602081519101209084519020036129a057835115611833576040519361268885614693565b828216855260208501818152846040870152426060870152600654600160401b811015611758578060016126bf92016006556152ba565b91909161298a57865182546001600160a01b031916908616178255518051906001600160401b0382116117585781906126fb6001850154614878565b601f8111612937575b50602090601f83116001146128ca576000926128bf575b50508160011b916000199060031b1c19161760018201555b60408601519586516001600160401b038111611758576127566002840154614878565b601f8111612874575b506020601f82116001146127dc57611377949392826003936060937f5976419bf023a4ba12e577104a97a5d64339aa8d4c781c4e3b82653b052d67119b9c6000926127d1575b50508160011b9160001990861b1c19161760028501555b015191015560405193849316954291846151a6565b015190508c806127a5565b601f198216986002850160005260206000209960005b81811061285c5750837f5976419bf023a4ba12e577104a97a5d64339aa8d4c781c4e3b82653b052d67119a9b6060946113779998979460039760019510612844575b505050811b0160028501556127bc565b015160001983881b60f8161c191690558c8080612834565b838301518c556001909b019a602093840193016127f2565b600284016000526020600020601f830160051c810191602084106128b5575b601f0160051c01905b8181106128a9575061275f565b6000815560010161289c565b9091508190612893565b01519050888061271b565b600185016000908152602081209350601f198516905b81811061291f5750908460019594939210612906575b505050811b016001820155612733565b015160001960f88460031b161c191690558880806128f6565b929360206001819287860151815501950193016128e0565b909150600184016000526020600020601f840160051c810160208510612983575b90849392915b601f830160051c82018110612974575050612704565b6000815585945060010161295e565b5080612958565b634e487b7160e01b600052600060045260246000fd5b604051631a599d5b60e01b815260206004820152806105bb6024820186614799565b503360009081526000805160206154e9833981519152602052604090205460ff1615612630565b50336000908152600080516020615389833981519152602052604090205460ff1615612629565b50336000908152600080516020615329833981519152602052604090205460ff1615612622565b50336000908152600080516020615409833981519152602052604090205460ff161561261b565b3461034857602036600319011261034857612a77614667565b6001600160a01b038116908115610bc657612a90614ae3565b612a9981614a37565b610d4157612aa690614c42565b5060008051602061548983398151915260005260046020527fa792fa383e6bd9c6b4465bbfd8031f4b47377210fa121067c03906e9afac62468054612aea906151d4565b90557f4a02edd19f09212e54b2ac85d7d3a4a2e3fbf424e6710c3f817d9b4cecc9cdb36020604051428152a2005b346103485760c0366003190112610348576004356001600160401b03811161034857612b48903690600401614720565b6024356001600160401b03811161034857612b67903690600401614720565b906064356001600160401b03811161034857612b87903690600401614720565b9060a4356001600160401b03811161034857612ba7903690600401614720565b3360009081526000805160206153e9833981519152602052604090205490929060ff16156105f557815115613cf9578051156105d157835115613ce75760443515613cd557608435158015613cc9575b613cb75760506084351115613c9d57825115613c8b57600154612c19816151d4565b600155604051612c6160748260208101946020612c3c8b88815193849201614776565b8201903360601b602083015242603483015260548201520360548101845201826146ff565b5190209260405193612c72856146e4565b600a855260203681870137845115613c755760306020860153845160011015613c75576078602186015360005b60048110613be2575050612cf4602160405180968851612cc6816020850160208d01614776565b8201602d60f81b6020820152612ce58251809360208785019101614776565b010360018101875201856146ff565b60405190816102008101106001600160401b0361020084011117611758576102008201604052848252836020830152826040830152856060830152604435608083015260843560a083015260c08201523360e0820152604051612d56816146e4565b600381526252617760e81b6020820152610100820152604051612d78816146e4565b600d81526c26b4b734b7339021b2b73a32b960991b6020820152610120820152336101408201526000610160820152600061018082015260006101a082015260006101c0820152426101e08201526040516020818651612ddb8183858b01614776565b810160028152030190209080518051906001600160401b038211611758578190612e058554614878565b601f8111613b92575b50602090601f8311600114613b2657600092613b1b575b50508160011b916000199060031b1c19161782555b60208101518051906001600160401b038211611758578190612e5f6001860154614878565b601f8111613ac8575b50602090601f8311600114613a5657600092613a4b575b50508160011b916000199060031b1c19161760018301555b60408101518051906001600160401b038211611758578190612ebc6002860154614878565b601f81116139f8575b50602090601f83116001146139865760009261397b575b50508160011b916000199060031b1c19161760028301555b60608101518051906001600160401b038211611758578190612f196003860154614878565b601f8111613928575b50602090601f83116001146138b6576000926138ab575b50508160011b916000199060031b1c19161760038301555b6080810151600483015560a0810151600583015560c08101518051906001600160401b038211611758578190612f8a6006860154614878565b601f8111613858575b50602090601f83116001146137e6576000926137db575b50508160011b916000199060031b1c19161760068301555b60e08101516007830180546001600160a01b0319166001600160a01b03929092169190911790556101008101518051906001600160401b03821161175857819061300f6008860154614878565b601f8111613788575b50602090601f83116001146137165760009261370b575b50508160011b916000199060031b1c19161760088301555b6101208101518051906001600160401b0382116117585761306b6009850154614878565b601f81116136c4575b50602090601f831160011461364e579180600b94926101e094600092613643575b50508160011b916000199060031b1c19161760098501555b600a840160018060a01b036101408301511681549060ff60a01b610160850151151560a01b1660ff60a81b610180860151151560a81b169060ff60b01b6101a0870151151560b01b169260ff60b81b6101c0880151151560b81b16946001600160401b0360c01b1617171717179055015191015560405160208185516131368183858a01614776565b81016003815203019020936040519467027b934b3b4b71d160c51b602087015261317e602887855161316e8184840160208a01614776565b81010360088101895201876146ff565b6040519561318b876146c9565b85875260405161319a816146e4565b600a815269149959da5cdd195c995960b21b6020820152602088015260408701523360608701524260808701528054600160401b811015611758576131e49160018201815561485c565b61298a5785518051906001600160401b0382116117585781906132078454614878565b601f81116135f3575b50602090601f83116001146135875760009261357c575b50508160011b916000199060031b1c19161781555b60208601518051906001600160401b0382116117585781906132616001850154614878565b601f8111613529575b50602090601f83116001146134b7576000926134ac575b50508160011b916000199060031b1c19161760018201555b60408601519586516001600160401b038111611758576132bc6002840154614878565b601f8111613465575b506020601f82116001146133c457926004608061057c948461338498957f73c819068ba25b88a32cb91f9b552ab50d9cccb7c4abdeb2a04f44373b7153939a986133b59e6000926133b9575b50508160011b916000199060031b1c19161760028501555b6003840160018060a01b036060830151166001600160601b0360a01b82541617905501519101556133766040519660e0885261336860e089018a614799565b9088820360208a0152614799565b908682036040880152614799565b91604435608082015260843560a08201524260c08201528033930390a2604051918291602083526020830190614799565b0390f35b015190508e80613311565b6002840160005260206000209860005b601f198416811061344d5750608061057c946001856133b59d7f73c819068ba25b88a32cb91f9b552ab50d9cccb7c4abdeb2a04f44373b7153939b99966004966133849c99601f19811610613434575b505050811b016002850155613329565b015160001960f88460031b161c191690558e8080613424565b828201518b556001909a0199602092830192016133d4565b600284016000526020600020601f830160051c8101602084106134a5575b601f830160051c820181106134995750506132c5565b60008155600101613483565b5080613483565b015190508880613281565b9250600184016000526020600020906000935b601f198416851061350e576001945083601f198116106134f5575b505050811b016001820155613299565b015160001960f88460031b161c191690558880806134e5565b818101518355602094850194600190930192909101906134ca565b909150600184016000526020600020601f840160051c810160208510613575575b90849392915b601f830160051c8201811061356657505061326a565b60008155859450600101613550565b508061354a565b015190508880613227565b9250836000526020600020906000935b601f19841685106135d8576001945083601f198116106135bf575b505050811b01815561323c565b015160001960f88460031b161c191690558880806135b2565b81810151835560209485019460019093019290910190613597565b909150836000526020600020601f840160051c81016020851061363c575b90849392915b601f830160051c8201811061362d575050613210565b60008155859450600101613617565b5080613611565b015190508a80613095565b906009850160005260206000209160005b601f19851681106136ac575092600b94926001926101e09583601f19811610613693575b505050811b0160098501556130ad565b015160001960f88460031b161c191690558a8080613683565b9192602060018192868501518155019401920161365f565b600985016000526020600020601f840160051c810160208510613704575b601f830160051c820181106136f8575050613074565b600081556001016136e2565b50806136e2565b01519050888061302f565b9250600885016000526020600020906000935b601f198416851061376d576001945083601f19811610613754575b505050811b016008830155613047565b015160001960f88460031b161c19169055888080613744565b81810151835560209485019460019093019290910190613729565b909150600885016000526020600020601f840160051c8101602085106137d4575b90849392915b601f830160051c820181106137c5575050613018565b600081558594506001016137af565b50806137a9565b015190508880612faa565b9250600685016000526020600020906000935b601f198416851061383d576001945083601f19811610613824575b505050811b016006830155612fc2565b015160001960f88460031b161c19169055888080613814565b818101518355602094850194600190930192909101906137f9565b909150600685016000526020600020601f840160051c8101602085106138a4575b90849392915b601f830160051c82018110613895575050612f93565b6000815585945060010161387f565b5080613879565b015190508880612f39565b9250600385016000526020600020906000935b601f198416851061390d576001945083601f198116106138f4575b505050811b016003830155612f51565b015160001960f88460031b161c191690558880806138e4565b818101518355602094850194600190930192909101906138c9565b909150600385016000526020600020601f840160051c810160208510613974575b90849392915b601f830160051c82018110613965575050612f22565b6000815585945060010161394f565b5080613949565b015190508880612edc565b9250600285016000526020600020906000935b601f19841685106139dd576001945083601f198116106139c4575b505050811b016002830155612ef4565b015160001960f88460031b161c191690558880806139b4565b81810151835560209485019460019093019290910190613999565b909150600285016000526020600020601f840160051c810160208510613a44575b90849392915b601f830160051c82018110613a35575050612ec5565b60008155859450600101613a1f565b5080613a19565b015190508880612e7f565b9250600185016000526020600020906000935b601f1984168510613aad576001945083601f19811610613a94575b505050811b016001830155612e97565b015160001960f88460031b161c19169055888080613a84565b81810151835560209485019460019093019290910190613a69565b909150600185016000526020600020601f840160051c810160208510613b14575b90849392915b601f830160051c82018110613b05575050612e68565b60008155859450600101613aef565b5080613ae9565b015190508880612e25565b9250846000526020600020906000935b601f1984168510613b77576001945083601f19811610613b5e575b505050811b018255612e3a565b015160001960f88460031b161c19169055888080613b51565b81810151835560209485019460019093019290910190613b36565b909150846000526020600020601f840160051c810160208510613bdb575b90849392915b601f830160051c82018110613bcc575050612e0e565b60008155859450600101613bb6565b5080613bb0565b6020811015613c755781811a90600f613bff818460041c16615239565b908260011b936002848604811485151715613c5f57858101809111613c5f57613c2f613c369460001a918c615228565b5316615239565b916003908101809111613c5f57613c54613c5a9360001a9189615228565b536151d4565b612c9f565b634e487b7160e01b600052601160045260246000fd5b634e487b7160e01b600052603260045260246000fd5b60405163bfccc8e960e01b8152600490fd5b60405163d05db01960e01b81526084356004820152602490fd5b604051633abe7db760e21b8152600490fd5b50606460843511612bf7565b60405163fd83f8d960e01b8152600490fd5b60405163a765e58f60e01b8152600490fd5b604051630ac6e45360e31b8152600490fd5b3461034857604036600319011261034857613d2461467d565b336001600160a01b03821603613d4057610c8590600435615143565b60405163334bd91960e11b8152600490fd5b34610348576040366003190112610348576004356001600160401b03811161034857613d82903690600401614720565b613d9e6020602435928160405193828580945193849201614776565b81016003815203019020805482101561034857613e2d91613dbe9161485c565b5060405190613dd882613dd181846148b2565b03836146ff565b604051613dec8161109981600186016148b2565b613e49604051613e038161109981600288016148b2565b613e3b600460018060a01b036003870154169501549360405197889760a0895260a0890190614799565b908782036020890152614799565b908582036040870152614799565b91606084015260808301520390f35b3461034857602036600319011261034857613e71614667565b6001600160a01b031660009081526000805160206153e9833981519152602090815260409182902054915160ff9092161515825290f35b346103485760208060031936011261034857600435613ec56152f4565b50806000526007825280604060002054148015613f85575b613f6d57600052600781526040600020906005613f5460405193613f00856146ae565b8054855260018060a01b0380600183015416858701526002820154166040860152604051613f358161109981600386016148b2565b60608601526004810154608086015261109960405180948193016148b2565b60a08301526133b5604051928284938452830190614800565b602490604051906379b7e1e760e11b82526004820152fd5b508015613edd565b3461034857613f9b366147be565b613fa3614ae3565b613fac826149e1565b156103365761030d7f125f88db22967983b401f70f6804d47f43cb545fcb725d0b335fe7d43d9b4a4a91600080516020615469833981519152806000526000602052613fff600160406000200154614b29565b6103c885614e85565b3461034857604036600319011261034857610c8560043561402761467d565b90806000526000602052614042600160406000200154614b29565b614e1e565b346103485760203660031901126103485760043560005260006020526020600160406000200154604051908152f35b346103485760203660031901126103485760043580158015614160575b614148576140a0906152ba565b506040516140ad81614693565b81546001600160a01b0390811682526040519161413e91906140dd846140d681600189016148b2565b03856146ff565b60208101938452600360405195614102876140fb81600285016148b2565b03886146ff565b8660408401520154606082015251169151926141306040519485948552608060208601526080850190614799565b908382036040850152614799565b4260608301520390f35b60249060405190635afa5bc760e11b82526004820152fd5b506006548111614093565b3461034857602080600319360112610348576004356001600160401b0381116103485761419c903690600401614720565b9060008051602061544983398151915260005260008152604060002033600052815260ff918260406000205416156105f557604051815193838301946141e3818488614776565b8201906001816002938481528588600a97889303019020015460a01c1615151461447e57600080526000855260406000203360005285528060406000205416156105f5576110996142566040518781806142418c8b51928391614776565b810187815203019020604051928380926148b2565b8581519101208451908188201490811591614475575b50611b105780836040518781806142878c8b51928391614776565b810187815203019020015460b01c168061444a575b1561442857604051606081527f10f4ba4c7bb6f0c442f54585004a6e24440bea5c2d2e6f36b688e3e624762e226142d66060830187614799565b916b54726164696e67526561647960a01b88828503948582850152600c81520152426040820152604033930190a2808360405187818061431a8c8b51928391614776565b810187815203019020015460b01c16908360405187818061433f8c8b51928391614776565b810187815203019020015460b81c1681614420575b50156143fe57837ffed1001c142a7ab386454a2f7d78b013ba7ff40595d10c128f2fb6463ccd7b7a94956143c2928460405184818951614395818389614776565b81018581520301902001805460ff60a01b1916600160a01b17905560405186519094859382908590614776565b8201908152030190200180546001600160a01b0319163317905560408051818152916143f091830190614799565b9242908201528033930390a2005b6040516348cddbdb60e11b815260048101859052806105bb6024820186614799565b905086614354565b6040516348cddbdb60e11b815260048101869052806105bb6024820187614799565b5080836040518781806144618c8b51928391614776565b810187815203019020015460b81c1661429c565b9050158761426c565b604051632072bb0160e11b815260048101869052806105bb6024820187614799565b34610348576020366003190112610348576144b9614667565b6001600160a01b038116908115610bc6576144d2614ae3565b6144db81614a0c565b610d41576144e890614bcb565b5060008051602061544983398151915260005260046020527f5455ba4b8a75b33fa0f1f7affd9817680912f06b7b194bcf9ac01183c4930020805461452c906151d4565b90557ff8ed9ac482b0f7c12999b3f157f758f84e39cd339fa301ea203823ac29e975056020604051428152a2005b3461034857602036600319011261034857614573614667565b6001600160a01b038116908115610bc65761458c614ae3565b614595816149e1565b610d41576145a290614b4f565b5060008051602061546983398151915260005260046020527f973ccc145476ef147b966a44694f8b2d26bac5a3d44a844fec6be696fe5fea7080546145e6906151d4565b90557f593f046317558c2857b92915c62c99f2d2108f7bc6f1e1b3c5376cd559abf5596020604051428152a2005b34610348576020366003190112610348576004359063ffffffff60e01b821680920361034857602091637965db0b60e01b8114908115614656575b5015158152f35b6301ffc9a760e01b1490508361464f565b600435906001600160a01b038216820361034857565b602435906001600160a01b038216820361034857565b608081019081106001600160401b0382111761175857604052565b60c081019081106001600160401b0382111761175857604052565b60a081019081106001600160401b0382111761175857604052565b604081019081106001600160401b0382111761175857604052565b90601f801991011681019081106001600160401b0382111761175857604052565b81601f82011215610348578035906001600160401b0382116117585760405192614754601f8401601f1916602001856146ff565b8284526020838301011161034857816000926020809301838601378301015290565b60005b8381106147895750506000910152565b8181015183820152602001614779565b906020916147b281518092818552858086019101614776565b601f01601f1916010190565b906040600319830112610348576004356001600160a01b03811681036103485791602435906001600160401b038211610348576147fd91600401614720565b90565b6147fd918151815260018060a01b03806020840151166020830152604083015116604082015260a0614841606084015160c0606085015260c0840190614799565b926080810151608084015201519060a0818403910152614799565b8054821015613c75576000526005602060002091020190600090565b90600182811c921680156148a8575b602083101461489257565b634e487b7160e01b600052602260045260246000fd5b91607f1691614887565b90600092918054916148c383614878565b91828252600193848116908160001461492557506001146148e5575b50505050565b90919394506000526020928360002092846000945b8386106149115750505050010190388080806148df565b8054858701830152940193859082016148fa565b9294505050602093945060ff191683830152151560051b010190388080806148df565b6060600319820112610348576004356001600160a01b038116810361034857916001600160401b03602435818111610348578361498791600401614720565b92604435918211610348576147fd91600401614720565b906040600319830112610348576001600160401b0360043581811161034857836149ca91600401614720565b92602435918211610348576147fd91600401614720565b6001600160a01b031660009081526000805160206153e9833981519152602052604090205460ff1690565b6001600160a01b03166000908152600080516020615369833981519152602052604090205460ff1690565b6001600160a01b03166000908152600080516020615329833981519152602052604090205460ff1690565b6001600160a01b03166000908152600080516020615429833981519152602052604090205460ff1690565b6001600160a01b03166000908152600080516020615409833981519152602052604090205460ff1690565b6001600160a01b03166000908152600080516020615389833981519152602052604090205460ff1690565b3360009081526000805160206154e9833981519152602052604081205460ff1615614b0b5750565b6044906040519063e2517d3f60e01b82523360048301526024820152fd5b80600052600060205260406000203360005260205260ff6040600020541615614b0b5750565b6001600160a01b031660008181526000805160206153e983398151915260205260408120549091906000805160206154698339815191529060ff16614bc657808352826020526040832082845260205260408320600160ff19825416179055600080516020615349833981519152339380a4600190565b505090565b6001600160a01b0316600081815260008051602061536983398151915260205260408120549091906000805160206154498339815191529060ff16614bc657808352826020526040832082845260205260408320600160ff19825416179055600080516020615349833981519152339380a4600190565b6001600160a01b0316600081815260008051602061532983398151915260205260408120549091906000805160206154898339815191529060ff16614bc657808352826020526040832082845260205260408320600160ff19825416179055600080516020615349833981519152339380a4600190565b6001600160a01b0316600081815260008051602061542983398151915260205260408120549091906000805160206154a98339815191529060ff16614bc657808352826020526040832082845260205260408320600160ff19825416179055600080516020615349833981519152339380a4600190565b6001600160a01b0316600081815260008051602061540983398151915260205260408120549091906000805160206153a98339815191529060ff16614bc657808352826020526040832082845260205260408320600160ff19825416179055600080516020615349833981519152339380a4600190565b6001600160a01b0316600081815260008051602061538983398151915260205260408120549091906000805160206153c98339815191529060ff16614bc657808352826020526040832082845260205260408320600160ff19825416179055600080516020615349833981519152339380a4600190565b9060009180835282602052604083209160018060a01b03169182845260205260ff60408420541615600014614bc657808352826020526040832082845260205260408320600160ff19825416179055600080516020615349833981519152339380a4600190565b6001600160a01b031660008181526000805160206153e983398151915260205260408120549091906000805160206154698339815191529060ff1615614bc65780835282602052604083208284526020526040832060ff1981541690556000805160206154c9833981519152339380a4600190565b6001600160a01b0316600081815260008051602061540983398151915260205260408120549091906000805160206153a98339815191529060ff1615614bc65780835282602052604083208284526020526040832060ff1981541690556000805160206154c9833981519152339380a4600190565b6001600160a01b0316600081815260008051602061536983398151915260205260408120549091906000805160206154498339815191529060ff1615614bc65780835282602052604083208284526020526040832060ff1981541690556000805160206154c9833981519152339380a4600190565b6001600160a01b0316600081815260008051602061538983398151915260205260408120549091906000805160206153c98339815191529060ff1615614bc65780835282602052604083208284526020526040832060ff1981541690556000805160206154c9833981519152339380a4600190565b6001600160a01b0316600081815260008051602061542983398151915260205260408120549091906000805160206154a98339815191529060ff1615614bc65780835282602052604083208284526020526040832060ff1981541690556000805160206154c9833981519152339380a4600190565b6001600160a01b0316600081815260008051602061532983398151915260205260408120549091906000805160206154898339815191529060ff1615614bc65780835282602052604083208284526020526040832060ff1981541690556000805160206154c9833981519152339380a4600190565b9060009180835282602052604083209160018060a01b03169182845260205260ff604084205416600014614bc65780835282602052604083208284526020526040832060ff1981541690556000805160206154c9833981519152339380a4600190565b9392916151cf906151c1604093606088526060880190614799565b908682036020880152614799565b930152565b6000198114613c5f5760010190565b8015613c5f576000190190565b6001600160401b0381116117585760051b60200190565b805115613c755760200190565b8051821015613c755760209160051b010190565b908151811015613c75570160200190565b60009060ff16600a81101561526557603091500160ff8111613c5f5760f81b6001600160f81b03191690565b60610160ff81116152a65760ff6009199116019060ff8211615292575060f81b6001600160f81b03191690565b634e487b7160e01b81526011600452602490fd5b634e487b7160e01b82526011600452602482fd5b600654811015613c7557600660005260021b7ff652222313e28459528d920b65115c16c04f3efc82aaedc97be59f3f377c0d3f0190600090565b60405190615301826146ae565b606060a083600081526000602082015260006040820152828082015260006080820152015256fe0d2d6a5d08cb5d871289c0a3ca855d9da72909a111c24cce2d5c2b34a20daa542f8788117e7eff1d82e926ec794901d17c78024a50270940304540a733656f0df3fa603c74bfe2a4719960e47343678c3dc690d2b27a2295acc6fc430833aaf9acfff8a39fb957d9d1c8e3ef9f08385e3fcf7bb23ab7ba0ad0f8df93dbde6a68ddaa901e2fe3bda354fe0ede2785152d5c109282a613fe024a056a3e66c41bb3273dcf2136c7d8ef632bb8ef13dbca69a8f36fa620c7468671b3153d46a211c0bb3fcc25fbffa12ea463b3505377899a4d5ddb4858b9c7bd36764686d9425b36bce5fd3347e0dc338dcc0e895534dd4af2740eec95f56cd4ca4b4b2ada357ca04130a4caca6023b0ba21488ee680ce5c3df22860b1cd8b02cd2a0bcb0de98851f8cd32ed93fc2f9fc78152a14807c9609af3d99c5fe4dc6b106a801aaddfe90ea952726ef2588ad078edf35b066f7c7406e207cb0003bbaba8cb53eba9553e7259a1c48e5837ad7a7f3dcedcbe129bf3249ec4fbf651fd4f5e2600ead39fe2f5a977e1a3444218ff332edf735c56487bbe59922b15c88777d443eb8b78020f4df6391f5c32d9c69d2a47ea670b442974b53935d1edc7fd64eb21e047a839171bad3228b676f7d3cd4284a5443f17f1962b36e491b30a40b2405849e597ba5fb5a26469706673582212204abad1e6ecd44cc7d14f69db56cddf18f4ff4c3d42211158d4a57f450633beb564736f6c634300081400332f8788117e7eff1d82e926ec794901d17c78024a50270940304540a733656f0dddaa901e2fe3bda354fe0ede2785152d5c109282a613fe024a056a3e66c41bb3273dcf2136c7d8ef632bb8ef13dbca69a8f36fa620c7468671b3153d46a211c0f8cd32ed93fc2f9fc78152a14807c9609af3d99c5fe4dc6b106a801aaddfe90ea977e1a3444218ff332edf735c56487bbe59922b15c88777d443eb8b78020f4d",
  "linkReferences": {},
  "deployedLinkReferences": {}
}