{"contracts/modules/MineralWarehouse.sol":{"MineralWarehouse":{"abi":[{"inputs":[{"internalType":"address","name":"rolesManagerAddress","type":"address"},{"internalType":"address","name":"mineralRegistryAddress","type":"address"}],"stateMutability":"nonpayable","type":"constructor"},{"inputs":[],"name":"AccessControlBadConfirmation","type":"error"},{"inputs":[{"internalType":"address","name":"account","type":"address"},{"internalType":"bytes32","name":"neededRole","type":"bytes32"}],"name":"AccessControlUnauthorizedAccount","type":"error"},{"inputs":[{"internalType":"address","name":"caller","type":"address"},{"internalType":"bytes32","name":"role","type":"bytes32"}],"name":"AddressDoesNotHaveRequiredRole","type":"error"},{"inputs":[{"internalType":"address","name":"caller","type":"address"}],"name":"DisputeResolution__AlreadyVoted","type":"error"},{"inputs":[{"internalType":"uint256","name":"disputeId","type":"uint256"}],"name":"DisputeResolution__DisputeEscalated_UnableToVote","type":"error"},{"inputs":[{"internalType":"uint256","name":"disputeId","type":"uint256"}],"name":"DisputeResolution__DisputeNotEscalated","type":"error"},{"inputs":[{"internalType":"uint256","name":"disputeId","type":"uint256"}],"name":"DisputeResolution__DisputeStatusNotPending","type":"error"},{"inputs":[],"name":"DisputeResolution__DisputeStatusNotPendingOrEscalated","type":"error"},{"inputs":[],"name":"DisputeResolution__InvalidDisputeDefendantAddress","type":"error"},{"inputs":[],"name":"DisputeResolution__InvalidDisputeDetails","type":"error"},{"inputs":[],"name":"DisputeResolution__InvalidDisputeEvidence","type":"error"},{"inputs":[],"name":"DisputeResolution__InvalidDisputeIdOrNotFound","type":"error"},{"inputs":[],"name":"DisputeResolution__InvalidMineralIdOrNotFound","type":"error"},{"inputs":[],"name":"DisputeResolution__InvalidResolutionDetails","type":"error"},{"inputs":[{"internalType":"address","name":"caller","type":"address"}],"name":"DisputeResolution__NotEligibleToVote","type":"error"},{"inputs":[],"name":"DisputeResolution__VotingPeriodStillActive","type":"error"},{"inputs":[{"internalType":"address","name":"token","type":"address"},{"internalType":"uint256","name":"tokenAmount","type":"uint256"}],"name":"ERC20TokenTransferFailed","type":"error"},{"inputs":[{"internalType":"address","name":"caller","type":"address"}],"name":"InsufficientPermissionsToPerformAction","type":"error"},{"inputs":[],"name":"InvalidAccountAddress","type":"error"},{"inputs":[{"internalType":"string","name":"mineralId","type":"string"}],"name":"InvalidMineralIdOrNotFound","type":"error"},{"inputs":[],"name":"InvalidPaymentMethods","type":"error"},{"inputs":[{"internalType":"string","name":"currentStatus","type":"string"},{"internalType":"string","name":"attemptedStatus","type":"string"}],"name":"InvalidTransportStateTransition","type":"error"},{"inputs":[{"internalType":"string","name":"mineralId","type":"string"}],"name":"MineralNotMarketReady","type":"error"},{"inputs":[{"internalType":"string","name":"mineralId","type":"string"}],"name":"MineralNotReadyToTrade","type":"error"},{"inputs":[],"name":"MineralRegistry__InvalidMineralDestination","type":"error"},{"inputs":[],"name":"MineralRegistry__InvalidMineralDetails","type":"error"},{"inputs":[{"internalType":"string","name":"mineralId","type":"string"}],"name":"MineralRegistry__InvalidMineralIdOrNotFound","type":"error"},{"inputs":[],"name":"MineralRegistry__InvalidMineralLocation","type":"error"},{"inputs":[],"name":"MineralRegistry__InvalidMineralName","type":"error"},{"inputs":[],"name":"MineralRegistry__InvalidMineralOrigin","type":"error"},{"inputs":[],"name":"MineralRegistry__InvalidMineralPurityPercentage","type":"error"},{"inputs":[],"name":"MineralRegistry__InvalidMineralStatus","type":"error"},{"inputs":[],"name":"MineralRegistry__InvalidMineralStorageConditions","type":"error"},{"inputs":[],"name":"MineralRegistry__InvalidMineralType","type":"error"},{"inputs":[],"name":"MineralRegistry__InvalidMineralWeight","type":"error"},{"inputs":[],"name":"MineralRegistry__InvalidReceivingPartyAddress","type":"error"},{"inputs":[],"name":"MineralRegistry__MineralAlreadyAudited","type":"error"},{"inputs":[],"name":"MineralRegistry__MineralAlreadyInspected","type":"error"},{"inputs":[],"name":"MineralRegistry__MineralAlreadyPurchased","type":"error"},{"inputs":[],"name":"MineralRegistry__MineralNotAudited","type":"error"},{"inputs":[],"name":"MineralRegistry__MineralNotInspected","type":"error"},{"inputs":[{"internalType":"string","name":"mineralId","type":"string"}],"name":"MineralRegistry__MineralNotRegistered","type":"error"},{"inputs":[],"name":"MineralWarehouse__ETHTransferFailed","type":"error"},{"inputs":[],"name":"MineralWarehouse__IncorrectETHAmount","type":"error"},{"inputs":[],"name":"MineralWarehouse__InvalidMineralPrice","type":"error"},{"inputs":[],"name":"MineralWarehouse__InvalidNumberOfPrices","type":"error"},{"inputs":[{"internalType":"address","name":"tokenAddress","type":"address"}],"name":"MineralWarehouse__InvalidTokenAddress","type":"error"},{"inputs":[],"name":"MineralWarehouse__InvalidTokenPrice","type":"error"},{"inputs":[{"internalType":"string","name":"mineralId","type":"string"}],"name":"MineralWarehouse__MineralAlreadySold","type":"error"},{"inputs":[{"internalType":"string","name":"mineralId","type":"string"}],"name":"MineralWarehouse__MineralNotFoundInWarehouse","type":"error"},{"inputs":[{"internalType":"string","name":"mineralId","type":"string"}],"name":"MineralWarehouse__MineralNotMarketReady","type":"error"},{"inputs":[{"internalType":"string","name":"mineralId","type":"string"}],"name":"MineralWarehouse__MineralNotRefined","type":"error"},{"inputs":[{"internalType":"address","name":"tokenAddress","type":"address"}],"name":"MineralWarehouse__UnacceptedToken","type":"error"},{"inputs":[{"internalType":"address[]","name":"tokenAddresses","type":"address[]"}],"name":"MineralWarehouse__UnacceptedTokens","type":"error"},{"inputs":[{"internalType":"address","name":"seller","type":"address"}],"name":"MineralWarehouse__UnauthorizedSeller","type":"error"},{"inputs":[{"internalType":"string","name":"mineralId","type":"string"},{"internalType":"address","name":"caller","type":"address"}],"name":"NotAssignedTransporter","type":"error"},{"inputs":[],"name":"RolesManager__AccountAlreadyHasRole","type":"error"},{"inputs":[],"name":"RolesManager__AccountDoesNotHaveRole","type":"error"},{"inputs":[],"name":"RolesManager__InvalidAddress","type":"error"},{"inputs":[],"name":"RolesManager__InvalidMineralDestination","type":"error"},{"inputs":[],"name":"RolesManager__InvalidMineralIdOrNotFound","type":"error"},{"inputs":[],"name":"RolesManager__InvalidMineralName","type":"error"},{"inputs":[],"name":"RolesManager__InvalidMineralOrigin","type":"error"},{"inputs":[],"name":"RolesManager__InvalidMineralPurityPercentage","type":"error"},{"inputs":[],"name":"RolesManager__InvalidMineralStorageConditions","type":"error"},{"inputs":[],"name":"RolesManager__InvalidMineralType","type":"error"},{"inputs":[],"name":"RolesManager__InvalidMineralWeight","type":"error"},{"inputs":[],"name":"RolesManager__InvalidReceivingPartyAddress","type":"error"},{"inputs":[],"name":"RolesManager__InvalidRole","type":"error"},{"inputs":[{"internalType":"string","name":"mineralId","type":"string"}],"name":"RolesManager__MineralAlreadyAudited","type":"error"},{"inputs":[{"internalType":"string","name":"mineralId","type":"string"}],"name":"RolesManager__MineralAlreadyInspected","type":"error"},{"inputs":[{"internalType":"string","name":"mineralId","type":"string"}],"name":"RolesManager__MineralAlreadyPurchased","type":"error"},{"inputs":[{"internalType":"string","name":"mineralId","type":"string"}],"name":"RolesManager__MineralAlreadyRefined","type":"error"},{"inputs":[{"internalType":"string","name":"mineralId","type":"string"}],"name":"RolesManager__MineralNotMarketReady","type":"error"},{"inputs":[{"internalType":"uint256","name":"purityPercentage","type":"uint256"}],"name":"RolesManager__MineralPurityPercentageTooLowToRegister","type":"error"},{"inputs":[{"internalType":"address","name":"caller","type":"address"}],"name":"RolesManager__NotTheAssignedBuyer","type":"error"},{"inputs":[{"internalType":"string","name":"mineralId","type":"string"}],"name":"SupplychainValidator__InvalidMineralIdOrNotFound","type":"error"},{"inputs":[],"name":"SupplychainValidator__InvalidMineralOwnershipChain","type":"error"},{"inputs":[],"name":"SupplychainValidator__InvalidMineralTransactionHistory","type":"error"},{"inputs":[{"internalType":"uint256","name":"tokenId","type":"uint256"},{"internalType":"address","name":"caller","type":"address"}],"name":"Tokenization__CallerNotMineralTokenOwner","type":"error"},{"inputs":[{"internalType":"uint256","name":"tokenId","type":"uint256"}],"name":"Tokenization__InvalidTokenId","type":"error"},{"inputs":[{"internalType":"uint256","name":"tokenId","type":"uint256"}],"name":"Tokenization__InvalidTokenIdOrNotFound","type":"error"},{"inputs":[{"internalType":"uint256","name":"tokenId","type":"uint256"}],"name":"Tokenization__TokenAlreadyExists","type":"error"},{"inputs":[{"internalType":"uint256","name":"tokenId","type":"uint256"}],"name":"Tokenization__TokenIsAlreadyMinted","type":"error"},{"inputs":[{"internalType":"uint256","name":"index","type":"uint256"}],"name":"TransactionLog__InvalidOperationIndex","type":"error"},{"inputs":[],"name":"TransactionLog__InvalidOperationType","type":"error"},{"inputs":[{"internalType":"uint256","name":"transactionId","type":"uint256"}],"name":"TransactionLog__InvalidTransactionIdOrNotFound","type":"error"},{"inputs":[{"internalType":"string","name":"mineralId","type":"string"}],"name":"TransportRequestAlreadyExists","type":"error"},{"anonymous":false,"inputs":[{"indexed":true,"internalType":"address","name":"assignee","type":"address"},{"indexed":false,"internalType":"uint256","name":"timestamp","type":"uint256"}],"name":"AdminRoleAssigned","type":"event"},{"anonymous":false,"inputs":[{"indexed":true,"internalType":"address","name":"revokee","type":"address"},{"indexed":false,"internalType":"string","name":"reason","type":"string"},{"indexed":false,"internalType":"uint256","name":"timestamp","type":"uint256"}],"name":"AdminRoleRevoked","type":"event"},{"anonymous":false,"inputs":[{"indexed":true,"internalType":"address","name":"assignee","type":"address"},{"indexed":false,"internalType":"uint256","name":"timestamp","type":"uint256"}],"name":"AuditorRoleAssigned","type":"event"},{"anonymous":false,"inputs":[{"indexed":true,"internalType":"address","name":"revokee","type":"address"},{"indexed":false,"internalType":"string","name":"reason","type":"string"},{"indexed":false,"internalType":"uint256","name":"timestamp","type":"uint256"}],"name":"AuditorRoleRevoked","type":"event"},{"anonymous":false,"inputs":[{"indexed":true,"internalType":"address","name":"assignee","type":"address"},{"indexed":false,"internalType":"uint256","name":"timestamp","type":"uint256"}],"name":"BuyerRoleAssigned","type":"event"},{"anonymous":false,"inputs":[{"indexed":true,"internalType":"address","name":"revokee","type":"address"},{"indexed":false,"internalType":"string","name":"reason","type":"string"},{"indexed":false,"internalType":"uint256","name":"timestamp","type":"uint256"}],"name":"BuyerRoleRevoked","type":"event"},{"anonymous":false,"inputs":[{"indexed":true,"internalType":"address","name":"assignee","type":"address"},{"indexed":false,"internalType":"uint256","name":"timestamp","type":"uint256"}],"name":"InspectorRoleAssigned","type":"event"},{"anonymous":false,"inputs":[{"indexed":true,"internalType":"address","name":"revokee","type":"address"},{"indexed":false,"internalType":"string","name":"reason","type":"string"},{"indexed":false,"internalType":"uint256","name":"timestamp","type":"uint256"}],"name":"InspectorRoleRevoked","type":"event"},{"anonymous":false,"inputs":[{"indexed":true,"internalType":"address","name":"assignee","type":"address"},{"indexed":false,"internalType":"uint256","name":"timestamp","type":"uint256"}],"name":"MinerRoleAssigned","type":"event"},{"anonymous":false,"inputs":[{"indexed":true,"internalType":"address","name":"revokee","type":"address"},{"indexed":false,"internalType":"string","name":"reason","type":"string"},{"indexed":false,"internalType":"uint256","name":"timestamp","type":"uint256"}],"name":"MinerRoleRevoked","type":"event"},{"anonymous":false,"inputs":[{"indexed":false,"internalType":"string","name":"mineralId","type":"string"},{"indexed":false,"internalType":"string","name":"status","type":"string"},{"indexed":true,"internalType":"address","name":"auditor","type":"address"},{"indexed":false,"internalType":"uint256","name":"auditedAt","type":"uint256"}],"name":"MineralAudited","type":"event"},{"anonymous":false,"inputs":[{"indexed":false,"internalType":"string","name":"mineralId","type":"string"},{"indexed":false,"internalType":"string","name":"mineralStatus","type":"string"},{"indexed":true,"internalType":"address","name":"inspector","type":"address"},{"indexed":false,"internalType":"uint256","name":"inspectedAt","type":"uint256"}],"name":"MineralInspected","type":"event"},{"anonymous":false,"inputs":[{"indexed":false,"internalType":"string","name":"mineralId","type":"string"},{"indexed":false,"internalType":"string","name":"price","type":"string"},{"indexed":true,"internalType":"address","name":"lister","type":"address"}],"name":"MineralListedForSale","type":"event"},{"anonymous":false,"inputs":[{"indexed":false,"internalType":"string","name":"mineralId","type":"string"},{"indexed":false,"internalType":"string","name":"previousLocation","type":"string"},{"indexed":false,"internalType":"string","name":"newLocation","type":"string"},{"indexed":true,"internalType":"address","name":"tranporter","type":"address"}],"name":"MineralLocationUpdated","type":"event"},{"anonymous":false,"inputs":[{"indexed":false,"internalType":"string","name":"mineralId","type":"string"},{"indexed":true,"internalType":"address","name":"buyer","type":"address"},{"indexed":false,"internalType":"uint256","name":"purchasedAt","type":"uint256"}],"name":"MineralPurchased","type":"event"},{"anonymous":false,"inputs":[{"indexed":false,"internalType":"string","name":"mineralId","type":"string"},{"indexed":true,"internalType":"address","name":"ApprovedBy","type":"address"},{"indexed":false,"internalType":"string","name":"status","type":"string"},{"indexed":false,"internalType":"uint256","name":"inspectionDate","type":"uint256"}],"name":"MineralReadyToTrade","type":"event"},{"anonymous":false,"inputs":[{"indexed":false,"internalType":"string","name":"mineralId","type":"string"},{"indexed":false,"internalType":"string","name":"refineryReport","type":"string"},{"indexed":true,"internalType":"address","name":"refiner","type":"address"},{"indexed":false,"internalType":"uint256","name":"refinedAt","type":"uint256"}],"name":"MineralRefined","type":"event"},{"anonymous":false,"inputs":[{"indexed":false,"internalType":"string","name":"mineralId","type":"string"},{"indexed":false,"internalType":"string","name":"mineralName","type":"string"},{"indexed":false,"internalType":"string","name":"mineralType","type":"string"},{"indexed":false,"internalType":"string","name":"origin","type":"string"},{"indexed":false,"internalType":"uint256","name":"weight","type":"uint256"},{"indexed":false,"internalType":"uint256","name":"purityPercentage","type":"uint256"},{"indexed":true,"internalType":"address","name":"miner","type":"address"},{"indexed":false,"internalType":"uint256","name":"registeredAt","type":"uint256"}],"name":"MineralRegistered","type":"event"},{"anonymous":false,"inputs":[{"indexed":false,"internalType":"string","name":"mineralId","type":"string"},{"indexed":true,"internalType":"address","name":"buyer","type":"address"},{"indexed":false,"internalType":"address","name":"seller","type":"address"},{"indexed":false,"internalType":"uint256","name":"soldAt","type":"uint256"}],"name":"MineralSold","type":"event"},{"anonymous":false,"inputs":[{"indexed":false,"internalType":"string","name":"mineralId","type":"string"},{"indexed":true,"internalType":"address","name":"refiner","type":"address"},{"indexed":false,"internalType":"uint256","name":"storedAt","type":"uint256"}],"name":"MineralStored","type":"event"},{"anonymous":false,"inputs":[{"indexed":false,"internalType":"string","name":"mineralId","type":"string"},{"indexed":true,"internalType":"address","name":"transporter","type":"address"},{"indexed":false,"internalType":"address","name":"receivingParty","type":"address"},{"indexed":false,"internalType":"string","name":"origin","type":"string"},{"indexed":false,"internalType":"string","name":"destination","type":"string"},{"indexed":false,"internalType":"uint256","name":"transportedAt","type":"uint256"}],"name":"MineralTransported","type":"event"},{"anonymous":false,"inputs":[{"indexed":false,"internalType":"string","name":"mineralId","type":"string"},{"indexed":false,"internalType":"string","name":"updatedField","type":"string"},{"indexed":false,"internalType":"string","name":"newValue","type":"string"},{"indexed":true,"internalType":"address","name":"updatedBy","type":"address"},{"indexed":false,"internalType":"uint256","name":"updatedAt","type":"uint256"}],"name":"MineralUpdated","type":"event"},{"anonymous":false,"inputs":[{"indexed":true,"internalType":"address","name":"assignee","type":"address"},{"indexed":false,"internalType":"uint256","name":"timestamp","type":"uint256"}],"name":"RefinerRoleAssigned","type":"event"},{"anonymous":false,"inputs":[{"indexed":true,"internalType":"address","name":"revokee","type":"address"},{"indexed":false,"internalType":"string","name":"reason","type":"string"},{"indexed":false,"internalType":"uint256","name":"timestamp","type":"uint256"}],"name":"RefinerRoleRevoked","type":"event"},{"anonymous":false,"inputs":[{"indexed":true,"internalType":"bytes32","name":"role","type":"bytes32"},{"indexed":true,"internalType":"bytes32","name":"previousAdminRole","type":"bytes32"},{"indexed":true,"internalType":"bytes32","name":"newAdminRole","type":"bytes32"}],"name":"RoleAdminChanged","type":"event"},{"anonymous":false,"inputs":[{"indexed":true,"internalType":"address","name":"account","type":"address"},{"indexed":true,"internalType":"bytes32","name":"role","type":"bytes32"},{"indexed":false,"internalType":"uint256","name":"roleAssignedAt","type":"uint256"}],"name":"RoleAssigned","type":"event"},{"anonymous":false,"inputs":[{"indexed":true,"internalType":"bytes32","name":"role","type":"bytes32"},{"indexed":true,"internalType":"address","name":"account","type":"address"},{"indexed":true,"internalType":"address","name":"sender","type":"address"}],"name":"RoleGranted","type":"event"},{"anonymous":false,"inputs":[{"indexed":true,"internalType":"bytes32","name":"role","type":"bytes32"},{"indexed":true,"internalType":"address","name":"account","type":"address"},{"indexed":true,"internalType":"address","name":"sender","type":"address"}],"name":"RoleRevoked","type":"event"},{"anonymous":false,"inputs":[{"indexed":false,"internalType":"bytes32","name":"role","type":"bytes32"},{"indexed":false,"internalType":"address","name":"account","type":"address"},{"indexed":false,"internalType":"address","name":"revoker","type":"address"},{"indexed":false,"internalType":"uint256","name":"roleRevokedAt","type":"uint256"}],"name":"RoleRevoked","type":"event"},{"anonymous":false,"inputs":[{"indexed":true,"internalType":"address","name":"assignee","type":"address"},{"indexed":false,"internalType":"uint256","name":"timestamp","type":"uint256"}],"name":"TransporterRoleAssigned","type":"event"},{"anonymous":false,"inputs":[{"indexed":true,"internalType":"address","name":"revokee","type":"address"},{"indexed":false,"internalType":"string","name":"reason","type":"string"},{"indexed":false,"internalType":"uint256","name":"timestamp","type":"uint256"}],"name":"TransporterRoleRevoked","type":"event"},{"inputs":[],"name":"AUDITOR_ROLE","outputs":[{"internalType":"bytes32","name":"","type":"bytes32"}],"stateMutability":"view","type":"function"},{"inputs":[],"name":"BUYER_ROLE","outputs":[{"internalType":"bytes32","name":"","type":"bytes32"}],"stateMutability":"view","type":"function"},{"inputs":[],"name":"DEFAULT_ADMIN_ROLE","outputs":[{"internalType":"bytes32","name":"","type":"bytes32"}],"stateMutability":"view","type":"function"},{"inputs":[],"name":"INSPECTOR_ROLE","outputs":[{"internalType":"bytes32","name":"","type":"bytes32"}],"stateMutability":"view","type":"function"},{"inputs":[],"name":"MINER_ROLE","outputs":[{"internalType":"bytes32","name":"","type":"bytes32"}],"stateMutability":"view","type":"function"},{"inputs":[],"name":"REFINER_ROLE","outputs":[{"internalType":"bytes32","name":"","type":"bytes32"}],"stateMutability":"view","type":"function"},{"inputs":[],"name":"TRANSPORTER_ROLE","outputs":[{"internalType":"bytes32","name":"","type":"bytes32"}],"stateMutability":"view","type":"function"},{"inputs":[{"internalType":"string","name":"mineralId","type":"string"},{"internalType":"string","name":"report","type":"string"}],"name":"_auditMineral","outputs":[],"stateMutability":"nonpayable","type":"function"},{"inputs":[{"internalType":"string","name":"mineralId","type":"string"}],"name":"_checkAuditAndInspectionStatus","outputs":[{"internalType":"bool","name":"isAudited","type":"bool"},{"internalType":"bool","name":"isInspected","type":"bool"}],"stateMutability":"nonpayable","type":"function"},{"inputs":[{"internalType":"string","name":"mineralId","type":"string"}],"name":"_getMineralHistory","outputs":[{"components":[{"internalType":"string","name":"id","type":"string"},{"internalType":"string","name":"fieldChanged","type":"string"},{"internalType":"string","name":"newValue","type":"string"},{"internalType":"address","name":"updatedBy","type":"address"},{"internalType":"uint256","name":"timestamp","type":"uint256"}],"internalType":"struct RolesManager.MineralHistory[]","name":"","type":"tuple[]"}],"stateMutability":"view","type":"function"},{"inputs":[{"internalType":"address","name":"","type":"address"}],"name":"acceptedTokens","outputs":[{"internalType":"bool","name":"","type":"bool"}],"stateMutability":"view","type":"function"},{"inputs":[{"internalType":"address","name":"_token","type":"address"}],"name":"addAcceptedToken","outputs":[],"stateMutability":"nonpayable","type":"function"},{"inputs":[{"internalType":"address","name":"account","type":"address"}],"name":"assignAuditor","outputs":[],"stateMutability":"nonpayable","type":"function"},{"inputs":[{"internalType":"address","name":"account","type":"address"}],"name":"assignBuyer","outputs":[],"stateMutability":"nonpayable","type":"function"},{"inputs":[{"internalType":"address","name":"account","type":"address"}],"name":"assignInspector","outputs":[],"stateMutability":"nonpayable","type":"function"},{"inputs":[{"internalType":"address","name":"account","type":"address"}],"name":"assignMiner","outputs":[],"stateMutability":"nonpayable","type":"function"},{"inputs":[{"internalType":"address","name":"account","type":"address"}],"name":"assignRefiner","outputs":[],"stateMutability":"nonpayable","type":"function"},{"inputs":[{"internalType":"address","name":"account","type":"address"}],"name":"assignTransporter","outputs":[],"stateMutability":"nonpayable","type":"function"},{"inputs":[{"internalType":"string","name":"mineralId","type":"string"}],"name":"checkAuditAndInspectionStatus","outputs":[{"internalType":"bool","name":"isAudited","type":"bool"},{"internalType":"bool","name":"isInspected","type":"bool"}],"stateMutability":"nonpayable","type":"function"},{"inputs":[],"name":"getAllRoleCounts","outputs":[{"internalType":"uint256","name":"minerCount","type":"uint256"},{"internalType":"uint256","name":"refinerCount","type":"uint256"},{"internalType":"uint256","name":"transporterCount","type":"uint256"},{"internalType":"uint256","name":"auditorCount","type":"uint256"},{"internalType":"uint256","name":"inspectorCount","type":"uint256"},{"internalType":"uint256","name":"buyerCount","type":"uint256"}],"stateMutability":"view","type":"function"},{"inputs":[{"internalType":"string","name":"mineralId","type":"string"}],"name":"getMineralDetails","outputs":[{"components":[{"internalType":"string","name":"id","type":"string"},{"internalType":"string","name":"name","type":"string"},{"internalType":"string","name":"origin","type":"string"},{"internalType":"string","name":"mineralType","type":"string"},{"internalType":"uint256","name":"weight","type":"uint256"},{"internalType":"uint256","name":"purityPercentage","type":"uint256"},{"internalType":"string","name":"storageConditions","type":"string"},{"internalType":"address","name":"registeredBy","type":"address"},{"internalType":"string","name":"currentStatus","type":"string"},{"internalType":"string","name":"currentLocation","type":"string"},{"internalType":"address","name":"currentHandler","type":"address"},{"internalType":"bool","name":"isPurchased","type":"bool"},{"internalType":"bool","name":"isRefined","type":"bool"},{"internalType":"bool","name":"isAudited","type":"bool"},{"internalType":"bool","name":"isInspected","type":"bool"},{"internalType":"uint256","name":"timestamp","type":"uint256"}],"internalType":"struct RolesManager.MineralDetails","name":"","type":"tuple"}],"stateMutability":"view","type":"function"},{"inputs":[{"internalType":"string","name":"mineralId","type":"string"}],"name":"getMineralHistory","outputs":[{"components":[{"internalType":"string","name":"id","type":"string"},{"internalType":"string","name":"fieldChanged","type":"string"},{"internalType":"string","name":"newValue","type":"string"},{"internalType":"address","name":"updatedBy","type":"address"},{"internalType":"uint256","name":"timestamp","type":"uint256"}],"internalType":"struct RolesManager.MineralHistory[]","name":"","type":"tuple[]"}],"stateMutability":"view","type":"function"},{"inputs":[{"internalType":"string","name":"_mineralId","type":"string"},{"internalType":"address","name":"token","type":"address"}],"name":"getMineralPriceInToken","outputs":[{"internalType":"uint256","name":"","type":"uint256"}],"stateMutability":"view","type":"function"},{"inputs":[{"internalType":"bytes32","name":"role","type":"bytes32"}],"name":"getRoleAdmin","outputs":[{"internalType":"bytes32","name":"","type":"bytes32"}],"stateMutability":"view","type":"function"},{"inputs":[{"internalType":"bytes32","name":"role","type":"bytes32"}],"name":"getRoleMemberCount","outputs":[{"internalType":"uint256","name":"count","type":"uint256"}],"stateMutability":"view","type":"function"},{"inputs":[{"internalType":"address","name":"account","type":"address"}],"name":"getRolesForAddress","outputs":[{"internalType":"string[]","name":"roles","type":"string[]"}],"stateMutability":"view","type":"function"},{"inputs":[{"internalType":"bytes32","name":"role","type":"bytes32"},{"internalType":"address","name":"account","type":"address"}],"name":"grantRole","outputs":[],"stateMutability":"nonpayable","type":"function"},{"inputs":[{"internalType":"address","name":"account","type":"address"}],"name":"hasAdminRole","outputs":[{"internalType":"bool","name":"","type":"bool"}],"stateMutability":"view","type":"function"},{"inputs":[{"internalType":"address","name":"account","type":"address"}],"name":"hasAuditorRole","outputs":[{"internalType":"bool","name":"","type":"bool"}],"stateMutability":"view","type":"function"},{"inputs":[{"internalType":"address","name":"account","type":"address"}],"name":"hasBuyerRole","outputs":[{"internalType":"bool","name":"","type":"bool"}],"stateMutability":"view","type":"function"},{"inputs":[{"internalType":"address","name":"account","type":"address"}],"name":"hasInspectorRole","outputs":[{"internalType":"bool","name":"","type":"bool"}],"stateMutability":"view","type":"function"},{"inputs":[{"internalType":"address","name":"account","type":"address"}],"name":"hasMinerRole","outputs":[{"internalType":"bool","name":"","type":"bool"}],"stateMutability":"view","type":"function"},{"inputs":[{"internalType":"address","name":"account","type":"address"}],"name":"hasRefinerRole","outputs":[{"internalType":"bool","name":"","type":"bool"}],"stateMutability":"view","type":"function"},{"inputs":[{"internalType":"bytes32","name":"role","type":"bytes32"},{"internalType":"address","name":"account","type":"address"}],"name":"hasRole","outputs":[{"internalType":"bool","name":"","type":"bool"}],"stateMutability":"view","type":"function"},{"inputs":[{"internalType":"address","name":"account","type":"address"}],"name":"hasTransporterRole","outputs":[{"internalType":"bool","name":"","type":"bool"}],"stateMutability":"view","type":"function"},{"inputs":[{"internalType":"string","name":"mineralId","type":"string"},{"internalType":"string","name":"report","type":"string"}],"name":"inspectMineral","outputs":[],"stateMutability":"nonpayable","type":"function"},{"inputs":[{"internalType":"string","name":"mineralId","type":"string"}],"name":"isMineralAudited","outputs":[{"internalType":"bool","name":"","type":"bool"}],"stateMutability":"view","type":"function"},{"inputs":[{"internalType":"string","name":"mineralId","type":"string"}],"name":"isMineralInspected","outputs":[{"internalType":"bool","name":"","type":"bool"}],"stateMutability":"view","type":"function"},{"inputs":[{"internalType":"string","name":"_mineralId","type":"string"}],"name":"isMineralMarketReady","outputs":[{"internalType":"bool","name":"","type":"bool"}],"stateMutability":"view","type":"function"},{"inputs":[{"internalType":"string","name":"mineralId","type":"string"}],"name":"isMineralRegistered","outputs":[{"internalType":"bool","name":"","type":"bool"}],"stateMutability":"nonpayable","type":"function"},{"inputs":[{"internalType":"string","name":"_mineralId","type":"string"},{"internalType":"string","name":"_price","type":"string"}],"name":"list_Mineral_ForSale","outputs":[],"stateMutability":"nonpayable","type":"function"},{"inputs":[{"internalType":"string","name":"","type":"string"}],"name":"mineralDetails","outputs":[{"internalType":"string","name":"id","type":"string"},{"internalType":"string","name":"name","type":"string"},{"internalType":"string","name":"origin","type":"string"},{"internalType":"string","name":"mineralType","type":"string"},{"internalType":"uint256","name":"weight","type":"uint256"},{"internalType":"uint256","name":"purityPercentage","type":"uint256"},{"internalType":"string","name":"storageConditions","type":"string"},{"internalType":"address","name":"registeredBy","type":"address"},{"internalType":"string","name":"currentStatus","type":"string"},{"internalType":"string","name":"currentLocation","type":"string"},{"internalType":"address","name":"currentHandler","type":"address"},{"internalType":"bool","name":"isPurchased","type":"bool"},{"internalType":"bool","name":"isRefined","type":"bool"},{"internalType":"bool","name":"isAudited","type":"bool"},{"internalType":"bool","name":"isInspected","type":"bool"},{"internalType":"uint256","name":"timestamp","type":"uint256"}],"stateMutability":"view","type":"function"},{"inputs":[{"internalType":"string","name":"","type":"string"},{"internalType":"uint256","name":"","type":"uint256"}],"name":"mineralHistories","outputs":[{"internalType":"string","name":"id","type":"string"},{"internalType":"string","name":"fieldChanged","type":"string"},{"internalType":"string","name":"newValue","type":"string"},{"internalType":"address","name":"updatedBy","type":"address"},{"internalType":"uint256","name":"timestamp","type":"uint256"}],"stateMutability":"view","type":"function"},{"inputs":[{"internalType":"string","name":"mineralId","type":"string"}],"name":"purchaseMineral","outputs":[],"stateMutability":"nonpayable","type":"function"},{"inputs":[{"internalType":"string","name":"_mineralId","type":"string"},{"internalType":"enum MineralWarehouse.PaymentMethod","name":"method","type":"uint8"},{"internalType":"address","name":"token","type":"address"},{"internalType":"uint256","name":"amount","type":"uint256"}],"name":"purchase_mineral","outputs":[],"stateMutability":"payable","type":"function"},{"inputs":[{"internalType":"string","name":"mineralId","type":"string"},{"internalType":"string","name":"report","type":"string"}],"name":"refineMineral","outputs":[],"stateMutability":"nonpayable","type":"function"},{"inputs":[{"internalType":"string","name":"_name","type":"string"},{"internalType":"string","name":"_mineralType","type":"string"},{"internalType":"uint256","name":"_weight","type":"uint256"},{"internalType":"string","name":"_origin","type":"string"},{"internalType":"uint256","name":"_purityPercentage","type":"uint256"},{"internalType":"string","name":"_storageConditions","type":"string"}],"name":"registerMineral","outputs":[{"internalType":"string","name":"","type":"string"}],"stateMutability":"nonpayable","type":"function"},{"inputs":[{"internalType":"bytes32","name":"role","type":"bytes32"},{"internalType":"address","name":"callerConfirmation","type":"address"}],"name":"renounceRole","outputs":[],"stateMutability":"nonpayable","type":"function"},{"inputs":[{"internalType":"address","name":"account","type":"address"},{"internalType":"string","name":"reason","type":"string"}],"name":"revokeAuditor","outputs":[],"stateMutability":"nonpayable","type":"function"},{"inputs":[{"internalType":"address","name":"account","type":"address"},{"internalType":"string","name":"reason","type":"string"}],"name":"revokeBuyer","outputs":[],"stateMutability":"nonpayable","type":"function"},{"inputs":[{"internalType":"address","name":"account","type":"address"},{"internalType":"string","name":"reason","type":"string"}],"name":"revokeInspector","outputs":[],"stateMutability":"nonpayable","type":"function"},{"inputs":[{"internalType":"address","name":"account","type":"address"},{"internalType":"string","name":"reason","type":"string"}],"name":"revokeMiner","outputs":[],"stateMutability":"nonpayable","type":"function"},{"inputs":[{"internalType":"address","name":"account","type":"address"},{"internalType":"string","name":"reason","type":"string"}],"name":"revokeRefiner","outputs":[],"stateMutability":"nonpayable","type":"function"},{"inputs":[{"internalType":"bytes32","name":"role","type":"bytes32"},{"internalType":"address","name":"account","type":"address"}],"name":"revokeRole","outputs":[],"stateMutability":"nonpayable","type":"function"},{"inputs":[{"internalType":"address","name":"account","type":"address"},{"internalType":"string","name":"reason","type":"string"}],"name":"revokeTransporter","outputs":[],"stateMutability":"nonpayable","type":"function"},{"inputs":[{"internalType":"bytes32","name":"","type":"bytes32"}],"name":"roleMemberCount","outputs":[{"internalType":"uint256","name":"","type":"uint256"}],"stateMutability":"view","type":"function"},{"inputs":[{"internalType":"string","name":"_mineralId","type":"string"},{"internalType":"uint256","name":"_priceETH","type":"uint256"},{"internalType":"address[]","name":"tokens","type":"address[]"},{"internalType":"uint256[]","name":"prices","type":"uint256[]"}],"name":"store_refined_mineral_to_warehouse","outputs":[],"stateMutability":"nonpayable","type":"function"},{"inputs":[{"internalType":"bytes4","name":"interfaceId","type":"bytes4"}],"name":"supportsInterface","outputs":[{"internalType":"bool","name":"","type":"bool"}],"stateMutability":"view","type":"function"},{"inputs":[{"internalType":"string","name":"mineralId","type":"string"},{"internalType":"address","name":"_receivingParty","type":"address"},{"internalType":"string","name":"_origin","type":"string"},{"internalType":"string","name":"_destination","type":"string"}],"name":"transferMineral","outputs":[],"stateMutability":"nonpayable","type":"function"},{"inputs":[{"internalType":"string","name":"mineralId","type":"string"},{"internalType":"string","name":"newLocation","type":"string"}],"name":"updateMineralLocation","outputs":[],"stateMutability":"nonpayable","type":"function"},{"inputs":[{"internalType":"string","name":"mineralId","type":"string"},{"internalType":"string","name":"newStatus","type":"string"}],"name":"updateMineralStatus","outputs":[],"stateMutability":"nonpayable","type":"function"}],"devdoc":{"errors":{"AccessControlBadConfirmation()":[{"details":"The caller of a function is not the expected one. NOTE: Don't confuse with {AccessControlUnauthorizedAccount}."}],"AccessControlUnauthorizedAccount(address,bytes32)":[{"details":"The `account` is missing a role."}]},"events":{"RoleAdminChanged(bytes32,bytes32,bytes32)":{"details":"Emitted when `newAdminRole` is set as ``role``'s admin role, replacing `previousAdminRole` `DEFAULT_ADMIN_ROLE` is the starting admin for all roles, despite {RoleAdminChanged} not being emitted signaling this."},"RoleGranted(bytes32,address,address)":{"details":"Emitted when `account` is granted `role`. `sender` is the account that originated the contract call, an admin role bearer except when using {AccessControl-_setupRole}."},"RoleRevoked(bytes32,address,address)":{"details":"Emitted when `account` is revoked `role`. `sender` is the account that originated the contract call:   - if using `revokeRole`, it is the admin role bearer   - if using `renounceRole`, it is the role bearer (i.e. `account`)"}},"kind":"dev","methods":{"_auditMineral(string,string)":{"details":"only the auditor can audit mineralDetails.Logs audit report on every successful audit.","params":{"mineralId":"The ID of the mineral under audition.","report":"The audit status report of the mineral under audition."}},"_checkAuditAndInspectionStatus(string)":{"details":"checks audit and inspection status Returns the status of both audit and inspection of mineral according to mineralId"},"_getMineralHistory(string)":{"details":"retrieves fll history of a mineral (for audit retail)","returns":{"_0":"history of specified mineral sing its mineralId"}},"checkAuditAndInspectionStatus(string)":{"details":"checks audit and inspection status","params":{"mineralId":"The ID of the mineral to check for audit and inspection status Returns (isValid, isInspected) statuses of both audit and inspection of mineral according to mineralId"}},"getAllRoleCounts()":{"details":"Returns all role counts in a single call","returns":{"auditorCount":"Number of auditors","buyerCount":"Number of buyers","inspectorCount":"Number of inspectors","minerCount":"Number of miners","refinerCount":"Number of refiners","transporterCount":"Number of transporters"}},"getMineralDetails(string)":{"details":"retrieves mineral details of specified mineralId","returns":{"_0":"mineral details of specified mineralId"}},"getRoleAdmin(bytes32)":{"details":"Returns the admin role that controls `role`. See {grantRole} and {revokeRole}. To change a role's admin, use {_setRoleAdmin}."},"getRoleMemberCount(bytes32)":{"details":"Returns the number of accounts that have a specific role","params":{"role":"The role to query member count for"},"returns":{"count":"The number of accounts with the role"}},"getRolesForAddress(address)":{"details":"Returns all roles assigned to a given address","params":{"account":"The address to check roles for"},"returns":{"roles":"An array of role names the address has"}},"grantRole(bytes32,address)":{"details":"Grants `role` to `account`. If `account` had not been already granted `role`, emits a {RoleGranted} event. Requirements: - the caller must have ``role``'s admin role. May emit a {RoleGranted} event."},"hasMinerRole(address)":{"details":"Roles helper functionschecks if an account has a specific role","params":{"account":"The address of the account to checked with role association"}},"hasRole(bytes32,address)":{"details":"Returns `true` if `account` has been granted `role`."},"inspectMineral(string,string)":{"details":"only the inspector can inspect mineralDetailsLogs audit report on every successful inspection","params":{"mineralId":"The ID of the mineral under inspection","report":"The inspection status report of the mineral under inspection"}},"isMineralAudited(string)":{"details":"checks if a mineral with the given ID is registered","params":{"mineralId":"the ID of the mineral to check"},"returns":{"_0":"A boolean indicating whether the mineral is registered or not"}},"isMineralRegistered(string)":{"details":"checks if a mineral with the given ID is registered","params":{"mineralId":"the ID of the mineral to check"},"returns":{"_0":"A boolean indicating whether the mineral is registered or not"}},"purchaseMineral(string)":{"details":"Only the buyer can purchase mineralDetails","params":{"mineralId":"The ID of the mineral under purchase"}},"refineMineral(string,string)":{"details":"only the refiner can refiner a mineral","params":{"mineralId":"The ID of the mineral under refinery"}},"registerMineral(string,string,uint256,string,uint256,string)":{"details":"Register a new mineral - only by miner.Every mineral is assigned a unique mineralId.","params":{"_mineralType":"The type of a mineral.","_name":"Mineral name.","_origin":"Mineral Origin.","_purityPercentage":"Mineral purity in percentage.","_storageConditions":"Mineral Storage conditions.","_weight":"Mineral weight in uint256."}},"renounceRole(bytes32,address)":{"details":"Revokes `role` from the calling account. Roles are often managed via {grantRole} and {revokeRole}: this function's purpose is to provide a mechanism for accounts to lose their privileges if they are compromised (such as when a trusted device is misplaced). If the calling account had been revoked `role`, emits a {RoleRevoked} event. Requirements: - the caller must be `callerConfirmation`. May emit a {RoleRevoked} event."},"revokeRole(bytes32,address)":{"details":"Revokes `role` from `account`. If `account` had been granted `role`, emits a {RoleRevoked} event. Requirements: - the caller must have ``role``'s admin role. May emit a {RoleRevoked} event."},"supportsInterface(bytes4)":{"details":"See {IERC165-supportsInterface}."},"transferMineral(string,address,string,string)":{"details":"only the transporter can transport mineralDetails","params":{"_destination":"The Destination area of the mineral(string)","_origin":"The Original location of the mineral under transportation","_receivingParty":"The address of the destination portal","mineralId":"The ID of the mineral under transportation"}},"updateMineralLocation(string,string)":{"details":"updates the location of the mineral","params":{"mineralId":"the ID of the mineral to update","newLocation":"The new location of the mineral"}},"updateMineralStatus(string,string)":{"details":"Updates mineral details - only by authorized roles","params":{"mineralId":"The ID of the mineral under update","newStatus":"New status of the mineral"}}},"version":1},"evm":{"bytecode":{"linkReferences":{},"object":"608034620003d75762005b6190601f38839003908101601f19168201906001600160401b03821183831017620003dc5780839160409586948552833981010312620003d7576200004f81620003f2565b6200005e6020809301620003f2565b91434201804211620003c15760019081556200007a3362000407565b5060008080526004808452868220805460001991908281146200039b5785019055828052818552838884205587514281527f458ea7e03b3466b3cf9bc2d66ddea8b11fe9469982816f42666888e6c8c6e664863392a2620000db3362000487565b507fa952726ef2588ad078edf35b066f7c7406e207cb0003bbaba8cb53eba9553e728084528286528884208054838114620003ae57860190558352818552838884205587514281527f593f046317558c2857b92915c62c99f2d2108f7bc6f1e1b3c5376cd559abf559863392a2620001533362000529565b507f59a1c48e5837ad7a7f3dcedcbe129bf3249ec4fbf651fd4f5e2600ead39fe2f58084528286528884208054838114620003ae57860190558352818552838884205587514281527f4a02edd19f09212e54b2ac85d7d3a4a2e3fbf424e6710c3f817d9b4cecc9cdb3863392a2620001cb33620005c6565b5060008051602062005b018339815191528084528286528884208054838114620003ae57860190558352818552838884205587514281527f49cc27c2a068c01cf703c3923dfc679109b5f6c27bd1f61b542c159e3a73e092863392a2620002323362000652565b5060008051602062005b218339815191528084528286528884208054838114620003ae57860190558352818552838884205587514281527ff8ed9ac482b0f7c12999b3f157f758f84e39cd339fa301ea203823ac29e97505863392a26200029933620006de565b5060008051602062005b418339815191528084528286528884208054838114620003ae57860190558352818552838884205587514281527f4e3eede475de92d3e23765b737dbb67646352b3328c1a437d7f089766d7be751863392a262000300336200076a565b5060008051602062005ae1833981519152908184528286528884209081549081146200039b57850190558252835285902055835142815233917f964e50cb3bdb84c00a30f56ae15d538d23dc6db14f891d7d819761b161e990a691a260018060a01b038091169160018060a01b0319928084600554161760055583600754161760075516906006541617600655516152ca9081620007f78239f35b634e487b7160e01b855260118452602485fd5b634e487b7160e01b865260118552602486fd5b634e487b7160e01b600052601160045260246000fd5b600080fd5b634e487b7160e01b600052604160045260246000fd5b51906001600160a01b0382168203620003d757565b6001600160a01b031660008181527fad3228b676f7d3cd4284a5443f17f1962b36e491b30a40b2405849e597ba5fb5602052604081205490919060ff166200048357818052816020526040822081835260205260408220600160ff19825416179055339160008051602062005ac18339815191528180a4600190565b5090565b6001600160a01b031660008181527fbb3fcc25fbffa12ea463b3505377899a4d5ddb4858b9c7bd36764686d9425b3660205260408120549091907fa952726ef2588ad078edf35b066f7c7406e207cb0003bbaba8cb53eba9553e729060ff166200052457808352826020526040832082845260205260408320600160ff1982541617905560008051602062005ac1833981519152339380a4600190565b505090565b6001600160a01b031660008181527f0d2d6a5d08cb5d871289c0a3ca855d9da72909a111c24cce2d5c2b34a20daa5460205260408120549091907f59a1c48e5837ad7a7f3dcedcbe129bf3249ec4fbf651fd4f5e2600ead39fe2f59060ff166200052457808352826020526040832082845260205260408320600160ff1982541617905560008051602062005ac1833981519152339380a4600190565b6001600160a01b031660008181527facfff8a39fb957d9d1c8e3ef9f08385e3fcf7bb23ab7ba0ad0f8df93dbde6a68602052604081205490919060008051602062005b018339815191529060ff166200052457808352826020526040832082845260205260408320600160ff1982541617905560008051602062005ac1833981519152339380a4600190565b6001600160a01b031660008181527ff3fa603c74bfe2a4719960e47343678c3dc690d2b27a2295acc6fc430833aaf9602052604081205490919060008051602062005b218339815191529060ff166200052457808352826020526040832082845260205260408320600160ff1982541617905560008051602062005ac1833981519152339380a4600190565b6001600160a01b031660008181527f4130a4caca6023b0ba21488ee680ce5c3df22860b1cd8b02cd2a0bcb0de98851602052604081205490919060008051602062005b418339815191529060ff166200052457808352826020526040832082845260205260408320600160ff1982541617905560008051602062005ac1833981519152339380a4600190565b6001600160a01b031660008181527fbce5fd3347e0dc338dcc0e895534dd4af2740eec95f56cd4ca4b4b2ada357ca0602052604081205490919060008051602062005ae18339815191529060ff166200052457808352826020526040832082845260205260408320600160ff1982541617905560008051602062005ac1833981519152339380a460019056fe608080604052600436101561001357600080fd5b60003560e01c90816301ffc9a714613f4b575080630958fc2d14613e915780630dacad2e14613dd7578063126ee33814613ade578063129b5c45146139775780631c7588fc14613828578063248a9ca3146137f95780632ba3e5ac146137a65780632f2ff15d14613767578063309514df146136ec5780633499c3a21461369c57806335ba62071461359657806336568abe1461354f5780633a7adea514612f245780633eee83f114612e6d57806343d990d814612a9b578063480d1dd3146129e15780634e2a3109146128e85780634eabbe77146128bf5780635aee1b151461269c5780636377741d146125e25780636394f6e6146125b95780636e1d616e1461259057806370e22e421461254057806375a2b0d41461238757806379451cd71461235e5780637a01a1da146123355780637ae9c160146122ba5780637cde2b99146121c1578063826fe0f51461206157806382dc4a05146120225780638604d28814611e815780638850845f14611e3157806391d1485414611de4578063981642c614611d3c5780639969119414611c3e5780639b188dd614611bc3578063a217fddf14611ba7578063a354aec714611926578063a672d987146117c1578063a917601b14611707578063abaa536f146116b7578063ac851dfd14611625578063b6ba1ca7146115f9578063b9c5b833146114d4578063beae461514611484578063c395fcb314611422578063c5db94be1461138b578063ca15c873146112a1578063cc82b090146111d5578063d547741f14611194578063de7ce39114611144578063df422bf214610c1d578063e2e3edeb14610b3c578063e3a3c52214610b13578063e438fdf814610a98578063ef4c0c9414610801578063f17f3523146105f8578063f5716a8514610540578063f6e2314b146103a55763fc1032eb146102be57600080fd5b346103a0576102cc366140ef565b6102d461442c565b6102dd82614380565b1561038e576103657f93e936184fad9f80c7000aa987f91be0cd621bacde11839fdc7139f3d9c2407b91600080516020615235833981519152806000526000602052610330600160406000200154614484565b61033985614a29565b506000526004602052604060002080548061037c575b505060405191829160408352604083019061423d565b4260208301526001600160a01b03909416930390a2005b61038590614ce7565b9055388061034f565b604051632ac1560560e21b8152600490fd5b600080fd5b346103a0576020806003193601126103a0576004356001600160401b0381116103a0576103d6903690600401614053565b906040519082519261040e610415838301956103f381878961412e565b850194848160029788815203019020604051928380926141a7565b0382614032565b8281519101208151908186201490811591610537575b50610510576104426040519485925192839161412e565b83019281816003958681520301902080549161045d83614262565b9361046b6040519586614032565b8385526000928352818320908286015b85851061049457604051806104908982614279565b0390f35b6005846001926040516104a681613ffc565b6040516104b78161040e818b6141a7565b81526040516104cc8161040e81898c016141a7565b838201526040516104e38161040e818a8c016141a7565b6040820152848060a01b038c8801541660608201526004870154608082015281520193019401939161047b565b9061053360405192839263f855236d60e01b84526004840152602483019061423d565b0390fd5b9050158561042b565b346103a05761054e366140ef565b61055661442c565b61055f826143ab565b1561038e576103657f4614600adaea632b1e4c381ad24471dab7b587dca104c8dd4da76bc64f19716f916000805160206152558339815191528060005260006020526105b2600160406000200154614484565b6105bb856149b4565b50600052600460205260406000208054806105e657505060405191829160408352604083019061423d565b6105ef90614ce7565b9055848061034f565b346103a05760803660031901126103a0576001600160401b036004358181116103a057610629903690600401614053565b90610632613fb4565b906044358181116103a05761064b903690600401614053565b906064359081116103a057610664903690600401614053565b9060008051602061515583398151915260005260209260008452604060002033600052845260ff60406000205416156107e9576001600160a01b031680156107d7578151156107c5578251156107b357604051600160ff600a8851938881818c01966106d181838a61412e565b81016002815203019020015460a01c161515146107915793610782939261077492600a61072c847f55b00b3c29344a545244b18d70b135e423405427088bd5425f13d690b82310b4998b60405193849283925192839161412e565b8101600281520301902001336bffffffffffffffffffffffff60a01b8254161790556107636040519860a08a5260a08a019061423d565b92880152868203604088015261423d565b90848203606086015261423d565b914260808201528033930390a2005b604051632072bb0160e11b81526004810186905280610533602482018961423d565b604051635dbef47560e01b8152600490fd5b6040516326813e6f60e01b8152600490fd5b60405163bea3fd2f60e01b8152600490fd5b604051630568555f60e41b8152336004820152602490fd5b60803660031901126103a0576004356001600160401b0381116103a05761082c903690600401614053565b60243560028110156103a0576044356001600160a01b0381811693918490036103a05733600090815260008051602061511583398151915260209081526040909120549094606435949160ff16156107e957604051868186516108928183858b0161412e565b810160088152030190209460048601926108b360ff855460081c1615615099565b6109aa5750506006840154340361096e5760008080808560018901541681903415610964575b3491f115610958577f940131602d0921830dc2448c37a7e380fa8625c7c0b95d4aa8f3f26f84d270ae936001915b610100815442600385015563010000008560b81b033360181b1690828660b81b031916171790550154166109466040519260608452606084019061423d565b938201524260408201528033930390a2005b6040513d6000823e3d90fd5b6108fc91506108d9565b60405162461bcd60e51b8152600481018690526014602482015273125b98dbdc9c9958dd0811551208185b5bdd5b9d60621b6044820152606490fd5b816000526007860187526040600020548103610a5a578690606485600189015416600060405195869485936323b872dd60e01b8552336004860152602485015260448401525af1801561095857610a27575b507f940131602d0921830dc2448c37a7e380fa8625c7c0b95d4aa8f3f26f84d270ae93600191610907565b8581813d8311610a53575b610a3c8183614032565b810103126103a05751801515036103a057856109fc565b503d610a32565b60405162461bcd60e51b8152600481018890526016602482015275125b98dbdc9c9958dd081d1bdad95b88185b5bdd5b9d60521b6044820152606490fd5b346103a057610aa6366140ef565b610aae61442c565b610ab782614401565b1561038e576103657f352e14c53d161e2481e65145b53265d1608f979a93a06df66d4c99b2a84ddc6391600080516020615175833981519152806000526000602052610b0a600160406000200154614484565b6105bb8561493f565b346103a05760003660031901126103a05760206040516000805160206151758339815191528152f35b346103a0576020806003193601126103a0576004356001600160401b0381116103a057610b6d903690600401614053565b9060405161040e610ba1845192848181880195610b8b81838961412e565b81016002815203019020604051928380926141a7565b8281519101208351908183201490811591610c14575b50610bf157600a610bd78360ff938660405193849283925192839161412e565b81016002815203019020015460b81c166040519015158152f35b5061053360405192839263f855236d60e01b84526004840152602483019061423d565b90501584610bb7565b346103a0576020806003193601126103a0576001600160a01b03610c3f613f9e565b168015611132576000906000805260008352604060002081600052835260ff8060406000205416611129575b60008051602061521583398151915291826000526000855260406000208160005285528160406000205416611119575b600080516020615255833981519152806000526000865260406000208260005286528260406000205416611109575b6000805160206151558339815191528060005260008752604060002083600052875283604060002054166110f9575b6000805160206152358339815191528060005260008852604060002084600052885284604060002054166110e9575b600080516020615175833981519152918260005260008952604060002085600052895285604060002054166110d9575b6000805160206151f5833981519152938460005260008a526040600020866000528a5286604060002054166110c9575b610d9189614262565b98610d9f6040519a8b614032565b808a52610dae601f1991614262565b018a8a60005b8381106110b857505050506000976000805260008b526040600020876000528b52876040600020541661107d575b60005260008a526040600020866000528a528660406000205416611040575b6000526000895260406000208560005289528560406000205416611001575b6000526000885260406000208460005288528460406000205416610fbe575b6000526000875260406000208360005287528360406000205416610f7f575b6000526000865260406000208260005286528260406000205416610f3e575b60005260008552604060002090600052845260406000205416610efb575b506040519082820192808352815180945260408301938160408260051b8601019301916000955b828710610ecf5785850386f35b909192938280610eeb600193603f198a8203018652885161423d565b9601920196019592919092610ec2565b610f3790604051610f0b81614017565b6005815264212aaca2a960d91b85820152610f268285614d01565b52610f318184614d01565b50614cd8565b5082610e9b565b92610f7990604051610f4f81614017565b600981526824a729a822a1aa27a960b91b88820152610f6e8288614d01565b52610f318187614d01565b92610e7d565b93610fb890604051610f9081614017565b600781526620aaa224aa27a960c91b89820152610fad8289614d01565b52610f318188614d01565b93610e5e565b94610ffb90604051610fcf81614017565b600b81526a2a2920a729a827a92a22a960a91b8a820152610ff0828a614d01565b52610f318189614d01565b94610e3f565b9561103a9060405161101281614017565b60078152662922a324a722a960c91b8b82015261102f828b614d01565b52610f31818a614d01565b95610e20565b966110779060405161105181614017565b600581526426a4a722a960d91b8c82015261106c828c614d01565b52610f31818b614d01565b96610e01565b975060405161108b81614017565b600581526420a226a4a760d91b8b8201526110a58a614cf4565b526110af89614cf4565b50600197610de2565b606083828194010152018b90610db4565b976110d390614cd8565b97610d88565b966110e390614cd8565b96610d58565b956110f390614cd8565b95610d28565b9461110390614cd8565b94610cf9565b9361111390614cd8565b93610cca565b9261112390614cd8565b92610c9b565b60019250610c6b565b60405163200db56f60e11b8152600490fd5b346103a05760203660031901126103a05761115d613f9e565b6001600160a01b031660009081526000805160206151d5833981519152602090815260409182902054915160ff9092161515825290f35b346103a05760403660031901126103a0576111d36004356111b3613fb4565b908060005260006020526111ce600160406000200154614484565b614a9e565b005b346103a05760203660031901126103a0576111ee613f9e565b6001600160a01b0381169081156111325761120761442c565b61121081614401565b61128f5761121d90614702565b5060008051602061517583398151915260005260046020527f9d423956391424a558206d539d4c7b96f2596f9d71b6fe92efe1f071a870ba94805461126190614cd8565b90557f49cc27c2a068c01cf703c3923dfc679109b5f6c27bd1f61b542c159e3a73e0926020604051428152a2005b6040516314726de560e21b8152600490fd5b346103a05760203660031901126103a05760043560008051602061521583398151915281148015611374575b801561135d575b8015611346575b801561132f575b8015611318575b156113065760005260046020526020604060002054604051908152f35b604051636b9c461160e01b8152600490fd5b506000805160206151f583398151915281146112e9565b5060008051602061517583398151915281146112e2565b5060008051602061523583398151915281146112db565b5060008051602061515583398151915281146112d4565b5060008051602061525583398151915281146112cd565b346103a05760403660031901126103a0576004356001600160401b0381116103a0576113bb903690600401614053565b600761140060206001600160a01b036113d2613fb4565b169384600052600a82526113ed60ff60406000205416615058565b816040519382858094519384920161412e565b8101600881520301902001906000526020526020604060002054604051908152f35b346103a05760203660031901126103a05761143b613f9e565b6001600160a01b031660009081527fad3228b676f7d3cd4284a5443f17f1962b36e491b30a40b2405849e597ba5fb5602090815260409182902054915160ff9092161515825290f35b346103a05760203660031901126103a05761149d613f9e565b6001600160a01b03166000908152600080516020615115833981519152602090815260409182902054915160ff9092161515825290f35b346103a05760003660031901126103a057600460209081527f973ccc145476ef147b966a44694f8b2d26bac5a3d44a844fec6be696fe5fea70547f02ff85b9f193a3a7824cbaf5a79db262c0bac955152adf2752c6413d76b2d3c7547f0e08e55c6329ca2d4f38429c472032b4e97537c869a64c376bb7e702721eb8c3547fa792fa383e6bd9c6b4465bbfd8031f4b47377210fa121067c03906e9afac6246547f9d423956391424a558206d539d4c7b96f2596f9d71b6fe92efe1f071a870ba94546000805160206151f58339815191526000527f5455ba4b8a75b33fa0f1f7affd9817680912f06b7b194bcf9ac01183c4930020546040805196875296860194909452948401919091526060830152608082019290925260a081019190915260c090f35b346103a05760203660031901126103a05760043560005260046020526020604060002054604051908152f35b346103a0576020806003193601126103a0576004356001600160401b0381116103a057611656903690600401614053565b8051156105105760405161040e61167a835192858181870195610b8b81838961412e565b838151910120908251902003611694575060405160018152f35b906105336040519283926311bb0bc960e31b84526004840152602483019061423d565b346103a05760203660031901126103a0576116d0613f9e565b6001600160a01b031660009081526000805160206150d5833981519152602090815260409182902054915160ff9092161515825290f35b346103a05760203660031901126103a057611720613f9e565b6001600160a01b0381169081156111325761173961442c565b611742816143d6565b61128f5761174f9061468b565b5060008051602061515583398151915260005260046020527f0e08e55c6329ca2d4f38429c472032b4e97537c869a64c376bb7e702721eb8c3805461179390614cd8565b90557f964e50cb3bdb84c00a30f56ae15d538d23dc6db14f891d7d819761b161e990a66020604051428152a2005b346103a05760203660031901126103a0576004356001600160401b0381116103a0576117f46117f9913690600401614053565b614de6565b604051809160208252805161181c6102009182602086015261022085019061423d565b9161189261186a611856611842602085015196601f1997888a83030160408b015261423d565b6040850151878983030160608a015261423d565b60608401518688830301608089015261423d565b608083015160a087015260a083015160c087015260c0830151858783030160e088015261423d565b6118da60018060a01b03916118c58360e08601511661010090818a01528501519161012092888a830301848b015261423d565b9084015161014096888303018789015261423d565b938201511661016090818601528101511515610180908186015281015115156101a0908186015281015115156101c090818601528101511515906101e091828601520151908301520390f35b346103a057611934366140a9565b60405182519161040e611954602093848181890197610b8b81838b61412e565b8281519101208451908185201490811591611b9e575b50611b7c57805115611b6a5760008051602061525583398151915260005260008252604060002033600052825260ff60406000205416158015611b39575b8015611b08575b8015611ad7575b6107e95760408281611a41827fae67159e13d82231d3f408edcc7f75fa4e81aeacf670d6bcc87883e5c6a9935397611a0f8760088c611ac89b88518092516119ff81838a61412e565b8101600281520301902001614b01565b8351600b8b51611a2081848661412e565b82019160028352848142940301902001558351809381928c5192839161412e565b8101600381520301902091611a978251611a5a81613ffc565b898152835194611a6986614017565b600686526553746174757360d01b958685820152848301528785830152336060830152426080830152614c10565b611aab82519860808a5260808a019061423d565b928884039182818b0152600685528401520182870152019061423d565b914260608201528033930390a2005b5060008051602061517583398151915260005260008252604060002033600052825260ff60406000205416156119b6565b5060008051602061523583398151915260005260008252604060002033600052825260ff60406000205416156119af565b5060008051602061515583398151915260005260008252604060002033600052825260ff60406000205416156119a8565b60405163ab36986360e01b8152600490fd5b60405163f855236d60e01b81526004810183905280610533602482018761423d565b9050158561196a565b346103a05760003660031901126103a057602060405160008152f35b346103a057611bd1366140ef565b611bd961442c565b611be282614355565b1561038e576103657f69e94e373f69f3f945457a07b335722310788af9cd459a33df6f72cc9e964043916000805160206151f5833981519152806000526000602052611c35600160406000200154614484565b6105bb856148ca565b346103a057611c4c366140a9565b336000908152600080516020615135833981519152602090815260409091205491929160ff16156107e957604051600160ff600a855193858181890196611c9481838a61412e565b81016002815203019020015460b81c16151514611d195791600a611ce8611d14937f3a9eebd240f4c9f631531ebc672c4c040de483b868ccebe8a3a1fdad70cde0d99560405180938192875192839161412e565b8101600281520301902001600160b81b60ff60b81b198254161790556040519182913395429184614caa565b0390a2005b50610533604051928392636f5f944160e11b84526004840152602483019061423d565b346103a0576020806003193601126103a0576004356001600160401b0381116103a057611d6d903690600401614053565b9060405161040e611d8b845192848181880195610b8b81838961412e565b8281519101208351908183201490811591611ddb575b50610bf157600a611dc18360ff938660405193849283925192839161412e565b81016002815203019020015460b01c166040519015158152f35b90501584611da1565b346103a05760403660031901126103a057611dfd613fb4565b600435600052600060205260406000209060018060a01b0316600052602052602060ff604060002054166040519015158152f35b346103a05760203660031901126103a057611e4a613f9e565b6001600160a01b03166000908152600080516020615135833981519152602090815260409182902054915160ff9092161515825290f35b346103a057611e8f366140a9565b3360009081526000805160206151d5833981519152602090815260409091205491929160ff16156107e95760405181818451611ece818385890161412e565b8101600881520301902060048101805460ff811615611fe857611ef760ff8260081c1615615099565b60018301546001600160a01b03163303611fb75760ff8160b81c1615611f7f5792611f5c8660057f48009e0de65db9a1c994f7f48e9cfe917749fa06f868b8948251d3789a00a6559795611d149562010000611f709962ff0000191617905501614b01565b60405193849360408552604085019061423d565b9083820390840152339561423d565b60405162461bcd60e51b815260048101859052601060248201526f4e6f74206d61726b657420726561647960801b6044820152606490fd5b60405162461bcd60e51b81526004810185905260096024820152682737ba1037bbb732b960b91b6044820152606490fd5b60405162461bcd60e51b8152600481018590526012602482015271135a5b995c985b081b9bdd081cdd1bdc995960721b6044820152606490fd5b346103a05760203660031901126103a0576001600160a01b03612043613f9e565b16600052600a602052602060ff604060002054166040519015158152f35b346103a0576020806003193601126103a0576004356001600160401b0381116103a057612092903690600401614053565b906040519082519261040e6120af838301956103f381878961412e565b82815191012081519081862014908115916121b8575b506121a6576120dc6040519485925192839161412e565b8301928181600395868152030190208054916120f783614262565b936121056040519586614032565b8385526000928352818320908286015b85851061212a57604051806104908982614279565b60058460019260405161213c81613ffc565b60405161214d8161040e818b6141a7565b81526040516121628161040e81898c016141a7565b838201526040516121798161040e818a8c016141a7565b6040820152848060a01b038c88015416606082015260048701546080820152815201930194019391612115565b6040516329d7b10b60e11b8152600490fd5b905015856120c5565b346103a0576121cf366140a9565b3360009081526000805160206151d5833981519152602090815260409091205491929160ff16156107e957604051600160ff600a85519385818189019661221781838a61412e565b81016002815203019020015460a81c161515146122975791600a61226b611d14937fa214f45af6d86b0d5ff7bb48f888cf4205e4a383da35fcbebfdbd9bd8e6d5a7c9560405180938192875192839161412e565b8101600281520301902001600160a81b60ff60a81b198254161790556040519182913395429184614caa565b5061053360405192839263701203b760e01b84526004840152602483019061423d565b346103a0576122c8366140ef565b6122d061442c565b6122d9826143d6565b1561038e576103657f71577b91708c73ee54b43c6709958ff42e4bcc084910648ce7c3d16928b51d529160008051602061515583398151915280600052600060205261232c600160406000200154614484565b6105bb85614855565b346103a05760003660031901126103a05760206040516000805160206151f58339815191528152f35b346103a05760003660031901126103a05760206040516000805160206152558339815191528152f35b346103a0576020806003193601126103a0576004356001600160401b0381116103a0576123b8903690600401614053565b906000805260008152604060002033600052815260ff60406000205416156107e95760405161040e6123f7845192848181880195610b8b81838961412e565b8281519101208351908183201490811591612537575b506121a65760ff600a6040518481875161242881838961412e565b81016002815203019020015460b01c168061250b575b156124e8576124b760ff92600a926040517f10f4ba4c7bb6f0c442f54585004a6e24440bea5c2d2e6f36b688e3e624762e2233918061247e428b83614d15565b0390a2848460405184818a5161249581838961412e565b81016002815203019020015460b01c169560405193849283925192839161412e565b81016002815203019020015460b81c1690610490604051928392839092916020906040830194151583521515910152565b506105336040519283926348cddbdb60e11b84526004840152602483019061423d565b5060ff600a6040518481875161252281838961412e565b81016002815203019020015460b81c1661243e565b9050158461240d565b346103a05760203660031901126103a057612559613f9e565b6001600160a01b031660009081526000805160206151b5833981519152602090815260409182902054915160ff9092161515825290f35b346103a05760003660031901126103a05760206040516000805160206152358339815191528152f35b346103a05760003660031901126103a05760206040516000805160206152158339815191528152f35b346103a05760203660031901126103a0576125fb613f9e565b6001600160a01b0381169081156111325761261461442c565b61261d816143ab565b61128f5761262a90614614565b5060008051602061525583398151915260005260046020527f02ff85b9f193a3a7824cbaf5a79db262c0bac955152adf2752c6413d76b2d3c7805461266e90614cd8565b90557f4e3eede475de92d3e23765b737dbb67646352b3328c1a437d7f089766d7be7516020604051428152a2005b346103a05760203660031901126103a0576004356001600160401b0381116103a0576126cc903690600401614053565b60405181818093516020819301916126e39261412e565b810160028152036020019020604051806126fd81846141a7565b036127089082614032565b604051918261271a81600184016141a7565b036127259084614032565b6040518061273681600285016141a7565b036127419082614032565b604051918261275381600384016141a7565b0361275e9084614032565b6004810154600582015460405194918561277b81600687016141a7565b036127869087614032565b60078401546040516001600160a01b03979093918816929091846127ad8160088a016141a7565b036127b89086614032565b60405195866127ca8160098b016141a7565b036127d59088614032565b600a88015497600b0154986040519c8d9c8d61020090818152016127f89161423d565b8d810360208f01526128099161423d565b8c810360408e015261281a9161423d565b8b810360608d015261282b9161423d565b9160808b015260a08a015288810360c08a01526128479161423d565b9060e088015286810361010088015261285f9161423d565b8581036101208701526128719161423d565b9281166101408501528060a01c60ff1615156101608501528060a81c60ff1615156101808501528060b01c60ff1615156101a085015260b81c60ff1615156101c08401526101e08301520390f35b346103a05760003660031901126103a05760206040516000805160206151558339815191528152f35b346103a0576128f6366140a9565b3360009081526000805160206150d5833981519152602090815260409091205491929160ff16156107e957604051600160ff600a85519385818189019661293e81838a61412e565b81016002815203019020015460b01c161515146129be5791600a612992611d14937fa9de1934279a83f8cfaaecf6a7002ac10aeaea244c8c763f3752f3fc4c3e631d9560405180938192875192839161412e565b8101600281520301902001600160b01b60ff60b01b198254161790556040519182913395429184614caa565b5061053360405192839263c817400d60e01b84526004840152602483019061423d565b346103a05760203660031901126103a0576129fa613f9e565b6001600160a01b03811690811561113257612a1361442c565b612a1c81614380565b61128f57612a299061459d565b5060008051602061523583398151915260005260046020527fa792fa383e6bd9c6b4465bbfd8031f4b47377210fa121067c03906e9afac62468054612a6d90614cd8565b90557f4a02edd19f09212e54b2ac85d7d3a4a2e3fbf424e6710c3f817d9b4cecc9cdb36020604051428152a2005b346103a05760803660031901126103a0576001600160401b036004358181116103a057612acc903690600401614053565b602491823592604435918083116103a057366023840112156103a057826004013594612af786614262565b93612b056040519586614032565b868552602096848887019160051b830101913683116103a0578501905b828210612e4e575050506064359182116103a057366023830112156103a0578160040135612b4f81614262565b92612b5d6040519485614032565b818452848885019260051b820101913683116103a05785899201905b838210612e3f575050505060008051602061525583398151915260005260008652604060002033600052865260ff93846040600020541615612e2857610180612bc187614de6565b015115612dee578051835103612db6578115612d7e5760405187818851612beb8183858d0161412e565b8101600881520301902091612c008784614b01565b600183810180546001600160a01b0319163317905560048401805442600287015560ff60ff60b81b0119166001600160b81b011790556006840191909155948592600701906000845b612d11575b50505050505060095491600160401b831015612cfc57820180600955821015612ce8575090612cc5817f250d87dc011edb5ebb474599d748faa904e99846d065ed0e939f8e99c0deb2f79360096000527f6e1540171b6c0c960b71a7020d9f60077f6af931a8bbf590da0223dacf75c7af01614b01565b612cda6040519160408352604083019061423d565b9242908201528033930390a2005b634e487b7160e01b60009081526032600452fd5b50634e487b7160e01b60009081526041600452fd5b8351811015612d7957612d73906001600160a01b0380612d318388614d01565b5116600052600a8c52612d4a8460406000205416615058565b612d548289614d01565b5190612d608388614d01565b5116600052848c52604060002055614cd8565b84612c49565b612c4e565b60405162461bcd60e51b81526004810188905260118186015270496e76616c69642045544820707269636560781b6044820152606490fd5b60405162461bcd60e51b815260048101889052601181860152704d69736d6174636865642061727261797360781b6044820152606490fd5b60405162461bcd60e51b81526004810188905260138186015272135a5b995c985b081b9bdd081c99599a5b9959606a1b6044820152606490fd5b604051630568555f60e41b81523360048201528490fd5b81358152908201908201612b79565b81356001600160a01b03811681036103a0578152908801908801612b22565b346103a05760203660031901126103a057612e86613f9e565b3360009081527fad3228b676f7d3cd4284a5443f17f1962b36e491b30a40b2405849e597ba5fb5602052604090205460ff16156107e9576001600160a01b03168015612ee7576000908152600a60205260409020805460ff19166001179055005b60405162461bcd60e51b8152602060048201526015602482015274496e76616c696420746f6b656e206164647265737360581b6044820152606490fd5b346103a05760c03660031901126103a0576001600160401b036004358181116103a057612f55903690600401614053565b6024358281116103a057612f6d903690600401614053565b906064358381116103a057612f86903690600401614053565b9260a4359081116103a057612f9f903690600401614053565b336000908152600080516020615195833981519152602052604090205490929060ff16156107e95781511561353d578351156107c55780511561352b57604435156135195760843515801561350d575b6134fb57605060843511156134e1578251156134cf5760015461301181614cd8565b60015560405161305760748260208101948651613032818860208b0161412e565b8201903360601b60208301524260348301526054820152036054810184520182614032565b519020926040519361306885614017565b600a8552602036818701378451156134b957603060208601538451600110156134b9576078602186015360005b60048110613426575050610490946107747f73c819068ba25b88a32cb91f9b552ab50d9cccb7c4abdeb2a04f44373b715393936133f5936131176021604051809a85516130e9816020850160208a0161412e565b8201602d60f81b6020820152613108825180936020878501910161412e565b0103600181018b520189614032565b6040519061312482613fca565b888252876020830152846040830152826060830152604435608083015260843560a083015260c08201523360e082015260405161316081614017565b600381526252617760e81b602082015261010082015260405161318281614017565b600d81526c26b4b734b7339021b2b73a32b960991b6020820152610120820152336101408201526000610160820152600061018082015260006101a082015260006101c0820152426101e0820152600b6101e06131ee60208b816040519382858094519384920161412e565b8101600281520301902092613204815185614b01565b613215602082015160018601614b01565b613226604082015160028601614b01565b613237606082015160038601614b01565b6080810151600485015560a0810151600585015561325c60c082015160068601614b01565b60e08101516007850180546001600160a01b0319166001600160a01b039283161790556101008201516132929060088701614b01565b6132a461012083015160098701614b01565b600a8501906101408301511681549060ff60a01b610160850151151560a01b1660ff60a81b610180860151151560a81b169060ff60b01b6101a0870151151560b01b169260ff60b81b6101c0880151151560b81b16946001600160401b0360c01b161717171717905501519101556133c16040516020818161332c8c8381519384920161412e565b810160038152030190206040519067027b934b3b4b71d160c51b602083015261337360288388516133638184840160208d0161412e565b8101036008810185520183614032565b6040519161338083613ffc565b8a835260405161338f81614017565b600a815269149959da5cdd195c995960b21b602082015260208401526040830152336060830152426080830152614c10565b6133e76040519660e088526133d960e089018a61423d565b9088820360208a015261423d565b90868203604088015261423d565b91604435608082015260843560a08201524260c08201528033930390a260405191829160208352602083019061423d565b60208110156134b95781811a90600f613443818460041c16614d65565b908260011b9360028486048114851517156134a3578581018091116134a35761347361347a9460001a918c614d54565b5316614d65565b9160039081018091116134a35761349861349e9360001a9189614d54565b53614cd8565b613095565b634e487b7160e01b600052601160045260246000fd5b634e487b7160e01b600052603260045260246000fd5b60405163bfccc8e960e01b8152600490fd5b60405163d05db01960e01b81526084356004820152602490fd5b604051633abe7db760e21b8152600490fd5b50606460843511612fef565b60405163fd83f8d960e01b8152600490fd5b60405163a765e58f60e01b8152600490fd5b604051630ac6e45360e31b8152600490fd5b346103a05760403660031901126103a057613568613fb4565b336001600160a01b03821603613584576111d390600435614a9e565b60405163334bd91960e11b8152600490fd5b346103a05760403660031901126103a0576004356001600160401b0381116103a0576135c6903690600401614053565b6135e2602060243592816040519382858094519384920161412e565b8101600381520301902080548210156103a0576136719161360291614151565b506040519061361c8261361581846141a7565b0383614032565b6040516136308161040e81600186016141a7565b61368d6040516136478161040e81600288016141a7565b61367f600460018060a01b036003870154169501549360405197889760a0895260a089019061423d565b90878203602089015261423d565b90858203604087015261423d565b91606084015260808301520390f35b346103a05760203660031901126103a0576136b5613f9e565b6001600160a01b03166000908152600080516020615195833981519152602090815260409182902054915160ff9092161515825290f35b346103a0576136fa366140ef565b61370261442c565b61370b8261432a565b1561038e576103657f125f88db22967983b401f70f6804d47f43cb545fcb725d0b335fe7d43d9b4a4a9160008051602061521583398151915280600052600060205261375e600160406000200154614484565b6105bb856147e0565b346103a05760403660031901126103a0576111d3600435613786613fb4565b908060005260006020526137a1600160406000200154614484565b614779565b346103a05760203660031901126103a0576004356001600160401b0381116103a05760ff60046137df60206113ed819536908501614053565b81016008815203019020015460b81c166040519015158152f35b346103a05760203660031901126103a05760043560005260006020526020600160406000200154604051908152f35b346103a0576020806003193601126103a0576004356001600160401b0381116103a057613859903690600401614053565b906000805260008152604060002033600052815260ff60406000205416156107e95760405161040e613898845192848181880195610b8b81838961412e565b828151910120835190818320149081159161396e575b50610bf15760ff600a604051848187516138c981838961412e565b81016002815203019020015460b01c1680613942575b1561391f576124b760ff92600a926040517f10f4ba4c7bb6f0c442f54585004a6e24440bea5c2d2e6f36b688e3e624762e2233918061247e428b83614d15565b5061053360405192839263642b2f5b60e11b84526004840152602483019061423d565b5060ff600a6040518481875161395981838961412e565b81016002815203019020015460b81c166138df565b905015846138ae565b346103a057613985366140a9565b3360009081526000805160206151b583398151915260209081526040909120549192909160ff16156107e9576040519061040e6139cf825193858181860196610b8b81838a61412e565b8381519101208151908184201490811591613ad5575b50613ab257835115613aa057611d14613a9184613a58613a708860096119ff85613a849a613a5f848c7f81dbbd3ba646453a262e90d0495aadc4d783bab49b0a8be2cd84f220cae608bb9f604051809251613a4181838961412e565b8101600281520301902001604051988980926141a7565b0388614032565b604051809381928d5192839161412e565b60405195869560608752606087019061423d565b918583039086015261423d565b8281036040840152339561423d565b604051635b6571a560e01b8152600490fd5b8261053360405192839263f855236d60e01b84526004840152602483019061423d565b905015856139e5565b346103a0576020806003193601126103a0576004356001600160401b0381116103a057613b0f903690600401614053565b906000805160206151f583398151915260005260008152604060002033600052815260ff918260406000205416156107e95760405181519383830194613b5681848861412e565b8201906001816002938481528588600a97889303019020015460a01c16151514613db557600080526000855260406000203360005285528060406000205416156107e95761040e613bc9604051878180613bb48c8b5192839161412e565b810187815203019020604051928380926141a7565b8581519101208451908188201490811591613dac575b506121a6578083604051878180613bfa8c8b5192839161412e565b810187815203019020015460b01c1680613d81575b15613d5f576040517f10f4ba4c7bb6f0c442f54585004a6e24440bea5c2d2e6f36b688e3e624762e22339180613c46428983614d15565b0390a28083604051878180613c5f8c8b5192839161412e565b810187815203019020015460b01c169083604051878180613c848c8b5192839161412e565b810187815203019020015460b81c1681613d57575b5015613d3557837ffed1001c142a7ab386454a2f7d78b013ba7ff40595d10c128f2fb6463ccd7b7a9495613d07928460405184818951613cda81838961412e565b81018581520301902001805460ff60a01b1916600160a01b1790556040518651909485938290859061412e565b8201908152030190200180546001600160a01b031916331790556040805181815291612cda9183019061423d565b6040516348cddbdb60e11b81526004810185905280610533602482018661423d565b905086613c99565b6040516348cddbdb60e11b81526004810186905280610533602482018761423d565b508083604051878180613d988c8b5192839161412e565b810187815203019020015460b81c16613c0f565b90501587613bdf565b604051632072bb0160e11b81526004810186905280610533602482018761423d565b346103a05760203660031901126103a057613df0613f9e565b6001600160a01b03811690811561113257613e0961442c565b613e1281614355565b61128f57613e1f90614526565b506000805160206151f583398151915260005260046020527f5455ba4b8a75b33fa0f1f7affd9817680912f06b7b194bcf9ac01183c49300208054613e6390614cd8565b90557ff8ed9ac482b0f7c12999b3f157f758f84e39cd339fa301ea203823ac29e975056020604051428152a2005b346103a05760203660031901126103a057613eaa613f9e565b6001600160a01b03811690811561113257613ec361442c565b613ecc8161432a565b61128f57613ed9906144aa565b5060008051602061521583398151915260005260046020527f973ccc145476ef147b966a44694f8b2d26bac5a3d44a844fec6be696fe5fea708054613f1d90614cd8565b90557f593f046317558c2857b92915c62c99f2d2108f7bc6f1e1b3c5376cd559abf5596020604051428152a2005b346103a05760203660031901126103a0576004359063ffffffff60e01b82168092036103a057602091637965db0b60e01b8114908115613f8d575b5015158152f35b6301ffc9a760e01b14905083613f86565b600435906001600160a01b03821682036103a057565b602435906001600160a01b03821682036103a057565b61020081019081106001600160401b03821117613fe657604052565b634e487b7160e01b600052604160045260246000fd5b60a081019081106001600160401b03821117613fe657604052565b604081019081106001600160401b03821117613fe657604052565b90601f801991011681019081106001600160401b03821117613fe657604052565b81601f820112156103a0578035906001600160401b038211613fe65760405192614087601f8401601f191660200185614032565b828452602083830101116103a057816000926020809301838601378301015290565b9060406003198301126103a0576001600160401b036004358181116103a057836140d591600401614053565b926024359182116103a0576140ec91600401614053565b90565b9060406003198301126103a0576004356001600160a01b03811681036103a05791602435906001600160401b0382116103a0576140ec91600401614053565b60005b8381106141415750506000910152565b8181015183820152602001614131565b80548210156134b9576000526005602060002091020190600090565b90600182811c9216801561419d575b602083101461418757565b634e487b7160e01b600052602260045260246000fd5b91607f169161417c565b90600092918054916141b88361416d565b91828252600193848116908160001461421a57506001146141da575b50505050565b90919394506000526020928360002092846000945b8386106142065750505050010190388080806141d4565b8054858701830152940193859082016141ef565b9294505050602093945060ff191683830152151560051b010190388080806141d4565b906020916142568151809281855285808601910161412e565b601f01601f1916010190565b6001600160401b038111613fe65760051b60200190565b602080820190808352835180925260409283810182858560051b8401019601946000925b8584106142ae575050505050505090565b909192939495968580600192603f198582030187528a51906142fe6142ee6142de845160a080865285019061423d565b858501518482038786015261423d565b888401518382038a85015261423d565b916060868060a01b0381830151169083015260808091015191015299019401940192959493919061429d565b6001600160a01b03166000908152600080516020615195833981519152602052604090205460ff1690565b6001600160a01b03166000908152600080516020615115833981519152602052604090205460ff1690565b6001600160a01b031660009081526000805160206150d5833981519152602052604090205460ff1690565b6001600160a01b031660009081526000805160206151d5833981519152602052604090205460ff1690565b6001600160a01b031660009081526000805160206151b5833981519152602052604090205460ff1690565b6001600160a01b03166000908152600080516020615135833981519152602052604090205460ff1690565b3360009081527fad3228b676f7d3cd4284a5443f17f1962b36e491b30a40b2405849e597ba5fb5602052604081205460ff16156144665750565b6044906040519063e2517d3f60e01b82523360048301526024820152fd5b80600052600060205260406000203360005260205260ff60406000205416156144665750565b6001600160a01b0316600081815260008051602061519583398151915260205260408120549091906000805160206152158339815191529060ff1661452157808352826020526040832082845260205260408320600160ff198254161790556000805160206150f5833981519152339380a4600190565b505090565b6001600160a01b0316600081815260008051602061511583398151915260205260408120549091906000805160206151f58339815191529060ff1661452157808352826020526040832082845260205260408320600160ff198254161790556000805160206150f5833981519152339380a4600190565b6001600160a01b031660008181526000805160206150d583398151915260205260408120549091906000805160206152358339815191529060ff1661452157808352826020526040832082845260205260408320600160ff198254161790556000805160206150f5833981519152339380a4600190565b6001600160a01b031660008181526000805160206151d583398151915260205260408120549091906000805160206152558339815191529060ff1661452157808352826020526040832082845260205260408320600160ff198254161790556000805160206150f5833981519152339380a4600190565b6001600160a01b031660008181526000805160206151b583398151915260205260408120549091906000805160206151558339815191529060ff1661452157808352826020526040832082845260205260408320600160ff198254161790556000805160206150f5833981519152339380a4600190565b6001600160a01b0316600081815260008051602061513583398151915260205260408120549091906000805160206151758339815191529060ff1661452157808352826020526040832082845260205260408320600160ff198254161790556000805160206150f5833981519152339380a4600190565b9060009180835282602052604083209160018060a01b03169182845260205260ff6040842054161560001461452157808352826020526040832082845260205260408320600160ff198254161790556000805160206150f5833981519152339380a4600190565b6001600160a01b0316600081815260008051602061519583398151915260205260408120549091906000805160206152158339815191529060ff16156145215780835282602052604083208284526020526040832060ff198154169055600080516020615275833981519152339380a4600190565b6001600160a01b031660008181526000805160206151b583398151915260205260408120549091906000805160206151558339815191529060ff16156145215780835282602052604083208284526020526040832060ff198154169055600080516020615275833981519152339380a4600190565b6001600160a01b0316600081815260008051602061511583398151915260205260408120549091906000805160206151f58339815191529060ff16156145215780835282602052604083208284526020526040832060ff198154169055600080516020615275833981519152339380a4600190565b6001600160a01b0316600081815260008051602061513583398151915260205260408120549091906000805160206151758339815191529060ff16156145215780835282602052604083208284526020526040832060ff198154169055600080516020615275833981519152339380a4600190565b6001600160a01b031660008181526000805160206151d583398151915260205260408120549091906000805160206152558339815191529060ff16156145215780835282602052604083208284526020526040832060ff198154169055600080516020615275833981519152339380a4600190565b6001600160a01b031660008181526000805160206150d583398151915260205260408120549091906000805160206152358339815191529060ff16156145215780835282602052604083208284526020526040832060ff198154169055600080516020615275833981519152339380a4600190565b9060009180835282602052604083209160018060a01b03169182845260205260ff6040842054166000146145215780835282602052604083208284526020526040832060ff198154169055600080516020615275833981519152339380a4600190565b91909182516001600160401b038111613fe657614b1e825461416d565b601f8111614bc8575b50602080601f8311600114614b64575081929394600092614b59575b50508160011b916000199060031b1c1916179055565b015190503880614b43565b90601f198316958460005282600020926000905b888210614bb057505083600195969710614b97575b505050811b019055565b015160001960f88460031b161c19169055388080614b8d565b80600185968294968601518155019501930190614b78565b600083815260208120601f840160051c81019260208510614c06575b601f0160051c01915b828110614bfb575050614b27565b818155600101614bed565b9092508290614be4565b8054600160401b811015613fe657614c2d91600182018155614151565b919091614c9457608081614c446004935185614b01565b614c55602082015160018601614b01565b614c66604082015160028601614b01565b6003840160018060a01b036060830151166bffffffffffffffffffffffff60a01b8254161790550151910155565b634e487b7160e01b600052600060045260246000fd5b939291614cd390614cc560409360608852606088019061423d565b90868203602088015261423d565b930152565b60001981146134a35760010190565b80156134a3576000190190565b8051156134b95760200190565b80518210156134b95760209160051b010190565b9291906040614d2d819260608752606087019061423d565b8581036020870152600c81526b54726164696e67526561647960a01b602082015201930152565b9081518110156134b9570160200190565b60009060ff16600a811015614d9157603091500160ff81116134a35760f81b6001600160f81b03191690565b60610160ff8111614dd25760ff6009199116019060ff8211614dbe575060f81b6001600160f81b03191690565b634e487b7160e01b81526011600452602490fd5b634e487b7160e01b82526011600452602482fd5b6040805190614df482613fca565b816060918282526020948386840152838284015283808401526000908160808501528160a08501528460c08501528160e085015261010092858486015261012086818701526101409084828801526101609285848901528a6101809587878b01526101a09780898c0152806101c0809c01526101e0809d015261040e614e9d84518351948181860196614e8881838a61412e565b810160028152030190208551928380926141a7565b8d8151910120815190818420149081159161504f575b5061502d578c90835180938192518092614ecc9261412e565b81016002815203019020988982519c614ee48e613fca565b83518e81614ef281866141a7565b03614efd9083614032565b52835180600181940190614f10916141a7565b03614f1b9083614032565b8d0152815180614f2e8160028e016141a7565b03614f399082614032565b8c83015281519081614f4e8160038e016141a7565b03614f599083614032565b8c0152600489015460808c0152600589015460a08c0152805180614f808160068d016141a7565b03614f8b9082614032565b60c08c015260078901546001600160a01b0390811660e08d01528151909781614fb78160088e016141a7565b03614fc29083614032565b8c0152519081614fd58160098c016141a7565b03614fe09083614032565b8a0152600a870154948516908901528360a01c60ff161515908801528260a81c60ff161515908701528160b01c60ff1615159086015260b81c60ff16151590840152600b01549082015290565b8c610533845192839263f855236d60e01b84526004840152602483019061423d565b90501538614eb3565b1561505f57565b60405162461bcd60e51b8152602060048201526012602482015271151bdad95b881b9bdd081858d8d95c1d195960721b6044820152606490fd5b156150a057565b60405162461bcd60e51b815260206004820152600c60248201526b105b1c9958591e481cdbdb1960a21b6044820152606490fdfe0d2d6a5d08cb5d871289c0a3ca855d9da72909a111c24cce2d5c2b34a20daa542f8788117e7eff1d82e926ec794901d17c78024a50270940304540a733656f0df3fa603c74bfe2a4719960e47343678c3dc690d2b27a2295acc6fc430833aaf9acfff8a39fb957d9d1c8e3ef9f08385e3fcf7bb23ab7ba0ad0f8df93dbde6a68ddaa901e2fe3bda354fe0ede2785152d5c109282a613fe024a056a3e66c41bb3273dcf2136c7d8ef632bb8ef13dbca69a8f36fa620c7468671b3153d46a211c0bb3fcc25fbffa12ea463b3505377899a4d5ddb4858b9c7bd36764686d9425b36bce5fd3347e0dc338dcc0e895534dd4af2740eec95f56cd4ca4b4b2ada357ca04130a4caca6023b0ba21488ee680ce5c3df22860b1cd8b02cd2a0bcb0de98851f8cd32ed93fc2f9fc78152a14807c9609af3d99c5fe4dc6b106a801aaddfe90ea952726ef2588ad078edf35b066f7c7406e207cb0003bbaba8cb53eba9553e7259a1c48e5837ad7a7f3dcedcbe129bf3249ec4fbf651fd4f5e2600ead39fe2f5a977e1a3444218ff332edf735c56487bbe59922b15c88777d443eb8b78020f4df6391f5c32d9c69d2a47ea670b442974b53935d1edc7fd64eb21e047a839171ba2646970667358221220ff1b0c0e2ba6d7f40132414f3975e06cf767a93157636f067950fe9fa01e905064736f6c634300081400332f8788117e7eff1d82e926ec794901d17c78024a50270940304540a733656f0dddaa901e2fe3bda354fe0ede2785152d5c109282a613fe024a056a3e66c41bb3273dcf2136c7d8ef632bb8ef13dbca69a8f36fa620c7468671b3153d46a211c0f8cd32ed93fc2f9fc78152a14807c9609af3d99c5fe4dc6b106a801aaddfe90ea977e1a3444218ff332edf735c56487bbe59922b15c88777d443eb8b78020f4d","opcodes":"PUSH1 0x80 CALLVALUE PUSH3 0x3D7 JUMPI PUSH3 0x5B61 SWAP1 PUSH1 0x1F CODESIZE DUP4 SWAP1 SUB SWAP1 DUP2 ADD PUSH1 0x1F NOT AND DUP3 ADD SWAP1 PUSH1 0x1 PUSH1 0x1 PUSH1 0x40 SHL SUB DUP3 GT DUP4 DUP4 LT OR PUSH3 0x3DC JUMPI DUP1 DUP4 SWAP2 PUSH1 0x40 SWAP6 DUP7 SWAP5 DUP6 MSTORE DUP4 CODECOPY DUP2 ADD SUB SLT PUSH3 0x3D7 JUMPI PUSH3 0x4F DUP2 PUSH3 0x3F2 JUMP JUMPDEST PUSH3 0x5E PUSH1 0x20 DUP1 SWAP4 ADD PUSH3 0x3F2 JUMP JUMPDEST SWAP2 NUMBER TIMESTAMP ADD DUP1 TIMESTAMP GT PUSH3 0x3C1 JUMPI PUSH1 0x1 SWAP1 DUP2 SSTORE PUSH3 0x7A CALLER PUSH3 0x407 JUMP JUMPDEST POP PUSH1 0x0 DUP1 DUP1 MSTORE PUSH1 0x4 DUP1 DUP5 MSTORE DUP7 DUP3 KECCAK256 DUP1 SLOAD PUSH1 0x0 NOT SWAP2 SWAP1 DUP3 DUP2 EQ PUSH3 0x39B JUMPI DUP6 ADD SWAP1 SSTORE DUP3 DUP1 MSTORE DUP2 DUP6 MSTORE DUP4 DUP9 DUP5 KECCAK256 SSTORE DUP8 MLOAD TIMESTAMP DUP2 MSTORE PUSH32 0x458EA7E03B3466B3CF9BC2D66DDEA8B11FE9469982816F42666888E6C8C6E664 DUP7 CALLER SWAP3 LOG2 PUSH3 0xDB CALLER PUSH3 0x487 JUMP JUMPDEST POP PUSH32 0xA952726EF2588AD078EDF35B066F7C7406E207CB0003BBABA8CB53EBA9553E72 DUP1 DUP5 MSTORE DUP3 DUP7 MSTORE DUP9 DUP5 KECCAK256 DUP1 SLOAD DUP4 DUP2 EQ PUSH3 0x3AE JUMPI DUP7 ADD SWAP1 SSTORE DUP4 MSTORE DUP2 DUP6 MSTORE DUP4 DUP9 DUP5 KECCAK256 SSTORE DUP8 MLOAD TIMESTAMP DUP2 MSTORE PUSH32 0x593F046317558C2857B92915C62C99F2D2108F7BC6F1E1B3C5376CD559ABF559 DUP7 CALLER SWAP3 LOG2 PUSH3 0x153 CALLER PUSH3 0x529 JUMP JUMPDEST POP PUSH32 0x59A1C48E5837AD7A7F3DCEDCBE129BF3249EC4FBF651FD4F5E2600EAD39FE2F5 DUP1 DUP5 MSTORE DUP3 DUP7 MSTORE DUP9 DUP5 KECCAK256 DUP1 SLOAD DUP4 DUP2 EQ PUSH3 0x3AE JUMPI DUP7 ADD SWAP1 SSTORE DUP4 MSTORE DUP2 DUP6 MSTORE DUP4 DUP9 DUP5 KECCAK256 SSTORE DUP8 MLOAD TIMESTAMP DUP2 MSTORE PUSH32 0x4A02EDD19F09212E54B2AC85D7D3A4A2E3FBF424E6710C3F817D9B4CECC9CDB3 DUP7 CALLER SWAP3 LOG2 PUSH3 0x1CB CALLER PUSH3 0x5C6 JUMP JUMPDEST POP PUSH1 0x0 DUP1 MLOAD PUSH1 0x20 PUSH3 0x5B01 DUP4 CODECOPY DUP2 MLOAD SWAP2 MSTORE DUP1 DUP5 MSTORE DUP3 DUP7 MSTORE DUP9 DUP5 KECCAK256 DUP1 SLOAD DUP4 DUP2 EQ PUSH3 0x3AE JUMPI DUP7 ADD SWAP1 SSTORE DUP4 MSTORE DUP2 DUP6 MSTORE DUP4 DUP9 DUP5 KECCAK256 SSTORE DUP8 MLOAD TIMESTAMP DUP2 MSTORE PUSH32 0x49CC27C2A068C01CF703C3923DFC679109B5F6C27BD1F61B542C159E3A73E092 DUP7 CALLER SWAP3 LOG2 PUSH3 0x232 CALLER PUSH3 0x652 JUMP JUMPDEST POP PUSH1 0x0 DUP1 MLOAD PUSH1 0x20 PUSH3 0x5B21 DUP4 CODECOPY DUP2 MLOAD SWAP2 MSTORE DUP1 DUP5 MSTORE DUP3 DUP7 MSTORE DUP9 DUP5 KECCAK256 DUP1 SLOAD DUP4 DUP2 EQ PUSH3 0x3AE JUMPI DUP7 ADD SWAP1 SSTORE DUP4 MSTORE DUP2 DUP6 MSTORE DUP4 DUP9 DUP5 KECCAK256 SSTORE DUP8 MLOAD TIMESTAMP DUP2 MSTORE PUSH32 0xF8ED9AC482B0F7C12999B3F157F758F84E39CD339FA301EA203823AC29E97505 DUP7 CALLER SWAP3 LOG2 PUSH3 0x299 CALLER PUSH3 0x6DE JUMP JUMPDEST POP PUSH1 0x0 DUP1 MLOAD PUSH1 0x20 PUSH3 0x5B41 DUP4 CODECOPY DUP2 MLOAD SWAP2 MSTORE DUP1 DUP5 MSTORE DUP3 DUP7 MSTORE DUP9 DUP5 KECCAK256 DUP1 SLOAD DUP4 DUP2 EQ PUSH3 0x3AE JUMPI DUP7 ADD SWAP1 SSTORE DUP4 MSTORE DUP2 DUP6 MSTORE DUP4 DUP9 DUP5 KECCAK256 SSTORE DUP8 MLOAD TIMESTAMP DUP2 MSTORE PUSH32 0x4E3EEDE475DE92D3E23765B737DBB67646352B3328C1A437D7F089766D7BE751 DUP7 CALLER SWAP3 LOG2 PUSH3 0x300 CALLER PUSH3 0x76A JUMP JUMPDEST POP PUSH1 0x0 DUP1 MLOAD PUSH1 0x20 PUSH3 0x5AE1 DUP4 CODECOPY DUP2 MLOAD SWAP2 MSTORE SWAP1 DUP2 DUP5 MSTORE DUP3 DUP7 MSTORE DUP9 DUP5 KECCAK256 SWAP1 DUP2 SLOAD SWAP1 DUP2 EQ PUSH3 0x39B JUMPI DUP6 ADD SWAP1 SSTORE DUP3 MSTORE DUP4 MSTORE DUP6 SWAP1 KECCAK256 SSTORE DUP4 MLOAD TIMESTAMP DUP2 MSTORE CALLER SWAP2 PUSH32 0x964E50CB3BDB84C00A30F56AE15D538D23DC6DB14F891D7D819761B161E990A6 SWAP2 LOG2 PUSH1 0x1 DUP1 PUSH1 0xA0 SHL SUB DUP1 SWAP2 AND SWAP2 PUSH1 0x1 DUP1 PUSH1 0xA0 SHL SUB NOT SWAP3 DUP1 DUP5 PUSH1 0x5 SLOAD AND OR PUSH1 0x5 SSTORE DUP4 PUSH1 0x7 SLOAD AND OR PUSH1 0x7 SSTORE AND SWAP1 PUSH1 0x6 SLOAD AND OR PUSH1 0x6 SSTORE MLOAD PUSH2 0x52CA SWAP1 DUP2 PUSH3 0x7F7 DUP3 CODECOPY RETURN JUMPDEST PUSH4 0x4E487B71 PUSH1 0xE0 SHL DUP6 MSTORE PUSH1 0x11 DUP5 MSTORE PUSH1 0x24 DUP6 REVERT JUMPDEST PUSH4 0x4E487B71 PUSH1 0xE0 SHL DUP7 MSTORE PUSH1 0x11 DUP6 MSTORE PUSH1 0x24 DUP7 REVERT JUMPDEST PUSH4 0x4E487B71 PUSH1 0xE0 SHL PUSH1 0x0 MSTORE PUSH1 0x11 PUSH1 0x4 MSTORE PUSH1 0x24 PUSH1 0x0 REVERT JUMPDEST PUSH1 0x0 DUP1 REVERT JUMPDEST PUSH4 0x4E487B71 PUSH1 0xE0 SHL PUSH1 0x0 MSTORE PUSH1 0x41 PUSH1 0x4 MSTORE PUSH1 0x24 PUSH1 0x0 REVERT JUMPDEST MLOAD SWAP1 PUSH1 0x1 PUSH1 0x1 PUSH1 0xA0 SHL SUB DUP3 AND DUP3 SUB PUSH3 0x3D7 JUMPI JUMP JUMPDEST PUSH1 0x1 PUSH1 0x1 PUSH1 0xA0 SHL SUB AND PUSH1 0x0 DUP2 DUP2 MSTORE PUSH32 0xAD3228B676F7D3CD4284A5443F17F1962B36E491B30A40B2405849E597BA5FB5 PUSH1 0x20 MSTORE PUSH1 0x40 DUP2 KECCAK256 SLOAD SWAP1 SWAP2 SWAP1 PUSH1 0xFF AND PUSH3 0x483 JUMPI DUP2 DUP1 MSTORE DUP2 PUSH1 0x20 MSTORE PUSH1 0x40 DUP3 KECCAK256 DUP2 DUP4 MSTORE PUSH1 0x20 MSTORE PUSH1 0x40 DUP3 KECCAK256 PUSH1 0x1 PUSH1 0xFF NOT DUP3 SLOAD AND OR SWAP1 SSTORE CALLER SWAP2 PUSH1 0x0 DUP1 MLOAD PUSH1 0x20 PUSH3 0x5AC1 DUP4 CODECOPY DUP2 MLOAD SWAP2 MSTORE DUP2 DUP1 LOG4 PUSH1 0x1 SWAP1 JUMP JUMPDEST POP SWAP1 JUMP JUMPDEST PUSH1 0x1 PUSH1 0x1 PUSH1 0xA0 SHL SUB AND PUSH1 0x0 DUP2 DUP2 MSTORE PUSH32 0xBB3FCC25FBFFA12EA463B3505377899A4D5DDB4858B9C7BD36764686D9425B36 PUSH1 0x20 MSTORE PUSH1 0x40 DUP2 KECCAK256 SLOAD SWAP1 SWAP2 SWAP1 PUSH32 0xA952726EF2588AD078EDF35B066F7C7406E207CB0003BBABA8CB53EBA9553E72 SWAP1 PUSH1 0xFF AND PUSH3 0x524 JUMPI DUP1 DUP4 MSTORE DUP3 PUSH1 0x20 MSTORE PUSH1 0x40 DUP4 KECCAK256 DUP3 DUP5 MSTORE PUSH1 0x20 MSTORE PUSH1 0x40 DUP4 KECCAK256 PUSH1 0x1 PUSH1 0xFF NOT DUP3 SLOAD AND OR SWAP1 SSTORE PUSH1 0x0 DUP1 MLOAD PUSH1 0x20 PUSH3 0x5AC1 DUP4 CODECOPY DUP2 MLOAD SWAP2 MSTORE CALLER SWAP4 DUP1 LOG4 PUSH1 0x1 SWAP1 JUMP JUMPDEST POP POP SWAP1 JUMP JUMPDEST PUSH1 0x1 PUSH1 0x1 PUSH1 0xA0 SHL SUB AND PUSH1 0x0 DUP2 DUP2 MSTORE PUSH32 0xD2D6A5D08CB5D871289C0A3CA855D9DA72909A111C24CCE2D5C2B34A20DAA54 PUSH1 0x20 MSTORE PUSH1 0x40 DUP2 KECCAK256 SLOAD SWAP1 SWAP2 SWAP1 PUSH32 0x59A1C48E5837AD7A7F3DCEDCBE129BF3249EC4FBF651FD4F5E2600EAD39FE2F5 SWAP1 PUSH1 0xFF AND PUSH3 0x524 JUMPI DUP1 DUP4 MSTORE DUP3 PUSH1 0x20 MSTORE PUSH1 0x40 DUP4 KECCAK256 DUP3 DUP5 MSTORE PUSH1 0x20 MSTORE PUSH1 0x40 DUP4 KECCAK256 PUSH1 0x1 PUSH1 0xFF NOT DUP3 SLOAD AND OR SWAP1 SSTORE PUSH1 0x0 DUP1 MLOAD PUSH1 0x20 PUSH3 0x5AC1 DUP4 CODECOPY DUP2 MLOAD SWAP2 MSTORE CALLER SWAP4 DUP1 LOG4 PUSH1 0x1 SWAP1 JUMP JUMPDEST PUSH1 0x1 PUSH1 0x1 PUSH1 0xA0 SHL SUB AND PUSH1 0x0 DUP2 DUP2 MSTORE PUSH32 0xACFFF8A39FB957D9D1C8E3EF9F08385E3FCF7BB23AB7BA0AD0F8DF93DBDE6A68 PUSH1 0x20 MSTORE PUSH1 0x40 DUP2 KECCAK256 SLOAD SWAP1 SWAP2 SWAP1 PUSH1 0x0 DUP1 MLOAD PUSH1 0x20 PUSH3 0x5B01 DUP4 CODECOPY DUP2 MLOAD SWAP2 MSTORE SWAP1 PUSH1 0xFF AND PUSH3 0x524 JUMPI DUP1 DUP4 MSTORE DUP3 PUSH1 0x20 MSTORE PUSH1 0x40 DUP4 KECCAK256 DUP3 DUP5 MSTORE PUSH1 0x20 MSTORE PUSH1 0x40 DUP4 KECCAK256 PUSH1 0x1 PUSH1 0xFF NOT DUP3 SLOAD AND OR SWAP1 SSTORE PUSH1 0x0 DUP1 MLOAD PUSH1 0x20 PUSH3 0x5AC1 DUP4 CODECOPY DUP2 MLOAD SWAP2 MSTORE CALLER SWAP4 DUP1 LOG4 PUSH1 0x1 SWAP1 JUMP JUMPDEST PUSH1 0x1 PUSH1 0x1 PUSH1 0xA0 SHL SUB AND PUSH1 0x0 DUP2 DUP2 MSTORE PUSH32 0xF3FA603C74BFE2A4719960E47343678C3DC690D2B27A2295ACC6FC430833AAF9 PUSH1 0x20 MSTORE PUSH1 0x40 DUP2 KECCAK256 SLOAD SWAP1 SWAP2 SWAP1 PUSH1 0x0 DUP1 MLOAD PUSH1 0x20 PUSH3 0x5B21 DUP4 CODECOPY DUP2 MLOAD SWAP2 MSTORE SWAP1 PUSH1 0xFF AND PUSH3 0x524 JUMPI DUP1 DUP4 MSTORE DUP3 PUSH1 0x20 MSTORE PUSH1 0x40 DUP4 KECCAK256 DUP3 DUP5 MSTORE PUSH1 0x20 MSTORE PUSH1 0x40 DUP4 KECCAK256 PUSH1 0x1 PUSH1 0xFF NOT DUP3 SLOAD AND OR SWAP1 SSTORE PUSH1 0x0 DUP1 MLOAD PUSH1 0x20 PUSH3 0x5AC1 DUP4 CODECOPY DUP2 MLOAD SWAP2 MSTORE CALLER SWAP4 DUP1 LOG4 PUSH1 0x1 SWAP1 JUMP JUMPDEST PUSH1 0x1 PUSH1 0x1 PUSH1 0xA0 SHL SUB AND PUSH1 0x0 DUP2 DUP2 MSTORE PUSH32 0x4130A4CACA6023B0BA21488EE680CE5C3DF22860B1CD8B02CD2A0BCB0DE98851 PUSH1 0x20 MSTORE PUSH1 0x40 DUP2 KECCAK256 SLOAD SWAP1 SWAP2 SWAP1 PUSH1 0x0 DUP1 MLOAD PUSH1 0x20 PUSH3 0x5B41 DUP4 CODECOPY DUP2 MLOAD SWAP2 MSTORE SWAP1 PUSH1 0xFF AND PUSH3 0x524 JUMPI DUP1 DUP4 MSTORE DUP3 PUSH1 0x20 MSTORE PUSH1 0x40 DUP4 KECCAK256 DUP3 DUP5 MSTORE PUSH1 0x20 MSTORE PUSH1 0x40 DUP4 KECCAK256 PUSH1 0x1 PUSH1 0xFF NOT DUP3 SLOAD AND OR SWAP1 SSTORE PUSH1 0x0 DUP1 MLOAD PUSH1 0x20 PUSH3 0x5AC1 DUP4 CODECOPY DUP2 MLOAD SWAP2 MSTORE CALLER SWAP4 DUP1 LOG4 PUSH1 0x1 SWAP1 JUMP JUMPDEST PUSH1 0x1 PUSH1 0x1 PUSH1 0xA0 SHL SUB AND PUSH1 0x0 DUP2 DUP2 MSTORE PUSH32 0xBCE5FD3347E0DC338DCC0E895534DD4AF2740EEC95F56CD4CA4B4B2ADA357CA0 PUSH1 0x20 MSTORE PUSH1 0x40 DUP2 KECCAK256 SLOAD SWAP1 SWAP2 SWAP1 PUSH1 0x0 DUP1 MLOAD PUSH1 0x20 PUSH3 0x5AE1 DUP4 CODECOPY DUP2 MLOAD SWAP2 MSTORE SWAP1 PUSH1 0xFF AND PUSH3 0x524 JUMPI DUP1 DUP4 MSTORE DUP3 PUSH1 0x20 MSTORE PUSH1 0x40 DUP4 KECCAK256 DUP3 DUP5 MSTORE PUSH1 0x20 MSTORE PUSH1 0x40 DUP4 KECCAK256 PUSH1 0x1 PUSH1 0xFF NOT DUP3 SLOAD AND OR SWAP1 SSTORE PUSH1 0x0 DUP1 MLOAD PUSH1 0x20 PUSH3 0x5AC1 DUP4 CODECOPY DUP2 MLOAD SWAP2 MSTORE CALLER SWAP4 DUP1 LOG4 PUSH1 0x1 SWAP1 JUMP INVALID PUSH1 0x80 DUP1 PUSH1 0x40 MSTORE PUSH1 0x4 CALLDATASIZE LT ISZERO PUSH2 0x13 JUMPI PUSH1 0x0 DUP1 REVERT JUMPDEST PUSH1 0x0 CALLDATALOAD PUSH1 0xE0 SHR SWAP1 DUP2 PUSH4 0x1FFC9A7 EQ PUSH2 0x3F4B JUMPI POP DUP1 PUSH4 0x958FC2D EQ PUSH2 0x3E91 JUMPI DUP1 PUSH4 0xDACAD2E EQ PUSH2 0x3DD7 JUMPI DUP1 PUSH4 0x126EE338 EQ PUSH2 0x3ADE JUMPI DUP1 PUSH4 0x129B5C45 EQ PUSH2 0x3977 JUMPI DUP1 PUSH4 0x1C7588FC EQ PUSH2 0x3828 JUMPI DUP1 PUSH4 0x248A9CA3 EQ PUSH2 0x37F9 JUMPI DUP1 PUSH4 0x2BA3E5AC EQ PUSH2 0x37A6 JUMPI DUP1 PUSH4 0x2F2FF15D EQ PUSH2 0x3767 JUMPI DUP1 PUSH4 0x309514DF EQ PUSH2 0x36EC JUMPI DUP1 PUSH4 0x3499C3A2 EQ PUSH2 0x369C JUMPI DUP1 PUSH4 0x35BA6207 EQ PUSH2 0x3596 JUMPI DUP1 PUSH4 0x36568ABE EQ PUSH2 0x354F JUMPI DUP1 PUSH4 0x3A7ADEA5 EQ PUSH2 0x2F24 JUMPI DUP1 PUSH4 0x3EEE83F1 EQ PUSH2 0x2E6D JUMPI DUP1 PUSH4 0x43D990D8 EQ PUSH2 0x2A9B JUMPI DUP1 PUSH4 0x480D1DD3 EQ PUSH2 0x29E1 JUMPI DUP1 PUSH4 0x4E2A3109 EQ PUSH2 0x28E8 JUMPI DUP1 PUSH4 0x4EABBE77 EQ PUSH2 0x28BF JUMPI DUP1 PUSH4 0x5AEE1B15 EQ PUSH2 0x269C JUMPI DUP1 PUSH4 0x6377741D EQ PUSH2 0x25E2 JUMPI DUP1 PUSH4 0x6394F6E6 EQ PUSH2 0x25B9 JUMPI DUP1 PUSH4 0x6E1D616E EQ PUSH2 0x2590 JUMPI DUP1 PUSH4 0x70E22E42 EQ PUSH2 0x2540 JUMPI DUP1 PUSH4 0x75A2B0D4 EQ PUSH2 0x2387 JUMPI DUP1 PUSH4 0x79451CD7 EQ PUSH2 0x235E JUMPI DUP1 PUSH4 0x7A01A1DA EQ PUSH2 0x2335 JUMPI DUP1 PUSH4 0x7AE9C160 EQ PUSH2 0x22BA JUMPI DUP1 PUSH4 0x7CDE2B99 EQ PUSH2 0x21C1 JUMPI DUP1 PUSH4 0x826FE0F5 EQ PUSH2 0x2061 JUMPI DUP1 PUSH4 0x82DC4A05 EQ PUSH2 0x2022 JUMPI DUP1 PUSH4 0x8604D288 EQ PUSH2 0x1E81 JUMPI DUP1 PUSH4 0x8850845F EQ PUSH2 0x1E31 JUMPI DUP1 PUSH4 0x91D14854 EQ PUSH2 0x1DE4 JUMPI DUP1 PUSH4 0x981642C6 EQ PUSH2 0x1D3C JUMPI DUP1 PUSH4 0x99691194 EQ PUSH2 0x1C3E JUMPI DUP1 PUSH4 0x9B188DD6 EQ PUSH2 0x1BC3 JUMPI DUP1 PUSH4 0xA217FDDF EQ PUSH2 0x1BA7 JUMPI DUP1 PUSH4 0xA354AEC7 EQ PUSH2 0x1926 JUMPI DUP1 PUSH4 0xA672D987 EQ PUSH2 0x17C1 JUMPI DUP1 PUSH4 0xA917601B EQ PUSH2 0x1707 JUMPI DUP1 PUSH4 0xABAA536F EQ PUSH2 0x16B7 JUMPI DUP1 PUSH4 0xAC851DFD EQ PUSH2 0x1625 JUMPI DUP1 PUSH4 0xB6BA1CA7 EQ PUSH2 0x15F9 JUMPI DUP1 PUSH4 0xB9C5B833 EQ PUSH2 0x14D4 JUMPI DUP1 PUSH4 0xBEAE4615 EQ PUSH2 0x1484 JUMPI DUP1 PUSH4 0xC395FCB3 EQ PUSH2 0x1422 JUMPI DUP1 PUSH4 0xC5DB94BE EQ PUSH2 0x138B JUMPI DUP1 PUSH4 0xCA15C873 EQ PUSH2 0x12A1 JUMPI DUP1 PUSH4 0xCC82B090 EQ PUSH2 0x11D5 JUMPI DUP1 PUSH4 0xD547741F EQ PUSH2 0x1194 JUMPI DUP1 PUSH4 0xDE7CE391 EQ PUSH2 0x1144 JUMPI DUP1 PUSH4 0xDF422BF2 EQ PUSH2 0xC1D JUMPI DUP1 PUSH4 0xE2E3EDEB EQ PUSH2 0xB3C JUMPI DUP1 PUSH4 0xE3A3C522 EQ PUSH2 0xB13 JUMPI DUP1 PUSH4 0xE438FDF8 EQ PUSH2 0xA98 JUMPI DUP1 PUSH4 0xEF4C0C94 EQ PUSH2 0x801 JUMPI DUP1 PUSH4 0xF17F3523 EQ PUSH2 0x5F8 JUMPI DUP1 PUSH4 0xF5716A85 EQ PUSH2 0x540 JUMPI DUP1 PUSH4 0xF6E2314B EQ PUSH2 0x3A5 JUMPI PUSH4 0xFC1032EB EQ PUSH2 0x2BE JUMPI PUSH1 0x0 DUP1 REVERT JUMPDEST CALLVALUE PUSH2 0x3A0 JUMPI PUSH2 0x2CC CALLDATASIZE PUSH2 0x40EF JUMP JUMPDEST PUSH2 0x2D4 PUSH2 0x442C JUMP JUMPDEST PUSH2 0x2DD DUP3 PUSH2 0x4380 JUMP JUMPDEST ISZERO PUSH2 0x38E JUMPI PUSH2 0x365 PUSH32 0x93E936184FAD9F80C7000AA987F91BE0CD621BACDE11839FDC7139F3D9C2407B SWAP2 PUSH1 0x0 DUP1 MLOAD PUSH1 0x20 PUSH2 0x5235 DUP4 CODECOPY DUP2 MLOAD SWAP2 MSTORE DUP1 PUSH1 0x0 MSTORE PUSH1 0x0 PUSH1 0x20 MSTORE PUSH2 0x330 PUSH1 0x1 PUSH1 0x40 PUSH1 0x0 KECCAK256 ADD SLOAD PUSH2 0x4484 JUMP JUMPDEST PUSH2 0x339 DUP6 PUSH2 0x4A29 JUMP JUMPDEST POP PUSH1 0x0 MSTORE PUSH1 0x4 PUSH1 0x20 MSTORE PUSH1 0x40 PUSH1 0x0 KECCAK256 DUP1 SLOAD DUP1 PUSH2 0x37C JUMPI JUMPDEST POP POP PUSH1 0x40 MLOAD SWAP2 DUP3 SWAP2 PUSH1 0x40 DUP4 MSTORE PUSH1 0x40 DUP4 ADD SWAP1 PUSH2 0x423D JUMP JUMPDEST TIMESTAMP PUSH1 0x20 DUP4 ADD MSTORE PUSH1 0x1 PUSH1 0x1 PUSH1 0xA0 SHL SUB SWAP1 SWAP5 AND SWAP4 SUB SWAP1 LOG2 STOP JUMPDEST PUSH2 0x385 SWAP1 PUSH2 0x4CE7 JUMP JUMPDEST SWAP1 SSTORE CODESIZE DUP1 PUSH2 0x34F JUMP JUMPDEST PUSH1 0x40 MLOAD PUSH4 0x2AC15605 PUSH1 0xE2 SHL DUP2 MSTORE PUSH1 0x4 SWAP1 REVERT JUMPDEST PUSH1 0x0 DUP1 REVERT JUMPDEST CALLVALUE PUSH2 0x3A0 JUMPI PUSH1 0x20 DUP1 PUSH1 0x3 NOT CALLDATASIZE ADD SLT PUSH2 0x3A0 JUMPI PUSH1 0x4 CALLDATALOAD PUSH1 0x1 PUSH1 0x1 PUSH1 0x40 SHL SUB DUP2 GT PUSH2 0x3A0 JUMPI PUSH2 0x3D6 SWAP1 CALLDATASIZE SWAP1 PUSH1 0x4 ADD PUSH2 0x4053 JUMP JUMPDEST SWAP1 PUSH1 0x40 MLOAD SWAP1 DUP3 MLOAD SWAP3 PUSH2 0x40E PUSH2 0x415 DUP4 DUP4 ADD SWAP6 PUSH2 0x3F3 DUP2 DUP8 DUP10 PUSH2 0x412E JUMP JUMPDEST DUP6 ADD SWAP5 DUP5 DUP2 PUSH1 0x2 SWAP8 DUP9 DUP2 MSTORE SUB ADD SWAP1 KECCAK256 PUSH1 0x40 MLOAD SWAP3 DUP4 DUP1 SWAP3 PUSH2 0x41A7 JUMP JUMPDEST SUB DUP3 PUSH2 0x4032 JUMP JUMPDEST DUP3 DUP2 MLOAD SWAP2 ADD KECCAK256 DUP2 MLOAD SWAP1 DUP2 DUP7 KECCAK256 EQ SWAP1 DUP2 ISZERO SWAP2 PUSH2 0x537 JUMPI JUMPDEST POP PUSH2 0x510 JUMPI PUSH2 0x442 PUSH1 0x40 MLOAD SWAP5 DUP6 SWAP3 MLOAD SWAP3 DUP4 SWAP2 PUSH2 0x412E JUMP JUMPDEST DUP4 ADD SWAP3 DUP2 DUP2 PUSH1 0x3 SWAP6 DUP7 DUP2 MSTORE SUB ADD SWAP1 KECCAK256 DUP1 SLOAD SWAP2 PUSH2 0x45D DUP4 PUSH2 0x4262 JUMP JUMPDEST SWAP4 PUSH2 0x46B PUSH1 0x40 MLOAD SWAP6 DUP7 PUSH2 0x4032 JUMP JUMPDEST DUP4 DUP6 MSTORE PUSH1 0x0 SWAP3 DUP4 MSTORE DUP2 DUP4 KECCAK256 SWAP1 DUP3 DUP7 ADD JUMPDEST DUP6 DUP6 LT PUSH2 0x494 JUMPI PUSH1 0x40 MLOAD DUP1 PUSH2 0x490 DUP10 DUP3 PUSH2 0x4279 JUMP JUMPDEST SUB SWAP1 RETURN JUMPDEST PUSH1 0x5 DUP5 PUSH1 0x1 SWAP3 PUSH1 0x40 MLOAD PUSH2 0x4A6 DUP2 PUSH2 0x3FFC JUMP JUMPDEST PUSH1 0x40 MLOAD PUSH2 0x4B7 DUP2 PUSH2 0x40E DUP2 DUP12 PUSH2 0x41A7 JUMP JUMPDEST DUP2 MSTORE PUSH1 0x40 MLOAD PUSH2 0x4CC DUP2 PUSH2 0x40E DUP2 DUP10 DUP13 ADD PUSH2 0x41A7 JUMP JUMPDEST DUP4 DUP3 ADD MSTORE PUSH1 0x40 MLOAD PUSH2 0x4E3 DUP2 PUSH2 0x40E DUP2 DUP11 DUP13 ADD PUSH2 0x41A7 JUMP JUMPDEST PUSH1 0x40 DUP3 ADD MSTORE DUP5 DUP1 PUSH1 0xA0 SHL SUB DUP13 DUP9 ADD SLOAD AND PUSH1 0x60 DUP3 ADD MSTORE PUSH1 0x4 DUP8 ADD SLOAD PUSH1 0x80 DUP3 ADD MSTORE DUP2 MSTORE ADD SWAP4 ADD SWAP5 ADD SWAP4 SWAP2 PUSH2 0x47B JUMP JUMPDEST SWAP1 PUSH2 0x533 PUSH1 0x40 MLOAD SWAP3 DUP4 SWAP3 PUSH4 0xF855236D PUSH1 0xE0 SHL DUP5 MSTORE PUSH1 0x4 DUP5 ADD MSTORE PUSH1 0x24 DUP4 ADD SWAP1 PUSH2 0x423D JUMP JUMPDEST SUB SWAP1 REVERT JUMPDEST SWAP1 POP ISZERO DUP6 PUSH2 0x42B JUMP JUMPDEST CALLVALUE PUSH2 0x3A0 JUMPI PUSH2 0x54E CALLDATASIZE PUSH2 0x40EF JUMP JUMPDEST PUSH2 0x556 PUSH2 0x442C JUMP JUMPDEST PUSH2 0x55F DUP3 PUSH2 0x43AB JUMP JUMPDEST ISZERO PUSH2 0x38E JUMPI PUSH2 0x365 PUSH32 0x4614600ADAEA632B1E4C381AD24471DAB7B587DCA104C8DD4DA76BC64F19716F SWAP2 PUSH1 0x0 DUP1 MLOAD PUSH1 0x20 PUSH2 0x5255 DUP4 CODECOPY DUP2 MLOAD SWAP2 MSTORE DUP1 PUSH1 0x0 MSTORE PUSH1 0x0 PUSH1 0x20 MSTORE PUSH2 0x5B2 PUSH1 0x1 PUSH1 0x40 PUSH1 0x0 KECCAK256 ADD SLOAD PUSH2 0x4484 JUMP JUMPDEST PUSH2 0x5BB DUP6 PUSH2 0x49B4 JUMP JUMPDEST POP PUSH1 0x0 MSTORE PUSH1 0x4 PUSH1 0x20 MSTORE PUSH1 0x40 PUSH1 0x0 KECCAK256 DUP1 SLOAD DUP1 PUSH2 0x5E6 JUMPI POP POP PUSH1 0x40 MLOAD SWAP2 DUP3 SWAP2 PUSH1 0x40 DUP4 MSTORE PUSH1 0x40 DUP4 ADD SWAP1 PUSH2 0x423D JUMP JUMPDEST PUSH2 0x5EF SWAP1 PUSH2 0x4CE7 JUMP JUMPDEST SWAP1 SSTORE DUP5 DUP1 PUSH2 0x34F JUMP JUMPDEST CALLVALUE PUSH2 0x3A0 JUMPI PUSH1 0x80 CALLDATASIZE PUSH1 0x3 NOT ADD SLT PUSH2 0x3A0 JUMPI PUSH1 0x1 PUSH1 0x1 PUSH1 0x40 SHL SUB PUSH1 0x4 CALLDATALOAD DUP2 DUP2 GT PUSH2 0x3A0 JUMPI PUSH2 0x629 SWAP1 CALLDATASIZE SWAP1 PUSH1 0x4 ADD PUSH2 0x4053 JUMP JUMPDEST SWAP1 PUSH2 0x632 PUSH2 0x3FB4 JUMP JUMPDEST SWAP1 PUSH1 0x44 CALLDATALOAD DUP2 DUP2 GT PUSH2 0x3A0 JUMPI PUSH2 0x64B SWAP1 CALLDATASIZE SWAP1 PUSH1 0x4 ADD PUSH2 0x4053 JUMP JUMPDEST SWAP1 PUSH1 0x64 CALLDATALOAD SWAP1 DUP2 GT PUSH2 0x3A0 JUMPI PUSH2 0x664 SWAP1 CALLDATASIZE SWAP1 PUSH1 0x4 ADD PUSH2 0x4053 JUMP JUMPDEST SWAP1 PUSH1 0x0 DUP1 MLOAD PUSH1 0x20 PUSH2 0x5155 DUP4 CODECOPY DUP2 MLOAD SWAP2 MSTORE PUSH1 0x0 MSTORE PUSH1 0x20 SWAP3 PUSH1 0x0 DUP5 MSTORE PUSH1 0x40 PUSH1 0x0 KECCAK256 CALLER PUSH1 0x0 MSTORE DUP5 MSTORE PUSH1 0xFF PUSH1 0x40 PUSH1 0x0 KECCAK256 SLOAD AND ISZERO PUSH2 0x7E9 JUMPI PUSH1 0x1 PUSH1 0x1 PUSH1 0xA0 SHL SUB AND DUP1 ISZERO PUSH2 0x7D7 JUMPI DUP2 MLOAD ISZERO PUSH2 0x7C5 JUMPI DUP3 MLOAD ISZERO PUSH2 0x7B3 JUMPI PUSH1 0x40 MLOAD PUSH1 0x1 PUSH1 0xFF PUSH1 0xA DUP9 MLOAD SWAP4 DUP9 DUP2 DUP2 DUP13 ADD SWAP7 PUSH2 0x6D1 DUP2 DUP4 DUP11 PUSH2 0x412E JUMP JUMPDEST DUP2 ADD PUSH1 0x2 DUP2 MSTORE SUB ADD SWAP1 KECCAK256 ADD SLOAD PUSH1 0xA0 SHR AND ISZERO ISZERO EQ PUSH2 0x791 JUMPI SWAP4 PUSH2 0x782 SWAP4 SWAP3 PUSH2 0x774 SWAP3 PUSH1 0xA PUSH2 0x72C DUP5 PUSH32 0x55B00B3C29344A545244B18D70B135E423405427088BD5425F13D690B82310B4 SWAP10 DUP12 PUSH1 0x40 MLOAD SWAP4 DUP5 SWAP3 DUP4 SWAP3 MLOAD SWAP3 DUP4 SWAP2 PUSH2 0x412E JUMP JUMPDEST DUP2 ADD PUSH1 0x2 DUP2 MSTORE SUB ADD SWAP1 KECCAK256 ADD CALLER PUSH12 0xFFFFFFFFFFFFFFFFFFFFFFFF PUSH1 0xA0 SHL DUP3 SLOAD AND OR SWAP1 SSTORE PUSH2 0x763 PUSH1 0x40 MLOAD SWAP9 PUSH1 0xA0 DUP11 MSTORE PUSH1 0xA0 DUP11 ADD SWAP1 PUSH2 0x423D JUMP JUMPDEST SWAP3 DUP9 ADD MSTORE DUP7 DUP3 SUB PUSH1 0x40 DUP9 ADD MSTORE PUSH2 0x423D JUMP JUMPDEST SWAP1 DUP5 DUP3 SUB PUSH1 0x60 DUP7 ADD MSTORE PUSH2 0x423D JUMP JUMPDEST SWAP2 TIMESTAMP PUSH1 0x80 DUP3 ADD MSTORE DUP1 CALLER SWAP4 SUB SWAP1 LOG2 STOP JUMPDEST PUSH1 0x40 MLOAD PUSH4 0x2072BB01 PUSH1 0xE1 SHL DUP2 MSTORE PUSH1 0x4 DUP2 ADD DUP7 SWAP1 MSTORE DUP1 PUSH2 0x533 PUSH1 0x24 DUP3 ADD DUP10 PUSH2 0x423D JUMP JUMPDEST PUSH1 0x40 MLOAD PUSH4 0x5DBEF475 PUSH1 0xE0 SHL DUP2 MSTORE PUSH1 0x4 SWAP1 REVERT JUMPDEST PUSH1 0x40 MLOAD PUSH4 0x26813E6F PUSH1 0xE0 SHL DUP2 MSTORE PUSH1 0x4 SWAP1 REVERT JUMPDEST PUSH1 0x40 MLOAD PUSH4 0xBEA3FD2F PUSH1 0xE0 SHL DUP2 MSTORE PUSH1 0x4 SWAP1 REVERT JUMPDEST PUSH1 0x40 MLOAD PUSH4 0x568555F PUSH1 0xE4 SHL DUP2 MSTORE CALLER PUSH1 0x4 DUP3 ADD MSTORE PUSH1 0x24 SWAP1 REVERT JUMPDEST PUSH1 0x80 CALLDATASIZE PUSH1 0x3 NOT ADD SLT PUSH2 0x3A0 JUMPI PUSH1 0x4 CALLDATALOAD PUSH1 0x1 PUSH1 0x1 PUSH1 0x40 SHL SUB DUP2 GT PUSH2 0x3A0 JUMPI PUSH2 0x82C SWAP1 CALLDATASIZE SWAP1 PUSH1 0x4 ADD PUSH2 0x4053 JUMP JUMPDEST PUSH1 0x24 CALLDATALOAD PUSH1 0x2 DUP2 LT ISZERO PUSH2 0x3A0 JUMPI PUSH1 0x44 CALLDATALOAD PUSH1 0x1 PUSH1 0x1 PUSH1 0xA0 SHL SUB DUP2 DUP2 AND SWAP4 SWAP2 DUP5 SWAP1 SUB PUSH2 0x3A0 JUMPI CALLER PUSH1 0x0 SWAP1 DUP2 MSTORE PUSH1 0x0 DUP1 MLOAD PUSH1 0x20 PUSH2 0x5115 DUP4 CODECOPY DUP2 MLOAD SWAP2 MSTORE PUSH1 0x20 SWAP1 DUP2 MSTORE PUSH1 0x40 SWAP1 SWAP2 KECCAK256 SLOAD SWAP1 SWAP5 PUSH1 0x64 CALLDATALOAD SWAP5 SWAP2 PUSH1 0xFF AND ISZERO PUSH2 0x7E9 JUMPI PUSH1 0x40 MLOAD DUP7 DUP2 DUP7 MLOAD PUSH2 0x892 DUP2 DUP4 DUP6 DUP12 ADD PUSH2 0x412E JUMP JUMPDEST DUP2 ADD PUSH1 0x8 DUP2 MSTORE SUB ADD SWAP1 KECCAK256 SWAP5 PUSH1 0x4 DUP7 ADD SWAP3 PUSH2 0x8B3 PUSH1 0xFF DUP6 SLOAD PUSH1 0x8 SHR AND ISZERO PUSH2 0x5099 JUMP JUMPDEST PUSH2 0x9AA JUMPI POP POP PUSH1 0x6 DUP5 ADD SLOAD CALLVALUE SUB PUSH2 0x96E JUMPI PUSH1 0x0 DUP1 DUP1 DUP1 DUP6 PUSH1 0x1 DUP10 ADD SLOAD AND DUP2 SWAP1 CALLVALUE ISZERO PUSH2 0x964 JUMPI JUMPDEST CALLVALUE SWAP2 CALL ISZERO PUSH2 0x958 JUMPI PUSH32 0x940131602D0921830DC2448C37A7E380FA8625C7C0B95D4AA8F3F26F84D270AE SWAP4 PUSH1 0x1 SWAP2 JUMPDEST PUSH2 0x100 DUP2 SLOAD TIMESTAMP PUSH1 0x3 DUP6 ADD SSTORE PUSH4 0x1000000 DUP6 PUSH1 0xB8 SHL SUB CALLER PUSH1 0x18 SHL AND SWAP1 DUP3 DUP7 PUSH1 0xB8 SHL SUB NOT AND OR OR SWAP1 SSTORE ADD SLOAD AND PUSH2 0x946 PUSH1 0x40 MLOAD SWAP3 PUSH1 0x60 DUP5 MSTORE PUSH1 0x60 DUP5 ADD SWAP1 PUSH2 0x423D JUMP JUMPDEST SWAP4 DUP3 ADD MSTORE TIMESTAMP PUSH1 0x40 DUP3 ADD MSTORE DUP1 CALLER SWAP4 SUB SWAP1 LOG2 STOP JUMPDEST PUSH1 0x40 MLOAD RETURNDATASIZE PUSH1 0x0 DUP3 RETURNDATACOPY RETURNDATASIZE SWAP1 REVERT JUMPDEST PUSH2 0x8FC SWAP2 POP PUSH2 0x8D9 JUMP JUMPDEST PUSH1 0x40 MLOAD PUSH3 0x461BCD PUSH1 0xE5 SHL DUP2 MSTORE PUSH1 0x4 DUP2 ADD DUP7 SWAP1 MSTORE PUSH1 0x14 PUSH1 0x24 DUP3 ADD MSTORE PUSH20 0x125B98DBDC9C9958DD0811551208185B5BDD5B9D PUSH1 0x62 SHL PUSH1 0x44 DUP3 ADD MSTORE PUSH1 0x64 SWAP1 REVERT JUMPDEST DUP2 PUSH1 0x0 MSTORE PUSH1 0x7 DUP7 ADD DUP8 MSTORE PUSH1 0x40 PUSH1 0x0 KECCAK256 SLOAD DUP2 SUB PUSH2 0xA5A JUMPI DUP7 SWAP1 PUSH1 0x64 DUP6 PUSH1 0x1 DUP10 ADD SLOAD AND PUSH1 0x0 PUSH1 0x40 MLOAD SWAP6 DUP7 SWAP5 DUP6 SWAP4 PUSH4 0x23B872DD PUSH1 0xE0 SHL DUP6 MSTORE CALLER PUSH1 0x4 DUP7 ADD MSTORE PUSH1 0x24 DUP6 ADD MSTORE PUSH1 0x44 DUP5 ADD MSTORE GAS CALL DUP1 ISZERO PUSH2 0x958 JUMPI PUSH2 0xA27 JUMPI JUMPDEST POP PUSH32 0x940131602D0921830DC2448C37A7E380FA8625C7C0B95D4AA8F3F26F84D270AE SWAP4 PUSH1 0x1 SWAP2 PUSH2 0x907 JUMP JUMPDEST DUP6 DUP2 DUP2 RETURNDATASIZE DUP4 GT PUSH2 0xA53 JUMPI JUMPDEST PUSH2 0xA3C DUP2 DUP4 PUSH2 0x4032 JUMP JUMPDEST DUP2 ADD SUB SLT PUSH2 0x3A0 JUMPI MLOAD DUP1 ISZERO ISZERO SUB PUSH2 0x3A0 JUMPI DUP6 PUSH2 0x9FC JUMP JUMPDEST POP RETURNDATASIZE PUSH2 0xA32 JUMP JUMPDEST PUSH1 0x40 MLOAD PUSH3 0x461BCD PUSH1 0xE5 SHL DUP2 MSTORE PUSH1 0x4 DUP2 ADD DUP9 SWAP1 MSTORE PUSH1 0x16 PUSH1 0x24 DUP3 ADD MSTORE PUSH22 0x125B98DBDC9C9958DD081D1BDAD95B88185B5BDD5B9D PUSH1 0x52 SHL PUSH1 0x44 DUP3 ADD MSTORE PUSH1 0x64 SWAP1 REVERT JUMPDEST CALLVALUE PUSH2 0x3A0 JUMPI PUSH2 0xAA6 CALLDATASIZE PUSH2 0x40EF JUMP JUMPDEST PUSH2 0xAAE PUSH2 0x442C JUMP JUMPDEST PUSH2 0xAB7 DUP3 PUSH2 0x4401 JUMP JUMPDEST ISZERO PUSH2 0x38E JUMPI PUSH2 0x365 PUSH32 0x352E14C53D161E2481E65145B53265D1608F979A93A06DF66D4C99B2A84DDC63 SWAP2 PUSH1 0x0 DUP1 MLOAD PUSH1 0x20 PUSH2 0x5175 DUP4 CODECOPY DUP2 MLOAD SWAP2 MSTORE DUP1 PUSH1 0x0 MSTORE PUSH1 0x0 PUSH1 0x20 MSTORE PUSH2 0xB0A PUSH1 0x1 PUSH1 0x40 PUSH1 0x0 KECCAK256 ADD SLOAD PUSH2 0x4484 JUMP JUMPDEST PUSH2 0x5BB DUP6 PUSH2 0x493F JUMP JUMPDEST CALLVALUE PUSH2 0x3A0 JUMPI PUSH1 0x0 CALLDATASIZE PUSH1 0x3 NOT ADD SLT PUSH2 0x3A0 JUMPI PUSH1 0x20 PUSH1 0x40 MLOAD PUSH1 0x0 DUP1 MLOAD PUSH1 0x20 PUSH2 0x5175 DUP4 CODECOPY DUP2 MLOAD SWAP2 MSTORE DUP2 MSTORE RETURN JUMPDEST CALLVALUE PUSH2 0x3A0 JUMPI PUSH1 0x20 DUP1 PUSH1 0x3 NOT CALLDATASIZE ADD SLT PUSH2 0x3A0 JUMPI PUSH1 0x4 CALLDATALOAD PUSH1 0x1 PUSH1 0x1 PUSH1 0x40 SHL SUB DUP2 GT PUSH2 0x3A0 JUMPI PUSH2 0xB6D SWAP1 CALLDATASIZE SWAP1 PUSH1 0x4 ADD PUSH2 0x4053 JUMP JUMPDEST SWAP1 PUSH1 0x40 MLOAD PUSH2 0x40E PUSH2 0xBA1 DUP5 MLOAD SWAP3 DUP5 DUP2 DUP2 DUP9 ADD SWAP6 PUSH2 0xB8B DUP2 DUP4 DUP10 PUSH2 0x412E JUMP JUMPDEST DUP2 ADD PUSH1 0x2 DUP2 MSTORE SUB ADD SWAP1 KECCAK256 PUSH1 0x40 MLOAD SWAP3 DUP4 DUP1 SWAP3 PUSH2 0x41A7 JUMP JUMPDEST DUP3 DUP2 MLOAD SWAP2 ADD KECCAK256 DUP4 MLOAD SWAP1 DUP2 DUP4 KECCAK256 EQ SWAP1 DUP2 ISZERO SWAP2 PUSH2 0xC14 JUMPI JUMPDEST POP PUSH2 0xBF1 JUMPI PUSH1 0xA PUSH2 0xBD7 DUP4 PUSH1 0xFF SWAP4 DUP7 PUSH1 0x40 MLOAD SWAP4 DUP5 SWAP3 DUP4 SWAP3 MLOAD SWAP3 DUP4 SWAP2 PUSH2 0x412E JUMP JUMPDEST DUP2 ADD PUSH1 0x2 DUP2 MSTORE SUB ADD SWAP1 KECCAK256 ADD SLOAD PUSH1 0xB8 SHR AND PUSH1 0x40 MLOAD SWAP1 ISZERO ISZERO DUP2 MSTORE RETURN JUMPDEST POP PUSH2 0x533 PUSH1 0x40 MLOAD SWAP3 DUP4 SWAP3 PUSH4 0xF855236D PUSH1 0xE0 SHL DUP5 MSTORE PUSH1 0x4 DUP5 ADD MSTORE PUSH1 0x24 DUP4 ADD SWAP1 PUSH2 0x423D JUMP JUMPDEST SWAP1 POP ISZERO DUP5 PUSH2 0xBB7 JUMP JUMPDEST CALLVALUE PUSH2 0x3A0 JUMPI PUSH1 0x20 DUP1 PUSH1 0x3 NOT CALLDATASIZE ADD SLT PUSH2 0x3A0 JUMPI PUSH1 0x1 PUSH1 0x1 PUSH1 0xA0 SHL SUB PUSH2 0xC3F PUSH2 0x3F9E JUMP JUMPDEST AND DUP1 ISZERO PUSH2 0x1132 JUMPI PUSH1 0x0 SWAP1 PUSH1 0x0 DUP1 MSTORE PUSH1 0x0 DUP4 MSTORE PUSH1 0x40 PUSH1 0x0 KECCAK256 DUP2 PUSH1 0x0 MSTORE DUP4 MSTORE PUSH1 0xFF DUP1 PUSH1 0x40 PUSH1 0x0 KECCAK256 SLOAD AND PUSH2 0x1129 JUMPI JUMPDEST PUSH1 0x0 DUP1 MLOAD PUSH1 0x20 PUSH2 0x5215 DUP4 CODECOPY DUP2 MLOAD SWAP2 MSTORE SWAP2 DUP3 PUSH1 0x0 MSTORE PUSH1 0x0 DUP6 MSTORE PUSH1 0x40 PUSH1 0x0 KECCAK256 DUP2 PUSH1 0x0 MSTORE DUP6 MSTORE DUP2 PUSH1 0x40 PUSH1 0x0 KECCAK256 SLOAD AND PUSH2 0x1119 JUMPI JUMPDEST PUSH1 0x0 DUP1 MLOAD PUSH1 0x20 PUSH2 0x5255 DUP4 CODECOPY DUP2 MLOAD SWAP2 MSTORE DUP1 PUSH1 0x0 MSTORE PUSH1 0x0 DUP7 MSTORE PUSH1 0x40 PUSH1 0x0 KECCAK256 DUP3 PUSH1 0x0 MSTORE DUP7 MSTORE DUP3 PUSH1 0x40 PUSH1 0x0 KECCAK256 SLOAD AND PUSH2 0x1109 JUMPI JUMPDEST PUSH1 0x0 DUP1 MLOAD PUSH1 0x20 PUSH2 0x5155 DUP4 CODECOPY DUP2 MLOAD SWAP2 MSTORE DUP1 PUSH1 0x0 MSTORE PUSH1 0x0 DUP8 MSTORE PUSH1 0x40 PUSH1 0x0 KECCAK256 DUP4 PUSH1 0x0 MSTORE DUP8 MSTORE DUP4 PUSH1 0x40 PUSH1 0x0 KECCAK256 SLOAD AND PUSH2 0x10F9 JUMPI JUMPDEST PUSH1 0x0 DUP1 MLOAD PUSH1 0x20 PUSH2 0x5235 DUP4 CODECOPY DUP2 MLOAD SWAP2 MSTORE DUP1 PUSH1 0x0 MSTORE PUSH1 0x0 DUP9 MSTORE PUSH1 0x40 PUSH1 0x0 KECCAK256 DUP5 PUSH1 0x0 MSTORE DUP9 MSTORE DUP5 PUSH1 0x40 PUSH1 0x0 KECCAK256 SLOAD AND PUSH2 0x10E9 JUMPI JUMPDEST PUSH1 0x0 DUP1 MLOAD PUSH1 0x20 PUSH2 0x5175 DUP4 CODECOPY DUP2 MLOAD SWAP2 MSTORE SWAP2 DUP3 PUSH1 0x0 MSTORE PUSH1 0x0 DUP10 MSTORE PUSH1 0x40 PUSH1 0x0 KECCAK256 DUP6 PUSH1 0x0 MSTORE DUP10 MSTORE DUP6 PUSH1 0x40 PUSH1 0x0 KECCAK256 SLOAD AND PUSH2 0x10D9 JUMPI JUMPDEST PUSH1 0x0 DUP1 MLOAD PUSH1 0x20 PUSH2 0x51F5 DUP4 CODECOPY DUP2 MLOAD SWAP2 MSTORE SWAP4 DUP5 PUSH1 0x0 MSTORE PUSH1 0x0 DUP11 MSTORE PUSH1 0x40 PUSH1 0x0 KECCAK256 DUP7 PUSH1 0x0 MSTORE DUP11 MSTORE DUP7 PUSH1 0x40 PUSH1 0x0 KECCAK256 SLOAD AND PUSH2 0x10C9 JUMPI JUMPDEST PUSH2 0xD91 DUP10 PUSH2 0x4262 JUMP JUMPDEST SWAP9 PUSH2 0xD9F PUSH1 0x40 MLOAD SWAP11 DUP12 PUSH2 0x4032 JUMP JUMPDEST DUP1 DUP11 MSTORE PUSH2 0xDAE PUSH1 0x1F NOT SWAP2 PUSH2 0x4262 JUMP JUMPDEST ADD DUP11 DUP11 PUSH1 0x0 JUMPDEST DUP4 DUP2 LT PUSH2 0x10B8 JUMPI POP POP POP POP PUSH1 0x0 SWAP8 PUSH1 0x0 DUP1 MSTORE PUSH1 0x0 DUP12 MSTORE PUSH1 0x40 PUSH1 0x0 KECCAK256 DUP8 PUSH1 0x0 MSTORE DUP12 MSTORE DUP8 PUSH1 0x40 PUSH1 0x0 KECCAK256 SLOAD AND PUSH2 0x107D JUMPI JUMPDEST PUSH1 0x0 MSTORE PUSH1 0x0 DUP11 MSTORE PUSH1 0x40 PUSH1 0x0 KECCAK256 DUP7 PUSH1 0x0 MSTORE DUP11 MSTORE DUP7 PUSH1 0x40 PUSH1 0x0 KECCAK256 SLOAD AND PUSH2 0x1040 JUMPI JUMPDEST PUSH1 0x0 MSTORE PUSH1 0x0 DUP10 MSTORE PUSH1 0x40 PUSH1 0x0 KECCAK256 DUP6 PUSH1 0x0 MSTORE DUP10 MSTORE DUP6 PUSH1 0x40 PUSH1 0x0 KECCAK256 SLOAD AND PUSH2 0x1001 JUMPI JUMPDEST PUSH1 0x0 MSTORE PUSH1 0x0 DUP9 MSTORE PUSH1 0x40 PUSH1 0x0 KECCAK256 DUP5 PUSH1 0x0 MSTORE DUP9 MSTORE DUP5 PUSH1 0x40 PUSH1 0x0 KECCAK256 SLOAD AND PUSH2 0xFBE JUMPI JUMPDEST PUSH1 0x0 MSTORE PUSH1 0x0 DUP8 MSTORE PUSH1 0x40 PUSH1 0x0 KECCAK256 DUP4 PUSH1 0x0 MSTORE DUP8 MSTORE DUP4 PUSH1 0x40 PUSH1 0x0 KECCAK256 SLOAD AND PUSH2 0xF7F JUMPI JUMPDEST PUSH1 0x0 MSTORE PUSH1 0x0 DUP7 MSTORE PUSH1 0x40 PUSH1 0x0 KECCAK256 DUP3 PUSH1 0x0 MSTORE DUP7 MSTORE DUP3 PUSH1 0x40 PUSH1 0x0 KECCAK256 SLOAD AND PUSH2 0xF3E JUMPI JUMPDEST PUSH1 0x0 MSTORE PUSH1 0x0 DUP6 MSTORE PUSH1 0x40 PUSH1 0x0 KECCAK256 SWAP1 PUSH1 0x0 MSTORE DUP5 MSTORE PUSH1 0x40 PUSH1 0x0 KECCAK256 SLOAD AND PUSH2 0xEFB JUMPI JUMPDEST POP PUSH1 0x40 MLOAD SWAP1 DUP3 DUP3 ADD SWAP3 DUP1 DUP4 MSTORE DUP2 MLOAD DUP1 SWAP5 MSTORE PUSH1 0x40 DUP4 ADD SWAP4 DUP2 PUSH1 0x40 DUP3 PUSH1 0x5 SHL DUP7 ADD ADD SWAP4 ADD SWAP2 PUSH1 0x0 SWAP6 JUMPDEST DUP3 DUP8 LT PUSH2 0xECF JUMPI DUP6 DUP6 SUB DUP7 RETURN JUMPDEST SWAP1 SWAP2 SWAP3 SWAP4 DUP3 DUP1 PUSH2 0xEEB PUSH1 0x1 SWAP4 PUSH1 0x3F NOT DUP11 DUP3 SUB ADD DUP7 MSTORE DUP9 MLOAD PUSH2 0x423D JUMP JUMPDEST SWAP7 ADD SWAP3 ADD SWAP7 ADD SWAP6 SWAP3 SWAP2 SWAP1 SWAP3 PUSH2 0xEC2 JUMP JUMPDEST PUSH2 0xF37 SWAP1 PUSH1 0x40 MLOAD PUSH2 0xF0B DUP2 PUSH2 0x4017 JUMP JUMPDEST PUSH1 0x5 DUP2 MSTORE PUSH5 0x212AACA2A9 PUSH1 0xD9 SHL DUP6 DUP3 ADD MSTORE PUSH2 0xF26 DUP3 DUP6 PUSH2 0x4D01 JUMP JUMPDEST MSTORE PUSH2 0xF31 DUP2 DUP5 PUSH2 0x4D01 JUMP JUMPDEST POP PUSH2 0x4CD8 JUMP JUMPDEST POP DUP3 PUSH2 0xE9B JUMP JUMPDEST SWAP3 PUSH2 0xF79 SWAP1 PUSH1 0x40 MLOAD PUSH2 0xF4F DUP2 PUSH2 0x4017 JUMP JUMPDEST PUSH1 0x9 DUP2 MSTORE PUSH9 0x24A729A822A1AA27A9 PUSH1 0xB9 SHL DUP9 DUP3 ADD MSTORE PUSH2 0xF6E DUP3 DUP9 PUSH2 0x4D01 JUMP JUMPDEST MSTORE PUSH2 0xF31 DUP2 DUP8 PUSH2 0x4D01 JUMP JUMPDEST SWAP3 PUSH2 0xE7D JUMP JUMPDEST SWAP4 PUSH2 0xFB8 SWAP1 PUSH1 0x40 MLOAD PUSH2 0xF90 DUP2 PUSH2 0x4017 JUMP JUMPDEST PUSH1 0x7 DUP2 MSTORE PUSH7 0x20AAA224AA27A9 PUSH1 0xC9 SHL DUP10 DUP3 ADD MSTORE PUSH2 0xFAD DUP3 DUP10 PUSH2 0x4D01 JUMP JUMPDEST MSTORE PUSH2 0xF31 DUP2 DUP9 PUSH2 0x4D01 JUMP JUMPDEST SWAP4 PUSH2 0xE5E JUMP JUMPDEST SWAP5 PUSH2 0xFFB SWAP1 PUSH1 0x40 MLOAD PUSH2 0xFCF DUP2 PUSH2 0x4017 JUMP JUMPDEST PUSH1 0xB DUP2 MSTORE PUSH11 0x2A2920A729A827A92A22A9 PUSH1 0xA9 SHL DUP11 DUP3 ADD MSTORE PUSH2 0xFF0 DUP3 DUP11 PUSH2 0x4D01 JUMP JUMPDEST MSTORE PUSH2 0xF31 DUP2 DUP10 PUSH2 0x4D01 JUMP JUMPDEST SWAP5 PUSH2 0xE3F JUMP JUMPDEST SWAP6 PUSH2 0x103A SWAP1 PUSH1 0x40 MLOAD PUSH2 0x1012 DUP2 PUSH2 0x4017 JUMP JUMPDEST PUSH1 0x7 DUP2 MSTORE PUSH7 0x2922A324A722A9 PUSH1 0xC9 SHL DUP12 DUP3 ADD MSTORE PUSH2 0x102F DUP3 DUP12 PUSH2 0x4D01 JUMP JUMPDEST MSTORE PUSH2 0xF31 DUP2 DUP11 PUSH2 0x4D01 JUMP JUMPDEST SWAP6 PUSH2 0xE20 JUMP JUMPDEST SWAP7 PUSH2 0x1077 SWAP1 PUSH1 0x40 MLOAD PUSH2 0x1051 DUP2 PUSH2 0x4017 JUMP JUMPDEST PUSH1 0x5 DUP2 MSTORE PUSH5 0x26A4A722A9 PUSH1 0xD9 SHL DUP13 DUP3 ADD MSTORE PUSH2 0x106C DUP3 DUP13 PUSH2 0x4D01 JUMP JUMPDEST MSTORE PUSH2 0xF31 DUP2 DUP12 PUSH2 0x4D01 JUMP JUMPDEST SWAP7 PUSH2 0xE01 JUMP JUMPDEST SWAP8 POP PUSH1 0x40 MLOAD PUSH2 0x108B DUP2 PUSH2 0x4017 JUMP JUMPDEST PUSH1 0x5 DUP2 MSTORE PUSH5 0x20A226A4A7 PUSH1 0xD9 SHL DUP12 DUP3 ADD MSTORE PUSH2 0x10A5 DUP11 PUSH2 0x4CF4 JUMP JUMPDEST MSTORE PUSH2 0x10AF DUP10 PUSH2 0x4CF4 JUMP JUMPDEST POP PUSH1 0x1 SWAP8 PUSH2 0xDE2 JUMP JUMPDEST PUSH1 0x60 DUP4 DUP3 DUP2 SWAP5 ADD ADD MSTORE ADD DUP12 SWAP1 PUSH2 0xDB4 JUMP JUMPDEST SWAP8 PUSH2 0x10D3 SWAP1 PUSH2 0x4CD8 JUMP JUMPDEST SWAP8 PUSH2 0xD88 JUMP JUMPDEST SWAP7 PUSH2 0x10E3 SWAP1 PUSH2 0x4CD8 JUMP JUMPDEST SWAP7 PUSH2 0xD58 JUMP JUMPDEST SWAP6 PUSH2 0x10F3 SWAP1 PUSH2 0x4CD8 JUMP JUMPDEST SWAP6 PUSH2 0xD28 JUMP JUMPDEST SWAP5 PUSH2 0x1103 SWAP1 PUSH2 0x4CD8 JUMP JUMPDEST SWAP5 PUSH2 0xCF9 JUMP JUMPDEST SWAP4 PUSH2 0x1113 SWAP1 PUSH2 0x4CD8 JUMP JUMPDEST SWAP4 PUSH2 0xCCA JUMP JUMPDEST SWAP3 PUSH2 0x1123 SWAP1 PUSH2 0x4CD8 JUMP JUMPDEST SWAP3 PUSH2 0xC9B JUMP JUMPDEST PUSH1 0x1 SWAP3 POP PUSH2 0xC6B JUMP JUMPDEST PUSH1 0x40 MLOAD PUSH4 0x200DB56F PUSH1 0xE1 SHL DUP2 MSTORE PUSH1 0x4 SWAP1 REVERT JUMPDEST CALLVALUE PUSH2 0x3A0 JUMPI PUSH1 0x20 CALLDATASIZE PUSH1 0x3 NOT ADD SLT PUSH2 0x3A0 JUMPI PUSH2 0x115D PUSH2 0x3F9E JUMP JUMPDEST PUSH1 0x1 PUSH1 0x1 PUSH1 0xA0 SHL SUB AND PUSH1 0x0 SWAP1 DUP2 MSTORE PUSH1 0x0 DUP1 MLOAD PUSH1 0x20 PUSH2 0x51D5 DUP4 CODECOPY DUP2 MLOAD SWAP2 MSTORE PUSH1 0x20 SWAP1 DUP2 MSTORE PUSH1 0x40 SWAP2 DUP3 SWAP1 KECCAK256 SLOAD SWAP2 MLOAD PUSH1 0xFF SWAP1 SWAP3 AND ISZERO ISZERO DUP3 MSTORE SWAP1 RETURN JUMPDEST CALLVALUE PUSH2 0x3A0 JUMPI PUSH1 0x40 CALLDATASIZE PUSH1 0x3 NOT ADD SLT PUSH2 0x3A0 JUMPI PUSH2 0x11D3 PUSH1 0x4 CALLDATALOAD PUSH2 0x11B3 PUSH2 0x3FB4 JUMP JUMPDEST SWAP1 DUP1 PUSH1 0x0 MSTORE PUSH1 0x0 PUSH1 0x20 MSTORE PUSH2 0x11CE PUSH1 0x1 PUSH1 0x40 PUSH1 0x0 KECCAK256 ADD SLOAD PUSH2 0x4484 JUMP JUMPDEST PUSH2 0x4A9E JUMP JUMPDEST STOP JUMPDEST CALLVALUE PUSH2 0x3A0 JUMPI PUSH1 0x20 CALLDATASIZE PUSH1 0x3 NOT ADD SLT PUSH2 0x3A0 JUMPI PUSH2 0x11EE PUSH2 0x3F9E JUMP JUMPDEST PUSH1 0x1 PUSH1 0x1 PUSH1 0xA0 SHL SUB DUP2 AND SWAP1 DUP2 ISZERO PUSH2 0x1132 JUMPI PUSH2 0x1207 PUSH2 0x442C JUMP JUMPDEST PUSH2 0x1210 DUP2 PUSH2 0x4401 JUMP JUMPDEST PUSH2 0x128F JUMPI PUSH2 0x121D SWAP1 PUSH2 0x4702 JUMP JUMPDEST POP PUSH1 0x0 DUP1 MLOAD PUSH1 0x20 PUSH2 0x5175 DUP4 CODECOPY DUP2 MLOAD SWAP2 MSTORE PUSH1 0x0 MSTORE PUSH1 0x4 PUSH1 0x20 MSTORE PUSH32 0x9D423956391424A558206D539D4C7B96F2596F9D71B6FE92EFE1F071A870BA94 DUP1 SLOAD PUSH2 0x1261 SWAP1 PUSH2 0x4CD8 JUMP JUMPDEST SWAP1 SSTORE PUSH32 0x49CC27C2A068C01CF703C3923DFC679109B5F6C27BD1F61B542C159E3A73E092 PUSH1 0x20 PUSH1 0x40 MLOAD TIMESTAMP DUP2 MSTORE LOG2 STOP JUMPDEST PUSH1 0x40 MLOAD PUSH4 0x14726DE5 PUSH1 0xE2 SHL DUP2 MSTORE PUSH1 0x4 SWAP1 REVERT JUMPDEST CALLVALUE PUSH2 0x3A0 JUMPI PUSH1 0x20 CALLDATASIZE PUSH1 0x3 NOT ADD SLT PUSH2 0x3A0 JUMPI PUSH1 0x4 CALLDATALOAD PUSH1 0x0 DUP1 MLOAD PUSH1 0x20 PUSH2 0x5215 DUP4 CODECOPY DUP2 MLOAD SWAP2 MSTORE DUP2 EQ DUP1 ISZERO PUSH2 0x1374 JUMPI JUMPDEST DUP1 ISZERO PUSH2 0x135D JUMPI JUMPDEST DUP1 ISZERO PUSH2 0x1346 JUMPI JUMPDEST DUP1 ISZERO PUSH2 0x132F JUMPI JUMPDEST DUP1 ISZERO PUSH2 0x1318 JUMPI JUMPDEST ISZERO PUSH2 0x1306 JUMPI PUSH1 0x0 MSTORE PUSH1 0x4 PUSH1 0x20 MSTORE PUSH1 0x20 PUSH1 0x40 PUSH1 0x0 KECCAK256 SLOAD PUSH1 0x40 MLOAD SWAP1 DUP2 MSTORE RETURN JUMPDEST PUSH1 0x40 MLOAD PUSH4 0x6B9C4611 PUSH1 0xE0 SHL DUP2 MSTORE PUSH1 0x4 SWAP1 REVERT JUMPDEST POP PUSH1 0x0 DUP1 MLOAD PUSH1 0x20 PUSH2 0x51F5 DUP4 CODECOPY DUP2 MLOAD SWAP2 MSTORE DUP2 EQ PUSH2 0x12E9 JUMP JUMPDEST POP PUSH1 0x0 DUP1 MLOAD PUSH1 0x20 PUSH2 0x5175 DUP4 CODECOPY DUP2 MLOAD SWAP2 MSTORE DUP2 EQ PUSH2 0x12E2 JUMP JUMPDEST POP PUSH1 0x0 DUP1 MLOAD PUSH1 0x20 PUSH2 0x5235 DUP4 CODECOPY DUP2 MLOAD SWAP2 MSTORE DUP2 EQ PUSH2 0x12DB JUMP JUMPDEST POP PUSH1 0x0 DUP1 MLOAD PUSH1 0x20 PUSH2 0x5155 DUP4 CODECOPY DUP2 MLOAD SWAP2 MSTORE DUP2 EQ PUSH2 0x12D4 JUMP JUMPDEST POP PUSH1 0x0 DUP1 MLOAD PUSH1 0x20 PUSH2 0x5255 DUP4 CODECOPY DUP2 MLOAD SWAP2 MSTORE DUP2 EQ PUSH2 0x12CD JUMP JUMPDEST CALLVALUE PUSH2 0x3A0 JUMPI PUSH1 0x40 CALLDATASIZE PUSH1 0x3 NOT ADD SLT PUSH2 0x3A0 JUMPI PUSH1 0x4 CALLDATALOAD PUSH1 0x1 PUSH1 0x1 PUSH1 0x40 SHL SUB DUP2 GT PUSH2 0x3A0 JUMPI PUSH2 0x13BB SWAP1 CALLDATASIZE SWAP1 PUSH1 0x4 ADD PUSH2 0x4053 JUMP JUMPDEST PUSH1 0x7 PUSH2 0x1400 PUSH1 0x20 PUSH1 0x1 PUSH1 0x1 PUSH1 0xA0 SHL SUB PUSH2 0x13D2 PUSH2 0x3FB4 JUMP JUMPDEST AND SWAP4 DUP5 PUSH1 0x0 MSTORE PUSH1 0xA DUP3 MSTORE PUSH2 0x13ED PUSH1 0xFF PUSH1 0x40 PUSH1 0x0 KECCAK256 SLOAD AND PUSH2 0x5058 JUMP JUMPDEST DUP2 PUSH1 0x40 MLOAD SWAP4 DUP3 DUP6 DUP1 SWAP5 MLOAD SWAP4 DUP5 SWAP3 ADD PUSH2 0x412E JUMP JUMPDEST DUP2 ADD PUSH1 0x8 DUP2 MSTORE SUB ADD SWAP1 KECCAK256 ADD SWAP1 PUSH1 0x0 MSTORE PUSH1 0x20 MSTORE PUSH1 0x20 PUSH1 0x40 PUSH1 0x0 KECCAK256 SLOAD PUSH1 0x40 MLOAD SWAP1 DUP2 MSTORE RETURN JUMPDEST CALLVALUE PUSH2 0x3A0 JUMPI PUSH1 0x20 CALLDATASIZE PUSH1 0x3 NOT ADD SLT PUSH2 0x3A0 JUMPI PUSH2 0x143B PUSH2 0x3F9E JUMP JUMPDEST PUSH1 0x1 PUSH1 0x1 PUSH1 0xA0 SHL SUB AND PUSH1 0x0 SWAP1 DUP2 MSTORE PUSH32 0xAD3228B676F7D3CD4284A5443F17F1962B36E491B30A40B2405849E597BA5FB5 PUSH1 0x20 SWAP1 DUP2 MSTORE PUSH1 0x40 SWAP2 DUP3 SWAP1 KECCAK256 SLOAD SWAP2 MLOAD PUSH1 0xFF SWAP1 SWAP3 AND ISZERO ISZERO DUP3 MSTORE SWAP1 RETURN JUMPDEST CALLVALUE PUSH2 0x3A0 JUMPI PUSH1 0x20 CALLDATASIZE PUSH1 0x3 NOT ADD SLT PUSH2 0x3A0 JUMPI PUSH2 0x149D PUSH2 0x3F9E JUMP JUMPDEST PUSH1 0x1 PUSH1 0x1 PUSH1 0xA0 SHL SUB AND PUSH1 0x0 SWAP1 DUP2 MSTORE PUSH1 0x0 DUP1 MLOAD PUSH1 0x20 PUSH2 0x5115 DUP4 CODECOPY DUP2 MLOAD SWAP2 MSTORE PUSH1 0x20 SWAP1 DUP2 MSTORE PUSH1 0x40 SWAP2 DUP3 SWAP1 KECCAK256 SLOAD SWAP2 MLOAD PUSH1 0xFF SWAP1 SWAP3 AND ISZERO ISZERO DUP3 MSTORE SWAP1 RETURN JUMPDEST CALLVALUE PUSH2 0x3A0 JUMPI PUSH1 0x0 CALLDATASIZE PUSH1 0x3 NOT ADD SLT PUSH2 0x3A0 JUMPI PUSH1 0x4 PUSH1 0x20 SWAP1 DUP2 MSTORE PUSH32 0x973CCC145476EF147B966A44694F8B2D26BAC5A3D44A844FEC6BE696FE5FEA70 SLOAD PUSH32 0x2FF85B9F193A3A7824CBAF5A79DB262C0BAC955152ADF2752C6413D76B2D3C7 SLOAD PUSH32 0xE08E55C6329CA2D4F38429C472032B4E97537C869A64C376BB7E702721EB8C3 SLOAD PUSH32 0xA792FA383E6BD9C6B4465BBFD8031F4B47377210FA121067C03906E9AFAC6246 SLOAD PUSH32 0x9D423956391424A558206D539D4C7B96F2596F9D71B6FE92EFE1F071A870BA94 SLOAD PUSH1 0x0 DUP1 MLOAD PUSH1 0x20 PUSH2 0x51F5 DUP4 CODECOPY DUP2 MLOAD SWAP2 MSTORE PUSH1 0x0 MSTORE PUSH32 0x5455BA4B8A75B33FA0F1F7AFFD9817680912F06B7B194BCF9AC01183C4930020 SLOAD PUSH1 0x40 DUP1 MLOAD SWAP7 DUP8 MSTORE SWAP7 DUP7 ADD SWAP5 SWAP1 SWAP5 MSTORE SWAP5 DUP5 ADD SWAP2 SWAP1 SWAP2 MSTORE PUSH1 0x60 DUP4 ADD MSTORE PUSH1 0x80 DUP3 ADD SWAP3 SWAP1 SWAP3 MSTORE PUSH1 0xA0 DUP2 ADD SWAP2 SWAP1 SWAP2 MSTORE PUSH1 0xC0 SWAP1 RETURN JUMPDEST CALLVALUE PUSH2 0x3A0 JUMPI PUSH1 0x20 CALLDATASIZE PUSH1 0x3 NOT ADD SLT PUSH2 0x3A0 JUMPI PUSH1 0x4 CALLDATALOAD PUSH1 0x0 MSTORE PUSH1 0x4 PUSH1 0x20 MSTORE PUSH1 0x20 PUSH1 0x40 PUSH1 0x0 KECCAK256 SLOAD PUSH1 0x40 MLOAD SWAP1 DUP2 MSTORE RETURN JUMPDEST CALLVALUE PUSH2 0x3A0 JUMPI PUSH1 0x20 DUP1 PUSH1 0x3 NOT CALLDATASIZE ADD SLT PUSH2 0x3A0 JUMPI PUSH1 0x4 CALLDATALOAD PUSH1 0x1 PUSH1 0x1 PUSH1 0x40 SHL SUB DUP2 GT PUSH2 0x3A0 JUMPI PUSH2 0x1656 SWAP1 CALLDATASIZE SWAP1 PUSH1 0x4 ADD PUSH2 0x4053 JUMP JUMPDEST DUP1 MLOAD ISZERO PUSH2 0x510 JUMPI PUSH1 0x40 MLOAD PUSH2 0x40E PUSH2 0x167A DUP4 MLOAD SWAP3 DUP6 DUP2 DUP2 DUP8 ADD SWAP6 PUSH2 0xB8B DUP2 DUP4 DUP10 PUSH2 0x412E JUMP JUMPDEST DUP4 DUP2 MLOAD SWAP2 ADD KECCAK256 SWAP1 DUP3 MLOAD SWAP1 KECCAK256 SUB PUSH2 0x1694 JUMPI POP PUSH1 0x40 MLOAD PUSH1 0x1 DUP2 MSTORE RETURN JUMPDEST SWAP1 PUSH2 0x533 PUSH1 0x40 MLOAD SWAP3 DUP4 SWAP3 PUSH4 0x11BB0BC9 PUSH1 0xE3 SHL DUP5 MSTORE PUSH1 0x4 DUP5 ADD MSTORE PUSH1 0x24 DUP4 ADD SWAP1 PUSH2 0x423D JUMP JUMPDEST CALLVALUE PUSH2 0x3A0 JUMPI PUSH1 0x20 CALLDATASIZE PUSH1 0x3 NOT ADD SLT PUSH2 0x3A0 JUMPI PUSH2 0x16D0 PUSH2 0x3F9E JUMP JUMPDEST PUSH1 0x1 PUSH1 0x1 PUSH1 0xA0 SHL SUB AND PUSH1 0x0 SWAP1 DUP2 MSTORE PUSH1 0x0 DUP1 MLOAD PUSH1 0x20 PUSH2 0x50D5 DUP4 CODECOPY DUP2 MLOAD SWAP2 MSTORE PUSH1 0x20 SWAP1 DUP2 MSTORE PUSH1 0x40 SWAP2 DUP3 SWAP1 KECCAK256 SLOAD SWAP2 MLOAD PUSH1 0xFF SWAP1 SWAP3 AND ISZERO ISZERO DUP3 MSTORE SWAP1 RETURN JUMPDEST CALLVALUE PUSH2 0x3A0 JUMPI PUSH1 0x20 CALLDATASIZE PUSH1 0x3 NOT ADD SLT PUSH2 0x3A0 JUMPI PUSH2 0x1720 PUSH2 0x3F9E JUMP JUMPDEST PUSH1 0x1 PUSH1 0x1 PUSH1 0xA0 SHL SUB DUP2 AND SWAP1 DUP2 ISZERO PUSH2 0x1132 JUMPI PUSH2 0x1739 PUSH2 0x442C JUMP JUMPDEST PUSH2 0x1742 DUP2 PUSH2 0x43D6 JUMP JUMPDEST PUSH2 0x128F JUMPI PUSH2 0x174F SWAP1 PUSH2 0x468B JUMP JUMPDEST POP PUSH1 0x0 DUP1 MLOAD PUSH1 0x20 PUSH2 0x5155 DUP4 CODECOPY DUP2 MLOAD SWAP2 MSTORE PUSH1 0x0 MSTORE PUSH1 0x4 PUSH1 0x20 MSTORE PUSH32 0xE08E55C6329CA2D4F38429C472032B4E97537C869A64C376BB7E702721EB8C3 DUP1 SLOAD PUSH2 0x1793 SWAP1 PUSH2 0x4CD8 JUMP JUMPDEST SWAP1 SSTORE PUSH32 0x964E50CB3BDB84C00A30F56AE15D538D23DC6DB14F891D7D819761B161E990A6 PUSH1 0x20 PUSH1 0x40 MLOAD TIMESTAMP DUP2 MSTORE LOG2 STOP JUMPDEST CALLVALUE PUSH2 0x3A0 JUMPI PUSH1 0x20 CALLDATASIZE PUSH1 0x3 NOT ADD SLT PUSH2 0x3A0 JUMPI PUSH1 0x4 CALLDATALOAD PUSH1 0x1 PUSH1 0x1 PUSH1 0x40 SHL SUB DUP2 GT PUSH2 0x3A0 JUMPI PUSH2 0x17F4 PUSH2 0x17F9 SWAP2 CALLDATASIZE SWAP1 PUSH1 0x4 ADD PUSH2 0x4053 JUMP JUMPDEST PUSH2 0x4DE6 JUMP JUMPDEST PUSH1 0x40 MLOAD DUP1 SWAP2 PUSH1 0x20 DUP3 MSTORE DUP1 MLOAD PUSH2 0x181C PUSH2 0x200 SWAP2 DUP3 PUSH1 0x20 DUP7 ADD MSTORE PUSH2 0x220 DUP6 ADD SWAP1 PUSH2 0x423D JUMP JUMPDEST SWAP2 PUSH2 0x1892 PUSH2 0x186A PUSH2 0x1856 PUSH2 0x1842 PUSH1 0x20 DUP6 ADD MLOAD SWAP7 PUSH1 0x1F NOT SWAP8 DUP9 DUP11 DUP4 SUB ADD PUSH1 0x40 DUP12 ADD MSTORE PUSH2 0x423D JUMP JUMPDEST PUSH1 0x40 DUP6 ADD MLOAD DUP8 DUP10 DUP4 SUB ADD PUSH1 0x60 DUP11 ADD MSTORE PUSH2 0x423D JUMP JUMPDEST PUSH1 0x60 DUP5 ADD MLOAD DUP7 DUP9 DUP4 SUB ADD PUSH1 0x80 DUP10 ADD MSTORE PUSH2 0x423D JUMP JUMPDEST PUSH1 0x80 DUP4 ADD MLOAD PUSH1 0xA0 DUP8 ADD MSTORE PUSH1 0xA0 DUP4 ADD MLOAD PUSH1 0xC0 DUP8 ADD MSTORE PUSH1 0xC0 DUP4 ADD MLOAD DUP6 DUP8 DUP4 SUB ADD PUSH1 0xE0 DUP9 ADD MSTORE PUSH2 0x423D JUMP JUMPDEST PUSH2 0x18DA PUSH1 0x1 DUP1 PUSH1 0xA0 SHL SUB SWAP2 PUSH2 0x18C5 DUP4 PUSH1 0xE0 DUP7 ADD MLOAD AND PUSH2 0x100 SWAP1 DUP2 DUP11 ADD MSTORE DUP6 ADD MLOAD SWAP2 PUSH2 0x120 SWAP3 DUP9 DUP11 DUP4 SUB ADD DUP5 DUP12 ADD MSTORE PUSH2 0x423D JUMP JUMPDEST SWAP1 DUP5 ADD MLOAD PUSH2 0x140 SWAP7 DUP9 DUP4 SUB ADD DUP8 DUP10 ADD MSTORE PUSH2 0x423D JUMP JUMPDEST SWAP4 DUP3 ADD MLOAD AND PUSH2 0x160 SWAP1 DUP2 DUP7 ADD MSTORE DUP2 ADD MLOAD ISZERO ISZERO PUSH2 0x180 SWAP1 DUP2 DUP7 ADD MSTORE DUP2 ADD MLOAD ISZERO ISZERO PUSH2 0x1A0 SWAP1 DUP2 DUP7 ADD MSTORE DUP2 ADD MLOAD ISZERO ISZERO PUSH2 0x1C0 SWAP1 DUP2 DUP7 ADD MSTORE DUP2 ADD MLOAD ISZERO ISZERO SWAP1 PUSH2 0x1E0 SWAP2 DUP3 DUP7 ADD MSTORE ADD MLOAD SWAP1 DUP4 ADD MSTORE SUB SWAP1 RETURN JUMPDEST CALLVALUE PUSH2 0x3A0 JUMPI PUSH2 0x1934 CALLDATASIZE PUSH2 0x40A9 JUMP JUMPDEST PUSH1 0x40 MLOAD DUP3 MLOAD SWAP2 PUSH2 0x40E PUSH2 0x1954 PUSH1 0x20 SWAP4 DUP5 DUP2 DUP2 DUP10 ADD SWAP8 PUSH2 0xB8B DUP2 DUP4 DUP12 PUSH2 0x412E JUMP JUMPDEST DUP3 DUP2 MLOAD SWAP2 ADD KECCAK256 DUP5 MLOAD SWAP1 DUP2 DUP6 KECCAK256 EQ SWAP1 DUP2 ISZERO SWAP2 PUSH2 0x1B9E JUMPI JUMPDEST POP PUSH2 0x1B7C JUMPI DUP1 MLOAD ISZERO PUSH2 0x1B6A JUMPI PUSH1 0x0 DUP1 MLOAD PUSH1 0x20 PUSH2 0x5255 DUP4 CODECOPY DUP2 MLOAD SWAP2 MSTORE PUSH1 0x0 MSTORE PUSH1 0x0 DUP3 MSTORE PUSH1 0x40 PUSH1 0x0 KECCAK256 CALLER PUSH1 0x0 MSTORE DUP3 MSTORE PUSH1 0xFF PUSH1 0x40 PUSH1 0x0 KECCAK256 SLOAD AND ISZERO DUP1 ISZERO PUSH2 0x1B39 JUMPI JUMPDEST DUP1 ISZERO PUSH2 0x1B08 JUMPI JUMPDEST DUP1 ISZERO PUSH2 0x1AD7 JUMPI JUMPDEST PUSH2 0x7E9 JUMPI PUSH1 0x40 DUP3 DUP2 PUSH2 0x1A41 DUP3 PUSH32 0xAE67159E13D82231D3F408EDCC7F75FA4E81AEACF670D6BCC87883E5C6A99353 SWAP8 PUSH2 0x1A0F DUP8 PUSH1 0x8 DUP13 PUSH2 0x1AC8 SWAP12 DUP9 MLOAD DUP1 SWAP3 MLOAD PUSH2 0x19FF DUP2 DUP4 DUP11 PUSH2 0x412E JUMP JUMPDEST DUP2 ADD PUSH1 0x2 DUP2 MSTORE SUB ADD SWAP1 KECCAK256 ADD PUSH2 0x4B01 JUMP JUMPDEST DUP4 MLOAD PUSH1 0xB DUP12 MLOAD PUSH2 0x1A20 DUP2 DUP5 DUP7 PUSH2 0x412E JUMP JUMPDEST DUP3 ADD SWAP2 PUSH1 0x2 DUP4 MSTORE DUP5 DUP2 TIMESTAMP SWAP5 SUB ADD SWAP1 KECCAK256 ADD SSTORE DUP4 MLOAD DUP1 SWAP4 DUP2 SWAP3 DUP13 MLOAD SWAP3 DUP4 SWAP2 PUSH2 0x412E JUMP JUMPDEST DUP2 ADD PUSH1 0x3 DUP2 MSTORE SUB ADD SWAP1 KECCAK256 SWAP2 PUSH2 0x1A97 DUP3 MLOAD PUSH2 0x1A5A DUP2 PUSH2 0x3FFC JUMP JUMPDEST DUP10 DUP2 MSTORE DUP4 MLOAD SWAP5 PUSH2 0x1A69 DUP7 PUSH2 0x4017 JUMP JUMPDEST PUSH1 0x6 DUP7 MSTORE PUSH6 0x537461747573 PUSH1 0xD0 SHL SWAP6 DUP7 DUP6 DUP3 ADD MSTORE DUP5 DUP4 ADD MSTORE DUP8 DUP6 DUP4 ADD MSTORE CALLER PUSH1 0x60 DUP4 ADD MSTORE TIMESTAMP PUSH1 0x80 DUP4 ADD MSTORE PUSH2 0x4C10 JUMP JUMPDEST PUSH2 0x1AAB DUP3 MLOAD SWAP9 PUSH1 0x80 DUP11 MSTORE PUSH1 0x80 DUP11 ADD SWAP1 PUSH2 0x423D JUMP JUMPDEST SWAP3 DUP9 DUP5 SUB SWAP2 DUP3 DUP2 DUP12 ADD MSTORE PUSH1 0x6 DUP6 MSTORE DUP5 ADD MSTORE ADD DUP3 DUP8 ADD MSTORE ADD SWAP1 PUSH2 0x423D JUMP JUMPDEST SWAP2 TIMESTAMP PUSH1 0x60 DUP3 ADD MSTORE DUP1 CALLER SWAP4 SUB SWAP1 LOG2 STOP JUMPDEST POP PUSH1 0x0 DUP1 MLOAD PUSH1 0x20 PUSH2 0x5175 DUP4 CODECOPY DUP2 MLOAD SWAP2 MSTORE PUSH1 0x0 MSTORE PUSH1 0x0 DUP3 MSTORE PUSH1 0x40 PUSH1 0x0 KECCAK256 CALLER PUSH1 0x0 MSTORE DUP3 MSTORE PUSH1 0xFF PUSH1 0x40 PUSH1 0x0 KECCAK256 SLOAD AND ISZERO PUSH2 0x19B6 JUMP JUMPDEST POP PUSH1 0x0 DUP1 MLOAD PUSH1 0x20 PUSH2 0x5235 DUP4 CODECOPY DUP2 MLOAD SWAP2 MSTORE PUSH1 0x0 MSTORE PUSH1 0x0 DUP3 MSTORE PUSH1 0x40 PUSH1 0x0 KECCAK256 CALLER PUSH1 0x0 MSTORE DUP3 MSTORE PUSH1 0xFF PUSH1 0x40 PUSH1 0x0 KECCAK256 SLOAD AND ISZERO PUSH2 0x19AF JUMP JUMPDEST POP PUSH1 0x0 DUP1 MLOAD PUSH1 0x20 PUSH2 0x5155 DUP4 CODECOPY DUP2 MLOAD SWAP2 MSTORE PUSH1 0x0 MSTORE PUSH1 0x0 DUP3 MSTORE PUSH1 0x40 PUSH1 0x0 KECCAK256 CALLER PUSH1 0x0 MSTORE DUP3 MSTORE PUSH1 0xFF PUSH1 0x40 PUSH1 0x0 KECCAK256 SLOAD AND ISZERO PUSH2 0x19A8 JUMP JUMPDEST PUSH1 0x40 MLOAD PUSH4 0xAB369863 PUSH1 0xE0 SHL DUP2 MSTORE PUSH1 0x4 SWAP1 REVERT JUMPDEST PUSH1 0x40 MLOAD PUSH4 0xF855236D PUSH1 0xE0 SHL DUP2 MSTORE PUSH1 0x4 DUP2 ADD DUP4 SWAP1 MSTORE DUP1 PUSH2 0x533 PUSH1 0x24 DUP3 ADD DUP8 PUSH2 0x423D JUMP JUMPDEST SWAP1 POP ISZERO DUP6 PUSH2 0x196A JUMP JUMPDEST CALLVALUE PUSH2 0x3A0 JUMPI PUSH1 0x0 CALLDATASIZE PUSH1 0x3 NOT ADD SLT PUSH2 0x3A0 JUMPI PUSH1 0x20 PUSH1 0x40 MLOAD PUSH1 0x0 DUP2 MSTORE RETURN JUMPDEST CALLVALUE PUSH2 0x3A0 JUMPI PUSH2 0x1BD1 CALLDATASIZE PUSH2 0x40EF JUMP JUMPDEST PUSH2 0x1BD9 PUSH2 0x442C JUMP JUMPDEST PUSH2 0x1BE2 DUP3 PUSH2 0x4355 JUMP JUMPDEST ISZERO PUSH2 0x38E JUMPI PUSH2 0x365 PUSH32 0x69E94E373F69F3F945457A07B335722310788AF9CD459A33DF6F72CC9E964043 SWAP2 PUSH1 0x0 DUP1 MLOAD PUSH1 0x20 PUSH2 0x51F5 DUP4 CODECOPY DUP2 MLOAD SWAP2 MSTORE DUP1 PUSH1 0x0 MSTORE PUSH1 0x0 PUSH1 0x20 MSTORE PUSH2 0x1C35 PUSH1 0x1 PUSH1 0x40 PUSH1 0x0 KECCAK256 ADD SLOAD PUSH2 0x4484 JUMP JUMPDEST PUSH2 0x5BB DUP6 PUSH2 0x48CA JUMP JUMPDEST CALLVALUE PUSH2 0x3A0 JUMPI PUSH2 0x1C4C CALLDATASIZE PUSH2 0x40A9 JUMP JUMPDEST CALLER PUSH1 0x0 SWAP1 DUP2 MSTORE PUSH1 0x0 DUP1 MLOAD PUSH1 0x20 PUSH2 0x5135 DUP4 CODECOPY DUP2 MLOAD SWAP2 MSTORE PUSH1 0x20 SWAP1 DUP2 MSTORE PUSH1 0x40 SWAP1 SWAP2 KECCAK256 SLOAD SWAP2 SWAP3 SWAP2 PUSH1 0xFF AND ISZERO PUSH2 0x7E9 JUMPI PUSH1 0x40 MLOAD PUSH1 0x1 PUSH1 0xFF PUSH1 0xA DUP6 MLOAD SWAP4 DUP6 DUP2 DUP2 DUP10 ADD SWAP7 PUSH2 0x1C94 DUP2 DUP4 DUP11 PUSH2 0x412E JUMP JUMPDEST DUP2 ADD PUSH1 0x2 DUP2 MSTORE SUB ADD SWAP1 KECCAK256 ADD SLOAD PUSH1 0xB8 SHR AND ISZERO ISZERO EQ PUSH2 0x1D19 JUMPI SWAP2 PUSH1 0xA PUSH2 0x1CE8 PUSH2 0x1D14 SWAP4 PUSH32 0x3A9EEBD240F4C9F631531EBC672C4C040DE483B868CCEBE8A3A1FDAD70CDE0D9 SWAP6 PUSH1 0x40 MLOAD DUP1 SWAP4 DUP2 SWAP3 DUP8 MLOAD SWAP3 DUP4 SWAP2 PUSH2 0x412E JUMP JUMPDEST DUP2 ADD PUSH1 0x2 DUP2 MSTORE SUB ADD SWAP1 KECCAK256 ADD PUSH1 0x1 PUSH1 0xB8 SHL PUSH1 0xFF PUSH1 0xB8 SHL NOT DUP3 SLOAD AND OR SWAP1 SSTORE PUSH1 0x40 MLOAD SWAP2 DUP3 SWAP2 CALLER SWAP6 TIMESTAMP SWAP2 DUP5 PUSH2 0x4CAA JUMP JUMPDEST SUB SWAP1 LOG2 STOP JUMPDEST POP PUSH2 0x533 PUSH1 0x40 MLOAD SWAP3 DUP4 SWAP3 PUSH4 0x6F5F9441 PUSH1 0xE1 SHL DUP5 MSTORE PUSH1 0x4 DUP5 ADD MSTORE PUSH1 0x24 DUP4 ADD SWAP1 PUSH2 0x423D JUMP JUMPDEST CALLVALUE PUSH2 0x3A0 JUMPI PUSH1 0x20 DUP1 PUSH1 0x3 NOT CALLDATASIZE ADD SLT PUSH2 0x3A0 JUMPI PUSH1 0x4 CALLDATALOAD PUSH1 0x1 PUSH1 0x1 PUSH1 0x40 SHL SUB DUP2 GT PUSH2 0x3A0 JUMPI PUSH2 0x1D6D SWAP1 CALLDATASIZE SWAP1 PUSH1 0x4 ADD PUSH2 0x4053 JUMP JUMPDEST SWAP1 PUSH1 0x40 MLOAD PUSH2 0x40E PUSH2 0x1D8B DUP5 MLOAD SWAP3 DUP5 DUP2 DUP2 DUP9 ADD SWAP6 PUSH2 0xB8B DUP2 DUP4 DUP10 PUSH2 0x412E JUMP JUMPDEST DUP3 DUP2 MLOAD SWAP2 ADD KECCAK256 DUP4 MLOAD SWAP1 DUP2 DUP4 KECCAK256 EQ SWAP1 DUP2 ISZERO SWAP2 PUSH2 0x1DDB JUMPI JUMPDEST POP PUSH2 0xBF1 JUMPI PUSH1 0xA PUSH2 0x1DC1 DUP4 PUSH1 0xFF SWAP4 DUP7 PUSH1 0x40 MLOAD SWAP4 DUP5 SWAP3 DUP4 SWAP3 MLOAD SWAP3 DUP4 SWAP2 PUSH2 0x412E JUMP JUMPDEST DUP2 ADD PUSH1 0x2 DUP2 MSTORE SUB ADD SWAP1 KECCAK256 ADD SLOAD PUSH1 0xB0 SHR AND PUSH1 0x40 MLOAD SWAP1 ISZERO ISZERO DUP2 MSTORE RETURN JUMPDEST SWAP1 POP ISZERO DUP5 PUSH2 0x1DA1 JUMP JUMPDEST CALLVALUE PUSH2 0x3A0 JUMPI PUSH1 0x40 CALLDATASIZE PUSH1 0x3 NOT ADD SLT PUSH2 0x3A0 JUMPI PUSH2 0x1DFD PUSH2 0x3FB4 JUMP JUMPDEST PUSH1 0x4 CALLDATALOAD PUSH1 0x0 MSTORE PUSH1 0x0 PUSH1 0x20 MSTORE PUSH1 0x40 PUSH1 0x0 KECCAK256 SWAP1 PUSH1 0x1 DUP1 PUSH1 0xA0 SHL SUB AND PUSH1 0x0 MSTORE PUSH1 0x20 MSTORE PUSH1 0x20 PUSH1 0xFF PUSH1 0x40 PUSH1 0x0 KECCAK256 SLOAD AND PUSH1 0x40 MLOAD SWAP1 ISZERO ISZERO DUP2 MSTORE RETURN JUMPDEST CALLVALUE PUSH2 0x3A0 JUMPI PUSH1 0x20 CALLDATASIZE PUSH1 0x3 NOT ADD SLT PUSH2 0x3A0 JUMPI PUSH2 0x1E4A PUSH2 0x3F9E JUMP JUMPDEST PUSH1 0x1 PUSH1 0x1 PUSH1 0xA0 SHL SUB AND PUSH1 0x0 SWAP1 DUP2 MSTORE PUSH1 0x0 DUP1 MLOAD PUSH1 0x20 PUSH2 0x5135 DUP4 CODECOPY DUP2 MLOAD SWAP2 MSTORE PUSH1 0x20 SWAP1 DUP2 MSTORE PUSH1 0x40 SWAP2 DUP3 SWAP1 KECCAK256 SLOAD SWAP2 MLOAD PUSH1 0xFF SWAP1 SWAP3 AND ISZERO ISZERO DUP3 MSTORE SWAP1 RETURN JUMPDEST CALLVALUE PUSH2 0x3A0 JUMPI PUSH2 0x1E8F CALLDATASIZE PUSH2 0x40A9 JUMP JUMPDEST CALLER PUSH1 0x0 SWAP1 DUP2 MSTORE PUSH1 0x0 DUP1 MLOAD PUSH1 0x20 PUSH2 0x51D5 DUP4 CODECOPY DUP2 MLOAD SWAP2 MSTORE PUSH1 0x20 SWAP1 DUP2 MSTORE PUSH1 0x40 SWAP1 SWAP2 KECCAK256 SLOAD SWAP2 SWAP3 SWAP2 PUSH1 0xFF AND ISZERO PUSH2 0x7E9 JUMPI PUSH1 0x40 MLOAD DUP2 DUP2 DUP5 MLOAD PUSH2 0x1ECE DUP2 DUP4 DUP6 DUP10 ADD PUSH2 0x412E JUMP JUMPDEST DUP2 ADD PUSH1 0x8 DUP2 MSTORE SUB ADD SWAP1 KECCAK256 PUSH1 0x4 DUP2 ADD DUP1 SLOAD PUSH1 0xFF DUP2 AND ISZERO PUSH2 0x1FE8 JUMPI PUSH2 0x1EF7 PUSH1 0xFF DUP3 PUSH1 0x8 SHR AND ISZERO PUSH2 0x5099 JUMP JUMPDEST PUSH1 0x1 DUP4 ADD SLOAD PUSH1 0x1 PUSH1 0x1 PUSH1 0xA0 SHL SUB AND CALLER SUB PUSH2 0x1FB7 JUMPI PUSH1 0xFF DUP2 PUSH1 0xB8 SHR AND ISZERO PUSH2 0x1F7F JUMPI SWAP3 PUSH2 0x1F5C DUP7 PUSH1 0x5 PUSH32 0x48009E0DE65DB9A1C994F7F48E9CFE917749FA06F868B8948251D3789A00A655 SWAP8 SWAP6 PUSH2 0x1D14 SWAP6 PUSH3 0x10000 PUSH2 0x1F70 SWAP10 PUSH3 0xFF0000 NOT AND OR SWAP1 SSTORE ADD PUSH2 0x4B01 JUMP JUMPDEST PUSH1 0x40 MLOAD SWAP4 DUP5 SWAP4 PUSH1 0x40 DUP6 MSTORE PUSH1 0x40 DUP6 ADD SWAP1 PUSH2 0x423D JUMP JUMPDEST SWAP1 DUP4 DUP3 SUB SWAP1 DUP5 ADD MSTORE CALLER SWAP6 PUSH2 0x423D JUMP JUMPDEST PUSH1 0x40 MLOAD PUSH3 0x461BCD PUSH1 0xE5 SHL DUP2 MSTORE PUSH1 0x4 DUP2 ADD DUP6 SWAP1 MSTORE PUSH1 0x10 PUSH1 0x24 DUP3 ADD MSTORE PUSH16 0x4E6F74206D61726B6574207265616479 PUSH1 0x80 SHL PUSH1 0x44 DUP3 ADD MSTORE PUSH1 0x64 SWAP1 REVERT JUMPDEST PUSH1 0x40 MLOAD PUSH3 0x461BCD PUSH1 0xE5 SHL DUP2 MSTORE PUSH1 0x4 DUP2 ADD DUP6 SWAP1 MSTORE PUSH1 0x9 PUSH1 0x24 DUP3 ADD MSTORE PUSH9 0x2737BA1037BBB732B9 PUSH1 0xB9 SHL PUSH1 0x44 DUP3 ADD MSTORE PUSH1 0x64 SWAP1 REVERT JUMPDEST PUSH1 0x40 MLOAD PUSH3 0x461BCD PUSH1 0xE5 SHL DUP2 MSTORE PUSH1 0x4 DUP2 ADD DUP6 SWAP1 MSTORE PUSH1 0x12 PUSH1 0x24 DUP3 ADD MSTORE PUSH18 0x135A5B995C985B081B9BDD081CDD1BDC9959 PUSH1 0x72 SHL PUSH1 0x44 DUP3 ADD MSTORE PUSH1 0x64 SWAP1 REVERT JUMPDEST CALLVALUE PUSH2 0x3A0 JUMPI PUSH1 0x20 CALLDATASIZE PUSH1 0x3 NOT ADD SLT PUSH2 0x3A0 JUMPI PUSH1 0x1 PUSH1 0x1 PUSH1 0xA0 SHL SUB PUSH2 0x2043 PUSH2 0x3F9E JUMP JUMPDEST AND PUSH1 0x0 MSTORE PUSH1 0xA PUSH1 0x20 MSTORE PUSH1 0x20 PUSH1 0xFF PUSH1 0x40 PUSH1 0x0 KECCAK256 SLOAD AND PUSH1 0x40 MLOAD SWAP1 ISZERO ISZERO DUP2 MSTORE RETURN JUMPDEST CALLVALUE PUSH2 0x3A0 JUMPI PUSH1 0x20 DUP1 PUSH1 0x3 NOT CALLDATASIZE ADD SLT PUSH2 0x3A0 JUMPI PUSH1 0x4 CALLDATALOAD PUSH1 0x1 PUSH1 0x1 PUSH1 0x40 SHL SUB DUP2 GT PUSH2 0x3A0 JUMPI PUSH2 0x2092 SWAP1 CALLDATASIZE SWAP1 PUSH1 0x4 ADD PUSH2 0x4053 JUMP JUMPDEST SWAP1 PUSH1 0x40 MLOAD SWAP1 DUP3 MLOAD SWAP3 PUSH2 0x40E PUSH2 0x20AF DUP4 DUP4 ADD SWAP6 PUSH2 0x3F3 DUP2 DUP8 DUP10 PUSH2 0x412E JUMP JUMPDEST DUP3 DUP2 MLOAD SWAP2 ADD KECCAK256 DUP2 MLOAD SWAP1 DUP2 DUP7 KECCAK256 EQ SWAP1 DUP2 ISZERO SWAP2 PUSH2 0x21B8 JUMPI JUMPDEST POP PUSH2 0x21A6 JUMPI PUSH2 0x20DC PUSH1 0x40 MLOAD SWAP5 DUP6 SWAP3 MLOAD SWAP3 DUP4 SWAP2 PUSH2 0x412E JUMP JUMPDEST DUP4 ADD SWAP3 DUP2 DUP2 PUSH1 0x3 SWAP6 DUP7 DUP2 MSTORE SUB ADD SWAP1 KECCAK256 DUP1 SLOAD SWAP2 PUSH2 0x20F7 DUP4 PUSH2 0x4262 JUMP JUMPDEST SWAP4 PUSH2 0x2105 PUSH1 0x40 MLOAD SWAP6 DUP7 PUSH2 0x4032 JUMP JUMPDEST DUP4 DUP6 MSTORE PUSH1 0x0 SWAP3 DUP4 MSTORE DUP2 DUP4 KECCAK256 SWAP1 DUP3 DUP7 ADD JUMPDEST DUP6 DUP6 LT PUSH2 0x212A JUMPI PUSH1 0x40 MLOAD DUP1 PUSH2 0x490 DUP10 DUP3 PUSH2 0x4279 JUMP JUMPDEST PUSH1 0x5 DUP5 PUSH1 0x1 SWAP3 PUSH1 0x40 MLOAD PUSH2 0x213C DUP2 PUSH2 0x3FFC JUMP JUMPDEST PUSH1 0x40 MLOAD PUSH2 0x214D DUP2 PUSH2 0x40E DUP2 DUP12 PUSH2 0x41A7 JUMP JUMPDEST DUP2 MSTORE PUSH1 0x40 MLOAD PUSH2 0x2162 DUP2 PUSH2 0x40E DUP2 DUP10 DUP13 ADD PUSH2 0x41A7 JUMP JUMPDEST DUP4 DUP3 ADD MSTORE PUSH1 0x40 MLOAD PUSH2 0x2179 DUP2 PUSH2 0x40E DUP2 DUP11 DUP13 ADD PUSH2 0x41A7 JUMP JUMPDEST PUSH1 0x40 DUP3 ADD MSTORE DUP5 DUP1 PUSH1 0xA0 SHL SUB DUP13 DUP9 ADD SLOAD AND PUSH1 0x60 DUP3 ADD MSTORE PUSH1 0x4 DUP8 ADD SLOAD PUSH1 0x80 DUP3 ADD MSTORE DUP2 MSTORE ADD SWAP4 ADD SWAP5 ADD SWAP4 SWAP2 PUSH2 0x2115 JUMP JUMPDEST PUSH1 0x40 MLOAD PUSH4 0x29D7B10B PUSH1 0xE1 SHL DUP2 MSTORE PUSH1 0x4 SWAP1 REVERT JUMPDEST SWAP1 POP ISZERO DUP6 PUSH2 0x20C5 JUMP JUMPDEST CALLVALUE PUSH2 0x3A0 JUMPI PUSH2 0x21CF CALLDATASIZE PUSH2 0x40A9 JUMP JUMPDEST CALLER PUSH1 0x0 SWAP1 DUP2 MSTORE PUSH1 0x0 DUP1 MLOAD PUSH1 0x20 PUSH2 0x51D5 DUP4 CODECOPY DUP2 MLOAD SWAP2 MSTORE PUSH1 0x20 SWAP1 DUP2 MSTORE PUSH1 0x40 SWAP1 SWAP2 KECCAK256 SLOAD SWAP2 SWAP3 SWAP2 PUSH1 0xFF AND ISZERO PUSH2 0x7E9 JUMPI PUSH1 0x40 MLOAD PUSH1 0x1 PUSH1 0xFF PUSH1 0xA DUP6 MLOAD SWAP4 DUP6 DUP2 DUP2 DUP10 ADD SWAP7 PUSH2 0x2217 DUP2 DUP4 DUP11 PUSH2 0x412E JUMP JUMPDEST DUP2 ADD PUSH1 0x2 DUP2 MSTORE SUB ADD SWAP1 KECCAK256 ADD SLOAD PUSH1 0xA8 SHR AND ISZERO ISZERO EQ PUSH2 0x2297 JUMPI SWAP2 PUSH1 0xA PUSH2 0x226B PUSH2 0x1D14 SWAP4 PUSH32 0xA214F45AF6D86B0D5FF7BB48F888CF4205E4A383DA35FCBEBFDBD9BD8E6D5A7C SWAP6 PUSH1 0x40 MLOAD DUP1 SWAP4 DUP2 SWAP3 DUP8 MLOAD SWAP3 DUP4 SWAP2 PUSH2 0x412E JUMP JUMPDEST DUP2 ADD PUSH1 0x2 DUP2 MSTORE SUB ADD SWAP1 KECCAK256 ADD PUSH1 0x1 PUSH1 0xA8 SHL PUSH1 0xFF PUSH1 0xA8 SHL NOT DUP3 SLOAD AND OR SWAP1 SSTORE PUSH1 0x40 MLOAD SWAP2 DUP3 SWAP2 CALLER SWAP6 TIMESTAMP SWAP2 DUP5 PUSH2 0x4CAA JUMP JUMPDEST POP PUSH2 0x533 PUSH1 0x40 MLOAD SWAP3 DUP4 SWAP3 PUSH4 0x701203B7 PUSH1 0xE0 SHL DUP5 MSTORE PUSH1 0x4 DUP5 ADD MSTORE PUSH1 0x24 DUP4 ADD SWAP1 PUSH2 0x423D JUMP JUMPDEST CALLVALUE PUSH2 0x3A0 JUMPI PUSH2 0x22C8 CALLDATASIZE PUSH2 0x40EF JUMP JUMPDEST PUSH2 0x22D0 PUSH2 0x442C JUMP JUMPDEST PUSH2 0x22D9 DUP3 PUSH2 0x43D6 JUMP JUMPDEST ISZERO PUSH2 0x38E JUMPI PUSH2 0x365 PUSH32 0x71577B91708C73EE54B43C6709958FF42E4BCC084910648CE7C3D16928B51D52 SWAP2 PUSH1 0x0 DUP1 MLOAD PUSH1 0x20 PUSH2 0x5155 DUP4 CODECOPY DUP2 MLOAD SWAP2 MSTORE DUP1 PUSH1 0x0 MSTORE PUSH1 0x0 PUSH1 0x20 MSTORE PUSH2 0x232C PUSH1 0x1 PUSH1 0x40 PUSH1 0x0 KECCAK256 ADD SLOAD PUSH2 0x4484 JUMP JUMPDEST PUSH2 0x5BB DUP6 PUSH2 0x4855 JUMP JUMPDEST CALLVALUE PUSH2 0x3A0 JUMPI PUSH1 0x0 CALLDATASIZE PUSH1 0x3 NOT ADD SLT PUSH2 0x3A0 JUMPI PUSH1 0x20 PUSH1 0x40 MLOAD PUSH1 0x0 DUP1 MLOAD PUSH1 0x20 PUSH2 0x51F5 DUP4 CODECOPY DUP2 MLOAD SWAP2 MSTORE DUP2 MSTORE RETURN JUMPDEST CALLVALUE PUSH2 0x3A0 JUMPI PUSH1 0x0 CALLDATASIZE PUSH1 0x3 NOT ADD SLT PUSH2 0x3A0 JUMPI PUSH1 0x20 PUSH1 0x40 MLOAD PUSH1 0x0 DUP1 MLOAD PUSH1 0x20 PUSH2 0x5255 DUP4 CODECOPY DUP2 MLOAD SWAP2 MSTORE DUP2 MSTORE RETURN JUMPDEST CALLVALUE PUSH2 0x3A0 JUMPI PUSH1 0x20 DUP1 PUSH1 0x3 NOT CALLDATASIZE ADD SLT PUSH2 0x3A0 JUMPI PUSH1 0x4 CALLDATALOAD PUSH1 0x1 PUSH1 0x1 PUSH1 0x40 SHL SUB DUP2 GT PUSH2 0x3A0 JUMPI PUSH2 0x23B8 SWAP1 CALLDATASIZE SWAP1 PUSH1 0x4 ADD PUSH2 0x4053 JUMP JUMPDEST SWAP1 PUSH1 0x0 DUP1 MSTORE PUSH1 0x0 DUP2 MSTORE PUSH1 0x40 PUSH1 0x0 KECCAK256 CALLER PUSH1 0x0 MSTORE DUP2 MSTORE PUSH1 0xFF PUSH1 0x40 PUSH1 0x0 KECCAK256 SLOAD AND ISZERO PUSH2 0x7E9 JUMPI PUSH1 0x40 MLOAD PUSH2 0x40E PUSH2 0x23F7 DUP5 MLOAD SWAP3 DUP5 DUP2 DUP2 DUP9 ADD SWAP6 PUSH2 0xB8B DUP2 DUP4 DUP10 PUSH2 0x412E JUMP JUMPDEST DUP3 DUP2 MLOAD SWAP2 ADD KECCAK256 DUP4 MLOAD SWAP1 DUP2 DUP4 KECCAK256 EQ SWAP1 DUP2 ISZERO SWAP2 PUSH2 0x2537 JUMPI JUMPDEST POP PUSH2 0x21A6 JUMPI PUSH1 0xFF PUSH1 0xA PUSH1 0x40 MLOAD DUP5 DUP2 DUP8 MLOAD PUSH2 0x2428 DUP2 DUP4 DUP10 PUSH2 0x412E JUMP JUMPDEST DUP2 ADD PUSH1 0x2 DUP2 MSTORE SUB ADD SWAP1 KECCAK256 ADD SLOAD PUSH1 0xB0 SHR AND DUP1 PUSH2 0x250B JUMPI JUMPDEST ISZERO PUSH2 0x24E8 JUMPI PUSH2 0x24B7 PUSH1 0xFF SWAP3 PUSH1 0xA SWAP3 PUSH1 0x40 MLOAD PUSH32 0x10F4BA4C7BB6F0C442F54585004A6E24440BEA5C2D2E6F36B688E3E624762E22 CALLER SWAP2 DUP1 PUSH2 0x247E TIMESTAMP DUP12 DUP4 PUSH2 0x4D15 JUMP JUMPDEST SUB SWAP1 LOG2 DUP5 DUP5 PUSH1 0x40 MLOAD DUP5 DUP2 DUP11 MLOAD PUSH2 0x2495 DUP2 DUP4 DUP10 PUSH2 0x412E JUMP JUMPDEST DUP2 ADD PUSH1 0x2 DUP2 MSTORE SUB ADD SWAP1 KECCAK256 ADD SLOAD PUSH1 0xB0 SHR AND SWAP6 PUSH1 0x40 MLOAD SWAP4 DUP5 SWAP3 DUP4 SWAP3 MLOAD SWAP3 DUP4 SWAP2 PUSH2 0x412E JUMP JUMPDEST DUP2 ADD PUSH1 0x2 DUP2 MSTORE SUB ADD SWAP1 KECCAK256 ADD SLOAD PUSH1 0xB8 SHR AND SWAP1 PUSH2 0x490 PUSH1 0x40 MLOAD SWAP3 DUP4 SWAP3 DUP4 SWAP1 SWAP3 SWAP2 PUSH1 0x20 SWAP1 PUSH1 0x40 DUP4 ADD SWAP5 ISZERO ISZERO DUP4 MSTORE ISZERO ISZERO SWAP2 ADD MSTORE JUMP JUMPDEST POP PUSH2 0x533 PUSH1 0x40 MLOAD SWAP3 DUP4 SWAP3 PUSH4 0x48CDDBDB PUSH1 0xE1 SHL DUP5 MSTORE PUSH1 0x4 DUP5 ADD MSTORE PUSH1 0x24 DUP4 ADD SWAP1 PUSH2 0x423D JUMP JUMPDEST POP PUSH1 0xFF PUSH1 0xA PUSH1 0x40 MLOAD DUP5 DUP2 DUP8 MLOAD PUSH2 0x2522 DUP2 DUP4 DUP10 PUSH2 0x412E JUMP JUMPDEST DUP2 ADD PUSH1 0x2 DUP2 MSTORE SUB ADD SWAP1 KECCAK256 ADD SLOAD PUSH1 0xB8 SHR AND PUSH2 0x243E JUMP JUMPDEST SWAP1 POP ISZERO DUP5 PUSH2 0x240D JUMP JUMPDEST CALLVALUE PUSH2 0x3A0 JUMPI PUSH1 0x20 CALLDATASIZE PUSH1 0x3 NOT ADD SLT PUSH2 0x3A0 JUMPI PUSH2 0x2559 PUSH2 0x3F9E JUMP JUMPDEST PUSH1 0x1 PUSH1 0x1 PUSH1 0xA0 SHL SUB AND PUSH1 0x0 SWAP1 DUP2 MSTORE PUSH1 0x0 DUP1 MLOAD PUSH1 0x20 PUSH2 0x51B5 DUP4 CODECOPY DUP2 MLOAD SWAP2 MSTORE PUSH1 0x20 SWAP1 DUP2 MSTORE PUSH1 0x40 SWAP2 DUP3 SWAP1 KECCAK256 SLOAD SWAP2 MLOAD PUSH1 0xFF SWAP1 SWAP3 AND ISZERO ISZERO DUP3 MSTORE SWAP1 RETURN JUMPDEST CALLVALUE PUSH2 0x3A0 JUMPI PUSH1 0x0 CALLDATASIZE PUSH1 0x3 NOT ADD SLT PUSH2 0x3A0 JUMPI PUSH1 0x20 PUSH1 0x40 MLOAD PUSH1 0x0 DUP1 MLOAD PUSH1 0x20 PUSH2 0x5235 DUP4 CODECOPY DUP2 MLOAD SWAP2 MSTORE DUP2 MSTORE RETURN JUMPDEST CALLVALUE PUSH2 0x3A0 JUMPI PUSH1 0x0 CALLDATASIZE PUSH1 0x3 NOT ADD SLT PUSH2 0x3A0 JUMPI PUSH1 0x20 PUSH1 0x40 MLOAD PUSH1 0x0 DUP1 MLOAD PUSH1 0x20 PUSH2 0x5215 DUP4 CODECOPY DUP2 MLOAD SWAP2 MSTORE DUP2 MSTORE RETURN JUMPDEST CALLVALUE PUSH2 0x3A0 JUMPI PUSH1 0x20 CALLDATASIZE PUSH1 0x3 NOT ADD SLT PUSH2 0x3A0 JUMPI PUSH2 0x25FB PUSH2 0x3F9E JUMP JUMPDEST PUSH1 0x1 PUSH1 0x1 PUSH1 0xA0 SHL SUB DUP2 AND SWAP1 DUP2 ISZERO PUSH2 0x1132 JUMPI PUSH2 0x2614 PUSH2 0x442C JUMP JUMPDEST PUSH2 0x261D DUP2 PUSH2 0x43AB JUMP JUMPDEST PUSH2 0x128F JUMPI PUSH2 0x262A SWAP1 PUSH2 0x4614 JUMP JUMPDEST POP PUSH1 0x0 DUP1 MLOAD PUSH1 0x20 PUSH2 0x5255 DUP4 CODECOPY DUP2 MLOAD SWAP2 MSTORE PUSH1 0x0 MSTORE PUSH1 0x4 PUSH1 0x20 MSTORE PUSH32 0x2FF85B9F193A3A7824CBAF5A79DB262C0BAC955152ADF2752C6413D76B2D3C7 DUP1 SLOAD PUSH2 0x266E SWAP1 PUSH2 0x4CD8 JUMP JUMPDEST SWAP1 SSTORE PUSH32 0x4E3EEDE475DE92D3E23765B737DBB67646352B3328C1A437D7F089766D7BE751 PUSH1 0x20 PUSH1 0x40 MLOAD TIMESTAMP DUP2 MSTORE LOG2 STOP JUMPDEST CALLVALUE PUSH2 0x3A0 JUMPI PUSH1 0x20 CALLDATASIZE PUSH1 0x3 NOT ADD SLT PUSH2 0x3A0 JUMPI PUSH1 0x4 CALLDATALOAD PUSH1 0x1 PUSH1 0x1 PUSH1 0x40 SHL SUB DUP2 GT PUSH2 0x3A0 JUMPI PUSH2 0x26CC SWAP1 CALLDATASIZE SWAP1 PUSH1 0x4 ADD PUSH2 0x4053 JUMP JUMPDEST PUSH1 0x40 MLOAD DUP2 DUP2 DUP1 SWAP4 MLOAD PUSH1 0x20 DUP2 SWAP4 ADD SWAP2 PUSH2 0x26E3 SWAP3 PUSH2 0x412E JUMP JUMPDEST DUP2 ADD PUSH1 0x2 DUP2 MSTORE SUB PUSH1 0x20 ADD SWAP1 KECCAK256 PUSH1 0x40 MLOAD DUP1 PUSH2 0x26FD DUP2 DUP5 PUSH2 0x41A7 JUMP JUMPDEST SUB PUSH2 0x2708 SWAP1 DUP3 PUSH2 0x4032 JUMP JUMPDEST PUSH1 0x40 MLOAD SWAP2 DUP3 PUSH2 0x271A DUP2 PUSH1 0x1 DUP5 ADD PUSH2 0x41A7 JUMP JUMPDEST SUB PUSH2 0x2725 SWAP1 DUP5 PUSH2 0x4032 JUMP JUMPDEST PUSH1 0x40 MLOAD DUP1 PUSH2 0x2736 DUP2 PUSH1 0x2 DUP6 ADD PUSH2 0x41A7 JUMP JUMPDEST SUB PUSH2 0x2741 SWAP1 DUP3 PUSH2 0x4032 JUMP JUMPDEST PUSH1 0x40 MLOAD SWAP2 DUP3 PUSH2 0x2753 DUP2 PUSH1 0x3 DUP5 ADD PUSH2 0x41A7 JUMP JUMPDEST SUB PUSH2 0x275E SWAP1 DUP5 PUSH2 0x4032 JUMP JUMPDEST PUSH1 0x4 DUP2 ADD SLOAD PUSH1 0x5 DUP3 ADD SLOAD PUSH1 0x40 MLOAD SWAP5 SWAP2 DUP6 PUSH2 0x277B DUP2 PUSH1 0x6 DUP8 ADD PUSH2 0x41A7 JUMP JUMPDEST SUB PUSH2 0x2786 SWAP1 DUP8 PUSH2 0x4032 JUMP JUMPDEST PUSH1 0x7 DUP5 ADD SLOAD PUSH1 0x40 MLOAD PUSH1 0x1 PUSH1 0x1 PUSH1 0xA0 SHL SUB SWAP8 SWAP1 SWAP4 SWAP2 DUP9 AND SWAP3 SWAP1 SWAP2 DUP5 PUSH2 0x27AD DUP2 PUSH1 0x8 DUP11 ADD PUSH2 0x41A7 JUMP JUMPDEST SUB PUSH2 0x27B8 SWAP1 DUP7 PUSH2 0x4032 JUMP JUMPDEST PUSH1 0x40 MLOAD SWAP6 DUP7 PUSH2 0x27CA DUP2 PUSH1 0x9 DUP12 ADD PUSH2 0x41A7 JUMP JUMPDEST SUB PUSH2 0x27D5 SWAP1 DUP9 PUSH2 0x4032 JUMP JUMPDEST PUSH1 0xA DUP9 ADD SLOAD SWAP8 PUSH1 0xB ADD SLOAD SWAP9 PUSH1 0x40 MLOAD SWAP13 DUP14 SWAP13 DUP14 PUSH2 0x200 SWAP1 DUP2 DUP2 MSTORE ADD PUSH2 0x27F8 SWAP2 PUSH2 0x423D JUMP JUMPDEST DUP14 DUP2 SUB PUSH1 0x20 DUP16 ADD MSTORE PUSH2 0x2809 SWAP2 PUSH2 0x423D JUMP JUMPDEST DUP13 DUP2 SUB PUSH1 0x40 DUP15 ADD MSTORE PUSH2 0x281A SWAP2 PUSH2 0x423D JUMP JUMPDEST DUP12 DUP2 SUB PUSH1 0x60 DUP14 ADD MSTORE PUSH2 0x282B SWAP2 PUSH2 0x423D JUMP JUMPDEST SWAP2 PUSH1 0x80 DUP12 ADD MSTORE PUSH1 0xA0 DUP11 ADD MSTORE DUP9 DUP2 SUB PUSH1 0xC0 DUP11 ADD MSTORE PUSH2 0x2847 SWAP2 PUSH2 0x423D JUMP JUMPDEST SWAP1 PUSH1 0xE0 DUP9 ADD MSTORE DUP7 DUP2 SUB PUSH2 0x100 DUP9 ADD MSTORE PUSH2 0x285F SWAP2 PUSH2 0x423D JUMP JUMPDEST DUP6 DUP2 SUB PUSH2 0x120 DUP8 ADD MSTORE PUSH2 0x2871 SWAP2 PUSH2 0x423D JUMP JUMPDEST SWAP3 DUP2 AND PUSH2 0x140 DUP6 ADD MSTORE DUP1 PUSH1 0xA0 SHR PUSH1 0xFF AND ISZERO ISZERO PUSH2 0x160 DUP6 ADD MSTORE DUP1 PUSH1 0xA8 SHR PUSH1 0xFF AND ISZERO ISZERO PUSH2 0x180 DUP6 ADD MSTORE DUP1 PUSH1 0xB0 SHR PUSH1 0xFF AND ISZERO ISZERO PUSH2 0x1A0 DUP6 ADD MSTORE PUSH1 0xB8 SHR PUSH1 0xFF AND ISZERO ISZERO PUSH2 0x1C0 DUP5 ADD MSTORE PUSH2 0x1E0 DUP4 ADD MSTORE SUB SWAP1 RETURN JUMPDEST CALLVALUE PUSH2 0x3A0 JUMPI PUSH1 0x0 CALLDATASIZE PUSH1 0x3 NOT ADD SLT PUSH2 0x3A0 JUMPI PUSH1 0x20 PUSH1 0x40 MLOAD PUSH1 0x0 DUP1 MLOAD PUSH1 0x20 PUSH2 0x5155 DUP4 CODECOPY DUP2 MLOAD SWAP2 MSTORE DUP2 MSTORE RETURN JUMPDEST CALLVALUE PUSH2 0x3A0 JUMPI PUSH2 0x28F6 CALLDATASIZE PUSH2 0x40A9 JUMP JUMPDEST CALLER PUSH1 0x0 SWAP1 DUP2 MSTORE PUSH1 0x0 DUP1 MLOAD PUSH1 0x20 PUSH2 0x50D5 DUP4 CODECOPY DUP2 MLOAD SWAP2 MSTORE PUSH1 0x20 SWAP1 DUP2 MSTORE PUSH1 0x40 SWAP1 SWAP2 KECCAK256 SLOAD SWAP2 SWAP3 SWAP2 PUSH1 0xFF AND ISZERO PUSH2 0x7E9 JUMPI PUSH1 0x40 MLOAD PUSH1 0x1 PUSH1 0xFF PUSH1 0xA DUP6 MLOAD SWAP4 DUP6 DUP2 DUP2 DUP10 ADD SWAP7 PUSH2 0x293E DUP2 DUP4 DUP11 PUSH2 0x412E JUMP JUMPDEST DUP2 ADD PUSH1 0x2 DUP2 MSTORE SUB ADD SWAP1 KECCAK256 ADD SLOAD PUSH1 0xB0 SHR AND ISZERO ISZERO EQ PUSH2 0x29BE JUMPI SWAP2 PUSH1 0xA PUSH2 0x2992 PUSH2 0x1D14 SWAP4 PUSH32 0xA9DE1934279A83F8CFAAECF6A7002AC10AEAEA244C8C763F3752F3FC4C3E631D SWAP6 PUSH1 0x40 MLOAD DUP1 SWAP4 DUP2 SWAP3 DUP8 MLOAD SWAP3 DUP4 SWAP2 PUSH2 0x412E JUMP JUMPDEST DUP2 ADD PUSH1 0x2 DUP2 MSTORE SUB ADD SWAP1 KECCAK256 ADD PUSH1 0x1 PUSH1 0xB0 SHL PUSH1 0xFF PUSH1 0xB0 SHL NOT DUP3 SLOAD AND OR SWAP1 SSTORE PUSH1 0x40 MLOAD SWAP2 DUP3 SWAP2 CALLER SWAP6 TIMESTAMP SWAP2 DUP5 PUSH2 0x4CAA JUMP JUMPDEST POP PUSH2 0x533 PUSH1 0x40 MLOAD SWAP3 DUP4 SWAP3 PUSH4 0xC817400D PUSH1 0xE0 SHL DUP5 MSTORE PUSH1 0x4 DUP5 ADD MSTORE PUSH1 0x24 DUP4 ADD SWAP1 PUSH2 0x423D JUMP JUMPDEST CALLVALUE PUSH2 0x3A0 JUMPI PUSH1 0x20 CALLDATASIZE PUSH1 0x3 NOT ADD SLT PUSH2 0x3A0 JUMPI PUSH2 0x29FA PUSH2 0x3F9E JUMP JUMPDEST PUSH1 0x1 PUSH1 0x1 PUSH1 0xA0 SHL SUB DUP2 AND SWAP1 DUP2 ISZERO PUSH2 0x1132 JUMPI PUSH2 0x2A13 PUSH2 0x442C JUMP JUMPDEST PUSH2 0x2A1C DUP2 PUSH2 0x4380 JUMP JUMPDEST PUSH2 0x128F JUMPI PUSH2 0x2A29 SWAP1 PUSH2 0x459D JUMP JUMPDEST POP PUSH1 0x0 DUP1 MLOAD PUSH1 0x20 PUSH2 0x5235 DUP4 CODECOPY DUP2 MLOAD SWAP2 MSTORE PUSH1 0x0 MSTORE PUSH1 0x4 PUSH1 0x20 MSTORE PUSH32 0xA792FA383E6BD9C6B4465BBFD8031F4B47377210FA121067C03906E9AFAC6246 DUP1 SLOAD PUSH2 0x2A6D SWAP1 PUSH2 0x4CD8 JUMP JUMPDEST SWAP1 SSTORE PUSH32 0x4A02EDD19F09212E54B2AC85D7D3A4A2E3FBF424E6710C3F817D9B4CECC9CDB3 PUSH1 0x20 PUSH1 0x40 MLOAD TIMESTAMP DUP2 MSTORE LOG2 STOP JUMPDEST CALLVALUE PUSH2 0x3A0 JUMPI PUSH1 0x80 CALLDATASIZE PUSH1 0x3 NOT ADD SLT PUSH2 0x3A0 JUMPI PUSH1 0x1 PUSH1 0x1 PUSH1 0x40 SHL SUB PUSH1 0x4 CALLDATALOAD DUP2 DUP2 GT PUSH2 0x3A0 JUMPI PUSH2 0x2ACC SWAP1 CALLDATASIZE SWAP1 PUSH1 0x4 ADD PUSH2 0x4053 JUMP JUMPDEST PUSH1 0x24 SWAP2 DUP3 CALLDATALOAD SWAP3 PUSH1 0x44 CALLDATALOAD SWAP2 DUP1 DUP4 GT PUSH2 0x3A0 JUMPI CALLDATASIZE PUSH1 0x23 DUP5 ADD SLT ISZERO PUSH2 0x3A0 JUMPI DUP3 PUSH1 0x4 ADD CALLDATALOAD SWAP5 PUSH2 0x2AF7 DUP7 PUSH2 0x4262 JUMP JUMPDEST SWAP4 PUSH2 0x2B05 PUSH1 0x40 MLOAD SWAP6 DUP7 PUSH2 0x4032 JUMP JUMPDEST DUP7 DUP6 MSTORE PUSH1 0x20 SWAP7 DUP5 DUP9 DUP8 ADD SWAP2 PUSH1 0x5 SHL DUP4 ADD ADD SWAP2 CALLDATASIZE DUP4 GT PUSH2 0x3A0 JUMPI DUP6 ADD SWAP1 JUMPDEST DUP3 DUP3 LT PUSH2 0x2E4E JUMPI POP POP POP PUSH1 0x64 CALLDATALOAD SWAP2 DUP3 GT PUSH2 0x3A0 JUMPI CALLDATASIZE PUSH1 0x23 DUP4 ADD SLT ISZERO PUSH2 0x3A0 JUMPI DUP2 PUSH1 0x4 ADD CALLDATALOAD PUSH2 0x2B4F DUP2 PUSH2 0x4262 JUMP JUMPDEST SWAP3 PUSH2 0x2B5D PUSH1 0x40 MLOAD SWAP5 DUP6 PUSH2 0x4032 JUMP JUMPDEST DUP2 DUP5 MSTORE DUP5 DUP9 DUP6 ADD SWAP3 PUSH1 0x5 SHL DUP3 ADD ADD SWAP2 CALLDATASIZE DUP4 GT PUSH2 0x3A0 JUMPI DUP6 DUP10 SWAP3 ADD SWAP1 JUMPDEST DUP4 DUP3 LT PUSH2 0x2E3F JUMPI POP POP POP POP PUSH1 0x0 DUP1 MLOAD PUSH1 0x20 PUSH2 0x5255 DUP4 CODECOPY DUP2 MLOAD SWAP2 MSTORE PUSH1 0x0 MSTORE PUSH1 0x0 DUP7 MSTORE PUSH1 0x40 PUSH1 0x0 KECCAK256 CALLER PUSH1 0x0 MSTORE DUP7 MSTORE PUSH1 0xFF SWAP4 DUP5 PUSH1 0x40 PUSH1 0x0 KECCAK256 SLOAD AND ISZERO PUSH2 0x2E28 JUMPI PUSH2 0x180 PUSH2 0x2BC1 DUP8 PUSH2 0x4DE6 JUMP JUMPDEST ADD MLOAD ISZERO PUSH2 0x2DEE JUMPI DUP1 MLOAD DUP4 MLOAD SUB PUSH2 0x2DB6 JUMPI DUP2 ISZERO PUSH2 0x2D7E JUMPI PUSH1 0x40 MLOAD DUP8 DUP2 DUP9 MLOAD PUSH2 0x2BEB DUP2 DUP4 DUP6 DUP14 ADD PUSH2 0x412E JUMP JUMPDEST DUP2 ADD PUSH1 0x8 DUP2 MSTORE SUB ADD SWAP1 KECCAK256 SWAP2 PUSH2 0x2C00 DUP8 DUP5 PUSH2 0x4B01 JUMP JUMPDEST PUSH1 0x1 DUP4 DUP2 ADD DUP1 SLOAD PUSH1 0x1 PUSH1 0x1 PUSH1 0xA0 SHL SUB NOT AND CALLER OR SWAP1 SSTORE PUSH1 0x4 DUP5 ADD DUP1 SLOAD TIMESTAMP PUSH1 0x2 DUP8 ADD SSTORE PUSH1 0xFF PUSH1 0xFF PUSH1 0xB8 SHL ADD NOT AND PUSH1 0x1 PUSH1 0x1 PUSH1 0xB8 SHL ADD OR SWAP1 SSTORE PUSH1 0x6 DUP5 ADD SWAP2 SWAP1 SWAP2 SSTORE SWAP5 DUP6 SWAP3 PUSH1 0x7 ADD SWAP1 PUSH1 0x0 DUP5 JUMPDEST PUSH2 0x2D11 JUMPI JUMPDEST POP POP POP POP POP POP PUSH1 0x9 SLOAD SWAP2 PUSH1 0x1 PUSH1 0x40 SHL DUP4 LT ISZERO PUSH2 0x2CFC JUMPI DUP3 ADD DUP1 PUSH1 0x9 SSTORE DUP3 LT ISZERO PUSH2 0x2CE8 JUMPI POP SWAP1 PUSH2 0x2CC5 DUP2 PUSH32 0x250D87DC011EDB5EBB474599D748FAA904E99846D065ED0E939F8E99C0DEB2F7 SWAP4 PUSH1 0x9 PUSH1 0x0 MSTORE PUSH32 0x6E1540171B6C0C960B71A7020D9F60077F6AF931A8BBF590DA0223DACF75C7AF ADD PUSH2 0x4B01 JUMP JUMPDEST PUSH2 0x2CDA PUSH1 0x40 MLOAD SWAP2 PUSH1 0x40 DUP4 MSTORE PUSH1 0x40 DUP4 ADD SWAP1 PUSH2 0x423D JUMP JUMPDEST SWAP3 TIMESTAMP SWAP1 DUP3 ADD MSTORE DUP1 CALLER SWAP4 SUB SWAP1 LOG2 STOP JUMPDEST PUSH4 0x4E487B71 PUSH1 0xE0 SHL PUSH1 0x0 SWAP1 DUP2 MSTORE PUSH1 0x32 PUSH1 0x4 MSTORE REVERT JUMPDEST POP PUSH4 0x4E487B71 PUSH1 0xE0 SHL PUSH1 0x0 SWAP1 DUP2 MSTORE PUSH1 0x41 PUSH1 0x4 MSTORE REVERT JUMPDEST DUP4 MLOAD DUP2 LT ISZERO PUSH2 0x2D79 JUMPI PUSH2 0x2D73 SWAP1 PUSH1 0x1 PUSH1 0x1 PUSH1 0xA0 SHL SUB DUP1 PUSH2 0x2D31 DUP4 DUP9 PUSH2 0x4D01 JUMP JUMPDEST MLOAD AND PUSH1 0x0 MSTORE PUSH1 0xA DUP13 MSTORE PUSH2 0x2D4A DUP5 PUSH1 0x40 PUSH1 0x0 KECCAK256 SLOAD AND PUSH2 0x5058 JUMP JUMPDEST PUSH2 0x2D54 DUP3 DUP10 PUSH2 0x4D01 JUMP JUMPDEST MLOAD SWAP1 PUSH2 0x2D60 DUP4 DUP9 PUSH2 0x4D01 JUMP JUMPDEST MLOAD AND PUSH1 0x0 MSTORE DUP5 DUP13 MSTORE PUSH1 0x40 PUSH1 0x0 KECCAK256 SSTORE PUSH2 0x4CD8 JUMP JUMPDEST DUP5 PUSH2 0x2C49 JUMP JUMPDEST PUSH2 0x2C4E JUMP JUMPDEST PUSH1 0x40 MLOAD PUSH3 0x461BCD PUSH1 0xE5 SHL DUP2 MSTORE PUSH1 0x4 DUP2 ADD DUP9 SWAP1 MSTORE PUSH1 0x11 DUP2 DUP7 ADD MSTORE PUSH17 0x496E76616C696420455448207072696365 PUSH1 0x78 SHL PUSH1 0x44 DUP3 ADD MSTORE PUSH1 0x64 SWAP1 REVERT JUMPDEST PUSH1 0x40 MLOAD PUSH3 0x461BCD PUSH1 0xE5 SHL DUP2 MSTORE PUSH1 0x4 DUP2 ADD DUP9 SWAP1 MSTORE PUSH1 0x11 DUP2 DUP7 ADD MSTORE PUSH17 0x4D69736D61746368656420617272617973 PUSH1 0x78 SHL PUSH1 0x44 DUP3 ADD MSTORE PUSH1 0x64 SWAP1 REVERT JUMPDEST PUSH1 0x40 MLOAD PUSH3 0x461BCD PUSH1 0xE5 SHL DUP2 MSTORE PUSH1 0x4 DUP2 ADD DUP9 SWAP1 MSTORE PUSH1 0x13 DUP2 DUP7 ADD MSTORE PUSH19 0x135A5B995C985B081B9BDD081C99599A5B9959 PUSH1 0x6A SHL PUSH1 0x44 DUP3 ADD MSTORE PUSH1 0x64 SWAP1 REVERT JUMPDEST PUSH1 0x40 MLOAD PUSH4 0x568555F PUSH1 0xE4 SHL DUP2 MSTORE CALLER PUSH1 0x4 DUP3 ADD MSTORE DUP5 SWAP1 REVERT JUMPDEST DUP2 CALLDATALOAD DUP2 MSTORE SWAP1 DUP3 ADD SWAP1 DUP3 ADD PUSH2 0x2B79 JUMP JUMPDEST DUP2 CALLDATALOAD PUSH1 0x1 PUSH1 0x1 PUSH1 0xA0 SHL SUB DUP2 AND DUP2 SUB PUSH2 0x3A0 JUMPI DUP2 MSTORE SWAP1 DUP9 ADD SWAP1 DUP9 ADD PUSH2 0x2B22 JUMP JUMPDEST CALLVALUE PUSH2 0x3A0 JUMPI PUSH1 0x20 CALLDATASIZE PUSH1 0x3 NOT ADD SLT PUSH2 0x3A0 JUMPI PUSH2 0x2E86 PUSH2 0x3F9E JUMP JUMPDEST CALLER PUSH1 0x0 SWAP1 DUP2 MSTORE PUSH32 0xAD3228B676F7D3CD4284A5443F17F1962B36E491B30A40B2405849E597BA5FB5 PUSH1 0x20 MSTORE PUSH1 0x40 SWAP1 KECCAK256 SLOAD PUSH1 0xFF AND ISZERO PUSH2 0x7E9 JUMPI PUSH1 0x1 PUSH1 0x1 PUSH1 0xA0 SHL SUB AND DUP1 ISZERO PUSH2 0x2EE7 JUMPI PUSH1 0x0 SWAP1 DUP2 MSTORE PUSH1 0xA PUSH1 0x20 MSTORE PUSH1 0x40 SWAP1 KECCAK256 DUP1 SLOAD PUSH1 0xFF NOT AND PUSH1 0x1 OR SWAP1 SSTORE STOP JUMPDEST PUSH1 0x40 MLOAD PUSH3 0x461BCD PUSH1 0xE5 SHL DUP2 MSTORE PUSH1 0x20 PUSH1 0x4 DUP3 ADD MSTORE PUSH1 0x15 PUSH1 0x24 DUP3 ADD MSTORE PUSH21 0x496E76616C696420746F6B656E2061646472657373 PUSH1 0x58 SHL PUSH1 0x44 DUP3 ADD MSTORE PUSH1 0x64 SWAP1 REVERT JUMPDEST CALLVALUE PUSH2 0x3A0 JUMPI PUSH1 0xC0 CALLDATASIZE PUSH1 0x3 NOT ADD SLT PUSH2 0x3A0 JUMPI PUSH1 0x1 PUSH1 0x1 PUSH1 0x40 SHL SUB PUSH1 0x4 CALLDATALOAD DUP2 DUP2 GT PUSH2 0x3A0 JUMPI PUSH2 0x2F55 SWAP1 CALLDATASIZE SWAP1 PUSH1 0x4 ADD PUSH2 0x4053 JUMP JUMPDEST PUSH1 0x24 CALLDATALOAD DUP3 DUP2 GT PUSH2 0x3A0 JUMPI PUSH2 0x2F6D SWAP1 CALLDATASIZE SWAP1 PUSH1 0x4 ADD PUSH2 0x4053 JUMP JUMPDEST SWAP1 PUSH1 0x64 CALLDATALOAD DUP4 DUP2 GT PUSH2 0x3A0 JUMPI PUSH2 0x2F86 SWAP1 CALLDATASIZE SWAP1 PUSH1 0x4 ADD PUSH2 0x4053 JUMP JUMPDEST SWAP3 PUSH1 0xA4 CALLDATALOAD SWAP1 DUP2 GT PUSH2 0x3A0 JUMPI PUSH2 0x2F9F SWAP1 CALLDATASIZE SWAP1 PUSH1 0x4 ADD PUSH2 0x4053 JUMP JUMPDEST CALLER PUSH1 0x0 SWAP1 DUP2 MSTORE PUSH1 0x0 DUP1 MLOAD PUSH1 0x20 PUSH2 0x5195 DUP4 CODECOPY DUP2 MLOAD SWAP2 MSTORE PUSH1 0x20 MSTORE PUSH1 0x40 SWAP1 KECCAK256 SLOAD SWAP1 SWAP3 SWAP1 PUSH1 0xFF AND ISZERO PUSH2 0x7E9 JUMPI DUP2 MLOAD ISZERO PUSH2 0x353D JUMPI DUP4 MLOAD ISZERO PUSH2 0x7C5 JUMPI DUP1 MLOAD ISZERO PUSH2 0x352B JUMPI PUSH1 0x44 CALLDATALOAD ISZERO PUSH2 0x3519 JUMPI PUSH1 0x84 CALLDATALOAD ISZERO DUP1 ISZERO PUSH2 0x350D JUMPI JUMPDEST PUSH2 0x34FB JUMPI PUSH1 0x50 PUSH1 0x84 CALLDATALOAD GT ISZERO PUSH2 0x34E1 JUMPI DUP3 MLOAD ISZERO PUSH2 0x34CF JUMPI PUSH1 0x1 SLOAD PUSH2 0x3011 DUP2 PUSH2 0x4CD8 JUMP JUMPDEST PUSH1 0x1 SSTORE PUSH1 0x40 MLOAD PUSH2 0x3057 PUSH1 0x74 DUP3 PUSH1 0x20 DUP2 ADD SWAP5 DUP7 MLOAD PUSH2 0x3032 DUP2 DUP9 PUSH1 0x20 DUP12 ADD PUSH2 0x412E JUMP JUMPDEST DUP3 ADD SWAP1 CALLER PUSH1 0x60 SHL PUSH1 0x20 DUP4 ADD MSTORE TIMESTAMP PUSH1 0x34 DUP4 ADD MSTORE PUSH1 0x54 DUP3 ADD MSTORE SUB PUSH1 0x54 DUP2 ADD DUP5 MSTORE ADD DUP3 PUSH2 0x4032 JUMP JUMPDEST MLOAD SWAP1 KECCAK256 SWAP3 PUSH1 0x40 MLOAD SWAP4 PUSH2 0x3068 DUP6 PUSH2 0x4017 JUMP JUMPDEST PUSH1 0xA DUP6 MSTORE PUSH1 0x20 CALLDATASIZE DUP2 DUP8 ADD CALLDATACOPY DUP5 MLOAD ISZERO PUSH2 0x34B9 JUMPI PUSH1 0x30 PUSH1 0x20 DUP7 ADD MSTORE8 DUP5 MLOAD PUSH1 0x1 LT ISZERO PUSH2 0x34B9 JUMPI PUSH1 0x78 PUSH1 0x21 DUP7 ADD MSTORE8 PUSH1 0x0 JUMPDEST PUSH1 0x4 DUP2 LT PUSH2 0x3426 JUMPI POP POP PUSH2 0x490 SWAP5 PUSH2 0x774 PUSH32 0x73C819068BA25B88A32CB91F9B552AB50D9CCCB7C4ABDEB2A04F44373B715393 SWAP4 PUSH2 0x33F5 SWAP4 PUSH2 0x3117 PUSH1 0x21 PUSH1 0x40 MLOAD DUP1 SWAP11 DUP6 MLOAD PUSH2 0x30E9 DUP2 PUSH1 0x20 DUP6 ADD PUSH1 0x20 DUP11 ADD PUSH2 0x412E JUMP JUMPDEST DUP3 ADD PUSH1 0x2D PUSH1 0xF8 SHL PUSH1 0x20 DUP3 ADD MSTORE PUSH2 0x3108 DUP3 MLOAD DUP1 SWAP4 PUSH1 0x20 DUP8 DUP6 ADD SWAP2 ADD PUSH2 0x412E JUMP JUMPDEST ADD SUB PUSH1 0x1 DUP2 ADD DUP12 MSTORE ADD DUP10 PUSH2 0x4032 JUMP JUMPDEST PUSH1 0x40 MLOAD SWAP1 PUSH2 0x3124 DUP3 PUSH2 0x3FCA JUMP JUMPDEST DUP9 DUP3 MSTORE DUP8 PUSH1 0x20 DUP4 ADD MSTORE DUP5 PUSH1 0x40 DUP4 ADD MSTORE DUP3 PUSH1 0x60 DUP4 ADD MSTORE PUSH1 0x44 CALLDATALOAD PUSH1 0x80 DUP4 ADD MSTORE PUSH1 0x84 CALLDATALOAD PUSH1 0xA0 DUP4 ADD MSTORE PUSH1 0xC0 DUP3 ADD MSTORE CALLER PUSH1 0xE0 DUP3 ADD MSTORE PUSH1 0x40 MLOAD PUSH2 0x3160 DUP2 PUSH2 0x4017 JUMP JUMPDEST PUSH1 0x3 DUP2 MSTORE PUSH3 0x526177 PUSH1 0xE8 SHL PUSH1 0x20 DUP3 ADD MSTORE PUSH2 0x100 DUP3 ADD MSTORE PUSH1 0x40 MLOAD PUSH2 0x3182 DUP2 PUSH2 0x4017 JUMP JUMPDEST PUSH1 0xD DUP2 MSTORE PUSH13 0x26B4B734B7339021B2B73A32B9 PUSH1 0x99 SHL PUSH1 0x20 DUP3 ADD MSTORE PUSH2 0x120 DUP3 ADD MSTORE CALLER PUSH2 0x140 DUP3 ADD MSTORE PUSH1 0x0 PUSH2 0x160 DUP3 ADD MSTORE PUSH1 0x0 PUSH2 0x180 DUP3 ADD MSTORE PUSH1 0x0 PUSH2 0x1A0 DUP3 ADD MSTORE PUSH1 0x0 PUSH2 0x1C0 DUP3 ADD MSTORE TIMESTAMP PUSH2 0x1E0 DUP3 ADD MSTORE PUSH1 0xB PUSH2 0x1E0 PUSH2 0x31EE PUSH1 0x20 DUP12 DUP2 PUSH1 0x40 MLOAD SWAP4 DUP3 DUP6 DUP1 SWAP5 MLOAD SWAP4 DUP5 SWAP3 ADD PUSH2 0x412E JUMP JUMPDEST DUP2 ADD PUSH1 0x2 DUP2 MSTORE SUB ADD SWAP1 KECCAK256 SWAP3 PUSH2 0x3204 DUP2 MLOAD DUP6 PUSH2 0x4B01 JUMP JUMPDEST PUSH2 0x3215 PUSH1 0x20 DUP3 ADD MLOAD PUSH1 0x1 DUP7 ADD PUSH2 0x4B01 JUMP JUMPDEST PUSH2 0x3226 PUSH1 0x40 DUP3 ADD MLOAD PUSH1 0x2 DUP7 ADD PUSH2 0x4B01 JUMP JUMPDEST PUSH2 0x3237 PUSH1 0x60 DUP3 ADD MLOAD PUSH1 0x3 DUP7 ADD PUSH2 0x4B01 JUMP JUMPDEST PUSH1 0x80 DUP2 ADD MLOAD PUSH1 0x4 DUP6 ADD SSTORE PUSH1 0xA0 DUP2 ADD MLOAD PUSH1 0x5 DUP6 ADD SSTORE PUSH2 0x325C PUSH1 0xC0 DUP3 ADD MLOAD PUSH1 0x6 DUP7 ADD PUSH2 0x4B01 JUMP JUMPDEST PUSH1 0xE0 DUP2 ADD MLOAD PUSH1 0x7 DUP6 ADD DUP1 SLOAD PUSH1 0x1 PUSH1 0x1 PUSH1 0xA0 SHL SUB NOT AND PUSH1 0x1 PUSH1 0x1 PUSH1 0xA0 SHL SUB SWAP3 DUP4 AND OR SWAP1 SSTORE PUSH2 0x100 DUP3 ADD MLOAD PUSH2 0x3292 SWAP1 PUSH1 0x8 DUP8 ADD PUSH2 0x4B01 JUMP JUMPDEST PUSH2 0x32A4 PUSH2 0x120 DUP4 ADD MLOAD PUSH1 0x9 DUP8 ADD PUSH2 0x4B01 JUMP JUMPDEST PUSH1 0xA DUP6 ADD SWAP1 PUSH2 0x140 DUP4 ADD MLOAD AND DUP2 SLOAD SWAP1 PUSH1 0xFF PUSH1 0xA0 SHL PUSH2 0x160 DUP6 ADD MLOAD ISZERO ISZERO PUSH1 0xA0 SHL AND PUSH1 0xFF PUSH1 0xA8 SHL PUSH2 0x180 DUP7 ADD MLOAD ISZERO ISZERO PUSH1 0xA8 SHL AND SWAP1 PUSH1 0xFF PUSH1 0xB0 SHL PUSH2 0x1A0 DUP8 ADD MLOAD ISZERO ISZERO PUSH1 0xB0 SHL AND SWAP3 PUSH1 0xFF PUSH1 0xB8 SHL PUSH2 0x1C0 DUP9 ADD MLOAD ISZERO ISZERO PUSH1 0xB8 SHL AND SWAP5 PUSH1 0x1 PUSH1 0x1 PUSH1 0x40 SHL SUB PUSH1 0xC0 SHL AND OR OR OR OR OR SWAP1 SSTORE ADD MLOAD SWAP2 ADD SSTORE PUSH2 0x33C1 PUSH1 0x40 MLOAD PUSH1 0x20 DUP2 DUP2 PUSH2 0x332C DUP13 DUP4 DUP2 MLOAD SWAP4 DUP5 SWAP3 ADD PUSH2 0x412E JUMP JUMPDEST DUP2 ADD PUSH1 0x3 DUP2 MSTORE SUB ADD SWAP1 KECCAK256 PUSH1 0x40 MLOAD SWAP1 PUSH8 0x27B934B3B4B71D1 PUSH1 0xC5 SHL PUSH1 0x20 DUP4 ADD MSTORE PUSH2 0x3373 PUSH1 0x28 DUP4 DUP9 MLOAD PUSH2 0x3363 DUP2 DUP5 DUP5 ADD PUSH1 0x20 DUP14 ADD PUSH2 0x412E JUMP JUMPDEST DUP2 ADD SUB PUSH1 0x8 DUP2 ADD DUP6 MSTORE ADD DUP4 PUSH2 0x4032 JUMP JUMPDEST PUSH1 0x40 MLOAD SWAP2 PUSH2 0x3380 DUP4 PUSH2 0x3FFC JUMP JUMPDEST DUP11 DUP4 MSTORE PUSH1 0x40 MLOAD PUSH2 0x338F DUP2 PUSH2 0x4017 JUMP JUMPDEST PUSH1 0xA DUP2 MSTORE PUSH10 0x149959DA5CDD195C9959 PUSH1 0xB2 SHL PUSH1 0x20 DUP3 ADD MSTORE PUSH1 0x20 DUP5 ADD MSTORE PUSH1 0x40 DUP4 ADD MSTORE CALLER PUSH1 0x60 DUP4 ADD MSTORE TIMESTAMP PUSH1 0x80 DUP4 ADD MSTORE PUSH2 0x4C10 JUMP JUMPDEST PUSH2 0x33E7 PUSH1 0x40 MLOAD SWAP7 PUSH1 0xE0 DUP9 MSTORE PUSH2 0x33D9 PUSH1 0xE0 DUP10 ADD DUP11 PUSH2 0x423D JUMP JUMPDEST SWAP1 DUP9 DUP3 SUB PUSH1 0x20 DUP11 ADD MSTORE PUSH2 0x423D JUMP JUMPDEST SWAP1 DUP7 DUP3 SUB PUSH1 0x40 DUP9 ADD MSTORE PUSH2 0x423D JUMP JUMPDEST SWAP2 PUSH1 0x44 CALLDATALOAD PUSH1 0x80 DUP3 ADD MSTORE PUSH1 0x84 CALLDATALOAD PUSH1 0xA0 DUP3 ADD MSTORE TIMESTAMP PUSH1 0xC0 DUP3 ADD MSTORE DUP1 CALLER SWAP4 SUB SWAP1 LOG2 PUSH1 0x40 MLOAD SWAP2 DUP3 SWAP2 PUSH1 0x20 DUP4 MSTORE PUSH1 0x20 DUP4 ADD SWAP1 PUSH2 0x423D JUMP JUMPDEST PUSH1 0x20 DUP2 LT ISZERO PUSH2 0x34B9 JUMPI DUP2 DUP2 BYTE SWAP1 PUSH1 0xF PUSH2 0x3443 DUP2 DUP5 PUSH1 0x4 SHR AND PUSH2 0x4D65 JUMP JUMPDEST SWAP1 DUP3 PUSH1 0x1 SHL SWAP4 PUSH1 0x2 DUP5 DUP7 DIV DUP2 EQ DUP6 ISZERO OR ISZERO PUSH2 0x34A3 JUMPI DUP6 DUP2 ADD DUP1 SWAP2 GT PUSH2 0x34A3 JUMPI PUSH2 0x3473 PUSH2 0x347A SWAP5 PUSH1 0x0 BYTE SWAP2 DUP13 PUSH2 0x4D54 JUMP JUMPDEST MSTORE8 AND PUSH2 0x4D65 JUMP JUMPDEST SWAP2 PUSH1 0x3 SWAP1 DUP2 ADD DUP1 SWAP2 GT PUSH2 0x34A3 JUMPI PUSH2 0x3498 PUSH2 0x349E SWAP4 PUSH1 0x0 BYTE SWAP2 DUP10 PUSH2 0x4D54 JUMP JUMPDEST MSTORE8 PUSH2 0x4CD8 JUMP JUMPDEST PUSH2 0x3095 JUMP JUMPDEST PUSH4 0x4E487B71 PUSH1 0xE0 SHL PUSH1 0x0 MSTORE PUSH1 0x11 PUSH1 0x4 MSTORE PUSH1 0x24 PUSH1 0x0 REVERT JUMPDEST PUSH4 0x4E487B71 PUSH1 0xE0 SHL PUSH1 0x0 MSTORE PUSH1 0x32 PUSH1 0x4 MSTORE PUSH1 0x24 PUSH1 0x0 REVERT JUMPDEST PUSH1 0x40 MLOAD PUSH4 0xBFCCC8E9 PUSH1 0xE0 SHL DUP2 MSTORE PUSH1 0x4 SWAP1 REVERT JUMPDEST PUSH1 0x40 MLOAD PUSH4 0xD05DB019 PUSH1 0xE0 SHL DUP2 MSTORE PUSH1 0x84 CALLDATALOAD PUSH1 0x4 DUP3 ADD MSTORE PUSH1 0x24 SWAP1 REVERT JUMPDEST PUSH1 0x40 MLOAD PUSH4 0x3ABE7DB7 PUSH1 0xE2 SHL DUP2 MSTORE PUSH1 0x4 SWAP1 REVERT JUMPDEST POP PUSH1 0x64 PUSH1 0x84 CALLDATALOAD GT PUSH2 0x2FEF JUMP JUMPDEST PUSH1 0x40 MLOAD PUSH4 0xFD83F8D9 PUSH1 0xE0 SHL DUP2 MSTORE PUSH1 0x4 SWAP1 REVERT JUMPDEST PUSH1 0x40 MLOAD PUSH4 0xA765E58F PUSH1 0xE0 SHL DUP2 MSTORE PUSH1 0x4 SWAP1 REVERT JUMPDEST PUSH1 0x40 MLOAD PUSH4 0xAC6E453 PUSH1 0xE3 SHL DUP2 MSTORE PUSH1 0x4 SWAP1 REVERT JUMPDEST CALLVALUE PUSH2 0x3A0 JUMPI PUSH1 0x40 CALLDATASIZE PUSH1 0x3 NOT ADD SLT PUSH2 0x3A0 JUMPI PUSH2 0x3568 PUSH2 0x3FB4 JUMP JUMPDEST CALLER PUSH1 0x1 PUSH1 0x1 PUSH1 0xA0 SHL SUB DUP3 AND SUB PUSH2 0x3584 JUMPI PUSH2 0x11D3 SWAP1 PUSH1 0x4 CALLDATALOAD PUSH2 0x4A9E JUMP JUMPDEST PUSH1 0x40 MLOAD PUSH4 0x334BD919 PUSH1 0xE1 SHL DUP2 MSTORE PUSH1 0x4 SWAP1 REVERT JUMPDEST CALLVALUE PUSH2 0x3A0 JUMPI PUSH1 0x40 CALLDATASIZE PUSH1 0x3 NOT ADD SLT PUSH2 0x3A0 JUMPI PUSH1 0x4 CALLDATALOAD PUSH1 0x1 PUSH1 0x1 PUSH1 0x40 SHL SUB DUP2 GT PUSH2 0x3A0 JUMPI PUSH2 0x35C6 SWAP1 CALLDATASIZE SWAP1 PUSH1 0x4 ADD PUSH2 0x4053 JUMP JUMPDEST PUSH2 0x35E2 PUSH1 0x20 PUSH1 0x24 CALLDATALOAD SWAP3 DUP2 PUSH1 0x40 MLOAD SWAP4 DUP3 DUP6 DUP1 SWAP5 MLOAD SWAP4 DUP5 SWAP3 ADD PUSH2 0x412E JUMP JUMPDEST DUP2 ADD PUSH1 0x3 DUP2 MSTORE SUB ADD SWAP1 KECCAK256 DUP1 SLOAD DUP3 LT ISZERO PUSH2 0x3A0 JUMPI PUSH2 0x3671 SWAP2 PUSH2 0x3602 SWAP2 PUSH2 0x4151 JUMP JUMPDEST POP PUSH1 0x40 MLOAD SWAP1 PUSH2 0x361C DUP3 PUSH2 0x3615 DUP2 DUP5 PUSH2 0x41A7 JUMP JUMPDEST SUB DUP4 PUSH2 0x4032 JUMP JUMPDEST PUSH1 0x40 MLOAD PUSH2 0x3630 DUP2 PUSH2 0x40E DUP2 PUSH1 0x1 DUP7 ADD PUSH2 0x41A7 JUMP JUMPDEST PUSH2 0x368D PUSH1 0x40 MLOAD PUSH2 0x3647 DUP2 PUSH2 0x40E DUP2 PUSH1 0x2 DUP9 ADD PUSH2 0x41A7 JUMP JUMPDEST PUSH2 0x367F PUSH1 0x4 PUSH1 0x1 DUP1 PUSH1 0xA0 SHL SUB PUSH1 0x3 DUP8 ADD SLOAD AND SWAP6 ADD SLOAD SWAP4 PUSH1 0x40 MLOAD SWAP8 DUP9 SWAP8 PUSH1 0xA0 DUP10 MSTORE PUSH1 0xA0 DUP10 ADD SWAP1 PUSH2 0x423D JUMP JUMPDEST SWAP1 DUP8 DUP3 SUB PUSH1 0x20 DUP10 ADD MSTORE PUSH2 0x423D JUMP JUMPDEST SWAP1 DUP6 DUP3 SUB PUSH1 0x40 DUP8 ADD MSTORE PUSH2 0x423D JUMP JUMPDEST SWAP2 PUSH1 0x60 DUP5 ADD MSTORE PUSH1 0x80 DUP4 ADD MSTORE SUB SWAP1 RETURN JUMPDEST CALLVALUE PUSH2 0x3A0 JUMPI PUSH1 0x20 CALLDATASIZE PUSH1 0x3 NOT ADD SLT PUSH2 0x3A0 JUMPI PUSH2 0x36B5 PUSH2 0x3F9E JUMP JUMPDEST PUSH1 0x1 PUSH1 0x1 PUSH1 0xA0 SHL SUB AND PUSH1 0x0 SWAP1 DUP2 MSTORE PUSH1 0x0 DUP1 MLOAD PUSH1 0x20 PUSH2 0x5195 DUP4 CODECOPY DUP2 MLOAD SWAP2 MSTORE PUSH1 0x20 SWAP1 DUP2 MSTORE PUSH1 0x40 SWAP2 DUP3 SWAP1 KECCAK256 SLOAD SWAP2 MLOAD PUSH1 0xFF SWAP1 SWAP3 AND ISZERO ISZERO DUP3 MSTORE SWAP1 RETURN JUMPDEST CALLVALUE PUSH2 0x3A0 JUMPI PUSH2 0x36FA CALLDATASIZE PUSH2 0x40EF JUMP JUMPDEST PUSH2 0x3702 PUSH2 0x442C JUMP JUMPDEST PUSH2 0x370B DUP3 PUSH2 0x432A JUMP JUMPDEST ISZERO PUSH2 0x38E JUMPI PUSH2 0x365 PUSH32 0x125F88DB22967983B401F70F6804D47F43CB545FCB725D0B335FE7D43D9B4A4A SWAP2 PUSH1 0x0 DUP1 MLOAD PUSH1 0x20 PUSH2 0x5215 DUP4 CODECOPY DUP2 MLOAD SWAP2 MSTORE DUP1 PUSH1 0x0 MSTORE PUSH1 0x0 PUSH1 0x20 MSTORE PUSH2 0x375E PUSH1 0x1 PUSH1 0x40 PUSH1 0x0 KECCAK256 ADD SLOAD PUSH2 0x4484 JUMP JUMPDEST PUSH2 0x5BB DUP6 PUSH2 0x47E0 JUMP JUMPDEST CALLVALUE PUSH2 0x3A0 JUMPI PUSH1 0x40 CALLDATASIZE PUSH1 0x3 NOT ADD SLT PUSH2 0x3A0 JUMPI PUSH2 0x11D3 PUSH1 0x4 CALLDATALOAD PUSH2 0x3786 PUSH2 0x3FB4 JUMP JUMPDEST SWAP1 DUP1 PUSH1 0x0 MSTORE PUSH1 0x0 PUSH1 0x20 MSTORE PUSH2 0x37A1 PUSH1 0x1 PUSH1 0x40 PUSH1 0x0 KECCAK256 ADD SLOAD PUSH2 0x4484 JUMP JUMPDEST PUSH2 0x4779 JUMP JUMPDEST CALLVALUE PUSH2 0x3A0 JUMPI PUSH1 0x20 CALLDATASIZE PUSH1 0x3 NOT ADD SLT PUSH2 0x3A0 JUMPI PUSH1 0x4 CALLDATALOAD PUSH1 0x1 PUSH1 0x1 PUSH1 0x40 SHL SUB DUP2 GT PUSH2 0x3A0 JUMPI PUSH1 0xFF PUSH1 0x4 PUSH2 0x37DF PUSH1 0x20 PUSH2 0x13ED DUP2 SWAP6 CALLDATASIZE SWAP1 DUP6 ADD PUSH2 0x4053 JUMP JUMPDEST DUP2 ADD PUSH1 0x8 DUP2 MSTORE SUB ADD SWAP1 KECCAK256 ADD SLOAD PUSH1 0xB8 SHR AND PUSH1 0x40 MLOAD SWAP1 ISZERO ISZERO DUP2 MSTORE RETURN JUMPDEST CALLVALUE PUSH2 0x3A0 JUMPI PUSH1 0x20 CALLDATASIZE PUSH1 0x3 NOT ADD SLT PUSH2 0x3A0 JUMPI PUSH1 0x4 CALLDATALOAD PUSH1 0x0 MSTORE PUSH1 0x0 PUSH1 0x20 MSTORE PUSH1 0x20 PUSH1 0x1 PUSH1 0x40 PUSH1 0x0 KECCAK256 ADD SLOAD PUSH1 0x40 MLOAD SWAP1 DUP2 MSTORE RETURN JUMPDEST CALLVALUE PUSH2 0x3A0 JUMPI PUSH1 0x20 DUP1 PUSH1 0x3 NOT CALLDATASIZE ADD SLT PUSH2 0x3A0 JUMPI PUSH1 0x4 CALLDATALOAD PUSH1 0x1 PUSH1 0x1 PUSH1 0x40 SHL SUB DUP2 GT PUSH2 0x3A0 JUMPI PUSH2 0x3859 SWAP1 CALLDATASIZE SWAP1 PUSH1 0x4 ADD PUSH2 0x4053 JUMP JUMPDEST SWAP1 PUSH1 0x0 DUP1 MSTORE PUSH1 0x0 DUP2 MSTORE PUSH1 0x40 PUSH1 0x0 KECCAK256 CALLER PUSH1 0x0 MSTORE DUP2 MSTORE PUSH1 0xFF PUSH1 0x40 PUSH1 0x0 KECCAK256 SLOAD AND ISZERO PUSH2 0x7E9 JUMPI PUSH1 0x40 MLOAD PUSH2 0x40E PUSH2 0x3898 DUP5 MLOAD SWAP3 DUP5 DUP2 DUP2 DUP9 ADD SWAP6 PUSH2 0xB8B DUP2 DUP4 DUP10 PUSH2 0x412E JUMP JUMPDEST DUP3 DUP2 MLOAD SWAP2 ADD KECCAK256 DUP4 MLOAD SWAP1 DUP2 DUP4 KECCAK256 EQ SWAP1 DUP2 ISZERO SWAP2 PUSH2 0x396E JUMPI JUMPDEST POP PUSH2 0xBF1 JUMPI PUSH1 0xFF PUSH1 0xA PUSH1 0x40 MLOAD DUP5 DUP2 DUP8 MLOAD PUSH2 0x38C9 DUP2 DUP4 DUP10 PUSH2 0x412E JUMP JUMPDEST DUP2 ADD PUSH1 0x2 DUP2 MSTORE SUB ADD SWAP1 KECCAK256 ADD SLOAD PUSH1 0xB0 SHR AND DUP1 PUSH2 0x3942 JUMPI JUMPDEST ISZERO PUSH2 0x391F JUMPI PUSH2 0x24B7 PUSH1 0xFF SWAP3 PUSH1 0xA SWAP3 PUSH1 0x40 MLOAD PUSH32 0x10F4BA4C7BB6F0C442F54585004A6E24440BEA5C2D2E6F36B688E3E624762E22 CALLER SWAP2 DUP1 PUSH2 0x247E TIMESTAMP DUP12 DUP4 PUSH2 0x4D15 JUMP JUMPDEST POP PUSH2 0x533 PUSH1 0x40 MLOAD SWAP3 DUP4 SWAP3 PUSH4 0x642B2F5B PUSH1 0xE1 SHL DUP5 MSTORE PUSH1 0x4 DUP5 ADD MSTORE PUSH1 0x24 DUP4 ADD SWAP1 PUSH2 0x423D JUMP JUMPDEST POP PUSH1 0xFF PUSH1 0xA PUSH1 0x40 MLOAD DUP5 DUP2 DUP8 MLOAD PUSH2 0x3959 DUP2 DUP4 DUP10 PUSH2 0x412E JUMP JUMPDEST DUP2 ADD PUSH1 0x2 DUP2 MSTORE SUB ADD SWAP1 KECCAK256 ADD SLOAD PUSH1 0xB8 SHR AND PUSH2 0x38DF JUMP JUMPDEST SWAP1 POP ISZERO DUP5 PUSH2 0x38AE JUMP JUMPDEST CALLVALUE PUSH2 0x3A0 JUMPI PUSH2 0x3985 CALLDATASIZE PUSH2 0x40A9 JUMP JUMPDEST CALLER PUSH1 0x0 SWAP1 DUP2 MSTORE PUSH1 0x0 DUP1 MLOAD PUSH1 0x20 PUSH2 0x51B5 DUP4 CODECOPY DUP2 MLOAD SWAP2 MSTORE PUSH1 0x20 SWAP1 DUP2 MSTORE PUSH1 0x40 SWAP1 SWAP2 KECCAK256 SLOAD SWAP2 SWAP3 SWAP1 SWAP2 PUSH1 0xFF AND ISZERO PUSH2 0x7E9 JUMPI PUSH1 0x40 MLOAD SWAP1 PUSH2 0x40E PUSH2 0x39CF DUP3 MLOAD SWAP4 DUP6 DUP2 DUP2 DUP7 ADD SWAP7 PUSH2 0xB8B DUP2 DUP4 DUP11 PUSH2 0x412E JUMP JUMPDEST DUP4 DUP2 MLOAD SWAP2 ADD KECCAK256 DUP2 MLOAD SWAP1 DUP2 DUP5 KECCAK256 EQ SWAP1 DUP2 ISZERO SWAP2 PUSH2 0x3AD5 JUMPI JUMPDEST POP PUSH2 0x3AB2 JUMPI DUP4 MLOAD ISZERO PUSH2 0x3AA0 JUMPI PUSH2 0x1D14 PUSH2 0x3A91 DUP5 PUSH2 0x3A58 PUSH2 0x3A70 DUP9 PUSH1 0x9 PUSH2 0x19FF DUP6 PUSH2 0x3A84 SWAP11 PUSH2 0x3A5F DUP5 DUP13 PUSH32 0x81DBBD3BA646453A262E90D0495AADC4D783BAB49B0A8BE2CD84F220CAE608BB SWAP16 PUSH1 0x40 MLOAD DUP1 SWAP3 MLOAD PUSH2 0x3A41 DUP2 DUP4 DUP10 PUSH2 0x412E JUMP JUMPDEST DUP2 ADD PUSH1 0x2 DUP2 MSTORE SUB ADD SWAP1 KECCAK256 ADD PUSH1 0x40 MLOAD SWAP9 DUP10 DUP1 SWAP3 PUSH2 0x41A7 JUMP JUMPDEST SUB DUP9 PUSH2 0x4032 JUMP JUMPDEST PUSH1 0x40 MLOAD DUP1 SWAP4 DUP2 SWAP3 DUP14 MLOAD SWAP3 DUP4 SWAP2 PUSH2 0x412E JUMP JUMPDEST PUSH1 0x40 MLOAD SWAP6 DUP7 SWAP6 PUSH1 0x60 DUP8 MSTORE PUSH1 0x60 DUP8 ADD SWAP1 PUSH2 0x423D JUMP JUMPDEST SWAP2 DUP6 DUP4 SUB SWAP1 DUP7 ADD MSTORE PUSH2 0x423D JUMP JUMPDEST DUP3 DUP2 SUB PUSH1 0x40 DUP5 ADD MSTORE CALLER SWAP6 PUSH2 0x423D JUMP JUMPDEST PUSH1 0x40 MLOAD PUSH4 0x5B6571A5 PUSH1 0xE0 SHL DUP2 MSTORE PUSH1 0x4 SWAP1 REVERT JUMPDEST DUP3 PUSH2 0x533 PUSH1 0x40 MLOAD SWAP3 DUP4 SWAP3 PUSH4 0xF855236D PUSH1 0xE0 SHL DUP5 MSTORE PUSH1 0x4 DUP5 ADD MSTORE PUSH1 0x24 DUP4 ADD SWAP1 PUSH2 0x423D JUMP JUMPDEST SWAP1 POP ISZERO DUP6 PUSH2 0x39E5 JUMP JUMPDEST CALLVALUE PUSH2 0x3A0 JUMPI PUSH1 0x20 DUP1 PUSH1 0x3 NOT CALLDATASIZE ADD SLT PUSH2 0x3A0 JUMPI PUSH1 0x4 CALLDATALOAD PUSH1 0x1 PUSH1 0x1 PUSH1 0x40 SHL SUB DUP2 GT PUSH2 0x3A0 JUMPI PUSH2 0x3B0F SWAP1 CALLDATASIZE SWAP1 PUSH1 0x4 ADD PUSH2 0x4053 JUMP JUMPDEST SWAP1 PUSH1 0x0 DUP1 MLOAD PUSH1 0x20 PUSH2 0x51F5 DUP4 CODECOPY DUP2 MLOAD SWAP2 MSTORE PUSH1 0x0 MSTORE PUSH1 0x0 DUP2 MSTORE PUSH1 0x40 PUSH1 0x0 KECCAK256 CALLER PUSH1 0x0 MSTORE DUP2 MSTORE PUSH1 0xFF SWAP2 DUP3 PUSH1 0x40 PUSH1 0x0 KECCAK256 SLOAD AND ISZERO PUSH2 0x7E9 JUMPI PUSH1 0x40 MLOAD DUP2 MLOAD SWAP4 DUP4 DUP4 ADD SWAP5 PUSH2 0x3B56 DUP2 DUP5 DUP9 PUSH2 0x412E JUMP JUMPDEST DUP3 ADD SWAP1 PUSH1 0x1 DUP2 PUSH1 0x2 SWAP4 DUP5 DUP2 MSTORE DUP6 DUP9 PUSH1 0xA SWAP8 DUP9 SWAP4 SUB ADD SWAP1 KECCAK256 ADD SLOAD PUSH1 0xA0 SHR AND ISZERO ISZERO EQ PUSH2 0x3DB5 JUMPI PUSH1 0x0 DUP1 MSTORE PUSH1 0x0 DUP6 MSTORE PUSH1 0x40 PUSH1 0x0 KECCAK256 CALLER PUSH1 0x0 MSTORE DUP6 MSTORE DUP1 PUSH1 0x40 PUSH1 0x0 KECCAK256 SLOAD AND ISZERO PUSH2 0x7E9 JUMPI PUSH2 0x40E PUSH2 0x3BC9 PUSH1 0x40 MLOAD DUP8 DUP2 DUP1 PUSH2 0x3BB4 DUP13 DUP12 MLOAD SWAP3 DUP4 SWAP2 PUSH2 0x412E JUMP JUMPDEST DUP2 ADD DUP8 DUP2 MSTORE SUB ADD SWAP1 KECCAK256 PUSH1 0x40 MLOAD SWAP3 DUP4 DUP1 SWAP3 PUSH2 0x41A7 JUMP JUMPDEST DUP6 DUP2 MLOAD SWAP2 ADD KECCAK256 DUP5 MLOAD SWAP1 DUP2 DUP9 KECCAK256 EQ SWAP1 DUP2 ISZERO SWAP2 PUSH2 0x3DAC JUMPI JUMPDEST POP PUSH2 0x21A6 JUMPI DUP1 DUP4 PUSH1 0x40 MLOAD DUP8 DUP2 DUP1 PUSH2 0x3BFA DUP13 DUP12 MLOAD SWAP3 DUP4 SWAP2 PUSH2 0x412E JUMP JUMPDEST DUP2 ADD DUP8 DUP2 MSTORE SUB ADD SWAP1 KECCAK256 ADD SLOAD PUSH1 0xB0 SHR AND DUP1 PUSH2 0x3D81 JUMPI JUMPDEST ISZERO PUSH2 0x3D5F JUMPI PUSH1 0x40 MLOAD PUSH32 0x10F4BA4C7BB6F0C442F54585004A6E24440BEA5C2D2E6F36B688E3E624762E22 CALLER SWAP2 DUP1 PUSH2 0x3C46 TIMESTAMP DUP10 DUP4 PUSH2 0x4D15 JUMP JUMPDEST SUB SWAP1 LOG2 DUP1 DUP4 PUSH1 0x40 MLOAD DUP8 DUP2 DUP1 PUSH2 0x3C5F DUP13 DUP12 MLOAD SWAP3 DUP4 SWAP2 PUSH2 0x412E JUMP JUMPDEST DUP2 ADD DUP8 DUP2 MSTORE SUB ADD SWAP1 KECCAK256 ADD SLOAD PUSH1 0xB0 SHR AND SWAP1 DUP4 PUSH1 0x40 MLOAD DUP8 DUP2 DUP1 PUSH2 0x3C84 DUP13 DUP12 MLOAD SWAP3 DUP4 SWAP2 PUSH2 0x412E JUMP JUMPDEST DUP2 ADD DUP8 DUP2 MSTORE SUB ADD SWAP1 KECCAK256 ADD SLOAD PUSH1 0xB8 SHR AND DUP2 PUSH2 0x3D57 JUMPI JUMPDEST POP ISZERO PUSH2 0x3D35 JUMPI DUP4 PUSH32 0xFED1001C142A7AB386454A2F7D78B013BA7FF40595D10C128F2FB6463CCD7B7A SWAP5 SWAP6 PUSH2 0x3D07 SWAP3 DUP5 PUSH1 0x40 MLOAD DUP5 DUP2 DUP10 MLOAD PUSH2 0x3CDA DUP2 DUP4 DUP10 PUSH2 0x412E JUMP JUMPDEST DUP2 ADD DUP6 DUP2 MSTORE SUB ADD SWAP1 KECCAK256 ADD DUP1 SLOAD PUSH1 0xFF PUSH1 0xA0 SHL NOT AND PUSH1 0x1 PUSH1 0xA0 SHL OR SWAP1 SSTORE PUSH1 0x40 MLOAD DUP7 MLOAD SWAP1 SWAP5 DUP6 SWAP4 DUP3 SWAP1 DUP6 SWAP1 PUSH2 0x412E JUMP JUMPDEST DUP3 ADD SWAP1 DUP2 MSTORE SUB ADD SWAP1 KECCAK256 ADD DUP1 SLOAD PUSH1 0x1 PUSH1 0x1 PUSH1 0xA0 SHL SUB NOT AND CALLER OR SWAP1 SSTORE PUSH1 0x40 DUP1 MLOAD DUP2 DUP2 MSTORE SWAP2 PUSH2 0x2CDA SWAP2 DUP4 ADD SWAP1 PUSH2 0x423D JUMP JUMPDEST PUSH1 0x40 MLOAD PUSH4 0x48CDDBDB PUSH1 0xE1 SHL DUP2 MSTORE PUSH1 0x4 DUP2 ADD DUP6 SWAP1 MSTORE DUP1 PUSH2 0x533 PUSH1 0x24 DUP3 ADD DUP7 PUSH2 0x423D JUMP JUMPDEST SWAP1 POP DUP7 PUSH2 0x3C99 JUMP JUMPDEST PUSH1 0x40 MLOAD PUSH4 0x48CDDBDB PUSH1 0xE1 SHL DUP2 MSTORE PUSH1 0x4 DUP2 ADD DUP7 SWAP1 MSTORE DUP1 PUSH2 0x533 PUSH1 0x24 DUP3 ADD DUP8 PUSH2 0x423D JUMP JUMPDEST POP DUP1 DUP4 PUSH1 0x40 MLOAD DUP8 DUP2 DUP1 PUSH2 0x3D98 DUP13 DUP12 MLOAD SWAP3 DUP4 SWAP2 PUSH2 0x412E JUMP JUMPDEST DUP2 ADD DUP8 DUP2 MSTORE SUB ADD SWAP1 KECCAK256 ADD SLOAD PUSH1 0xB8 SHR AND PUSH2 0x3C0F JUMP JUMPDEST SWAP1 POP ISZERO DUP8 PUSH2 0x3BDF JUMP JUMPDEST PUSH1 0x40 MLOAD PUSH4 0x2072BB01 PUSH1 0xE1 SHL DUP2 MSTORE PUSH1 0x4 DUP2 ADD DUP7 SWAP1 MSTORE DUP1 PUSH2 0x533 PUSH1 0x24 DUP3 ADD DUP8 PUSH2 0x423D JUMP JUMPDEST CALLVALUE PUSH2 0x3A0 JUMPI PUSH1 0x20 CALLDATASIZE PUSH1 0x3 NOT ADD SLT PUSH2 0x3A0 JUMPI PUSH2 0x3DF0 PUSH2 0x3F9E JUMP JUMPDEST PUSH1 0x1 PUSH1 0x1 PUSH1 0xA0 SHL SUB DUP2 AND SWAP1 DUP2 ISZERO PUSH2 0x1132 JUMPI PUSH2 0x3E09 PUSH2 0x442C JUMP JUMPDEST PUSH2 0x3E12 DUP2 PUSH2 0x4355 JUMP JUMPDEST PUSH2 0x128F JUMPI PUSH2 0x3E1F SWAP1 PUSH2 0x4526 JUMP JUMPDEST POP PUSH1 0x0 DUP1 MLOAD PUSH1 0x20 PUSH2 0x51F5 DUP4 CODECOPY DUP2 MLOAD SWAP2 MSTORE PUSH1 0x0 MSTORE PUSH1 0x4 PUSH1 0x20 MSTORE PUSH32 0x5455BA4B8A75B33FA0F1F7AFFD9817680912F06B7B194BCF9AC01183C4930020 DUP1 SLOAD PUSH2 0x3E63 SWAP1 PUSH2 0x4CD8 JUMP JUMPDEST SWAP1 SSTORE PUSH32 0xF8ED9AC482B0F7C12999B3F157F758F84E39CD339FA301EA203823AC29E97505 PUSH1 0x20 PUSH1 0x40 MLOAD TIMESTAMP DUP2 MSTORE LOG2 STOP JUMPDEST CALLVALUE PUSH2 0x3A0 JUMPI PUSH1 0x20 CALLDATASIZE PUSH1 0x3 NOT ADD SLT PUSH2 0x3A0 JUMPI PUSH2 0x3EAA PUSH2 0x3F9E JUMP JUMPDEST PUSH1 0x1 PUSH1 0x1 PUSH1 0xA0 SHL SUB DUP2 AND SWAP1 DUP2 ISZERO PUSH2 0x1132 JUMPI PUSH2 0x3EC3 PUSH2 0x442C JUMP JUMPDEST PUSH2 0x3ECC DUP2 PUSH2 0x432A JUMP JUMPDEST PUSH2 0x128F JUMPI PUSH2 0x3ED9 SWAP1 PUSH2 0x44AA JUMP JUMPDEST POP PUSH1 0x0 DUP1 MLOAD PUSH1 0x20 PUSH2 0x5215 DUP4 CODECOPY DUP2 MLOAD SWAP2 MSTORE PUSH1 0x0 MSTORE PUSH1 0x4 PUSH1 0x20 MSTORE PUSH32 0x973CCC145476EF147B966A44694F8B2D26BAC5A3D44A844FEC6BE696FE5FEA70 DUP1 SLOAD PUSH2 0x3F1D SWAP1 PUSH2 0x4CD8 JUMP JUMPDEST SWAP1 SSTORE PUSH32 0x593F046317558C2857B92915C62C99F2D2108F7BC6F1E1B3C5376CD559ABF559 PUSH1 0x20 PUSH1 0x40 MLOAD TIMESTAMP DUP2 MSTORE LOG2 STOP JUMPDEST CALLVALUE PUSH2 0x3A0 JUMPI PUSH1 0x20 CALLDATASIZE PUSH1 0x3 NOT ADD SLT PUSH2 0x3A0 JUMPI PUSH1 0x4 CALLDATALOAD SWAP1 PUSH4 0xFFFFFFFF PUSH1 0xE0 SHL DUP3 AND DUP1 SWAP3 SUB PUSH2 0x3A0 JUMPI PUSH1 0x20 SWAP2 PUSH4 0x7965DB0B PUSH1 0xE0 SHL DUP2 EQ SWAP1 DUP2 ISZERO PUSH2 0x3F8D JUMPI JUMPDEST POP ISZERO ISZERO DUP2 MSTORE RETURN JUMPDEST PUSH4 0x1FFC9A7 PUSH1 0xE0 SHL EQ SWAP1 POP DUP4 PUSH2 0x3F86 JUMP JUMPDEST PUSH1 0x4 CALLDATALOAD SWAP1 PUSH1 0x1 PUSH1 0x1 PUSH1 0xA0 SHL SUB DUP3 AND DUP3 SUB PUSH2 0x3A0 JUMPI JUMP JUMPDEST PUSH1 0x24 CALLDATALOAD SWAP1 PUSH1 0x1 PUSH1 0x1 PUSH1 0xA0 SHL SUB DUP3 AND DUP3 SUB PUSH2 0x3A0 JUMPI JUMP JUMPDEST PUSH2 0x200 DUP2 ADD SWAP1 DUP2 LT PUSH1 0x1 PUSH1 0x1 PUSH1 0x40 SHL SUB DUP3 GT OR PUSH2 0x3FE6 JUMPI PUSH1 0x40 MSTORE JUMP JUMPDEST PUSH4 0x4E487B71 PUSH1 0xE0 SHL PUSH1 0x0 MSTORE PUSH1 0x41 PUSH1 0x4 MSTORE PUSH1 0x24 PUSH1 0x0 REVERT JUMPDEST PUSH1 0xA0 DUP2 ADD SWAP1 DUP2 LT PUSH1 0x1 PUSH1 0x1 PUSH1 0x40 SHL SUB DUP3 GT OR PUSH2 0x3FE6 JUMPI PUSH1 0x40 MSTORE JUMP JUMPDEST PUSH1 0x40 DUP2 ADD SWAP1 DUP2 LT PUSH1 0x1 PUSH1 0x1 PUSH1 0x40 SHL SUB DUP3 GT OR PUSH2 0x3FE6 JUMPI PUSH1 0x40 MSTORE JUMP JUMPDEST SWAP1 PUSH1 0x1F DUP1 NOT SWAP2 ADD AND DUP2 ADD SWAP1 DUP2 LT PUSH1 0x1 PUSH1 0x1 PUSH1 0x40 SHL SUB DUP3 GT OR PUSH2 0x3FE6 JUMPI PUSH1 0x40 MSTORE JUMP JUMPDEST DUP2 PUSH1 0x1F DUP3 ADD SLT ISZERO PUSH2 0x3A0 JUMPI DUP1 CALLDATALOAD SWAP1 PUSH1 0x1 PUSH1 0x1 PUSH1 0x40 SHL SUB DUP3 GT PUSH2 0x3FE6 JUMPI PUSH1 0x40 MLOAD SWAP3 PUSH2 0x4087 PUSH1 0x1F DUP5 ADD PUSH1 0x1F NOT AND PUSH1 0x20 ADD DUP6 PUSH2 0x4032 JUMP JUMPDEST DUP3 DUP5 MSTORE PUSH1 0x20 DUP4 DUP4 ADD ADD GT PUSH2 0x3A0 JUMPI DUP2 PUSH1 0x0 SWAP3 PUSH1 0x20 DUP1 SWAP4 ADD DUP4 DUP7 ADD CALLDATACOPY DUP4 ADD ADD MSTORE SWAP1 JUMP JUMPDEST SWAP1 PUSH1 0x40 PUSH1 0x3 NOT DUP4 ADD SLT PUSH2 0x3A0 JUMPI PUSH1 0x1 PUSH1 0x1 PUSH1 0x40 SHL SUB PUSH1 0x4 CALLDATALOAD DUP2 DUP2 GT PUSH2 0x3A0 JUMPI DUP4 PUSH2 0x40D5 SWAP2 PUSH1 0x4 ADD PUSH2 0x4053 JUMP JUMPDEST SWAP3 PUSH1 0x24 CALLDATALOAD SWAP2 DUP3 GT PUSH2 0x3A0 JUMPI PUSH2 0x40EC SWAP2 PUSH1 0x4 ADD PUSH2 0x4053 JUMP JUMPDEST SWAP1 JUMP JUMPDEST SWAP1 PUSH1 0x40 PUSH1 0x3 NOT DUP4 ADD SLT PUSH2 0x3A0 JUMPI PUSH1 0x4 CALLDATALOAD PUSH1 0x1 PUSH1 0x1 PUSH1 0xA0 SHL SUB DUP2 AND DUP2 SUB PUSH2 0x3A0 JUMPI SWAP2 PUSH1 0x24 CALLDATALOAD SWAP1 PUSH1 0x1 PUSH1 0x1 PUSH1 0x40 SHL SUB DUP3 GT PUSH2 0x3A0 JUMPI PUSH2 0x40EC SWAP2 PUSH1 0x4 ADD PUSH2 0x4053 JUMP JUMPDEST PUSH1 0x0 JUMPDEST DUP4 DUP2 LT PUSH2 0x4141 JUMPI POP POP PUSH1 0x0 SWAP2 ADD MSTORE JUMP JUMPDEST DUP2 DUP2 ADD MLOAD DUP4 DUP3 ADD MSTORE PUSH1 0x20 ADD PUSH2 0x4131 JUMP JUMPDEST DUP1 SLOAD DUP3 LT ISZERO PUSH2 0x34B9 JUMPI PUSH1 0x0 MSTORE PUSH1 0x5 PUSH1 0x20 PUSH1 0x0 KECCAK256 SWAP2 MUL ADD SWAP1 PUSH1 0x0 SWAP1 JUMP JUMPDEST SWAP1 PUSH1 0x1 DUP3 DUP2 SHR SWAP3 AND DUP1 ISZERO PUSH2 0x419D JUMPI JUMPDEST PUSH1 0x20 DUP4 LT EQ PUSH2 0x4187 JUMPI JUMP JUMPDEST PUSH4 0x4E487B71 PUSH1 0xE0 SHL PUSH1 0x0 MSTORE PUSH1 0x22 PUSH1 0x4 MSTORE PUSH1 0x24 PUSH1 0x0 REVERT JUMPDEST SWAP2 PUSH1 0x7F AND SWAP2 PUSH2 0x417C JUMP JUMPDEST SWAP1 PUSH1 0x0 SWAP3 SWAP2 DUP1 SLOAD SWAP2 PUSH2 0x41B8 DUP4 PUSH2 0x416D JUMP JUMPDEST SWAP2 DUP3 DUP3 MSTORE PUSH1 0x1 SWAP4 DUP5 DUP2 AND SWAP1 DUP2 PUSH1 0x0 EQ PUSH2 0x421A JUMPI POP PUSH1 0x1 EQ PUSH2 0x41DA JUMPI JUMPDEST POP POP POP POP JUMP JUMPDEST SWAP1 SWAP2 SWAP4 SWAP5 POP PUSH1 0x0 MSTORE PUSH1 0x20 SWAP3 DUP4 PUSH1 0x0 KECCAK256 SWAP3 DUP5 PUSH1 0x0 SWAP5 JUMPDEST DUP4 DUP7 LT PUSH2 0x4206 JUMPI POP POP POP POP ADD ADD SWAP1 CODESIZE DUP1 DUP1 DUP1 PUSH2 0x41D4 JUMP JUMPDEST DUP1 SLOAD DUP6 DUP8 ADD DUP4 ADD MSTORE SWAP5 ADD SWAP4 DUP6 SWAP1 DUP3 ADD PUSH2 0x41EF JUMP JUMPDEST SWAP3 SWAP5 POP POP POP PUSH1 0x20 SWAP4 SWAP5 POP PUSH1 0xFF NOT AND DUP4 DUP4 ADD MSTORE ISZERO ISZERO PUSH1 0x5 SHL ADD ADD SWAP1 CODESIZE DUP1 DUP1 DUP1 PUSH2 0x41D4 JUMP JUMPDEST SWAP1 PUSH1 0x20 SWAP2 PUSH2 0x4256 DUP2 MLOAD DUP1 SWAP3 DUP2 DUP6 MSTORE DUP6 DUP1 DUP7 ADD SWAP2 ADD PUSH2 0x412E JUMP JUMPDEST PUSH1 0x1F ADD PUSH1 0x1F NOT AND ADD ADD SWAP1 JUMP JUMPDEST PUSH1 0x1 PUSH1 0x1 PUSH1 0x40 SHL SUB DUP2 GT PUSH2 0x3FE6 JUMPI PUSH1 0x5 SHL PUSH1 0x20 ADD SWAP1 JUMP JUMPDEST PUSH1 0x20 DUP1 DUP3 ADD SWAP1 DUP1 DUP4 MSTORE DUP4 MLOAD DUP1 SWAP3 MSTORE PUSH1 0x40 SWAP3 DUP4 DUP2 ADD DUP3 DUP6 DUP6 PUSH1 0x5 SHL DUP5 ADD ADD SWAP7 ADD SWAP5 PUSH1 0x0 SWAP3 JUMPDEST DUP6 DUP5 LT PUSH2 0x42AE JUMPI POP POP POP POP POP POP POP SWAP1 JUMP JUMPDEST SWAP1 SWAP2 SWAP3 SWAP4 SWAP5 SWAP6 SWAP7 DUP6 DUP1 PUSH1 0x1 SWAP3 PUSH1 0x3F NOT DUP6 DUP3 SUB ADD DUP8 MSTORE DUP11 MLOAD SWAP1 PUSH2 0x42FE PUSH2 0x42EE PUSH2 0x42DE DUP5 MLOAD PUSH1 0xA0 DUP1 DUP7 MSTORE DUP6 ADD SWAP1 PUSH2 0x423D JUMP JUMPDEST DUP6 DUP6 ADD MLOAD DUP5 DUP3 SUB DUP8 DUP7 ADD MSTORE PUSH2 0x423D JUMP JUMPDEST DUP9 DUP5 ADD MLOAD DUP4 DUP3 SUB DUP11 DUP6 ADD MSTORE PUSH2 0x423D JUMP JUMPDEST SWAP2 PUSH1 0x60 DUP7 DUP1 PUSH1 0xA0 SHL SUB DUP2 DUP4 ADD MLOAD AND SWAP1 DUP4 ADD MSTORE PUSH1 0x80 DUP1 SWAP2 ADD MLOAD SWAP2 ADD MSTORE SWAP10 ADD SWAP5 ADD SWAP5 ADD SWAP3 SWAP6 SWAP5 SWAP4 SWAP2 SWAP1 PUSH2 0x429D JUMP JUMPDEST PUSH1 0x1 PUSH1 0x1 PUSH1 0xA0 SHL SUB AND PUSH1 0x0 SWAP1 DUP2 MSTORE PUSH1 0x0 DUP1 MLOAD PUSH1 0x20 PUSH2 0x5195 DUP4 CODECOPY DUP2 MLOAD SWAP2 MSTORE PUSH1 0x20 MSTORE PUSH1 0x40 SWAP1 KECCAK256 SLOAD PUSH1 0xFF AND SWAP1 JUMP JUMPDEST PUSH1 0x1 PUSH1 0x1 PUSH1 0xA0 SHL SUB AND PUSH1 0x0 SWAP1 DUP2 MSTORE PUSH1 0x0 DUP1 MLOAD PUSH1 0x20 PUSH2 0x5115 DUP4 CODECOPY DUP2 MLOAD SWAP2 MSTORE PUSH1 0x20 MSTORE PUSH1 0x40 SWAP1 KECCAK256 SLOAD PUSH1 0xFF AND SWAP1 JUMP JUMPDEST PUSH1 0x1 PUSH1 0x1 PUSH1 0xA0 SHL SUB AND PUSH1 0x0 SWAP1 DUP2 MSTORE PUSH1 0x0 DUP1 MLOAD PUSH1 0x20 PUSH2 0x50D5 DUP4 CODECOPY DUP2 MLOAD SWAP2 MSTORE PUSH1 0x20 MSTORE PUSH1 0x40 SWAP1 KECCAK256 SLOAD PUSH1 0xFF AND SWAP1 JUMP JUMPDEST PUSH1 0x1 PUSH1 0x1 PUSH1 0xA0 SHL SUB AND PUSH1 0x0 SWAP1 DUP2 MSTORE PUSH1 0x0 DUP1 MLOAD PUSH1 0x20 PUSH2 0x51D5 DUP4 CODECOPY DUP2 MLOAD SWAP2 MSTORE PUSH1 0x20 MSTORE PUSH1 0x40 SWAP1 KECCAK256 SLOAD PUSH1 0xFF AND SWAP1 JUMP JUMPDEST PUSH1 0x1 PUSH1 0x1 PUSH1 0xA0 SHL SUB AND PUSH1 0x0 SWAP1 DUP2 MSTORE PUSH1 0x0 DUP1 MLOAD PUSH1 0x20 PUSH2 0x51B5 DUP4 CODECOPY DUP2 MLOAD SWAP2 MSTORE PUSH1 0x20 MSTORE PUSH1 0x40 SWAP1 KECCAK256 SLOAD PUSH1 0xFF AND SWAP1 JUMP JUMPDEST PUSH1 0x1 PUSH1 0x1 PUSH1 0xA0 SHL SUB AND PUSH1 0x0 SWAP1 DUP2 MSTORE PUSH1 0x0 DUP1 MLOAD PUSH1 0x20 PUSH2 0x5135 DUP4 CODECOPY DUP2 MLOAD SWAP2 MSTORE PUSH1 0x20 MSTORE PUSH1 0x40 SWAP1 KECCAK256 SLOAD PUSH1 0xFF AND SWAP1 JUMP JUMPDEST CALLER PUSH1 0x0 SWAP1 DUP2 MSTORE PUSH32 0xAD3228B676F7D3CD4284A5443F17F1962B36E491B30A40B2405849E597BA5FB5 PUSH1 0x20 MSTORE PUSH1 0x40 DUP2 KECCAK256 SLOAD PUSH1 0xFF AND ISZERO PUSH2 0x4466 JUMPI POP JUMP JUMPDEST PUSH1 0x44 SWAP1 PUSH1 0x40 MLOAD SWAP1 PUSH4 0xE2517D3F PUSH1 0xE0 SHL DUP3 MSTORE CALLER PUSH1 0x4 DUP4 ADD MSTORE PUSH1 0x24 DUP3 ADD MSTORE REVERT JUMPDEST DUP1 PUSH1 0x0 MSTORE PUSH1 0x0 PUSH1 0x20 MSTORE PUSH1 0x40 PUSH1 0x0 KECCAK256 CALLER PUSH1 0x0 MSTORE PUSH1 0x20 MSTORE PUSH1 0xFF PUSH1 0x40 PUSH1 0x0 KECCAK256 SLOAD AND ISZERO PUSH2 0x4466 JUMPI POP JUMP JUMPDEST PUSH1 0x1 PUSH1 0x1 PUSH1 0xA0 SHL SUB AND PUSH1 0x0 DUP2 DUP2 MSTORE PUSH1 0x0 DUP1 MLOAD PUSH1 0x20 PUSH2 0x5195 DUP4 CODECOPY DUP2 MLOAD SWAP2 MSTORE PUSH1 0x20 MSTORE PUSH1 0x40 DUP2 KECCAK256 SLOAD SWAP1 SWAP2 SWAP1 PUSH1 0x0 DUP1 MLOAD PUSH1 0x20 PUSH2 0x5215 DUP4 CODECOPY DUP2 MLOAD SWAP2 MSTORE SWAP1 PUSH1 0xFF AND PUSH2 0x4521 JUMPI DUP1 DUP4 MSTORE DUP3 PUSH1 0x20 MSTORE PUSH1 0x40 DUP4 KECCAK256 DUP3 DUP5 MSTORE PUSH1 0x20 MSTORE PUSH1 0x40 DUP4 KECCAK256 PUSH1 0x1 PUSH1 0xFF NOT DUP3 SLOAD AND OR SWAP1 SSTORE PUSH1 0x0 DUP1 MLOAD PUSH1 0x20 PUSH2 0x50F5 DUP4 CODECOPY DUP2 MLOAD SWAP2 MSTORE CALLER SWAP4 DUP1 LOG4 PUSH1 0x1 SWAP1 JUMP JUMPDEST POP POP SWAP1 JUMP JUMPDEST PUSH1 0x1 PUSH1 0x1 PUSH1 0xA0 SHL SUB AND PUSH1 0x0 DUP2 DUP2 MSTORE PUSH1 0x0 DUP1 MLOAD PUSH1 0x20 PUSH2 0x5115 DUP4 CODECOPY DUP2 MLOAD SWAP2 MSTORE PUSH1 0x20 MSTORE PUSH1 0x40 DUP2 KECCAK256 SLOAD SWAP1 SWAP2 SWAP1 PUSH1 0x0 DUP1 MLOAD PUSH1 0x20 PUSH2 0x51F5 DUP4 CODECOPY DUP2 MLOAD SWAP2 MSTORE SWAP1 PUSH1 0xFF AND PUSH2 0x4521 JUMPI DUP1 DUP4 MSTORE DUP3 PUSH1 0x20 MSTORE PUSH1 0x40 DUP4 KECCAK256 DUP3 DUP5 MSTORE PUSH1 0x20 MSTORE PUSH1 0x40 DUP4 KECCAK256 PUSH1 0x1 PUSH1 0xFF NOT DUP3 SLOAD AND OR SWAP1 SSTORE PUSH1 0x0 DUP1 MLOAD PUSH1 0x20 PUSH2 0x50F5 DUP4 CODECOPY DUP2 MLOAD SWAP2 MSTORE CALLER SWAP4 DUP1 LOG4 PUSH1 0x1 SWAP1 JUMP JUMPDEST PUSH1 0x1 PUSH1 0x1 PUSH1 0xA0 SHL SUB AND PUSH1 0x0 DUP2 DUP2 MSTORE PUSH1 0x0 DUP1 MLOAD PUSH1 0x20 PUSH2 0x50D5 DUP4 CODECOPY DUP2 MLOAD SWAP2 MSTORE PUSH1 0x20 MSTORE PUSH1 0x40 DUP2 KECCAK256 SLOAD SWAP1 SWAP2 SWAP1 PUSH1 0x0 DUP1 MLOAD PUSH1 0x20 PUSH2 0x5235 DUP4 CODECOPY DUP2 MLOAD SWAP2 MSTORE SWAP1 PUSH1 0xFF AND PUSH2 0x4521 JUMPI DUP1 DUP4 MSTORE DUP3 PUSH1 0x20 MSTORE PUSH1 0x40 DUP4 KECCAK256 DUP3 DUP5 MSTORE PUSH1 0x20 MSTORE PUSH1 0x40 DUP4 KECCAK256 PUSH1 0x1 PUSH1 0xFF NOT DUP3 SLOAD AND OR SWAP1 SSTORE PUSH1 0x0 DUP1 MLOAD PUSH1 0x20 PUSH2 0x50F5 DUP4 CODECOPY DUP2 MLOAD SWAP2 MSTORE CALLER SWAP4 DUP1 LOG4 PUSH1 0x1 SWAP1 JUMP JUMPDEST PUSH1 0x1 PUSH1 0x1 PUSH1 0xA0 SHL SUB AND PUSH1 0x0 DUP2 DUP2 MSTORE PUSH1 0x0 DUP1 MLOAD PUSH1 0x20 PUSH2 0x51D5 DUP4 CODECOPY DUP2 MLOAD SWAP2 MSTORE PUSH1 0x20 MSTORE PUSH1 0x40 DUP2 KECCAK256 SLOAD SWAP1 SWAP2 SWAP1 PUSH1 0x0 DUP1 MLOAD PUSH1 0x20 PUSH2 0x5255 DUP4 CODECOPY DUP2 MLOAD SWAP2 MSTORE SWAP1 PUSH1 0xFF AND PUSH2 0x4521 JUMPI DUP1 DUP4 MSTORE DUP3 PUSH1 0x20 MSTORE PUSH1 0x40 DUP4 KECCAK256 DUP3 DUP5 MSTORE PUSH1 0x20 MSTORE PUSH1 0x40 DUP4 KECCAK256 PUSH1 0x1 PUSH1 0xFF NOT DUP3 SLOAD AND OR SWAP1 SSTORE PUSH1 0x0 DUP1 MLOAD PUSH1 0x20 PUSH2 0x50F5 DUP4 CODECOPY DUP2 MLOAD SWAP2 MSTORE CALLER SWAP4 DUP1 LOG4 PUSH1 0x1 SWAP1 JUMP JUMPDEST PUSH1 0x1 PUSH1 0x1 PUSH1 0xA0 SHL SUB AND PUSH1 0x0 DUP2 DUP2 MSTORE PUSH1 0x0 DUP1 MLOAD PUSH1 0x20 PUSH2 0x51B5 DUP4 CODECOPY DUP2 MLOAD SWAP2 MSTORE PUSH1 0x20 MSTORE PUSH1 0x40 DUP2 KECCAK256 SLOAD SWAP1 SWAP2 SWAP1 PUSH1 0x0 DUP1 MLOAD PUSH1 0x20 PUSH2 0x5155 DUP4 CODECOPY DUP2 MLOAD SWAP2 MSTORE SWAP1 PUSH1 0xFF AND PUSH2 0x4521 JUMPI DUP1 DUP4 MSTORE DUP3 PUSH1 0x20 MSTORE PUSH1 0x40 DUP4 KECCAK256 DUP3 DUP5 MSTORE PUSH1 0x20 MSTORE PUSH1 0x40 DUP4 KECCAK256 PUSH1 0x1 PUSH1 0xFF NOT DUP3 SLOAD AND OR SWAP1 SSTORE PUSH1 0x0 DUP1 MLOAD PUSH1 0x20 PUSH2 0x50F5 DUP4 CODECOPY DUP2 MLOAD SWAP2 MSTORE CALLER SWAP4 DUP1 LOG4 PUSH1 0x1 SWAP1 JUMP JUMPDEST PUSH1 0x1 PUSH1 0x1 PUSH1 0xA0 SHL SUB AND PUSH1 0x0 DUP2 DUP2 MSTORE PUSH1 0x0 DUP1 MLOAD PUSH1 0x20 PUSH2 0x5135 DUP4 CODECOPY DUP2 MLOAD SWAP2 MSTORE PUSH1 0x20 MSTORE PUSH1 0x40 DUP2 KECCAK256 SLOAD SWAP1 SWAP2 SWAP1 PUSH1 0x0 DUP1 MLOAD PUSH1 0x20 PUSH2 0x5175 DUP4 CODECOPY DUP2 MLOAD SWAP2 MSTORE SWAP1 PUSH1 0xFF AND PUSH2 0x4521 JUMPI DUP1 DUP4 MSTORE DUP3 PUSH1 0x20 MSTORE PUSH1 0x40 DUP4 KECCAK256 DUP3 DUP5 MSTORE PUSH1 0x20 MSTORE PUSH1 0x40 DUP4 KECCAK256 PUSH1 0x1 PUSH1 0xFF NOT DUP3 SLOAD AND OR SWAP1 SSTORE PUSH1 0x0 DUP1 MLOAD PUSH1 0x20 PUSH2 0x50F5 DUP4 CODECOPY DUP2 MLOAD SWAP2 MSTORE CALLER SWAP4 DUP1 LOG4 PUSH1 0x1 SWAP1 JUMP JUMPDEST SWAP1 PUSH1 0x0 SWAP2 DUP1 DUP4 MSTORE DUP3 PUSH1 0x20 MSTORE PUSH1 0x40 DUP4 KECCAK256 SWAP2 PUSH1 0x1 DUP1 PUSH1 0xA0 SHL SUB AND SWAP2 DUP3 DUP5 MSTORE PUSH1 0x20 MSTORE PUSH1 0xFF PUSH1 0x40 DUP5 KECCAK256 SLOAD AND ISZERO PUSH1 0x0 EQ PUSH2 0x4521 JUMPI DUP1 DUP4 MSTORE DUP3 PUSH1 0x20 MSTORE PUSH1 0x40 DUP4 KECCAK256 DUP3 DUP5 MSTORE PUSH1 0x20 MSTORE PUSH1 0x40 DUP4 KECCAK256 PUSH1 0x1 PUSH1 0xFF NOT DUP3 SLOAD AND OR SWAP1 SSTORE PUSH1 0x0 DUP1 MLOAD PUSH1 0x20 PUSH2 0x50F5 DUP4 CODECOPY DUP2 MLOAD SWAP2 MSTORE CALLER SWAP4 DUP1 LOG4 PUSH1 0x1 SWAP1 JUMP JUMPDEST PUSH1 0x1 PUSH1 0x1 PUSH1 0xA0 SHL SUB AND PUSH1 0x0 DUP2 DUP2 MSTORE PUSH1 0x0 DUP1 MLOAD PUSH1 0x20 PUSH2 0x5195 DUP4 CODECOPY DUP2 MLOAD SWAP2 MSTORE PUSH1 0x20 MSTORE PUSH1 0x40 DUP2 KECCAK256 SLOAD SWAP1 SWAP2 SWAP1 PUSH1 0x0 DUP1 MLOAD PUSH1 0x20 PUSH2 0x5215 DUP4 CODECOPY DUP2 MLOAD SWAP2 MSTORE SWAP1 PUSH1 0xFF AND ISZERO PUSH2 0x4521 JUMPI DUP1 DUP4 MSTORE DUP3 PUSH1 0x20 MSTORE PUSH1 0x40 DUP4 KECCAK256 DUP3 DUP5 MSTORE PUSH1 0x20 MSTORE PUSH1 0x40 DUP4 KECCAK256 PUSH1 0xFF NOT DUP2 SLOAD AND SWAP1 SSTORE PUSH1 0x0 DUP1 MLOAD PUSH1 0x20 PUSH2 0x5275 DUP4 CODECOPY DUP2 MLOAD SWAP2 MSTORE CALLER SWAP4 DUP1 LOG4 PUSH1 0x1 SWAP1 JUMP JUMPDEST PUSH1 0x1 PUSH1 0x1 PUSH1 0xA0 SHL SUB AND PUSH1 0x0 DUP2 DUP2 MSTORE PUSH1 0x0 DUP1 MLOAD PUSH1 0x20 PUSH2 0x51B5 DUP4 CODECOPY DUP2 MLOAD SWAP2 MSTORE PUSH1 0x20 MSTORE PUSH1 0x40 DUP2 KECCAK256 SLOAD SWAP1 SWAP2 SWAP1 PUSH1 0x0 DUP1 MLOAD PUSH1 0x20 PUSH2 0x5155 DUP4 CODECOPY DUP2 MLOAD SWAP2 MSTORE SWAP1 PUSH1 0xFF AND ISZERO PUSH2 0x4521 JUMPI DUP1 DUP4 MSTORE DUP3 PUSH1 0x20 MSTORE PUSH1 0x40 DUP4 KECCAK256 DUP3 DUP5 MSTORE PUSH1 0x20 MSTORE PUSH1 0x40 DUP4 KECCAK256 PUSH1 0xFF NOT DUP2 SLOAD AND SWAP1 SSTORE PUSH1 0x0 DUP1 MLOAD PUSH1 0x20 PUSH2 0x5275 DUP4 CODECOPY DUP2 MLOAD SWAP2 MSTORE CALLER SWAP4 DUP1 LOG4 PUSH1 0x1 SWAP1 JUMP JUMPDEST PUSH1 0x1 PUSH1 0x1 PUSH1 0xA0 SHL SUB AND PUSH1 0x0 DUP2 DUP2 MSTORE PUSH1 0x0 DUP1 MLOAD PUSH1 0x20 PUSH2 0x5115 DUP4 CODECOPY DUP2 MLOAD SWAP2 MSTORE PUSH1 0x20 MSTORE PUSH1 0x40 DUP2 KECCAK256 SLOAD SWAP1 SWAP2 SWAP1 PUSH1 0x0 DUP1 MLOAD PUSH1 0x20 PUSH2 0x51F5 DUP4 CODECOPY DUP2 MLOAD SWAP2 MSTORE SWAP1 PUSH1 0xFF AND ISZERO PUSH2 0x4521 JUMPI DUP1 DUP4 MSTORE DUP3 PUSH1 0x20 MSTORE PUSH1 0x40 DUP4 KECCAK256 DUP3 DUP5 MSTORE PUSH1 0x20 MSTORE PUSH1 0x40 DUP4 KECCAK256 PUSH1 0xFF NOT DUP2 SLOAD AND SWAP1 SSTORE PUSH1 0x0 DUP1 MLOAD PUSH1 0x20 PUSH2 0x5275 DUP4 CODECOPY DUP2 MLOAD SWAP2 MSTORE CALLER SWAP4 DUP1 LOG4 PUSH1 0x1 SWAP1 JUMP JUMPDEST PUSH1 0x1 PUSH1 0x1 PUSH1 0xA0 SHL SUB AND PUSH1 0x0 DUP2 DUP2 MSTORE PUSH1 0x0 DUP1 MLOAD PUSH1 0x20 PUSH2 0x5135 DUP4 CODECOPY DUP2 MLOAD SWAP2 MSTORE PUSH1 0x20 MSTORE PUSH1 0x40 DUP2 KECCAK256 SLOAD SWAP1 SWAP2 SWAP1 PUSH1 0x0 DUP1 MLOAD PUSH1 0x20 PUSH2 0x5175 DUP4 CODECOPY DUP2 MLOAD SWAP2 MSTORE SWAP1 PUSH1 0xFF AND ISZERO PUSH2 0x4521 JUMPI DUP1 DUP4 MSTORE DUP3 PUSH1 0x20 MSTORE PUSH1 0x40 DUP4 KECCAK256 DUP3 DUP5 MSTORE PUSH1 0x20 MSTORE PUSH1 0x40 DUP4 KECCAK256 PUSH1 0xFF NOT DUP2 SLOAD AND SWAP1 SSTORE PUSH1 0x0 DUP1 MLOAD PUSH1 0x20 PUSH2 0x5275 DUP4 CODECOPY DUP2 MLOAD SWAP2 MSTORE CALLER SWAP4 DUP1 LOG4 PUSH1 0x1 SWAP1 JUMP JUMPDEST PUSH1 0x1 PUSH1 0x1 PUSH1 0xA0 SHL SUB AND PUSH1 0x0 DUP2 DUP2 MSTORE PUSH1 0x0 DUP1 MLOAD PUSH1 0x20 PUSH2 0x51D5 DUP4 CODECOPY DUP2 MLOAD SWAP2 MSTORE PUSH1 0x20 MSTORE PUSH1 0x40 DUP2 KECCAK256 SLOAD SWAP1 SWAP2 SWAP1 PUSH1 0x0 DUP1 MLOAD PUSH1 0x20 PUSH2 0x5255 DUP4 CODECOPY DUP2 MLOAD SWAP2 MSTORE SWAP1 PUSH1 0xFF AND ISZERO PUSH2 0x4521 JUMPI DUP1 DUP4 MSTORE DUP3 PUSH1 0x20 MSTORE PUSH1 0x40 DUP4 KECCAK256 DUP3 DUP5 MSTORE PUSH1 0x20 MSTORE PUSH1 0x40 DUP4 KECCAK256 PUSH1 0xFF NOT DUP2 SLOAD AND SWAP1 SSTORE PUSH1 0x0 DUP1 MLOAD PUSH1 0x20 PUSH2 0x5275 DUP4 CODECOPY DUP2 MLOAD SWAP2 MSTORE CALLER SWAP4 DUP1 LOG4 PUSH1 0x1 SWAP1 JUMP JUMPDEST PUSH1 0x1 PUSH1 0x1 PUSH1 0xA0 SHL SUB AND PUSH1 0x0 DUP2 DUP2 MSTORE PUSH1 0x0 DUP1 MLOAD PUSH1 0x20 PUSH2 0x50D5 DUP4 CODECOPY DUP2 MLOAD SWAP2 MSTORE PUSH1 0x20 MSTORE PUSH1 0x40 DUP2 KECCAK256 SLOAD SWAP1 SWAP2 SWAP1 PUSH1 0x0 DUP1 MLOAD PUSH1 0x20 PUSH2 0x5235 DUP4 CODECOPY DUP2 MLOAD SWAP2 MSTORE SWAP1 PUSH1 0xFF AND ISZERO PUSH2 0x4521 JUMPI DUP1 DUP4 MSTORE DUP3 PUSH1 0x20 MSTORE PUSH1 0x40 DUP4 KECCAK256 DUP3 DUP5 MSTORE PUSH1 0x20 MSTORE PUSH1 0x40 DUP4 KECCAK256 PUSH1 0xFF NOT DUP2 SLOAD AND SWAP1 SSTORE PUSH1 0x0 DUP1 MLOAD PUSH1 0x20 PUSH2 0x5275 DUP4 CODECOPY DUP2 MLOAD SWAP2 MSTORE CALLER SWAP4 DUP1 LOG4 PUSH1 0x1 SWAP1 JUMP JUMPDEST SWAP1 PUSH1 0x0 SWAP2 DUP1 DUP4 MSTORE DUP3 PUSH1 0x20 MSTORE PUSH1 0x40 DUP4 KECCAK256 SWAP2 PUSH1 0x1 DUP1 PUSH1 0xA0 SHL SUB AND SWAP2 DUP3 DUP5 MSTORE PUSH1 0x20 MSTORE PUSH1 0xFF PUSH1 0x40 DUP5 KECCAK256 SLOAD AND PUSH1 0x0 EQ PUSH2 0x4521 JUMPI DUP1 DUP4 MSTORE DUP3 PUSH1 0x20 MSTORE PUSH1 0x40 DUP4 KECCAK256 DUP3 DUP5 MSTORE PUSH1 0x20 MSTORE PUSH1 0x40 DUP4 KECCAK256 PUSH1 0xFF NOT DUP2 SLOAD AND SWAP1 SSTORE PUSH1 0x0 DUP1 MLOAD PUSH1 0x20 PUSH2 0x5275 DUP4 CODECOPY DUP2 MLOAD SWAP2 MSTORE CALLER SWAP4 DUP1 LOG4 PUSH1 0x1 SWAP1 JUMP JUMPDEST SWAP2 SWAP1 SWAP2 DUP3 MLOAD PUSH1 0x1 PUSH1 0x1 PUSH1 0x40 SHL SUB DUP2 GT PUSH2 0x3FE6 JUMPI PUSH2 0x4B1E DUP3 SLOAD PUSH2 0x416D JUMP JUMPDEST PUSH1 0x1F DUP2 GT PUSH2 0x4BC8 JUMPI JUMPDEST POP PUSH1 0x20 DUP1 PUSH1 0x1F DUP4 GT PUSH1 0x1 EQ PUSH2 0x4B64 JUMPI POP DUP2 SWAP3 SWAP4 SWAP5 PUSH1 0x0 SWAP3 PUSH2 0x4B59 JUMPI JUMPDEST POP POP DUP2 PUSH1 0x1 SHL SWAP2 PUSH1 0x0 NOT SWAP1 PUSH1 0x3 SHL SHR NOT AND OR SWAP1 SSTORE JUMP JUMPDEST ADD MLOAD SWAP1 POP CODESIZE DUP1 PUSH2 0x4B43 JUMP JUMPDEST SWAP1 PUSH1 0x1F NOT DUP4 AND SWAP6 DUP5 PUSH1 0x0 MSTORE DUP3 PUSH1 0x0 KECCAK256 SWAP3 PUSH1 0x0 SWAP1 JUMPDEST DUP9 DUP3 LT PUSH2 0x4BB0 JUMPI POP POP DUP4 PUSH1 0x1 SWAP6 SWAP7 SWAP8 LT PUSH2 0x4B97 JUMPI JUMPDEST POP POP POP DUP2 SHL ADD SWAP1 SSTORE JUMP JUMPDEST ADD MLOAD PUSH1 0x0 NOT PUSH1 0xF8 DUP5 PUSH1 0x3 SHL AND SHR NOT AND SWAP1 SSTORE CODESIZE DUP1 DUP1 PUSH2 0x4B8D JUMP JUMPDEST DUP1 PUSH1 0x1 DUP6 SWAP7 DUP3 SWAP5 SWAP7 DUP7 ADD MLOAD DUP2 SSTORE ADD SWAP6 ADD SWAP4 ADD SWAP1 PUSH2 0x4B78 JUMP JUMPDEST PUSH1 0x0 DUP4 DUP2 MSTORE PUSH1 0x20 DUP2 KECCAK256 PUSH1 0x1F DUP5 ADD PUSH1 0x5 SHR DUP2 ADD SWAP3 PUSH1 0x20 DUP6 LT PUSH2 0x4C06 JUMPI JUMPDEST PUSH1 0x1F ADD PUSH1 0x5 SHR ADD SWAP2 JUMPDEST DUP3 DUP2 LT PUSH2 0x4BFB JUMPI POP POP PUSH2 0x4B27 JUMP JUMPDEST DUP2 DUP2 SSTORE PUSH1 0x1 ADD PUSH2 0x4BED JUMP JUMPDEST SWAP1 SWAP3 POP DUP3 SWAP1 PUSH2 0x4BE4 JUMP JUMPDEST DUP1 SLOAD PUSH1 0x1 PUSH1 0x40 SHL DUP2 LT ISZERO PUSH2 0x3FE6 JUMPI PUSH2 0x4C2D SWAP2 PUSH1 0x1 DUP3 ADD DUP2 SSTORE PUSH2 0x4151 JUMP JUMPDEST SWAP2 SWAP1 SWAP2 PUSH2 0x4C94 JUMPI PUSH1 0x80 DUP2 PUSH2 0x4C44 PUSH1 0x4 SWAP4 MLOAD DUP6 PUSH2 0x4B01 JUMP JUMPDEST PUSH2 0x4C55 PUSH1 0x20 DUP3 ADD MLOAD PUSH1 0x1 DUP7 ADD PUSH2 0x4B01 JUMP JUMPDEST PUSH2 0x4C66 PUSH1 0x40 DUP3 ADD MLOAD PUSH1 0x2 DUP7 ADD PUSH2 0x4B01 JUMP JUMPDEST PUSH1 0x3 DUP5 ADD PUSH1 0x1 DUP1 PUSH1 0xA0 SHL SUB PUSH1 0x60 DUP4 ADD MLOAD AND PUSH12 0xFFFFFFFFFFFFFFFFFFFFFFFF PUSH1 0xA0 SHL DUP3 SLOAD AND OR SWAP1 SSTORE ADD MLOAD SWAP2 ADD SSTORE JUMP JUMPDEST PUSH4 0x4E487B71 PUSH1 0xE0 SHL PUSH1 0x0 MSTORE PUSH1 0x0 PUSH1 0x4 MSTORE PUSH1 0x24 PUSH1 0x0 REVERT JUMPDEST SWAP4 SWAP3 SWAP2 PUSH2 0x4CD3 SWAP1 PUSH2 0x4CC5 PUSH1 0x40 SWAP4 PUSH1 0x60 DUP9 MSTORE PUSH1 0x60 DUP9 ADD SWAP1 PUSH2 0x423D JUMP JUMPDEST SWAP1 DUP7 DUP3 SUB PUSH1 0x20 DUP9 ADD MSTORE PUSH2 0x423D JUMP JUMPDEST SWAP4 ADD MSTORE JUMP JUMPDEST PUSH1 0x0 NOT DUP2 EQ PUSH2 0x34A3 JUMPI PUSH1 0x1 ADD SWAP1 JUMP JUMPDEST DUP1 ISZERO PUSH2 0x34A3 JUMPI PUSH1 0x0 NOT ADD SWAP1 JUMP JUMPDEST DUP1 MLOAD ISZERO PUSH2 0x34B9 JUMPI PUSH1 0x20 ADD SWAP1 JUMP JUMPDEST DUP1 MLOAD DUP3 LT ISZERO PUSH2 0x34B9 JUMPI PUSH1 0x20 SWAP2 PUSH1 0x5 SHL ADD ADD SWAP1 JUMP JUMPDEST SWAP3 SWAP2 SWAP1 PUSH1 0x40 PUSH2 0x4D2D DUP2 SWAP3 PUSH1 0x60 DUP8 MSTORE PUSH1 0x60 DUP8 ADD SWAP1 PUSH2 0x423D JUMP JUMPDEST DUP6 DUP2 SUB PUSH1 0x20 DUP8 ADD MSTORE PUSH1 0xC DUP2 MSTORE PUSH12 0x54726164696E675265616479 PUSH1 0xA0 SHL PUSH1 0x20 DUP3 ADD MSTORE ADD SWAP4 ADD MSTORE JUMP JUMPDEST SWAP1 DUP2 MLOAD DUP2 LT ISZERO PUSH2 0x34B9 JUMPI ADD PUSH1 0x20 ADD SWAP1 JUMP JUMPDEST PUSH1 0x0 SWAP1 PUSH1 0xFF AND PUSH1 0xA DUP2 LT ISZERO PUSH2 0x4D91 JUMPI PUSH1 0x30 SWAP2 POP ADD PUSH1 0xFF DUP2 GT PUSH2 0x34A3 JUMPI PUSH1 0xF8 SHL PUSH1 0x1 PUSH1 0x1 PUSH1 0xF8 SHL SUB NOT AND SWAP1 JUMP JUMPDEST PUSH1 0x61 ADD PUSH1 0xFF DUP2 GT PUSH2 0x4DD2 JUMPI PUSH1 0xFF PUSH1 0x9 NOT SWAP2 AND ADD SWAP1 PUSH1 0xFF DUP3 GT PUSH2 0x4DBE JUMPI POP PUSH1 0xF8 SHL PUSH1 0x1 PUSH1 0x1 PUSH1 0xF8 SHL SUB NOT AND SWAP1 JUMP JUMPDEST PUSH4 0x4E487B71 PUSH1 0xE0 SHL DUP2 MSTORE PUSH1 0x11 PUSH1 0x4 MSTORE PUSH1 0x24 SWAP1 REVERT JUMPDEST PUSH4 0x4E487B71 PUSH1 0xE0 SHL DUP3 MSTORE PUSH1 0x11 PUSH1 0x4 MSTORE PUSH1 0x24 DUP3 REVERT JUMPDEST PUSH1 0x40 DUP1 MLOAD SWAP1 PUSH2 0x4DF4 DUP3 PUSH2 0x3FCA JUMP JUMPDEST DUP2 PUSH1 0x60 SWAP2 DUP3 DUP3 MSTORE PUSH1 0x20 SWAP5 DUP4 DUP7 DUP5 ADD MSTORE DUP4 DUP3 DUP5 ADD MSTORE DUP4 DUP1 DUP5 ADD MSTORE PUSH1 0x0 SWAP1 DUP2 PUSH1 0x80 DUP6 ADD MSTORE DUP2 PUSH1 0xA0 DUP6 ADD MSTORE DUP5 PUSH1 0xC0 DUP6 ADD MSTORE DUP2 PUSH1 0xE0 DUP6 ADD MSTORE PUSH2 0x100 SWAP3 DUP6 DUP5 DUP7 ADD MSTORE PUSH2 0x120 DUP7 DUP2 DUP8 ADD MSTORE PUSH2 0x140 SWAP1 DUP5 DUP3 DUP9 ADD MSTORE PUSH2 0x160 SWAP3 DUP6 DUP5 DUP10 ADD MSTORE DUP11 PUSH2 0x180 SWAP6 DUP8 DUP8 DUP12 ADD MSTORE PUSH2 0x1A0 SWAP8 DUP1 DUP10 DUP13 ADD MSTORE DUP1 PUSH2 0x1C0 DUP1 SWAP13 ADD MSTORE PUSH2 0x1E0 DUP1 SWAP14 ADD MSTORE PUSH2 0x40E PUSH2 0x4E9D DUP5 MLOAD DUP4 MLOAD SWAP5 DUP2 DUP2 DUP7 ADD SWAP7 PUSH2 0x4E88 DUP2 DUP4 DUP11 PUSH2 0x412E JUMP JUMPDEST DUP2 ADD PUSH1 0x2 DUP2 MSTORE SUB ADD SWAP1 KECCAK256 DUP6 MLOAD SWAP3 DUP4 DUP1 SWAP3 PUSH2 0x41A7 JUMP JUMPDEST DUP14 DUP2 MLOAD SWAP2 ADD KECCAK256 DUP2 MLOAD SWAP1 DUP2 DUP5 KECCAK256 EQ SWAP1 DUP2 ISZERO SWAP2 PUSH2 0x504F JUMPI JUMPDEST POP PUSH2 0x502D JUMPI DUP13 SWAP1 DUP4 MLOAD DUP1 SWAP4 DUP2 SWAP3 MLOAD DUP1 SWAP3 PUSH2 0x4ECC SWAP3 PUSH2 0x412E JUMP JUMPDEST DUP2 ADD PUSH1 0x2 DUP2 MSTORE SUB ADD SWAP1 KECCAK256 SWAP9 DUP10 DUP3 MLOAD SWAP13 PUSH2 0x4EE4 DUP15 PUSH2 0x3FCA JUMP JUMPDEST DUP4 MLOAD DUP15 DUP2 PUSH2 0x4EF2 DUP2 DUP7 PUSH2 0x41A7 JUMP JUMPDEST SUB PUSH2 0x4EFD SWAP1 DUP4 PUSH2 0x4032 JUMP JUMPDEST MSTORE DUP4 MLOAD DUP1 PUSH1 0x1 DUP2 SWAP5 ADD SWAP1 PUSH2 0x4F10 SWAP2 PUSH2 0x41A7 JUMP JUMPDEST SUB PUSH2 0x4F1B SWAP1 DUP4 PUSH2 0x4032 JUMP JUMPDEST DUP14 ADD MSTORE DUP2 MLOAD DUP1 PUSH2 0x4F2E DUP2 PUSH1 0x2 DUP15 ADD PUSH2 0x41A7 JUMP JUMPDEST SUB PUSH2 0x4F39 SWAP1 DUP3 PUSH2 0x4032 JUMP JUMPDEST DUP13 DUP4 ADD MSTORE DUP2 MLOAD SWAP1 DUP2 PUSH2 0x4F4E DUP2 PUSH1 0x3 DUP15 ADD PUSH2 0x41A7 JUMP JUMPDEST SUB PUSH2 0x4F59 SWAP1 DUP4 PUSH2 0x4032 JUMP JUMPDEST DUP13 ADD MSTORE PUSH1 0x4 DUP10 ADD SLOAD PUSH1 0x80 DUP13 ADD MSTORE PUSH1 0x5 DUP10 ADD SLOAD PUSH1 0xA0 DUP13 ADD MSTORE DUP1 MLOAD DUP1 PUSH2 0x4F80 DUP2 PUSH1 0x6 DUP14 ADD PUSH2 0x41A7 JUMP JUMPDEST SUB PUSH2 0x4F8B SWAP1 DUP3 PUSH2 0x4032 JUMP JUMPDEST PUSH1 0xC0 DUP13 ADD MSTORE PUSH1 0x7 DUP10 ADD SLOAD PUSH1 0x1 PUSH1 0x1 PUSH1 0xA0 SHL SUB SWAP1 DUP2 AND PUSH1 0xE0 DUP14 ADD MSTORE DUP2 MLOAD SWAP1 SWAP8 DUP2 PUSH2 0x4FB7 DUP2 PUSH1 0x8 DUP15 ADD PUSH2 0x41A7 JUMP JUMPDEST SUB PUSH2 0x4FC2 SWAP1 DUP4 PUSH2 0x4032 JUMP JUMPDEST DUP13 ADD MSTORE MLOAD SWAP1 DUP2 PUSH2 0x4FD5 DUP2 PUSH1 0x9 DUP13 ADD PUSH2 0x41A7 JUMP JUMPDEST SUB PUSH2 0x4FE0 SWAP1 DUP4 PUSH2 0x4032 JUMP JUMPDEST DUP11 ADD MSTORE PUSH1 0xA DUP8 ADD SLOAD SWAP5 DUP6 AND SWAP1 DUP10 ADD MSTORE DUP4 PUSH1 0xA0 SHR PUSH1 0xFF AND ISZERO ISZERO SWAP1 DUP9 ADD MSTORE DUP3 PUSH1 0xA8 SHR PUSH1 0xFF AND ISZERO ISZERO SWAP1 DUP8 ADD MSTORE DUP2 PUSH1 0xB0 SHR PUSH1 0xFF AND ISZERO ISZERO SWAP1 DUP7 ADD MSTORE PUSH1 0xB8 SHR PUSH1 0xFF AND ISZERO ISZERO SWAP1 DUP5 ADD MSTORE PUSH1 0xB ADD SLOAD SWAP1 DUP3 ADD MSTORE SWAP1 JUMP JUMPDEST DUP13 PUSH2 0x533 DUP5 MLOAD SWAP3 DUP4 SWAP3 PUSH4 0xF855236D PUSH1 0xE0 SHL DUP5 MSTORE PUSH1 0x4 DUP5 ADD MSTORE PUSH1 0x24 DUP4 ADD SWAP1 PUSH2 0x423D JUMP JUMPDEST SWAP1 POP ISZERO CODESIZE PUSH2 0x4EB3 JUMP JUMPDEST ISZERO PUSH2 0x505F JUMPI JUMP JUMPDEST PUSH1 0x40 MLOAD PUSH3 0x461BCD PUSH1 0xE5 SHL DUP2 MSTORE PUSH1 0x20 PUSH1 0x4 DUP3 ADD MSTORE PUSH1 0x12 PUSH1 0x24 DUP3 ADD MSTORE PUSH18 0x151BDAD95B881B9BDD081858D8D95C1D1959 PUSH1 0x72 SHL PUSH1 0x44 DUP3 ADD MSTORE PUSH1 0x64 SWAP1 REVERT JUMPDEST ISZERO PUSH2 0x50A0 JUMPI JUMP JUMPDEST PUSH1 0x40 MLOAD PUSH3 0x461BCD PUSH1 0xE5 SHL DUP2 MSTORE PUSH1 0x20 PUSH1 0x4 DUP3 ADD MSTORE PUSH1 0xC PUSH1 0x24 DUP3 ADD MSTORE PUSH12 0x105B1C9958591E481CDBDB19 PUSH1 0xA2 SHL PUSH1 0x44 DUP3 ADD MSTORE PUSH1 0x64 SWAP1 REVERT INVALID 0xD 0x2D PUSH11 0x5D08CB5D871289C0A3CA85 0x5D SWAP14 0xA7 0x29 MULMOD LOG1 GT 0xC2 0x4C 0xCE 0x2D 0x5C 0x2B CALLVALUE LOG2 0xD 0xAA SLOAD 0x2F DUP8 DUP9 GT PUSH31 0x7EFF1D82E926EC794901D17C78024A50270940304540A733656F0DF3FA603C PUSH21 0xBFE2A4719960E47343678C3DC690D2B27A2295ACC6 0xFC NUMBER ADDMOD CALLER 0xAA 0xF9 0xAC SELFDESTRUCT 0xF8 LOG3 SWAP16 0xB9 JUMPI 0xD9 0xD1 0xC8 0xE3 0xEF SWAP16 ADDMOD CODESIZE 0x5E EXTCODEHASH 0xCF PUSH28 0xB23AB7BA0AD0F8DF93DBDE6A68DDAA901E2FE3BDA354FE0EDE278515 0x2D 0x5C LT SWAP3 DUP3 0xA6 SGT INVALID MUL 0x4A SDIV PUSH11 0x3E66C41BB3273DCF2136C7 0xD8 0xEF PUSH4 0x2BB8EF13 0xDB 0xCA PUSH10 0xA8F36FA620C7468671B3 ISZERO RETURNDATASIZE CHAINID LOG2 GT 0xC0 0xBB EXTCODEHASH 0xCC 0x25 0xFB SELFDESTRUCT LOG1 0x2E LOG4 PUSH4 0xB3505377 DUP10 SWAP11 0x4D 0x5D 0xDB BASEFEE PC 0xB9 0xC7 0xBD CALLDATASIZE PUSH23 0x4686D9425B36BCE5FD3347E0DC338DCC0E895534DD4AF2 PUSH21 0xEEC95F56CD4CA4B4B2ADA357CA04130A4CACA6023 0xB0 0xBA 0x21 BASEFEE DUP15 0xE6 DUP1 0xCE 0x5C RETURNDATASIZE CALLCODE 0x28 PUSH1 0xB1 0xCD DUP12 MUL 0xCD 0x2A SIGNEXTEND 0xCB 0xD 0xE9 DUP9 MLOAD 0xF8 0xCD ORIGIN 0xED SWAP4 0xFC 0x2F SWAP16 0xC7 DUP2 MSTORE LOG1 BASEFEE SMOD 0xC9 PUSH1 0x9A RETURN 0xD9 SWAP13 PUSH0 0xE4 0xDC PUSH12 0x106A801AADDFE90EA952726E CALLCODE PC DUP11 0xD0 PUSH25 0xEDF35B066F7C7406E207CB0003BBABA8CB53EBA9553E7259A1 0xC4 DUP15 PC CALLDATACOPY 0xAD PUSH27 0x7F3DCEDCBE129BF3249EC4FBF651FD4F5E2600EAD39FE2F5A977E1 LOG3 PREVRANDAO TIMESTAMP XOR SELFDESTRUCT CALLER 0x2E 0xDF PUSH20 0x5C56487BBE59922B15C88777D443EB8B78020F4D 0xF6 CODECOPY 0x1F 0x5C ORIGIN 0xD9 0xC6 SWAP14 0x2A SELFBALANCE 0xEA PUSH8 0xB442974B53935D1 0xED 0xC7 REVERT PUSH5 0xEB21E047A8 CODECOPY OR SHL LOG2 PUSH5 0x6970667358 0x22 SLT KECCAK256 SELFDESTRUCT SHL 0xC 0xE 0x2B 0xA6 0xD7 DELEGATECALL ADD ORIGIN COINBASE 0x4F CODECOPY PUSH22 0xE06CF767A93157636F067950FE9FA01E905064736F6C PUSH4 0x43000814 STOP CALLER 0x2F DUP8 DUP9 GT PUSH31 0x7EFF1D82E926EC794901D17C78024A50270940304540A733656F0DDDAA901E 0x2F 0xE3 0xBD LOG3 SLOAD INVALID 0xE 0xDE 0x27 DUP6 ISZERO 0x2D 0x5C LT SWAP3 DUP3 0xA6 SGT INVALID MUL 0x4A SDIV PUSH11 0x3E66C41BB3273DCF2136C7 0xD8 0xEF PUSH4 0x2BB8EF13 0xDB 0xCA PUSH10 0xA8F36FA620C7468671B3 ISZERO RETURNDATASIZE CHAINID LOG2 GT 0xC0 0xF8 0xCD ORIGIN 0xED SWAP4 0xFC 0x2F SWAP16 0xC7 DUP2 MSTORE LOG1 BASEFEE SMOD 0xC9 PUSH1 0x9A RETURN 0xD9 SWAP13 PUSH0 0xE4 0xDC PUSH12 0x106A801AADDFE90EA977E1A3 PREVRANDAO TIMESTAMP XOR SELFDESTRUCT CALLER 0x2E 0xDF PUSH20 0x5C56487BBE59922B15C88777D443EB8B78020F4D "},"gasEstimates":{"creation":{"codeDepositCost":"4238800","executionCost":"infinite","totalCost":"infinite"},"external":{"AUDITOR_ROLE()":"672","BUYER_ROLE()":"760","DEFAULT_ADMIN_ROLE()":"969","INSPECTOR_ROLE()":"1376","MINER_ROLE()":"650","REFINER_ROLE()":"738","TRANSPORTER_ROLE()":"584","_auditMineral(string,string)":"infinite","_checkAuditAndInspectionStatus(string)":"infinite","_getMineralHistory(string)":"infinite","acceptedTokens(address)":"3081","addAcceptedToken(address)":"27032","assignAuditor(address)":"infinite","assignBuyer(address)":"infinite","assignInspector(address)":"infinite","assignMiner(address)":"infinite","assignRefiner(address)":"infinite","assignTransporter(address)":"infinite","checkAuditAndInspectionStatus(string)":"infinite","getAllRoleCounts()":"infinite","getMineralDetails(string)":"infinite","getMineralHistory(string)":"infinite","getMineralPriceInToken(string,address)":"infinite","getRoleAdmin(bytes32)":"2462","getRoleMemberCount(bytes32)":"infinite","getRolesForAddress(address)":"infinite","grantRole(bytes32,address)":"33426","hasAdminRole(address)":"3454","hasAuditorRole(address)":"infinite","hasBuyerRole(address)":"infinite","hasInspectorRole(address)":"infinite","hasMinerRole(address)":"infinite","hasRefinerRole(address)":"infinite","hasRole(bytes32,address)":"3216","hasTransporterRole(address)":"infinite","inspectMineral(string,string)":"infinite","isMineralAudited(string)":"infinite","isMineralInspected(string)":"infinite","isMineralMarketReady(string)":"infinite","isMineralRegistered(string)":"infinite","list_Mineral_ForSale(string,string)":"infinite","mineralDetails(string)":"infinite","mineralHistories(string,uint256)":"infinite","purchaseMineral(string)":"infinite","purchase_mineral(string,uint8,address,uint256)":"infinite","refineMineral(string,string)":"infinite","registerMineral(string,string,uint256,string,uint256,string)":"infinite","renounceRole(bytes32,address)":"29096","revokeAuditor(address,string)":"infinite","revokeBuyer(address,string)":"infinite","revokeInspector(address,string)":"infinite","revokeMiner(address,string)":"infinite","revokeRefiner(address,string)":"infinite","revokeRole(bytes32,address)":"34341","revokeTransporter(address,string)":"infinite","roleMemberCount(bytes32)":"3270","store_refined_mineral_to_warehouse(string,uint256,address[],uint256[])":"infinite","supportsInterface(bytes4)":"271","transferMineral(string,address,string,string)":"infinite","updateMineralLocation(string,string)":"infinite","updateMineralStatus(string,string)":"infinite"}},"methodIdentifiers":{"AUDITOR_ROLE()":"6e1d616e","BUYER_ROLE()":"7a01a1da","DEFAULT_ADMIN_ROLE()":"a217fddf","INSPECTOR_ROLE()":"e3a3c522","MINER_ROLE()":"6394f6e6","REFINER_ROLE()":"79451cd7","TRANSPORTER_ROLE()":"4eabbe77","_auditMineral(string,string)":"4e2a3109","_checkAuditAndInspectionStatus(string)":"1c7588fc","_getMineralHistory(string)":"f6e2314b","acceptedTokens(address)":"82dc4a05","addAcceptedToken(address)":"3eee83f1","assignAuditor(address)":"480d1dd3","assignBuyer(address)":"0dacad2e","assignInspector(address)":"cc82b090","assignMiner(address)":"0958fc2d","assignRefiner(address)":"6377741d","assignTransporter(address)":"a917601b","checkAuditAndInspectionStatus(string)":"75a2b0d4","getAllRoleCounts()":"b9c5b833","getMineralDetails(string)":"a672d987","getMineralHistory(string)":"826fe0f5","getMineralPriceInToken(string,address)":"c5db94be","getRoleAdmin(bytes32)":"248a9ca3","getRoleMemberCount(bytes32)":"ca15c873","getRolesForAddress(address)":"df422bf2","grantRole(bytes32,address)":"2f2ff15d","hasAdminRole(address)":"c395fcb3","hasAuditorRole(address)":"abaa536f","hasBuyerRole(address)":"beae4615","hasInspectorRole(address)":"8850845f","hasMinerRole(address)":"3499c3a2","hasRefinerRole(address)":"de7ce391","hasRole(bytes32,address)":"91d14854","hasTransporterRole(address)":"70e22e42","inspectMineral(string,string)":"99691194","isMineralAudited(string)":"981642c6","isMineralInspected(string)":"e2e3edeb","isMineralMarketReady(string)":"2ba3e5ac","isMineralRegistered(string)":"ac851dfd","list_Mineral_ForSale(string,string)":"8604d288","mineralDetails(string)":"5aee1b15","mineralHistories(string,uint256)":"35ba6207","purchaseMineral(string)":"126ee338","purchase_mineral(string,uint8,address,uint256)":"ef4c0c94","refineMineral(string,string)":"7cde2b99","registerMineral(string,string,uint256,string,uint256,string)":"3a7adea5","renounceRole(bytes32,address)":"36568abe","revokeAuditor(address,string)":"fc1032eb","revokeBuyer(address,string)":"9b188dd6","revokeInspector(address,string)":"e438fdf8","revokeMiner(address,string)":"309514df","revokeRefiner(address,string)":"f5716a85","revokeRole(bytes32,address)":"d547741f","revokeTransporter(address,string)":"7ae9c160","roleMemberCount(bytes32)":"b6ba1ca7","store_refined_mineral_to_warehouse(string,uint256,address[],uint256[])":"43d990d8","supportsInterface(bytes4)":"01ffc9a7","transferMineral(string,address,string,string)":"f17f3523","updateMineralLocation(string,string)":"129b5c45","updateMineralStatus(string,string)":"a354aec7"}},"storageLayout":{"storage":[{"astId":26,"contract":"contracts/modules/MineralWarehouse.sol:MineralWarehouse","label":"_roles","offset":0,"slot":"0","type":"t_mapping(t_bytes32,t_struct(RoleData)21_storage)"},{"astId":809,"contract":"contracts/modules/MineralWarehouse.sol:MineralWarehouse","label":"nonce","offset":0,"slot":"1","type":"t_uint256"},{"astId":814,"contract":"contracts/modules/MineralWarehouse.sol:MineralWarehouse","label":"mineralDetails","offset":0,"slot":"2","type":"t_mapping(t_string_memory_ptr,t_struct(MineralDetails)791_storage)"},{"astId":820,"contract":"contracts/modules/MineralWarehouse.sol:MineralWarehouse","label":"mineralHistories","offset":0,"slot":"3","type":"t_mapping(t_string_memory_ptr,t_array(t_struct(MineralHistory)802_storage)dyn_storage)"},{"astId":824,"contract":"contracts/modules/MineralWarehouse.sol:MineralWarehouse","label":"roleMemberCount","offset":0,"slot":"4","type":"t_mapping(t_bytes32,t_uint256)"},{"astId":2645,"contract":"contracts/modules/MineralWarehouse.sol:MineralWarehouse","label":"rolesManager","offset":0,"slot":"5","type":"t_contract(RolesManager)2636"},{"astId":3277,"contract":"contracts/modules/MineralWarehouse.sol:MineralWarehouse","label":"mineralRegistry","offset":0,"slot":"6","type":"t_contract(MineralRegistry)3260"},{"astId":3280,"contract":"contracts/modules/MineralWarehouse.sol:MineralWarehouse","label":"rolesManager","offset":0,"slot":"7","type":"t_contract(RolesManager)2636"},{"astId":3319,"contract":"contracts/modules/MineralWarehouse.sol:MineralWarehouse","label":"warehouse","offset":0,"slot":"8","type":"t_mapping(t_string_memory_ptr,t_struct(StoredMineral)3314_storage)"},{"astId":3322,"contract":"contracts/modules/MineralWarehouse.sol:MineralWarehouse","label":"storedMineralIds","offset":0,"slot":"9","type":"t_array(t_string_storage)dyn_storage"},{"astId":3326,"contract":"contracts/modules/MineralWarehouse.sol:MineralWarehouse","label":"acceptedTokens","offset":0,"slot":"10","type":"t_mapping(t_address,t_bool)"}],"types":{"t_address":{"encoding":"inplace","label":"address","numberOfBytes":"20"},"t_array(t_string_storage)dyn_storage":{"base":"t_string_storage","encoding":"dynamic_array","label":"string[]","numberOfBytes":"32"},"t_array(t_struct(MineralHistory)802_storage)dyn_storage":{"base":"t_struct(MineralHistory)802_storage","encoding":"dynamic_array","label":"struct RolesManager.MineralHistory[]","numberOfBytes":"32"},"t_bool":{"encoding":"inplace","label":"bool","numberOfBytes":"1"},"t_bytes32":{"encoding":"inplace","label":"bytes32","numberOfBytes":"32"},"t_contract(MineralRegistry)3260":{"encoding":"inplace","label":"contract MineralRegistry","numberOfBytes":"20"},"t_contract(RolesManager)2636":{"encoding":"inplace","label":"contract RolesManager","numberOfBytes":"20"},"t_mapping(t_address,t_bool)":{"encoding":"mapping","key":"t_address","label":"mapping(address => bool)","numberOfBytes":"32","value":"t_bool"},"t_mapping(t_address,t_uint256)":{"encoding":"mapping","key":"t_address","label":"mapping(address => uint256)","numberOfBytes":"32","value":"t_uint256"},"t_mapping(t_bytes32,t_struct(RoleData)21_storage)":{"encoding":"mapping","key":"t_bytes32","label":"mapping(bytes32 => struct AccessControl.RoleData)","numberOfBytes":"32","value":"t_struct(RoleData)21_storage"},"t_mapping(t_bytes32,t_uint256)":{"encoding":"mapping","key":"t_bytes32","label":"mapping(bytes32 => uint256)","numberOfBytes":"32","value":"t_uint256"},"t_mapping(t_string_memory_ptr,t_array(t_struct(MineralHistory)802_storage)dyn_storage)":{"encoding":"mapping","key":"t_string_memory_ptr","label":"mapping(string => struct RolesManager.MineralHistory[])","numberOfBytes":"32","value":"t_array(t_struct(MineralHistory)802_storage)dyn_storage"},"t_mapping(t_string_memory_ptr,t_struct(MineralDetails)791_storage)":{"encoding":"mapping","key":"t_string_memory_ptr","label":"mapping(string => struct RolesManager.MineralDetails)","numberOfBytes":"32","value":"t_struct(MineralDetails)791_storage"},"t_mapping(t_string_memory_ptr,t_struct(StoredMineral)3314_storage)":{"encoding":"mapping","key":"t_string_memory_ptr","label":"mapping(string => struct MineralWarehouse.StoredMineral)","numberOfBytes":"32","value":"t_struct(StoredMineral)3314_storage"},"t_string_memory_ptr":{"encoding":"bytes","label":"string","numberOfBytes":"32"},"t_string_storage":{"encoding":"bytes","label":"string","numberOfBytes":"32"},"t_struct(MineralDetails)791_storage":{"encoding":"inplace","label":"struct RolesManager.MineralDetails","members":[{"astId":760,"contract":"contracts/modules/MineralWarehouse.sol:MineralWarehouse","label":"id","offset":0,"slot":"0","type":"t_string_storage"},{"astId":762,"contract":"contracts/modules/MineralWarehouse.sol:MineralWarehouse","label":"name","offset":0,"slot":"1","type":"t_string_storage"},{"astId":764,"contract":"contracts/modules/MineralWarehouse.sol:MineralWarehouse","label":"origin","offset":0,"slot":"2","type":"t_string_storage"},{"astId":766,"contract":"contracts/modules/MineralWarehouse.sol:MineralWarehouse","label":"mineralType","offset":0,"slot":"3","type":"t_string_storage"},{"astId":768,"contract":"contracts/modules/MineralWarehouse.sol:MineralWarehouse","label":"weight","offset":0,"slot":"4","type":"t_uint256"},{"astId":770,"contract":"contracts/modules/MineralWarehouse.sol:MineralWarehouse","label":"purityPercentage","offset":0,"slot":"5","type":"t_uint256"},{"astId":772,"contract":"contracts/modules/MineralWarehouse.sol:MineralWarehouse","label":"storageConditions","offset":0,"slot":"6","type":"t_string_storage"},{"astId":774,"contract":"contracts/modules/MineralWarehouse.sol:MineralWarehouse","label":"registeredBy","offset":0,"slot":"7","type":"t_address"},{"astId":776,"contract":"contracts/modules/MineralWarehouse.sol:MineralWarehouse","label":"currentStatus","offset":0,"slot":"8","type":"t_string_storage"},{"astId":778,"contract":"contracts/modules/MineralWarehouse.sol:MineralWarehouse","label":"currentLocation","offset":0,"slot":"9","type":"t_string_storage"},{"astId":780,"contract":"contracts/modules/MineralWarehouse.sol:MineralWarehouse","label":"currentHandler","offset":0,"slot":"10","type":"t_address"},{"astId":782,"contract":"contracts/modules/MineralWarehouse.sol:MineralWarehouse","label":"isPurchased","offset":20,"slot":"10","type":"t_bool"},{"astId":784,"contract":"contracts/modules/MineralWarehouse.sol:MineralWarehouse","label":"isRefined","offset":21,"slot":"10","type":"t_bool"},{"astId":786,"contract":"contracts/modules/MineralWarehouse.sol:MineralWarehouse","label":"isAudited","offset":22,"slot":"10","type":"t_bool"},{"astId":788,"contract":"contracts/modules/MineralWarehouse.sol:MineralWarehouse","label":"isInspected","offset":23,"slot":"10","type":"t_bool"},{"astId":790,"contract":"contracts/modules/MineralWarehouse.sol:MineralWarehouse","label":"timestamp","offset":0,"slot":"11","type":"t_uint256"}],"numberOfBytes":"384"},"t_struct(MineralHistory)802_storage":{"encoding":"inplace","label":"struct RolesManager.MineralHistory","members":[{"astId":793,"contract":"contracts/modules/MineralWarehouse.sol:MineralWarehouse","label":"id","offset":0,"slot":"0","type":"t_string_storage"},{"astId":795,"contract":"contracts/modules/MineralWarehouse.sol:MineralWarehouse","label":"fieldChanged","offset":0,"slot":"1","type":"t_string_storage"},{"astId":797,"contract":"contracts/modules/MineralWarehouse.sol:MineralWarehouse","label":"newValue","offset":0,"slot":"2","type":"t_string_storage"},{"astId":799,"contract":"contracts/modules/MineralWarehouse.sol:MineralWarehouse","label":"updatedBy","offset":0,"slot":"3","type":"t_address"},{"astId":801,"contract":"contracts/modules/MineralWarehouse.sol:MineralWarehouse","label":"timestamp","offset":0,"slot":"4","type":"t_uint256"}],"numberOfBytes":"160"},"t_struct(MineralSaleInfo)3292_storage":{"encoding":"inplace","label":"struct MineralWarehouse.MineralSaleInfo","members":[{"astId":3285,"contract":"contracts/modules/MineralWarehouse.sol:MineralWarehouse","label":"price","offset":0,"slot":"0","type":"t_string_storage"},{"astId":3287,"contract":"contracts/modules/MineralWarehouse.sol:MineralWarehouse","label":"priceETH","offset":0,"slot":"1","type":"t_uint256"},{"astId":3291,"contract":"contracts/modules/MineralWarehouse.sol:MineralWarehouse","label":"tokenPrices","offset":0,"slot":"2","type":"t_mapping(t_address,t_uint256)"}],"numberOfBytes":"96"},"t_struct(RoleData)21_storage":{"encoding":"inplace","label":"struct AccessControl.RoleData","members":[{"astId":18,"contract":"contracts/modules/MineralWarehouse.sol:MineralWarehouse","label":"hasRole","offset":0,"slot":"0","type":"t_mapping(t_address,t_bool)"},{"astId":20,"contract":"contracts/modules/MineralWarehouse.sol:MineralWarehouse","label":"adminRole","offset":0,"slot":"1","type":"t_bytes32"}],"numberOfBytes":"64"},"t_struct(StoredMineral)3314_storage":{"encoding":"inplace","label":"struct MineralWarehouse.StoredMineral","members":[{"astId":3294,"contract":"contracts/modules/MineralWarehouse.sol:MineralWarehouse","label":"mineralId","offset":0,"slot":"0","type":"t_string_storage"},{"astId":3296,"contract":"contracts/modules/MineralWarehouse.sol:MineralWarehouse","label":"refiner","offset":0,"slot":"1","type":"t_address"},{"astId":3298,"contract":"contracts/modules/MineralWarehouse.sol:MineralWarehouse","label":"storedAt","offset":0,"slot":"2","type":"t_uint256"},{"astId":3300,"contract":"contracts/modules/MineralWarehouse.sol:MineralWarehouse","label":"soldAt","offset":0,"slot":"3","type":"t_uint256"},{"astId":3302,"contract":"contracts/modules/MineralWarehouse.sol:MineralWarehouse","label":"isStored","offset":0,"slot":"4","type":"t_bool"},{"astId":3304,"contract":"contracts/modules/MineralWarehouse.sol:MineralWarehouse","label":"isSold","offset":1,"slot":"4","type":"t_bool"},{"astId":3306,"contract":"contracts/modules/MineralWarehouse.sol:MineralWarehouse","label":"isForSale","offset":2,"slot":"4","type":"t_bool"},{"astId":3308,"contract":"contracts/modules/MineralWarehouse.sol:MineralWarehouse","label":"buyer","offset":3,"slot":"4","type":"t_address"},{"astId":3310,"contract":"contracts/modules/MineralWarehouse.sol:MineralWarehouse","label":"isMarketReady","offset":23,"slot":"4","type":"t_bool"},{"astId":3313,"contract":"contracts/modules/MineralWarehouse.sol:MineralWarehouse","label":"saleInfo","offset":0,"slot":"5","type":"t_struct(MineralSaleInfo)3292_storage"}],"numberOfBytes":"256"},"t_uint256":{"encoding":"inplace","label":"uint256","numberOfBytes":"32"}}},"userdoc":{"kind":"user","methods":{"_auditMineral(string,string)":{"notice":"Emits MineralAudited event."},"inspectMineral(string,string)":{"notice":"Emits MineralInspected event on successful inspection"},"purchaseMineral(string)":{"notice":"Emits MineralPurchased event on successful purchase"},"refineMineral(string,string)":{"notice":"Emits MineralRefined event on successfl refining process"},"registerMineral(string,string,uint256,string,uint256,string)":{"notice":"Emits MineralRegistered event on successful registration."},"transferMineral(string,address,string,string)":{"notice":"Emits MineralTransported on successful transportation"},"updateMineralLocation(string,string)":{"notice":"Emits MineralLocationUpdated event on successful location update!"},"updateMineralStatus(string,string)":{"notice":"Emits MineralUpdated event on successful updation"}},"version":1}}}}