{"contracts/modules/MineralRegistry.sol":{"MineralRegistry":{"abi":[{"inputs":[{"internalType":"address","name":"rolesManagerAddress","type":"address"}],"stateMutability":"nonpayable","type":"constructor"},{"inputs":[],"name":"AccessControlBadConfirmation","type":"error"},{"inputs":[{"internalType":"address","name":"account","type":"address"},{"internalType":"bytes32","name":"neededRole","type":"bytes32"}],"name":"AccessControlUnauthorizedAccount","type":"error"},{"inputs":[{"internalType":"address","name":"caller","type":"address"},{"internalType":"bytes32","name":"role","type":"bytes32"}],"name":"AddressDoesNotHaveRequiredRole","type":"error"},{"inputs":[{"internalType":"address","name":"caller","type":"address"}],"name":"DisputeResolution__AlreadyVoted","type":"error"},{"inputs":[{"internalType":"uint256","name":"disputeId","type":"uint256"}],"name":"DisputeResolution__DisputeEscalated_UnableToVote","type":"error"},{"inputs":[{"internalType":"uint256","name":"disputeId","type":"uint256"}],"name":"DisputeResolution__DisputeNotEscalated","type":"error"},{"inputs":[{"internalType":"uint256","name":"disputeId","type":"uint256"}],"name":"DisputeResolution__DisputeStatusNotPending","type":"error"},{"inputs":[],"name":"DisputeResolution__DisputeStatusNotPendingOrEscalated","type":"error"},{"inputs":[],"name":"DisputeResolution__InvalidDisputeDefendantAddress","type":"error"},{"inputs":[],"name":"DisputeResolution__InvalidDisputeDetails","type":"error"},{"inputs":[],"name":"DisputeResolution__InvalidDisputeEvidence","type":"error"},{"inputs":[],"name":"DisputeResolution__InvalidDisputeIdOrNotFound","type":"error"},{"inputs":[],"name":"DisputeResolution__InvalidMineralIdOrNotFound","type":"error"},{"inputs":[],"name":"DisputeResolution__InvalidResolutionDetails","type":"error"},{"inputs":[{"internalType":"address","name":"caller","type":"address"}],"name":"DisputeResolution__NotEligibleToVote","type":"error"},{"inputs":[],"name":"DisputeResolution__VotingPeriodStillActive","type":"error"},{"inputs":[{"internalType":"address","name":"token","type":"address"},{"internalType":"uint256","name":"tokenAmount","type":"uint256"}],"name":"ERC20TokenTransferFailed","type":"error"},{"inputs":[{"internalType":"address","name":"caller","type":"address"}],"name":"InsufficientPermissionsToPerformAction","type":"error"},{"inputs":[],"name":"InvalidAccountAddress","type":"error"},{"inputs":[{"internalType":"string","name":"mineralId","type":"string"}],"name":"InvalidMineralIdOrNotFound","type":"error"},{"inputs":[],"name":"InvalidPaymentMethods","type":"error"},{"inputs":[{"internalType":"string","name":"currentStatus","type":"string"},{"internalType":"string","name":"attemptedStatus","type":"string"}],"name":"InvalidTransportStateTransition","type":"error"},{"inputs":[{"internalType":"string","name":"mineralId","type":"string"}],"name":"MineralNotMarketReady","type":"error"},{"inputs":[{"internalType":"string","name":"mineralId","type":"string"}],"name":"MineralNotReadyToTrade","type":"error"},{"inputs":[],"name":"MineralRegistry__InvalidMineralDestination","type":"error"},{"inputs":[],"name":"MineralRegistry__InvalidMineralDetails","type":"error"},{"inputs":[{"internalType":"string","name":"mineralId","type":"string"}],"name":"MineralRegistry__InvalidMineralIdOrNotFound","type":"error"},{"inputs":[],"name":"MineralRegistry__InvalidMineralLocation","type":"error"},{"inputs":[],"name":"MineralRegistry__InvalidMineralName","type":"error"},{"inputs":[],"name":"MineralRegistry__InvalidMineralOrigin","type":"error"},{"inputs":[],"name":"MineralRegistry__InvalidMineralPurityPercentage","type":"error"},{"inputs":[],"name":"MineralRegistry__InvalidMineralStatus","type":"error"},{"inputs":[],"name":"MineralRegistry__InvalidMineralStorageConditions","type":"error"},{"inputs":[],"name":"MineralRegistry__InvalidMineralType","type":"error"},{"inputs":[],"name":"MineralRegistry__InvalidMineralWeight","type":"error"},{"inputs":[],"name":"MineralRegistry__InvalidReceivingPartyAddress","type":"error"},{"inputs":[],"name":"MineralRegistry__MineralAlreadyAudited","type":"error"},{"inputs":[],"name":"MineralRegistry__MineralAlreadyInspected","type":"error"},{"inputs":[],"name":"MineralRegistry__MineralAlreadyPurchased","type":"error"},{"inputs":[],"name":"MineralRegistry__MineralNotAudited","type":"error"},{"inputs":[],"name":"MineralRegistry__MineralNotInspected","type":"error"},{"inputs":[{"internalType":"string","name":"mineralId","type":"string"}],"name":"MineralRegistry__MineralNotRegistered","type":"error"},{"inputs":[],"name":"MineralWarehouse__ETHTransferFailed","type":"error"},{"inputs":[],"name":"MineralWarehouse__IncorrectETHAmount","type":"error"},{"inputs":[],"name":"MineralWarehouse__InvalidMineralPrice","type":"error"},{"inputs":[],"name":"MineralWarehouse__InvalidNumberOfPrices","type":"error"},{"inputs":[{"internalType":"address","name":"tokenAddress","type":"address"}],"name":"MineralWarehouse__InvalidTokenAddress","type":"error"},{"inputs":[],"name":"MineralWarehouse__InvalidTokenPrice","type":"error"},{"inputs":[{"internalType":"string","name":"mineralId","type":"string"}],"name":"MineralWarehouse__MineralAlreadySold","type":"error"},{"inputs":[{"internalType":"string","name":"mineralId","type":"string"}],"name":"MineralWarehouse__MineralNotFoundInWarehouse","type":"error"},{"inputs":[{"internalType":"string","name":"mineralId","type":"string"}],"name":"MineralWarehouse__MineralNotMarketReady","type":"error"},{"inputs":[{"internalType":"string","name":"mineralId","type":"string"}],"name":"MineralWarehouse__MineralNotRefined","type":"error"},{"inputs":[{"internalType":"address","name":"tokenAddress","type":"address"}],"name":"MineralWarehouse__UnacceptedToken","type":"error"},{"inputs":[{"internalType":"address[]","name":"tokenAddresses","type":"address[]"}],"name":"MineralWarehouse__UnacceptedTokens","type":"error"},{"inputs":[{"internalType":"address","name":"seller","type":"address"}],"name":"MineralWarehouse__UnauthorizedSeller","type":"error"},{"inputs":[{"internalType":"string","name":"mineralId","type":"string"},{"internalType":"address","name":"caller","type":"address"}],"name":"NotAssignedTransporter","type":"error"},{"inputs":[],"name":"RolesManager__AccountAlreadyHasRole","type":"error"},{"inputs":[],"name":"RolesManager__AccountDoesNotHaveRole","type":"error"},{"inputs":[],"name":"RolesManager__InvalidAddress","type":"error"},{"inputs":[],"name":"RolesManager__InvalidMineralDestination","type":"error"},{"inputs":[],"name":"RolesManager__InvalidMineralIdOrNotFound","type":"error"},{"inputs":[],"name":"RolesManager__InvalidMineralName","type":"error"},{"inputs":[],"name":"RolesManager__InvalidMineralOrigin","type":"error"},{"inputs":[],"name":"RolesManager__InvalidMineralPurityPercentage","type":"error"},{"inputs":[],"name":"RolesManager__InvalidMineralStorageConditions","type":"error"},{"inputs":[],"name":"RolesManager__InvalidMineralType","type":"error"},{"inputs":[],"name":"RolesManager__InvalidMineralWeight","type":"error"},{"inputs":[],"name":"RolesManager__InvalidReceivingPartyAddress","type":"error"},{"inputs":[],"name":"RolesManager__InvalidRole","type":"error"},{"inputs":[{"internalType":"string","name":"mineralId","type":"string"}],"name":"RolesManager__MineralAlreadyAudited","type":"error"},{"inputs":[{"internalType":"string","name":"mineralId","type":"string"}],"name":"RolesManager__MineralAlreadyInspected","type":"error"},{"inputs":[{"internalType":"string","name":"mineralId","type":"string"}],"name":"RolesManager__MineralAlreadyPurchased","type":"error"},{"inputs":[{"internalType":"string","name":"mineralId","type":"string"}],"name":"RolesManager__MineralAlreadyRefined","type":"error"},{"inputs":[{"internalType":"string","name":"mineralId","type":"string"}],"name":"RolesManager__MineralNotMarketReady","type":"error"},{"inputs":[{"internalType":"uint256","name":"purityPercentage","type":"uint256"}],"name":"RolesManager__MineralPurityPercentageTooLowToRegister","type":"error"},{"inputs":[{"internalType":"address","name":"caller","type":"address"}],"name":"RolesManager__NotTheAssignedBuyer","type":"error"},{"inputs":[{"internalType":"string","name":"mineralId","type":"string"}],"name":"SupplychainValidator__InvalidMineralIdOrNotFound","type":"error"},{"inputs":[],"name":"SupplychainValidator__InvalidMineralOwnershipChain","type":"error"},{"inputs":[],"name":"SupplychainValidator__InvalidMineralTransactionHistory","type":"error"},{"inputs":[{"internalType":"uint256","name":"tokenId","type":"uint256"},{"internalType":"address","name":"caller","type":"address"}],"name":"Tokenization__CallerNotMineralTokenOwner","type":"error"},{"inputs":[{"internalType":"uint256","name":"tokenId","type":"uint256"}],"name":"Tokenization__InvalidTokenId","type":"error"},{"inputs":[{"internalType":"uint256","name":"tokenId","type":"uint256"}],"name":"Tokenization__InvalidTokenIdOrNotFound","type":"error"},{"inputs":[{"internalType":"uint256","name":"tokenId","type":"uint256"}],"name":"Tokenization__TokenAlreadyExists","type":"error"},{"inputs":[{"internalType":"uint256","name":"tokenId","type":"uint256"}],"name":"Tokenization__TokenIsAlreadyMinted","type":"error"},{"inputs":[{"internalType":"uint256","name":"index","type":"uint256"}],"name":"TransactionLog__InvalidOperationIndex","type":"error"},{"inputs":[],"name":"TransactionLog__InvalidOperationType","type":"error"},{"inputs":[{"internalType":"uint256","name":"transactionId","type":"uint256"}],"name":"TransactionLog__InvalidTransactionIdOrNotFound","type":"error"},{"inputs":[{"internalType":"string","name":"mineralId","type":"string"}],"name":"TransportRequestAlreadyExists","type":"error"},{"anonymous":false,"inputs":[{"indexed":true,"internalType":"address","name":"assignee","type":"address"},{"indexed":false,"internalType":"uint256","name":"timestamp","type":"uint256"}],"name":"AdminRoleAssigned","type":"event"},{"anonymous":false,"inputs":[{"indexed":true,"internalType":"address","name":"revokee","type":"address"},{"indexed":false,"internalType":"string","name":"reason","type":"string"},{"indexed":false,"internalType":"uint256","name":"timestamp","type":"uint256"}],"name":"AdminRoleRevoked","type":"event"},{"anonymous":false,"inputs":[{"indexed":true,"internalType":"address","name":"assignee","type":"address"},{"indexed":false,"internalType":"uint256","name":"timestamp","type":"uint256"}],"name":"AuditorRoleAssigned","type":"event"},{"anonymous":false,"inputs":[{"indexed":true,"internalType":"address","name":"revokee","type":"address"},{"indexed":false,"internalType":"string","name":"reason","type":"string"},{"indexed":false,"internalType":"uint256","name":"timestamp","type":"uint256"}],"name":"AuditorRoleRevoked","type":"event"},{"anonymous":false,"inputs":[{"indexed":true,"internalType":"address","name":"assignee","type":"address"},{"indexed":false,"internalType":"uint256","name":"timestamp","type":"uint256"}],"name":"BuyerRoleAssigned","type":"event"},{"anonymous":false,"inputs":[{"indexed":true,"internalType":"address","name":"revokee","type":"address"},{"indexed":false,"internalType":"string","name":"reason","type":"string"},{"indexed":false,"internalType":"uint256","name":"timestamp","type":"uint256"}],"name":"BuyerRoleRevoked","type":"event"},{"anonymous":false,"inputs":[{"indexed":true,"internalType":"address","name":"assignee","type":"address"},{"indexed":false,"internalType":"uint256","name":"timestamp","type":"uint256"}],"name":"InspectorRoleAssigned","type":"event"},{"anonymous":false,"inputs":[{"indexed":true,"internalType":"address","name":"revokee","type":"address"},{"indexed":false,"internalType":"string","name":"reason","type":"string"},{"indexed":false,"internalType":"uint256","name":"timestamp","type":"uint256"}],"name":"InspectorRoleRevoked","type":"event"},{"anonymous":false,"inputs":[{"indexed":true,"internalType":"address","name":"assignee","type":"address"},{"indexed":false,"internalType":"uint256","name":"timestamp","type":"uint256"}],"name":"MinerRoleAssigned","type":"event"},{"anonymous":false,"inputs":[{"indexed":true,"internalType":"address","name":"revokee","type":"address"},{"indexed":false,"internalType":"string","name":"reason","type":"string"},{"indexed":false,"internalType":"uint256","name":"timestamp","type":"uint256"}],"name":"MinerRoleRevoked","type":"event"},{"anonymous":false,"inputs":[{"indexed":false,"internalType":"string","name":"mineralId","type":"string"},{"indexed":false,"internalType":"string","name":"status","type":"string"},{"indexed":true,"internalType":"address","name":"auditor","type":"address"},{"indexed":false,"internalType":"uint256","name":"auditedAt","type":"uint256"}],"name":"MineralAudited","type":"event"},{"anonymous":false,"inputs":[{"indexed":false,"internalType":"string","name":"mineralId","type":"string"},{"indexed":false,"internalType":"string","name":"mineralStatus","type":"string"},{"indexed":true,"internalType":"address","name":"inspector","type":"address"},{"indexed":false,"internalType":"uint256","name":"inspectedAt","type":"uint256"}],"name":"MineralInspected","type":"event"},{"anonymous":false,"inputs":[{"indexed":false,"internalType":"string","name":"mineralId","type":"string"},{"indexed":false,"internalType":"string","name":"previousLocation","type":"string"},{"indexed":false,"internalType":"string","name":"newLocation","type":"string"},{"indexed":true,"internalType":"address","name":"tranporter","type":"address"}],"name":"MineralLocationUpdated","type":"event"},{"anonymous":false,"inputs":[{"indexed":false,"internalType":"string","name":"mineralId","type":"string"},{"indexed":true,"internalType":"address","name":"buyer","type":"address"},{"indexed":false,"internalType":"uint256","name":"purchasedAt","type":"uint256"}],"name":"MineralPurchased","type":"event"},{"anonymous":false,"inputs":[{"indexed":false,"internalType":"string","name":"mineralId","type":"string"},{"indexed":true,"internalType":"address","name":"ApprovedBy","type":"address"},{"indexed":false,"internalType":"string","name":"status","type":"string"},{"indexed":false,"internalType":"uint256","name":"inspectionDate","type":"uint256"}],"name":"MineralReadyToTrade","type":"event"},{"anonymous":false,"inputs":[{"indexed":false,"internalType":"string","name":"mineralId","type":"string"},{"indexed":false,"internalType":"string","name":"refineryReport","type":"string"},{"indexed":true,"internalType":"address","name":"refiner","type":"address"},{"indexed":false,"internalType":"uint256","name":"refinedAt","type":"uint256"}],"name":"MineralRefined","type":"event"},{"anonymous":false,"inputs":[{"indexed":false,"internalType":"string","name":"mineralId","type":"string"},{"indexed":false,"internalType":"string","name":"mineralName","type":"string"},{"indexed":false,"internalType":"string","name":"mineralType","type":"string"},{"indexed":false,"internalType":"string","name":"origin","type":"string"},{"indexed":false,"internalType":"uint256","name":"weight","type":"uint256"},{"indexed":false,"internalType":"uint256","name":"purityPercentage","type":"uint256"},{"indexed":true,"internalType":"address","name":"miner","type":"address"},{"indexed":false,"internalType":"uint256","name":"registeredAt","type":"uint256"}],"name":"MineralRegistered","type":"event"},{"anonymous":false,"inputs":[{"indexed":false,"internalType":"string","name":"mineralId","type":"string"},{"indexed":true,"internalType":"address","name":"transporter","type":"address"},{"indexed":false,"internalType":"address","name":"receivingParty","type":"address"},{"indexed":false,"internalType":"string","name":"origin","type":"string"},{"indexed":false,"internalType":"string","name":"destination","type":"string"},{"indexed":false,"internalType":"uint256","name":"transportedAt","type":"uint256"}],"name":"MineralTransported","type":"event"},{"anonymous":false,"inputs":[{"indexed":false,"internalType":"string","name":"mineralId","type":"string"},{"indexed":false,"internalType":"string","name":"updatedField","type":"string"},{"indexed":false,"internalType":"string","name":"newValue","type":"string"},{"indexed":true,"internalType":"address","name":"updatedBy","type":"address"},{"indexed":false,"internalType":"uint256","name":"updatedAt","type":"uint256"}],"name":"MineralUpdated","type":"event"},{"anonymous":false,"inputs":[{"indexed":true,"internalType":"address","name":"assignee","type":"address"},{"indexed":false,"internalType":"uint256","name":"timestamp","type":"uint256"}],"name":"RefinerRoleAssigned","type":"event"},{"anonymous":false,"inputs":[{"indexed":true,"internalType":"address","name":"revokee","type":"address"},{"indexed":false,"internalType":"string","name":"reason","type":"string"},{"indexed":false,"internalType":"uint256","name":"timestamp","type":"uint256"}],"name":"RefinerRoleRevoked","type":"event"},{"anonymous":false,"inputs":[{"indexed":true,"internalType":"bytes32","name":"role","type":"bytes32"},{"indexed":true,"internalType":"bytes32","name":"previousAdminRole","type":"bytes32"},{"indexed":true,"internalType":"bytes32","name":"newAdminRole","type":"bytes32"}],"name":"RoleAdminChanged","type":"event"},{"anonymous":false,"inputs":[{"indexed":true,"internalType":"address","name":"account","type":"address"},{"indexed":true,"internalType":"bytes32","name":"role","type":"bytes32"},{"indexed":false,"internalType":"uint256","name":"roleAssignedAt","type":"uint256"}],"name":"RoleAssigned","type":"event"},{"anonymous":false,"inputs":[{"indexed":true,"internalType":"bytes32","name":"role","type":"bytes32"},{"indexed":true,"internalType":"address","name":"account","type":"address"},{"indexed":true,"internalType":"address","name":"sender","type":"address"}],"name":"RoleGranted","type":"event"},{"anonymous":false,"inputs":[{"indexed":true,"internalType":"bytes32","name":"role","type":"bytes32"},{"indexed":true,"internalType":"address","name":"account","type":"address"},{"indexed":true,"internalType":"address","name":"sender","type":"address"}],"name":"RoleRevoked","type":"event"},{"anonymous":false,"inputs":[{"indexed":false,"internalType":"bytes32","name":"role","type":"bytes32"},{"indexed":false,"internalType":"address","name":"account","type":"address"},{"indexed":false,"internalType":"address","name":"revoker","type":"address"},{"indexed":false,"internalType":"uint256","name":"roleRevokedAt","type":"uint256"}],"name":"RoleRevoked","type":"event"},{"anonymous":false,"inputs":[{"indexed":true,"internalType":"address","name":"assignee","type":"address"},{"indexed":false,"internalType":"uint256","name":"timestamp","type":"uint256"}],"name":"TransporterRoleAssigned","type":"event"},{"anonymous":false,"inputs":[{"indexed":true,"internalType":"address","name":"revokee","type":"address"},{"indexed":false,"internalType":"string","name":"reason","type":"string"},{"indexed":false,"internalType":"uint256","name":"timestamp","type":"uint256"}],"name":"TransporterRoleRevoked","type":"event"},{"inputs":[],"name":"AUDITOR_ROLE","outputs":[{"internalType":"bytes32","name":"","type":"bytes32"}],"stateMutability":"view","type":"function"},{"inputs":[],"name":"BUYER_ROLE","outputs":[{"internalType":"bytes32","name":"","type":"bytes32"}],"stateMutability":"view","type":"function"},{"inputs":[],"name":"DEFAULT_ADMIN_ROLE","outputs":[{"internalType":"bytes32","name":"","type":"bytes32"}],"stateMutability":"view","type":"function"},{"inputs":[],"name":"INSPECTOR_ROLE","outputs":[{"internalType":"bytes32","name":"","type":"bytes32"}],"stateMutability":"view","type":"function"},{"inputs":[],"name":"MINER_ROLE","outputs":[{"internalType":"bytes32","name":"","type":"bytes32"}],"stateMutability":"view","type":"function"},{"inputs":[],"name":"REFINER_ROLE","outputs":[{"internalType":"bytes32","name":"","type":"bytes32"}],"stateMutability":"view","type":"function"},{"inputs":[],"name":"TRANSPORTER_ROLE","outputs":[{"internalType":"bytes32","name":"","type":"bytes32"}],"stateMutability":"view","type":"function"},{"inputs":[{"internalType":"string","name":"mineralId","type":"string"},{"internalType":"string","name":"report","type":"string"}],"name":"_auditMineral","outputs":[],"stateMutability":"nonpayable","type":"function"},{"inputs":[{"internalType":"string","name":"mineralId","type":"string"}],"name":"_checkAuditAndInspectionStatus","outputs":[{"internalType":"bool","name":"isAudited","type":"bool"},{"internalType":"bool","name":"isInspected","type":"bool"}],"stateMutability":"nonpayable","type":"function"},{"inputs":[{"internalType":"string","name":"mineralId","type":"string"}],"name":"_getMineralHistory","outputs":[{"components":[{"internalType":"string","name":"id","type":"string"},{"internalType":"string","name":"fieldChanged","type":"string"},{"internalType":"string","name":"newValue","type":"string"},{"internalType":"address","name":"updatedBy","type":"address"},{"internalType":"uint256","name":"timestamp","type":"uint256"}],"internalType":"struct RolesManager.MineralHistory[]","name":"","type":"tuple[]"}],"stateMutability":"view","type":"function"},{"inputs":[{"internalType":"address","name":"account","type":"address"}],"name":"assignAuditor","outputs":[],"stateMutability":"nonpayable","type":"function"},{"inputs":[{"internalType":"address","name":"account","type":"address"}],"name":"assignBuyer","outputs":[],"stateMutability":"nonpayable","type":"function"},{"inputs":[{"internalType":"address","name":"account","type":"address"}],"name":"assignInspector","outputs":[],"stateMutability":"nonpayable","type":"function"},{"inputs":[{"internalType":"address","name":"account","type":"address"}],"name":"assignMiner","outputs":[],"stateMutability":"nonpayable","type":"function"},{"inputs":[{"internalType":"address","name":"account","type":"address"}],"name":"assignRefiner","outputs":[],"stateMutability":"nonpayable","type":"function"},{"inputs":[{"internalType":"address","name":"account","type":"address"}],"name":"assignTransporter","outputs":[],"stateMutability":"nonpayable","type":"function"},{"inputs":[{"internalType":"string","name":"mineralId","type":"string"}],"name":"checkAuditAndInspectionStatus","outputs":[{"internalType":"bool","name":"isAudited","type":"bool"},{"internalType":"bool","name":"isInspected","type":"bool"}],"stateMutability":"nonpayable","type":"function"},{"inputs":[],"name":"getAllRoleCounts","outputs":[{"internalType":"uint256","name":"minerCount","type":"uint256"},{"internalType":"uint256","name":"refinerCount","type":"uint256"},{"internalType":"uint256","name":"transporterCount","type":"uint256"},{"internalType":"uint256","name":"auditorCount","type":"uint256"},{"internalType":"uint256","name":"inspectorCount","type":"uint256"},{"internalType":"uint256","name":"buyerCount","type":"uint256"}],"stateMutability":"view","type":"function"},{"inputs":[{"internalType":"string","name":"mineralId","type":"string"}],"name":"getMineralDetails","outputs":[{"components":[{"internalType":"string","name":"id","type":"string"},{"internalType":"string","name":"name","type":"string"},{"internalType":"string","name":"origin","type":"string"},{"internalType":"string","name":"mineralType","type":"string"},{"internalType":"uint256","name":"weight","type":"uint256"},{"internalType":"uint256","name":"purityPercentage","type":"uint256"},{"internalType":"string","name":"storageConditions","type":"string"},{"internalType":"address","name":"registeredBy","type":"address"},{"internalType":"string","name":"currentStatus","type":"string"},{"internalType":"string","name":"currentLocation","type":"string"},{"internalType":"address","name":"currentHandler","type":"address"},{"internalType":"bool","name":"isPurchased","type":"bool"},{"internalType":"bool","name":"isRefined","type":"bool"},{"internalType":"bool","name":"isAudited","type":"bool"},{"internalType":"bool","name":"isInspected","type":"bool"},{"internalType":"uint256","name":"timestamp","type":"uint256"}],"internalType":"struct RolesManager.MineralDetails","name":"","type":"tuple"}],"stateMutability":"view","type":"function"},{"inputs":[{"internalType":"string","name":"mineralId","type":"string"}],"name":"getMineralHistory","outputs":[{"components":[{"internalType":"string","name":"id","type":"string"},{"internalType":"string","name":"fieldChanged","type":"string"},{"internalType":"string","name":"newValue","type":"string"},{"internalType":"address","name":"updatedBy","type":"address"},{"internalType":"uint256","name":"timestamp","type":"uint256"}],"internalType":"struct RolesManager.MineralHistory[]","name":"","type":"tuple[]"}],"stateMutability":"view","type":"function"},{"inputs":[{"internalType":"bytes32","name":"role","type":"bytes32"}],"name":"getRoleAdmin","outputs":[{"internalType":"bytes32","name":"","type":"bytes32"}],"stateMutability":"view","type":"function"},{"inputs":[{"internalType":"bytes32","name":"role","type":"bytes32"}],"name":"getRoleMemberCount","outputs":[{"internalType":"uint256","name":"count","type":"uint256"}],"stateMutability":"view","type":"function"},{"inputs":[{"internalType":"address","name":"account","type":"address"}],"name":"getRolesForAddress","outputs":[{"internalType":"string[]","name":"roles","type":"string[]"}],"stateMutability":"view","type":"function"},{"inputs":[{"internalType":"bytes32","name":"role","type":"bytes32"},{"internalType":"address","name":"account","type":"address"}],"name":"grantRole","outputs":[],"stateMutability":"nonpayable","type":"function"},{"inputs":[{"internalType":"address","name":"account","type":"address"}],"name":"hasAdminRole","outputs":[{"internalType":"bool","name":"","type":"bool"}],"stateMutability":"view","type":"function"},{"inputs":[{"internalType":"address","name":"account","type":"address"}],"name":"hasAuditorRole","outputs":[{"internalType":"bool","name":"","type":"bool"}],"stateMutability":"view","type":"function"},{"inputs":[{"internalType":"address","name":"account","type":"address"}],"name":"hasBuyerRole","outputs":[{"internalType":"bool","name":"","type":"bool"}],"stateMutability":"view","type":"function"},{"inputs":[{"internalType":"address","name":"account","type":"address"}],"name":"hasInspectorRole","outputs":[{"internalType":"bool","name":"","type":"bool"}],"stateMutability":"view","type":"function"},{"inputs":[{"internalType":"address","name":"account","type":"address"}],"name":"hasMinerRole","outputs":[{"internalType":"bool","name":"","type":"bool"}],"stateMutability":"view","type":"function"},{"inputs":[{"internalType":"address","name":"account","type":"address"}],"name":"hasRefinerRole","outputs":[{"internalType":"bool","name":"","type":"bool"}],"stateMutability":"view","type":"function"},{"inputs":[{"internalType":"bytes32","name":"role","type":"bytes32"},{"internalType":"address","name":"account","type":"address"}],"name":"hasRole","outputs":[{"internalType":"bool","name":"","type":"bool"}],"stateMutability":"view","type":"function"},{"inputs":[{"internalType":"address","name":"account","type":"address"}],"name":"hasTransporterRole","outputs":[{"internalType":"bool","name":"","type":"bool"}],"stateMutability":"view","type":"function"},{"inputs":[{"internalType":"string","name":"mineralId","type":"string"},{"internalType":"string","name":"report","type":"string"}],"name":"inspectMineral","outputs":[],"stateMutability":"nonpayable","type":"function"},{"inputs":[{"internalType":"string","name":"mineralId","type":"string"}],"name":"isMineralAudited","outputs":[{"internalType":"bool","name":"","type":"bool"}],"stateMutability":"view","type":"function"},{"inputs":[{"internalType":"string","name":"mineralId","type":"string"}],"name":"isMineralInspected","outputs":[{"internalType":"bool","name":"","type":"bool"}],"stateMutability":"view","type":"function"},{"inputs":[{"internalType":"string","name":"mineralId","type":"string"}],"name":"isMineralRegistered","outputs":[{"internalType":"bool","name":"","type":"bool"}],"stateMutability":"nonpayable","type":"function"},{"inputs":[{"internalType":"string","name":"","type":"string"}],"name":"mineralDetails","outputs":[{"internalType":"string","name":"id","type":"string"},{"internalType":"string","name":"name","type":"string"},{"internalType":"string","name":"origin","type":"string"},{"internalType":"string","name":"mineralType","type":"string"},{"internalType":"uint256","name":"weight","type":"uint256"},{"internalType":"uint256","name":"purityPercentage","type":"uint256"},{"internalType":"string","name":"storageConditions","type":"string"},{"internalType":"address","name":"registeredBy","type":"address"},{"internalType":"string","name":"currentStatus","type":"string"},{"internalType":"string","name":"currentLocation","type":"string"},{"internalType":"address","name":"currentHandler","type":"address"},{"internalType":"bool","name":"isPurchased","type":"bool"},{"internalType":"bool","name":"isRefined","type":"bool"},{"internalType":"bool","name":"isAudited","type":"bool"},{"internalType":"bool","name":"isInspected","type":"bool"},{"internalType":"uint256","name":"timestamp","type":"uint256"}],"stateMutability":"view","type":"function"},{"inputs":[{"internalType":"string","name":"","type":"string"},{"internalType":"uint256","name":"","type":"uint256"}],"name":"mineralHistories","outputs":[{"internalType":"string","name":"id","type":"string"},{"internalType":"string","name":"fieldChanged","type":"string"},{"internalType":"string","name":"newValue","type":"string"},{"internalType":"address","name":"updatedBy","type":"address"},{"internalType":"uint256","name":"timestamp","type":"uint256"}],"stateMutability":"view","type":"function"},{"inputs":[{"internalType":"string","name":"mineralId","type":"string"}],"name":"purchaseMineral","outputs":[],"stateMutability":"nonpayable","type":"function"},{"inputs":[{"internalType":"string","name":"mineralId","type":"string"},{"internalType":"string","name":"report","type":"string"}],"name":"refineMineral","outputs":[],"stateMutability":"nonpayable","type":"function"},{"inputs":[{"internalType":"string","name":"_name","type":"string"},{"internalType":"string","name":"_mineralType","type":"string"},{"internalType":"uint256","name":"_weight","type":"uint256"},{"internalType":"string","name":"_origin","type":"string"},{"internalType":"uint256","name":"_purityPercentage","type":"uint256"},{"internalType":"string","name":"_storageConditions","type":"string"}],"name":"registerMineral","outputs":[{"internalType":"string","name":"","type":"string"}],"stateMutability":"nonpayable","type":"function"},{"inputs":[{"internalType":"bytes32","name":"role","type":"bytes32"},{"internalType":"address","name":"callerConfirmation","type":"address"}],"name":"renounceRole","outputs":[],"stateMutability":"nonpayable","type":"function"},{"inputs":[{"internalType":"address","name":"account","type":"address"},{"internalType":"string","name":"reason","type":"string"}],"name":"revokeAuditor","outputs":[],"stateMutability":"nonpayable","type":"function"},{"inputs":[{"internalType":"address","name":"account","type":"address"},{"internalType":"string","name":"reason","type":"string"}],"name":"revokeBuyer","outputs":[],"stateMutability":"nonpayable","type":"function"},{"inputs":[{"internalType":"address","name":"account","type":"address"},{"internalType":"string","name":"reason","type":"string"}],"name":"revokeInspector","outputs":[],"stateMutability":"nonpayable","type":"function"},{"inputs":[{"internalType":"address","name":"account","type":"address"},{"internalType":"string","name":"reason","type":"string"}],"name":"revokeMiner","outputs":[],"stateMutability":"nonpayable","type":"function"},{"inputs":[{"internalType":"address","name":"account","type":"address"},{"internalType":"string","name":"reason","type":"string"}],"name":"revokeRefiner","outputs":[],"stateMutability":"nonpayable","type":"function"},{"inputs":[{"internalType":"bytes32","name":"role","type":"bytes32"},{"internalType":"address","name":"account","type":"address"}],"name":"revokeRole","outputs":[],"stateMutability":"nonpayable","type":"function"},{"inputs":[{"internalType":"address","name":"account","type":"address"},{"internalType":"string","name":"reason","type":"string"}],"name":"revokeTransporter","outputs":[],"stateMutability":"nonpayable","type":"function"},{"inputs":[{"internalType":"bytes32","name":"","type":"bytes32"}],"name":"roleMemberCount","outputs":[{"internalType":"uint256","name":"","type":"uint256"}],"stateMutability":"view","type":"function"},{"inputs":[{"internalType":"bytes4","name":"interfaceId","type":"bytes4"}],"name":"supportsInterface","outputs":[{"internalType":"bool","name":"","type":"bool"}],"stateMutability":"view","type":"function"},{"inputs":[{"internalType":"string","name":"mineralId","type":"string"},{"internalType":"address","name":"_receivingParty","type":"address"},{"internalType":"string","name":"_origin","type":"string"},{"internalType":"string","name":"_destination","type":"string"}],"name":"transferMineral","outputs":[],"stateMutability":"nonpayable","type":"function"},{"inputs":[{"internalType":"string","name":"mineralId","type":"string"},{"internalType":"string","name":"newLocation","type":"string"}],"name":"updateMineralLocation","outputs":[],"stateMutability":"nonpayable","type":"function"},{"inputs":[{"internalType":"string","name":"mineralId","type":"string"},{"internalType":"string","name":"newStatus","type":"string"}],"name":"updateMineralStatus","outputs":[],"stateMutability":"nonpayable","type":"function"}],"devdoc":{"errors":{"AccessControlBadConfirmation()":[{"details":"The caller of a function is not the expected one. NOTE: Don't confuse with {AccessControlUnauthorizedAccount}."}],"AccessControlUnauthorizedAccount(address,bytes32)":[{"details":"The `account` is missing a role."}]},"events":{"RoleAdminChanged(bytes32,bytes32,bytes32)":{"details":"Emitted when `newAdminRole` is set as ``role``'s admin role, replacing `previousAdminRole` `DEFAULT_ADMIN_ROLE` is the starting admin for all roles, despite {RoleAdminChanged} not being emitted signaling this."},"RoleGranted(bytes32,address,address)":{"details":"Emitted when `account` is granted `role`. `sender` is the account that originated the contract call, an admin role bearer except when using {AccessControl-_setupRole}."},"RoleRevoked(bytes32,address,address)":{"details":"Emitted when `account` is revoked `role`. `sender` is the account that originated the contract call:   - if using `revokeRole`, it is the admin role bearer   - if using `renounceRole`, it is the role bearer (i.e. `account`)"}},"kind":"dev","methods":{"_auditMineral(string,string)":{"details":"only the auditor can audit mineralDetails.Logs audit report on every successful audit.","params":{"mineralId":"The ID of the mineral under audition.","report":"The audit status report of the mineral under audition."}},"_checkAuditAndInspectionStatus(string)":{"details":"checks audit and inspection status Returns the status of both audit and inspection of mineral according to mineralId"},"_getMineralHistory(string)":{"details":"retrieves fll history of a mineral (for audit retail)","returns":{"_0":"history of specified mineral sing its mineralId"}},"checkAuditAndInspectionStatus(string)":{"details":"checks audit and inspection status","params":{"mineralId":"The ID of the mineral to check for audit and inspection status Returns (isValid, isInspected) statuses of both audit and inspection of mineral according to mineralId"}},"constructor":{"details":"connects RolesManager contract"},"getAllRoleCounts()":{"details":"Returns all role counts in a single call","returns":{"auditorCount":"Number of auditors","buyerCount":"Number of buyers","inspectorCount":"Number of inspectors","minerCount":"Number of miners","refinerCount":"Number of refiners","transporterCount":"Number of transporters"}},"getMineralDetails(string)":{"details":"retrieves mineral details of specified mineralId","returns":{"_0":"mineral details of specified mineralId"}},"getRoleAdmin(bytes32)":{"details":"Returns the admin role that controls `role`. See {grantRole} and {revokeRole}. To change a role's admin, use {_setRoleAdmin}."},"getRoleMemberCount(bytes32)":{"details":"Returns the number of accounts that have a specific role","params":{"role":"The role to query member count for"},"returns":{"count":"The number of accounts with the role"}},"getRolesForAddress(address)":{"details":"Returns all roles assigned to a given address","params":{"account":"The address to check roles for"},"returns":{"roles":"An array of role names the address has"}},"grantRole(bytes32,address)":{"details":"Grants `role` to `account`. If `account` had not been already granted `role`, emits a {RoleGranted} event. Requirements: - the caller must have ``role``'s admin role. May emit a {RoleGranted} event."},"hasMinerRole(address)":{"details":"Roles helper functionschecks if an account has a specific role","params":{"account":"The address of the account to checked with role association"}},"hasRole(bytes32,address)":{"details":"Returns `true` if `account` has been granted `role`."},"inspectMineral(string,string)":{"details":"only the inspector can inspect mineralDetailsLogs audit report on every successful inspection","params":{"mineralId":"The ID of the mineral under inspection","report":"The inspection status report of the mineral under inspection"}},"isMineralAudited(string)":{"details":"checks if a mineral with the given ID is registered","params":{"mineralId":"the ID of the mineral to check"},"returns":{"_0":"A boolean indicating whether the mineral is registered or not"}},"isMineralRegistered(string)":{"details":"checks if a mineral with the given ID is registered","params":{"mineralId":"the ID of the mineral to check"},"returns":{"_0":"A boolean indicating whether the mineral is registered or not"}},"purchaseMineral(string)":{"details":"Only the buyer can purchase mineralDetails","params":{"mineralId":"The ID of the mineral under purchase"}},"refineMineral(string,string)":{"details":"only the refiner can refiner a mineral","params":{"mineralId":"The ID of the mineral under refinery"}},"registerMineral(string,string,uint256,string,uint256,string)":{"details":"Register a new mineral - only by miner.Every mineral is assigned a unique mineralId.","params":{"_mineralType":"The type of a mineral.","_name":"Mineral name.","_origin":"Mineral Origin.","_purityPercentage":"Mineral purity in percentage.","_storageConditions":"Mineral Storage conditions.","_weight":"Mineral weight in uint256."}},"renounceRole(bytes32,address)":{"details":"Revokes `role` from the calling account. Roles are often managed via {grantRole} and {revokeRole}: this function's purpose is to provide a mechanism for accounts to lose their privileges if they are compromised (such as when a trusted device is misplaced). If the calling account had been revoked `role`, emits a {RoleRevoked} event. Requirements: - the caller must be `callerConfirmation`. May emit a {RoleRevoked} event."},"revokeRole(bytes32,address)":{"details":"Revokes `role` from `account`. If `account` had been granted `role`, emits a {RoleRevoked} event. Requirements: - the caller must have ``role``'s admin role. May emit a {RoleRevoked} event."},"supportsInterface(bytes4)":{"details":"See {IERC165-supportsInterface}."},"transferMineral(string,address,string,string)":{"details":"only the transporter can transport mineralDetails","params":{"_destination":"The Destination area of the mineral(string)","_origin":"The Original location of the mineral under transportation","_receivingParty":"The address of the destination portal","mineralId":"The ID of the mineral under transportation"}},"updateMineralLocation(string,string)":{"details":"updates the location of the mineral","params":{"mineralId":"the ID of the mineral to update","newLocation":"The new location of the mineral"}},"updateMineralStatus(string,string)":{"details":"Updates mineral details - only by authorized roles","params":{"mineralId":"The ID of the mineral under update","newStatus":"New status of the mineral"}}},"version":1},"evm":{"bytecode":{"linkReferences":{},"object":"608034620003b757601f62005c6538819003918201601f1916830192916001600160401b03841183851017620003bc5780839260409586528339602092839181010312620003b757516001600160a01b0381169190829003620003b757434201804211620003a15760019081556200007733620003d2565b5060008080526004808452858220805460001991908281146200037b5785019055828052818552838784205586514281527f458ea7e03b3466b3cf9bc2d66ddea8b11fe9469982816f42666888e6c8c6e664863392a2620000d83362000452565b507fa952726ef2588ad078edf35b066f7c7406e207cb0003bbaba8cb53eba9553e7280845282865287842080548381146200038e57860190558352818552838784205586514281527f593f046317558c2857b92915c62c99f2d2108f7bc6f1e1b3c5376cd559abf559863392a26200015033620004f4565b507f59a1c48e5837ad7a7f3dcedcbe129bf3249ec4fbf651fd4f5e2600ead39fe2f580845282865287842080548381146200038e57860190558352818552838784205586514281527f4a02edd19f09212e54b2ac85d7d3a4a2e3fbf424e6710c3f817d9b4cecc9cdb3863392a2620001c83362000591565b5060008051602062005c0583398151915280845282865287842080548381146200038e57860190558352818552838784205586514281527f49cc27c2a068c01cf703c3923dfc679109b5f6c27bd1f61b542c159e3a73e092863392a26200022f336200061d565b5060008051602062005c2583398151915280845282865287842080548381146200038e57860190558352818552838784205586514281527ff8ed9ac482b0f7c12999b3f157f758f84e39cd339fa301ea203823ac29e97505863392a26200029633620006a9565b5060008051602062005c4583398151915280845282865287842080548381146200038e57860190558352818552838784205586514281527f4e3eede475de92d3e23765b737dbb67646352b3328c1a437d7f089766d7be751863392a2620002fd3362000735565b5060008051602062005be5833981519152908184528286528784209081549081146200037b57850190558252835284902055825142815233917f964e50cb3bdb84c00a30f56ae15d538d23dc6db14f891d7d819761b161e990a691a2600580546001600160a01b031916919091179055516154039081620007c28239f35b634e487b7160e01b855260118452602485fd5b634e487b7160e01b865260118552602486fd5b634e487b7160e01b600052601160045260246000fd5b600080fd5b634e487b7160e01b600052604160045260246000fd5b6001600160a01b031660008181527fad3228b676f7d3cd4284a5443f17f1962b36e491b30a40b2405849e597ba5fb5602052604081205490919060ff166200044e57818052816020526040822081835260205260408220600160ff19825416179055339160008051602062005bc58339815191528180a4600190565b5090565b6001600160a01b031660008181527fbb3fcc25fbffa12ea463b3505377899a4d5ddb4858b9c7bd36764686d9425b3660205260408120549091907fa952726ef2588ad078edf35b066f7c7406e207cb0003bbaba8cb53eba9553e729060ff16620004ef57808352826020526040832082845260205260408320600160ff1982541617905560008051602062005bc5833981519152339380a4600190565b505090565b6001600160a01b031660008181527f0d2d6a5d08cb5d871289c0a3ca855d9da72909a111c24cce2d5c2b34a20daa5460205260408120549091907f59a1c48e5837ad7a7f3dcedcbe129bf3249ec4fbf651fd4f5e2600ead39fe2f59060ff16620004ef57808352826020526040832082845260205260408320600160ff1982541617905560008051602062005bc5833981519152339380a4600190565b6001600160a01b031660008181527facfff8a39fb957d9d1c8e3ef9f08385e3fcf7bb23ab7ba0ad0f8df93dbde6a68602052604081205490919060008051602062005c058339815191529060ff16620004ef57808352826020526040832082845260205260408320600160ff1982541617905560008051602062005bc5833981519152339380a4600190565b6001600160a01b031660008181527ff3fa603c74bfe2a4719960e47343678c3dc690d2b27a2295acc6fc430833aaf9602052604081205490919060008051602062005c258339815191529060ff16620004ef57808352826020526040832082845260205260408320600160ff1982541617905560008051602062005bc5833981519152339380a4600190565b6001600160a01b031660008181527f4130a4caca6023b0ba21488ee680ce5c3df22860b1cd8b02cd2a0bcb0de98851602052604081205490919060008051602062005c458339815191529060ff16620004ef57808352826020526040832082845260205260408320600160ff1982541617905560008051602062005bc5833981519152339380a4600190565b6001600160a01b031660008181527fbce5fd3347e0dc338dcc0e895534dd4af2740eec95f56cd4ca4b4b2ada357ca0602052604081205490919060008051602062005be58339815191529060ff16620004ef57808352826020526040832082845260205260408320600160ff1982541617905560008051602062005bc5833981519152339380a460019056fe608080604052600436101561001357600080fd5b60003560e01c90816301ffc9a714614184575080630958fc2d146140ca5780630dacad2e14614010578063126ee33814613d09578063129b5c4514613a8d5780631c7588fc1461393e578063248a9ca31461390f5780632f2ff15d146138d0578063309514df146138555780633499c3a21461380557806335ba6207146136ff57806336568abe146136b85780633a7adea51461289c578063480d1dd3146127e25780634e2a3109146126e95780634eabbe77146126c05780635aee1b151461249d5780636377741d146123e35780636394f6e6146123ba5780636e1d616e1461239157806370e22e421461234157806375a2b0d41461218857806379451cd71461215f5780637a01a1da146121365780637ae9c160146120bb5780637cde2b9914611fc2578063826fe0f514611e625780638850845f14611e1257806391d1485414611dc5578063981642c614611d1d5780639969119414611c1f5780639b188dd614611ba4578063a217fddf14611b88578063a354aec7146117e6578063a672d98714611441578063a917601b14611387578063abaa536f14611337578063ac851dfd146112a5578063b6ba1ca714611279578063b9c5b83314611154578063beae461514611104578063c395fcb3146110a2578063ca15c87314610fb8578063cc82b09014610eec578063d547741f14610eab578063de7ce39114610e5b578063df422bf214610934578063e2e3edeb14610853578063e3a3c5221461082a578063e438fdf8146107af578063f17f3523146105ab578063f5716a85146104f3578063f6e2314b146103585763fc1032eb1461027157600080fd5b346103535761027f36614312565b610287614638565b6102908261458c565b15610341576103187f93e936184fad9f80c7000aa987f91be0cd621bacde11839fdc7139f3d9c2407b9160008051602061536e8339815191528060005260006020526102e3600160406000200154614690565b6102ec85614c35565b506000526004602052604060002080548061032f575b5050604051918291604083526040830190614460565b4260208301526001600160a01b03909416930390a2005b610338906150f7565b90553880610302565b604051632ac1560560e21b8152600490fd5b600080fd5b3461035357602080600319360112610353576004356001600160401b03811161035357610389903690600401614276565b90604051908251926103c16103c8838301956103a6818789614351565b850194848160029788815203019020604051928380926143ca565b0382614255565b82815191012081519081862014908115916104ea575b506104c3576103f560405194859251928391614351565b83019281816003958681520301902080549161041083615104565b9361041e6040519586614255565b8385526000928352818320908286015b85851061044757604051806104438982614485565b0390f35b6005846001926040516104598161421f565b60405161046a816103c1818b6143ca565b815260405161047f816103c181898c016143ca565b83820152604051610496816103c1818a8c016143ca565b6040820152848060a01b038c8801541660608201526004870154608082015281520193019401939161042e565b906104e660405192839263f855236d60e01b845260048401526024830190614460565b0390fd5b905015856103de565b346103535761050136614312565b610509614638565b610512826145b7565b15610341576103187f4614600adaea632b1e4c381ad24471dab7b587dca104c8dd4da76bc64f19716f9160008051602061538e833981519152806000526000602052610565600160406000200154614690565b61056e85614bc0565b5060005260046020526040600020805480610599575050604051918291604083526040830190614460565b6105a2906150f7565b90558480610302565b34610353576080366003190112610353576001600160401b03600435818111610353576105dc903690600401614276565b906105e56141ed565b90604435818111610353576105fe903690600401614276565b9060643590811161035357610617903690600401614276565b9060008051602061528e83398151915260005260209260008452604060002033600052845260ff6040600020541615610797576001600160a01b03168015610785578151156107735782511561076157604051600160ff600a8851938881818c019661068481838a614351565b81016002815203019020015460a01c1615151461073f5793610730939261072292600a6106df847f55b00b3c29344a545244b18d70b135e423405427088bd5425f13d690b82310b4998b604051938492839251928391614351565b8101600281520301902001336001600160601b0360a01b8254161790556107116040519860a08a5260a08a0190614460565b928801528682036040880152614460565b908482036060860152614460565b914260808201528033930390a2005b604051632072bb0160e11b815260048101869052806104e66024820189614460565b604051635dbef47560e01b8152600490fd5b6040516326813e6f60e01b8152600490fd5b60405163bea3fd2f60e01b8152600490fd5b604051630568555f60e41b8152336004820152602490fd5b34610353576107bd36614312565b6107c5614638565b6107ce8261460d565b15610341576103187f352e14c53d161e2481e65145b53265d1608f979a93a06df66d4c99b2a84ddc63916000805160206152ae833981519152806000526000602052610821600160406000200154614690565b61056e85614b4b565b346103535760003660031901126103535760206040516000805160206152ae8339815191528152f35b3461035357602080600319360112610353576004356001600160401b03811161035357610884903690600401614276565b906040516103c16108b88451928481818801956108a2818389614351565b81016002815203019020604051928380926143ca565b828151910120835190818320149081159161092b575b5061090857600a6108ee8360ff9386604051938492839251928391614351565b81016002815203019020015460b81c166040519015158152f35b506104e660405192839263f855236d60e01b845260048401526024830190614460565b905015846108ce565b3461035357602080600319360112610353576001600160a01b036109566141d7565b168015610e49576000906000805260008352604060002081600052835260ff8060406000205416610e40575b60008051602061534e83398151915291826000526000855260406000208160005285528160406000205416610e30575b60008051602061538e833981519152806000526000865260406000208260005286528260406000205416610e20575b60008051602061528e833981519152806000526000875260406000208360005287528360406000205416610e10575b60008051602061536e833981519152806000526000885260406000208460005288528460406000205416610e00575b6000805160206152ae83398151915291826000526000895260406000208560005289528560406000205416610df0575b60008051602061532e833981519152938460005260008a526040600020866000528a528660406000205416610de0575b610aa889615104565b98610ab66040519a8b614255565b808a52610ac5601f1991615104565b018a8a60005b838110610dcf57505050506000976000805260008b526040600020876000528b528760406000205416610d94575b60005260008a526040600020866000528a528660406000205416610d57575b6000526000895260406000208560005289528560406000205416610d18575b6000526000885260406000208460005288528460406000205416610cd5575b6000526000875260406000208360005287528360406000205416610c96575b6000526000865260406000208260005286528260406000205416610c55575b60005260008552604060002090600052845260406000205416610c12575b506040519082820192808352815180945260408301938160408260051b8601019301916000955b828710610be65785850386f35b909192938280610c02600193603f198a82030186528851614460565b9601920196019592919092610bd9565b610c4e90604051610c228161423a565b6005815264212aaca2a960d91b85820152610c3d8285615128565b52610c488184615128565b506150e8565b5082610bb2565b92610c9090604051610c668161423a565b600981526824a729a822a1aa27a960b91b88820152610c858288615128565b52610c488187615128565b92610b94565b93610ccf90604051610ca78161423a565b600781526620aaa224aa27a960c91b89820152610cc48289615128565b52610c488188615128565b93610b75565b94610d1290604051610ce68161423a565b600b81526a2a2920a729a827a92a22a960a91b8a820152610d07828a615128565b52610c488189615128565b94610b56565b95610d5190604051610d298161423a565b60078152662922a324a722a960c91b8b820152610d46828b615128565b52610c48818a615128565b95610b37565b96610d8e90604051610d688161423a565b600581526426a4a722a960d91b8c820152610d83828c615128565b52610c48818b615128565b96610b18565b9750604051610da28161423a565b600581526420a226a4a760d91b8b820152610dbc8a61511b565b52610dc68961511b565b50600197610af9565b606083828194010152018b90610acb565b97610dea906150e8565b97610a9f565b96610dfa906150e8565b96610a6f565b95610e0a906150e8565b95610a3f565b94610e1a906150e8565b94610a10565b93610e2a906150e8565b936109e1565b92610e3a906150e8565b926109b2565b60019250610982565b60405163200db56f60e11b8152600490fd5b3461035357602036600319011261035357610e746141d7565b6001600160a01b0316600090815260008051602061530e833981519152602090815260409182902054915160ff9092161515825290f35b3461035357604036600319011261035357610eea600435610eca6141ed565b90806000526000602052610ee5600160406000200154614690565b614caa565b005b3461035357602036600319011261035357610f056141d7565b6001600160a01b038116908115610e4957610f1e614638565b610f278161460d565b610fa657610f349061490e565b506000805160206152ae83398151915260005260046020527f9d423956391424a558206d539d4c7b96f2596f9d71b6fe92efe1f071a870ba948054610f78906150e8565b90557f49cc27c2a068c01cf703c3923dfc679109b5f6c27bd1f61b542c159e3a73e0926020604051428152a2005b6040516314726de560e21b8152600490fd5b346103535760203660031901126103535760043560008051602061534e8339815191528114801561108b575b8015611074575b801561105d575b8015611046575b801561102f575b1561101d5760005260046020526020604060002054604051908152f35b604051636b9c461160e01b8152600490fd5b5060008051602061532e8339815191528114611000565b506000805160206152ae8339815191528114610ff9565b5060008051602061536e8339815191528114610ff2565b5060008051602061528e8339815191528114610feb565b5060008051602061538e8339815191528114610fe4565b34610353576020366003190112610353576110bb6141d7565b6001600160a01b031660009081527fad3228b676f7d3cd4284a5443f17f1962b36e491b30a40b2405849e597ba5fb5602090815260409182902054915160ff9092161515825290f35b346103535760203660031901126103535761111d6141d7565b6001600160a01b0316600090815260008051602061524e833981519152602090815260409182902054915160ff9092161515825290f35b3461035357600036600319011261035357600460209081527f973ccc145476ef147b966a44694f8b2d26bac5a3d44a844fec6be696fe5fea70547f02ff85b9f193a3a7824cbaf5a79db262c0bac955152adf2752c6413d76b2d3c7547f0e08e55c6329ca2d4f38429c472032b4e97537c869a64c376bb7e702721eb8c3547fa792fa383e6bd9c6b4465bbfd8031f4b47377210fa121067c03906e9afac6246547f9d423956391424a558206d539d4c7b96f2596f9d71b6fe92efe1f071a870ba945460008051602061532e8339815191526000527f5455ba4b8a75b33fa0f1f7affd9817680912f06b7b194bcf9ac01183c4930020546040805196875296860194909452948401919091526060830152608082019290925260a081019190915260c090f35b346103535760203660031901126103535760043560005260046020526020604060002054604051908152f35b3461035357602080600319360112610353576004356001600160401b038111610353576112d6903690600401614276565b8051156104c3576040516103c16112fa8351928581818701956108a2818389614351565b838151910120908251902003611314575060405160018152f35b906104e66040519283926311bb0bc960e31b845260048401526024830190614460565b34610353576020366003190112610353576113506141d7565b6001600160a01b0316600090815260008051602061520e833981519152602090815260409182902054915160ff9092161515825290f35b34610353576020366003190112610353576113a06141d7565b6001600160a01b038116908115610e49576113b9614638565b6113c2816145e2565b610fa6576113cf90614897565b5060008051602061528e83398151915260005260046020527f0e08e55c6329ca2d4f38429c472032b4e97537c869a64c376bb7e702721eb8c38054611413906150e8565b90557f964e50cb3bdb84c00a30f56ae15d538d23dc6db14f891d7d819761b161e990a66020604051428152a2005b34610353576020366003190112610353576004356001600160401b03811161035357611471903690600401614276565b60006101e060405161148281614203565b6060815260606020820152606060408201526060808201528260808201528260a0820152606060c08201528260e082015260606101008201526060610120820152826101408201528261016082015282610180820152826101a0820152826101c08201520152604051906103c1611507825193602081818601966108a281838a614351565b6020815191012081519081842014908115916117dd575b506117b85761153b91602091604051938492839251928391614351565b81016002815203019020600b6040519161155483614203565b604051611565816103c181856143ca565b835260405161157b816103c181600186016143ca565b6020840152604051611594816103c181600286016143ca565b60408401526040516115ad816103c181600386016143ca565b606084015260048101546080840152600581015460a08401526040516115da816103c181600686016143ca565b60c084015260078101546001600160a01b031660e0840152604051611606816103c181600886016143ca565b610100840152604051611620816103c181600986016143ca565b61012084015260ff600a82015460018060a01b038116610140860152818160a01c161515610160860152818160a81c161515610180860152818160b01c1615156101a086015260b81c1615156101c084015201546101e08201526040518091602082526101e061176161174961171c6116f26116dc6116c66116b0885161020060208c01526102208b0190614460565b60208901518a8203601f190160408c0152614460565b6040880151898203601f190160608b0152614460565b6060870151888203601f190160808a0152614460565b608086015160a088015260a086015160c088015260c0860151601f198883030160e0890152614460565b60e08501516001600160a01b031661010087810191909152850151868203601f1901610120880152614460565b610120840151858203601f1901610140870152614460565b9160018060a01b0361014082015116610160850152610160810151151561018085015261018081015115156101a08501526101a081015115156101c08501526101c081015115158285015201516102008301520390f35b60405163f855236d60e01b8152602060048201529081906104e6906024830190614460565b9050158361151e565b34610353576117f4366142cc565b9060405181516103c16118146020938481818801956108a2818389614351565b8281519101208351908183201490811591611b7f575b5061090857835115611b6d5760008051602061538e83398151915260005260008252604060002033600052825260ff60406000205416158015611b3c575b8015611b0b575b8015611ada575b6107975760086040518381865161188e818388614351565b810160028152030190200184516001600160401b038111611ac4576118b38254614390565b601f8111611a7e575b5083601f82116001146119eb5761194a857fae67159e13d82231d3f408edcc7f75fa4e81aeacf670d6bcc87883e5c6a99353979895604095856119d1999688966000916119e0575b508160011b916000199060031b1c19161790555b8351600b8b51611929818486614351565b82019160028352848142940301902001558351809381928c51928391614351565b81016003815203019020916119a082516119638161421f565b8981528351946119728661423a565b600686526553746174757360d01b958685820152848301528785830152336060830152426080830152614d0d565b6119b482519860808a5260808a0190614460565b928884039182818b01526006855284015201828701520190614460565b914260608201528033930390a2005b90508901518d611904565b601f1982169083600052856000209160005b818110611a675750957fae67159e13d82231d3f408edcc7f75fa4e81aeacf670d6bcc87883e5c6a99353979895604095600186889661194a9686996119d19d10611a4e575b5050811b019055611918565b8b015160001960f88460031b161c191690558d80611a42565b91928760018192868d0151815501940192016119fd565b8260005284600020601f830160051c810191868410611aba575b601f0160051c01905b818110611aae57506118bc565b60008155600101611aa1565b9091508190611a98565b634e487b7160e01b600052604160045260246000fd5b506000805160206152ae83398151915260005260008252604060002033600052825260ff6040600020541615611876565b5060008051602061536e83398151915260005260008252604060002033600052825260ff604060002054161561186f565b5060008051602061528e83398151915260005260008252604060002033600052825260ff6040600020541615611868565b60405163ab36986360e01b8152600490fd5b9050158561182a565b3461035357600036600319011261035357602060405160008152f35b3461035357611bb236614312565b611bba614638565b611bc382614561565b15610341576103187f69e94e373f69f3f945457a07b335722310788af9cd459a33df6f72cc9e9640439160008051602061532e833981519152806000526000602052611c16600160406000200154614690565b61056e85614ad6565b3461035357611c2d366142cc565b33600090815260008051602061526e833981519152602090815260409091205491929160ff161561079757604051600160ff600a855193858181890196611c7581838a614351565b81016002815203019020015460b81c16151514611cfa5791600a611cc9611cf5937f3a9eebd240f4c9f631531ebc672c4c040de483b868ccebe8a3a1fdad70cde0d995604051809381928751928391614351565b8101600281520301902001600160b81b60ff60b81b1982541617905560405191829133954291846150ba565b0390a2005b506104e6604051928392636f5f944160e11b845260048401526024830190614460565b3461035357602080600319360112610353576004356001600160401b03811161035357611d4e903690600401614276565b906040516103c1611d6c8451928481818801956108a2818389614351565b8281519101208351908183201490811591611dbc575b5061090857600a611da28360ff9386604051938492839251928391614351565b81016002815203019020015460b01c166040519015158152f35b90501584611d82565b3461035357604036600319011261035357611dde6141ed565b600435600052600060205260406000209060018060a01b0316600052602052602060ff604060002054166040519015158152f35b3461035357602036600319011261035357611e2b6141d7565b6001600160a01b0316600090815260008051602061526e833981519152602090815260409182902054915160ff9092161515825290f35b3461035357602080600319360112610353576004356001600160401b03811161035357611e93903690600401614276565b90604051908251926103c1611eb0838301956103a6818789614351565b8281519101208151908186201490811591611fb9575b50611fa757611edd60405194859251928391614351565b830192818160039586815203019020805491611ef883615104565b93611f066040519586614255565b8385526000928352818320908286015b858510611f2b57604051806104438982614485565b600584600192604051611f3d8161421f565b604051611f4e816103c1818b6143ca565b8152604051611f63816103c181898c016143ca565b83820152604051611f7a816103c1818a8c016143ca565b6040820152848060a01b038c88015416606082015260048701546080820152815201930194019391611f16565b6040516329d7b10b60e11b8152600490fd5b90501585611ec6565b3461035357611fd0366142cc565b33600090815260008051602061530e833981519152602090815260409091205491929160ff161561079757604051600160ff600a85519385818189019661201881838a614351565b81016002815203019020015460a81c161515146120985791600a61206c611cf5937fa214f45af6d86b0d5ff7bb48f888cf4205e4a383da35fcbebfdbd9bd8e6d5a7c95604051809381928751928391614351565b8101600281520301902001600160a81b60ff60a81b1982541617905560405191829133954291846150ba565b506104e660405192839263701203b760e01b845260048401526024830190614460565b34610353576120c936614312565b6120d1614638565b6120da826145e2565b15610341576103187f71577b91708c73ee54b43c6709958ff42e4bcc084910648ce7c3d16928b51d529160008051602061528e83398151915280600052600060205261212d600160406000200154614690565b61056e85614a61565b3461035357600036600319011261035357602060405160008051602061532e8339815191528152f35b3461035357600036600319011261035357602060405160008051602061538e8339815191528152f35b3461035357602080600319360112610353576004356001600160401b038111610353576121b9903690600401614276565b906000805260008152604060002033600052815260ff6040600020541615610797576040516103c16121f88451928481818801956108a2818389614351565b8281519101208351908183201490811591612338575b50611fa75760ff600a60405184818751612229818389614351565b81016002815203019020015460b01c168061230c575b156122e9576122b860ff92600a926040517f10f4ba4c7bb6f0c442f54585004a6e24440bea5c2d2e6f36b688e3e624762e2233918061227f428b8361513c565b0390a2848460405184818a51612296818389614351565b81016002815203019020015460b01c1695604051938492839251928391614351565b81016002815203019020015460b81c1690610443604051928392839092916020906040830194151583521515910152565b506104e66040519283926348cddbdb60e11b845260048401526024830190614460565b5060ff600a60405184818751612323818389614351565b81016002815203019020015460b81c1661223f565b9050158461220e565b346103535760203660031901126103535761235a6141d7565b6001600160a01b031660009081526000805160206152ee833981519152602090815260409182902054915160ff9092161515825290f35b3461035357600036600319011261035357602060405160008051602061536e8339815191528152f35b3461035357600036600319011261035357602060405160008051602061534e8339815191528152f35b34610353576020366003190112610353576123fc6141d7565b6001600160a01b038116908115610e4957612415614638565b61241e816145b7565b610fa65761242b90614820565b5060008051602061538e83398151915260005260046020527f02ff85b9f193a3a7824cbaf5a79db262c0bac955152adf2752c6413d76b2d3c7805461246f906150e8565b90557f4e3eede475de92d3e23765b737dbb67646352b3328c1a437d7f089766d7be7516020604051428152a2005b34610353576020366003190112610353576004356001600160401b038111610353576124cd903690600401614276565b60405181818093516020819301916124e492614351565b810160028152036020019020604051806124fe81846143ca565b036125099082614255565b604051918261251b81600184016143ca565b036125269084614255565b6040518061253781600285016143ca565b036125429082614255565b604051918261255481600384016143ca565b0361255f9084614255565b6004810154600582015460405194918561257c81600687016143ca565b036125879087614255565b60078401546040516001600160a01b03979093918816929091846125ae8160088a016143ca565b036125b99086614255565b60405195866125cb8160098b016143ca565b036125d69088614255565b600a88015497600b0154986040519c8d9c8d61020090818152016125f991614460565b8d810360208f015261260a91614460565b8c810360408e015261261b91614460565b8b810360608d015261262c91614460565b9160808b015260a08a015288810360c08a015261264891614460565b9060e088015286810361010088015261266091614460565b85810361012087015261267291614460565b9281166101408501528060a01c60ff1615156101608501528060a81c60ff1615156101808501528060b01c60ff1615156101a085015260b81c60ff1615156101c08401526101e08301520390f35b3461035357600036600319011261035357602060405160008051602061528e8339815191528152f35b34610353576126f7366142cc565b33600090815260008051602061520e833981519152602090815260409091205491929160ff161561079757604051600160ff600a85519385818189019661273f81838a614351565b81016002815203019020015460b01c161515146127bf5791600a612793611cf5937fa9de1934279a83f8cfaaecf6a7002ac10aeaea244c8c763f3752f3fc4c3e631d95604051809381928751928391614351565b8101600281520301902001600160b01b60ff60b01b1982541617905560405191829133954291846150ba565b506104e660405192839263c817400d60e01b845260048401526024830190614460565b34610353576020366003190112610353576127fb6141d7565b6001600160a01b038116908115610e4957612814614638565b61281d8161458c565b610fa65761282a906147a9565b5060008051602061536e83398151915260005260046020527fa792fa383e6bd9c6b4465bbfd8031f4b47377210fa121067c03906e9afac6246805461286e906150e8565b90557f4a02edd19f09212e54b2ac85d7d3a4a2e3fbf424e6710c3f817d9b4cecc9cdb36020604051428152a2005b346103535760c0366003190112610353576004356001600160401b038111610353576128cc903690600401614276565b6024356001600160401b038111610353576128eb903690600401614276565b6064356001600160401b0381116103535761290a903690600401614276565b9160a4356001600160401b0381116103535761292a903690600401614276565b3360009081526000805160206152ce833981519152602052604090205490939060ff1615610797578151156136a65780511561077357825115613694576044351561368257608435158015613676575b613664576050608435111561364a578351156136385760015461299c816150e8565b6001556040516129e2607482602081019488516129bd818860208d01614351565b8201903360601b60208301524260348301526054820152036054810184520182614255565b51902092604051936129f38561423a565b600a8552602036818701378451156136225760306020860153845160011015613622576078602186015360005b6004811061358e575050612a75602160405180968451612a47816020850160208901614351565b8201602d60f81b6020820152612a668251809360208785019101614351565b01036001810187520185614255565b60405194612a8286614203565b848652836020870152826040870152816060870152604435608087015260843560a087015260c08601523360e0860152604051612abe8161423a565b600381526252617760e81b6020820152610100860152604051612ae08161423a565b600d81526c26b4b734b7339021b2b73a32b960991b6020820152610120860152336101408601526000610160860152600061018086015260006101a086015260006101c0860152426101e08601526040516020818651612b438183858b01614351565b8101600281520301902085518051906001600160401b038211611ac4578190612b6c8454614390565b601f811161353e575b50602090601f83116001146134d2576000926134c7575b50508160011b916000199060031b1c19161781555b60208601518051906001600160401b038211611ac4578190612bc66001850154614390565b601f8111613474575b50602090601f8311600114613402576000926133f7575b50508160011b916000199060031b1c19161760018201555b60408601518051906001600160401b038211611ac4578190612c236002850154614390565b601f81116133a4575b50602090601f831160011461333257600092613327575b50508160011b916000199060031b1c19161760028201555b60608601518051906001600160401b038211611ac4578190612c806003850154614390565b601f81116132d4575b50602090601f831160011461326257600092613257575b50508160011b916000199060031b1c19161760038201555b6080860151600482015560a0860151600582015560c08601518051906001600160401b038211611ac4578190612cf16006850154614390565b601f8111613204575b50602090601f831160011461319257600092613187575b50508160011b916000199060031b1c19161760068201555b6007810160018060a01b0360e0880151166001600160601b0360a01b8254161790556101008601518051906001600160401b038211611ac4578190612d716008850154614390565b601f8111613134575b50602090601f83116001146130c2576000926130b7575b50508160011b916000199060031b1c19161760088201555b6101208601519586516001600160401b038111611ac457612dcd6009840154614390565b601f8111613070575b506020601f8211600114612fce5792600b6101e06107229484612f9298957f73c819068ba25b88a32cb91f9b552ab50d9cccb7c4abdeb2a04f44373b7153939a986104439e600092612fc3575b50508160011b916000199060031b1c19161760098501555b600a840160018060a01b036101408301511681549060ff60a01b610160850151151560a01b1660ff60a81b610180860151151560a81b169060ff60b01b6101a0870151151560b01b169260ff60b81b6101c0880151151560b81b16946001600160401b0360c01b16171717171790550151910155612f5e60405160208181612ec98c83815193849201614351565b810160038152030190206040519067027b934b3b4b71d160c51b6020830152612f106028838851612f008184840160208d01614351565b8101036008810185520183614255565b60405191612f1d8361421f565b8a8352604051612f2c8161423a565b600a815269149959da5cdd195c995960b21b602082015260208401526040830152336060830152426080830152614d0d565b612f846040519660e08852612f7660e089018a614460565b9088820360208a0152614460565b908682036040880152614460565b91604435608082015260843560a08201524260c08201528033930390a2604051918291602083526020830190614460565b015190508e80612e23565b6009840160005260206000209860005b601f198416811061305857506101e0610722946001856104439d7f73c819068ba25b88a32cb91f9b552ab50d9cccb7c4abdeb2a04f44373b7153939b9996600b96612f929c99601f1981161061303f575b505050811b016009850155612e3b565b015160001960f88460031b161c191690558e808061302f565b828201518b556001909a019960209283019201612fde565b600984016000526020600020601f830160051c8101602084106130b0575b601f830160051c820181106130a4575050612dd6565b6000815560010161308e565b508061308e565b015190508880612d91565b9250600884016000526020600020906000935b601f1984168510613119576001945083601f19811610613100575b505050811b016008820155612da9565b015160001960f88460031b161c191690558880806130f0565b818101518355602094850194600190930192909101906130d5565b909150600884016000526020600020601f840160051c810160208510613180575b90849392915b601f830160051c82018110613171575050612d7a565b6000815585945060010161315b565b5080613155565b015190508880612d11565b9250600684016000526020600020906000935b601f19841685106131e9576001945083601f198116106131d0575b505050811b016006820155612d29565b015160001960f88460031b161c191690558880806131c0565b818101518355602094850194600190930192909101906131a5565b909150600684016000526020600020601f840160051c810160208510613250575b90849392915b601f830160051c82018110613241575050612cfa565b6000815585945060010161322b565b5080613225565b015190508880612ca0565b9250600384016000526020600020906000935b601f19841685106132b9576001945083601f198116106132a0575b505050811b016003820155612cb8565b015160001960f88460031b161c19169055888080613290565b81810151835560209485019460019093019290910190613275565b909150600384016000526020600020601f840160051c810160208510613320575b90849392915b601f830160051c82018110613311575050612c89565b600081558594506001016132fb565b50806132f5565b015190508880612c43565b9250600284016000526020600020906000935b601f1984168510613389576001945083601f19811610613370575b505050811b016002820155612c5b565b015160001960f88460031b161c19169055888080613360565b81810151835560209485019460019093019290910190613345565b909150600284016000526020600020601f840160051c8101602085106133f0575b90849392915b601f830160051c820181106133e1575050612c2c565b600081558594506001016133cb565b50806133c5565b015190508880612be6565b9250600184016000526020600020906000935b601f1984168510613459576001945083601f19811610613440575b505050811b016001820155612bfe565b015160001960f88460031b161c19169055888080613430565b81810151835560209485019460019093019290910190613415565b909150600184016000526020600020601f840160051c8101602085106134c0575b90849392915b601f830160051c820181106134b1575050612bcf565b6000815585945060010161349b565b5080613495565b015190508880612b8c565b9250836000526020600020906000935b601f1984168510613523576001945083601f1981161061350a575b505050811b018155612ba1565b015160001960f88460031b161c191690558880806134fd565b818101518355602094850194600190930192909101906134e2565b909150836000526020600020601f840160051c810160208510613587575b90849392915b601f830160051c82018110613578575050612b75565b60008155859450600101613562565b508061355c565b60208110156136225781811a90600f6135ab818460041c1661518c565b908260011b93600284860481148515171561360c5785810180911161360c576135db6135e29460001a918c61517b565b531661518c565b600390838201821161360c57613607936136019160001a92018961517b565b536150e8565b612a20565b634e487b7160e01b600052601160045260246000fd5b634e487b7160e01b600052603260045260246000fd5b60405163bfccc8e960e01b8152600490fd5b60405163d05db01960e01b81526084356004820152602490fd5b604051633abe7db760e21b8152600490fd5b5060646084351161297a565b60405163fd83f8d960e01b8152600490fd5b60405163a765e58f60e01b8152600490fd5b604051630ac6e45360e31b8152600490fd5b34610353576040366003190112610353576136d16141ed565b336001600160a01b038216036136ed57610eea90600435614caa565b60405163334bd91960e11b8152600490fd5b34610353576040366003190112610353576004356001600160401b0381116103535761372f903690600401614276565b61374b6020602435928160405193828580945193849201614351565b810160038152030190208054821015610353576137da9161376b91614374565b50604051906137858261377e81846143ca565b0383614255565b604051613799816103c181600186016143ca565b6137f66040516137b0816103c181600288016143ca565b6137e8600460018060a01b036003870154169501549360405197889760a0895260a0890190614460565b908782036020890152614460565b908582036040870152614460565b91606084015260808301520390f35b346103535760203660031901126103535761381e6141d7565b6001600160a01b031660009081526000805160206152ce833981519152602090815260409182902054915160ff9092161515825290f35b346103535761386336614312565b61386b614638565b61387482614536565b15610341576103187f125f88db22967983b401f70f6804d47f43cb545fcb725d0b335fe7d43d9b4a4a9160008051602061534e8339815191528060005260006020526138c7600160406000200154614690565b61056e856149ec565b3461035357604036600319011261035357610eea6004356138ef6141ed565b9080600052600060205261390a600160406000200154614690565b614985565b346103535760203660031901126103535760043560005260006020526020600160406000200154604051908152f35b3461035357602080600319360112610353576004356001600160401b0381116103535761396f903690600401614276565b906000805260008152604060002033600052815260ff6040600020541615610797576040516103c16139ae8451928481818801956108a2818389614351565b8281519101208351908183201490811591613a84575b506109085760ff600a604051848187516139df818389614351565b81016002815203019020015460b01c1680613a58575b15613a35576122b860ff92600a926040517f10f4ba4c7bb6f0c442f54585004a6e24440bea5c2d2e6f36b688e3e624762e2233918061227f428b8361513c565b506104e660405192839263642b2f5b60e11b845260048401526024830190614460565b5060ff600a60405184818751613a6f818389614351565b81016002815203019020015460b81c166139f5565b905015846139c4565b3461035357613a9b366142cc565b3360009081526000805160206152ee833981519152602090815260409091205491929160ff1615610797576040516103c1613ae38451928481818801956108a2818389614351565b8281519101208351908183201490811591613d00575b5061090857835115613cee576009613b5483613b3c93613b438460405184818b51613b25818389614351565b8101600281520301902001604051968780926143ca565b0386614255565b604051809381928951928391614351565b810160028152030190200184516001600160401b038111611ac457613b798254614390565b601f8111613ca8575b5083601f8211600114613c1757937f81dbbd3ba646453a262e90d0495aadc4d783bab49b0a8be2cd84f220cae608bb9593611cf59383613bfd94613bf098600091613c0c575b508160011b916000199060031b1c19161790555b604051958695606087526060870190614460565b9185830390860152614460565b82810360408401523395614460565b90508a01518b613bc8565b601f1982169083600052856000209160005b818110613c91575093600184613bf098947f81dbbd3ba646453a262e90d0495aadc4d783bab49b0a8be2cd84f220cae608bb9a9894613bfd97611cf59910613c78575b5050811b019055613bdc565b8c015160001960f88460031b161c191690558b80613c6c565b91928760018192868d015181550194019201613c29565b8260005284600020601f830160051c810191868410613ce4575b601f0160051c01905b818110613cd85750613b82565b60008155600101613ccb565b9091508190613cc2565b604051635b6571a560e01b8152600490fd5b90501585613af9565b3461035357602080600319360112610353576004356001600160401b03811161035357613d3a903690600401614276565b9060008051602061532e83398151915260005260008152604060002033600052815260ff918260406000205416156107975760405181519383830194613d81818488614351565b8201906001816002938481528588600a97889303019020015460a01c16151514613fee5760008052600085526040600020336000528552806040600020541615610797576103c1613df4604051878180613ddf8c8b51928391614351565b810187815203019020604051928380926143ca565b8581519101208451908188201490811591613fe5575b50611fa7578083604051878180613e258c8b51928391614351565b810187815203019020015460b01c1680613fba575b15613f98576040517f10f4ba4c7bb6f0c442f54585004a6e24440bea5c2d2e6f36b688e3e624762e22339180613e7142898361513c565b0390a28083604051878180613e8a8c8b51928391614351565b810187815203019020015460b01c169083604051878180613eaf8c8b51928391614351565b810187815203019020015460b81c1681613f90575b5015613f6e57837ffed1001c142a7ab386454a2f7d78b013ba7ff40595d10c128f2fb6463ccd7b7a9495613f32928460405184818951613f05818389614351565b81018581520301902001805460ff60a01b1916600160a01b17905560405186519094859382908590614351565b8201908152030190200180546001600160a01b031916331790556040805181815291613f6091830190614460565b9242908201528033930390a2005b6040516348cddbdb60e11b815260048101859052806104e66024820186614460565b905086613ec4565b6040516348cddbdb60e11b815260048101869052806104e66024820187614460565b508083604051878180613fd18c8b51928391614351565b810187815203019020015460b81c16613e3a565b90501587613e0a565b604051632072bb0160e11b815260048101869052806104e66024820187614460565b34610353576020366003190112610353576140296141d7565b6001600160a01b038116908115610e4957614042614638565b61404b81614561565b610fa65761405890614732565b5060008051602061532e83398151915260005260046020527f5455ba4b8a75b33fa0f1f7affd9817680912f06b7b194bcf9ac01183c4930020805461409c906150e8565b90557ff8ed9ac482b0f7c12999b3f157f758f84e39cd339fa301ea203823ac29e975056020604051428152a2005b34610353576020366003190112610353576140e36141d7565b6001600160a01b038116908115610e49576140fc614638565b61410581614536565b610fa657614112906146b6565b5060008051602061534e83398151915260005260046020527f973ccc145476ef147b966a44694f8b2d26bac5a3d44a844fec6be696fe5fea708054614156906150e8565b90557f593f046317558c2857b92915c62c99f2d2108f7bc6f1e1b3c5376cd559abf5596020604051428152a2005b34610353576020366003190112610353576004359063ffffffff60e01b821680920361035357602091637965db0b60e01b81149081156141c6575b5015158152f35b6301ffc9a760e01b149050836141bf565b600435906001600160a01b038216820361035357565b602435906001600160a01b038216820361035357565b61020081019081106001600160401b03821117611ac457604052565b60a081019081106001600160401b03821117611ac457604052565b604081019081106001600160401b03821117611ac457604052565b90601f801991011681019081106001600160401b03821117611ac457604052565b81601f82011215610353578035906001600160401b038211611ac457604051926142aa601f8401601f191660200185614255565b8284526020838301011161035357816000926020809301838601378301015290565b906040600319830112610353576001600160401b0360043581811161035357836142f891600401614276565b926024359182116103535761430f91600401614276565b90565b906040600319830112610353576004356001600160a01b03811681036103535791602435906001600160401b0382116103535761430f91600401614276565b60005b8381106143645750506000910152565b8181015183820152602001614354565b8054821015613622576000526005602060002091020190600090565b90600182811c921680156143c0575b60208310146143aa57565b634e487b7160e01b600052602260045260246000fd5b91607f169161439f565b90600092918054916143db83614390565b91828252600193848116908160001461443d57506001146143fd575b50505050565b90919394506000526020928360002092846000945b8386106144295750505050010190388080806143f7565b805485870183015294019385908201614412565b9294505050602093945060ff191683830152151560051b010190388080806143f7565b9060209161447981518092818552858086019101614351565b601f01601f1916010190565b602080820190808352835180925260409283810182858560051b8401019601946000925b8584106144ba575050505050505090565b909192939495968580600192603f198582030187528a519061450a6144fa6144ea845160a0808652850190614460565b8585015184820387860152614460565b888401518382038a850152614460565b916060868060a01b038183015116908301526080809101519101529901940194019295949391906144a9565b6001600160a01b031660009081526000805160206152ce833981519152602052604090205460ff1690565b6001600160a01b0316600090815260008051602061524e833981519152602052604090205460ff1690565b6001600160a01b0316600090815260008051602061520e833981519152602052604090205460ff1690565b6001600160a01b0316600090815260008051602061530e833981519152602052604090205460ff1690565b6001600160a01b031660009081526000805160206152ee833981519152602052604090205460ff1690565b6001600160a01b0316600090815260008051602061526e833981519152602052604090205460ff1690565b3360009081527fad3228b676f7d3cd4284a5443f17f1962b36e491b30a40b2405849e597ba5fb5602052604081205460ff16156146725750565b6044906040519063e2517d3f60e01b82523360048301526024820152fd5b80600052600060205260406000203360005260205260ff60406000205416156146725750565b6001600160a01b031660008181526000805160206152ce833981519152602052604081205490919060008051602061534e8339815191529060ff1661472d57808352826020526040832082845260205260408320600160ff1982541617905560008051602061522e833981519152339380a4600190565b505090565b6001600160a01b0316600081815260008051602061524e833981519152602052604081205490919060008051602061532e8339815191529060ff1661472d57808352826020526040832082845260205260408320600160ff1982541617905560008051602061522e833981519152339380a4600190565b6001600160a01b0316600081815260008051602061520e833981519152602052604081205490919060008051602061536e8339815191529060ff1661472d57808352826020526040832082845260205260408320600160ff1982541617905560008051602061522e833981519152339380a4600190565b6001600160a01b0316600081815260008051602061530e833981519152602052604081205490919060008051602061538e8339815191529060ff1661472d57808352826020526040832082845260205260408320600160ff1982541617905560008051602061522e833981519152339380a4600190565b6001600160a01b031660008181526000805160206152ee833981519152602052604081205490919060008051602061528e8339815191529060ff1661472d57808352826020526040832082845260205260408320600160ff1982541617905560008051602061522e833981519152339380a4600190565b6001600160a01b0316600081815260008051602061526e83398151915260205260408120549091906000805160206152ae8339815191529060ff1661472d57808352826020526040832082845260205260408320600160ff1982541617905560008051602061522e833981519152339380a4600190565b9060009180835282602052604083209160018060a01b03169182845260205260ff6040842054161560001461472d57808352826020526040832082845260205260408320600160ff1982541617905560008051602061522e833981519152339380a4600190565b6001600160a01b031660008181526000805160206152ce833981519152602052604081205490919060008051602061534e8339815191529060ff161561472d5780835282602052604083208284526020526040832060ff1981541690556000805160206153ae833981519152339380a4600190565b6001600160a01b031660008181526000805160206152ee833981519152602052604081205490919060008051602061528e8339815191529060ff161561472d5780835282602052604083208284526020526040832060ff1981541690556000805160206153ae833981519152339380a4600190565b6001600160a01b0316600081815260008051602061524e833981519152602052604081205490919060008051602061532e8339815191529060ff161561472d5780835282602052604083208284526020526040832060ff1981541690556000805160206153ae833981519152339380a4600190565b6001600160a01b0316600081815260008051602061526e83398151915260205260408120549091906000805160206152ae8339815191529060ff161561472d5780835282602052604083208284526020526040832060ff1981541690556000805160206153ae833981519152339380a4600190565b6001600160a01b0316600081815260008051602061530e833981519152602052604081205490919060008051602061538e8339815191529060ff161561472d5780835282602052604083208284526020526040832060ff1981541690556000805160206153ae833981519152339380a4600190565b6001600160a01b0316600081815260008051602061520e833981519152602052604081205490919060008051602061536e8339815191529060ff161561472d5780835282602052604083208284526020526040832060ff1981541690556000805160206153ae833981519152339380a4600190565b9060009180835282602052604083209160018060a01b03169182845260205260ff60408420541660001461472d5780835282602052604083208284526020526040832060ff1981541690556000805160206153ae833981519152339380a4600190565b90815468010000000000000000811015611ac457614d32906001938482018155614374565b9290926150a4578151908151906001600160401b0391828111611ac45780614d5a8754614390565b94601f95868111615050575b50602090868311600114614fed57600092614fe2575b5050600019600383901b1c191690821b1785555b8085016020850151805190848211611ac4578190614dae8454614390565b878111614f8f575b50602090878311600114614f2c57600092614f21575b5050600019600383901b1c191690831b1790555b600285019260408501518051938411611ac457614dfd8554614390565b828111614ed9575b506020918411600114614e6c57928060809593819360049896600094614e61575b50501b916000199060031b1c19161790555b6003840160018060a01b036060830151166001600160601b0360a01b8254161790550151910155565b015192503880614e26565b90601f9392931983169185600052816000209260005b818110614ec357509160049795939185608098969410614eaa575b505050811b019055614e38565b015160001960f88460031b161c19169055388080614e9d565b8284015185559386019360209384019301614e82565b8560005260206000208380870160051c82019260208810614f18575b0160051c019084905b828110614f0c575050614e05565b60008155018490614efe565b92508192614ef5565b015190503880614dcc565b90859350601f1983169185600052816000209260005b818110614f7757508411614f5e575b505050811b019055614de0565b015160001960f88460031b161c19169055388080614f51565b82840151855588969094019360209384019301614f42565b9091508360005260206000208780850160051c82019260208610614fd9575b918791869594930160051c01915b828110614fca575050614db6565b60008155859450879101614fbc565b92508192614fae565b015190503880614d7c565b90849350601f1983169189600052816000209260005b8181106150385750841161501f575b505050811b018555614d90565b015160001960f88460031b161c19169055388080615012565b82840151855587969094019360209384019301615003565b9091506000888152602081208780860160051c8201936020871061509b575b91879187969594930160051c01925b83811061508d57505050614d66565b82815586955087910161507e565b9350819361506f565b634e487b7160e01b600052600060045260246000fd5b9392916150e3906150d5604093606088526060880190614460565b908682036020880152614460565b930152565b600019811461360c5760010190565b801561360c576000190190565b6001600160401b038111611ac45760051b60200190565b8051156136225760200190565b80518210156136225760209160051b010190565b92919060406151548192606087526060870190614460565b8581036020870152600c81526b54726164696e67526561647960a01b602082015201930152565b908151811015613622570160200190565b60009060ff16600a8110156151b857603091500160ff811161360c5760f81b6001600160f81b03191690565b60610160ff81116151f95760ff6009199116019060ff82116151e5575060f81b6001600160f81b03191690565b634e487b7160e01b81526011600452602490fd5b634e487b7160e01b82526011600452602482fdfe0d2d6a5d08cb5d871289c0a3ca855d9da72909a111c24cce2d5c2b34a20daa542f8788117e7eff1d82e926ec794901d17c78024a50270940304540a733656f0df3fa603c74bfe2a4719960e47343678c3dc690d2b27a2295acc6fc430833aaf9acfff8a39fb957d9d1c8e3ef9f08385e3fcf7bb23ab7ba0ad0f8df93dbde6a68ddaa901e2fe3bda354fe0ede2785152d5c109282a613fe024a056a3e66c41bb3273dcf2136c7d8ef632bb8ef13dbca69a8f36fa620c7468671b3153d46a211c0bb3fcc25fbffa12ea463b3505377899a4d5ddb4858b9c7bd36764686d9425b36bce5fd3347e0dc338dcc0e895534dd4af2740eec95f56cd4ca4b4b2ada357ca04130a4caca6023b0ba21488ee680ce5c3df22860b1cd8b02cd2a0bcb0de98851f8cd32ed93fc2f9fc78152a14807c9609af3d99c5fe4dc6b106a801aaddfe90ea952726ef2588ad078edf35b066f7c7406e207cb0003bbaba8cb53eba9553e7259a1c48e5837ad7a7f3dcedcbe129bf3249ec4fbf651fd4f5e2600ead39fe2f5a977e1a3444218ff332edf735c56487bbe59922b15c88777d443eb8b78020f4df6391f5c32d9c69d2a47ea670b442974b53935d1edc7fd64eb21e047a839171ba2646970667358221220a9c5ae3db11af6dfe1e6f3925e6360c620852704e8ce3201da5b6c006c7bb1fd64736f6c634300081400332f8788117e7eff1d82e926ec794901d17c78024a50270940304540a733656f0dddaa901e2fe3bda354fe0ede2785152d5c109282a613fe024a056a3e66c41bb3273dcf2136c7d8ef632bb8ef13dbca69a8f36fa620c7468671b3153d46a211c0f8cd32ed93fc2f9fc78152a14807c9609af3d99c5fe4dc6b106a801aaddfe90ea977e1a3444218ff332edf735c56487bbe59922b15c88777d443eb8b78020f4d","opcodes":"PUSH1 0x80 CALLVALUE PUSH3 0x3B7 JUMPI PUSH1 0x1F PUSH3 0x5C65 CODESIZE DUP2 SWAP1 SUB SWAP2 DUP3 ADD PUSH1 0x1F NOT AND DUP4 ADD SWAP3 SWAP2 PUSH1 0x1 PUSH1 0x1 PUSH1 0x40 SHL SUB DUP5 GT DUP4 DUP6 LT OR PUSH3 0x3BC JUMPI DUP1 DUP4 SWAP3 PUSH1 0x40 SWAP6 DUP7 MSTORE DUP4 CODECOPY PUSH1 0x20 SWAP3 DUP4 SWAP2 DUP2 ADD SUB SLT PUSH3 0x3B7 JUMPI MLOAD PUSH1 0x1 PUSH1 0x1 PUSH1 0xA0 SHL SUB DUP2 AND SWAP2 SWAP1 DUP3 SWAP1 SUB PUSH3 0x3B7 JUMPI NUMBER TIMESTAMP ADD DUP1 TIMESTAMP GT PUSH3 0x3A1 JUMPI PUSH1 0x1 SWAP1 DUP2 SSTORE PUSH3 0x77 CALLER PUSH3 0x3D2 JUMP JUMPDEST POP PUSH1 0x0 DUP1 DUP1 MSTORE PUSH1 0x4 DUP1 DUP5 MSTORE DUP6 DUP3 KECCAK256 DUP1 SLOAD PUSH1 0x0 NOT SWAP2 SWAP1 DUP3 DUP2 EQ PUSH3 0x37B JUMPI DUP6 ADD SWAP1 SSTORE DUP3 DUP1 MSTORE DUP2 DUP6 MSTORE DUP4 DUP8 DUP5 KECCAK256 SSTORE DUP7 MLOAD TIMESTAMP DUP2 MSTORE PUSH32 0x458EA7E03B3466B3CF9BC2D66DDEA8B11FE9469982816F42666888E6C8C6E664 DUP7 CALLER SWAP3 LOG2 PUSH3 0xD8 CALLER PUSH3 0x452 JUMP JUMPDEST POP PUSH32 0xA952726EF2588AD078EDF35B066F7C7406E207CB0003BBABA8CB53EBA9553E72 DUP1 DUP5 MSTORE DUP3 DUP7 MSTORE DUP8 DUP5 KECCAK256 DUP1 SLOAD DUP4 DUP2 EQ PUSH3 0x38E JUMPI DUP7 ADD SWAP1 SSTORE DUP4 MSTORE DUP2 DUP6 MSTORE DUP4 DUP8 DUP5 KECCAK256 SSTORE DUP7 MLOAD TIMESTAMP DUP2 MSTORE PUSH32 0x593F046317558C2857B92915C62C99F2D2108F7BC6F1E1B3C5376CD559ABF559 DUP7 CALLER SWAP3 LOG2 PUSH3 0x150 CALLER PUSH3 0x4F4 JUMP JUMPDEST POP PUSH32 0x59A1C48E5837AD7A7F3DCEDCBE129BF3249EC4FBF651FD4F5E2600EAD39FE2F5 DUP1 DUP5 MSTORE DUP3 DUP7 MSTORE DUP8 DUP5 KECCAK256 DUP1 SLOAD DUP4 DUP2 EQ PUSH3 0x38E JUMPI DUP7 ADD SWAP1 SSTORE DUP4 MSTORE DUP2 DUP6 MSTORE DUP4 DUP8 DUP5 KECCAK256 SSTORE DUP7 MLOAD TIMESTAMP DUP2 MSTORE PUSH32 0x4A02EDD19F09212E54B2AC85D7D3A4A2E3FBF424E6710C3F817D9B4CECC9CDB3 DUP7 CALLER SWAP3 LOG2 PUSH3 0x1C8 CALLER PUSH3 0x591 JUMP JUMPDEST POP PUSH1 0x0 DUP1 MLOAD PUSH1 0x20 PUSH3 0x5C05 DUP4 CODECOPY DUP2 MLOAD SWAP2 MSTORE DUP1 DUP5 MSTORE DUP3 DUP7 MSTORE DUP8 DUP5 KECCAK256 DUP1 SLOAD DUP4 DUP2 EQ PUSH3 0x38E JUMPI DUP7 ADD SWAP1 SSTORE DUP4 MSTORE DUP2 DUP6 MSTORE DUP4 DUP8 DUP5 KECCAK256 SSTORE DUP7 MLOAD TIMESTAMP DUP2 MSTORE PUSH32 0x49CC27C2A068C01CF703C3923DFC679109B5F6C27BD1F61B542C159E3A73E092 DUP7 CALLER SWAP3 LOG2 PUSH3 0x22F CALLER PUSH3 0x61D JUMP JUMPDEST POP PUSH1 0x0 DUP1 MLOAD PUSH1 0x20 PUSH3 0x5C25 DUP4 CODECOPY DUP2 MLOAD SWAP2 MSTORE DUP1 DUP5 MSTORE DUP3 DUP7 MSTORE DUP8 DUP5 KECCAK256 DUP1 SLOAD DUP4 DUP2 EQ PUSH3 0x38E JUMPI DUP7 ADD SWAP1 SSTORE DUP4 MSTORE DUP2 DUP6 MSTORE DUP4 DUP8 DUP5 KECCAK256 SSTORE DUP7 MLOAD TIMESTAMP DUP2 MSTORE PUSH32 0xF8ED9AC482B0F7C12999B3F157F758F84E39CD339FA301EA203823AC29E97505 DUP7 CALLER SWAP3 LOG2 PUSH3 0x296 CALLER PUSH3 0x6A9 JUMP JUMPDEST POP PUSH1 0x0 DUP1 MLOAD PUSH1 0x20 PUSH3 0x5C45 DUP4 CODECOPY DUP2 MLOAD SWAP2 MSTORE DUP1 DUP5 MSTORE DUP3 DUP7 MSTORE DUP8 DUP5 KECCAK256 DUP1 SLOAD DUP4 DUP2 EQ PUSH3 0x38E JUMPI DUP7 ADD SWAP1 SSTORE DUP4 MSTORE DUP2 DUP6 MSTORE DUP4 DUP8 DUP5 KECCAK256 SSTORE DUP7 MLOAD TIMESTAMP DUP2 MSTORE PUSH32 0x4E3EEDE475DE92D3E23765B737DBB67646352B3328C1A437D7F089766D7BE751 DUP7 CALLER SWAP3 LOG2 PUSH3 0x2FD CALLER PUSH3 0x735 JUMP JUMPDEST POP PUSH1 0x0 DUP1 MLOAD PUSH1 0x20 PUSH3 0x5BE5 DUP4 CODECOPY DUP2 MLOAD SWAP2 MSTORE SWAP1 DUP2 DUP5 MSTORE DUP3 DUP7 MSTORE DUP8 DUP5 KECCAK256 SWAP1 DUP2 SLOAD SWAP1 DUP2 EQ PUSH3 0x37B JUMPI DUP6 ADD SWAP1 SSTORE DUP3 MSTORE DUP4 MSTORE DUP5 SWAP1 KECCAK256 SSTORE DUP3 MLOAD TIMESTAMP DUP2 MSTORE CALLER SWAP2 PUSH32 0x964E50CB3BDB84C00A30F56AE15D538D23DC6DB14F891D7D819761B161E990A6 SWAP2 LOG2 PUSH1 0x5 DUP1 SLOAD PUSH1 0x1 PUSH1 0x1 PUSH1 0xA0 SHL SUB NOT AND SWAP2 SWAP1 SWAP2 OR SWAP1 SSTORE MLOAD PUSH2 0x5403 SWAP1 DUP2 PUSH3 0x7C2 DUP3 CODECOPY RETURN JUMPDEST PUSH4 0x4E487B71 PUSH1 0xE0 SHL DUP6 MSTORE PUSH1 0x11 DUP5 MSTORE PUSH1 0x24 DUP6 REVERT JUMPDEST PUSH4 0x4E487B71 PUSH1 0xE0 SHL DUP7 MSTORE PUSH1 0x11 DUP6 MSTORE PUSH1 0x24 DUP7 REVERT JUMPDEST PUSH4 0x4E487B71 PUSH1 0xE0 SHL PUSH1 0x0 MSTORE PUSH1 0x11 PUSH1 0x4 MSTORE PUSH1 0x24 PUSH1 0x0 REVERT JUMPDEST PUSH1 0x0 DUP1 REVERT JUMPDEST PUSH4 0x4E487B71 PUSH1 0xE0 SHL PUSH1 0x0 MSTORE PUSH1 0x41 PUSH1 0x4 MSTORE PUSH1 0x24 PUSH1 0x0 REVERT JUMPDEST PUSH1 0x1 PUSH1 0x1 PUSH1 0xA0 SHL SUB AND PUSH1 0x0 DUP2 DUP2 MSTORE PUSH32 0xAD3228B676F7D3CD4284A5443F17F1962B36E491B30A40B2405849E597BA5FB5 PUSH1 0x20 MSTORE PUSH1 0x40 DUP2 KECCAK256 SLOAD SWAP1 SWAP2 SWAP1 PUSH1 0xFF AND PUSH3 0x44E JUMPI DUP2 DUP1 MSTORE DUP2 PUSH1 0x20 MSTORE PUSH1 0x40 DUP3 KECCAK256 DUP2 DUP4 MSTORE PUSH1 0x20 MSTORE PUSH1 0x40 DUP3 KECCAK256 PUSH1 0x1 PUSH1 0xFF NOT DUP3 SLOAD AND OR SWAP1 SSTORE CALLER SWAP2 PUSH1 0x0 DUP1 MLOAD PUSH1 0x20 PUSH3 0x5BC5 DUP4 CODECOPY DUP2 MLOAD SWAP2 MSTORE DUP2 DUP1 LOG4 PUSH1 0x1 SWAP1 JUMP JUMPDEST POP SWAP1 JUMP JUMPDEST PUSH1 0x1 PUSH1 0x1 PUSH1 0xA0 SHL SUB AND PUSH1 0x0 DUP2 DUP2 MSTORE PUSH32 0xBB3FCC25FBFFA12EA463B3505377899A4D5DDB4858B9C7BD36764686D9425B36 PUSH1 0x20 MSTORE PUSH1 0x40 DUP2 KECCAK256 SLOAD SWAP1 SWAP2 SWAP1 PUSH32 0xA952726EF2588AD078EDF35B066F7C7406E207CB0003BBABA8CB53EBA9553E72 SWAP1 PUSH1 0xFF AND PUSH3 0x4EF JUMPI DUP1 DUP4 MSTORE DUP3 PUSH1 0x20 MSTORE PUSH1 0x40 DUP4 KECCAK256 DUP3 DUP5 MSTORE PUSH1 0x20 MSTORE PUSH1 0x40 DUP4 KECCAK256 PUSH1 0x1 PUSH1 0xFF NOT DUP3 SLOAD AND OR SWAP1 SSTORE PUSH1 0x0 DUP1 MLOAD PUSH1 0x20 PUSH3 0x5BC5 DUP4 CODECOPY DUP2 MLOAD SWAP2 MSTORE CALLER SWAP4 DUP1 LOG4 PUSH1 0x1 SWAP1 JUMP JUMPDEST POP POP SWAP1 JUMP JUMPDEST PUSH1 0x1 PUSH1 0x1 PUSH1 0xA0 SHL SUB AND PUSH1 0x0 DUP2 DUP2 MSTORE PUSH32 0xD2D6A5D08CB5D871289C0A3CA855D9DA72909A111C24CCE2D5C2B34A20DAA54 PUSH1 0x20 MSTORE PUSH1 0x40 DUP2 KECCAK256 SLOAD SWAP1 SWAP2 SWAP1 PUSH32 0x59A1C48E5837AD7A7F3DCEDCBE129BF3249EC4FBF651FD4F5E2600EAD39FE2F5 SWAP1 PUSH1 0xFF AND PUSH3 0x4EF JUMPI DUP1 DUP4 MSTORE DUP3 PUSH1 0x20 MSTORE PUSH1 0x40 DUP4 KECCAK256 DUP3 DUP5 MSTORE PUSH1 0x20 MSTORE PUSH1 0x40 DUP4 KECCAK256 PUSH1 0x1 PUSH1 0xFF NOT DUP3 SLOAD AND OR SWAP1 SSTORE PUSH1 0x0 DUP1 MLOAD PUSH1 0x20 PUSH3 0x5BC5 DUP4 CODECOPY DUP2 MLOAD SWAP2 MSTORE CALLER SWAP4 DUP1 LOG4 PUSH1 0x1 SWAP1 JUMP JUMPDEST PUSH1 0x1 PUSH1 0x1 PUSH1 0xA0 SHL SUB AND PUSH1 0x0 DUP2 DUP2 MSTORE PUSH32 0xACFFF8A39FB957D9D1C8E3EF9F08385E3FCF7BB23AB7BA0AD0F8DF93DBDE6A68 PUSH1 0x20 MSTORE PUSH1 0x40 DUP2 KECCAK256 SLOAD SWAP1 SWAP2 SWAP1 PUSH1 0x0 DUP1 MLOAD PUSH1 0x20 PUSH3 0x5C05 DUP4 CODECOPY DUP2 MLOAD SWAP2 MSTORE SWAP1 PUSH1 0xFF AND PUSH3 0x4EF JUMPI DUP1 DUP4 MSTORE DUP3 PUSH1 0x20 MSTORE PUSH1 0x40 DUP4 KECCAK256 DUP3 DUP5 MSTORE PUSH1 0x20 MSTORE PUSH1 0x40 DUP4 KECCAK256 PUSH1 0x1 PUSH1 0xFF NOT DUP3 SLOAD AND OR SWAP1 SSTORE PUSH1 0x0 DUP1 MLOAD PUSH1 0x20 PUSH3 0x5BC5 DUP4 CODECOPY DUP2 MLOAD SWAP2 MSTORE CALLER SWAP4 DUP1 LOG4 PUSH1 0x1 SWAP1 JUMP JUMPDEST PUSH1 0x1 PUSH1 0x1 PUSH1 0xA0 SHL SUB AND PUSH1 0x0 DUP2 DUP2 MSTORE PUSH32 0xF3FA603C74BFE2A4719960E47343678C3DC690D2B27A2295ACC6FC430833AAF9 PUSH1 0x20 MSTORE PUSH1 0x40 DUP2 KECCAK256 SLOAD SWAP1 SWAP2 SWAP1 PUSH1 0x0 DUP1 MLOAD PUSH1 0x20 PUSH3 0x5C25 DUP4 CODECOPY DUP2 MLOAD SWAP2 MSTORE SWAP1 PUSH1 0xFF AND PUSH3 0x4EF JUMPI DUP1 DUP4 MSTORE DUP3 PUSH1 0x20 MSTORE PUSH1 0x40 DUP4 KECCAK256 DUP3 DUP5 MSTORE PUSH1 0x20 MSTORE PUSH1 0x40 DUP4 KECCAK256 PUSH1 0x1 PUSH1 0xFF NOT DUP3 SLOAD AND OR SWAP1 SSTORE PUSH1 0x0 DUP1 MLOAD PUSH1 0x20 PUSH3 0x5BC5 DUP4 CODECOPY DUP2 MLOAD SWAP2 MSTORE CALLER SWAP4 DUP1 LOG4 PUSH1 0x1 SWAP1 JUMP JUMPDEST PUSH1 0x1 PUSH1 0x1 PUSH1 0xA0 SHL SUB AND PUSH1 0x0 DUP2 DUP2 MSTORE PUSH32 0x4130A4CACA6023B0BA21488EE680CE5C3DF22860B1CD8B02CD2A0BCB0DE98851 PUSH1 0x20 MSTORE PUSH1 0x40 DUP2 KECCAK256 SLOAD SWAP1 SWAP2 SWAP1 PUSH1 0x0 DUP1 MLOAD PUSH1 0x20 PUSH3 0x5C45 DUP4 CODECOPY DUP2 MLOAD SWAP2 MSTORE SWAP1 PUSH1 0xFF AND PUSH3 0x4EF JUMPI DUP1 DUP4 MSTORE DUP3 PUSH1 0x20 MSTORE PUSH1 0x40 DUP4 KECCAK256 DUP3 DUP5 MSTORE PUSH1 0x20 MSTORE PUSH1 0x40 DUP4 KECCAK256 PUSH1 0x1 PUSH1 0xFF NOT DUP3 SLOAD AND OR SWAP1 SSTORE PUSH1 0x0 DUP1 MLOAD PUSH1 0x20 PUSH3 0x5BC5 DUP4 CODECOPY DUP2 MLOAD SWAP2 MSTORE CALLER SWAP4 DUP1 LOG4 PUSH1 0x1 SWAP1 JUMP JUMPDEST PUSH1 0x1 PUSH1 0x1 PUSH1 0xA0 SHL SUB AND PUSH1 0x0 DUP2 DUP2 MSTORE PUSH32 0xBCE5FD3347E0DC338DCC0E895534DD4AF2740EEC95F56CD4CA4B4B2ADA357CA0 PUSH1 0x20 MSTORE PUSH1 0x40 DUP2 KECCAK256 SLOAD SWAP1 SWAP2 SWAP1 PUSH1 0x0 DUP1 MLOAD PUSH1 0x20 PUSH3 0x5BE5 DUP4 CODECOPY DUP2 MLOAD SWAP2 MSTORE SWAP1 PUSH1 0xFF AND PUSH3 0x4EF JUMPI DUP1 DUP4 MSTORE DUP3 PUSH1 0x20 MSTORE PUSH1 0x40 DUP4 KECCAK256 DUP3 DUP5 MSTORE PUSH1 0x20 MSTORE PUSH1 0x40 DUP4 KECCAK256 PUSH1 0x1 PUSH1 0xFF NOT DUP3 SLOAD AND OR SWAP1 SSTORE PUSH1 0x0 DUP1 MLOAD PUSH1 0x20 PUSH3 0x5BC5 DUP4 CODECOPY DUP2 MLOAD SWAP2 MSTORE CALLER SWAP4 DUP1 LOG4 PUSH1 0x1 SWAP1 JUMP INVALID PUSH1 0x80 DUP1 PUSH1 0x40 MSTORE PUSH1 0x4 CALLDATASIZE LT ISZERO PUSH2 0x13 JUMPI PUSH1 0x0 DUP1 REVERT JUMPDEST PUSH1 0x0 CALLDATALOAD PUSH1 0xE0 SHR SWAP1 DUP2 PUSH4 0x1FFC9A7 EQ PUSH2 0x4184 JUMPI POP DUP1 PUSH4 0x958FC2D EQ PUSH2 0x40CA JUMPI DUP1 PUSH4 0xDACAD2E EQ PUSH2 0x4010 JUMPI DUP1 PUSH4 0x126EE338 EQ PUSH2 0x3D09 JUMPI DUP1 PUSH4 0x129B5C45 EQ PUSH2 0x3A8D JUMPI DUP1 PUSH4 0x1C7588FC EQ PUSH2 0x393E JUMPI DUP1 PUSH4 0x248A9CA3 EQ PUSH2 0x390F JUMPI DUP1 PUSH4 0x2F2FF15D EQ PUSH2 0x38D0 JUMPI DUP1 PUSH4 0x309514DF EQ PUSH2 0x3855 JUMPI DUP1 PUSH4 0x3499C3A2 EQ PUSH2 0x3805 JUMPI DUP1 PUSH4 0x35BA6207 EQ PUSH2 0x36FF JUMPI DUP1 PUSH4 0x36568ABE EQ PUSH2 0x36B8 JUMPI DUP1 PUSH4 0x3A7ADEA5 EQ PUSH2 0x289C JUMPI DUP1 PUSH4 0x480D1DD3 EQ PUSH2 0x27E2 JUMPI DUP1 PUSH4 0x4E2A3109 EQ PUSH2 0x26E9 JUMPI DUP1 PUSH4 0x4EABBE77 EQ PUSH2 0x26C0 JUMPI DUP1 PUSH4 0x5AEE1B15 EQ PUSH2 0x249D JUMPI DUP1 PUSH4 0x6377741D EQ PUSH2 0x23E3 JUMPI DUP1 PUSH4 0x6394F6E6 EQ PUSH2 0x23BA JUMPI DUP1 PUSH4 0x6E1D616E EQ PUSH2 0x2391 JUMPI DUP1 PUSH4 0x70E22E42 EQ PUSH2 0x2341 JUMPI DUP1 PUSH4 0x75A2B0D4 EQ PUSH2 0x2188 JUMPI DUP1 PUSH4 0x79451CD7 EQ PUSH2 0x215F JUMPI DUP1 PUSH4 0x7A01A1DA EQ PUSH2 0x2136 JUMPI DUP1 PUSH4 0x7AE9C160 EQ PUSH2 0x20BB JUMPI DUP1 PUSH4 0x7CDE2B99 EQ PUSH2 0x1FC2 JUMPI DUP1 PUSH4 0x826FE0F5 EQ PUSH2 0x1E62 JUMPI DUP1 PUSH4 0x8850845F EQ PUSH2 0x1E12 JUMPI DUP1 PUSH4 0x91D14854 EQ PUSH2 0x1DC5 JUMPI DUP1 PUSH4 0x981642C6 EQ PUSH2 0x1D1D JUMPI DUP1 PUSH4 0x99691194 EQ PUSH2 0x1C1F JUMPI DUP1 PUSH4 0x9B188DD6 EQ PUSH2 0x1BA4 JUMPI DUP1 PUSH4 0xA217FDDF EQ PUSH2 0x1B88 JUMPI DUP1 PUSH4 0xA354AEC7 EQ PUSH2 0x17E6 JUMPI DUP1 PUSH4 0xA672D987 EQ PUSH2 0x1441 JUMPI DUP1 PUSH4 0xA917601B EQ PUSH2 0x1387 JUMPI DUP1 PUSH4 0xABAA536F EQ PUSH2 0x1337 JUMPI DUP1 PUSH4 0xAC851DFD EQ PUSH2 0x12A5 JUMPI DUP1 PUSH4 0xB6BA1CA7 EQ PUSH2 0x1279 JUMPI DUP1 PUSH4 0xB9C5B833 EQ PUSH2 0x1154 JUMPI DUP1 PUSH4 0xBEAE4615 EQ PUSH2 0x1104 JUMPI DUP1 PUSH4 0xC395FCB3 EQ PUSH2 0x10A2 JUMPI DUP1 PUSH4 0xCA15C873 EQ PUSH2 0xFB8 JUMPI DUP1 PUSH4 0xCC82B090 EQ PUSH2 0xEEC JUMPI DUP1 PUSH4 0xD547741F EQ PUSH2 0xEAB JUMPI DUP1 PUSH4 0xDE7CE391 EQ PUSH2 0xE5B JUMPI DUP1 PUSH4 0xDF422BF2 EQ PUSH2 0x934 JUMPI DUP1 PUSH4 0xE2E3EDEB EQ PUSH2 0x853 JUMPI DUP1 PUSH4 0xE3A3C522 EQ PUSH2 0x82A JUMPI DUP1 PUSH4 0xE438FDF8 EQ PUSH2 0x7AF JUMPI DUP1 PUSH4 0xF17F3523 EQ PUSH2 0x5AB JUMPI DUP1 PUSH4 0xF5716A85 EQ PUSH2 0x4F3 JUMPI DUP1 PUSH4 0xF6E2314B EQ PUSH2 0x358 JUMPI PUSH4 0xFC1032EB EQ PUSH2 0x271 JUMPI PUSH1 0x0 DUP1 REVERT JUMPDEST CALLVALUE PUSH2 0x353 JUMPI PUSH2 0x27F CALLDATASIZE PUSH2 0x4312 JUMP JUMPDEST PUSH2 0x287 PUSH2 0x4638 JUMP JUMPDEST PUSH2 0x290 DUP3 PUSH2 0x458C JUMP JUMPDEST ISZERO PUSH2 0x341 JUMPI PUSH2 0x318 PUSH32 0x93E936184FAD9F80C7000AA987F91BE0CD621BACDE11839FDC7139F3D9C2407B SWAP2 PUSH1 0x0 DUP1 MLOAD PUSH1 0x20 PUSH2 0x536E DUP4 CODECOPY DUP2 MLOAD SWAP2 MSTORE DUP1 PUSH1 0x0 MSTORE PUSH1 0x0 PUSH1 0x20 MSTORE PUSH2 0x2E3 PUSH1 0x1 PUSH1 0x40 PUSH1 0x0 KECCAK256 ADD SLOAD PUSH2 0x4690 JUMP JUMPDEST PUSH2 0x2EC DUP6 PUSH2 0x4C35 JUMP JUMPDEST POP PUSH1 0x0 MSTORE PUSH1 0x4 PUSH1 0x20 MSTORE PUSH1 0x40 PUSH1 0x0 KECCAK256 DUP1 SLOAD DUP1 PUSH2 0x32F JUMPI JUMPDEST POP POP PUSH1 0x40 MLOAD SWAP2 DUP3 SWAP2 PUSH1 0x40 DUP4 MSTORE PUSH1 0x40 DUP4 ADD SWAP1 PUSH2 0x4460 JUMP JUMPDEST TIMESTAMP PUSH1 0x20 DUP4 ADD MSTORE PUSH1 0x1 PUSH1 0x1 PUSH1 0xA0 SHL SUB SWAP1 SWAP5 AND SWAP4 SUB SWAP1 LOG2 STOP JUMPDEST PUSH2 0x338 SWAP1 PUSH2 0x50F7 JUMP JUMPDEST SWAP1 SSTORE CODESIZE DUP1 PUSH2 0x302 JUMP JUMPDEST PUSH1 0x40 MLOAD PUSH4 0x2AC15605 PUSH1 0xE2 SHL DUP2 MSTORE PUSH1 0x4 SWAP1 REVERT JUMPDEST PUSH1 0x0 DUP1 REVERT JUMPDEST CALLVALUE PUSH2 0x353 JUMPI PUSH1 0x20 DUP1 PUSH1 0x3 NOT CALLDATASIZE ADD SLT PUSH2 0x353 JUMPI PUSH1 0x4 CALLDATALOAD PUSH1 0x1 PUSH1 0x1 PUSH1 0x40 SHL SUB DUP2 GT PUSH2 0x353 JUMPI PUSH2 0x389 SWAP1 CALLDATASIZE SWAP1 PUSH1 0x4 ADD PUSH2 0x4276 JUMP JUMPDEST SWAP1 PUSH1 0x40 MLOAD SWAP1 DUP3 MLOAD SWAP3 PUSH2 0x3C1 PUSH2 0x3C8 DUP4 DUP4 ADD SWAP6 PUSH2 0x3A6 DUP2 DUP8 DUP10 PUSH2 0x4351 JUMP JUMPDEST DUP6 ADD SWAP5 DUP5 DUP2 PUSH1 0x2 SWAP8 DUP9 DUP2 MSTORE SUB ADD SWAP1 KECCAK256 PUSH1 0x40 MLOAD SWAP3 DUP4 DUP1 SWAP3 PUSH2 0x43CA JUMP JUMPDEST SUB DUP3 PUSH2 0x4255 JUMP JUMPDEST DUP3 DUP2 MLOAD SWAP2 ADD KECCAK256 DUP2 MLOAD SWAP1 DUP2 DUP7 KECCAK256 EQ SWAP1 DUP2 ISZERO SWAP2 PUSH2 0x4EA JUMPI JUMPDEST POP PUSH2 0x4C3 JUMPI PUSH2 0x3F5 PUSH1 0x40 MLOAD SWAP5 DUP6 SWAP3 MLOAD SWAP3 DUP4 SWAP2 PUSH2 0x4351 JUMP JUMPDEST DUP4 ADD SWAP3 DUP2 DUP2 PUSH1 0x3 SWAP6 DUP7 DUP2 MSTORE SUB ADD SWAP1 KECCAK256 DUP1 SLOAD SWAP2 PUSH2 0x410 DUP4 PUSH2 0x5104 JUMP JUMPDEST SWAP4 PUSH2 0x41E PUSH1 0x40 MLOAD SWAP6 DUP7 PUSH2 0x4255 JUMP JUMPDEST DUP4 DUP6 MSTORE PUSH1 0x0 SWAP3 DUP4 MSTORE DUP2 DUP4 KECCAK256 SWAP1 DUP3 DUP7 ADD JUMPDEST DUP6 DUP6 LT PUSH2 0x447 JUMPI PUSH1 0x40 MLOAD DUP1 PUSH2 0x443 DUP10 DUP3 PUSH2 0x4485 JUMP JUMPDEST SUB SWAP1 RETURN JUMPDEST PUSH1 0x5 DUP5 PUSH1 0x1 SWAP3 PUSH1 0x40 MLOAD PUSH2 0x459 DUP2 PUSH2 0x421F JUMP JUMPDEST PUSH1 0x40 MLOAD PUSH2 0x46A DUP2 PUSH2 0x3C1 DUP2 DUP12 PUSH2 0x43CA JUMP JUMPDEST DUP2 MSTORE PUSH1 0x40 MLOAD PUSH2 0x47F DUP2 PUSH2 0x3C1 DUP2 DUP10 DUP13 ADD PUSH2 0x43CA JUMP JUMPDEST DUP4 DUP3 ADD MSTORE PUSH1 0x40 MLOAD PUSH2 0x496 DUP2 PUSH2 0x3C1 DUP2 DUP11 DUP13 ADD PUSH2 0x43CA JUMP JUMPDEST PUSH1 0x40 DUP3 ADD MSTORE DUP5 DUP1 PUSH1 0xA0 SHL SUB DUP13 DUP9 ADD SLOAD AND PUSH1 0x60 DUP3 ADD MSTORE PUSH1 0x4 DUP8 ADD SLOAD PUSH1 0x80 DUP3 ADD MSTORE DUP2 MSTORE ADD SWAP4 ADD SWAP5 ADD SWAP4 SWAP2 PUSH2 0x42E JUMP JUMPDEST SWAP1 PUSH2 0x4E6 PUSH1 0x40 MLOAD SWAP3 DUP4 SWAP3 PUSH4 0xF855236D PUSH1 0xE0 SHL DUP5 MSTORE PUSH1 0x4 DUP5 ADD MSTORE PUSH1 0x24 DUP4 ADD SWAP1 PUSH2 0x4460 JUMP JUMPDEST SUB SWAP1 REVERT JUMPDEST SWAP1 POP ISZERO DUP6 PUSH2 0x3DE JUMP JUMPDEST CALLVALUE PUSH2 0x353 JUMPI PUSH2 0x501 CALLDATASIZE PUSH2 0x4312 JUMP JUMPDEST PUSH2 0x509 PUSH2 0x4638 JUMP JUMPDEST PUSH2 0x512 DUP3 PUSH2 0x45B7 JUMP JUMPDEST ISZERO PUSH2 0x341 JUMPI PUSH2 0x318 PUSH32 0x4614600ADAEA632B1E4C381AD24471DAB7B587DCA104C8DD4DA76BC64F19716F SWAP2 PUSH1 0x0 DUP1 MLOAD PUSH1 0x20 PUSH2 0x538E DUP4 CODECOPY DUP2 MLOAD SWAP2 MSTORE DUP1 PUSH1 0x0 MSTORE PUSH1 0x0 PUSH1 0x20 MSTORE PUSH2 0x565 PUSH1 0x1 PUSH1 0x40 PUSH1 0x0 KECCAK256 ADD SLOAD PUSH2 0x4690 JUMP JUMPDEST PUSH2 0x56E DUP6 PUSH2 0x4BC0 JUMP JUMPDEST POP PUSH1 0x0 MSTORE PUSH1 0x4 PUSH1 0x20 MSTORE PUSH1 0x40 PUSH1 0x0 KECCAK256 DUP1 SLOAD DUP1 PUSH2 0x599 JUMPI POP POP PUSH1 0x40 MLOAD SWAP2 DUP3 SWAP2 PUSH1 0x40 DUP4 MSTORE PUSH1 0x40 DUP4 ADD SWAP1 PUSH2 0x4460 JUMP JUMPDEST PUSH2 0x5A2 SWAP1 PUSH2 0x50F7 JUMP JUMPDEST SWAP1 SSTORE DUP5 DUP1 PUSH2 0x302 JUMP JUMPDEST CALLVALUE PUSH2 0x353 JUMPI PUSH1 0x80 CALLDATASIZE PUSH1 0x3 NOT ADD SLT PUSH2 0x353 JUMPI PUSH1 0x1 PUSH1 0x1 PUSH1 0x40 SHL SUB PUSH1 0x4 CALLDATALOAD DUP2 DUP2 GT PUSH2 0x353 JUMPI PUSH2 0x5DC SWAP1 CALLDATASIZE SWAP1 PUSH1 0x4 ADD PUSH2 0x4276 JUMP JUMPDEST SWAP1 PUSH2 0x5E5 PUSH2 0x41ED JUMP JUMPDEST SWAP1 PUSH1 0x44 CALLDATALOAD DUP2 DUP2 GT PUSH2 0x353 JUMPI PUSH2 0x5FE SWAP1 CALLDATASIZE SWAP1 PUSH1 0x4 ADD PUSH2 0x4276 JUMP JUMPDEST SWAP1 PUSH1 0x64 CALLDATALOAD SWAP1 DUP2 GT PUSH2 0x353 JUMPI PUSH2 0x617 SWAP1 CALLDATASIZE SWAP1 PUSH1 0x4 ADD PUSH2 0x4276 JUMP JUMPDEST SWAP1 PUSH1 0x0 DUP1 MLOAD PUSH1 0x20 PUSH2 0x528E DUP4 CODECOPY DUP2 MLOAD SWAP2 MSTORE PUSH1 0x0 MSTORE PUSH1 0x20 SWAP3 PUSH1 0x0 DUP5 MSTORE PUSH1 0x40 PUSH1 0x0 KECCAK256 CALLER PUSH1 0x0 MSTORE DUP5 MSTORE PUSH1 0xFF PUSH1 0x40 PUSH1 0x0 KECCAK256 SLOAD AND ISZERO PUSH2 0x797 JUMPI PUSH1 0x1 PUSH1 0x1 PUSH1 0xA0 SHL SUB AND DUP1 ISZERO PUSH2 0x785 JUMPI DUP2 MLOAD ISZERO PUSH2 0x773 JUMPI DUP3 MLOAD ISZERO PUSH2 0x761 JUMPI PUSH1 0x40 MLOAD PUSH1 0x1 PUSH1 0xFF PUSH1 0xA DUP9 MLOAD SWAP4 DUP9 DUP2 DUP2 DUP13 ADD SWAP7 PUSH2 0x684 DUP2 DUP4 DUP11 PUSH2 0x4351 JUMP JUMPDEST DUP2 ADD PUSH1 0x2 DUP2 MSTORE SUB ADD SWAP1 KECCAK256 ADD SLOAD PUSH1 0xA0 SHR AND ISZERO ISZERO EQ PUSH2 0x73F JUMPI SWAP4 PUSH2 0x730 SWAP4 SWAP3 PUSH2 0x722 SWAP3 PUSH1 0xA PUSH2 0x6DF DUP5 PUSH32 0x55B00B3C29344A545244B18D70B135E423405427088BD5425F13D690B82310B4 SWAP10 DUP12 PUSH1 0x40 MLOAD SWAP4 DUP5 SWAP3 DUP4 SWAP3 MLOAD SWAP3 DUP4 SWAP2 PUSH2 0x4351 JUMP JUMPDEST DUP2 ADD PUSH1 0x2 DUP2 MSTORE SUB ADD SWAP1 KECCAK256 ADD CALLER PUSH1 0x1 PUSH1 0x1 PUSH1 0x60 SHL SUB PUSH1 0xA0 SHL DUP3 SLOAD AND OR SWAP1 SSTORE PUSH2 0x711 PUSH1 0x40 MLOAD SWAP9 PUSH1 0xA0 DUP11 MSTORE PUSH1 0xA0 DUP11 ADD SWAP1 PUSH2 0x4460 JUMP JUMPDEST SWAP3 DUP9 ADD MSTORE DUP7 DUP3 SUB PUSH1 0x40 DUP9 ADD MSTORE PUSH2 0x4460 JUMP JUMPDEST SWAP1 DUP5 DUP3 SUB PUSH1 0x60 DUP7 ADD MSTORE PUSH2 0x4460 JUMP JUMPDEST SWAP2 TIMESTAMP PUSH1 0x80 DUP3 ADD MSTORE DUP1 CALLER SWAP4 SUB SWAP1 LOG2 STOP JUMPDEST PUSH1 0x40 MLOAD PUSH4 0x2072BB01 PUSH1 0xE1 SHL DUP2 MSTORE PUSH1 0x4 DUP2 ADD DUP7 SWAP1 MSTORE DUP1 PUSH2 0x4E6 PUSH1 0x24 DUP3 ADD DUP10 PUSH2 0x4460 JUMP JUMPDEST PUSH1 0x40 MLOAD PUSH4 0x5DBEF475 PUSH1 0xE0 SHL DUP2 MSTORE PUSH1 0x4 SWAP1 REVERT JUMPDEST PUSH1 0x40 MLOAD PUSH4 0x26813E6F PUSH1 0xE0 SHL DUP2 MSTORE PUSH1 0x4 SWAP1 REVERT JUMPDEST PUSH1 0x40 MLOAD PUSH4 0xBEA3FD2F PUSH1 0xE0 SHL DUP2 MSTORE PUSH1 0x4 SWAP1 REVERT JUMPDEST PUSH1 0x40 MLOAD PUSH4 0x568555F PUSH1 0xE4 SHL DUP2 MSTORE CALLER PUSH1 0x4 DUP3 ADD MSTORE PUSH1 0x24 SWAP1 REVERT JUMPDEST CALLVALUE PUSH2 0x353 JUMPI PUSH2 0x7BD CALLDATASIZE PUSH2 0x4312 JUMP JUMPDEST PUSH2 0x7C5 PUSH2 0x4638 JUMP JUMPDEST PUSH2 0x7CE DUP3 PUSH2 0x460D JUMP JUMPDEST ISZERO PUSH2 0x341 JUMPI PUSH2 0x318 PUSH32 0x352E14C53D161E2481E65145B53265D1608F979A93A06DF66D4C99B2A84DDC63 SWAP2 PUSH1 0x0 DUP1 MLOAD PUSH1 0x20 PUSH2 0x52AE DUP4 CODECOPY DUP2 MLOAD SWAP2 MSTORE DUP1 PUSH1 0x0 MSTORE PUSH1 0x0 PUSH1 0x20 MSTORE PUSH2 0x821 PUSH1 0x1 PUSH1 0x40 PUSH1 0x0 KECCAK256 ADD SLOAD PUSH2 0x4690 JUMP JUMPDEST PUSH2 0x56E DUP6 PUSH2 0x4B4B JUMP JUMPDEST CALLVALUE PUSH2 0x353 JUMPI PUSH1 0x0 CALLDATASIZE PUSH1 0x3 NOT ADD SLT PUSH2 0x353 JUMPI PUSH1 0x20 PUSH1 0x40 MLOAD PUSH1 0x0 DUP1 MLOAD PUSH1 0x20 PUSH2 0x52AE DUP4 CODECOPY DUP2 MLOAD SWAP2 MSTORE DUP2 MSTORE RETURN JUMPDEST CALLVALUE PUSH2 0x353 JUMPI PUSH1 0x20 DUP1 PUSH1 0x3 NOT CALLDATASIZE ADD SLT PUSH2 0x353 JUMPI PUSH1 0x4 CALLDATALOAD PUSH1 0x1 PUSH1 0x1 PUSH1 0x40 SHL SUB DUP2 GT PUSH2 0x353 JUMPI PUSH2 0x884 SWAP1 CALLDATASIZE SWAP1 PUSH1 0x4 ADD PUSH2 0x4276 JUMP JUMPDEST SWAP1 PUSH1 0x40 MLOAD PUSH2 0x3C1 PUSH2 0x8B8 DUP5 MLOAD SWAP3 DUP5 DUP2 DUP2 DUP9 ADD SWAP6 PUSH2 0x8A2 DUP2 DUP4 DUP10 PUSH2 0x4351 JUMP JUMPDEST DUP2 ADD PUSH1 0x2 DUP2 MSTORE SUB ADD SWAP1 KECCAK256 PUSH1 0x40 MLOAD SWAP3 DUP4 DUP1 SWAP3 PUSH2 0x43CA JUMP JUMPDEST DUP3 DUP2 MLOAD SWAP2 ADD KECCAK256 DUP4 MLOAD SWAP1 DUP2 DUP4 KECCAK256 EQ SWAP1 DUP2 ISZERO SWAP2 PUSH2 0x92B JUMPI JUMPDEST POP PUSH2 0x908 JUMPI PUSH1 0xA PUSH2 0x8EE DUP4 PUSH1 0xFF SWAP4 DUP7 PUSH1 0x40 MLOAD SWAP4 DUP5 SWAP3 DUP4 SWAP3 MLOAD SWAP3 DUP4 SWAP2 PUSH2 0x4351 JUMP JUMPDEST DUP2 ADD PUSH1 0x2 DUP2 MSTORE SUB ADD SWAP1 KECCAK256 ADD SLOAD PUSH1 0xB8 SHR AND PUSH1 0x40 MLOAD SWAP1 ISZERO ISZERO DUP2 MSTORE RETURN JUMPDEST POP PUSH2 0x4E6 PUSH1 0x40 MLOAD SWAP3 DUP4 SWAP3 PUSH4 0xF855236D PUSH1 0xE0 SHL DUP5 MSTORE PUSH1 0x4 DUP5 ADD MSTORE PUSH1 0x24 DUP4 ADD SWAP1 PUSH2 0x4460 JUMP JUMPDEST SWAP1 POP ISZERO DUP5 PUSH2 0x8CE JUMP JUMPDEST CALLVALUE PUSH2 0x353 JUMPI PUSH1 0x20 DUP1 PUSH1 0x3 NOT CALLDATASIZE ADD SLT PUSH2 0x353 JUMPI PUSH1 0x1 PUSH1 0x1 PUSH1 0xA0 SHL SUB PUSH2 0x956 PUSH2 0x41D7 JUMP JUMPDEST AND DUP1 ISZERO PUSH2 0xE49 JUMPI PUSH1 0x0 SWAP1 PUSH1 0x0 DUP1 MSTORE PUSH1 0x0 DUP4 MSTORE PUSH1 0x40 PUSH1 0x0 KECCAK256 DUP2 PUSH1 0x0 MSTORE DUP4 MSTORE PUSH1 0xFF DUP1 PUSH1 0x40 PUSH1 0x0 KECCAK256 SLOAD AND PUSH2 0xE40 JUMPI JUMPDEST PUSH1 0x0 DUP1 MLOAD PUSH1 0x20 PUSH2 0x534E DUP4 CODECOPY DUP2 MLOAD SWAP2 MSTORE SWAP2 DUP3 PUSH1 0x0 MSTORE PUSH1 0x0 DUP6 MSTORE PUSH1 0x40 PUSH1 0x0 KECCAK256 DUP2 PUSH1 0x0 MSTORE DUP6 MSTORE DUP2 PUSH1 0x40 PUSH1 0x0 KECCAK256 SLOAD AND PUSH2 0xE30 JUMPI JUMPDEST PUSH1 0x0 DUP1 MLOAD PUSH1 0x20 PUSH2 0x538E DUP4 CODECOPY DUP2 MLOAD SWAP2 MSTORE DUP1 PUSH1 0x0 MSTORE PUSH1 0x0 DUP7 MSTORE PUSH1 0x40 PUSH1 0x0 KECCAK256 DUP3 PUSH1 0x0 MSTORE DUP7 MSTORE DUP3 PUSH1 0x40 PUSH1 0x0 KECCAK256 SLOAD AND PUSH2 0xE20 JUMPI JUMPDEST PUSH1 0x0 DUP1 MLOAD PUSH1 0x20 PUSH2 0x528E DUP4 CODECOPY DUP2 MLOAD SWAP2 MSTORE DUP1 PUSH1 0x0 MSTORE PUSH1 0x0 DUP8 MSTORE PUSH1 0x40 PUSH1 0x0 KECCAK256 DUP4 PUSH1 0x0 MSTORE DUP8 MSTORE DUP4 PUSH1 0x40 PUSH1 0x0 KECCAK256 SLOAD AND PUSH2 0xE10 JUMPI JUMPDEST PUSH1 0x0 DUP1 MLOAD PUSH1 0x20 PUSH2 0x536E DUP4 CODECOPY DUP2 MLOAD SWAP2 MSTORE DUP1 PUSH1 0x0 MSTORE PUSH1 0x0 DUP9 MSTORE PUSH1 0x40 PUSH1 0x0 KECCAK256 DUP5 PUSH1 0x0 MSTORE DUP9 MSTORE DUP5 PUSH1 0x40 PUSH1 0x0 KECCAK256 SLOAD AND PUSH2 0xE00 JUMPI JUMPDEST PUSH1 0x0 DUP1 MLOAD PUSH1 0x20 PUSH2 0x52AE DUP4 CODECOPY DUP2 MLOAD SWAP2 MSTORE SWAP2 DUP3 PUSH1 0x0 MSTORE PUSH1 0x0 DUP10 MSTORE PUSH1 0x40 PUSH1 0x0 KECCAK256 DUP6 PUSH1 0x0 MSTORE DUP10 MSTORE DUP6 PUSH1 0x40 PUSH1 0x0 KECCAK256 SLOAD AND PUSH2 0xDF0 JUMPI JUMPDEST PUSH1 0x0 DUP1 MLOAD PUSH1 0x20 PUSH2 0x532E DUP4 CODECOPY DUP2 MLOAD SWAP2 MSTORE SWAP4 DUP5 PUSH1 0x0 MSTORE PUSH1 0x0 DUP11 MSTORE PUSH1 0x40 PUSH1 0x0 KECCAK256 DUP7 PUSH1 0x0 MSTORE DUP11 MSTORE DUP7 PUSH1 0x40 PUSH1 0x0 KECCAK256 SLOAD AND PUSH2 0xDE0 JUMPI JUMPDEST PUSH2 0xAA8 DUP10 PUSH2 0x5104 JUMP JUMPDEST SWAP9 PUSH2 0xAB6 PUSH1 0x40 MLOAD SWAP11 DUP12 PUSH2 0x4255 JUMP JUMPDEST DUP1 DUP11 MSTORE PUSH2 0xAC5 PUSH1 0x1F NOT SWAP2 PUSH2 0x5104 JUMP JUMPDEST ADD DUP11 DUP11 PUSH1 0x0 JUMPDEST DUP4 DUP2 LT PUSH2 0xDCF JUMPI POP POP POP POP PUSH1 0x0 SWAP8 PUSH1 0x0 DUP1 MSTORE PUSH1 0x0 DUP12 MSTORE PUSH1 0x40 PUSH1 0x0 KECCAK256 DUP8 PUSH1 0x0 MSTORE DUP12 MSTORE DUP8 PUSH1 0x40 PUSH1 0x0 KECCAK256 SLOAD AND PUSH2 0xD94 JUMPI JUMPDEST PUSH1 0x0 MSTORE PUSH1 0x0 DUP11 MSTORE PUSH1 0x40 PUSH1 0x0 KECCAK256 DUP7 PUSH1 0x0 MSTORE DUP11 MSTORE DUP7 PUSH1 0x40 PUSH1 0x0 KECCAK256 SLOAD AND PUSH2 0xD57 JUMPI JUMPDEST PUSH1 0x0 MSTORE PUSH1 0x0 DUP10 MSTORE PUSH1 0x40 PUSH1 0x0 KECCAK256 DUP6 PUSH1 0x0 MSTORE DUP10 MSTORE DUP6 PUSH1 0x40 PUSH1 0x0 KECCAK256 SLOAD AND PUSH2 0xD18 JUMPI JUMPDEST PUSH1 0x0 MSTORE PUSH1 0x0 DUP9 MSTORE PUSH1 0x40 PUSH1 0x0 KECCAK256 DUP5 PUSH1 0x0 MSTORE DUP9 MSTORE DUP5 PUSH1 0x40 PUSH1 0x0 KECCAK256 SLOAD AND PUSH2 0xCD5 JUMPI JUMPDEST PUSH1 0x0 MSTORE PUSH1 0x0 DUP8 MSTORE PUSH1 0x40 PUSH1 0x0 KECCAK256 DUP4 PUSH1 0x0 MSTORE DUP8 MSTORE DUP4 PUSH1 0x40 PUSH1 0x0 KECCAK256 SLOAD AND PUSH2 0xC96 JUMPI JUMPDEST PUSH1 0x0 MSTORE PUSH1 0x0 DUP7 MSTORE PUSH1 0x40 PUSH1 0x0 KECCAK256 DUP3 PUSH1 0x0 MSTORE DUP7 MSTORE DUP3 PUSH1 0x40 PUSH1 0x0 KECCAK256 SLOAD AND PUSH2 0xC55 JUMPI JUMPDEST PUSH1 0x0 MSTORE PUSH1 0x0 DUP6 MSTORE PUSH1 0x40 PUSH1 0x0 KECCAK256 SWAP1 PUSH1 0x0 MSTORE DUP5 MSTORE PUSH1 0x40 PUSH1 0x0 KECCAK256 SLOAD AND PUSH2 0xC12 JUMPI JUMPDEST POP PUSH1 0x40 MLOAD SWAP1 DUP3 DUP3 ADD SWAP3 DUP1 DUP4 MSTORE DUP2 MLOAD DUP1 SWAP5 MSTORE PUSH1 0x40 DUP4 ADD SWAP4 DUP2 PUSH1 0x40 DUP3 PUSH1 0x5 SHL DUP7 ADD ADD SWAP4 ADD SWAP2 PUSH1 0x0 SWAP6 JUMPDEST DUP3 DUP8 LT PUSH2 0xBE6 JUMPI DUP6 DUP6 SUB DUP7 RETURN JUMPDEST SWAP1 SWAP2 SWAP3 SWAP4 DUP3 DUP1 PUSH2 0xC02 PUSH1 0x1 SWAP4 PUSH1 0x3F NOT DUP11 DUP3 SUB ADD DUP7 MSTORE DUP9 MLOAD PUSH2 0x4460 JUMP JUMPDEST SWAP7 ADD SWAP3 ADD SWAP7 ADD SWAP6 SWAP3 SWAP2 SWAP1 SWAP3 PUSH2 0xBD9 JUMP JUMPDEST PUSH2 0xC4E SWAP1 PUSH1 0x40 MLOAD PUSH2 0xC22 DUP2 PUSH2 0x423A JUMP JUMPDEST PUSH1 0x5 DUP2 MSTORE PUSH5 0x212AACA2A9 PUSH1 0xD9 SHL DUP6 DUP3 ADD MSTORE PUSH2 0xC3D DUP3 DUP6 PUSH2 0x5128 JUMP JUMPDEST MSTORE PUSH2 0xC48 DUP2 DUP5 PUSH2 0x5128 JUMP JUMPDEST POP PUSH2 0x50E8 JUMP JUMPDEST POP DUP3 PUSH2 0xBB2 JUMP JUMPDEST SWAP3 PUSH2 0xC90 SWAP1 PUSH1 0x40 MLOAD PUSH2 0xC66 DUP2 PUSH2 0x423A JUMP JUMPDEST PUSH1 0x9 DUP2 MSTORE PUSH9 0x24A729A822A1AA27A9 PUSH1 0xB9 SHL DUP9 DUP3 ADD MSTORE PUSH2 0xC85 DUP3 DUP9 PUSH2 0x5128 JUMP JUMPDEST MSTORE PUSH2 0xC48 DUP2 DUP8 PUSH2 0x5128 JUMP JUMPDEST SWAP3 PUSH2 0xB94 JUMP JUMPDEST SWAP4 PUSH2 0xCCF SWAP1 PUSH1 0x40 MLOAD PUSH2 0xCA7 DUP2 PUSH2 0x423A JUMP JUMPDEST PUSH1 0x7 DUP2 MSTORE PUSH7 0x20AAA224AA27A9 PUSH1 0xC9 SHL DUP10 DUP3 ADD MSTORE PUSH2 0xCC4 DUP3 DUP10 PUSH2 0x5128 JUMP JUMPDEST MSTORE PUSH2 0xC48 DUP2 DUP9 PUSH2 0x5128 JUMP JUMPDEST SWAP4 PUSH2 0xB75 JUMP JUMPDEST SWAP5 PUSH2 0xD12 SWAP1 PUSH1 0x40 MLOAD PUSH2 0xCE6 DUP2 PUSH2 0x423A JUMP JUMPDEST PUSH1 0xB DUP2 MSTORE PUSH11 0x2A2920A729A827A92A22A9 PUSH1 0xA9 SHL DUP11 DUP3 ADD MSTORE PUSH2 0xD07 DUP3 DUP11 PUSH2 0x5128 JUMP JUMPDEST MSTORE PUSH2 0xC48 DUP2 DUP10 PUSH2 0x5128 JUMP JUMPDEST SWAP5 PUSH2 0xB56 JUMP JUMPDEST SWAP6 PUSH2 0xD51 SWAP1 PUSH1 0x40 MLOAD PUSH2 0xD29 DUP2 PUSH2 0x423A JUMP JUMPDEST PUSH1 0x7 DUP2 MSTORE PUSH7 0x2922A324A722A9 PUSH1 0xC9 SHL DUP12 DUP3 ADD MSTORE PUSH2 0xD46 DUP3 DUP12 PUSH2 0x5128 JUMP JUMPDEST MSTORE PUSH2 0xC48 DUP2 DUP11 PUSH2 0x5128 JUMP JUMPDEST SWAP6 PUSH2 0xB37 JUMP JUMPDEST SWAP7 PUSH2 0xD8E SWAP1 PUSH1 0x40 MLOAD PUSH2 0xD68 DUP2 PUSH2 0x423A JUMP JUMPDEST PUSH1 0x5 DUP2 MSTORE PUSH5 0x26A4A722A9 PUSH1 0xD9 SHL DUP13 DUP3 ADD MSTORE PUSH2 0xD83 DUP3 DUP13 PUSH2 0x5128 JUMP JUMPDEST MSTORE PUSH2 0xC48 DUP2 DUP12 PUSH2 0x5128 JUMP JUMPDEST SWAP7 PUSH2 0xB18 JUMP JUMPDEST SWAP8 POP PUSH1 0x40 MLOAD PUSH2 0xDA2 DUP2 PUSH2 0x423A JUMP JUMPDEST PUSH1 0x5 DUP2 MSTORE PUSH5 0x20A226A4A7 PUSH1 0xD9 SHL DUP12 DUP3 ADD MSTORE PUSH2 0xDBC DUP11 PUSH2 0x511B JUMP JUMPDEST MSTORE PUSH2 0xDC6 DUP10 PUSH2 0x511B JUMP JUMPDEST POP PUSH1 0x1 SWAP8 PUSH2 0xAF9 JUMP JUMPDEST PUSH1 0x60 DUP4 DUP3 DUP2 SWAP5 ADD ADD MSTORE ADD DUP12 SWAP1 PUSH2 0xACB JUMP JUMPDEST SWAP8 PUSH2 0xDEA SWAP1 PUSH2 0x50E8 JUMP JUMPDEST SWAP8 PUSH2 0xA9F JUMP JUMPDEST SWAP7 PUSH2 0xDFA SWAP1 PUSH2 0x50E8 JUMP JUMPDEST SWAP7 PUSH2 0xA6F JUMP JUMPDEST SWAP6 PUSH2 0xE0A SWAP1 PUSH2 0x50E8 JUMP JUMPDEST SWAP6 PUSH2 0xA3F JUMP JUMPDEST SWAP5 PUSH2 0xE1A SWAP1 PUSH2 0x50E8 JUMP JUMPDEST SWAP5 PUSH2 0xA10 JUMP JUMPDEST SWAP4 PUSH2 0xE2A SWAP1 PUSH2 0x50E8 JUMP JUMPDEST SWAP4 PUSH2 0x9E1 JUMP JUMPDEST SWAP3 PUSH2 0xE3A SWAP1 PUSH2 0x50E8 JUMP JUMPDEST SWAP3 PUSH2 0x9B2 JUMP JUMPDEST PUSH1 0x1 SWAP3 POP PUSH2 0x982 JUMP JUMPDEST PUSH1 0x40 MLOAD PUSH4 0x200DB56F PUSH1 0xE1 SHL DUP2 MSTORE PUSH1 0x4 SWAP1 REVERT JUMPDEST CALLVALUE PUSH2 0x353 JUMPI PUSH1 0x20 CALLDATASIZE PUSH1 0x3 NOT ADD SLT PUSH2 0x353 JUMPI PUSH2 0xE74 PUSH2 0x41D7 JUMP JUMPDEST PUSH1 0x1 PUSH1 0x1 PUSH1 0xA0 SHL SUB AND PUSH1 0x0 SWAP1 DUP2 MSTORE PUSH1 0x0 DUP1 MLOAD PUSH1 0x20 PUSH2 0x530E DUP4 CODECOPY DUP2 MLOAD SWAP2 MSTORE PUSH1 0x20 SWAP1 DUP2 MSTORE PUSH1 0x40 SWAP2 DUP3 SWAP1 KECCAK256 SLOAD SWAP2 MLOAD PUSH1 0xFF SWAP1 SWAP3 AND ISZERO ISZERO DUP3 MSTORE SWAP1 RETURN JUMPDEST CALLVALUE PUSH2 0x353 JUMPI PUSH1 0x40 CALLDATASIZE PUSH1 0x3 NOT ADD SLT PUSH2 0x353 JUMPI PUSH2 0xEEA PUSH1 0x4 CALLDATALOAD PUSH2 0xECA PUSH2 0x41ED JUMP JUMPDEST SWAP1 DUP1 PUSH1 0x0 MSTORE PUSH1 0x0 PUSH1 0x20 MSTORE PUSH2 0xEE5 PUSH1 0x1 PUSH1 0x40 PUSH1 0x0 KECCAK256 ADD SLOAD PUSH2 0x4690 JUMP JUMPDEST PUSH2 0x4CAA JUMP JUMPDEST STOP JUMPDEST CALLVALUE PUSH2 0x353 JUMPI PUSH1 0x20 CALLDATASIZE PUSH1 0x3 NOT ADD SLT PUSH2 0x353 JUMPI PUSH2 0xF05 PUSH2 0x41D7 JUMP JUMPDEST PUSH1 0x1 PUSH1 0x1 PUSH1 0xA0 SHL SUB DUP2 AND SWAP1 DUP2 ISZERO PUSH2 0xE49 JUMPI PUSH2 0xF1E PUSH2 0x4638 JUMP JUMPDEST PUSH2 0xF27 DUP2 PUSH2 0x460D JUMP JUMPDEST PUSH2 0xFA6 JUMPI PUSH2 0xF34 SWAP1 PUSH2 0x490E JUMP JUMPDEST POP PUSH1 0x0 DUP1 MLOAD PUSH1 0x20 PUSH2 0x52AE DUP4 CODECOPY DUP2 MLOAD SWAP2 MSTORE PUSH1 0x0 MSTORE PUSH1 0x4 PUSH1 0x20 MSTORE PUSH32 0x9D423956391424A558206D539D4C7B96F2596F9D71B6FE92EFE1F071A870BA94 DUP1 SLOAD PUSH2 0xF78 SWAP1 PUSH2 0x50E8 JUMP JUMPDEST SWAP1 SSTORE PUSH32 0x49CC27C2A068C01CF703C3923DFC679109B5F6C27BD1F61B542C159E3A73E092 PUSH1 0x20 PUSH1 0x40 MLOAD TIMESTAMP DUP2 MSTORE LOG2 STOP JUMPDEST PUSH1 0x40 MLOAD PUSH4 0x14726DE5 PUSH1 0xE2 SHL DUP2 MSTORE PUSH1 0x4 SWAP1 REVERT JUMPDEST CALLVALUE PUSH2 0x353 JUMPI PUSH1 0x20 CALLDATASIZE PUSH1 0x3 NOT ADD SLT PUSH2 0x353 JUMPI PUSH1 0x4 CALLDATALOAD PUSH1 0x0 DUP1 MLOAD PUSH1 0x20 PUSH2 0x534E DUP4 CODECOPY DUP2 MLOAD SWAP2 MSTORE DUP2 EQ DUP1 ISZERO PUSH2 0x108B JUMPI JUMPDEST DUP1 ISZERO PUSH2 0x1074 JUMPI JUMPDEST DUP1 ISZERO PUSH2 0x105D JUMPI JUMPDEST DUP1 ISZERO PUSH2 0x1046 JUMPI JUMPDEST DUP1 ISZERO PUSH2 0x102F JUMPI JUMPDEST ISZERO PUSH2 0x101D JUMPI PUSH1 0x0 MSTORE PUSH1 0x4 PUSH1 0x20 MSTORE PUSH1 0x20 PUSH1 0x40 PUSH1 0x0 KECCAK256 SLOAD PUSH1 0x40 MLOAD SWAP1 DUP2 MSTORE RETURN JUMPDEST PUSH1 0x40 MLOAD PUSH4 0x6B9C4611 PUSH1 0xE0 SHL DUP2 MSTORE PUSH1 0x4 SWAP1 REVERT JUMPDEST POP PUSH1 0x0 DUP1 MLOAD PUSH1 0x20 PUSH2 0x532E DUP4 CODECOPY DUP2 MLOAD SWAP2 MSTORE DUP2 EQ PUSH2 0x1000 JUMP JUMPDEST POP PUSH1 0x0 DUP1 MLOAD PUSH1 0x20 PUSH2 0x52AE DUP4 CODECOPY DUP2 MLOAD SWAP2 MSTORE DUP2 EQ PUSH2 0xFF9 JUMP JUMPDEST POP PUSH1 0x0 DUP1 MLOAD PUSH1 0x20 PUSH2 0x536E DUP4 CODECOPY DUP2 MLOAD SWAP2 MSTORE DUP2 EQ PUSH2 0xFF2 JUMP JUMPDEST POP PUSH1 0x0 DUP1 MLOAD PUSH1 0x20 PUSH2 0x528E DUP4 CODECOPY DUP2 MLOAD SWAP2 MSTORE DUP2 EQ PUSH2 0xFEB JUMP JUMPDEST POP PUSH1 0x0 DUP1 MLOAD PUSH1 0x20 PUSH2 0x538E DUP4 CODECOPY DUP2 MLOAD SWAP2 MSTORE DUP2 EQ PUSH2 0xFE4 JUMP JUMPDEST CALLVALUE PUSH2 0x353 JUMPI PUSH1 0x20 CALLDATASIZE PUSH1 0x3 NOT ADD SLT PUSH2 0x353 JUMPI PUSH2 0x10BB PUSH2 0x41D7 JUMP JUMPDEST PUSH1 0x1 PUSH1 0x1 PUSH1 0xA0 SHL SUB AND PUSH1 0x0 SWAP1 DUP2 MSTORE PUSH32 0xAD3228B676F7D3CD4284A5443F17F1962B36E491B30A40B2405849E597BA5FB5 PUSH1 0x20 SWAP1 DUP2 MSTORE PUSH1 0x40 SWAP2 DUP3 SWAP1 KECCAK256 SLOAD SWAP2 MLOAD PUSH1 0xFF SWAP1 SWAP3 AND ISZERO ISZERO DUP3 MSTORE SWAP1 RETURN JUMPDEST CALLVALUE PUSH2 0x353 JUMPI PUSH1 0x20 CALLDATASIZE PUSH1 0x3 NOT ADD SLT PUSH2 0x353 JUMPI PUSH2 0x111D PUSH2 0x41D7 JUMP JUMPDEST PUSH1 0x1 PUSH1 0x1 PUSH1 0xA0 SHL SUB AND PUSH1 0x0 SWAP1 DUP2 MSTORE PUSH1 0x0 DUP1 MLOAD PUSH1 0x20 PUSH2 0x524E DUP4 CODECOPY DUP2 MLOAD SWAP2 MSTORE PUSH1 0x20 SWAP1 DUP2 MSTORE PUSH1 0x40 SWAP2 DUP3 SWAP1 KECCAK256 SLOAD SWAP2 MLOAD PUSH1 0xFF SWAP1 SWAP3 AND ISZERO ISZERO DUP3 MSTORE SWAP1 RETURN JUMPDEST CALLVALUE PUSH2 0x353 JUMPI PUSH1 0x0 CALLDATASIZE PUSH1 0x3 NOT ADD SLT PUSH2 0x353 JUMPI PUSH1 0x4 PUSH1 0x20 SWAP1 DUP2 MSTORE PUSH32 0x973CCC145476EF147B966A44694F8B2D26BAC5A3D44A844FEC6BE696FE5FEA70 SLOAD PUSH32 0x2FF85B9F193A3A7824CBAF5A79DB262C0BAC955152ADF2752C6413D76B2D3C7 SLOAD PUSH32 0xE08E55C6329CA2D4F38429C472032B4E97537C869A64C376BB7E702721EB8C3 SLOAD PUSH32 0xA792FA383E6BD9C6B4465BBFD8031F4B47377210FA121067C03906E9AFAC6246 SLOAD PUSH32 0x9D423956391424A558206D539D4C7B96F2596F9D71B6FE92EFE1F071A870BA94 SLOAD PUSH1 0x0 DUP1 MLOAD PUSH1 0x20 PUSH2 0x532E DUP4 CODECOPY DUP2 MLOAD SWAP2 MSTORE PUSH1 0x0 MSTORE PUSH32 0x5455BA4B8A75B33FA0F1F7AFFD9817680912F06B7B194BCF9AC01183C4930020 SLOAD PUSH1 0x40 DUP1 MLOAD SWAP7 DUP8 MSTORE SWAP7 DUP7 ADD SWAP5 SWAP1 SWAP5 MSTORE SWAP5 DUP5 ADD SWAP2 SWAP1 SWAP2 MSTORE PUSH1 0x60 DUP4 ADD MSTORE PUSH1 0x80 DUP3 ADD SWAP3 SWAP1 SWAP3 MSTORE PUSH1 0xA0 DUP2 ADD SWAP2 SWAP1 SWAP2 MSTORE PUSH1 0xC0 SWAP1 RETURN JUMPDEST CALLVALUE PUSH2 0x353 JUMPI PUSH1 0x20 CALLDATASIZE PUSH1 0x3 NOT ADD SLT PUSH2 0x353 JUMPI PUSH1 0x4 CALLDATALOAD PUSH1 0x0 MSTORE PUSH1 0x4 PUSH1 0x20 MSTORE PUSH1 0x20 PUSH1 0x40 PUSH1 0x0 KECCAK256 SLOAD PUSH1 0x40 MLOAD SWAP1 DUP2 MSTORE RETURN JUMPDEST CALLVALUE PUSH2 0x353 JUMPI PUSH1 0x20 DUP1 PUSH1 0x3 NOT CALLDATASIZE ADD SLT PUSH2 0x353 JUMPI PUSH1 0x4 CALLDATALOAD PUSH1 0x1 PUSH1 0x1 PUSH1 0x40 SHL SUB DUP2 GT PUSH2 0x353 JUMPI PUSH2 0x12D6 SWAP1 CALLDATASIZE SWAP1 PUSH1 0x4 ADD PUSH2 0x4276 JUMP JUMPDEST DUP1 MLOAD ISZERO PUSH2 0x4C3 JUMPI PUSH1 0x40 MLOAD PUSH2 0x3C1 PUSH2 0x12FA DUP4 MLOAD SWAP3 DUP6 DUP2 DUP2 DUP8 ADD SWAP6 PUSH2 0x8A2 DUP2 DUP4 DUP10 PUSH2 0x4351 JUMP JUMPDEST DUP4 DUP2 MLOAD SWAP2 ADD KECCAK256 SWAP1 DUP3 MLOAD SWAP1 KECCAK256 SUB PUSH2 0x1314 JUMPI POP PUSH1 0x40 MLOAD PUSH1 0x1 DUP2 MSTORE RETURN JUMPDEST SWAP1 PUSH2 0x4E6 PUSH1 0x40 MLOAD SWAP3 DUP4 SWAP3 PUSH4 0x11BB0BC9 PUSH1 0xE3 SHL DUP5 MSTORE PUSH1 0x4 DUP5 ADD MSTORE PUSH1 0x24 DUP4 ADD SWAP1 PUSH2 0x4460 JUMP JUMPDEST CALLVALUE PUSH2 0x353 JUMPI PUSH1 0x20 CALLDATASIZE PUSH1 0x3 NOT ADD SLT PUSH2 0x353 JUMPI PUSH2 0x1350 PUSH2 0x41D7 JUMP JUMPDEST PUSH1 0x1 PUSH1 0x1 PUSH1 0xA0 SHL SUB AND PUSH1 0x0 SWAP1 DUP2 MSTORE PUSH1 0x0 DUP1 MLOAD PUSH1 0x20 PUSH2 0x520E DUP4 CODECOPY DUP2 MLOAD SWAP2 MSTORE PUSH1 0x20 SWAP1 DUP2 MSTORE PUSH1 0x40 SWAP2 DUP3 SWAP1 KECCAK256 SLOAD SWAP2 MLOAD PUSH1 0xFF SWAP1 SWAP3 AND ISZERO ISZERO DUP3 MSTORE SWAP1 RETURN JUMPDEST CALLVALUE PUSH2 0x353 JUMPI PUSH1 0x20 CALLDATASIZE PUSH1 0x3 NOT ADD SLT PUSH2 0x353 JUMPI PUSH2 0x13A0 PUSH2 0x41D7 JUMP JUMPDEST PUSH1 0x1 PUSH1 0x1 PUSH1 0xA0 SHL SUB DUP2 AND SWAP1 DUP2 ISZERO PUSH2 0xE49 JUMPI PUSH2 0x13B9 PUSH2 0x4638 JUMP JUMPDEST PUSH2 0x13C2 DUP2 PUSH2 0x45E2 JUMP JUMPDEST PUSH2 0xFA6 JUMPI PUSH2 0x13CF SWAP1 PUSH2 0x4897 JUMP JUMPDEST POP PUSH1 0x0 DUP1 MLOAD PUSH1 0x20 PUSH2 0x528E DUP4 CODECOPY DUP2 MLOAD SWAP2 MSTORE PUSH1 0x0 MSTORE PUSH1 0x4 PUSH1 0x20 MSTORE PUSH32 0xE08E55C6329CA2D4F38429C472032B4E97537C869A64C376BB7E702721EB8C3 DUP1 SLOAD PUSH2 0x1413 SWAP1 PUSH2 0x50E8 JUMP JUMPDEST SWAP1 SSTORE PUSH32 0x964E50CB3BDB84C00A30F56AE15D538D23DC6DB14F891D7D819761B161E990A6 PUSH1 0x20 PUSH1 0x40 MLOAD TIMESTAMP DUP2 MSTORE LOG2 STOP JUMPDEST CALLVALUE PUSH2 0x353 JUMPI PUSH1 0x20 CALLDATASIZE PUSH1 0x3 NOT ADD SLT PUSH2 0x353 JUMPI PUSH1 0x4 CALLDATALOAD PUSH1 0x1 PUSH1 0x1 PUSH1 0x40 SHL SUB DUP2 GT PUSH2 0x353 JUMPI PUSH2 0x1471 SWAP1 CALLDATASIZE SWAP1 PUSH1 0x4 ADD PUSH2 0x4276 JUMP JUMPDEST PUSH1 0x0 PUSH2 0x1E0 PUSH1 0x40 MLOAD PUSH2 0x1482 DUP2 PUSH2 0x4203 JUMP JUMPDEST PUSH1 0x60 DUP2 MSTORE PUSH1 0x60 PUSH1 0x20 DUP3 ADD MSTORE PUSH1 0x60 PUSH1 0x40 DUP3 ADD MSTORE PUSH1 0x60 DUP1 DUP3 ADD MSTORE DUP3 PUSH1 0x80 DUP3 ADD MSTORE DUP3 PUSH1 0xA0 DUP3 ADD MSTORE PUSH1 0x60 PUSH1 0xC0 DUP3 ADD MSTORE DUP3 PUSH1 0xE0 DUP3 ADD MSTORE PUSH1 0x60 PUSH2 0x100 DUP3 ADD MSTORE PUSH1 0x60 PUSH2 0x120 DUP3 ADD MSTORE DUP3 PUSH2 0x140 DUP3 ADD MSTORE DUP3 PUSH2 0x160 DUP3 ADD MSTORE DUP3 PUSH2 0x180 DUP3 ADD MSTORE DUP3 PUSH2 0x1A0 DUP3 ADD MSTORE DUP3 PUSH2 0x1C0 DUP3 ADD MSTORE ADD MSTORE PUSH1 0x40 MLOAD SWAP1 PUSH2 0x3C1 PUSH2 0x1507 DUP3 MLOAD SWAP4 PUSH1 0x20 DUP2 DUP2 DUP7 ADD SWAP7 PUSH2 0x8A2 DUP2 DUP4 DUP11 PUSH2 0x4351 JUMP JUMPDEST PUSH1 0x20 DUP2 MLOAD SWAP2 ADD KECCAK256 DUP2 MLOAD SWAP1 DUP2 DUP5 KECCAK256 EQ SWAP1 DUP2 ISZERO SWAP2 PUSH2 0x17DD JUMPI JUMPDEST POP PUSH2 0x17B8 JUMPI PUSH2 0x153B SWAP2 PUSH1 0x20 SWAP2 PUSH1 0x40 MLOAD SWAP4 DUP5 SWAP3 DUP4 SWAP3 MLOAD SWAP3 DUP4 SWAP2 PUSH2 0x4351 JUMP JUMPDEST DUP2 ADD PUSH1 0x2 DUP2 MSTORE SUB ADD SWAP1 KECCAK256 PUSH1 0xB PUSH1 0x40 MLOAD SWAP2 PUSH2 0x1554 DUP4 PUSH2 0x4203 JUMP JUMPDEST PUSH1 0x40 MLOAD PUSH2 0x1565 DUP2 PUSH2 0x3C1 DUP2 DUP6 PUSH2 0x43CA JUMP JUMPDEST DUP4 MSTORE PUSH1 0x40 MLOAD PUSH2 0x157B DUP2 PUSH2 0x3C1 DUP2 PUSH1 0x1 DUP7 ADD PUSH2 0x43CA JUMP JUMPDEST PUSH1 0x20 DUP5 ADD MSTORE PUSH1 0x40 MLOAD PUSH2 0x1594 DUP2 PUSH2 0x3C1 DUP2 PUSH1 0x2 DUP7 ADD PUSH2 0x43CA JUMP JUMPDEST PUSH1 0x40 DUP5 ADD MSTORE PUSH1 0x40 MLOAD PUSH2 0x15AD DUP2 PUSH2 0x3C1 DUP2 PUSH1 0x3 DUP7 ADD PUSH2 0x43CA JUMP JUMPDEST PUSH1 0x60 DUP5 ADD MSTORE PUSH1 0x4 DUP2 ADD SLOAD PUSH1 0x80 DUP5 ADD MSTORE PUSH1 0x5 DUP2 ADD SLOAD PUSH1 0xA0 DUP5 ADD MSTORE PUSH1 0x40 MLOAD PUSH2 0x15DA DUP2 PUSH2 0x3C1 DUP2 PUSH1 0x6 DUP7 ADD PUSH2 0x43CA JUMP JUMPDEST PUSH1 0xC0 DUP5 ADD MSTORE PUSH1 0x7 DUP2 ADD SLOAD PUSH1 0x1 PUSH1 0x1 PUSH1 0xA0 SHL SUB AND PUSH1 0xE0 DUP5 ADD MSTORE PUSH1 0x40 MLOAD PUSH2 0x1606 DUP2 PUSH2 0x3C1 DUP2 PUSH1 0x8 DUP7 ADD PUSH2 0x43CA JUMP JUMPDEST PUSH2 0x100 DUP5 ADD MSTORE PUSH1 0x40 MLOAD PUSH2 0x1620 DUP2 PUSH2 0x3C1 DUP2 PUSH1 0x9 DUP7 ADD PUSH2 0x43CA JUMP JUMPDEST PUSH2 0x120 DUP5 ADD MSTORE PUSH1 0xFF PUSH1 0xA DUP3 ADD SLOAD PUSH1 0x1 DUP1 PUSH1 0xA0 SHL SUB DUP2 AND PUSH2 0x140 DUP7 ADD MSTORE DUP2 DUP2 PUSH1 0xA0 SHR AND ISZERO ISZERO PUSH2 0x160 DUP7 ADD MSTORE DUP2 DUP2 PUSH1 0xA8 SHR AND ISZERO ISZERO PUSH2 0x180 DUP7 ADD MSTORE DUP2 DUP2 PUSH1 0xB0 SHR AND ISZERO ISZERO PUSH2 0x1A0 DUP7 ADD MSTORE PUSH1 0xB8 SHR AND ISZERO ISZERO PUSH2 0x1C0 DUP5 ADD MSTORE ADD SLOAD PUSH2 0x1E0 DUP3 ADD MSTORE PUSH1 0x40 MLOAD DUP1 SWAP2 PUSH1 0x20 DUP3 MSTORE PUSH2 0x1E0 PUSH2 0x1761 PUSH2 0x1749 PUSH2 0x171C PUSH2 0x16F2 PUSH2 0x16DC PUSH2 0x16C6 PUSH2 0x16B0 DUP9 MLOAD PUSH2 0x200 PUSH1 0x20 DUP13 ADD MSTORE PUSH2 0x220 DUP12 ADD SWAP1 PUSH2 0x4460 JUMP JUMPDEST PUSH1 0x20 DUP10 ADD MLOAD DUP11 DUP3 SUB PUSH1 0x1F NOT ADD PUSH1 0x40 DUP13 ADD MSTORE PUSH2 0x4460 JUMP JUMPDEST PUSH1 0x40 DUP9 ADD MLOAD DUP10 DUP3 SUB PUSH1 0x1F NOT ADD PUSH1 0x60 DUP12 ADD MSTORE PUSH2 0x4460 JUMP JUMPDEST PUSH1 0x60 DUP8 ADD MLOAD DUP9 DUP3 SUB PUSH1 0x1F NOT ADD PUSH1 0x80 DUP11 ADD MSTORE PUSH2 0x4460 JUMP JUMPDEST PUSH1 0x80 DUP7 ADD MLOAD PUSH1 0xA0 DUP9 ADD MSTORE PUSH1 0xA0 DUP7 ADD MLOAD PUSH1 0xC0 DUP9 ADD MSTORE PUSH1 0xC0 DUP7 ADD MLOAD PUSH1 0x1F NOT DUP9 DUP4 SUB ADD PUSH1 0xE0 DUP10 ADD MSTORE PUSH2 0x4460 JUMP JUMPDEST PUSH1 0xE0 DUP6 ADD MLOAD PUSH1 0x1 PUSH1 0x1 PUSH1 0xA0 SHL SUB AND PUSH2 0x100 DUP8 DUP2 ADD SWAP2 SWAP1 SWAP2 MSTORE DUP6 ADD MLOAD DUP7 DUP3 SUB PUSH1 0x1F NOT ADD PUSH2 0x120 DUP9 ADD MSTORE PUSH2 0x4460 JUMP JUMPDEST PUSH2 0x120 DUP5 ADD MLOAD DUP6 DUP3 SUB PUSH1 0x1F NOT ADD PUSH2 0x140 DUP8 ADD MSTORE PUSH2 0x4460 JUMP JUMPDEST SWAP2 PUSH1 0x1 DUP1 PUSH1 0xA0 SHL SUB PUSH2 0x140 DUP3 ADD MLOAD AND PUSH2 0x160 DUP6 ADD MSTORE PUSH2 0x160 DUP2 ADD MLOAD ISZERO ISZERO PUSH2 0x180 DUP6 ADD MSTORE PUSH2 0x180 DUP2 ADD MLOAD ISZERO ISZERO PUSH2 0x1A0 DUP6 ADD MSTORE PUSH2 0x1A0 DUP2 ADD MLOAD ISZERO ISZERO PUSH2 0x1C0 DUP6 ADD MSTORE PUSH2 0x1C0 DUP2 ADD MLOAD ISZERO ISZERO DUP3 DUP6 ADD MSTORE ADD MLOAD PUSH2 0x200 DUP4 ADD MSTORE SUB SWAP1 RETURN JUMPDEST PUSH1 0x40 MLOAD PUSH4 0xF855236D PUSH1 0xE0 SHL DUP2 MSTORE PUSH1 0x20 PUSH1 0x4 DUP3 ADD MSTORE SWAP1 DUP2 SWAP1 PUSH2 0x4E6 SWAP1 PUSH1 0x24 DUP4 ADD SWAP1 PUSH2 0x4460 JUMP JUMPDEST SWAP1 POP ISZERO DUP4 PUSH2 0x151E JUMP JUMPDEST CALLVALUE PUSH2 0x353 JUMPI PUSH2 0x17F4 CALLDATASIZE PUSH2 0x42CC JUMP JUMPDEST SWAP1 PUSH1 0x40 MLOAD DUP2 MLOAD PUSH2 0x3C1 PUSH2 0x1814 PUSH1 0x20 SWAP4 DUP5 DUP2 DUP2 DUP9 ADD SWAP6 PUSH2 0x8A2 DUP2 DUP4 DUP10 PUSH2 0x4351 JUMP JUMPDEST DUP3 DUP2 MLOAD SWAP2 ADD KECCAK256 DUP4 MLOAD SWAP1 DUP2 DUP4 KECCAK256 EQ SWAP1 DUP2 ISZERO SWAP2 PUSH2 0x1B7F JUMPI JUMPDEST POP PUSH2 0x908 JUMPI DUP4 MLOAD ISZERO PUSH2 0x1B6D JUMPI PUSH1 0x0 DUP1 MLOAD PUSH1 0x20 PUSH2 0x538E DUP4 CODECOPY DUP2 MLOAD SWAP2 MSTORE PUSH1 0x0 MSTORE PUSH1 0x0 DUP3 MSTORE PUSH1 0x40 PUSH1 0x0 KECCAK256 CALLER PUSH1 0x0 MSTORE DUP3 MSTORE PUSH1 0xFF PUSH1 0x40 PUSH1 0x0 KECCAK256 SLOAD AND ISZERO DUP1 ISZERO PUSH2 0x1B3C JUMPI JUMPDEST DUP1 ISZERO PUSH2 0x1B0B JUMPI JUMPDEST DUP1 ISZERO PUSH2 0x1ADA JUMPI JUMPDEST PUSH2 0x797 JUMPI PUSH1 0x8 PUSH1 0x40 MLOAD DUP4 DUP2 DUP7 MLOAD PUSH2 0x188E DUP2 DUP4 DUP9 PUSH2 0x4351 JUMP JUMPDEST DUP2 ADD PUSH1 0x2 DUP2 MSTORE SUB ADD SWAP1 KECCAK256 ADD DUP5 MLOAD PUSH1 0x1 PUSH1 0x1 PUSH1 0x40 SHL SUB DUP2 GT PUSH2 0x1AC4 JUMPI PUSH2 0x18B3 DUP3 SLOAD PUSH2 0x4390 JUMP JUMPDEST PUSH1 0x1F DUP2 GT PUSH2 0x1A7E JUMPI JUMPDEST POP DUP4 PUSH1 0x1F DUP3 GT PUSH1 0x1 EQ PUSH2 0x19EB JUMPI PUSH2 0x194A DUP6 PUSH32 0xAE67159E13D82231D3F408EDCC7F75FA4E81AEACF670D6BCC87883E5C6A99353 SWAP8 SWAP9 SWAP6 PUSH1 0x40 SWAP6 DUP6 PUSH2 0x19D1 SWAP10 SWAP7 DUP9 SWAP7 PUSH1 0x0 SWAP2 PUSH2 0x19E0 JUMPI JUMPDEST POP DUP2 PUSH1 0x1 SHL SWAP2 PUSH1 0x0 NOT SWAP1 PUSH1 0x3 SHL SHR NOT AND OR SWAP1 SSTORE JUMPDEST DUP4 MLOAD PUSH1 0xB DUP12 MLOAD PUSH2 0x1929 DUP2 DUP5 DUP7 PUSH2 0x4351 JUMP JUMPDEST DUP3 ADD SWAP2 PUSH1 0x2 DUP4 MSTORE DUP5 DUP2 TIMESTAMP SWAP5 SUB ADD SWAP1 KECCAK256 ADD SSTORE DUP4 MLOAD DUP1 SWAP4 DUP2 SWAP3 DUP13 MLOAD SWAP3 DUP4 SWAP2 PUSH2 0x4351 JUMP JUMPDEST DUP2 ADD PUSH1 0x3 DUP2 MSTORE SUB ADD SWAP1 KECCAK256 SWAP2 PUSH2 0x19A0 DUP3 MLOAD PUSH2 0x1963 DUP2 PUSH2 0x421F JUMP JUMPDEST DUP10 DUP2 MSTORE DUP4 MLOAD SWAP5 PUSH2 0x1972 DUP7 PUSH2 0x423A JUMP JUMPDEST PUSH1 0x6 DUP7 MSTORE PUSH6 0x537461747573 PUSH1 0xD0 SHL SWAP6 DUP7 DUP6 DUP3 ADD MSTORE DUP5 DUP4 ADD MSTORE DUP8 DUP6 DUP4 ADD MSTORE CALLER PUSH1 0x60 DUP4 ADD MSTORE TIMESTAMP PUSH1 0x80 DUP4 ADD MSTORE PUSH2 0x4D0D JUMP JUMPDEST PUSH2 0x19B4 DUP3 MLOAD SWAP9 PUSH1 0x80 DUP11 MSTORE PUSH1 0x80 DUP11 ADD SWAP1 PUSH2 0x4460 JUMP JUMPDEST SWAP3 DUP9 DUP5 SUB SWAP2 DUP3 DUP2 DUP12 ADD MSTORE PUSH1 0x6 DUP6 MSTORE DUP5 ADD MSTORE ADD DUP3 DUP8 ADD MSTORE ADD SWAP1 PUSH2 0x4460 JUMP JUMPDEST SWAP2 TIMESTAMP PUSH1 0x60 DUP3 ADD MSTORE DUP1 CALLER SWAP4 SUB SWAP1 LOG2 STOP JUMPDEST SWAP1 POP DUP10 ADD MLOAD DUP14 PUSH2 0x1904 JUMP JUMPDEST PUSH1 0x1F NOT DUP3 AND SWAP1 DUP4 PUSH1 0x0 MSTORE DUP6 PUSH1 0x0 KECCAK256 SWAP2 PUSH1 0x0 JUMPDEST DUP2 DUP2 LT PUSH2 0x1A67 JUMPI POP SWAP6 PUSH32 0xAE67159E13D82231D3F408EDCC7F75FA4E81AEACF670D6BCC87883E5C6A99353 SWAP8 SWAP9 SWAP6 PUSH1 0x40 SWAP6 PUSH1 0x1 DUP7 DUP9 SWAP7 PUSH2 0x194A SWAP7 DUP7 SWAP10 PUSH2 0x19D1 SWAP14 LT PUSH2 0x1A4E JUMPI JUMPDEST POP POP DUP2 SHL ADD SWAP1 SSTORE PUSH2 0x1918 JUMP JUMPDEST DUP12 ADD MLOAD PUSH1 0x0 NOT PUSH1 0xF8 DUP5 PUSH1 0x3 SHL AND SHR NOT AND SWAP1 SSTORE DUP14 DUP1 PUSH2 0x1A42 JUMP JUMPDEST SWAP2 SWAP3 DUP8 PUSH1 0x1 DUP2 SWAP3 DUP7 DUP14 ADD MLOAD DUP2 SSTORE ADD SWAP5 ADD SWAP3 ADD PUSH2 0x19FD JUMP JUMPDEST DUP3 PUSH1 0x0 MSTORE DUP5 PUSH1 0x0 KECCAK256 PUSH1 0x1F DUP4 ADD PUSH1 0x5 SHR DUP2 ADD SWAP2 DUP7 DUP5 LT PUSH2 0x1ABA JUMPI JUMPDEST PUSH1 0x1F ADD PUSH1 0x5 SHR ADD SWAP1 JUMPDEST DUP2 DUP2 LT PUSH2 0x1AAE JUMPI POP PUSH2 0x18BC JUMP JUMPDEST PUSH1 0x0 DUP2 SSTORE PUSH1 0x1 ADD PUSH2 0x1AA1 JUMP JUMPDEST SWAP1 SWAP2 POP DUP2 SWAP1 PUSH2 0x1A98 JUMP JUMPDEST PUSH4 0x4E487B71 PUSH1 0xE0 SHL PUSH1 0x0 MSTORE PUSH1 0x41 PUSH1 0x4 MSTORE PUSH1 0x24 PUSH1 0x0 REVERT JUMPDEST POP PUSH1 0x0 DUP1 MLOAD PUSH1 0x20 PUSH2 0x52AE DUP4 CODECOPY DUP2 MLOAD SWAP2 MSTORE PUSH1 0x0 MSTORE PUSH1 0x0 DUP3 MSTORE PUSH1 0x40 PUSH1 0x0 KECCAK256 CALLER PUSH1 0x0 MSTORE DUP3 MSTORE PUSH1 0xFF PUSH1 0x40 PUSH1 0x0 KECCAK256 SLOAD AND ISZERO PUSH2 0x1876 JUMP JUMPDEST POP PUSH1 0x0 DUP1 MLOAD PUSH1 0x20 PUSH2 0x536E DUP4 CODECOPY DUP2 MLOAD SWAP2 MSTORE PUSH1 0x0 MSTORE PUSH1 0x0 DUP3 MSTORE PUSH1 0x40 PUSH1 0x0 KECCAK256 CALLER PUSH1 0x0 MSTORE DUP3 MSTORE PUSH1 0xFF PUSH1 0x40 PUSH1 0x0 KECCAK256 SLOAD AND ISZERO PUSH2 0x186F JUMP JUMPDEST POP PUSH1 0x0 DUP1 MLOAD PUSH1 0x20 PUSH2 0x528E DUP4 CODECOPY DUP2 MLOAD SWAP2 MSTORE PUSH1 0x0 MSTORE PUSH1 0x0 DUP3 MSTORE PUSH1 0x40 PUSH1 0x0 KECCAK256 CALLER PUSH1 0x0 MSTORE DUP3 MSTORE PUSH1 0xFF PUSH1 0x40 PUSH1 0x0 KECCAK256 SLOAD AND ISZERO PUSH2 0x1868 JUMP JUMPDEST PUSH1 0x40 MLOAD PUSH4 0xAB369863 PUSH1 0xE0 SHL DUP2 MSTORE PUSH1 0x4 SWAP1 REVERT JUMPDEST SWAP1 POP ISZERO DUP6 PUSH2 0x182A JUMP JUMPDEST CALLVALUE PUSH2 0x353 JUMPI PUSH1 0x0 CALLDATASIZE PUSH1 0x3 NOT ADD SLT PUSH2 0x353 JUMPI PUSH1 0x20 PUSH1 0x40 MLOAD PUSH1 0x0 DUP2 MSTORE RETURN JUMPDEST CALLVALUE PUSH2 0x353 JUMPI PUSH2 0x1BB2 CALLDATASIZE PUSH2 0x4312 JUMP JUMPDEST PUSH2 0x1BBA PUSH2 0x4638 JUMP JUMPDEST PUSH2 0x1BC3 DUP3 PUSH2 0x4561 JUMP JUMPDEST ISZERO PUSH2 0x341 JUMPI PUSH2 0x318 PUSH32 0x69E94E373F69F3F945457A07B335722310788AF9CD459A33DF6F72CC9E964043 SWAP2 PUSH1 0x0 DUP1 MLOAD PUSH1 0x20 PUSH2 0x532E DUP4 CODECOPY DUP2 MLOAD SWAP2 MSTORE DUP1 PUSH1 0x0 MSTORE PUSH1 0x0 PUSH1 0x20 MSTORE PUSH2 0x1C16 PUSH1 0x1 PUSH1 0x40 PUSH1 0x0 KECCAK256 ADD SLOAD PUSH2 0x4690 JUMP JUMPDEST PUSH2 0x56E DUP6 PUSH2 0x4AD6 JUMP JUMPDEST CALLVALUE PUSH2 0x353 JUMPI PUSH2 0x1C2D CALLDATASIZE PUSH2 0x42CC JUMP JUMPDEST CALLER PUSH1 0x0 SWAP1 DUP2 MSTORE PUSH1 0x0 DUP1 MLOAD PUSH1 0x20 PUSH2 0x526E DUP4 CODECOPY DUP2 MLOAD SWAP2 MSTORE PUSH1 0x20 SWAP1 DUP2 MSTORE PUSH1 0x40 SWAP1 SWAP2 KECCAK256 SLOAD SWAP2 SWAP3 SWAP2 PUSH1 0xFF AND ISZERO PUSH2 0x797 JUMPI PUSH1 0x40 MLOAD PUSH1 0x1 PUSH1 0xFF PUSH1 0xA DUP6 MLOAD SWAP4 DUP6 DUP2 DUP2 DUP10 ADD SWAP7 PUSH2 0x1C75 DUP2 DUP4 DUP11 PUSH2 0x4351 JUMP JUMPDEST DUP2 ADD PUSH1 0x2 DUP2 MSTORE SUB ADD SWAP1 KECCAK256 ADD SLOAD PUSH1 0xB8 SHR AND ISZERO ISZERO EQ PUSH2 0x1CFA JUMPI SWAP2 PUSH1 0xA PUSH2 0x1CC9 PUSH2 0x1CF5 SWAP4 PUSH32 0x3A9EEBD240F4C9F631531EBC672C4C040DE483B868CCEBE8A3A1FDAD70CDE0D9 SWAP6 PUSH1 0x40 MLOAD DUP1 SWAP4 DUP2 SWAP3 DUP8 MLOAD SWAP3 DUP4 SWAP2 PUSH2 0x4351 JUMP JUMPDEST DUP2 ADD PUSH1 0x2 DUP2 MSTORE SUB ADD SWAP1 KECCAK256 ADD PUSH1 0x1 PUSH1 0xB8 SHL PUSH1 0xFF PUSH1 0xB8 SHL NOT DUP3 SLOAD AND OR SWAP1 SSTORE PUSH1 0x40 MLOAD SWAP2 DUP3 SWAP2 CALLER SWAP6 TIMESTAMP SWAP2 DUP5 PUSH2 0x50BA JUMP JUMPDEST SUB SWAP1 LOG2 STOP JUMPDEST POP PUSH2 0x4E6 PUSH1 0x40 MLOAD SWAP3 DUP4 SWAP3 PUSH4 0x6F5F9441 PUSH1 0xE1 SHL DUP5 MSTORE PUSH1 0x4 DUP5 ADD MSTORE PUSH1 0x24 DUP4 ADD SWAP1 PUSH2 0x4460 JUMP JUMPDEST CALLVALUE PUSH2 0x353 JUMPI PUSH1 0x20 DUP1 PUSH1 0x3 NOT CALLDATASIZE ADD SLT PUSH2 0x353 JUMPI PUSH1 0x4 CALLDATALOAD PUSH1 0x1 PUSH1 0x1 PUSH1 0x40 SHL SUB DUP2 GT PUSH2 0x353 JUMPI PUSH2 0x1D4E SWAP1 CALLDATASIZE SWAP1 PUSH1 0x4 ADD PUSH2 0x4276 JUMP JUMPDEST SWAP1 PUSH1 0x40 MLOAD PUSH2 0x3C1 PUSH2 0x1D6C DUP5 MLOAD SWAP3 DUP5 DUP2 DUP2 DUP9 ADD SWAP6 PUSH2 0x8A2 DUP2 DUP4 DUP10 PUSH2 0x4351 JUMP JUMPDEST DUP3 DUP2 MLOAD SWAP2 ADD KECCAK256 DUP4 MLOAD SWAP1 DUP2 DUP4 KECCAK256 EQ SWAP1 DUP2 ISZERO SWAP2 PUSH2 0x1DBC JUMPI JUMPDEST POP PUSH2 0x908 JUMPI PUSH1 0xA PUSH2 0x1DA2 DUP4 PUSH1 0xFF SWAP4 DUP7 PUSH1 0x40 MLOAD SWAP4 DUP5 SWAP3 DUP4 SWAP3 MLOAD SWAP3 DUP4 SWAP2 PUSH2 0x4351 JUMP JUMPDEST DUP2 ADD PUSH1 0x2 DUP2 MSTORE SUB ADD SWAP1 KECCAK256 ADD SLOAD PUSH1 0xB0 SHR AND PUSH1 0x40 MLOAD SWAP1 ISZERO ISZERO DUP2 MSTORE RETURN JUMPDEST SWAP1 POP ISZERO DUP5 PUSH2 0x1D82 JUMP JUMPDEST CALLVALUE PUSH2 0x353 JUMPI PUSH1 0x40 CALLDATASIZE PUSH1 0x3 NOT ADD SLT PUSH2 0x353 JUMPI PUSH2 0x1DDE PUSH2 0x41ED JUMP JUMPDEST PUSH1 0x4 CALLDATALOAD PUSH1 0x0 MSTORE PUSH1 0x0 PUSH1 0x20 MSTORE PUSH1 0x40 PUSH1 0x0 KECCAK256 SWAP1 PUSH1 0x1 DUP1 PUSH1 0xA0 SHL SUB AND PUSH1 0x0 MSTORE PUSH1 0x20 MSTORE PUSH1 0x20 PUSH1 0xFF PUSH1 0x40 PUSH1 0x0 KECCAK256 SLOAD AND PUSH1 0x40 MLOAD SWAP1 ISZERO ISZERO DUP2 MSTORE RETURN JUMPDEST CALLVALUE PUSH2 0x353 JUMPI PUSH1 0x20 CALLDATASIZE PUSH1 0x3 NOT ADD SLT PUSH2 0x353 JUMPI PUSH2 0x1E2B PUSH2 0x41D7 JUMP JUMPDEST PUSH1 0x1 PUSH1 0x1 PUSH1 0xA0 SHL SUB AND PUSH1 0x0 SWAP1 DUP2 MSTORE PUSH1 0x0 DUP1 MLOAD PUSH1 0x20 PUSH2 0x526E DUP4 CODECOPY DUP2 MLOAD SWAP2 MSTORE PUSH1 0x20 SWAP1 DUP2 MSTORE PUSH1 0x40 SWAP2 DUP3 SWAP1 KECCAK256 SLOAD SWAP2 MLOAD PUSH1 0xFF SWAP1 SWAP3 AND ISZERO ISZERO DUP3 MSTORE SWAP1 RETURN JUMPDEST CALLVALUE PUSH2 0x353 JUMPI PUSH1 0x20 DUP1 PUSH1 0x3 NOT CALLDATASIZE ADD SLT PUSH2 0x353 JUMPI PUSH1 0x4 CALLDATALOAD PUSH1 0x1 PUSH1 0x1 PUSH1 0x40 SHL SUB DUP2 GT PUSH2 0x353 JUMPI PUSH2 0x1E93 SWAP1 CALLDATASIZE SWAP1 PUSH1 0x4 ADD PUSH2 0x4276 JUMP JUMPDEST SWAP1 PUSH1 0x40 MLOAD SWAP1 DUP3 MLOAD SWAP3 PUSH2 0x3C1 PUSH2 0x1EB0 DUP4 DUP4 ADD SWAP6 PUSH2 0x3A6 DUP2 DUP8 DUP10 PUSH2 0x4351 JUMP JUMPDEST DUP3 DUP2 MLOAD SWAP2 ADD KECCAK256 DUP2 MLOAD SWAP1 DUP2 DUP7 KECCAK256 EQ SWAP1 DUP2 ISZERO SWAP2 PUSH2 0x1FB9 JUMPI JUMPDEST POP PUSH2 0x1FA7 JUMPI PUSH2 0x1EDD PUSH1 0x40 MLOAD SWAP5 DUP6 SWAP3 MLOAD SWAP3 DUP4 SWAP2 PUSH2 0x4351 JUMP JUMPDEST DUP4 ADD SWAP3 DUP2 DUP2 PUSH1 0x3 SWAP6 DUP7 DUP2 MSTORE SUB ADD SWAP1 KECCAK256 DUP1 SLOAD SWAP2 PUSH2 0x1EF8 DUP4 PUSH2 0x5104 JUMP JUMPDEST SWAP4 PUSH2 0x1F06 PUSH1 0x40 MLOAD SWAP6 DUP7 PUSH2 0x4255 JUMP JUMPDEST DUP4 DUP6 MSTORE PUSH1 0x0 SWAP3 DUP4 MSTORE DUP2 DUP4 KECCAK256 SWAP1 DUP3 DUP7 ADD JUMPDEST DUP6 DUP6 LT PUSH2 0x1F2B JUMPI PUSH1 0x40 MLOAD DUP1 PUSH2 0x443 DUP10 DUP3 PUSH2 0x4485 JUMP JUMPDEST PUSH1 0x5 DUP5 PUSH1 0x1 SWAP3 PUSH1 0x40 MLOAD PUSH2 0x1F3D DUP2 PUSH2 0x421F JUMP JUMPDEST PUSH1 0x40 MLOAD PUSH2 0x1F4E DUP2 PUSH2 0x3C1 DUP2 DUP12 PUSH2 0x43CA JUMP JUMPDEST DUP2 MSTORE PUSH1 0x40 MLOAD PUSH2 0x1F63 DUP2 PUSH2 0x3C1 DUP2 DUP10 DUP13 ADD PUSH2 0x43CA JUMP JUMPDEST DUP4 DUP3 ADD MSTORE PUSH1 0x40 MLOAD PUSH2 0x1F7A DUP2 PUSH2 0x3C1 DUP2 DUP11 DUP13 ADD PUSH2 0x43CA JUMP JUMPDEST PUSH1 0x40 DUP3 ADD MSTORE DUP5 DUP1 PUSH1 0xA0 SHL SUB DUP13 DUP9 ADD SLOAD AND PUSH1 0x60 DUP3 ADD MSTORE PUSH1 0x4 DUP8 ADD SLOAD PUSH1 0x80 DUP3 ADD MSTORE DUP2 MSTORE ADD SWAP4 ADD SWAP5 ADD SWAP4 SWAP2 PUSH2 0x1F16 JUMP JUMPDEST PUSH1 0x40 MLOAD PUSH4 0x29D7B10B PUSH1 0xE1 SHL DUP2 MSTORE PUSH1 0x4 SWAP1 REVERT JUMPDEST SWAP1 POP ISZERO DUP6 PUSH2 0x1EC6 JUMP JUMPDEST CALLVALUE PUSH2 0x353 JUMPI PUSH2 0x1FD0 CALLDATASIZE PUSH2 0x42CC JUMP JUMPDEST CALLER PUSH1 0x0 SWAP1 DUP2 MSTORE PUSH1 0x0 DUP1 MLOAD PUSH1 0x20 PUSH2 0x530E DUP4 CODECOPY DUP2 MLOAD SWAP2 MSTORE PUSH1 0x20 SWAP1 DUP2 MSTORE PUSH1 0x40 SWAP1 SWAP2 KECCAK256 SLOAD SWAP2 SWAP3 SWAP2 PUSH1 0xFF AND ISZERO PUSH2 0x797 JUMPI PUSH1 0x40 MLOAD PUSH1 0x1 PUSH1 0xFF PUSH1 0xA DUP6 MLOAD SWAP4 DUP6 DUP2 DUP2 DUP10 ADD SWAP7 PUSH2 0x2018 DUP2 DUP4 DUP11 PUSH2 0x4351 JUMP JUMPDEST DUP2 ADD PUSH1 0x2 DUP2 MSTORE SUB ADD SWAP1 KECCAK256 ADD SLOAD PUSH1 0xA8 SHR AND ISZERO ISZERO EQ PUSH2 0x2098 JUMPI SWAP2 PUSH1 0xA PUSH2 0x206C PUSH2 0x1CF5 SWAP4 PUSH32 0xA214F45AF6D86B0D5FF7BB48F888CF4205E4A383DA35FCBEBFDBD9BD8E6D5A7C SWAP6 PUSH1 0x40 MLOAD DUP1 SWAP4 DUP2 SWAP3 DUP8 MLOAD SWAP3 DUP4 SWAP2 PUSH2 0x4351 JUMP JUMPDEST DUP2 ADD PUSH1 0x2 DUP2 MSTORE SUB ADD SWAP1 KECCAK256 ADD PUSH1 0x1 PUSH1 0xA8 SHL PUSH1 0xFF PUSH1 0xA8 SHL NOT DUP3 SLOAD AND OR SWAP1 SSTORE PUSH1 0x40 MLOAD SWAP2 DUP3 SWAP2 CALLER SWAP6 TIMESTAMP SWAP2 DUP5 PUSH2 0x50BA JUMP JUMPDEST POP PUSH2 0x4E6 PUSH1 0x40 MLOAD SWAP3 DUP4 SWAP3 PUSH4 0x701203B7 PUSH1 0xE0 SHL DUP5 MSTORE PUSH1 0x4 DUP5 ADD MSTORE PUSH1 0x24 DUP4 ADD SWAP1 PUSH2 0x4460 JUMP JUMPDEST CALLVALUE PUSH2 0x353 JUMPI PUSH2 0x20C9 CALLDATASIZE PUSH2 0x4312 JUMP JUMPDEST PUSH2 0x20D1 PUSH2 0x4638 JUMP JUMPDEST PUSH2 0x20DA DUP3 PUSH2 0x45E2 JUMP JUMPDEST ISZERO PUSH2 0x341 JUMPI PUSH2 0x318 PUSH32 0x71577B91708C73EE54B43C6709958FF42E4BCC084910648CE7C3D16928B51D52 SWAP2 PUSH1 0x0 DUP1 MLOAD PUSH1 0x20 PUSH2 0x528E DUP4 CODECOPY DUP2 MLOAD SWAP2 MSTORE DUP1 PUSH1 0x0 MSTORE PUSH1 0x0 PUSH1 0x20 MSTORE PUSH2 0x212D PUSH1 0x1 PUSH1 0x40 PUSH1 0x0 KECCAK256 ADD SLOAD PUSH2 0x4690 JUMP JUMPDEST PUSH2 0x56E DUP6 PUSH2 0x4A61 JUMP JUMPDEST CALLVALUE PUSH2 0x353 JUMPI PUSH1 0x0 CALLDATASIZE PUSH1 0x3 NOT ADD SLT PUSH2 0x353 JUMPI PUSH1 0x20 PUSH1 0x40 MLOAD PUSH1 0x0 DUP1 MLOAD PUSH1 0x20 PUSH2 0x532E DUP4 CODECOPY DUP2 MLOAD SWAP2 MSTORE DUP2 MSTORE RETURN JUMPDEST CALLVALUE PUSH2 0x353 JUMPI PUSH1 0x0 CALLDATASIZE PUSH1 0x3 NOT ADD SLT PUSH2 0x353 JUMPI PUSH1 0x20 PUSH1 0x40 MLOAD PUSH1 0x0 DUP1 MLOAD PUSH1 0x20 PUSH2 0x538E DUP4 CODECOPY DUP2 MLOAD SWAP2 MSTORE DUP2 MSTORE RETURN JUMPDEST CALLVALUE PUSH2 0x353 JUMPI PUSH1 0x20 DUP1 PUSH1 0x3 NOT CALLDATASIZE ADD SLT PUSH2 0x353 JUMPI PUSH1 0x4 CALLDATALOAD PUSH1 0x1 PUSH1 0x1 PUSH1 0x40 SHL SUB DUP2 GT PUSH2 0x353 JUMPI PUSH2 0x21B9 SWAP1 CALLDATASIZE SWAP1 PUSH1 0x4 ADD PUSH2 0x4276 JUMP JUMPDEST SWAP1 PUSH1 0x0 DUP1 MSTORE PUSH1 0x0 DUP2 MSTORE PUSH1 0x40 PUSH1 0x0 KECCAK256 CALLER PUSH1 0x0 MSTORE DUP2 MSTORE PUSH1 0xFF PUSH1 0x40 PUSH1 0x0 KECCAK256 SLOAD AND ISZERO PUSH2 0x797 JUMPI PUSH1 0x40 MLOAD PUSH2 0x3C1 PUSH2 0x21F8 DUP5 MLOAD SWAP3 DUP5 DUP2 DUP2 DUP9 ADD SWAP6 PUSH2 0x8A2 DUP2 DUP4 DUP10 PUSH2 0x4351 JUMP JUMPDEST DUP3 DUP2 MLOAD SWAP2 ADD KECCAK256 DUP4 MLOAD SWAP1 DUP2 DUP4 KECCAK256 EQ SWAP1 DUP2 ISZERO SWAP2 PUSH2 0x2338 JUMPI JUMPDEST POP PUSH2 0x1FA7 JUMPI PUSH1 0xFF PUSH1 0xA PUSH1 0x40 MLOAD DUP5 DUP2 DUP8 MLOAD PUSH2 0x2229 DUP2 DUP4 DUP10 PUSH2 0x4351 JUMP JUMPDEST DUP2 ADD PUSH1 0x2 DUP2 MSTORE SUB ADD SWAP1 KECCAK256 ADD SLOAD PUSH1 0xB0 SHR AND DUP1 PUSH2 0x230C JUMPI JUMPDEST ISZERO PUSH2 0x22E9 JUMPI PUSH2 0x22B8 PUSH1 0xFF SWAP3 PUSH1 0xA SWAP3 PUSH1 0x40 MLOAD PUSH32 0x10F4BA4C7BB6F0C442F54585004A6E24440BEA5C2D2E6F36B688E3E624762E22 CALLER SWAP2 DUP1 PUSH2 0x227F TIMESTAMP DUP12 DUP4 PUSH2 0x513C JUMP JUMPDEST SUB SWAP1 LOG2 DUP5 DUP5 PUSH1 0x40 MLOAD DUP5 DUP2 DUP11 MLOAD PUSH2 0x2296 DUP2 DUP4 DUP10 PUSH2 0x4351 JUMP JUMPDEST DUP2 ADD PUSH1 0x2 DUP2 MSTORE SUB ADD SWAP1 KECCAK256 ADD SLOAD PUSH1 0xB0 SHR AND SWAP6 PUSH1 0x40 MLOAD SWAP4 DUP5 SWAP3 DUP4 SWAP3 MLOAD SWAP3 DUP4 SWAP2 PUSH2 0x4351 JUMP JUMPDEST DUP2 ADD PUSH1 0x2 DUP2 MSTORE SUB ADD SWAP1 KECCAK256 ADD SLOAD PUSH1 0xB8 SHR AND SWAP1 PUSH2 0x443 PUSH1 0x40 MLOAD SWAP3 DUP4 SWAP3 DUP4 SWAP1 SWAP3 SWAP2 PUSH1 0x20 SWAP1 PUSH1 0x40 DUP4 ADD SWAP5 ISZERO ISZERO DUP4 MSTORE ISZERO ISZERO SWAP2 ADD MSTORE JUMP JUMPDEST POP PUSH2 0x4E6 PUSH1 0x40 MLOAD SWAP3 DUP4 SWAP3 PUSH4 0x48CDDBDB PUSH1 0xE1 SHL DUP5 MSTORE PUSH1 0x4 DUP5 ADD MSTORE PUSH1 0x24 DUP4 ADD SWAP1 PUSH2 0x4460 JUMP JUMPDEST POP PUSH1 0xFF PUSH1 0xA PUSH1 0x40 MLOAD DUP5 DUP2 DUP8 MLOAD PUSH2 0x2323 DUP2 DUP4 DUP10 PUSH2 0x4351 JUMP JUMPDEST DUP2 ADD PUSH1 0x2 DUP2 MSTORE SUB ADD SWAP1 KECCAK256 ADD SLOAD PUSH1 0xB8 SHR AND PUSH2 0x223F JUMP JUMPDEST SWAP1 POP ISZERO DUP5 PUSH2 0x220E JUMP JUMPDEST CALLVALUE PUSH2 0x353 JUMPI PUSH1 0x20 CALLDATASIZE PUSH1 0x3 NOT ADD SLT PUSH2 0x353 JUMPI PUSH2 0x235A PUSH2 0x41D7 JUMP JUMPDEST PUSH1 0x1 PUSH1 0x1 PUSH1 0xA0 SHL SUB AND PUSH1 0x0 SWAP1 DUP2 MSTORE PUSH1 0x0 DUP1 MLOAD PUSH1 0x20 PUSH2 0x52EE DUP4 CODECOPY DUP2 MLOAD SWAP2 MSTORE PUSH1 0x20 SWAP1 DUP2 MSTORE PUSH1 0x40 SWAP2 DUP3 SWAP1 KECCAK256 SLOAD SWAP2 MLOAD PUSH1 0xFF SWAP1 SWAP3 AND ISZERO ISZERO DUP3 MSTORE SWAP1 RETURN JUMPDEST CALLVALUE PUSH2 0x353 JUMPI PUSH1 0x0 CALLDATASIZE PUSH1 0x3 NOT ADD SLT PUSH2 0x353 JUMPI PUSH1 0x20 PUSH1 0x40 MLOAD PUSH1 0x0 DUP1 MLOAD PUSH1 0x20 PUSH2 0x536E DUP4 CODECOPY DUP2 MLOAD SWAP2 MSTORE DUP2 MSTORE RETURN JUMPDEST CALLVALUE PUSH2 0x353 JUMPI PUSH1 0x0 CALLDATASIZE PUSH1 0x3 NOT ADD SLT PUSH2 0x353 JUMPI PUSH1 0x20 PUSH1 0x40 MLOAD PUSH1 0x0 DUP1 MLOAD PUSH1 0x20 PUSH2 0x534E DUP4 CODECOPY DUP2 MLOAD SWAP2 MSTORE DUP2 MSTORE RETURN JUMPDEST CALLVALUE PUSH2 0x353 JUMPI PUSH1 0x20 CALLDATASIZE PUSH1 0x3 NOT ADD SLT PUSH2 0x353 JUMPI PUSH2 0x23FC PUSH2 0x41D7 JUMP JUMPDEST PUSH1 0x1 PUSH1 0x1 PUSH1 0xA0 SHL SUB DUP2 AND SWAP1 DUP2 ISZERO PUSH2 0xE49 JUMPI PUSH2 0x2415 PUSH2 0x4638 JUMP JUMPDEST PUSH2 0x241E DUP2 PUSH2 0x45B7 JUMP JUMPDEST PUSH2 0xFA6 JUMPI PUSH2 0x242B SWAP1 PUSH2 0x4820 JUMP JUMPDEST POP PUSH1 0x0 DUP1 MLOAD PUSH1 0x20 PUSH2 0x538E DUP4 CODECOPY DUP2 MLOAD SWAP2 MSTORE PUSH1 0x0 MSTORE PUSH1 0x4 PUSH1 0x20 MSTORE PUSH32 0x2FF85B9F193A3A7824CBAF5A79DB262C0BAC955152ADF2752C6413D76B2D3C7 DUP1 SLOAD PUSH2 0x246F SWAP1 PUSH2 0x50E8 JUMP JUMPDEST SWAP1 SSTORE PUSH32 0x4E3EEDE475DE92D3E23765B737DBB67646352B3328C1A437D7F089766D7BE751 PUSH1 0x20 PUSH1 0x40 MLOAD TIMESTAMP DUP2 MSTORE LOG2 STOP JUMPDEST CALLVALUE PUSH2 0x353 JUMPI PUSH1 0x20 CALLDATASIZE PUSH1 0x3 NOT ADD SLT PUSH2 0x353 JUMPI PUSH1 0x4 CALLDATALOAD PUSH1 0x1 PUSH1 0x1 PUSH1 0x40 SHL SUB DUP2 GT PUSH2 0x353 JUMPI PUSH2 0x24CD SWAP1 CALLDATASIZE SWAP1 PUSH1 0x4 ADD PUSH2 0x4276 JUMP JUMPDEST PUSH1 0x40 MLOAD DUP2 DUP2 DUP1 SWAP4 MLOAD PUSH1 0x20 DUP2 SWAP4 ADD SWAP2 PUSH2 0x24E4 SWAP3 PUSH2 0x4351 JUMP JUMPDEST DUP2 ADD PUSH1 0x2 DUP2 MSTORE SUB PUSH1 0x20 ADD SWAP1 KECCAK256 PUSH1 0x40 MLOAD DUP1 PUSH2 0x24FE DUP2 DUP5 PUSH2 0x43CA JUMP JUMPDEST SUB PUSH2 0x2509 SWAP1 DUP3 PUSH2 0x4255 JUMP JUMPDEST PUSH1 0x40 MLOAD SWAP2 DUP3 PUSH2 0x251B DUP2 PUSH1 0x1 DUP5 ADD PUSH2 0x43CA JUMP JUMPDEST SUB PUSH2 0x2526 SWAP1 DUP5 PUSH2 0x4255 JUMP JUMPDEST PUSH1 0x40 MLOAD DUP1 PUSH2 0x2537 DUP2 PUSH1 0x2 DUP6 ADD PUSH2 0x43CA JUMP JUMPDEST SUB PUSH2 0x2542 SWAP1 DUP3 PUSH2 0x4255 JUMP JUMPDEST PUSH1 0x40 MLOAD SWAP2 DUP3 PUSH2 0x2554 DUP2 PUSH1 0x3 DUP5 ADD PUSH2 0x43CA JUMP JUMPDEST SUB PUSH2 0x255F SWAP1 DUP5 PUSH2 0x4255 JUMP JUMPDEST PUSH1 0x4 DUP2 ADD SLOAD PUSH1 0x5 DUP3 ADD SLOAD PUSH1 0x40 MLOAD SWAP5 SWAP2 DUP6 PUSH2 0x257C DUP2 PUSH1 0x6 DUP8 ADD PUSH2 0x43CA JUMP JUMPDEST SUB PUSH2 0x2587 SWAP1 DUP8 PUSH2 0x4255 JUMP JUMPDEST PUSH1 0x7 DUP5 ADD SLOAD PUSH1 0x40 MLOAD PUSH1 0x1 PUSH1 0x1 PUSH1 0xA0 SHL SUB SWAP8 SWAP1 SWAP4 SWAP2 DUP9 AND SWAP3 SWAP1 SWAP2 DUP5 PUSH2 0x25AE DUP2 PUSH1 0x8 DUP11 ADD PUSH2 0x43CA JUMP JUMPDEST SUB PUSH2 0x25B9 SWAP1 DUP7 PUSH2 0x4255 JUMP JUMPDEST PUSH1 0x40 MLOAD SWAP6 DUP7 PUSH2 0x25CB DUP2 PUSH1 0x9 DUP12 ADD PUSH2 0x43CA JUMP JUMPDEST SUB PUSH2 0x25D6 SWAP1 DUP9 PUSH2 0x4255 JUMP JUMPDEST PUSH1 0xA DUP9 ADD SLOAD SWAP8 PUSH1 0xB ADD SLOAD SWAP9 PUSH1 0x40 MLOAD SWAP13 DUP14 SWAP13 DUP14 PUSH2 0x200 SWAP1 DUP2 DUP2 MSTORE ADD PUSH2 0x25F9 SWAP2 PUSH2 0x4460 JUMP JUMPDEST DUP14 DUP2 SUB PUSH1 0x20 DUP16 ADD MSTORE PUSH2 0x260A SWAP2 PUSH2 0x4460 JUMP JUMPDEST DUP13 DUP2 SUB PUSH1 0x40 DUP15 ADD MSTORE PUSH2 0x261B SWAP2 PUSH2 0x4460 JUMP JUMPDEST DUP12 DUP2 SUB PUSH1 0x60 DUP14 ADD MSTORE PUSH2 0x262C SWAP2 PUSH2 0x4460 JUMP JUMPDEST SWAP2 PUSH1 0x80 DUP12 ADD MSTORE PUSH1 0xA0 DUP11 ADD MSTORE DUP9 DUP2 SUB PUSH1 0xC0 DUP11 ADD MSTORE PUSH2 0x2648 SWAP2 PUSH2 0x4460 JUMP JUMPDEST SWAP1 PUSH1 0xE0 DUP9 ADD MSTORE DUP7 DUP2 SUB PUSH2 0x100 DUP9 ADD MSTORE PUSH2 0x2660 SWAP2 PUSH2 0x4460 JUMP JUMPDEST DUP6 DUP2 SUB PUSH2 0x120 DUP8 ADD MSTORE PUSH2 0x2672 SWAP2 PUSH2 0x4460 JUMP JUMPDEST SWAP3 DUP2 AND PUSH2 0x140 DUP6 ADD MSTORE DUP1 PUSH1 0xA0 SHR PUSH1 0xFF AND ISZERO ISZERO PUSH2 0x160 DUP6 ADD MSTORE DUP1 PUSH1 0xA8 SHR PUSH1 0xFF AND ISZERO ISZERO PUSH2 0x180 DUP6 ADD MSTORE DUP1 PUSH1 0xB0 SHR PUSH1 0xFF AND ISZERO ISZERO PUSH2 0x1A0 DUP6 ADD MSTORE PUSH1 0xB8 SHR PUSH1 0xFF AND ISZERO ISZERO PUSH2 0x1C0 DUP5 ADD MSTORE PUSH2 0x1E0 DUP4 ADD MSTORE SUB SWAP1 RETURN JUMPDEST CALLVALUE PUSH2 0x353 JUMPI PUSH1 0x0 CALLDATASIZE PUSH1 0x3 NOT ADD SLT PUSH2 0x353 JUMPI PUSH1 0x20 PUSH1 0x40 MLOAD PUSH1 0x0 DUP1 MLOAD PUSH1 0x20 PUSH2 0x528E DUP4 CODECOPY DUP2 MLOAD SWAP2 MSTORE DUP2 MSTORE RETURN JUMPDEST CALLVALUE PUSH2 0x353 JUMPI PUSH2 0x26F7 CALLDATASIZE PUSH2 0x42CC JUMP JUMPDEST CALLER PUSH1 0x0 SWAP1 DUP2 MSTORE PUSH1 0x0 DUP1 MLOAD PUSH1 0x20 PUSH2 0x520E DUP4 CODECOPY DUP2 MLOAD SWAP2 MSTORE PUSH1 0x20 SWAP1 DUP2 MSTORE PUSH1 0x40 SWAP1 SWAP2 KECCAK256 SLOAD SWAP2 SWAP3 SWAP2 PUSH1 0xFF AND ISZERO PUSH2 0x797 JUMPI PUSH1 0x40 MLOAD PUSH1 0x1 PUSH1 0xFF PUSH1 0xA DUP6 MLOAD SWAP4 DUP6 DUP2 DUP2 DUP10 ADD SWAP7 PUSH2 0x273F DUP2 DUP4 DUP11 PUSH2 0x4351 JUMP JUMPDEST DUP2 ADD PUSH1 0x2 DUP2 MSTORE SUB ADD SWAP1 KECCAK256 ADD SLOAD PUSH1 0xB0 SHR AND ISZERO ISZERO EQ PUSH2 0x27BF JUMPI SWAP2 PUSH1 0xA PUSH2 0x2793 PUSH2 0x1CF5 SWAP4 PUSH32 0xA9DE1934279A83F8CFAAECF6A7002AC10AEAEA244C8C763F3752F3FC4C3E631D SWAP6 PUSH1 0x40 MLOAD DUP1 SWAP4 DUP2 SWAP3 DUP8 MLOAD SWAP3 DUP4 SWAP2 PUSH2 0x4351 JUMP JUMPDEST DUP2 ADD PUSH1 0x2 DUP2 MSTORE SUB ADD SWAP1 KECCAK256 ADD PUSH1 0x1 PUSH1 0xB0 SHL PUSH1 0xFF PUSH1 0xB0 SHL NOT DUP3 SLOAD AND OR SWAP1 SSTORE PUSH1 0x40 MLOAD SWAP2 DUP3 SWAP2 CALLER SWAP6 TIMESTAMP SWAP2 DUP5 PUSH2 0x50BA JUMP JUMPDEST POP PUSH2 0x4E6 PUSH1 0x40 MLOAD SWAP3 DUP4 SWAP3 PUSH4 0xC817400D PUSH1 0xE0 SHL DUP5 MSTORE PUSH1 0x4 DUP5 ADD MSTORE PUSH1 0x24 DUP4 ADD SWAP1 PUSH2 0x4460 JUMP JUMPDEST CALLVALUE PUSH2 0x353 JUMPI PUSH1 0x20 CALLDATASIZE PUSH1 0x3 NOT ADD SLT PUSH2 0x353 JUMPI PUSH2 0x27FB PUSH2 0x41D7 JUMP JUMPDEST PUSH1 0x1 PUSH1 0x1 PUSH1 0xA0 SHL SUB DUP2 AND SWAP1 DUP2 ISZERO PUSH2 0xE49 JUMPI PUSH2 0x2814 PUSH2 0x4638 JUMP JUMPDEST PUSH2 0x281D DUP2 PUSH2 0x458C JUMP JUMPDEST PUSH2 0xFA6 JUMPI PUSH2 0x282A SWAP1 PUSH2 0x47A9 JUMP JUMPDEST POP PUSH1 0x0 DUP1 MLOAD PUSH1 0x20 PUSH2 0x536E DUP4 CODECOPY DUP2 MLOAD SWAP2 MSTORE PUSH1 0x0 MSTORE PUSH1 0x4 PUSH1 0x20 MSTORE PUSH32 0xA792FA383E6BD9C6B4465BBFD8031F4B47377210FA121067C03906E9AFAC6246 DUP1 SLOAD PUSH2 0x286E SWAP1 PUSH2 0x50E8 JUMP JUMPDEST SWAP1 SSTORE PUSH32 0x4A02EDD19F09212E54B2AC85D7D3A4A2E3FBF424E6710C3F817D9B4CECC9CDB3 PUSH1 0x20 PUSH1 0x40 MLOAD TIMESTAMP DUP2 MSTORE LOG2 STOP JUMPDEST CALLVALUE PUSH2 0x353 JUMPI PUSH1 0xC0 CALLDATASIZE PUSH1 0x3 NOT ADD SLT PUSH2 0x353 JUMPI PUSH1 0x4 CALLDATALOAD PUSH1 0x1 PUSH1 0x1 PUSH1 0x40 SHL SUB DUP2 GT PUSH2 0x353 JUMPI PUSH2 0x28CC SWAP1 CALLDATASIZE SWAP1 PUSH1 0x4 ADD PUSH2 0x4276 JUMP JUMPDEST PUSH1 0x24 CALLDATALOAD PUSH1 0x1 PUSH1 0x1 PUSH1 0x40 SHL SUB DUP2 GT PUSH2 0x353 JUMPI PUSH2 0x28EB SWAP1 CALLDATASIZE SWAP1 PUSH1 0x4 ADD PUSH2 0x4276 JUMP JUMPDEST PUSH1 0x64 CALLDATALOAD PUSH1 0x1 PUSH1 0x1 PUSH1 0x40 SHL SUB DUP2 GT PUSH2 0x353 JUMPI PUSH2 0x290A SWAP1 CALLDATASIZE SWAP1 PUSH1 0x4 ADD PUSH2 0x4276 JUMP JUMPDEST SWAP2 PUSH1 0xA4 CALLDATALOAD PUSH1 0x1 PUSH1 0x1 PUSH1 0x40 SHL SUB DUP2 GT PUSH2 0x353 JUMPI PUSH2 0x292A SWAP1 CALLDATASIZE SWAP1 PUSH1 0x4 ADD PUSH2 0x4276 JUMP JUMPDEST CALLER PUSH1 0x0 SWAP1 DUP2 MSTORE PUSH1 0x0 DUP1 MLOAD PUSH1 0x20 PUSH2 0x52CE DUP4 CODECOPY DUP2 MLOAD SWAP2 MSTORE PUSH1 0x20 MSTORE PUSH1 0x40 SWAP1 KECCAK256 SLOAD SWAP1 SWAP4 SWAP1 PUSH1 0xFF AND ISZERO PUSH2 0x797 JUMPI DUP2 MLOAD ISZERO PUSH2 0x36A6 JUMPI DUP1 MLOAD ISZERO PUSH2 0x773 JUMPI DUP3 MLOAD ISZERO PUSH2 0x3694 JUMPI PUSH1 0x44 CALLDATALOAD ISZERO PUSH2 0x3682 JUMPI PUSH1 0x84 CALLDATALOAD ISZERO DUP1 ISZERO PUSH2 0x3676 JUMPI JUMPDEST PUSH2 0x3664 JUMPI PUSH1 0x50 PUSH1 0x84 CALLDATALOAD GT ISZERO PUSH2 0x364A JUMPI DUP4 MLOAD ISZERO PUSH2 0x3638 JUMPI PUSH1 0x1 SLOAD PUSH2 0x299C DUP2 PUSH2 0x50E8 JUMP JUMPDEST PUSH1 0x1 SSTORE PUSH1 0x40 MLOAD PUSH2 0x29E2 PUSH1 0x74 DUP3 PUSH1 0x20 DUP2 ADD SWAP5 DUP9 MLOAD PUSH2 0x29BD DUP2 DUP9 PUSH1 0x20 DUP14 ADD PUSH2 0x4351 JUMP JUMPDEST DUP3 ADD SWAP1 CALLER PUSH1 0x60 SHL PUSH1 0x20 DUP4 ADD MSTORE TIMESTAMP PUSH1 0x34 DUP4 ADD MSTORE PUSH1 0x54 DUP3 ADD MSTORE SUB PUSH1 0x54 DUP2 ADD DUP5 MSTORE ADD DUP3 PUSH2 0x4255 JUMP JUMPDEST MLOAD SWAP1 KECCAK256 SWAP3 PUSH1 0x40 MLOAD SWAP4 PUSH2 0x29F3 DUP6 PUSH2 0x423A JUMP JUMPDEST PUSH1 0xA DUP6 MSTORE PUSH1 0x20 CALLDATASIZE DUP2 DUP8 ADD CALLDATACOPY DUP5 MLOAD ISZERO PUSH2 0x3622 JUMPI PUSH1 0x30 PUSH1 0x20 DUP7 ADD MSTORE8 DUP5 MLOAD PUSH1 0x1 LT ISZERO PUSH2 0x3622 JUMPI PUSH1 0x78 PUSH1 0x21 DUP7 ADD MSTORE8 PUSH1 0x0 JUMPDEST PUSH1 0x4 DUP2 LT PUSH2 0x358E JUMPI POP POP PUSH2 0x2A75 PUSH1 0x21 PUSH1 0x40 MLOAD DUP1 SWAP7 DUP5 MLOAD PUSH2 0x2A47 DUP2 PUSH1 0x20 DUP6 ADD PUSH1 0x20 DUP10 ADD PUSH2 0x4351 JUMP JUMPDEST DUP3 ADD PUSH1 0x2D PUSH1 0xF8 SHL PUSH1 0x20 DUP3 ADD MSTORE PUSH2 0x2A66 DUP3 MLOAD DUP1 SWAP4 PUSH1 0x20 DUP8 DUP6 ADD SWAP2 ADD PUSH2 0x4351 JUMP JUMPDEST ADD SUB PUSH1 0x1 DUP2 ADD DUP8 MSTORE ADD DUP6 PUSH2 0x4255 JUMP JUMPDEST PUSH1 0x40 MLOAD SWAP5 PUSH2 0x2A82 DUP7 PUSH2 0x4203 JUMP JUMPDEST DUP5 DUP7 MSTORE DUP4 PUSH1 0x20 DUP8 ADD MSTORE DUP3 PUSH1 0x40 DUP8 ADD MSTORE DUP2 PUSH1 0x60 DUP8 ADD MSTORE PUSH1 0x44 CALLDATALOAD PUSH1 0x80 DUP8 ADD MSTORE PUSH1 0x84 CALLDATALOAD PUSH1 0xA0 DUP8 ADD MSTORE PUSH1 0xC0 DUP7 ADD MSTORE CALLER PUSH1 0xE0 DUP7 ADD MSTORE PUSH1 0x40 MLOAD PUSH2 0x2ABE DUP2 PUSH2 0x423A JUMP JUMPDEST PUSH1 0x3 DUP2 MSTORE PUSH3 0x526177 PUSH1 0xE8 SHL PUSH1 0x20 DUP3 ADD MSTORE PUSH2 0x100 DUP7 ADD MSTORE PUSH1 0x40 MLOAD PUSH2 0x2AE0 DUP2 PUSH2 0x423A JUMP JUMPDEST PUSH1 0xD DUP2 MSTORE PUSH13 0x26B4B734B7339021B2B73A32B9 PUSH1 0x99 SHL PUSH1 0x20 DUP3 ADD MSTORE PUSH2 0x120 DUP7 ADD MSTORE CALLER PUSH2 0x140 DUP7 ADD MSTORE PUSH1 0x0 PUSH2 0x160 DUP7 ADD MSTORE PUSH1 0x0 PUSH2 0x180 DUP7 ADD MSTORE PUSH1 0x0 PUSH2 0x1A0 DUP7 ADD MSTORE PUSH1 0x0 PUSH2 0x1C0 DUP7 ADD MSTORE TIMESTAMP PUSH2 0x1E0 DUP7 ADD MSTORE PUSH1 0x40 MLOAD PUSH1 0x20 DUP2 DUP7 MLOAD PUSH2 0x2B43 DUP2 DUP4 DUP6 DUP12 ADD PUSH2 0x4351 JUMP JUMPDEST DUP2 ADD PUSH1 0x2 DUP2 MSTORE SUB ADD SWAP1 KECCAK256 DUP6 MLOAD DUP1 MLOAD SWAP1 PUSH1 0x1 PUSH1 0x1 PUSH1 0x40 SHL SUB DUP3 GT PUSH2 0x1AC4 JUMPI DUP2 SWAP1 PUSH2 0x2B6C DUP5 SLOAD PUSH2 0x4390 JUMP JUMPDEST PUSH1 0x1F DUP2 GT PUSH2 0x353E JUMPI JUMPDEST POP PUSH1 0x20 SWAP1 PUSH1 0x1F DUP4 GT PUSH1 0x1 EQ PUSH2 0x34D2 JUMPI PUSH1 0x0 SWAP3 PUSH2 0x34C7 JUMPI JUMPDEST POP POP DUP2 PUSH1 0x1 SHL SWAP2 PUSH1 0x0 NOT SWAP1 PUSH1 0x3 SHL SHR NOT AND OR DUP2 SSTORE JUMPDEST PUSH1 0x20 DUP7 ADD MLOAD DUP1 MLOAD SWAP1 PUSH1 0x1 PUSH1 0x1 PUSH1 0x40 SHL SUB DUP3 GT PUSH2 0x1AC4 JUMPI DUP2 SWAP1 PUSH2 0x2BC6 PUSH1 0x1 DUP6 ADD SLOAD PUSH2 0x4390 JUMP JUMPDEST PUSH1 0x1F DUP2 GT PUSH2 0x3474 JUMPI JUMPDEST POP PUSH1 0x20 SWAP1 PUSH1 0x1F DUP4 GT PUSH1 0x1 EQ PUSH2 0x3402 JUMPI PUSH1 0x0 SWAP3 PUSH2 0x33F7 JUMPI JUMPDEST POP POP DUP2 PUSH1 0x1 SHL SWAP2 PUSH1 0x0 NOT SWAP1 PUSH1 0x3 SHL SHR NOT AND OR PUSH1 0x1 DUP3 ADD SSTORE JUMPDEST PUSH1 0x40 DUP7 ADD MLOAD DUP1 MLOAD SWAP1 PUSH1 0x1 PUSH1 0x1 PUSH1 0x40 SHL SUB DUP3 GT PUSH2 0x1AC4 JUMPI DUP2 SWAP1 PUSH2 0x2C23 PUSH1 0x2 DUP6 ADD SLOAD PUSH2 0x4390 JUMP JUMPDEST PUSH1 0x1F DUP2 GT PUSH2 0x33A4 JUMPI JUMPDEST POP PUSH1 0x20 SWAP1 PUSH1 0x1F DUP4 GT PUSH1 0x1 EQ PUSH2 0x3332 JUMPI PUSH1 0x0 SWAP3 PUSH2 0x3327 JUMPI JUMPDEST POP POP DUP2 PUSH1 0x1 SHL SWAP2 PUSH1 0x0 NOT SWAP1 PUSH1 0x3 SHL SHR NOT AND OR PUSH1 0x2 DUP3 ADD SSTORE JUMPDEST PUSH1 0x60 DUP7 ADD MLOAD DUP1 MLOAD SWAP1 PUSH1 0x1 PUSH1 0x1 PUSH1 0x40 SHL SUB DUP3 GT PUSH2 0x1AC4 JUMPI DUP2 SWAP1 PUSH2 0x2C80 PUSH1 0x3 DUP6 ADD SLOAD PUSH2 0x4390 JUMP JUMPDEST PUSH1 0x1F DUP2 GT PUSH2 0x32D4 JUMPI JUMPDEST POP PUSH1 0x20 SWAP1 PUSH1 0x1F DUP4 GT PUSH1 0x1 EQ PUSH2 0x3262 JUMPI PUSH1 0x0 SWAP3 PUSH2 0x3257 JUMPI JUMPDEST POP POP DUP2 PUSH1 0x1 SHL SWAP2 PUSH1 0x0 NOT SWAP1 PUSH1 0x3 SHL SHR NOT AND OR PUSH1 0x3 DUP3 ADD SSTORE JUMPDEST PUSH1 0x80 DUP7 ADD MLOAD PUSH1 0x4 DUP3 ADD SSTORE PUSH1 0xA0 DUP7 ADD MLOAD PUSH1 0x5 DUP3 ADD SSTORE PUSH1 0xC0 DUP7 ADD MLOAD DUP1 MLOAD SWAP1 PUSH1 0x1 PUSH1 0x1 PUSH1 0x40 SHL SUB DUP3 GT PUSH2 0x1AC4 JUMPI DUP2 SWAP1 PUSH2 0x2CF1 PUSH1 0x6 DUP6 ADD SLOAD PUSH2 0x4390 JUMP JUMPDEST PUSH1 0x1F DUP2 GT PUSH2 0x3204 JUMPI JUMPDEST POP PUSH1 0x20 SWAP1 PUSH1 0x1F DUP4 GT PUSH1 0x1 EQ PUSH2 0x3192 JUMPI PUSH1 0x0 SWAP3 PUSH2 0x3187 JUMPI JUMPDEST POP POP DUP2 PUSH1 0x1 SHL SWAP2 PUSH1 0x0 NOT SWAP1 PUSH1 0x3 SHL SHR NOT AND OR PUSH1 0x6 DUP3 ADD SSTORE JUMPDEST PUSH1 0x7 DUP2 ADD PUSH1 0x1 DUP1 PUSH1 0xA0 SHL SUB PUSH1 0xE0 DUP9 ADD MLOAD AND PUSH1 0x1 PUSH1 0x1 PUSH1 0x60 SHL SUB PUSH1 0xA0 SHL DUP3 SLOAD AND OR SWAP1 SSTORE PUSH2 0x100 DUP7 ADD MLOAD DUP1 MLOAD SWAP1 PUSH1 0x1 PUSH1 0x1 PUSH1 0x40 SHL SUB DUP3 GT PUSH2 0x1AC4 JUMPI DUP2 SWAP1 PUSH2 0x2D71 PUSH1 0x8 DUP6 ADD SLOAD PUSH2 0x4390 JUMP JUMPDEST PUSH1 0x1F DUP2 GT PUSH2 0x3134 JUMPI JUMPDEST POP PUSH1 0x20 SWAP1 PUSH1 0x1F DUP4 GT PUSH1 0x1 EQ PUSH2 0x30C2 JUMPI PUSH1 0x0 SWAP3 PUSH2 0x30B7 JUMPI JUMPDEST POP POP DUP2 PUSH1 0x1 SHL SWAP2 PUSH1 0x0 NOT SWAP1 PUSH1 0x3 SHL SHR NOT AND OR PUSH1 0x8 DUP3 ADD SSTORE JUMPDEST PUSH2 0x120 DUP7 ADD MLOAD SWAP6 DUP7 MLOAD PUSH1 0x1 PUSH1 0x1 PUSH1 0x40 SHL SUB DUP2 GT PUSH2 0x1AC4 JUMPI PUSH2 0x2DCD PUSH1 0x9 DUP5 ADD SLOAD PUSH2 0x4390 JUMP JUMPDEST PUSH1 0x1F DUP2 GT PUSH2 0x3070 JUMPI JUMPDEST POP PUSH1 0x20 PUSH1 0x1F DUP3 GT PUSH1 0x1 EQ PUSH2 0x2FCE JUMPI SWAP3 PUSH1 0xB PUSH2 0x1E0 PUSH2 0x722 SWAP5 DUP5 PUSH2 0x2F92 SWAP9 SWAP6 PUSH32 0x73C819068BA25B88A32CB91F9B552AB50D9CCCB7C4ABDEB2A04F44373B715393 SWAP11 SWAP9 PUSH2 0x443 SWAP15 PUSH1 0x0 SWAP3 PUSH2 0x2FC3 JUMPI JUMPDEST POP POP DUP2 PUSH1 0x1 SHL SWAP2 PUSH1 0x0 NOT SWAP1 PUSH1 0x3 SHL SHR NOT AND OR PUSH1 0x9 DUP6 ADD SSTORE JUMPDEST PUSH1 0xA DUP5 ADD PUSH1 0x1 DUP1 PUSH1 0xA0 SHL SUB PUSH2 0x140 DUP4 ADD MLOAD AND DUP2 SLOAD SWAP1 PUSH1 0xFF PUSH1 0xA0 SHL PUSH2 0x160 DUP6 ADD MLOAD ISZERO ISZERO PUSH1 0xA0 SHL AND PUSH1 0xFF PUSH1 0xA8 SHL PUSH2 0x180 DUP7 ADD MLOAD ISZERO ISZERO PUSH1 0xA8 SHL AND SWAP1 PUSH1 0xFF PUSH1 0xB0 SHL PUSH2 0x1A0 DUP8 ADD MLOAD ISZERO ISZERO PUSH1 0xB0 SHL AND SWAP3 PUSH1 0xFF PUSH1 0xB8 SHL PUSH2 0x1C0 DUP9 ADD MLOAD ISZERO ISZERO PUSH1 0xB8 SHL AND SWAP5 PUSH1 0x1 PUSH1 0x1 PUSH1 0x40 SHL SUB PUSH1 0xC0 SHL AND OR OR OR OR OR SWAP1 SSTORE ADD MLOAD SWAP2 ADD SSTORE PUSH2 0x2F5E PUSH1 0x40 MLOAD PUSH1 0x20 DUP2 DUP2 PUSH2 0x2EC9 DUP13 DUP4 DUP2 MLOAD SWAP4 DUP5 SWAP3 ADD PUSH2 0x4351 JUMP JUMPDEST DUP2 ADD PUSH1 0x3 DUP2 MSTORE SUB ADD SWAP1 KECCAK256 PUSH1 0x40 MLOAD SWAP1 PUSH8 0x27B934B3B4B71D1 PUSH1 0xC5 SHL PUSH1 0x20 DUP4 ADD MSTORE PUSH2 0x2F10 PUSH1 0x28 DUP4 DUP9 MLOAD PUSH2 0x2F00 DUP2 DUP5 DUP5 ADD PUSH1 0x20 DUP14 ADD PUSH2 0x4351 JUMP JUMPDEST DUP2 ADD SUB PUSH1 0x8 DUP2 ADD DUP6 MSTORE ADD DUP4 PUSH2 0x4255 JUMP JUMPDEST PUSH1 0x40 MLOAD SWAP2 PUSH2 0x2F1D DUP4 PUSH2 0x421F JUMP JUMPDEST DUP11 DUP4 MSTORE PUSH1 0x40 MLOAD PUSH2 0x2F2C DUP2 PUSH2 0x423A JUMP JUMPDEST PUSH1 0xA DUP2 MSTORE PUSH10 0x149959DA5CDD195C9959 PUSH1 0xB2 SHL PUSH1 0x20 DUP3 ADD MSTORE PUSH1 0x20 DUP5 ADD MSTORE PUSH1 0x40 DUP4 ADD MSTORE CALLER PUSH1 0x60 DUP4 ADD MSTORE TIMESTAMP PUSH1 0x80 DUP4 ADD MSTORE PUSH2 0x4D0D JUMP JUMPDEST PUSH2 0x2F84 PUSH1 0x40 MLOAD SWAP7 PUSH1 0xE0 DUP9 MSTORE PUSH2 0x2F76 PUSH1 0xE0 DUP10 ADD DUP11 PUSH2 0x4460 JUMP JUMPDEST SWAP1 DUP9 DUP3 SUB PUSH1 0x20 DUP11 ADD MSTORE PUSH2 0x4460 JUMP JUMPDEST SWAP1 DUP7 DUP3 SUB PUSH1 0x40 DUP9 ADD MSTORE PUSH2 0x4460 JUMP JUMPDEST SWAP2 PUSH1 0x44 CALLDATALOAD PUSH1 0x80 DUP3 ADD MSTORE PUSH1 0x84 CALLDATALOAD PUSH1 0xA0 DUP3 ADD MSTORE TIMESTAMP PUSH1 0xC0 DUP3 ADD MSTORE DUP1 CALLER SWAP4 SUB SWAP1 LOG2 PUSH1 0x40 MLOAD SWAP2 DUP3 SWAP2 PUSH1 0x20 DUP4 MSTORE PUSH1 0x20 DUP4 ADD SWAP1 PUSH2 0x4460 JUMP JUMPDEST ADD MLOAD SWAP1 POP DUP15 DUP1 PUSH2 0x2E23 JUMP JUMPDEST PUSH1 0x9 DUP5 ADD PUSH1 0x0 MSTORE PUSH1 0x20 PUSH1 0x0 KECCAK256 SWAP9 PUSH1 0x0 JUMPDEST PUSH1 0x1F NOT DUP5 AND DUP2 LT PUSH2 0x3058 JUMPI POP PUSH2 0x1E0 PUSH2 0x722 SWAP5 PUSH1 0x1 DUP6 PUSH2 0x443 SWAP14 PUSH32 0x73C819068BA25B88A32CB91F9B552AB50D9CCCB7C4ABDEB2A04F44373B715393 SWAP12 SWAP10 SWAP7 PUSH1 0xB SWAP7 PUSH2 0x2F92 SWAP13 SWAP10 PUSH1 0x1F NOT DUP2 AND LT PUSH2 0x303F JUMPI JUMPDEST POP POP POP DUP2 SHL ADD PUSH1 0x9 DUP6 ADD SSTORE PUSH2 0x2E3B JUMP JUMPDEST ADD MLOAD PUSH1 0x0 NOT PUSH1 0xF8 DUP5 PUSH1 0x3 SHL AND SHR NOT AND SWAP1 SSTORE DUP15 DUP1 DUP1 PUSH2 0x302F JUMP JUMPDEST DUP3 DUP3 ADD MLOAD DUP12 SSTORE PUSH1 0x1 SWAP1 SWAP11 ADD SWAP10 PUSH1 0x20 SWAP3 DUP4 ADD SWAP3 ADD PUSH2 0x2FDE JUMP JUMPDEST PUSH1 0x9 DUP5 ADD PUSH1 0x0 MSTORE PUSH1 0x20 PUSH1 0x0 KECCAK256 PUSH1 0x1F DUP4 ADD PUSH1 0x5 SHR DUP2 ADD PUSH1 0x20 DUP5 LT PUSH2 0x30B0 JUMPI JUMPDEST PUSH1 0x1F DUP4 ADD PUSH1 0x5 SHR DUP3 ADD DUP2 LT PUSH2 0x30A4 JUMPI POP POP PUSH2 0x2DD6 JUMP JUMPDEST PUSH1 0x0 DUP2 SSTORE PUSH1 0x1 ADD PUSH2 0x308E JUMP JUMPDEST POP DUP1 PUSH2 0x308E JUMP JUMPDEST ADD MLOAD SWAP1 POP DUP9 DUP1 PUSH2 0x2D91 JUMP JUMPDEST SWAP3 POP PUSH1 0x8 DUP5 ADD PUSH1 0x0 MSTORE PUSH1 0x20 PUSH1 0x0 KECCAK256 SWAP1 PUSH1 0x0 SWAP4 JUMPDEST PUSH1 0x1F NOT DUP5 AND DUP6 LT PUSH2 0x3119 JUMPI PUSH1 0x1 SWAP5 POP DUP4 PUSH1 0x1F NOT DUP2 AND LT PUSH2 0x3100 JUMPI JUMPDEST POP POP POP DUP2 SHL ADD PUSH1 0x8 DUP3 ADD SSTORE PUSH2 0x2DA9 JUMP JUMPDEST ADD MLOAD PUSH1 0x0 NOT PUSH1 0xF8 DUP5 PUSH1 0x3 SHL AND SHR NOT AND SWAP1 SSTORE DUP9 DUP1 DUP1 PUSH2 0x30F0 JUMP JUMPDEST DUP2 DUP2 ADD MLOAD DUP4 SSTORE PUSH1 0x20 SWAP5 DUP6 ADD SWAP5 PUSH1 0x1 SWAP1 SWAP4 ADD SWAP3 SWAP1 SWAP2 ADD SWAP1 PUSH2 0x30D5 JUMP JUMPDEST SWAP1 SWAP2 POP PUSH1 0x8 DUP5 ADD PUSH1 0x0 MSTORE PUSH1 0x20 PUSH1 0x0 KECCAK256 PUSH1 0x1F DUP5 ADD PUSH1 0x5 SHR DUP2 ADD PUSH1 0x20 DUP6 LT PUSH2 0x3180 JUMPI JUMPDEST SWAP1 DUP5 SWAP4 SWAP3 SWAP2 JUMPDEST PUSH1 0x1F DUP4 ADD PUSH1 0x5 SHR DUP3 ADD DUP2 LT PUSH2 0x3171 JUMPI POP POP PUSH2 0x2D7A JUMP JUMPDEST PUSH1 0x0 DUP2 SSTORE DUP6 SWAP5 POP PUSH1 0x1 ADD PUSH2 0x315B JUMP JUMPDEST POP DUP1 PUSH2 0x3155 JUMP JUMPDEST ADD MLOAD SWAP1 POP DUP9 DUP1 PUSH2 0x2D11 JUMP JUMPDEST SWAP3 POP PUSH1 0x6 DUP5 ADD PUSH1 0x0 MSTORE PUSH1 0x20 PUSH1 0x0 KECCAK256 SWAP1 PUSH1 0x0 SWAP4 JUMPDEST PUSH1 0x1F NOT DUP5 AND DUP6 LT PUSH2 0x31E9 JUMPI PUSH1 0x1 SWAP5 POP DUP4 PUSH1 0x1F NOT DUP2 AND LT PUSH2 0x31D0 JUMPI JUMPDEST POP POP POP DUP2 SHL ADD PUSH1 0x6 DUP3 ADD SSTORE PUSH2 0x2D29 JUMP JUMPDEST ADD MLOAD PUSH1 0x0 NOT PUSH1 0xF8 DUP5 PUSH1 0x3 SHL AND SHR NOT AND SWAP1 SSTORE DUP9 DUP1 DUP1 PUSH2 0x31C0 JUMP JUMPDEST DUP2 DUP2 ADD MLOAD DUP4 SSTORE PUSH1 0x20 SWAP5 DUP6 ADD SWAP5 PUSH1 0x1 SWAP1 SWAP4 ADD SWAP3 SWAP1 SWAP2 ADD SWAP1 PUSH2 0x31A5 JUMP JUMPDEST SWAP1 SWAP2 POP PUSH1 0x6 DUP5 ADD PUSH1 0x0 MSTORE PUSH1 0x20 PUSH1 0x0 KECCAK256 PUSH1 0x1F DUP5 ADD PUSH1 0x5 SHR DUP2 ADD PUSH1 0x20 DUP6 LT PUSH2 0x3250 JUMPI JUMPDEST SWAP1 DUP5 SWAP4 SWAP3 SWAP2 JUMPDEST PUSH1 0x1F DUP4 ADD PUSH1 0x5 SHR DUP3 ADD DUP2 LT PUSH2 0x3241 JUMPI POP POP PUSH2 0x2CFA JUMP JUMPDEST PUSH1 0x0 DUP2 SSTORE DUP6 SWAP5 POP PUSH1 0x1 ADD PUSH2 0x322B JUMP JUMPDEST POP DUP1 PUSH2 0x3225 JUMP JUMPDEST ADD MLOAD SWAP1 POP DUP9 DUP1 PUSH2 0x2CA0 JUMP JUMPDEST SWAP3 POP PUSH1 0x3 DUP5 ADD PUSH1 0x0 MSTORE PUSH1 0x20 PUSH1 0x0 KECCAK256 SWAP1 PUSH1 0x0 SWAP4 JUMPDEST PUSH1 0x1F NOT DUP5 AND DUP6 LT PUSH2 0x32B9 JUMPI PUSH1 0x1 SWAP5 POP DUP4 PUSH1 0x1F NOT DUP2 AND LT PUSH2 0x32A0 JUMPI JUMPDEST POP POP POP DUP2 SHL ADD PUSH1 0x3 DUP3 ADD SSTORE PUSH2 0x2CB8 JUMP JUMPDEST ADD MLOAD PUSH1 0x0 NOT PUSH1 0xF8 DUP5 PUSH1 0x3 SHL AND SHR NOT AND SWAP1 SSTORE DUP9 DUP1 DUP1 PUSH2 0x3290 JUMP JUMPDEST DUP2 DUP2 ADD MLOAD DUP4 SSTORE PUSH1 0x20 SWAP5 DUP6 ADD SWAP5 PUSH1 0x1 SWAP1 SWAP4 ADD SWAP3 SWAP1 SWAP2 ADD SWAP1 PUSH2 0x3275 JUMP JUMPDEST SWAP1 SWAP2 POP PUSH1 0x3 DUP5 ADD PUSH1 0x0 MSTORE PUSH1 0x20 PUSH1 0x0 KECCAK256 PUSH1 0x1F DUP5 ADD PUSH1 0x5 SHR DUP2 ADD PUSH1 0x20 DUP6 LT PUSH2 0x3320 JUMPI JUMPDEST SWAP1 DUP5 SWAP4 SWAP3 SWAP2 JUMPDEST PUSH1 0x1F DUP4 ADD PUSH1 0x5 SHR DUP3 ADD DUP2 LT PUSH2 0x3311 JUMPI POP POP PUSH2 0x2C89 JUMP JUMPDEST PUSH1 0x0 DUP2 SSTORE DUP6 SWAP5 POP PUSH1 0x1 ADD PUSH2 0x32FB JUMP JUMPDEST POP DUP1 PUSH2 0x32F5 JUMP JUMPDEST ADD MLOAD SWAP1 POP DUP9 DUP1 PUSH2 0x2C43 JUMP JUMPDEST SWAP3 POP PUSH1 0x2 DUP5 ADD PUSH1 0x0 MSTORE PUSH1 0x20 PUSH1 0x0 KECCAK256 SWAP1 PUSH1 0x0 SWAP4 JUMPDEST PUSH1 0x1F NOT DUP5 AND DUP6 LT PUSH2 0x3389 JUMPI PUSH1 0x1 SWAP5 POP DUP4 PUSH1 0x1F NOT DUP2 AND LT PUSH2 0x3370 JUMPI JUMPDEST POP POP POP DUP2 SHL ADD PUSH1 0x2 DUP3 ADD SSTORE PUSH2 0x2C5B JUMP JUMPDEST ADD MLOAD PUSH1 0x0 NOT PUSH1 0xF8 DUP5 PUSH1 0x3 SHL AND SHR NOT AND SWAP1 SSTORE DUP9 DUP1 DUP1 PUSH2 0x3360 JUMP JUMPDEST DUP2 DUP2 ADD MLOAD DUP4 SSTORE PUSH1 0x20 SWAP5 DUP6 ADD SWAP5 PUSH1 0x1 SWAP1 SWAP4 ADD SWAP3 SWAP1 SWAP2 ADD SWAP1 PUSH2 0x3345 JUMP JUMPDEST SWAP1 SWAP2 POP PUSH1 0x2 DUP5 ADD PUSH1 0x0 MSTORE PUSH1 0x20 PUSH1 0x0 KECCAK256 PUSH1 0x1F DUP5 ADD PUSH1 0x5 SHR DUP2 ADD PUSH1 0x20 DUP6 LT PUSH2 0x33F0 JUMPI JUMPDEST SWAP1 DUP5 SWAP4 SWAP3 SWAP2 JUMPDEST PUSH1 0x1F DUP4 ADD PUSH1 0x5 SHR DUP3 ADD DUP2 LT PUSH2 0x33E1 JUMPI POP POP PUSH2 0x2C2C JUMP JUMPDEST PUSH1 0x0 DUP2 SSTORE DUP6 SWAP5 POP PUSH1 0x1 ADD PUSH2 0x33CB JUMP JUMPDEST POP DUP1 PUSH2 0x33C5 JUMP JUMPDEST ADD MLOAD SWAP1 POP DUP9 DUP1 PUSH2 0x2BE6 JUMP JUMPDEST SWAP3 POP PUSH1 0x1 DUP5 ADD PUSH1 0x0 MSTORE PUSH1 0x20 PUSH1 0x0 KECCAK256 SWAP1 PUSH1 0x0 SWAP4 JUMPDEST PUSH1 0x1F NOT DUP5 AND DUP6 LT PUSH2 0x3459 JUMPI PUSH1 0x1 SWAP5 POP DUP4 PUSH1 0x1F NOT DUP2 AND LT PUSH2 0x3440 JUMPI JUMPDEST POP POP POP DUP2 SHL ADD PUSH1 0x1 DUP3 ADD SSTORE PUSH2 0x2BFE JUMP JUMPDEST ADD MLOAD PUSH1 0x0 NOT PUSH1 0xF8 DUP5 PUSH1 0x3 SHL AND SHR NOT AND SWAP1 SSTORE DUP9 DUP1 DUP1 PUSH2 0x3430 JUMP JUMPDEST DUP2 DUP2 ADD MLOAD DUP4 SSTORE PUSH1 0x20 SWAP5 DUP6 ADD SWAP5 PUSH1 0x1 SWAP1 SWAP4 ADD SWAP3 SWAP1 SWAP2 ADD SWAP1 PUSH2 0x3415 JUMP JUMPDEST SWAP1 SWAP2 POP PUSH1 0x1 DUP5 ADD PUSH1 0x0 MSTORE PUSH1 0x20 PUSH1 0x0 KECCAK256 PUSH1 0x1F DUP5 ADD PUSH1 0x5 SHR DUP2 ADD PUSH1 0x20 DUP6 LT PUSH2 0x34C0 JUMPI JUMPDEST SWAP1 DUP5 SWAP4 SWAP3 SWAP2 JUMPDEST PUSH1 0x1F DUP4 ADD PUSH1 0x5 SHR DUP3 ADD DUP2 LT PUSH2 0x34B1 JUMPI POP POP PUSH2 0x2BCF JUMP JUMPDEST PUSH1 0x0 DUP2 SSTORE DUP6 SWAP5 POP PUSH1 0x1 ADD PUSH2 0x349B JUMP JUMPDEST POP DUP1 PUSH2 0x3495 JUMP JUMPDEST ADD MLOAD SWAP1 POP DUP9 DUP1 PUSH2 0x2B8C JUMP JUMPDEST SWAP3 POP DUP4 PUSH1 0x0 MSTORE PUSH1 0x20 PUSH1 0x0 KECCAK256 SWAP1 PUSH1 0x0 SWAP4 JUMPDEST PUSH1 0x1F NOT DUP5 AND DUP6 LT PUSH2 0x3523 JUMPI PUSH1 0x1 SWAP5 POP DUP4 PUSH1 0x1F NOT DUP2 AND LT PUSH2 0x350A JUMPI JUMPDEST POP POP POP DUP2 SHL ADD DUP2 SSTORE PUSH2 0x2BA1 JUMP JUMPDEST ADD MLOAD PUSH1 0x0 NOT PUSH1 0xF8 DUP5 PUSH1 0x3 SHL AND SHR NOT AND SWAP1 SSTORE DUP9 DUP1 DUP1 PUSH2 0x34FD JUMP JUMPDEST DUP2 DUP2 ADD MLOAD DUP4 SSTORE PUSH1 0x20 SWAP5 DUP6 ADD SWAP5 PUSH1 0x1 SWAP1 SWAP4 ADD SWAP3 SWAP1 SWAP2 ADD SWAP1 PUSH2 0x34E2 JUMP JUMPDEST SWAP1 SWAP2 POP DUP4 PUSH1 0x0 MSTORE PUSH1 0x20 PUSH1 0x0 KECCAK256 PUSH1 0x1F DUP5 ADD PUSH1 0x5 SHR DUP2 ADD PUSH1 0x20 DUP6 LT PUSH2 0x3587 JUMPI JUMPDEST SWAP1 DUP5 SWAP4 SWAP3 SWAP2 JUMPDEST PUSH1 0x1F DUP4 ADD PUSH1 0x5 SHR DUP3 ADD DUP2 LT PUSH2 0x3578 JUMPI POP POP PUSH2 0x2B75 JUMP JUMPDEST PUSH1 0x0 DUP2 SSTORE DUP6 SWAP5 POP PUSH1 0x1 ADD PUSH2 0x3562 JUMP JUMPDEST POP DUP1 PUSH2 0x355C JUMP JUMPDEST PUSH1 0x20 DUP2 LT ISZERO PUSH2 0x3622 JUMPI DUP2 DUP2 BYTE SWAP1 PUSH1 0xF PUSH2 0x35AB DUP2 DUP5 PUSH1 0x4 SHR AND PUSH2 0x518C JUMP JUMPDEST SWAP1 DUP3 PUSH1 0x1 SHL SWAP4 PUSH1 0x2 DUP5 DUP7 DIV DUP2 EQ DUP6 ISZERO OR ISZERO PUSH2 0x360C JUMPI DUP6 DUP2 ADD DUP1 SWAP2 GT PUSH2 0x360C JUMPI PUSH2 0x35DB PUSH2 0x35E2 SWAP5 PUSH1 0x0 BYTE SWAP2 DUP13 PUSH2 0x517B JUMP JUMPDEST MSTORE8 AND PUSH2 0x518C JUMP JUMPDEST PUSH1 0x3 SWAP1 DUP4 DUP3 ADD DUP3 GT PUSH2 0x360C JUMPI PUSH2 0x3607 SWAP4 PUSH2 0x3601 SWAP2 PUSH1 0x0 BYTE SWAP3 ADD DUP10 PUSH2 0x517B JUMP JUMPDEST MSTORE8 PUSH2 0x50E8 JUMP JUMPDEST PUSH2 0x2A20 JUMP JUMPDEST PUSH4 0x4E487B71 PUSH1 0xE0 SHL PUSH1 0x0 MSTORE PUSH1 0x11 PUSH1 0x4 MSTORE PUSH1 0x24 PUSH1 0x0 REVERT JUMPDEST PUSH4 0x4E487B71 PUSH1 0xE0 SHL PUSH1 0x0 MSTORE PUSH1 0x32 PUSH1 0x4 MSTORE PUSH1 0x24 PUSH1 0x0 REVERT JUMPDEST PUSH1 0x40 MLOAD PUSH4 0xBFCCC8E9 PUSH1 0xE0 SHL DUP2 MSTORE PUSH1 0x4 SWAP1 REVERT JUMPDEST PUSH1 0x40 MLOAD PUSH4 0xD05DB019 PUSH1 0xE0 SHL DUP2 MSTORE PUSH1 0x84 CALLDATALOAD PUSH1 0x4 DUP3 ADD MSTORE PUSH1 0x24 SWAP1 REVERT JUMPDEST PUSH1 0x40 MLOAD PUSH4 0x3ABE7DB7 PUSH1 0xE2 SHL DUP2 MSTORE PUSH1 0x4 SWAP1 REVERT JUMPDEST POP PUSH1 0x64 PUSH1 0x84 CALLDATALOAD GT PUSH2 0x297A JUMP JUMPDEST PUSH1 0x40 MLOAD PUSH4 0xFD83F8D9 PUSH1 0xE0 SHL DUP2 MSTORE PUSH1 0x4 SWAP1 REVERT JUMPDEST PUSH1 0x40 MLOAD PUSH4 0xA765E58F PUSH1 0xE0 SHL DUP2 MSTORE PUSH1 0x4 SWAP1 REVERT JUMPDEST PUSH1 0x40 MLOAD PUSH4 0xAC6E453 PUSH1 0xE3 SHL DUP2 MSTORE PUSH1 0x4 SWAP1 REVERT JUMPDEST CALLVALUE PUSH2 0x353 JUMPI PUSH1 0x40 CALLDATASIZE PUSH1 0x3 NOT ADD SLT PUSH2 0x353 JUMPI PUSH2 0x36D1 PUSH2 0x41ED JUMP JUMPDEST CALLER PUSH1 0x1 PUSH1 0x1 PUSH1 0xA0 SHL SUB DUP3 AND SUB PUSH2 0x36ED JUMPI PUSH2 0xEEA SWAP1 PUSH1 0x4 CALLDATALOAD PUSH2 0x4CAA JUMP JUMPDEST PUSH1 0x40 MLOAD PUSH4 0x334BD919 PUSH1 0xE1 SHL DUP2 MSTORE PUSH1 0x4 SWAP1 REVERT JUMPDEST CALLVALUE PUSH2 0x353 JUMPI PUSH1 0x40 CALLDATASIZE PUSH1 0x3 NOT ADD SLT PUSH2 0x353 JUMPI PUSH1 0x4 CALLDATALOAD PUSH1 0x1 PUSH1 0x1 PUSH1 0x40 SHL SUB DUP2 GT PUSH2 0x353 JUMPI PUSH2 0x372F SWAP1 CALLDATASIZE SWAP1 PUSH1 0x4 ADD PUSH2 0x4276 JUMP JUMPDEST PUSH2 0x374B PUSH1 0x20 PUSH1 0x24 CALLDATALOAD SWAP3 DUP2 PUSH1 0x40 MLOAD SWAP4 DUP3 DUP6 DUP1 SWAP5 MLOAD SWAP4 DUP5 SWAP3 ADD PUSH2 0x4351 JUMP JUMPDEST DUP2 ADD PUSH1 0x3 DUP2 MSTORE SUB ADD SWAP1 KECCAK256 DUP1 SLOAD DUP3 LT ISZERO PUSH2 0x353 JUMPI PUSH2 0x37DA SWAP2 PUSH2 0x376B SWAP2 PUSH2 0x4374 JUMP JUMPDEST POP PUSH1 0x40 MLOAD SWAP1 PUSH2 0x3785 DUP3 PUSH2 0x377E DUP2 DUP5 PUSH2 0x43CA JUMP JUMPDEST SUB DUP4 PUSH2 0x4255 JUMP JUMPDEST PUSH1 0x40 MLOAD PUSH2 0x3799 DUP2 PUSH2 0x3C1 DUP2 PUSH1 0x1 DUP7 ADD PUSH2 0x43CA JUMP JUMPDEST PUSH2 0x37F6 PUSH1 0x40 MLOAD PUSH2 0x37B0 DUP2 PUSH2 0x3C1 DUP2 PUSH1 0x2 DUP9 ADD PUSH2 0x43CA JUMP JUMPDEST PUSH2 0x37E8 PUSH1 0x4 PUSH1 0x1 DUP1 PUSH1 0xA0 SHL SUB PUSH1 0x3 DUP8 ADD SLOAD AND SWAP6 ADD SLOAD SWAP4 PUSH1 0x40 MLOAD SWAP8 DUP9 SWAP8 PUSH1 0xA0 DUP10 MSTORE PUSH1 0xA0 DUP10 ADD SWAP1 PUSH2 0x4460 JUMP JUMPDEST SWAP1 DUP8 DUP3 SUB PUSH1 0x20 DUP10 ADD MSTORE PUSH2 0x4460 JUMP JUMPDEST SWAP1 DUP6 DUP3 SUB PUSH1 0x40 DUP8 ADD MSTORE PUSH2 0x4460 JUMP JUMPDEST SWAP2 PUSH1 0x60 DUP5 ADD MSTORE PUSH1 0x80 DUP4 ADD MSTORE SUB SWAP1 RETURN JUMPDEST CALLVALUE PUSH2 0x353 JUMPI PUSH1 0x20 CALLDATASIZE PUSH1 0x3 NOT ADD SLT PUSH2 0x353 JUMPI PUSH2 0x381E PUSH2 0x41D7 JUMP JUMPDEST PUSH1 0x1 PUSH1 0x1 PUSH1 0xA0 SHL SUB AND PUSH1 0x0 SWAP1 DUP2 MSTORE PUSH1 0x0 DUP1 MLOAD PUSH1 0x20 PUSH2 0x52CE DUP4 CODECOPY DUP2 MLOAD SWAP2 MSTORE PUSH1 0x20 SWAP1 DUP2 MSTORE PUSH1 0x40 SWAP2 DUP3 SWAP1 KECCAK256 SLOAD SWAP2 MLOAD PUSH1 0xFF SWAP1 SWAP3 AND ISZERO ISZERO DUP3 MSTORE SWAP1 RETURN JUMPDEST CALLVALUE PUSH2 0x353 JUMPI PUSH2 0x3863 CALLDATASIZE PUSH2 0x4312 JUMP JUMPDEST PUSH2 0x386B PUSH2 0x4638 JUMP JUMPDEST PUSH2 0x3874 DUP3 PUSH2 0x4536 JUMP JUMPDEST ISZERO PUSH2 0x341 JUMPI PUSH2 0x318 PUSH32 0x125F88DB22967983B401F70F6804D47F43CB545FCB725D0B335FE7D43D9B4A4A SWAP2 PUSH1 0x0 DUP1 MLOAD PUSH1 0x20 PUSH2 0x534E DUP4 CODECOPY DUP2 MLOAD SWAP2 MSTORE DUP1 PUSH1 0x0 MSTORE PUSH1 0x0 PUSH1 0x20 MSTORE PUSH2 0x38C7 PUSH1 0x1 PUSH1 0x40 PUSH1 0x0 KECCAK256 ADD SLOAD PUSH2 0x4690 JUMP JUMPDEST PUSH2 0x56E DUP6 PUSH2 0x49EC JUMP JUMPDEST CALLVALUE PUSH2 0x353 JUMPI PUSH1 0x40 CALLDATASIZE PUSH1 0x3 NOT ADD SLT PUSH2 0x353 JUMPI PUSH2 0xEEA PUSH1 0x4 CALLDATALOAD PUSH2 0x38EF PUSH2 0x41ED JUMP JUMPDEST SWAP1 DUP1 PUSH1 0x0 MSTORE PUSH1 0x0 PUSH1 0x20 MSTORE PUSH2 0x390A PUSH1 0x1 PUSH1 0x40 PUSH1 0x0 KECCAK256 ADD SLOAD PUSH2 0x4690 JUMP JUMPDEST PUSH2 0x4985 JUMP JUMPDEST CALLVALUE PUSH2 0x353 JUMPI PUSH1 0x20 CALLDATASIZE PUSH1 0x3 NOT ADD SLT PUSH2 0x353 JUMPI PUSH1 0x4 CALLDATALOAD PUSH1 0x0 MSTORE PUSH1 0x0 PUSH1 0x20 MSTORE PUSH1 0x20 PUSH1 0x1 PUSH1 0x40 PUSH1 0x0 KECCAK256 ADD SLOAD PUSH1 0x40 MLOAD SWAP1 DUP2 MSTORE RETURN JUMPDEST CALLVALUE PUSH2 0x353 JUMPI PUSH1 0x20 DUP1 PUSH1 0x3 NOT CALLDATASIZE ADD SLT PUSH2 0x353 JUMPI PUSH1 0x4 CALLDATALOAD PUSH1 0x1 PUSH1 0x1 PUSH1 0x40 SHL SUB DUP2 GT PUSH2 0x353 JUMPI PUSH2 0x396F SWAP1 CALLDATASIZE SWAP1 PUSH1 0x4 ADD PUSH2 0x4276 JUMP JUMPDEST SWAP1 PUSH1 0x0 DUP1 MSTORE PUSH1 0x0 DUP2 MSTORE PUSH1 0x40 PUSH1 0x0 KECCAK256 CALLER PUSH1 0x0 MSTORE DUP2 MSTORE PUSH1 0xFF PUSH1 0x40 PUSH1 0x0 KECCAK256 SLOAD AND ISZERO PUSH2 0x797 JUMPI PUSH1 0x40 MLOAD PUSH2 0x3C1 PUSH2 0x39AE DUP5 MLOAD SWAP3 DUP5 DUP2 DUP2 DUP9 ADD SWAP6 PUSH2 0x8A2 DUP2 DUP4 DUP10 PUSH2 0x4351 JUMP JUMPDEST DUP3 DUP2 MLOAD SWAP2 ADD KECCAK256 DUP4 MLOAD SWAP1 DUP2 DUP4 KECCAK256 EQ SWAP1 DUP2 ISZERO SWAP2 PUSH2 0x3A84 JUMPI JUMPDEST POP PUSH2 0x908 JUMPI PUSH1 0xFF PUSH1 0xA PUSH1 0x40 MLOAD DUP5 DUP2 DUP8 MLOAD PUSH2 0x39DF DUP2 DUP4 DUP10 PUSH2 0x4351 JUMP JUMPDEST DUP2 ADD PUSH1 0x2 DUP2 MSTORE SUB ADD SWAP1 KECCAK256 ADD SLOAD PUSH1 0xB0 SHR AND DUP1 PUSH2 0x3A58 JUMPI JUMPDEST ISZERO PUSH2 0x3A35 JUMPI PUSH2 0x22B8 PUSH1 0xFF SWAP3 PUSH1 0xA SWAP3 PUSH1 0x40 MLOAD PUSH32 0x10F4BA4C7BB6F0C442F54585004A6E24440BEA5C2D2E6F36B688E3E624762E22 CALLER SWAP2 DUP1 PUSH2 0x227F TIMESTAMP DUP12 DUP4 PUSH2 0x513C JUMP JUMPDEST POP PUSH2 0x4E6 PUSH1 0x40 MLOAD SWAP3 DUP4 SWAP3 PUSH4 0x642B2F5B PUSH1 0xE1 SHL DUP5 MSTORE PUSH1 0x4 DUP5 ADD MSTORE PUSH1 0x24 DUP4 ADD SWAP1 PUSH2 0x4460 JUMP JUMPDEST POP PUSH1 0xFF PUSH1 0xA PUSH1 0x40 MLOAD DUP5 DUP2 DUP8 MLOAD PUSH2 0x3A6F DUP2 DUP4 DUP10 PUSH2 0x4351 JUMP JUMPDEST DUP2 ADD PUSH1 0x2 DUP2 MSTORE SUB ADD SWAP1 KECCAK256 ADD SLOAD PUSH1 0xB8 SHR AND PUSH2 0x39F5 JUMP JUMPDEST SWAP1 POP ISZERO DUP5 PUSH2 0x39C4 JUMP JUMPDEST CALLVALUE PUSH2 0x353 JUMPI PUSH2 0x3A9B CALLDATASIZE PUSH2 0x42CC JUMP JUMPDEST CALLER PUSH1 0x0 SWAP1 DUP2 MSTORE PUSH1 0x0 DUP1 MLOAD PUSH1 0x20 PUSH2 0x52EE DUP4 CODECOPY DUP2 MLOAD SWAP2 MSTORE PUSH1 0x20 SWAP1 DUP2 MSTORE PUSH1 0x40 SWAP1 SWAP2 KECCAK256 SLOAD SWAP2 SWAP3 SWAP2 PUSH1 0xFF AND ISZERO PUSH2 0x797 JUMPI PUSH1 0x40 MLOAD PUSH2 0x3C1 PUSH2 0x3AE3 DUP5 MLOAD SWAP3 DUP5 DUP2 DUP2 DUP9 ADD SWAP6 PUSH2 0x8A2 DUP2 DUP4 DUP10 PUSH2 0x4351 JUMP JUMPDEST DUP3 DUP2 MLOAD SWAP2 ADD KECCAK256 DUP4 MLOAD SWAP1 DUP2 DUP4 KECCAK256 EQ SWAP1 DUP2 ISZERO SWAP2 PUSH2 0x3D00 JUMPI JUMPDEST POP PUSH2 0x908 JUMPI DUP4 MLOAD ISZERO PUSH2 0x3CEE JUMPI PUSH1 0x9 PUSH2 0x3B54 DUP4 PUSH2 0x3B3C SWAP4 PUSH2 0x3B43 DUP5 PUSH1 0x40 MLOAD DUP5 DUP2 DUP12 MLOAD PUSH2 0x3B25 DUP2 DUP4 DUP10 PUSH2 0x4351 JUMP JUMPDEST DUP2 ADD PUSH1 0x2 DUP2 MSTORE SUB ADD SWAP1 KECCAK256 ADD PUSH1 0x40 MLOAD SWAP7 DUP8 DUP1 SWAP3 PUSH2 0x43CA JUMP JUMPDEST SUB DUP7 PUSH2 0x4255 JUMP JUMPDEST PUSH1 0x40 MLOAD DUP1 SWAP4 DUP2 SWAP3 DUP10 MLOAD SWAP3 DUP4 SWAP2 PUSH2 0x4351 JUMP JUMPDEST DUP2 ADD PUSH1 0x2 DUP2 MSTORE SUB ADD SWAP1 KECCAK256 ADD DUP5 MLOAD PUSH1 0x1 PUSH1 0x1 PUSH1 0x40 SHL SUB DUP2 GT PUSH2 0x1AC4 JUMPI PUSH2 0x3B79 DUP3 SLOAD PUSH2 0x4390 JUMP JUMPDEST PUSH1 0x1F DUP2 GT PUSH2 0x3CA8 JUMPI JUMPDEST POP DUP4 PUSH1 0x1F DUP3 GT PUSH1 0x1 EQ PUSH2 0x3C17 JUMPI SWAP4 PUSH32 0x81DBBD3BA646453A262E90D0495AADC4D783BAB49B0A8BE2CD84F220CAE608BB SWAP6 SWAP4 PUSH2 0x1CF5 SWAP4 DUP4 PUSH2 0x3BFD SWAP5 PUSH2 0x3BF0 SWAP9 PUSH1 0x0 SWAP2 PUSH2 0x3C0C JUMPI JUMPDEST POP DUP2 PUSH1 0x1 SHL SWAP2 PUSH1 0x0 NOT SWAP1 PUSH1 0x3 SHL SHR NOT AND OR SWAP1 SSTORE JUMPDEST PUSH1 0x40 MLOAD SWAP6 DUP7 SWAP6 PUSH1 0x60 DUP8 MSTORE PUSH1 0x60 DUP8 ADD SWAP1 PUSH2 0x4460 JUMP JUMPDEST SWAP2 DUP6 DUP4 SUB SWAP1 DUP7 ADD MSTORE PUSH2 0x4460 JUMP JUMPDEST DUP3 DUP2 SUB PUSH1 0x40 DUP5 ADD MSTORE CALLER SWAP6 PUSH2 0x4460 JUMP JUMPDEST SWAP1 POP DUP11 ADD MLOAD DUP12 PUSH2 0x3BC8 JUMP JUMPDEST PUSH1 0x1F NOT DUP3 AND SWAP1 DUP4 PUSH1 0x0 MSTORE DUP6 PUSH1 0x0 KECCAK256 SWAP2 PUSH1 0x0 JUMPDEST DUP2 DUP2 LT PUSH2 0x3C91 JUMPI POP SWAP4 PUSH1 0x1 DUP5 PUSH2 0x3BF0 SWAP9 SWAP5 PUSH32 0x81DBBD3BA646453A262E90D0495AADC4D783BAB49B0A8BE2CD84F220CAE608BB SWAP11 SWAP9 SWAP5 PUSH2 0x3BFD SWAP8 PUSH2 0x1CF5 SWAP10 LT PUSH2 0x3C78 JUMPI JUMPDEST POP POP DUP2 SHL ADD SWAP1 SSTORE PUSH2 0x3BDC JUMP JUMPDEST DUP13 ADD MLOAD PUSH1 0x0 NOT PUSH1 0xF8 DUP5 PUSH1 0x3 SHL AND SHR NOT AND SWAP1 SSTORE DUP12 DUP1 PUSH2 0x3C6C JUMP JUMPDEST SWAP2 SWAP3 DUP8 PUSH1 0x1 DUP2 SWAP3 DUP7 DUP14 ADD MLOAD DUP2 SSTORE ADD SWAP5 ADD SWAP3 ADD PUSH2 0x3C29 JUMP JUMPDEST DUP3 PUSH1 0x0 MSTORE DUP5 PUSH1 0x0 KECCAK256 PUSH1 0x1F DUP4 ADD PUSH1 0x5 SHR DUP2 ADD SWAP2 DUP7 DUP5 LT PUSH2 0x3CE4 JUMPI JUMPDEST PUSH1 0x1F ADD PUSH1 0x5 SHR ADD SWAP1 JUMPDEST DUP2 DUP2 LT PUSH2 0x3CD8 JUMPI POP PUSH2 0x3B82 JUMP JUMPDEST PUSH1 0x0 DUP2 SSTORE PUSH1 0x1 ADD PUSH2 0x3CCB JUMP JUMPDEST SWAP1 SWAP2 POP DUP2 SWAP1 PUSH2 0x3CC2 JUMP JUMPDEST PUSH1 0x40 MLOAD PUSH4 0x5B6571A5 PUSH1 0xE0 SHL DUP2 MSTORE PUSH1 0x4 SWAP1 REVERT JUMPDEST SWAP1 POP ISZERO DUP6 PUSH2 0x3AF9 JUMP JUMPDEST CALLVALUE PUSH2 0x353 JUMPI PUSH1 0x20 DUP1 PUSH1 0x3 NOT CALLDATASIZE ADD SLT PUSH2 0x353 JUMPI PUSH1 0x4 CALLDATALOAD PUSH1 0x1 PUSH1 0x1 PUSH1 0x40 SHL SUB DUP2 GT PUSH2 0x353 JUMPI PUSH2 0x3D3A SWAP1 CALLDATASIZE SWAP1 PUSH1 0x4 ADD PUSH2 0x4276 JUMP JUMPDEST SWAP1 PUSH1 0x0 DUP1 MLOAD PUSH1 0x20 PUSH2 0x532E DUP4 CODECOPY DUP2 MLOAD SWAP2 MSTORE PUSH1 0x0 MSTORE PUSH1 0x0 DUP2 MSTORE PUSH1 0x40 PUSH1 0x0 KECCAK256 CALLER PUSH1 0x0 MSTORE DUP2 MSTORE PUSH1 0xFF SWAP2 DUP3 PUSH1 0x40 PUSH1 0x0 KECCAK256 SLOAD AND ISZERO PUSH2 0x797 JUMPI PUSH1 0x40 MLOAD DUP2 MLOAD SWAP4 DUP4 DUP4 ADD SWAP5 PUSH2 0x3D81 DUP2 DUP5 DUP9 PUSH2 0x4351 JUMP JUMPDEST DUP3 ADD SWAP1 PUSH1 0x1 DUP2 PUSH1 0x2 SWAP4 DUP5 DUP2 MSTORE DUP6 DUP9 PUSH1 0xA SWAP8 DUP9 SWAP4 SUB ADD SWAP1 KECCAK256 ADD SLOAD PUSH1 0xA0 SHR AND ISZERO ISZERO EQ PUSH2 0x3FEE JUMPI PUSH1 0x0 DUP1 MSTORE PUSH1 0x0 DUP6 MSTORE PUSH1 0x40 PUSH1 0x0 KECCAK256 CALLER PUSH1 0x0 MSTORE DUP6 MSTORE DUP1 PUSH1 0x40 PUSH1 0x0 KECCAK256 SLOAD AND ISZERO PUSH2 0x797 JUMPI PUSH2 0x3C1 PUSH2 0x3DF4 PUSH1 0x40 MLOAD DUP8 DUP2 DUP1 PUSH2 0x3DDF DUP13 DUP12 MLOAD SWAP3 DUP4 SWAP2 PUSH2 0x4351 JUMP JUMPDEST DUP2 ADD DUP8 DUP2 MSTORE SUB ADD SWAP1 KECCAK256 PUSH1 0x40 MLOAD SWAP3 DUP4 DUP1 SWAP3 PUSH2 0x43CA JUMP JUMPDEST DUP6 DUP2 MLOAD SWAP2 ADD KECCAK256 DUP5 MLOAD SWAP1 DUP2 DUP9 KECCAK256 EQ SWAP1 DUP2 ISZERO SWAP2 PUSH2 0x3FE5 JUMPI JUMPDEST POP PUSH2 0x1FA7 JUMPI DUP1 DUP4 PUSH1 0x40 MLOAD DUP8 DUP2 DUP1 PUSH2 0x3E25 DUP13 DUP12 MLOAD SWAP3 DUP4 SWAP2 PUSH2 0x4351 JUMP JUMPDEST DUP2 ADD DUP8 DUP2 MSTORE SUB ADD SWAP1 KECCAK256 ADD SLOAD PUSH1 0xB0 SHR AND DUP1 PUSH2 0x3FBA JUMPI JUMPDEST ISZERO PUSH2 0x3F98 JUMPI PUSH1 0x40 MLOAD PUSH32 0x10F4BA4C7BB6F0C442F54585004A6E24440BEA5C2D2E6F36B688E3E624762E22 CALLER SWAP2 DUP1 PUSH2 0x3E71 TIMESTAMP DUP10 DUP4 PUSH2 0x513C JUMP JUMPDEST SUB SWAP1 LOG2 DUP1 DUP4 PUSH1 0x40 MLOAD DUP8 DUP2 DUP1 PUSH2 0x3E8A DUP13 DUP12 MLOAD SWAP3 DUP4 SWAP2 PUSH2 0x4351 JUMP JUMPDEST DUP2 ADD DUP8 DUP2 MSTORE SUB ADD SWAP1 KECCAK256 ADD SLOAD PUSH1 0xB0 SHR AND SWAP1 DUP4 PUSH1 0x40 MLOAD DUP8 DUP2 DUP1 PUSH2 0x3EAF DUP13 DUP12 MLOAD SWAP3 DUP4 SWAP2 PUSH2 0x4351 JUMP JUMPDEST DUP2 ADD DUP8 DUP2 MSTORE SUB ADD SWAP1 KECCAK256 ADD SLOAD PUSH1 0xB8 SHR AND DUP2 PUSH2 0x3F90 JUMPI JUMPDEST POP ISZERO PUSH2 0x3F6E JUMPI DUP4 PUSH32 0xFED1001C142A7AB386454A2F7D78B013BA7FF40595D10C128F2FB6463CCD7B7A SWAP5 SWAP6 PUSH2 0x3F32 SWAP3 DUP5 PUSH1 0x40 MLOAD DUP5 DUP2 DUP10 MLOAD PUSH2 0x3F05 DUP2 DUP4 DUP10 PUSH2 0x4351 JUMP JUMPDEST DUP2 ADD DUP6 DUP2 MSTORE SUB ADD SWAP1 KECCAK256 ADD DUP1 SLOAD PUSH1 0xFF PUSH1 0xA0 SHL NOT AND PUSH1 0x1 PUSH1 0xA0 SHL OR SWAP1 SSTORE PUSH1 0x40 MLOAD DUP7 MLOAD SWAP1 SWAP5 DUP6 SWAP4 DUP3 SWAP1 DUP6 SWAP1 PUSH2 0x4351 JUMP JUMPDEST DUP3 ADD SWAP1 DUP2 MSTORE SUB ADD SWAP1 KECCAK256 ADD DUP1 SLOAD PUSH1 0x1 PUSH1 0x1 PUSH1 0xA0 SHL SUB NOT AND CALLER OR SWAP1 SSTORE PUSH1 0x40 DUP1 MLOAD DUP2 DUP2 MSTORE SWAP2 PUSH2 0x3F60 SWAP2 DUP4 ADD SWAP1 PUSH2 0x4460 JUMP JUMPDEST SWAP3 TIMESTAMP SWAP1 DUP3 ADD MSTORE DUP1 CALLER SWAP4 SUB SWAP1 LOG2 STOP JUMPDEST PUSH1 0x40 MLOAD PUSH4 0x48CDDBDB PUSH1 0xE1 SHL DUP2 MSTORE PUSH1 0x4 DUP2 ADD DUP6 SWAP1 MSTORE DUP1 PUSH2 0x4E6 PUSH1 0x24 DUP3 ADD DUP7 PUSH2 0x4460 JUMP JUMPDEST SWAP1 POP DUP7 PUSH2 0x3EC4 JUMP JUMPDEST PUSH1 0x40 MLOAD PUSH4 0x48CDDBDB PUSH1 0xE1 SHL DUP2 MSTORE PUSH1 0x4 DUP2 ADD DUP7 SWAP1 MSTORE DUP1 PUSH2 0x4E6 PUSH1 0x24 DUP3 ADD DUP8 PUSH2 0x4460 JUMP JUMPDEST POP DUP1 DUP4 PUSH1 0x40 MLOAD DUP8 DUP2 DUP1 PUSH2 0x3FD1 DUP13 DUP12 MLOAD SWAP3 DUP4 SWAP2 PUSH2 0x4351 JUMP JUMPDEST DUP2 ADD DUP8 DUP2 MSTORE SUB ADD SWAP1 KECCAK256 ADD SLOAD PUSH1 0xB8 SHR AND PUSH2 0x3E3A JUMP JUMPDEST SWAP1 POP ISZERO DUP8 PUSH2 0x3E0A JUMP JUMPDEST PUSH1 0x40 MLOAD PUSH4 0x2072BB01 PUSH1 0xE1 SHL DUP2 MSTORE PUSH1 0x4 DUP2 ADD DUP7 SWAP1 MSTORE DUP1 PUSH2 0x4E6 PUSH1 0x24 DUP3 ADD DUP8 PUSH2 0x4460 JUMP JUMPDEST CALLVALUE PUSH2 0x353 JUMPI PUSH1 0x20 CALLDATASIZE PUSH1 0x3 NOT ADD SLT PUSH2 0x353 JUMPI PUSH2 0x4029 PUSH2 0x41D7 JUMP JUMPDEST PUSH1 0x1 PUSH1 0x1 PUSH1 0xA0 SHL SUB DUP2 AND SWAP1 DUP2 ISZERO PUSH2 0xE49 JUMPI PUSH2 0x4042 PUSH2 0x4638 JUMP JUMPDEST PUSH2 0x404B DUP2 PUSH2 0x4561 JUMP JUMPDEST PUSH2 0xFA6 JUMPI PUSH2 0x4058 SWAP1 PUSH2 0x4732 JUMP JUMPDEST POP PUSH1 0x0 DUP1 MLOAD PUSH1 0x20 PUSH2 0x532E DUP4 CODECOPY DUP2 MLOAD SWAP2 MSTORE PUSH1 0x0 MSTORE PUSH1 0x4 PUSH1 0x20 MSTORE PUSH32 0x5455BA4B8A75B33FA0F1F7AFFD9817680912F06B7B194BCF9AC01183C4930020 DUP1 SLOAD PUSH2 0x409C SWAP1 PUSH2 0x50E8 JUMP JUMPDEST SWAP1 SSTORE PUSH32 0xF8ED9AC482B0F7C12999B3F157F758F84E39CD339FA301EA203823AC29E97505 PUSH1 0x20 PUSH1 0x40 MLOAD TIMESTAMP DUP2 MSTORE LOG2 STOP JUMPDEST CALLVALUE PUSH2 0x353 JUMPI PUSH1 0x20 CALLDATASIZE PUSH1 0x3 NOT ADD SLT PUSH2 0x353 JUMPI PUSH2 0x40E3 PUSH2 0x41D7 JUMP JUMPDEST PUSH1 0x1 PUSH1 0x1 PUSH1 0xA0 SHL SUB DUP2 AND SWAP1 DUP2 ISZERO PUSH2 0xE49 JUMPI PUSH2 0x40FC PUSH2 0x4638 JUMP JUMPDEST PUSH2 0x4105 DUP2 PUSH2 0x4536 JUMP JUMPDEST PUSH2 0xFA6 JUMPI PUSH2 0x4112 SWAP1 PUSH2 0x46B6 JUMP JUMPDEST POP PUSH1 0x0 DUP1 MLOAD PUSH1 0x20 PUSH2 0x534E DUP4 CODECOPY DUP2 MLOAD SWAP2 MSTORE PUSH1 0x0 MSTORE PUSH1 0x4 PUSH1 0x20 MSTORE PUSH32 0x973CCC145476EF147B966A44694F8B2D26BAC5A3D44A844FEC6BE696FE5FEA70 DUP1 SLOAD PUSH2 0x4156 SWAP1 PUSH2 0x50E8 JUMP JUMPDEST SWAP1 SSTORE PUSH32 0x593F046317558C2857B92915C62C99F2D2108F7BC6F1E1B3C5376CD559ABF559 PUSH1 0x20 PUSH1 0x40 MLOAD TIMESTAMP DUP2 MSTORE LOG2 STOP JUMPDEST CALLVALUE PUSH2 0x353 JUMPI PUSH1 0x20 CALLDATASIZE PUSH1 0x3 NOT ADD SLT PUSH2 0x353 JUMPI PUSH1 0x4 CALLDATALOAD SWAP1 PUSH4 0xFFFFFFFF PUSH1 0xE0 SHL DUP3 AND DUP1 SWAP3 SUB PUSH2 0x353 JUMPI PUSH1 0x20 SWAP2 PUSH4 0x7965DB0B PUSH1 0xE0 SHL DUP2 EQ SWAP1 DUP2 ISZERO PUSH2 0x41C6 JUMPI JUMPDEST POP ISZERO ISZERO DUP2 MSTORE RETURN JUMPDEST PUSH4 0x1FFC9A7 PUSH1 0xE0 SHL EQ SWAP1 POP DUP4 PUSH2 0x41BF JUMP JUMPDEST PUSH1 0x4 CALLDATALOAD SWAP1 PUSH1 0x1 PUSH1 0x1 PUSH1 0xA0 SHL SUB DUP3 AND DUP3 SUB PUSH2 0x353 JUMPI JUMP JUMPDEST PUSH1 0x24 CALLDATALOAD SWAP1 PUSH1 0x1 PUSH1 0x1 PUSH1 0xA0 SHL SUB DUP3 AND DUP3 SUB PUSH2 0x353 JUMPI JUMP JUMPDEST PUSH2 0x200 DUP2 ADD SWAP1 DUP2 LT PUSH1 0x1 PUSH1 0x1 PUSH1 0x40 SHL SUB DUP3 GT OR PUSH2 0x1AC4 JUMPI PUSH1 0x40 MSTORE JUMP JUMPDEST PUSH1 0xA0 DUP2 ADD SWAP1 DUP2 LT PUSH1 0x1 PUSH1 0x1 PUSH1 0x40 SHL SUB DUP3 GT OR PUSH2 0x1AC4 JUMPI PUSH1 0x40 MSTORE JUMP JUMPDEST PUSH1 0x40 DUP2 ADD SWAP1 DUP2 LT PUSH1 0x1 PUSH1 0x1 PUSH1 0x40 SHL SUB DUP3 GT OR PUSH2 0x1AC4 JUMPI PUSH1 0x40 MSTORE JUMP JUMPDEST SWAP1 PUSH1 0x1F DUP1 NOT SWAP2 ADD AND DUP2 ADD SWAP1 DUP2 LT PUSH1 0x1 PUSH1 0x1 PUSH1 0x40 SHL SUB DUP3 GT OR PUSH2 0x1AC4 JUMPI PUSH1 0x40 MSTORE JUMP JUMPDEST DUP2 PUSH1 0x1F DUP3 ADD SLT ISZERO PUSH2 0x353 JUMPI DUP1 CALLDATALOAD SWAP1 PUSH1 0x1 PUSH1 0x1 PUSH1 0x40 SHL SUB DUP3 GT PUSH2 0x1AC4 JUMPI PUSH1 0x40 MLOAD SWAP3 PUSH2 0x42AA PUSH1 0x1F DUP5 ADD PUSH1 0x1F NOT AND PUSH1 0x20 ADD DUP6 PUSH2 0x4255 JUMP JUMPDEST DUP3 DUP5 MSTORE PUSH1 0x20 DUP4 DUP4 ADD ADD GT PUSH2 0x353 JUMPI DUP2 PUSH1 0x0 SWAP3 PUSH1 0x20 DUP1 SWAP4 ADD DUP4 DUP7 ADD CALLDATACOPY DUP4 ADD ADD MSTORE SWAP1 JUMP JUMPDEST SWAP1 PUSH1 0x40 PUSH1 0x3 NOT DUP4 ADD SLT PUSH2 0x353 JUMPI PUSH1 0x1 PUSH1 0x1 PUSH1 0x40 SHL SUB PUSH1 0x4 CALLDATALOAD DUP2 DUP2 GT PUSH2 0x353 JUMPI DUP4 PUSH2 0x42F8 SWAP2 PUSH1 0x4 ADD PUSH2 0x4276 JUMP JUMPDEST SWAP3 PUSH1 0x24 CALLDATALOAD SWAP2 DUP3 GT PUSH2 0x353 JUMPI PUSH2 0x430F SWAP2 PUSH1 0x4 ADD PUSH2 0x4276 JUMP JUMPDEST SWAP1 JUMP JUMPDEST SWAP1 PUSH1 0x40 PUSH1 0x3 NOT DUP4 ADD SLT PUSH2 0x353 JUMPI PUSH1 0x4 CALLDATALOAD PUSH1 0x1 PUSH1 0x1 PUSH1 0xA0 SHL SUB DUP2 AND DUP2 SUB PUSH2 0x353 JUMPI SWAP2 PUSH1 0x24 CALLDATALOAD SWAP1 PUSH1 0x1 PUSH1 0x1 PUSH1 0x40 SHL SUB DUP3 GT PUSH2 0x353 JUMPI PUSH2 0x430F SWAP2 PUSH1 0x4 ADD PUSH2 0x4276 JUMP JUMPDEST PUSH1 0x0 JUMPDEST DUP4 DUP2 LT PUSH2 0x4364 JUMPI POP POP PUSH1 0x0 SWAP2 ADD MSTORE JUMP JUMPDEST DUP2 DUP2 ADD MLOAD DUP4 DUP3 ADD MSTORE PUSH1 0x20 ADD PUSH2 0x4354 JUMP JUMPDEST DUP1 SLOAD DUP3 LT ISZERO PUSH2 0x3622 JUMPI PUSH1 0x0 MSTORE PUSH1 0x5 PUSH1 0x20 PUSH1 0x0 KECCAK256 SWAP2 MUL ADD SWAP1 PUSH1 0x0 SWAP1 JUMP JUMPDEST SWAP1 PUSH1 0x1 DUP3 DUP2 SHR SWAP3 AND DUP1 ISZERO PUSH2 0x43C0 JUMPI JUMPDEST PUSH1 0x20 DUP4 LT EQ PUSH2 0x43AA JUMPI JUMP JUMPDEST PUSH4 0x4E487B71 PUSH1 0xE0 SHL PUSH1 0x0 MSTORE PUSH1 0x22 PUSH1 0x4 MSTORE PUSH1 0x24 PUSH1 0x0 REVERT JUMPDEST SWAP2 PUSH1 0x7F AND SWAP2 PUSH2 0x439F JUMP JUMPDEST SWAP1 PUSH1 0x0 SWAP3 SWAP2 DUP1 SLOAD SWAP2 PUSH2 0x43DB DUP4 PUSH2 0x4390 JUMP JUMPDEST SWAP2 DUP3 DUP3 MSTORE PUSH1 0x1 SWAP4 DUP5 DUP2 AND SWAP1 DUP2 PUSH1 0x0 EQ PUSH2 0x443D JUMPI POP PUSH1 0x1 EQ PUSH2 0x43FD JUMPI JUMPDEST POP POP POP POP JUMP JUMPDEST SWAP1 SWAP2 SWAP4 SWAP5 POP PUSH1 0x0 MSTORE PUSH1 0x20 SWAP3 DUP4 PUSH1 0x0 KECCAK256 SWAP3 DUP5 PUSH1 0x0 SWAP5 JUMPDEST DUP4 DUP7 LT PUSH2 0x4429 JUMPI POP POP POP POP ADD ADD SWAP1 CODESIZE DUP1 DUP1 DUP1 PUSH2 0x43F7 JUMP JUMPDEST DUP1 SLOAD DUP6 DUP8 ADD DUP4 ADD MSTORE SWAP5 ADD SWAP4 DUP6 SWAP1 DUP3 ADD PUSH2 0x4412 JUMP JUMPDEST SWAP3 SWAP5 POP POP POP PUSH1 0x20 SWAP4 SWAP5 POP PUSH1 0xFF NOT AND DUP4 DUP4 ADD MSTORE ISZERO ISZERO PUSH1 0x5 SHL ADD ADD SWAP1 CODESIZE DUP1 DUP1 DUP1 PUSH2 0x43F7 JUMP JUMPDEST SWAP1 PUSH1 0x20 SWAP2 PUSH2 0x4479 DUP2 MLOAD DUP1 SWAP3 DUP2 DUP6 MSTORE DUP6 DUP1 DUP7 ADD SWAP2 ADD PUSH2 0x4351 JUMP JUMPDEST PUSH1 0x1F ADD PUSH1 0x1F NOT AND ADD ADD SWAP1 JUMP JUMPDEST PUSH1 0x20 DUP1 DUP3 ADD SWAP1 DUP1 DUP4 MSTORE DUP4 MLOAD DUP1 SWAP3 MSTORE PUSH1 0x40 SWAP3 DUP4 DUP2 ADD DUP3 DUP6 DUP6 PUSH1 0x5 SHL DUP5 ADD ADD SWAP7 ADD SWAP5 PUSH1 0x0 SWAP3 JUMPDEST DUP6 DUP5 LT PUSH2 0x44BA JUMPI POP POP POP POP POP POP POP SWAP1 JUMP JUMPDEST SWAP1 SWAP2 SWAP3 SWAP4 SWAP5 SWAP6 SWAP7 DUP6 DUP1 PUSH1 0x1 SWAP3 PUSH1 0x3F NOT DUP6 DUP3 SUB ADD DUP8 MSTORE DUP11 MLOAD SWAP1 PUSH2 0x450A PUSH2 0x44FA PUSH2 0x44EA DUP5 MLOAD PUSH1 0xA0 DUP1 DUP7 MSTORE DUP6 ADD SWAP1 PUSH2 0x4460 JUMP JUMPDEST DUP6 DUP6 ADD MLOAD DUP5 DUP3 SUB DUP8 DUP7 ADD MSTORE PUSH2 0x4460 JUMP JUMPDEST DUP9 DUP5 ADD MLOAD DUP4 DUP3 SUB DUP11 DUP6 ADD MSTORE PUSH2 0x4460 JUMP JUMPDEST SWAP2 PUSH1 0x60 DUP7 DUP1 PUSH1 0xA0 SHL SUB DUP2 DUP4 ADD MLOAD AND SWAP1 DUP4 ADD MSTORE PUSH1 0x80 DUP1 SWAP2 ADD MLOAD SWAP2 ADD MSTORE SWAP10 ADD SWAP5 ADD SWAP5 ADD SWAP3 SWAP6 SWAP5 SWAP4 SWAP2 SWAP1 PUSH2 0x44A9 JUMP JUMPDEST PUSH1 0x1 PUSH1 0x1 PUSH1 0xA0 SHL SUB AND PUSH1 0x0 SWAP1 DUP2 MSTORE PUSH1 0x0 DUP1 MLOAD PUSH1 0x20 PUSH2 0x52CE DUP4 CODECOPY DUP2 MLOAD SWAP2 MSTORE PUSH1 0x20 MSTORE PUSH1 0x40 SWAP1 KECCAK256 SLOAD PUSH1 0xFF AND SWAP1 JUMP JUMPDEST PUSH1 0x1 PUSH1 0x1 PUSH1 0xA0 SHL SUB AND PUSH1 0x0 SWAP1 DUP2 MSTORE PUSH1 0x0 DUP1 MLOAD PUSH1 0x20 PUSH2 0x524E DUP4 CODECOPY DUP2 MLOAD SWAP2 MSTORE PUSH1 0x20 MSTORE PUSH1 0x40 SWAP1 KECCAK256 SLOAD PUSH1 0xFF AND SWAP1 JUMP JUMPDEST PUSH1 0x1 PUSH1 0x1 PUSH1 0xA0 SHL SUB AND PUSH1 0x0 SWAP1 DUP2 MSTORE PUSH1 0x0 DUP1 MLOAD PUSH1 0x20 PUSH2 0x520E DUP4 CODECOPY DUP2 MLOAD SWAP2 MSTORE PUSH1 0x20 MSTORE PUSH1 0x40 SWAP1 KECCAK256 SLOAD PUSH1 0xFF AND SWAP1 JUMP JUMPDEST PUSH1 0x1 PUSH1 0x1 PUSH1 0xA0 SHL SUB AND PUSH1 0x0 SWAP1 DUP2 MSTORE PUSH1 0x0 DUP1 MLOAD PUSH1 0x20 PUSH2 0x530E DUP4 CODECOPY DUP2 MLOAD SWAP2 MSTORE PUSH1 0x20 MSTORE PUSH1 0x40 SWAP1 KECCAK256 SLOAD PUSH1 0xFF AND SWAP1 JUMP JUMPDEST PUSH1 0x1 PUSH1 0x1 PUSH1 0xA0 SHL SUB AND PUSH1 0x0 SWAP1 DUP2 MSTORE PUSH1 0x0 DUP1 MLOAD PUSH1 0x20 PUSH2 0x52EE DUP4 CODECOPY DUP2 MLOAD SWAP2 MSTORE PUSH1 0x20 MSTORE PUSH1 0x40 SWAP1 KECCAK256 SLOAD PUSH1 0xFF AND SWAP1 JUMP JUMPDEST PUSH1 0x1 PUSH1 0x1 PUSH1 0xA0 SHL SUB AND PUSH1 0x0 SWAP1 DUP2 MSTORE PUSH1 0x0 DUP1 MLOAD PUSH1 0x20 PUSH2 0x526E DUP4 CODECOPY DUP2 MLOAD SWAP2 MSTORE PUSH1 0x20 MSTORE PUSH1 0x40 SWAP1 KECCAK256 SLOAD PUSH1 0xFF AND SWAP1 JUMP JUMPDEST CALLER PUSH1 0x0 SWAP1 DUP2 MSTORE PUSH32 0xAD3228B676F7D3CD4284A5443F17F1962B36E491B30A40B2405849E597BA5FB5 PUSH1 0x20 MSTORE PUSH1 0x40 DUP2 KECCAK256 SLOAD PUSH1 0xFF AND ISZERO PUSH2 0x4672 JUMPI POP JUMP JUMPDEST PUSH1 0x44 SWAP1 PUSH1 0x40 MLOAD SWAP1 PUSH4 0xE2517D3F PUSH1 0xE0 SHL DUP3 MSTORE CALLER PUSH1 0x4 DUP4 ADD MSTORE PUSH1 0x24 DUP3 ADD MSTORE REVERT JUMPDEST DUP1 PUSH1 0x0 MSTORE PUSH1 0x0 PUSH1 0x20 MSTORE PUSH1 0x40 PUSH1 0x0 KECCAK256 CALLER PUSH1 0x0 MSTORE PUSH1 0x20 MSTORE PUSH1 0xFF PUSH1 0x40 PUSH1 0x0 KECCAK256 SLOAD AND ISZERO PUSH2 0x4672 JUMPI POP JUMP JUMPDEST PUSH1 0x1 PUSH1 0x1 PUSH1 0xA0 SHL SUB AND PUSH1 0x0 DUP2 DUP2 MSTORE PUSH1 0x0 DUP1 MLOAD PUSH1 0x20 PUSH2 0x52CE DUP4 CODECOPY DUP2 MLOAD SWAP2 MSTORE PUSH1 0x20 MSTORE PUSH1 0x40 DUP2 KECCAK256 SLOAD SWAP1 SWAP2 SWAP1 PUSH1 0x0 DUP1 MLOAD PUSH1 0x20 PUSH2 0x534E DUP4 CODECOPY DUP2 MLOAD SWAP2 MSTORE SWAP1 PUSH1 0xFF AND PUSH2 0x472D JUMPI DUP1 DUP4 MSTORE DUP3 PUSH1 0x20 MSTORE PUSH1 0x40 DUP4 KECCAK256 DUP3 DUP5 MSTORE PUSH1 0x20 MSTORE PUSH1 0x40 DUP4 KECCAK256 PUSH1 0x1 PUSH1 0xFF NOT DUP3 SLOAD AND OR SWAP1 SSTORE PUSH1 0x0 DUP1 MLOAD PUSH1 0x20 PUSH2 0x522E DUP4 CODECOPY DUP2 MLOAD SWAP2 MSTORE CALLER SWAP4 DUP1 LOG4 PUSH1 0x1 SWAP1 JUMP JUMPDEST POP POP SWAP1 JUMP JUMPDEST PUSH1 0x1 PUSH1 0x1 PUSH1 0xA0 SHL SUB AND PUSH1 0x0 DUP2 DUP2 MSTORE PUSH1 0x0 DUP1 MLOAD PUSH1 0x20 PUSH2 0x524E DUP4 CODECOPY DUP2 MLOAD SWAP2 MSTORE PUSH1 0x20 MSTORE PUSH1 0x40 DUP2 KECCAK256 SLOAD SWAP1 SWAP2 SWAP1 PUSH1 0x0 DUP1 MLOAD PUSH1 0x20 PUSH2 0x532E DUP4 CODECOPY DUP2 MLOAD SWAP2 MSTORE SWAP1 PUSH1 0xFF AND PUSH2 0x472D JUMPI DUP1 DUP4 MSTORE DUP3 PUSH1 0x20 MSTORE PUSH1 0x40 DUP4 KECCAK256 DUP3 DUP5 MSTORE PUSH1 0x20 MSTORE PUSH1 0x40 DUP4 KECCAK256 PUSH1 0x1 PUSH1 0xFF NOT DUP3 SLOAD AND OR SWAP1 SSTORE PUSH1 0x0 DUP1 MLOAD PUSH1 0x20 PUSH2 0x522E DUP4 CODECOPY DUP2 MLOAD SWAP2 MSTORE CALLER SWAP4 DUP1 LOG4 PUSH1 0x1 SWAP1 JUMP JUMPDEST PUSH1 0x1 PUSH1 0x1 PUSH1 0xA0 SHL SUB AND PUSH1 0x0 DUP2 DUP2 MSTORE PUSH1 0x0 DUP1 MLOAD PUSH1 0x20 PUSH2 0x520E DUP4 CODECOPY DUP2 MLOAD SWAP2 MSTORE PUSH1 0x20 MSTORE PUSH1 0x40 DUP2 KECCAK256 SLOAD SWAP1 SWAP2 SWAP1 PUSH1 0x0 DUP1 MLOAD PUSH1 0x20 PUSH2 0x536E DUP4 CODECOPY DUP2 MLOAD SWAP2 MSTORE SWAP1 PUSH1 0xFF AND PUSH2 0x472D JUMPI DUP1 DUP4 MSTORE DUP3 PUSH1 0x20 MSTORE PUSH1 0x40 DUP4 KECCAK256 DUP3 DUP5 MSTORE PUSH1 0x20 MSTORE PUSH1 0x40 DUP4 KECCAK256 PUSH1 0x1 PUSH1 0xFF NOT DUP3 SLOAD AND OR SWAP1 SSTORE PUSH1 0x0 DUP1 MLOAD PUSH1 0x20 PUSH2 0x522E DUP4 CODECOPY DUP2 MLOAD SWAP2 MSTORE CALLER SWAP4 DUP1 LOG4 PUSH1 0x1 SWAP1 JUMP JUMPDEST PUSH1 0x1 PUSH1 0x1 PUSH1 0xA0 SHL SUB AND PUSH1 0x0 DUP2 DUP2 MSTORE PUSH1 0x0 DUP1 MLOAD PUSH1 0x20 PUSH2 0x530E DUP4 CODECOPY DUP2 MLOAD SWAP2 MSTORE PUSH1 0x20 MSTORE PUSH1 0x40 DUP2 KECCAK256 SLOAD SWAP1 SWAP2 SWAP1 PUSH1 0x0 DUP1 MLOAD PUSH1 0x20 PUSH2 0x538E DUP4 CODECOPY DUP2 MLOAD SWAP2 MSTORE SWAP1 PUSH1 0xFF AND PUSH2 0x472D JUMPI DUP1 DUP4 MSTORE DUP3 PUSH1 0x20 MSTORE PUSH1 0x40 DUP4 KECCAK256 DUP3 DUP5 MSTORE PUSH1 0x20 MSTORE PUSH1 0x40 DUP4 KECCAK256 PUSH1 0x1 PUSH1 0xFF NOT DUP3 SLOAD AND OR SWAP1 SSTORE PUSH1 0x0 DUP1 MLOAD PUSH1 0x20 PUSH2 0x522E DUP4 CODECOPY DUP2 MLOAD SWAP2 MSTORE CALLER SWAP4 DUP1 LOG4 PUSH1 0x1 SWAP1 JUMP JUMPDEST PUSH1 0x1 PUSH1 0x1 PUSH1 0xA0 SHL SUB AND PUSH1 0x0 DUP2 DUP2 MSTORE PUSH1 0x0 DUP1 MLOAD PUSH1 0x20 PUSH2 0x52EE DUP4 CODECOPY DUP2 MLOAD SWAP2 MSTORE PUSH1 0x20 MSTORE PUSH1 0x40 DUP2 KECCAK256 SLOAD SWAP1 SWAP2 SWAP1 PUSH1 0x0 DUP1 MLOAD PUSH1 0x20 PUSH2 0x528E DUP4 CODECOPY DUP2 MLOAD SWAP2 MSTORE SWAP1 PUSH1 0xFF AND PUSH2 0x472D JUMPI DUP1 DUP4 MSTORE DUP3 PUSH1 0x20 MSTORE PUSH1 0x40 DUP4 KECCAK256 DUP3 DUP5 MSTORE PUSH1 0x20 MSTORE PUSH1 0x40 DUP4 KECCAK256 PUSH1 0x1 PUSH1 0xFF NOT DUP3 SLOAD AND OR SWAP1 SSTORE PUSH1 0x0 DUP1 MLOAD PUSH1 0x20 PUSH2 0x522E DUP4 CODECOPY DUP2 MLOAD SWAP2 MSTORE CALLER SWAP4 DUP1 LOG4 PUSH1 0x1 SWAP1 JUMP JUMPDEST PUSH1 0x1 PUSH1 0x1 PUSH1 0xA0 SHL SUB AND PUSH1 0x0 DUP2 DUP2 MSTORE PUSH1 0x0 DUP1 MLOAD PUSH1 0x20 PUSH2 0x526E DUP4 CODECOPY DUP2 MLOAD SWAP2 MSTORE PUSH1 0x20 MSTORE PUSH1 0x40 DUP2 KECCAK256 SLOAD SWAP1 SWAP2 SWAP1 PUSH1 0x0 DUP1 MLOAD PUSH1 0x20 PUSH2 0x52AE DUP4 CODECOPY DUP2 MLOAD SWAP2 MSTORE SWAP1 PUSH1 0xFF AND PUSH2 0x472D JUMPI DUP1 DUP4 MSTORE DUP3 PUSH1 0x20 MSTORE PUSH1 0x40 DUP4 KECCAK256 DUP3 DUP5 MSTORE PUSH1 0x20 MSTORE PUSH1 0x40 DUP4 KECCAK256 PUSH1 0x1 PUSH1 0xFF NOT DUP3 SLOAD AND OR SWAP1 SSTORE PUSH1 0x0 DUP1 MLOAD PUSH1 0x20 PUSH2 0x522E DUP4 CODECOPY DUP2 MLOAD SWAP2 MSTORE CALLER SWAP4 DUP1 LOG4 PUSH1 0x1 SWAP1 JUMP JUMPDEST SWAP1 PUSH1 0x0 SWAP2 DUP1 DUP4 MSTORE DUP3 PUSH1 0x20 MSTORE PUSH1 0x40 DUP4 KECCAK256 SWAP2 PUSH1 0x1 DUP1 PUSH1 0xA0 SHL SUB AND SWAP2 DUP3 DUP5 MSTORE PUSH1 0x20 MSTORE PUSH1 0xFF PUSH1 0x40 DUP5 KECCAK256 SLOAD AND ISZERO PUSH1 0x0 EQ PUSH2 0x472D JUMPI DUP1 DUP4 MSTORE DUP3 PUSH1 0x20 MSTORE PUSH1 0x40 DUP4 KECCAK256 DUP3 DUP5 MSTORE PUSH1 0x20 MSTORE PUSH1 0x40 DUP4 KECCAK256 PUSH1 0x1 PUSH1 0xFF NOT DUP3 SLOAD AND OR SWAP1 SSTORE PUSH1 0x0 DUP1 MLOAD PUSH1 0x20 PUSH2 0x522E DUP4 CODECOPY DUP2 MLOAD SWAP2 MSTORE CALLER SWAP4 DUP1 LOG4 PUSH1 0x1 SWAP1 JUMP JUMPDEST PUSH1 0x1 PUSH1 0x1 PUSH1 0xA0 SHL SUB AND PUSH1 0x0 DUP2 DUP2 MSTORE PUSH1 0x0 DUP1 MLOAD PUSH1 0x20 PUSH2 0x52CE DUP4 CODECOPY DUP2 MLOAD SWAP2 MSTORE PUSH1 0x20 MSTORE PUSH1 0x40 DUP2 KECCAK256 SLOAD SWAP1 SWAP2 SWAP1 PUSH1 0x0 DUP1 MLOAD PUSH1 0x20 PUSH2 0x534E DUP4 CODECOPY DUP2 MLOAD SWAP2 MSTORE SWAP1 PUSH1 0xFF AND ISZERO PUSH2 0x472D JUMPI DUP1 DUP4 MSTORE DUP3 PUSH1 0x20 MSTORE PUSH1 0x40 DUP4 KECCAK256 DUP3 DUP5 MSTORE PUSH1 0x20 MSTORE PUSH1 0x40 DUP4 KECCAK256 PUSH1 0xFF NOT DUP2 SLOAD AND SWAP1 SSTORE PUSH1 0x0 DUP1 MLOAD PUSH1 0x20 PUSH2 0x53AE DUP4 CODECOPY DUP2 MLOAD SWAP2 MSTORE CALLER SWAP4 DUP1 LOG4 PUSH1 0x1 SWAP1 JUMP JUMPDEST PUSH1 0x1 PUSH1 0x1 PUSH1 0xA0 SHL SUB AND PUSH1 0x0 DUP2 DUP2 MSTORE PUSH1 0x0 DUP1 MLOAD PUSH1 0x20 PUSH2 0x52EE DUP4 CODECOPY DUP2 MLOAD SWAP2 MSTORE PUSH1 0x20 MSTORE PUSH1 0x40 DUP2 KECCAK256 SLOAD SWAP1 SWAP2 SWAP1 PUSH1 0x0 DUP1 MLOAD PUSH1 0x20 PUSH2 0x528E DUP4 CODECOPY DUP2 MLOAD SWAP2 MSTORE SWAP1 PUSH1 0xFF AND ISZERO PUSH2 0x472D JUMPI DUP1 DUP4 MSTORE DUP3 PUSH1 0x20 MSTORE PUSH1 0x40 DUP4 KECCAK256 DUP3 DUP5 MSTORE PUSH1 0x20 MSTORE PUSH1 0x40 DUP4 KECCAK256 PUSH1 0xFF NOT DUP2 SLOAD AND SWAP1 SSTORE PUSH1 0x0 DUP1 MLOAD PUSH1 0x20 PUSH2 0x53AE DUP4 CODECOPY DUP2 MLOAD SWAP2 MSTORE CALLER SWAP4 DUP1 LOG4 PUSH1 0x1 SWAP1 JUMP JUMPDEST PUSH1 0x1 PUSH1 0x1 PUSH1 0xA0 SHL SUB AND PUSH1 0x0 DUP2 DUP2 MSTORE PUSH1 0x0 DUP1 MLOAD PUSH1 0x20 PUSH2 0x524E DUP4 CODECOPY DUP2 MLOAD SWAP2 MSTORE PUSH1 0x20 MSTORE PUSH1 0x40 DUP2 KECCAK256 SLOAD SWAP1 SWAP2 SWAP1 PUSH1 0x0 DUP1 MLOAD PUSH1 0x20 PUSH2 0x532E DUP4 CODECOPY DUP2 MLOAD SWAP2 MSTORE SWAP1 PUSH1 0xFF AND ISZERO PUSH2 0x472D JUMPI DUP1 DUP4 MSTORE DUP3 PUSH1 0x20 MSTORE PUSH1 0x40 DUP4 KECCAK256 DUP3 DUP5 MSTORE PUSH1 0x20 MSTORE PUSH1 0x40 DUP4 KECCAK256 PUSH1 0xFF NOT DUP2 SLOAD AND SWAP1 SSTORE PUSH1 0x0 DUP1 MLOAD PUSH1 0x20 PUSH2 0x53AE DUP4 CODECOPY DUP2 MLOAD SWAP2 MSTORE CALLER SWAP4 DUP1 LOG4 PUSH1 0x1 SWAP1 JUMP JUMPDEST PUSH1 0x1 PUSH1 0x1 PUSH1 0xA0 SHL SUB AND PUSH1 0x0 DUP2 DUP2 MSTORE PUSH1 0x0 DUP1 MLOAD PUSH1 0x20 PUSH2 0x526E DUP4 CODECOPY DUP2 MLOAD SWAP2 MSTORE PUSH1 0x20 MSTORE PUSH1 0x40 DUP2 KECCAK256 SLOAD SWAP1 SWAP2 SWAP1 PUSH1 0x0 DUP1 MLOAD PUSH1 0x20 PUSH2 0x52AE DUP4 CODECOPY DUP2 MLOAD SWAP2 MSTORE SWAP1 PUSH1 0xFF AND ISZERO PUSH2 0x472D JUMPI DUP1 DUP4 MSTORE DUP3 PUSH1 0x20 MSTORE PUSH1 0x40 DUP4 KECCAK256 DUP3 DUP5 MSTORE PUSH1 0x20 MSTORE PUSH1 0x40 DUP4 KECCAK256 PUSH1 0xFF NOT DUP2 SLOAD AND SWAP1 SSTORE PUSH1 0x0 DUP1 MLOAD PUSH1 0x20 PUSH2 0x53AE DUP4 CODECOPY DUP2 MLOAD SWAP2 MSTORE CALLER SWAP4 DUP1 LOG4 PUSH1 0x1 SWAP1 JUMP JUMPDEST PUSH1 0x1 PUSH1 0x1 PUSH1 0xA0 SHL SUB AND PUSH1 0x0 DUP2 DUP2 MSTORE PUSH1 0x0 DUP1 MLOAD PUSH1 0x20 PUSH2 0x530E DUP4 CODECOPY DUP2 MLOAD SWAP2 MSTORE PUSH1 0x20 MSTORE PUSH1 0x40 DUP2 KECCAK256 SLOAD SWAP1 SWAP2 SWAP1 PUSH1 0x0 DUP1 MLOAD PUSH1 0x20 PUSH2 0x538E DUP4 CODECOPY DUP2 MLOAD SWAP2 MSTORE SWAP1 PUSH1 0xFF AND ISZERO PUSH2 0x472D JUMPI DUP1 DUP4 MSTORE DUP3 PUSH1 0x20 MSTORE PUSH1 0x40 DUP4 KECCAK256 DUP3 DUP5 MSTORE PUSH1 0x20 MSTORE PUSH1 0x40 DUP4 KECCAK256 PUSH1 0xFF NOT DUP2 SLOAD AND SWAP1 SSTORE PUSH1 0x0 DUP1 MLOAD PUSH1 0x20 PUSH2 0x53AE DUP4 CODECOPY DUP2 MLOAD SWAP2 MSTORE CALLER SWAP4 DUP1 LOG4 PUSH1 0x1 SWAP1 JUMP JUMPDEST PUSH1 0x1 PUSH1 0x1 PUSH1 0xA0 SHL SUB AND PUSH1 0x0 DUP2 DUP2 MSTORE PUSH1 0x0 DUP1 MLOAD PUSH1 0x20 PUSH2 0x520E DUP4 CODECOPY DUP2 MLOAD SWAP2 MSTORE PUSH1 0x20 MSTORE PUSH1 0x40 DUP2 KECCAK256 SLOAD SWAP1 SWAP2 SWAP1 PUSH1 0x0 DUP1 MLOAD PUSH1 0x20 PUSH2 0x536E DUP4 CODECOPY DUP2 MLOAD SWAP2 MSTORE SWAP1 PUSH1 0xFF AND ISZERO PUSH2 0x472D JUMPI DUP1 DUP4 MSTORE DUP3 PUSH1 0x20 MSTORE PUSH1 0x40 DUP4 KECCAK256 DUP3 DUP5 MSTORE PUSH1 0x20 MSTORE PUSH1 0x40 DUP4 KECCAK256 PUSH1 0xFF NOT DUP2 SLOAD AND SWAP1 SSTORE PUSH1 0x0 DUP1 MLOAD PUSH1 0x20 PUSH2 0x53AE DUP4 CODECOPY DUP2 MLOAD SWAP2 MSTORE CALLER SWAP4 DUP1 LOG4 PUSH1 0x1 SWAP1 JUMP JUMPDEST SWAP1 PUSH1 0x0 SWAP2 DUP1 DUP4 MSTORE DUP3 PUSH1 0x20 MSTORE PUSH1 0x40 DUP4 KECCAK256 SWAP2 PUSH1 0x1 DUP1 PUSH1 0xA0 SHL SUB AND SWAP2 DUP3 DUP5 MSTORE PUSH1 0x20 MSTORE PUSH1 0xFF PUSH1 0x40 DUP5 KECCAK256 SLOAD AND PUSH1 0x0 EQ PUSH2 0x472D JUMPI DUP1 DUP4 MSTORE DUP3 PUSH1 0x20 MSTORE PUSH1 0x40 DUP4 KECCAK256 DUP3 DUP5 MSTORE PUSH1 0x20 MSTORE PUSH1 0x40 DUP4 KECCAK256 PUSH1 0xFF NOT DUP2 SLOAD AND SWAP1 SSTORE PUSH1 0x0 DUP1 MLOAD PUSH1 0x20 PUSH2 0x53AE DUP4 CODECOPY DUP2 MLOAD SWAP2 MSTORE CALLER SWAP4 DUP1 LOG4 PUSH1 0x1 SWAP1 JUMP JUMPDEST SWAP1 DUP2 SLOAD PUSH9 0x10000000000000000 DUP2 LT ISZERO PUSH2 0x1AC4 JUMPI PUSH2 0x4D32 SWAP1 PUSH1 0x1 SWAP4 DUP5 DUP3 ADD DUP2 SSTORE PUSH2 0x4374 JUMP JUMPDEST SWAP3 SWAP1 SWAP3 PUSH2 0x50A4 JUMPI DUP2 MLOAD SWAP1 DUP2 MLOAD SWAP1 PUSH1 0x1 PUSH1 0x1 PUSH1 0x40 SHL SUB SWAP2 DUP3 DUP2 GT PUSH2 0x1AC4 JUMPI DUP1 PUSH2 0x4D5A DUP8 SLOAD PUSH2 0x4390 JUMP JUMPDEST SWAP5 PUSH1 0x1F SWAP6 DUP7 DUP2 GT PUSH2 0x5050 JUMPI JUMPDEST POP PUSH1 0x20 SWAP1 DUP7 DUP4 GT PUSH1 0x1 EQ PUSH2 0x4FED JUMPI PUSH1 0x0 SWAP3 PUSH2 0x4FE2 JUMPI JUMPDEST POP POP PUSH1 0x0 NOT PUSH1 0x3 DUP4 SWAP1 SHL SHR NOT AND SWAP1 DUP3 SHL OR DUP6 SSTORE JUMPDEST DUP1 DUP6 ADD PUSH1 0x20 DUP6 ADD MLOAD DUP1 MLOAD SWAP1 DUP5 DUP3 GT PUSH2 0x1AC4 JUMPI DUP2 SWAP1 PUSH2 0x4DAE DUP5 SLOAD PUSH2 0x4390 JUMP JUMPDEST DUP8 DUP2 GT PUSH2 0x4F8F JUMPI JUMPDEST POP PUSH1 0x20 SWAP1 DUP8 DUP4 GT PUSH1 0x1 EQ PUSH2 0x4F2C JUMPI PUSH1 0x0 SWAP3 PUSH2 0x4F21 JUMPI JUMPDEST POP POP PUSH1 0x0 NOT PUSH1 0x3 DUP4 SWAP1 SHL SHR NOT AND SWAP1 DUP4 SHL OR SWAP1 SSTORE JUMPDEST PUSH1 0x2 DUP6 ADD SWAP3 PUSH1 0x40 DUP6 ADD MLOAD DUP1 MLOAD SWAP4 DUP5 GT PUSH2 0x1AC4 JUMPI PUSH2 0x4DFD DUP6 SLOAD PUSH2 0x4390 JUMP JUMPDEST DUP3 DUP2 GT PUSH2 0x4ED9 JUMPI JUMPDEST POP PUSH1 0x20 SWAP2 DUP5 GT PUSH1 0x1 EQ PUSH2 0x4E6C JUMPI SWAP3 DUP1 PUSH1 0x80 SWAP6 SWAP4 DUP2 SWAP4 PUSH1 0x4 SWAP9 SWAP7 PUSH1 0x0 SWAP5 PUSH2 0x4E61 JUMPI JUMPDEST POP POP SHL SWAP2 PUSH1 0x0 NOT SWAP1 PUSH1 0x3 SHL SHR NOT AND OR SWAP1 SSTORE JUMPDEST PUSH1 0x3 DUP5 ADD PUSH1 0x1 DUP1 PUSH1 0xA0 SHL SUB PUSH1 0x60 DUP4 ADD MLOAD AND PUSH1 0x1 PUSH1 0x1 PUSH1 0x60 SHL SUB PUSH1 0xA0 SHL DUP3 SLOAD AND OR SWAP1 SSTORE ADD MLOAD SWAP2 ADD SSTORE JUMP JUMPDEST ADD MLOAD SWAP3 POP CODESIZE DUP1 PUSH2 0x4E26 JUMP JUMPDEST SWAP1 PUSH1 0x1F SWAP4 SWAP3 SWAP4 NOT DUP4 AND SWAP2 DUP6 PUSH1 0x0 MSTORE DUP2 PUSH1 0x0 KECCAK256 SWAP3 PUSH1 0x0 JUMPDEST DUP2 DUP2 LT PUSH2 0x4EC3 JUMPI POP SWAP2 PUSH1 0x4 SWAP8 SWAP6 SWAP4 SWAP2 DUP6 PUSH1 0x80 SWAP9 SWAP7 SWAP5 LT PUSH2 0x4EAA JUMPI JUMPDEST POP POP POP DUP2 SHL ADD SWAP1 SSTORE PUSH2 0x4E38 JUMP JUMPDEST ADD MLOAD PUSH1 0x0 NOT PUSH1 0xF8 DUP5 PUSH1 0x3 SHL AND SHR NOT AND SWAP1 SSTORE CODESIZE DUP1 DUP1 PUSH2 0x4E9D JUMP JUMPDEST DUP3 DUP5 ADD MLOAD DUP6 SSTORE SWAP4 DUP7 ADD SWAP4 PUSH1 0x20 SWAP4 DUP5 ADD SWAP4 ADD PUSH2 0x4E82 JUMP JUMPDEST DUP6 PUSH1 0x0 MSTORE PUSH1 0x20 PUSH1 0x0 KECCAK256 DUP4 DUP1 DUP8 ADD PUSH1 0x5 SHR DUP3 ADD SWAP3 PUSH1 0x20 DUP9 LT PUSH2 0x4F18 JUMPI JUMPDEST ADD PUSH1 0x5 SHR ADD SWAP1 DUP5 SWAP1 JUMPDEST DUP3 DUP2 LT PUSH2 0x4F0C JUMPI POP POP PUSH2 0x4E05 JUMP JUMPDEST PUSH1 0x0 DUP2 SSTORE ADD DUP5 SWAP1 PUSH2 0x4EFE JUMP JUMPDEST SWAP3 POP DUP2 SWAP3 PUSH2 0x4EF5 JUMP JUMPDEST ADD MLOAD SWAP1 POP CODESIZE DUP1 PUSH2 0x4DCC JUMP JUMPDEST SWAP1 DUP6 SWAP4 POP PUSH1 0x1F NOT DUP4 AND SWAP2 DUP6 PUSH1 0x0 MSTORE DUP2 PUSH1 0x0 KECCAK256 SWAP3 PUSH1 0x0 JUMPDEST DUP2 DUP2 LT PUSH2 0x4F77 JUMPI POP DUP5 GT PUSH2 0x4F5E JUMPI JUMPDEST POP POP POP DUP2 SHL ADD SWAP1 SSTORE PUSH2 0x4DE0 JUMP JUMPDEST ADD MLOAD PUSH1 0x0 NOT PUSH1 0xF8 DUP5 PUSH1 0x3 SHL AND SHR NOT AND SWAP1 SSTORE CODESIZE DUP1 DUP1 PUSH2 0x4F51 JUMP JUMPDEST DUP3 DUP5 ADD MLOAD DUP6 SSTORE DUP9 SWAP7 SWAP1 SWAP5 ADD SWAP4 PUSH1 0x20 SWAP4 DUP5 ADD SWAP4 ADD PUSH2 0x4F42 JUMP JUMPDEST SWAP1 SWAP2 POP DUP4 PUSH1 0x0 MSTORE PUSH1 0x20 PUSH1 0x0 KECCAK256 DUP8 DUP1 DUP6 ADD PUSH1 0x5 SHR DUP3 ADD SWAP3 PUSH1 0x20 DUP7 LT PUSH2 0x4FD9 JUMPI JUMPDEST SWAP2 DUP8 SWAP2 DUP7 SWAP6 SWAP5 SWAP4 ADD PUSH1 0x5 SHR ADD SWAP2 JUMPDEST DUP3 DUP2 LT PUSH2 0x4FCA JUMPI POP POP PUSH2 0x4DB6 JUMP JUMPDEST PUSH1 0x0 DUP2 SSTORE DUP6 SWAP5 POP DUP8 SWAP2 ADD PUSH2 0x4FBC JUMP JUMPDEST SWAP3 POP DUP2 SWAP3 PUSH2 0x4FAE JUMP JUMPDEST ADD MLOAD SWAP1 POP CODESIZE DUP1 PUSH2 0x4D7C JUMP JUMPDEST SWAP1 DUP5 SWAP4 POP PUSH1 0x1F NOT DUP4 AND SWAP2 DUP10 PUSH1 0x0 MSTORE DUP2 PUSH1 0x0 KECCAK256 SWAP3 PUSH1 0x0 JUMPDEST DUP2 DUP2 LT PUSH2 0x5038 JUMPI POP DUP5 GT PUSH2 0x501F JUMPI JUMPDEST POP POP POP DUP2 SHL ADD DUP6 SSTORE PUSH2 0x4D90 JUMP JUMPDEST ADD MLOAD PUSH1 0x0 NOT PUSH1 0xF8 DUP5 PUSH1 0x3 SHL AND SHR NOT AND SWAP1 SSTORE CODESIZE DUP1 DUP1 PUSH2 0x5012 JUMP JUMPDEST DUP3 DUP5 ADD MLOAD DUP6 SSTORE DUP8 SWAP7 SWAP1 SWAP5 ADD SWAP4 PUSH1 0x20 SWAP4 DUP5 ADD SWAP4 ADD PUSH2 0x5003 JUMP JUMPDEST SWAP1 SWAP2 POP PUSH1 0x0 DUP9 DUP2 MSTORE PUSH1 0x20 DUP2 KECCAK256 DUP8 DUP1 DUP7 ADD PUSH1 0x5 SHR DUP3 ADD SWAP4 PUSH1 0x20 DUP8 LT PUSH2 0x509B JUMPI JUMPDEST SWAP2 DUP8 SWAP2 DUP8 SWAP7 SWAP6 SWAP5 SWAP4 ADD PUSH1 0x5 SHR ADD SWAP3 JUMPDEST DUP4 DUP2 LT PUSH2 0x508D JUMPI POP POP POP PUSH2 0x4D66 JUMP JUMPDEST DUP3 DUP2 SSTORE DUP7 SWAP6 POP DUP8 SWAP2 ADD PUSH2 0x507E JUMP JUMPDEST SWAP4 POP DUP2 SWAP4 PUSH2 0x506F JUMP JUMPDEST PUSH4 0x4E487B71 PUSH1 0xE0 SHL PUSH1 0x0 MSTORE PUSH1 0x0 PUSH1 0x4 MSTORE PUSH1 0x24 PUSH1 0x0 REVERT JUMPDEST SWAP4 SWAP3 SWAP2 PUSH2 0x50E3 SWAP1 PUSH2 0x50D5 PUSH1 0x40 SWAP4 PUSH1 0x60 DUP9 MSTORE PUSH1 0x60 DUP9 ADD SWAP1 PUSH2 0x4460 JUMP JUMPDEST SWAP1 DUP7 DUP3 SUB PUSH1 0x20 DUP9 ADD MSTORE PUSH2 0x4460 JUMP JUMPDEST SWAP4 ADD MSTORE JUMP JUMPDEST PUSH1 0x0 NOT DUP2 EQ PUSH2 0x360C JUMPI PUSH1 0x1 ADD SWAP1 JUMP JUMPDEST DUP1 ISZERO PUSH2 0x360C JUMPI PUSH1 0x0 NOT ADD SWAP1 JUMP JUMPDEST PUSH1 0x1 PUSH1 0x1 PUSH1 0x40 SHL SUB DUP2 GT PUSH2 0x1AC4 JUMPI PUSH1 0x5 SHL PUSH1 0x20 ADD SWAP1 JUMP JUMPDEST DUP1 MLOAD ISZERO PUSH2 0x3622 JUMPI PUSH1 0x20 ADD SWAP1 JUMP JUMPDEST DUP1 MLOAD DUP3 LT ISZERO PUSH2 0x3622 JUMPI PUSH1 0x20 SWAP2 PUSH1 0x5 SHL ADD ADD SWAP1 JUMP JUMPDEST SWAP3 SWAP2 SWAP1 PUSH1 0x40 PUSH2 0x5154 DUP2 SWAP3 PUSH1 0x60 DUP8 MSTORE PUSH1 0x60 DUP8 ADD SWAP1 PUSH2 0x4460 JUMP JUMPDEST DUP6 DUP2 SUB PUSH1 0x20 DUP8 ADD MSTORE PUSH1 0xC DUP2 MSTORE PUSH12 0x54726164696E675265616479 PUSH1 0xA0 SHL PUSH1 0x20 DUP3 ADD MSTORE ADD SWAP4 ADD MSTORE JUMP JUMPDEST SWAP1 DUP2 MLOAD DUP2 LT ISZERO PUSH2 0x3622 JUMPI ADD PUSH1 0x20 ADD SWAP1 JUMP JUMPDEST PUSH1 0x0 SWAP1 PUSH1 0xFF AND PUSH1 0xA DUP2 LT ISZERO PUSH2 0x51B8 JUMPI PUSH1 0x30 SWAP2 POP ADD PUSH1 0xFF DUP2 GT PUSH2 0x360C JUMPI PUSH1 0xF8 SHL PUSH1 0x1 PUSH1 0x1 PUSH1 0xF8 SHL SUB NOT AND SWAP1 JUMP JUMPDEST PUSH1 0x61 ADD PUSH1 0xFF DUP2 GT PUSH2 0x51F9 JUMPI PUSH1 0xFF PUSH1 0x9 NOT SWAP2 AND ADD SWAP1 PUSH1 0xFF DUP3 GT PUSH2 0x51E5 JUMPI POP PUSH1 0xF8 SHL PUSH1 0x1 PUSH1 0x1 PUSH1 0xF8 SHL SUB NOT AND SWAP1 JUMP JUMPDEST PUSH4 0x4E487B71 PUSH1 0xE0 SHL DUP2 MSTORE PUSH1 0x11 PUSH1 0x4 MSTORE PUSH1 0x24 SWAP1 REVERT JUMPDEST PUSH4 0x4E487B71 PUSH1 0xE0 SHL DUP3 MSTORE PUSH1 0x11 PUSH1 0x4 MSTORE PUSH1 0x24 DUP3 REVERT INVALID 0xD 0x2D PUSH11 0x5D08CB5D871289C0A3CA85 0x5D SWAP14 0xA7 0x29 MULMOD LOG1 GT 0xC2 0x4C 0xCE 0x2D 0x5C 0x2B CALLVALUE LOG2 0xD 0xAA SLOAD 0x2F DUP8 DUP9 GT PUSH31 0x7EFF1D82E926EC794901D17C78024A50270940304540A733656F0DF3FA603C PUSH21 0xBFE2A4719960E47343678C3DC690D2B27A2295ACC6 0xFC NUMBER ADDMOD CALLER 0xAA 0xF9 0xAC SELFDESTRUCT 0xF8 LOG3 SWAP16 0xB9 JUMPI 0xD9 0xD1 0xC8 0xE3 0xEF SWAP16 ADDMOD CODESIZE 0x5E EXTCODEHASH 0xCF PUSH28 0xB23AB7BA0AD0F8DF93DBDE6A68DDAA901E2FE3BDA354FE0EDE278515 0x2D 0x5C LT SWAP3 DUP3 0xA6 SGT INVALID MUL 0x4A SDIV PUSH11 0x3E66C41BB3273DCF2136C7 0xD8 0xEF PUSH4 0x2BB8EF13 0xDB 0xCA PUSH10 0xA8F36FA620C7468671B3 ISZERO RETURNDATASIZE CHAINID LOG2 GT 0xC0 0xBB EXTCODEHASH 0xCC 0x25 0xFB SELFDESTRUCT LOG1 0x2E LOG4 PUSH4 0xB3505377 DUP10 SWAP11 0x4D 0x5D 0xDB BASEFEE PC 0xB9 0xC7 0xBD CALLDATASIZE PUSH23 0x4686D9425B36BCE5FD3347E0DC338DCC0E895534DD4AF2 PUSH21 0xEEC95F56CD4CA4B4B2ADA357CA04130A4CACA6023 0xB0 0xBA 0x21 BASEFEE DUP15 0xE6 DUP1 0xCE 0x5C RETURNDATASIZE CALLCODE 0x28 PUSH1 0xB1 0xCD DUP12 MUL 0xCD 0x2A SIGNEXTEND 0xCB 0xD 0xE9 DUP9 MLOAD 0xF8 0xCD ORIGIN 0xED SWAP4 0xFC 0x2F SWAP16 0xC7 DUP2 MSTORE LOG1 BASEFEE SMOD 0xC9 PUSH1 0x9A RETURN 0xD9 SWAP13 PUSH0 0xE4 0xDC PUSH12 0x106A801AADDFE90EA952726E CALLCODE PC DUP11 0xD0 PUSH25 0xEDF35B066F7C7406E207CB0003BBABA8CB53EBA9553E7259A1 0xC4 DUP15 PC CALLDATACOPY 0xAD PUSH27 0x7F3DCEDCBE129BF3249EC4FBF651FD4F5E2600EAD39FE2F5A977E1 LOG3 PREVRANDAO TIMESTAMP XOR SELFDESTRUCT CALLER 0x2E 0xDF PUSH20 0x5C56487BBE59922B15C88777D443EB8B78020F4D 0xF6 CODECOPY 0x1F 0x5C ORIGIN 0xD9 0xC6 SWAP14 0x2A SELFBALANCE 0xEA PUSH8 0xB442974B53935D1 0xED 0xC7 REVERT PUSH5 0xEB21E047A8 CODECOPY OR SHL LOG2 PUSH5 0x6970667358 0x22 SLT KECCAK256 0xA9 0xC5 0xAE RETURNDATASIZE 0xB1 BYTE 0xF6 0xDF 0xE1 0xE6 RETURN SWAP3 0x5E PUSH4 0x60C62085 0x27 DIV 0xE8 0xCE ORIGIN ADD 0xDA JUMPDEST PUSH13 0x6C7BB1FD64736F6C63430008 EQ STOP CALLER 0x2F DUP8 DUP9 GT PUSH31 0x7EFF1D82E926EC794901D17C78024A50270940304540A733656F0DDDAA901E 0x2F 0xE3 0xBD LOG3 SLOAD INVALID 0xE 0xDE 0x27 DUP6 ISZERO 0x2D 0x5C LT SWAP3 DUP3 0xA6 SGT INVALID MUL 0x4A SDIV PUSH11 0x3E66C41BB3273DCF2136C7 0xD8 0xEF PUSH4 0x2BB8EF13 0xDB 0xCA PUSH10 0xA8F36FA620C7468671B3 ISZERO RETURNDATASIZE CHAINID LOG2 GT 0xC0 0xF8 0xCD ORIGIN 0xED SWAP4 0xFC 0x2F SWAP16 0xC7 DUP2 MSTORE LOG1 BASEFEE SMOD 0xC9 PUSH1 0x9A RETURN 0xD9 SWAP13 PUSH0 0xE4 0xDC PUSH12 0x106A801AADDFE90EA977E1A3 PREVRANDAO TIMESTAMP XOR SELFDESTRUCT CALLER 0x2E 0xDF PUSH20 0x5C56487BBE59922B15C88777D443EB8B78020F4D "},"gasEstimates":{"creation":{"codeDepositCost":"4301400","executionCost":"infinite","totalCost":"infinite"},"external":{"AUDITOR_ROLE()":"606","BUYER_ROLE()":"694","DEFAULT_ADMIN_ROLE()":"859","INSPECTOR_ROLE()":"1244","MINER_ROLE()":"584","REFINER_ROLE()":"672","TRANSPORTER_ROLE()":"518","_auditMineral(string,string)":"infinite","_checkAuditAndInspectionStatus(string)":"infinite","_getMineralHistory(string)":"infinite","assignAuditor(address)":"infinite","assignBuyer(address)":"infinite","assignInspector(address)":"infinite","assignMiner(address)":"infinite","assignRefiner(address)":"infinite","assignTransporter(address)":"infinite","checkAuditAndInspectionStatus(string)":"infinite","getAllRoleCounts()":"infinite","getMineralDetails(string)":"infinite","getMineralHistory(string)":"infinite","getRoleAdmin(bytes32)":"2462","getRoleMemberCount(bytes32)":"infinite","getRolesForAddress(address)":"infinite","grantRole(bytes32,address)":"33404","hasAdminRole(address)":"3344","hasAuditorRole(address)":"infinite","hasBuyerRole(address)":"infinite","hasInspectorRole(address)":"infinite","hasMinerRole(address)":"infinite","hasRefinerRole(address)":"infinite","hasRole(bytes32,address)":"3106","hasTransporterRole(address)":"infinite","inspectMineral(string,string)":"infinite","isMineralAudited(string)":"infinite","isMineralInspected(string)":"infinite","isMineralRegistered(string)":"infinite","mineralDetails(string)":"infinite","mineralHistories(string,uint256)":"infinite","purchaseMineral(string)":"infinite","refineMineral(string,string)":"infinite","registerMineral(string,string,uint256,string,uint256,string)":"infinite","renounceRole(bytes32,address)":"29074","revokeAuditor(address,string)":"infinite","revokeBuyer(address,string)":"infinite","revokeInspector(address,string)":"infinite","revokeMiner(address,string)":"infinite","revokeRefiner(address,string)":"infinite","revokeRole(bytes32,address)":"34209","revokeTransporter(address,string)":"infinite","roleMemberCount(bytes32)":"3160","supportsInterface(bytes4)":"271","transferMineral(string,address,string,string)":"infinite","updateMineralLocation(string,string)":"infinite","updateMineralStatus(string,string)":"infinite"},"internal":{"addressToString(address)":"infinite"}},"methodIdentifiers":{"AUDITOR_ROLE()":"6e1d616e","BUYER_ROLE()":"7a01a1da","DEFAULT_ADMIN_ROLE()":"a217fddf","INSPECTOR_ROLE()":"e3a3c522","MINER_ROLE()":"6394f6e6","REFINER_ROLE()":"79451cd7","TRANSPORTER_ROLE()":"4eabbe77","_auditMineral(string,string)":"4e2a3109","_checkAuditAndInspectionStatus(string)":"1c7588fc","_getMineralHistory(string)":"f6e2314b","assignAuditor(address)":"480d1dd3","assignBuyer(address)":"0dacad2e","assignInspector(address)":"cc82b090","assignMiner(address)":"0958fc2d","assignRefiner(address)":"6377741d","assignTransporter(address)":"a917601b","checkAuditAndInspectionStatus(string)":"75a2b0d4","getAllRoleCounts()":"b9c5b833","getMineralDetails(string)":"a672d987","getMineralHistory(string)":"826fe0f5","getRoleAdmin(bytes32)":"248a9ca3","getRoleMemberCount(bytes32)":"ca15c873","getRolesForAddress(address)":"df422bf2","grantRole(bytes32,address)":"2f2ff15d","hasAdminRole(address)":"c395fcb3","hasAuditorRole(address)":"abaa536f","hasBuyerRole(address)":"beae4615","hasInspectorRole(address)":"8850845f","hasMinerRole(address)":"3499c3a2","hasRefinerRole(address)":"de7ce391","hasRole(bytes32,address)":"91d14854","hasTransporterRole(address)":"70e22e42","inspectMineral(string,string)":"99691194","isMineralAudited(string)":"981642c6","isMineralInspected(string)":"e2e3edeb","isMineralRegistered(string)":"ac851dfd","mineralDetails(string)":"5aee1b15","mineralHistories(string,uint256)":"35ba6207","purchaseMineral(string)":"126ee338","refineMineral(string,string)":"7cde2b99","registerMineral(string,string,uint256,string,uint256,string)":"3a7adea5","renounceRole(bytes32,address)":"36568abe","revokeAuditor(address,string)":"fc1032eb","revokeBuyer(address,string)":"9b188dd6","revokeInspector(address,string)":"e438fdf8","revokeMiner(address,string)":"309514df","revokeRefiner(address,string)":"f5716a85","revokeRole(bytes32,address)":"d547741f","revokeTransporter(address,string)":"7ae9c160","roleMemberCount(bytes32)":"b6ba1ca7","supportsInterface(bytes4)":"01ffc9a7","transferMineral(string,address,string,string)":"f17f3523","updateMineralLocation(string,string)":"129b5c45","updateMineralStatus(string,string)":"a354aec7"}},"storageLayout":{"storage":[{"astId":26,"contract":"contracts/modules/MineralRegistry.sol:MineralRegistry","label":"_roles","offset":0,"slot":"0","type":"t_mapping(t_bytes32,t_struct(RoleData)21_storage)"},{"astId":809,"contract":"contracts/modules/MineralRegistry.sol:MineralRegistry","label":"nonce","offset":0,"slot":"1","type":"t_uint256"},{"astId":814,"contract":"contracts/modules/MineralRegistry.sol:MineralRegistry","label":"mineralDetails","offset":0,"slot":"2","type":"t_mapping(t_string_memory_ptr,t_struct(MineralDetails)791_storage)"},{"astId":820,"contract":"contracts/modules/MineralRegistry.sol:MineralRegistry","label":"mineralHistories","offset":0,"slot":"3","type":"t_mapping(t_string_memory_ptr,t_array(t_struct(MineralHistory)802_storage)dyn_storage)"},{"astId":824,"contract":"contracts/modules/MineralRegistry.sol:MineralRegistry","label":"roleMemberCount","offset":0,"slot":"4","type":"t_mapping(t_bytes32,t_uint256)"},{"astId":2645,"contract":"contracts/modules/MineralRegistry.sol:MineralRegistry","label":"rolesManager","offset":0,"slot":"5","type":"t_contract(RolesManager)2636"}],"types":{"t_address":{"encoding":"inplace","label":"address","numberOfBytes":"20"},"t_array(t_struct(MineralHistory)802_storage)dyn_storage":{"base":"t_struct(MineralHistory)802_storage","encoding":"dynamic_array","label":"struct RolesManager.MineralHistory[]","numberOfBytes":"32"},"t_bool":{"encoding":"inplace","label":"bool","numberOfBytes":"1"},"t_bytes32":{"encoding":"inplace","label":"bytes32","numberOfBytes":"32"},"t_contract(RolesManager)2636":{"encoding":"inplace","label":"contract RolesManager","numberOfBytes":"20"},"t_mapping(t_address,t_bool)":{"encoding":"mapping","key":"t_address","label":"mapping(address => bool)","numberOfBytes":"32","value":"t_bool"},"t_mapping(t_bytes32,t_struct(RoleData)21_storage)":{"encoding":"mapping","key":"t_bytes32","label":"mapping(bytes32 => struct AccessControl.RoleData)","numberOfBytes":"32","value":"t_struct(RoleData)21_storage"},"t_mapping(t_bytes32,t_uint256)":{"encoding":"mapping","key":"t_bytes32","label":"mapping(bytes32 => uint256)","numberOfBytes":"32","value":"t_uint256"},"t_mapping(t_string_memory_ptr,t_array(t_struct(MineralHistory)802_storage)dyn_storage)":{"encoding":"mapping","key":"t_string_memory_ptr","label":"mapping(string => struct RolesManager.MineralHistory[])","numberOfBytes":"32","value":"t_array(t_struct(MineralHistory)802_storage)dyn_storage"},"t_mapping(t_string_memory_ptr,t_struct(MineralDetails)791_storage)":{"encoding":"mapping","key":"t_string_memory_ptr","label":"mapping(string => struct RolesManager.MineralDetails)","numberOfBytes":"32","value":"t_struct(MineralDetails)791_storage"},"t_string_memory_ptr":{"encoding":"bytes","label":"string","numberOfBytes":"32"},"t_string_storage":{"encoding":"bytes","label":"string","numberOfBytes":"32"},"t_struct(MineralDetails)791_storage":{"encoding":"inplace","label":"struct RolesManager.MineralDetails","members":[{"astId":760,"contract":"contracts/modules/MineralRegistry.sol:MineralRegistry","label":"id","offset":0,"slot":"0","type":"t_string_storage"},{"astId":762,"contract":"contracts/modules/MineralRegistry.sol:MineralRegistry","label":"name","offset":0,"slot":"1","type":"t_string_storage"},{"astId":764,"contract":"contracts/modules/MineralRegistry.sol:MineralRegistry","label":"origin","offset":0,"slot":"2","type":"t_string_storage"},{"astId":766,"contract":"contracts/modules/MineralRegistry.sol:MineralRegistry","label":"mineralType","offset":0,"slot":"3","type":"t_string_storage"},{"astId":768,"contract":"contracts/modules/MineralRegistry.sol:MineralRegistry","label":"weight","offset":0,"slot":"4","type":"t_uint256"},{"astId":770,"contract":"contracts/modules/MineralRegistry.sol:MineralRegistry","label":"purityPercentage","offset":0,"slot":"5","type":"t_uint256"},{"astId":772,"contract":"contracts/modules/MineralRegistry.sol:MineralRegistry","label":"storageConditions","offset":0,"slot":"6","type":"t_string_storage"},{"astId":774,"contract":"contracts/modules/MineralRegistry.sol:MineralRegistry","label":"registeredBy","offset":0,"slot":"7","type":"t_address"},{"astId":776,"contract":"contracts/modules/MineralRegistry.sol:MineralRegistry","label":"currentStatus","offset":0,"slot":"8","type":"t_string_storage"},{"astId":778,"contract":"contracts/modules/MineralRegistry.sol:MineralRegistry","label":"currentLocation","offset":0,"slot":"9","type":"t_string_storage"},{"astId":780,"contract":"contracts/modules/MineralRegistry.sol:MineralRegistry","label":"currentHandler","offset":0,"slot":"10","type":"t_address"},{"astId":782,"contract":"contracts/modules/MineralRegistry.sol:MineralRegistry","label":"isPurchased","offset":20,"slot":"10","type":"t_bool"},{"astId":784,"contract":"contracts/modules/MineralRegistry.sol:MineralRegistry","label":"isRefined","offset":21,"slot":"10","type":"t_bool"},{"astId":786,"contract":"contracts/modules/MineralRegistry.sol:MineralRegistry","label":"isAudited","offset":22,"slot":"10","type":"t_bool"},{"astId":788,"contract":"contracts/modules/MineralRegistry.sol:MineralRegistry","label":"isInspected","offset":23,"slot":"10","type":"t_bool"},{"astId":790,"contract":"contracts/modules/MineralRegistry.sol:MineralRegistry","label":"timestamp","offset":0,"slot":"11","type":"t_uint256"}],"numberOfBytes":"384"},"t_struct(MineralHistory)802_storage":{"encoding":"inplace","label":"struct RolesManager.MineralHistory","members":[{"astId":793,"contract":"contracts/modules/MineralRegistry.sol:MineralRegistry","label":"id","offset":0,"slot":"0","type":"t_string_storage"},{"astId":795,"contract":"contracts/modules/MineralRegistry.sol:MineralRegistry","label":"fieldChanged","offset":0,"slot":"1","type":"t_string_storage"},{"astId":797,"contract":"contracts/modules/MineralRegistry.sol:MineralRegistry","label":"newValue","offset":0,"slot":"2","type":"t_string_storage"},{"astId":799,"contract":"contracts/modules/MineralRegistry.sol:MineralRegistry","label":"updatedBy","offset":0,"slot":"3","type":"t_address"},{"astId":801,"contract":"contracts/modules/MineralRegistry.sol:MineralRegistry","label":"timestamp","offset":0,"slot":"4","type":"t_uint256"}],"numberOfBytes":"160"},"t_struct(RoleData)21_storage":{"encoding":"inplace","label":"struct AccessControl.RoleData","members":[{"astId":18,"contract":"contracts/modules/MineralRegistry.sol:MineralRegistry","label":"hasRole","offset":0,"slot":"0","type":"t_mapping(t_address,t_bool)"},{"astId":20,"contract":"contracts/modules/MineralRegistry.sol:MineralRegistry","label":"adminRole","offset":0,"slot":"1","type":"t_bytes32"}],"numberOfBytes":"64"},"t_uint256":{"encoding":"inplace","label":"uint256","numberOfBytes":"32"}}},"userdoc":{"kind":"user","methods":{"_auditMineral(string,string)":{"notice":"Emits MineralAudited event."},"inspectMineral(string,string)":{"notice":"Emits MineralInspected event on successful inspection"},"purchaseMineral(string)":{"notice":"Emits MineralPurchased event on successful purchase"},"refineMineral(string,string)":{"notice":"Emits MineralRefined event on successfl refining process"},"registerMineral(string,string,uint256,string,uint256,string)":{"notice":"Emits MineralRegistered event on successful registration."},"transferMineral(string,address,string,string)":{"notice":"Emits MineralTransported on successful transportation"},"updateMineralLocation(string,string)":{"notice":"Emits MineralLocationUpdated event on successful location update!"},"updateMineralStatus(string,string)":{"notice":"Emits MineralUpdated event on successful updation"}},"version":1}}}}