{
    "contractName": "RolesManager",
    "abi": [
        {
            "inputs": [],
            "stateMutability": "nonpayable",
            "type": "constructor"
        },
        {
            "inputs": [],
            "name": "AccessControlBadConfirmation",
            "type": "error"
        },
        {
            "inputs": [
                {
                    "internalType": "address",
                    "name": "account",
                    "type": "address"
                },
                {
                    "internalType": "bytes32",
                    "name": "neededRole",
                    "type": "bytes32"
                }
            ],
            "name": "AccessControlUnauthorizedAccount",
            "type": "error"
        },
        {
            "inputs": [
                {
                    "internalType": "address",
                    "name": "caller",
                    "type": "address"
                },
                {
                    "internalType": "bytes32",
                    "name": "role",
                    "type": "bytes32"
                }
            ],
            "name": "AddressDoesNotHaveRequiredRole",
            "type": "error"
        },
        {
            "inputs": [
                {
                    "internalType": "address",
                    "name": "caller",
                    "type": "address"
                }
            ],
            "name": "DisputeResolution__AlreadyVoted",
            "type": "error"
        },
        {
            "inputs": [
                {
                    "internalType": "uint256",
                    "name": "disputeId",
                    "type": "uint256"
                }
            ],
            "name": "DisputeResolution__DisputeEscalated_UnableToVote",
            "type": "error"
        },
        {
            "inputs": [
                {
                    "internalType": "uint256",
                    "name": "disputeId",
                    "type": "uint256"
                }
            ],
            "name": "DisputeResolution__DisputeNotEscalated",
            "type": "error"
        },
        {
            "inputs": [
                {
                    "internalType": "uint256",
                    "name": "disputeId",
                    "type": "uint256"
                }
            ],
            "name": "DisputeResolution__DisputeStatusNotPending",
            "type": "error"
        },
        {
            "inputs": [],
            "name": "DisputeResolution__DisputeStatusNotPendingOrEscalated",
            "type": "error"
        },
        {
            "inputs": [],
            "name": "DisputeResolution__InvalidDisputeDefendantAddress",
            "type": "error"
        },
        {
            "inputs": [],
            "name": "DisputeResolution__InvalidDisputeDetails",
            "type": "error"
        },
        {
            "inputs": [],
            "name": "DisputeResolution__InvalidDisputeEvidence",
            "type": "error"
        },
        {
            "inputs": [],
            "name": "DisputeResolution__InvalidDisputeIdOrNotFound",
            "type": "error"
        },
        {
            "inputs": [],
            "name": "DisputeResolution__InvalidMineralIdOrNotFound",
            "type": "error"
        },
        {
            "inputs": [],
            "name": "DisputeResolution__InvalidResolutionDetails",
            "type": "error"
        },
        {
            "inputs": [
                {
                    "internalType": "address",
                    "name": "caller",
                    "type": "address"
                }
            ],
            "name": "DisputeResolution__NotEligibleToVote",
            "type": "error"
        },
        {
            "inputs": [],
            "name": "DisputeResolution__VotingPeriodStillActive",
            "type": "error"
        },
        {
            "inputs": [
                {
                    "internalType": "address",
                    "name": "token",
                    "type": "address"
                },
                {
                    "internalType": "uint256",
                    "name": "tokenAmount",
                    "type": "uint256"
                }
            ],
            "name": "ERC20TokenTransferFailed",
            "type": "error"
        },
        {
            "inputs": [
                {
                    "internalType": "address",
                    "name": "caller",
                    "type": "address"
                }
            ],
            "name": "InsufficientPermissionsToPerformAction",
            "type": "error"
        },
        {
            "inputs": [],
            "name": "InvalidAccountAddress",
            "type": "error"
        },
        {
            "inputs": [
                {
                    "internalType": "string",
                    "name": "mineralId",
                    "type": "string"
                }
            ],
            "name": "InvalidMineralIdOrNotFound",
            "type": "error"
        },
        {
            "inputs": [],
            "name": "InvalidPaymentMethods",
            "type": "error"
        },
        {
            "inputs": [
                {
                    "internalType": "string",
                    "name": "currentStatus",
                    "type": "string"
                },
                {
                    "internalType": "string",
                    "name": "attemptedStatus",
                    "type": "string"
                }
            ],
            "name": "InvalidTransportStateTransition",
            "type": "error"
        },
        {
            "inputs": [
                {
                    "internalType": "string",
                    "name": "mineralId",
                    "type": "string"
                }
            ],
            "name": "MineralNotMarketReady",
            "type": "error"
        },
        {
            "inputs": [
                {
                    "internalType": "string",
                    "name": "mineralId",
                    "type": "string"
                }
            ],
            "name": "MineralNotReadyToTrade",
            "type": "error"
        },
        {
            "inputs": [],
            "name": "MineralRegistry__InvalidMineralDestination",
            "type": "error"
        },
        {
            "inputs": [],
            "name": "MineralRegistry__InvalidMineralDetails",
            "type": "error"
        },
        {
            "inputs": [
                {
                    "internalType": "string",
                    "name": "mineralId",
                    "type": "string"
                }
            ],
            "name": "MineralRegistry__InvalidMineralIdOrNotFound",
            "type": "error"
        },
        {
            "inputs": [],
            "name": "MineralRegistry__InvalidMineralLocation",
            "type": "error"
        },
        {
            "inputs": [],
            "name": "MineralRegistry__InvalidMineralName",
            "type": "error"
        },
        {
            "inputs": [],
            "name": "MineralRegistry__InvalidMineralOrigin",
            "type": "error"
        },
        {
            "inputs": [],
            "name": "MineralRegistry__InvalidMineralPurityPercentage",
            "type": "error"
        },
        {
            "inputs": [],
            "name": "MineralRegistry__InvalidMineralStatus",
            "type": "error"
        },
        {
            "inputs": [],
            "name": "MineralRegistry__InvalidMineralStorageConditions",
            "type": "error"
        },
        {
            "inputs": [],
            "name": "MineralRegistry__InvalidMineralType",
            "type": "error"
        },
        {
            "inputs": [],
            "name": "MineralRegistry__InvalidMineralWeight",
            "type": "error"
        },
        {
            "inputs": [],
            "name": "MineralRegistry__InvalidReceivingPartyAddress",
            "type": "error"
        },
        {
            "inputs": [],
            "name": "MineralRegistry__MineralAlreadyAudited",
            "type": "error"
        },
        {
            "inputs": [],
            "name": "MineralRegistry__MineralAlreadyInspected",
            "type": "error"
        },
        {
            "inputs": [],
            "name": "MineralRegistry__MineralAlreadyPurchased",
            "type": "error"
        },
        {
            "inputs": [],
            "name": "MineralRegistry__MineralNotAudited",
            "type": "error"
        },
        {
            "inputs": [],
            "name": "MineralRegistry__MineralNotInspected",
            "type": "error"
        },
        {
            "inputs": [
                {
                    "internalType": "string",
                    "name": "mineralId",
                    "type": "string"
                }
            ],
            "name": "MineralRegistry__MineralNotRegistered",
            "type": "error"
        },
        {
            "inputs": [],
            "name": "MineralWarehouse__ETHTransferFailed",
            "type": "error"
        },
        {
            "inputs": [],
            "name": "MineralWarehouse__IncorrectETHAmount",
            "type": "error"
        },
        {
            "inputs": [],
            "name": "MineralWarehouse__InvalidMineralPrice",
            "type": "error"
        },
        {
            "inputs": [],
            "name": "MineralWarehouse__InvalidNumberOfPrices",
            "type": "error"
        },
        {
            "inputs": [
                {
                    "internalType": "address",
                    "name": "tokenAddress",
                    "type": "address"
                }
            ],
            "name": "MineralWarehouse__InvalidTokenAddress",
            "type": "error"
        },
        {
            "inputs": [],
            "name": "MineralWarehouse__InvalidTokenPrice",
            "type": "error"
        },
        {
            "inputs": [
                {
                    "internalType": "string",
                    "name": "mineralId",
                    "type": "string"
                }
            ],
            "name": "MineralWarehouse__MineralAlreadySold",
            "type": "error"
        },
        {
            "inputs": [
                {
                    "internalType": "string",
                    "name": "mineralId",
                    "type": "string"
                }
            ],
            "name": "MineralWarehouse__MineralNotFoundInWarehouse",
            "type": "error"
        },
        {
            "inputs": [
                {
                    "internalType": "string",
                    "name": "mineralId",
                    "type": "string"
                }
            ],
            "name": "MineralWarehouse__MineralNotMarketReady",
            "type": "error"
        },
        {
            "inputs": [
                {
                    "internalType": "string",
                    "name": "mineralId",
                    "type": "string"
                }
            ],
            "name": "MineralWarehouse__MineralNotRefined",
            "type": "error"
        },
        {
            "inputs": [
                {
                    "internalType": "address",
                    "name": "tokenAddress",
                    "type": "address"
                }
            ],
            "name": "MineralWarehouse__UnacceptedToken",
            "type": "error"
        },
        {
            "inputs": [
                {
                    "internalType": "address[]",
                    "name": "tokenAddresses",
                    "type": "address[]"
                }
            ],
            "name": "MineralWarehouse__UnacceptedTokens",
            "type": "error"
        },
        {
            "inputs": [
                {
                    "internalType": "address",
                    "name": "seller",
                    "type": "address"
                }
            ],
            "name": "MineralWarehouse__UnauthorizedSeller",
            "type": "error"
        },
        {
            "inputs": [
                {
                    "internalType": "string",
                    "name": "mineralId",
                    "type": "string"
                },
                {
                    "internalType": "address",
                    "name": "caller",
                    "type": "address"
                }
            ],
            "name": "NotAssignedTransporter",
            "type": "error"
        },
        {
            "inputs": [],
            "name": "RolesManager__InvalidAddress",
            "type": "error"
        },
        {
            "inputs": [],
            "name": "RolesManager__InvalidMineralDestination",
            "type": "error"
        },
        {
            "inputs": [],
            "name": "RolesManager__InvalidMineralIdOrNotFound",
            "type": "error"
        },
        {
            "inputs": [],
            "name": "RolesManager__InvalidMineralName",
            "type": "error"
        },
        {
            "inputs": [],
            "name": "RolesManager__InvalidMineralOrigin",
            "type": "error"
        },
        {
            "inputs": [],
            "name": "RolesManager__InvalidMineralPurityPercentage",
            "type": "error"
        },
        {
            "inputs": [],
            "name": "RolesManager__InvalidMineralStorageConditions",
            "type": "error"
        },
        {
            "inputs": [],
            "name": "RolesManager__InvalidMineralType",
            "type": "error"
        },
        {
            "inputs": [],
            "name": "RolesManager__InvalidMineralWeight",
            "type": "error"
        },
        {
            "inputs": [],
            "name": "RolesManager__InvalidReceivingPartyAddress",
            "type": "error"
        },
        {
            "inputs": [],
            "name": "RolesManager__InvalidRole",
            "type": "error"
        },
        {
            "inputs": [
                {
                    "internalType": "string",
                    "name": "mineralId",
                    "type": "string"
                }
            ],
            "name": "RolesManager__MineralAlreadyAudited",
            "type": "error"
        },
        {
            "inputs": [
                {
                    "internalType": "string",
                    "name": "mineralId",
                    "type": "string"
                }
            ],
            "name": "RolesManager__MineralAlreadyInspected",
            "type": "error"
        },
        {
            "inputs": [
                {
                    "internalType": "string",
                    "name": "mineralId",
                    "type": "string"
                }
            ],
            "name": "RolesManager__MineralAlreadyPurchased",
            "type": "error"
        },
        {
            "inputs": [
                {
                    "internalType": "string",
                    "name": "mineralId",
                    "type": "string"
                }
            ],
            "name": "RolesManager__MineralAlreadyRefined",
            "type": "error"
        },
        {
            "inputs": [
                {
                    "internalType": "string",
                    "name": "mineralId",
                    "type": "string"
                }
            ],
            "name": "RolesManager__MineralNotMarketReady",
            "type": "error"
        },
        {
            "inputs": [
                {
                    "internalType": "uint256",
                    "name": "purityPercentage",
                    "type": "uint256"
                }
            ],
            "name": "RolesManager__MineralPurityPercentageTooLowToRegister",
            "type": "error"
        },
        {
            "inputs": [
                {
                    "internalType": "address",
                    "name": "caller",
                    "type": "address"
                }
            ],
            "name": "RolesManager__NotTheAssignedBuyer",
            "type": "error"
        },
        {
            "inputs": [
                {
                    "internalType": "string",
                    "name": "mineralId",
                    "type": "string"
                }
            ],
            "name": "SupplychainValidator__InvalidMineralIdOrNotFound",
            "type": "error"
        },
        {
            "inputs": [],
            "name": "SupplychainValidator__InvalidMineralOwnershipChain",
            "type": "error"
        },
        {
            "inputs": [],
            "name": "SupplychainValidator__InvalidMineralTransactionHistory",
            "type": "error"
        },
        {
            "inputs": [
                {
                    "internalType": "uint256",
                    "name": "tokenId",
                    "type": "uint256"
                },
                {
                    "internalType": "address",
                    "name": "caller",
                    "type": "address"
                }
            ],
            "name": "Tokenization__CallerNotMineralTokenOwner",
            "type": "error"
        },
        {
            "inputs": [
                {
                    "internalType": "uint256",
                    "name": "tokenId",
                    "type": "uint256"
                }
            ],
            "name": "Tokenization__InvalidTokenId",
            "type": "error"
        },
        {
            "inputs": [
                {
                    "internalType": "uint256",
                    "name": "tokenId",
                    "type": "uint256"
                }
            ],
            "name": "Tokenization__InvalidTokenIdOrNotFound",
            "type": "error"
        },
        {
            "inputs": [
                {
                    "internalType": "uint256",
                    "name": "tokenId",
                    "type": "uint256"
                }
            ],
            "name": "Tokenization__TokenAlreadyExists",
            "type": "error"
        },
        {
            "inputs": [
                {
                    "internalType": "uint256",
                    "name": "tokenId",
                    "type": "uint256"
                }
            ],
            "name": "Tokenization__TokenIsAlreadyMinted",
            "type": "error"
        },
        {
            "inputs": [
                {
                    "internalType": "uint256",
                    "name": "index",
                    "type": "uint256"
                }
            ],
            "name": "TransactionLog__InvalidOperationIndex",
            "type": "error"
        },
        {
            "inputs": [],
            "name": "TransactionLog__InvalidOperationType",
            "type": "error"
        },
        {
            "inputs": [
                {
                    "internalType": "uint256",
                    "name": "transactionId",
                    "type": "uint256"
                }
            ],
            "name": "TransactionLog__InvalidTransactionIdOrNotFound",
            "type": "error"
        },
        {
            "inputs": [
                {
                    "internalType": "string",
                    "name": "mineralId",
                    "type": "string"
                }
            ],
            "name": "TransportRequestAlreadyExists",
            "type": "error"
        },
        {
            "anonymous": false,
            "inputs": [
                {
                    "indexed": true,
                    "internalType": "address",
                    "name": "assignee",
                    "type": "address"
                },
                {
                    "indexed": false,
                    "internalType": "uint256",
                    "name": "timestamp",
                    "type": "uint256"
                }
            ],
            "name": "AdminRoleAssigned",
            "type": "event"
        },
        {
            "anonymous": false,
            "inputs": [
                {
                    "indexed": true,
                    "internalType": "address",
                    "name": "revokee",
                    "type": "address"
                },
                {
                    "indexed": false,
                    "internalType": "string",
                    "name": "reason",
                    "type": "string"
                },
                {
                    "indexed": false,
                    "internalType": "uint256",
                    "name": "timestamp",
                    "type": "uint256"
                }
            ],
            "name": "AdminRoleRevoked",
            "type": "event"
        },
        {
            "anonymous": false,
            "inputs": [
                {
                    "indexed": true,
                    "internalType": "address",
                    "name": "assignee",
                    "type": "address"
                },
                {
                    "indexed": false,
                    "internalType": "uint256",
                    "name": "timestamp",
                    "type": "uint256"
                }
            ],
            "name": "AuditorRoleAssigned",
            "type": "event"
        },
        {
            "anonymous": false,
            "inputs": [
                {
                    "indexed": true,
                    "internalType": "address",
                    "name": "revokee",
                    "type": "address"
                },
                {
                    "indexed": false,
                    "internalType": "string",
                    "name": "reason",
                    "type": "string"
                },
                {
                    "indexed": false,
                    "internalType": "uint256",
                    "name": "timestamp",
                    "type": "uint256"
                }
            ],
            "name": "AuditorRoleRevoked",
            "type": "event"
        },
        {
            "anonymous": false,
            "inputs": [
                {
                    "indexed": true,
                    "internalType": "address",
                    "name": "assignee",
                    "type": "address"
                },
                {
                    "indexed": false,
                    "internalType": "uint256",
                    "name": "timestamp",
                    "type": "uint256"
                }
            ],
            "name": "BuyerRoleAssigned",
            "type": "event"
        },
        {
            "anonymous": false,
            "inputs": [
                {
                    "indexed": true,
                    "internalType": "address",
                    "name": "revokee",
                    "type": "address"
                },
                {
                    "indexed": false,
                    "internalType": "string",
                    "name": "reason",
                    "type": "string"
                },
                {
                    "indexed": false,
                    "internalType": "uint256",
                    "name": "timestamp",
                    "type": "uint256"
                }
            ],
            "name": "BuyerRoleRevoked",
            "type": "event"
        },
        {
            "anonymous": false,
            "inputs": [
                {
                    "indexed": true,
                    "internalType": "address",
                    "name": "assignee",
                    "type": "address"
                },
                {
                    "indexed": false,
                    "internalType": "uint256",
                    "name": "timestamp",
                    "type": "uint256"
                }
            ],
            "name": "InspectorRoleAssigned",
            "type": "event"
        },
        {
            "anonymous": false,
            "inputs": [
                {
                    "indexed": true,
                    "internalType": "address",
                    "name": "revokee",
                    "type": "address"
                },
                {
                    "indexed": false,
                    "internalType": "string",
                    "name": "reason",
                    "type": "string"
                },
                {
                    "indexed": false,
                    "internalType": "uint256",
                    "name": "timestamp",
                    "type": "uint256"
                }
            ],
            "name": "InspectorRoleRevoked",
            "type": "event"
        },
        {
            "anonymous": false,
            "inputs": [
                {
                    "indexed": true,
                    "internalType": "address",
                    "name": "assignee",
                    "type": "address"
                },
                {
                    "indexed": false,
                    "internalType": "uint256",
                    "name": "timestamp",
                    "type": "uint256"
                }
            ],
            "name": "MinerRoleAssigned",
            "type": "event"
        },
        {
            "anonymous": false,
            "inputs": [
                {
                    "indexed": true,
                    "internalType": "address",
                    "name": "revokee",
                    "type": "address"
                },
                {
                    "indexed": false,
                    "internalType": "string",
                    "name": "reason",
                    "type": "string"
                },
                {
                    "indexed": false,
                    "internalType": "uint256",
                    "name": "timestamp",
                    "type": "uint256"
                }
            ],
            "name": "MinerRoleRevoked",
            "type": "event"
        },
        {
            "anonymous": false,
            "inputs": [
                {
                    "indexed": false,
                    "internalType": "string",
                    "name": "mineralId",
                    "type": "string"
                },
                {
                    "indexed": false,
                    "internalType": "string",
                    "name": "status",
                    "type": "string"
                },
                {
                    "indexed": true,
                    "internalType": "address",
                    "name": "auditor",
                    "type": "address"
                },
                {
                    "indexed": false,
                    "internalType": "uint256",
                    "name": "auditedAt",
                    "type": "uint256"
                }
            ],
            "name": "MineralAudited",
            "type": "event"
        },
        {
            "anonymous": false,
            "inputs": [
                {
                    "indexed": false,
                    "internalType": "string",
                    "name": "mineralId",
                    "type": "string"
                },
                {
                    "indexed": false,
                    "internalType": "string",
                    "name": "mineralStatus",
                    "type": "string"
                },
                {
                    "indexed": true,
                    "internalType": "address",
                    "name": "inspector",
                    "type": "address"
                },
                {
                    "indexed": false,
                    "internalType": "uint256",
                    "name": "inspectedAt",
                    "type": "uint256"
                }
            ],
            "name": "MineralInspected",
            "type": "event"
        },
        {
            "anonymous": false,
            "inputs": [
                {
                    "indexed": false,
                    "internalType": "string",
                    "name": "mineralId",
                    "type": "string"
                },
                {
                    "indexed": true,
                    "internalType": "address",
                    "name": "buyer",
                    "type": "address"
                },
                {
                    "indexed": false,
                    "internalType": "uint256",
                    "name": "purchasedAt",
                    "type": "uint256"
                }
            ],
            "name": "MineralPurchased",
            "type": "event"
        },
        {
            "anonymous": false,
            "inputs": [
                {
                    "indexed": false,
                    "internalType": "string",
                    "name": "mineralId",
                    "type": "string"
                },
                {
                    "indexed": true,
                    "internalType": "address",
                    "name": "ApprovedBy",
                    "type": "address"
                },
                {
                    "indexed": false,
                    "internalType": "string",
                    "name": "status",
                    "type": "string"
                },
                {
                    "indexed": false,
                    "internalType": "uint256",
                    "name": "inspectionDate",
                    "type": "uint256"
                }
            ],
            "name": "MineralReadyToTrade",
            "type": "event"
        },
        {
            "anonymous": false,
            "inputs": [
                {
                    "indexed": false,
                    "internalType": "string",
                    "name": "mineralId",
                    "type": "string"
                },
                {
                    "indexed": true,
                    "internalType": "address",
                    "name": "refiner",
                    "type": "address"
                },
                {
                    "indexed": false,
                    "internalType": "uint256",
                    "name": "refinedAt",
                    "type": "uint256"
                }
            ],
            "name": "MineralRefined",
            "type": "event"
        },
        {
            "anonymous": false,
            "inputs": [
                {
                    "indexed": false,
                    "internalType": "string",
                    "name": "mineralId",
                    "type": "string"
                },
                {
                    "indexed": false,
                    "internalType": "string",
                    "name": "mineralName",
                    "type": "string"
                },
                {
                    "indexed": false,
                    "internalType": "string",
                    "name": "mineralType",
                    "type": "string"
                },
                {
                    "indexed": false,
                    "internalType": "string",
                    "name": "origin",
                    "type": "string"
                },
                {
                    "indexed": false,
                    "internalType": "uint256",
                    "name": "weight",
                    "type": "uint256"
                },
                {
                    "indexed": false,
                    "internalType": "uint256",
                    "name": "purityPercentage",
                    "type": "uint256"
                },
                {
                    "indexed": true,
                    "internalType": "address",
                    "name": "miner",
                    "type": "address"
                },
                {
                    "indexed": false,
                    "internalType": "uint256",
                    "name": "registeredAt",
                    "type": "uint256"
                }
            ],
            "name": "MineralRegistered",
            "type": "event"
        },
        {
            "anonymous": false,
            "inputs": [
                {
                    "indexed": false,
                    "internalType": "string",
                    "name": "mineralId",
                    "type": "string"
                },
                {
                    "indexed": true,
                    "internalType": "address",
                    "name": "transporter",
                    "type": "address"
                },
                {
                    "indexed": false,
                    "internalType": "address",
                    "name": "receivingParty",
                    "type": "address"
                },
                {
                    "indexed": false,
                    "internalType": "string",
                    "name": "origin",
                    "type": "string"
                },
                {
                    "indexed": false,
                    "internalType": "string",
                    "name": "destination",
                    "type": "string"
                },
                {
                    "indexed": false,
                    "internalType": "uint256",
                    "name": "transportedAt",
                    "type": "uint256"
                }
            ],
            "name": "MineralTransported",
            "type": "event"
        },
        {
            "anonymous": false,
            "inputs": [
                {
                    "indexed": true,
                    "internalType": "address",
                    "name": "assignee",
                    "type": "address"
                },
                {
                    "indexed": false,
                    "internalType": "uint256",
                    "name": "timestamp",
                    "type": "uint256"
                }
            ],
            "name": "RefinerRoleAssigned",
            "type": "event"
        },
        {
            "anonymous": false,
            "inputs": [
                {
                    "indexed": true,
                    "internalType": "address",
                    "name": "revokee",
                    "type": "address"
                },
                {
                    "indexed": false,
                    "internalType": "string",
                    "name": "reason",
                    "type": "string"
                },
                {
                    "indexed": false,
                    "internalType": "uint256",
                    "name": "timestamp",
                    "type": "uint256"
                }
            ],
            "name": "RefinerRoleRevoked",
            "type": "event"
        },
        {
            "anonymous": false,
            "inputs": [
                {
                    "indexed": true,
                    "internalType": "bytes32",
                    "name": "role",
                    "type": "bytes32"
                },
                {
                    "indexed": true,
                    "internalType": "bytes32",
                    "name": "previousAdminRole",
                    "type": "bytes32"
                },
                {
                    "indexed": true,
                    "internalType": "bytes32",
                    "name": "newAdminRole",
                    "type": "bytes32"
                }
            ],
            "name": "RoleAdminChanged",
            "type": "event"
        },
        {
            "anonymous": false,
            "inputs": [
                {
                    "indexed": true,
                    "internalType": "address",
                    "name": "account",
                    "type": "address"
                },
                {
                    "indexed": true,
                    "internalType": "bytes32",
                    "name": "role",
                    "type": "bytes32"
                },
                {
                    "indexed": false,
                    "internalType": "uint256",
                    "name": "roleAssignedAt",
                    "type": "uint256"
                }
            ],
            "name": "RoleAssigned",
            "type": "event"
        },
        {
            "anonymous": false,
            "inputs": [
                {
                    "indexed": true,
                    "internalType": "bytes32",
                    "name": "role",
                    "type": "bytes32"
                },
                {
                    "indexed": true,
                    "internalType": "address",
                    "name": "account",
                    "type": "address"
                },
                {
                    "indexed": true,
                    "internalType": "address",
                    "name": "sender",
                    "type": "address"
                }
            ],
            "name": "RoleGranted",
            "type": "event"
        },
        {
            "anonymous": false,
            "inputs": [
                {
                    "indexed": false,
                    "internalType": "bytes32",
                    "name": "role",
                    "type": "bytes32"
                },
                {
                    "indexed": false,
                    "internalType": "address",
                    "name": "account",
                    "type": "address"
                },
                {
                    "indexed": false,
                    "internalType": "address",
                    "name": "revoker",
                    "type": "address"
                },
                {
                    "indexed": false,
                    "internalType": "uint256",
                    "name": "roleRevokedAt",
                    "type": "uint256"
                }
            ],
            "name": "RoleRevoked",
            "type": "event"
        },
        {
            "anonymous": false,
            "inputs": [
                {
                    "indexed": true,
                    "internalType": "bytes32",
                    "name": "role",
                    "type": "bytes32"
                },
                {
                    "indexed": true,
                    "internalType": "address",
                    "name": "account",
                    "type": "address"
                },
                {
                    "indexed": true,
                    "internalType": "address",
                    "name": "sender",
                    "type": "address"
                }
            ],
            "name": "RoleRevoked",
            "type": "event"
        },
        {
            "anonymous": false,
            "inputs": [
                {
                    "indexed": true,
                    "internalType": "address",
                    "name": "assignee",
                    "type": "address"
                },
                {
                    "indexed": false,
                    "internalType": "uint256",
                    "name": "timestamp",
                    "type": "uint256"
                }
            ],
            "name": "TransporterRoleAssigned",
            "type": "event"
        },
        {
            "anonymous": false,
            "inputs": [
                {
                    "indexed": true,
                    "internalType": "address",
                    "name": "revokee",
                    "type": "address"
                },
                {
                    "indexed": false,
                    "internalType": "string",
                    "name": "reason",
                    "type": "string"
                },
                {
                    "indexed": false,
                    "internalType": "uint256",
                    "name": "timestamp",
                    "type": "uint256"
                }
            ],
            "name": "TransporterRoleRevoked",
            "type": "event"
        },
        {
            "inputs": [],
            "name": "AUDITOR_ROLE",
            "outputs": [
                {
                    "internalType": "bytes32",
                    "name": "",
                    "type": "bytes32"
                }
            ],
            "stateMutability": "view",
            "type": "function"
        },
        {
            "inputs": [],
            "name": "BUYER_ROLE",
            "outputs": [
                {
                    "internalType": "bytes32",
                    "name": "",
                    "type": "bytes32"
                }
            ],
            "stateMutability": "view",
            "type": "function"
        },
        {
            "inputs": [],
            "name": "DEFAULT_ADMIN_ROLE",
            "outputs": [
                {
                    "internalType": "bytes32",
                    "name": "",
                    "type": "bytes32"
                }
            ],
            "stateMutability": "view",
            "type": "function"
        },
        {
            "inputs": [],
            "name": "INSPECTOR_ROLE",
            "outputs": [
                {
                    "internalType": "bytes32",
                    "name": "",
                    "type": "bytes32"
                }
            ],
            "stateMutability": "view",
            "type": "function"
        },
        {
            "inputs": [],
            "name": "MINER_ROLE",
            "outputs": [
                {
                    "internalType": "bytes32",
                    "name": "",
                    "type": "bytes32"
                }
            ],
            "stateMutability": "view",
            "type": "function"
        },
        {
            "inputs": [],
            "name": "REFINER_ROLE",
            "outputs": [
                {
                    "internalType": "bytes32",
                    "name": "",
                    "type": "bytes32"
                }
            ],
            "stateMutability": "view",
            "type": "function"
        },
        {
            "inputs": [],
            "name": "TRANSPORTER_ROLE",
            "outputs": [
                {
                    "internalType": "bytes32",
                    "name": "",
                    "type": "bytes32"
                }
            ],
            "stateMutability": "view",
            "type": "function"
        },
        {
            "inputs": [
                {
                    "internalType": "string",
                    "name": "mineralId",
                    "type": "string"
                },
                {
                    "internalType": "string",
                    "name": "report",
                    "type": "string"
                }
            ],
            "name": "_auditMineral",
            "outputs": [],
            "stateMutability": "nonpayable",
            "type": "function"
        },
        {
            "inputs": [
                {
                    "internalType": "address",
                    "name": "account",
                    "type": "address"
                }
            ],
            "name": "assignAuditor",
            "outputs": [],
            "stateMutability": "nonpayable",
            "type": "function"
        },
        {
            "inputs": [
                {
                    "internalType": "address",
                    "name": "account",
                    "type": "address"
                }
            ],
            "name": "assignBuyer",
            "outputs": [],
            "stateMutability": "nonpayable",
            "type": "function"
        },
        {
            "inputs": [
                {
                    "internalType": "address",
                    "name": "account",
                    "type": "address"
                }
            ],
            "name": "assignInspector",
            "outputs": [],
            "stateMutability": "nonpayable",
            "type": "function"
        },
        {
            "inputs": [
                {
                    "internalType": "address",
                    "name": "account",
                    "type": "address"
                }
            ],
            "name": "assignMiner",
            "outputs": [],
            "stateMutability": "nonpayable",
            "type": "function"
        },
        {
            "inputs": [
                {
                    "internalType": "address",
                    "name": "account",
                    "type": "address"
                }
            ],
            "name": "assignRefiner",
            "outputs": [],
            "stateMutability": "nonpayable",
            "type": "function"
        },
        {
            "inputs": [
                {
                    "internalType": "address",
                    "name": "account",
                    "type": "address"
                }
            ],
            "name": "assignTransporter",
            "outputs": [],
            "stateMutability": "nonpayable",
            "type": "function"
        },
        {
            "inputs": [
                {
                    "internalType": "string",
                    "name": "mineralId",
                    "type": "string"
                }
            ],
            "name": "checkAuditAndInspectionStatus",
            "outputs": [
                {
                    "internalType": "bool",
                    "name": "isAudited",
                    "type": "bool"
                },
                {
                    "internalType": "bool",
                    "name": "isInspected",
                    "type": "bool"
                }
            ],
            "stateMutability": "nonpayable",
            "type": "function"
        },
        {
            "inputs": [
                {
                    "internalType": "string",
                    "name": "mineralId",
                    "type": "string"
                }
            ],
            "name": "getMineralHistory",
            "outputs": [
                {
                    "components": [
                        {
                            "internalType": "string",
                            "name": "id",
                            "type": "string"
                        },
                        {
                            "internalType": "string",
                            "name": "fieldChanged",
                            "type": "string"
                        },
                        {
                            "internalType": "string",
                            "name": "newValue",
                            "type": "string"
                        },
                        {
                            "internalType": "address",
                            "name": "updatedBy",
                            "type": "address"
                        },
                        {
                            "internalType": "uint256",
                            "name": "timestamp",
                            "type": "uint256"
                        }
                    ],
                    "internalType": "struct RolesManager.MineralHistory[]",
                    "name": "",
                    "type": "tuple[]"
                }
            ],
            "stateMutability": "view",
            "type": "function"
        },
        {
            "inputs": [
                {
                    "internalType": "bytes32",
                    "name": "role",
                    "type": "bytes32"
                }
            ],
            "name": "getRoleAdmin",
            "outputs": [
                {
                    "internalType": "bytes32",
                    "name": "",
                    "type": "bytes32"
                }
            ],
            "stateMutability": "view",
            "type": "function"
        },
        {
            "inputs": [
                {
                    "internalType": "address",
                    "name": "account",
                    "type": "address"
                }
            ],
            "name": "getRolesForAddress",
            "outputs": [
                {
                    "internalType": "string[]",
                    "name": "roles",
                    "type": "string[]"
                }
            ],
            "stateMutability": "view",
            "type": "function"
        },
        {
            "inputs": [
                {
                    "internalType": "bytes32",
                    "name": "role",
                    "type": "bytes32"
                },
                {
                    "internalType": "address",
                    "name": "account",
                    "type": "address"
                }
            ],
            "name": "grantRole",
            "outputs": [],
            "stateMutability": "nonpayable",
            "type": "function"
        },
        {
            "inputs": [
                {
                    "internalType": "address",
                    "name": "account",
                    "type": "address"
                }
            ],
            "name": "hasAdminRole",
            "outputs": [
                {
                    "internalType": "bool",
                    "name": "",
                    "type": "bool"
                }
            ],
            "stateMutability": "view",
            "type": "function"
        },
        {
            "inputs": [
                {
                    "internalType": "address",
                    "name": "account",
                    "type": "address"
                }
            ],
            "name": "hasAuditorRole",
            "outputs": [
                {
                    "internalType": "bool",
                    "name": "",
                    "type": "bool"
                }
            ],
            "stateMutability": "view",
            "type": "function"
        },
        {
            "inputs": [
                {
                    "internalType": "address",
                    "name": "account",
                    "type": "address"
                }
            ],
            "name": "hasBuyerRole",
            "outputs": [
                {
                    "internalType": "bool",
                    "name": "",
                    "type": "bool"
                }
            ],
            "stateMutability": "view",
            "type": "function"
        },
        {
            "inputs": [
                {
                    "internalType": "address",
                    "name": "account",
                    "type": "address"
                }
            ],
            "name": "hasInspectorRole",
            "outputs": [
                {
                    "internalType": "bool",
                    "name": "",
                    "type": "bool"
                }
            ],
            "stateMutability": "view",
            "type": "function"
        },
        {
            "inputs": [
                {
                    "internalType": "address",
                    "name": "account",
                    "type": "address"
                }
            ],
            "name": "hasMinerRole",
            "outputs": [
                {
                    "internalType": "bool",
                    "name": "",
                    "type": "bool"
                }
            ],
            "stateMutability": "view",
            "type": "function"
        },
        {
            "inputs": [
                {
                    "internalType": "address",
                    "name": "account",
                    "type": "address"
                }
            ],
            "name": "hasRefinerRole",
            "outputs": [
                {
                    "internalType": "bool",
                    "name": "",
                    "type": "bool"
                }
            ],
            "stateMutability": "view",
            "type": "function"
        },
        {
            "inputs": [
                {
                    "internalType": "bytes32",
                    "name": "role",
                    "type": "bytes32"
                },
                {
                    "internalType": "address",
                    "name": "account",
                    "type": "address"
                }
            ],
            "name": "hasRole",
            "outputs": [
                {
                    "internalType": "bool",
                    "name": "",
                    "type": "bool"
                }
            ],
            "stateMutability": "view",
            "type": "function"
        },
        {
            "inputs": [
                {
                    "internalType": "address",
                    "name": "account",
                    "type": "address"
                }
            ],
            "name": "hasTransporterRole",
            "outputs": [
                {
                    "internalType": "bool",
                    "name": "",
                    "type": "bool"
                }
            ],
            "stateMutability": "view",
            "type": "function"
        },
        {
            "inputs": [
                {
                    "internalType": "string",
                    "name": "mineralId",
                    "type": "string"
                },
                {
                    "internalType": "string",
                    "name": "report",
                    "type": "string"
                }
            ],
            "name": "inspectMineral",
            "outputs": [],
            "stateMutability": "nonpayable",
            "type": "function"
        },
        {
            "inputs": [
                {
                    "internalType": "address",
                    "name": "account",
                    "type": "address"
                }
            ],
            "name": "isAdmin",
            "outputs": [
                {
                    "internalType": "bool",
                    "name": "",
                    "type": "bool"
                }
            ],
            "stateMutability": "view",
            "type": "function"
        },
        {
            "inputs": [
                {
                    "internalType": "string",
                    "name": "mineralId",
                    "type": "string"
                }
            ],
            "name": "isMineralRegistered",
            "outputs": [
                {
                    "internalType": "bool",
                    "name": "",
                    "type": "bool"
                }
            ],
            "stateMutability": "nonpayable",
            "type": "function"
        },
        {
            "inputs": [
                {
                    "internalType": "string",
                    "name": "",
                    "type": "string"
                }
            ],
            "name": "mineralDetails",
            "outputs": [
                {
                    "internalType": "string",
                    "name": "id",
                    "type": "string"
                },
                {
                    "internalType": "string",
                    "name": "name",
                    "type": "string"
                },
                {
                    "internalType": "string",
                    "name": "origin",
                    "type": "string"
                },
                {
                    "internalType": "string",
                    "name": "mineralType",
                    "type": "string"
                },
                {
                    "internalType": "uint256",
                    "name": "weight",
                    "type": "uint256"
                },
                {
                    "internalType": "uint256",
                    "name": "purityPercentage",
                    "type": "uint256"
                },
                {
                    "internalType": "string",
                    "name": "storageConditions",
                    "type": "string"
                },
                {
                    "internalType": "address",
                    "name": "registeredBy",
                    "type": "address"
                },
                {
                    "internalType": "string",
                    "name": "currentStatus",
                    "type": "string"
                },
                {
                    "internalType": "string",
                    "name": "currentLocation",
                    "type": "string"
                },
                {
                    "internalType": "address",
                    "name": "currentHandler",
                    "type": "address"
                },
                {
                    "internalType": "bool",
                    "name": "isPurchased",
                    "type": "bool"
                },
                {
                    "internalType": "bool",
                    "name": "isRefined",
                    "type": "bool"
                },
                {
                    "internalType": "bool",
                    "name": "isAudited",
                    "type": "bool"
                },
                {
                    "internalType": "bool",
                    "name": "isInspected",
                    "type": "bool"
                },
                {
                    "internalType": "uint256",
                    "name": "timestamp",
                    "type": "uint256"
                }
            ],
            "stateMutability": "view",
            "type": "function"
        },
        {
            "inputs": [
                {
                    "internalType": "string",
                    "name": "",
                    "type": "string"
                },
                {
                    "internalType": "uint256",
                    "name": "",
                    "type": "uint256"
                }
            ],
            "name": "mineralHistories",
            "outputs": [
                {
                    "internalType": "string",
                    "name": "id",
                    "type": "string"
                },
                {
                    "internalType": "string",
                    "name": "fieldChanged",
                    "type": "string"
                },
                {
                    "internalType": "string",
                    "name": "newValue",
                    "type": "string"
                },
                {
                    "internalType": "address",
                    "name": "updatedBy",
                    "type": "address"
                },
                {
                    "internalType": "uint256",
                    "name": "timestamp",
                    "type": "uint256"
                }
            ],
            "stateMutability": "view",
            "type": "function"
        },
        {
            "inputs": [
                {
                    "internalType": "string",
                    "name": "mineralId",
                    "type": "string"
                }
            ],
            "name": "purchaseMineral",
            "outputs": [],
            "stateMutability": "nonpayable",
            "type": "function"
        },
        {
            "inputs": [
                {
                    "internalType": "string",
                    "name": "mineralId",
                    "type": "string"
                }
            ],
            "name": "refineMineral",
            "outputs": [],
            "stateMutability": "nonpayable",
            "type": "function"
        },
        {
            "inputs": [
                {
                    "internalType": "string",
                    "name": "_name",
                    "type": "string"
                },
                {
                    "internalType": "string",
                    "name": "_mineralType",
                    "type": "string"
                },
                {
                    "internalType": "uint256",
                    "name": "_weight",
                    "type": "uint256"
                },
                {
                    "internalType": "string",
                    "name": "_origin",
                    "type": "string"
                },
                {
                    "internalType": "uint256",
                    "name": "_purityPercentage",
                    "type": "uint256"
                },
                {
                    "internalType": "string",
                    "name": "_storageConditions",
                    "type": "string"
                }
            ],
            "name": "registerMineral",
            "outputs": [
                {
                    "internalType": "string",
                    "name": "",
                    "type": "string"
                }
            ],
            "stateMutability": "nonpayable",
            "type": "function"
        },
        {
            "inputs": [
                {
                    "internalType": "bytes32",
                    "name": "role",
                    "type": "bytes32"
                },
                {
                    "internalType": "address",
                    "name": "callerConfirmation",
                    "type": "address"
                }
            ],
            "name": "renounceRole",
            "outputs": [],
            "stateMutability": "nonpayable",
            "type": "function"
        },
        {
            "inputs": [
                {
                    "internalType": "address",
                    "name": "account",
                    "type": "address"
                },
                {
                    "internalType": "string",
                    "name": "reason",
                    "type": "string"
                }
            ],
            "name": "revokeAuditor",
            "outputs": [],
            "stateMutability": "nonpayable",
            "type": "function"
        },
        {
            "inputs": [
                {
                    "internalType": "address",
                    "name": "account",
                    "type": "address"
                },
                {
                    "internalType": "string",
                    "name": "reason",
                    "type": "string"
                }
            ],
            "name": "revokeBuyer",
            "outputs": [],
            "stateMutability": "nonpayable",
            "type": "function"
        },
        {
            "inputs": [
                {
                    "internalType": "address",
                    "name": "account",
                    "type": "address"
                },
                {
                    "internalType": "string",
                    "name": "reason",
                    "type": "string"
                }
            ],
            "name": "revokeInspector",
            "outputs": [],
            "stateMutability": "nonpayable",
            "type": "function"
        },
        {
            "inputs": [
                {
                    "internalType": "address",
                    "name": "account",
                    "type": "address"
                },
                {
                    "internalType": "string",
                    "name": "reason",
                    "type": "string"
                }
            ],
            "name": "revokeMiner",
            "outputs": [],
            "stateMutability": "nonpayable",
            "type": "function"
        },
        {
            "inputs": [
                {
                    "internalType": "address",
                    "name": "account",
                    "type": "address"
                },
                {
                    "internalType": "string",
                    "name": "reason",
                    "type": "string"
                }
            ],
            "name": "revokeRefiner",
            "outputs": [],
            "stateMutability": "nonpayable",
            "type": "function"
        },
        {
            "inputs": [
                {
                    "internalType": "bytes32",
                    "name": "role",
                    "type": "bytes32"
                },
                {
                    "internalType": "address",
                    "name": "account",
                    "type": "address"
                }
            ],
            "name": "revokeRole",
            "outputs": [],
            "stateMutability": "nonpayable",
            "type": "function"
        },
        {
            "inputs": [
                {
                    "internalType": "address",
                    "name": "account",
                    "type": "address"
                },
                {
                    "internalType": "string",
                    "name": "reason",
                    "type": "string"
                }
            ],
            "name": "revokeTransporter",
            "outputs": [],
            "stateMutability": "nonpayable",
            "type": "function"
        },
        {
            "inputs": [
                {
                    "internalType": "bytes4",
                    "name": "interfaceId",
                    "type": "bytes4"
                }
            ],
            "name": "supportsInterface",
            "outputs": [
                {
                    "internalType": "bool",
                    "name": "",
                    "type": "bool"
                }
            ],
            "stateMutability": "view",
            "type": "function"
        },
        {
            "inputs": [
                {
                    "internalType": "string",
                    "name": "mineralId",
                    "type": "string"
                },
                {
                    "internalType": "address",
                    "name": "_receivingParty",
                    "type": "address"
                },
                {
                    "internalType": "string",
                    "name": "_origin",
                    "type": "string"
                },
                {
                    "internalType": "string",
                    "name": "_destination",
                    "type": "string"
                }
            ],
            "name": "transferMineral",
            "outputs": [],
            "stateMutability": "nonpayable",
            "type": "function"
        }
    ],
    "bytecode": "60806040523461007f5743420180421161006b5760015561001f33610083565b50610029336100f9565b506100333361018c565b5061003d3361021f565b50610047336102b2565b5061005133610345565b5061005b336103d8565b506040516140ea908161046c8239f35b634e487b7160e01b5f52601160045260245ffd5b5f80fd5b6001600160a01b0381165f9081525f5160206146365f395f51905f52602052604090205460ff166100f4576001600160a01b03165f8181525f5160206146365f395f51905f5260205260408120805460ff191660011790553391905f5160206145765f395f51905f528180a4600190565b505f90565b6001600160a01b0381165f9081525f5160206145d65f395f51905f52602052604090205460ff166100f4576001600160a01b03165f8181525f5160206145d65f395f51905f5260205260408120805460ff191660011790553391907fa952726ef2588ad078edf35b066f7c7406e207cb0003bbaba8cb53eba9553e72905f5160206145765f395f51905f529080a4600190565b6001600160a01b0381165f9081525f5160206145565f395f51905f52602052604090205460ff166100f4576001600160a01b03165f8181525f5160206145565f395f51905f5260205260408120805460ff191660011790553391907f59a1c48e5837ad7a7f3dcedcbe129bf3249ec4fbf651fd4f5e2600ead39fe2f5905f5160206145765f395f51905f529080a4600190565b6001600160a01b0381165f9081525f5160206145b65f395f51905f52602052604090205460ff166100f4576001600160a01b03165f8181525f5160206145b65f395f51905f5260205260408120805460ff191660011790553391907f273dcf2136c7d8ef632bb8ef13dbca69a8f36fa620c7468671b3153d46a211c0905f5160206145765f395f51905f529080a4600190565b6001600160a01b0381165f9081525f5160206145965f395f51905f52602052604090205460ff166100f4576001600160a01b03165f8181525f5160206145965f395f51905f5260205260408120805460ff191660011790553391907ff8cd32ed93fc2f9fc78152a14807c9609af3d99c5fe4dc6b106a801aaddfe90e905f5160206145765f395f51905f529080a4600190565b6001600160a01b0381165f9081525f5160206146165f395f51905f52602052604090205460ff166100f4576001600160a01b03165f8181525f5160206146165f395f51905f5260205260408120805460ff191660011790553391907fa977e1a3444218ff332edf735c56487bbe59922b15c88777d443eb8b78020f4d905f5160206145765f395f51905f529080a4600190565b6001600160a01b0381165f9081525f5160206145f65f395f51905f52602052604090205460ff166100f4576001600160a01b03165f8181525f5160206145f65f395f51905f5260205260408120805460ff191660011790553391907fddaa901e2fe3bda354fe0ede2785152d5c109282a613fe024a056a3e66c41bb3905f5160206145765f395f51905f529080a460019056fe6080806040526004361015610012575f80fd5b5f3560e01c90816301ffc9a714613398575080630958fc2d146132f05780630dacad2e14613248578063126ee33814612f3c578063248a9ca314612f0a57806324d7806c14610ca85780632f2ff15d14612ecd578063309514df14612e4e5780633499c3a214612e0057806335ba620714612d2157806336568abe14612cdd5780633a7adea514611ba2578063480d1dd314611afa5780634e2a3109146119d25780634eabbe77146119ab5780635aee1b15146117ff5780636377741d146117575780636394f6e6146117305780636e1d616e1461170957806370e22e42146116bb57806375a2b0d4146114f857806379451cd7146114d15780637a01a1da146114aa5780637ae9c1601461142b578063826fe0f51461124c5780638850845f146111fe57806391d14854146111b657806396dd28ce146110725780639969119414610f4a5780639b188dd614610ecb578063a217fddf14610eb1578063a917601b14610e09578063abaa536f14610dbb578063ac851dfd14610cfb578063beae461514610cad578063c395fcb314610ca8578063cc82b09014610c00578063d547741f14610bc1578063de7ce39114610b73578063df422bf214610618578063e3a3c522146105f1578063e438fdf814610572578063f17f352314610333578063f5716a85146102b45763fc1032eb1461020b575f80fd5b346102b0576102ab7f93e936184fad9f80c7000aa987f91be0cd621bacde11839fdc7139f3d9c2407b61023d366134f6565b5f5160206140355f395f51905f525f9081526020527f0d2d6a5d08cb5d871289c0a3ca855d9da72909a111c24cce2d5c2b34a20daa5554909391906102869061375e565b61375e565b61028f81613d86565b506040516001600160a01b039091169390918291429083613697565b0390a2005b5f80fd5b346102b0576102ab7f4614600adaea632b1e4c381ad24471dab7b587dca104c8dd4da76bc64f19716f6102e6366134f6565b5f5160206140555f395f51905f525f9081526020527f4130a4caca6023b0ba21488ee680ce5c3df22860b1cd8b02cd2a0bcb0de98852549093919061032a9061375e565b61028f81613d08565b346102b05760803660031901126102b0576004356001600160401b0381116102b057610363903690600401613453565b61036b613401565b6044356001600160401b0381116102b05761038a903690600401613453565b906064356001600160401b0381116102b0576103aa903690600401613453565b335f9081525f516020613fb55f395f51905f52602052604090205490929060ff161561055f57604051916103f4855193602081818901968088835e81016002815203019020613589565b602081519101208551908185201490811591610556575b50610547576001600160a01b0316918215610538578151156105295783511561051a57600160ff600a6040516020818a518088835e81016002815203019020015460a01c161515146104f4576104e5927f55b00b3c29344a545244b18d70b135e423405427088bd5425f13d690b82310b49492600a6104d793602060405180928b518091835e6002908201908152030190200180546001600160a01b0319163317905560405160a080825290976104c491890190613629565b9160208801528682036040880152613629565b908482036060860152613629565b914260808201528033930390a2005b604051632072bb0160e11b815260206004820152806105166024820188613629565b0390fd5b635dbef47560e01b5f5260045ffd5b6326813e6f60e01b5f5260045ffd5b63bea3fd2f60e01b5f5260045ffd5b6329d7b10b60e11b5f5260045ffd5b9050158661040b565b630568555f60e41b5f523360045260245ffd5b346102b0576102ab7f352e14c53d161e2481e65145b53265d1608f979a93a06df66d4c99b2a84ddc636105a4366134f6565b5f516020613f755f395f51905f525f9081526020527facfff8a39fb957d9d1c8e3ef9f08385e3fcf7bb23ab7ba0ad0f8df93dbde6a6954909391906105e89061375e565b61028f81613c8a565b346102b0575f3660031901126102b05760206040515f516020613f755f395f51905f528152f35b346102b05760203660031901126102b0576106316133eb565b6001600160a01b03811615610b64576001600160a01b0381165f9081525f5160206140955f395f51905f52602052604081205490919060ff16610b5b575b6001600160a01b0381165f9081525f516020613f955f395f51905f52602052604090205460ff16610b4b575b6001600160a01b0381165f9081525f516020613fd55f395f51905f52602052604090205460ff16610b3b575b6001600160a01b0381165f9081525f516020613fb55f395f51905f52602052604090205460ff16610b2b575b6001600160a01b0381165f9081525f516020613ed55f395f51905f52602052604090205460ff16610b1b575b6001600160a01b0381165f9081525f516020613f355f395f51905f52602052604090205460ff16610b0b575b6001600160a01b0381165f9081525f516020613f155f395f51905f52602052604090205460ff16610afb575b610780826136dc565b9161078e6040519384613432565b80835261079d601f19916136dc565b015f5b818110610aea5750506001600160a01b0381165f9081525f5160206140955f395f51905f52602052604081205490919060ff16610aac575b6001600160a01b0381165f9081525f516020613f955f395f51905f52602052604090205460ff16610a77575b6001600160a01b0381165f9081525f516020613fd55f395f51905f52602052604090205460ff16610a40575b6001600160a01b0381165f9081525f516020613fb55f395f51905f52602052604090205460ff16610a05575b6001600160a01b0381165f9081525f516020613ed55f395f51905f52602052604090205460ff166109ce575b6001600160a01b0381165f9081525f516020613f355f395f51905f52602052604090205460ff1661098a575b6001600160a01b03165f9081525f516020613f155f395f51905f52602052604090205460ff16610946575b506040518091602082016020835281518091526040830190602060408260051b8601019301915f905b82821061091757505050500390f35b919360019193955060206109368192603f198a82030186528851613629565b9601920192018594939192610908565b61098590604051610958604082613432565b6005815264212aaca2a960d91b6020820152610974828561370e565b5261097f818461370e565b506136f3565b6108df565b906109c89060405161099d604082613432565b600981526824a729a822a1aa27a960b91b60208201526109bd828661370e565b5261097f818561370e565b906108b4565b906109ff906040516109e1604082613432565b600781526620aaa224aa27a960c91b60208201526109bd828661370e565b90610888565b90610a3a90604051610a18604082613432565b600b81526a2a2920a729a827a92a22a960a91b60208201526109bd828661370e565b9061085c565b90610a7190604051610a53604082613432565b60078152662922a324a722a960c91b60208201526109bd828661370e565b90610830565b90610aa690604051610a8a604082613432565b600581526426a4a722a960d91b60208201526109bd828661370e565b90610804565b9050604051610abc604082613432565b600581526420a226a4a760d91b6020820152610ad783613701565b52610ae182613701565b506001906107d8565b8060606020809387010152016107a0565b90610b05906136f3565b90610777565b90610b15906136f3565b9061074b565b90610b25906136f3565b9061071f565b90610b35906136f3565b906106f3565b90610b45906136f3565b906106c7565b90610b55906136f3565b9061069b565b6001915061066f565b63200db56f60e11b5f5260045ffd5b346102b05760203660031901126102b057610b8c6133eb565b6001600160a01b03165f9081525f516020613fd55f395f51905f52602090815260409182902054915160ff9092161515825290f35b346102b05760403660031901126102b057610bfe600435610be0613401565b90610bf9610281825f525f602052600160405f20015490565b613e04565b005b346102b05760203660031901126102b057610c196133eb565b6001600160a01b038116908115610b6457610c7b90610c36613722565b5f516020613f755f395f51905f525f9081526020527facfff8a39fb957d9d1c8e3ef9f08385e3fcf7bb23ab7ba0ad0f8df93dbde6a6954610c769061375e565b613a1b565b507f49cc27c2a068c01cf703c3923dfc679109b5f6c27bd1f61b542c159e3a73e0926020604051428152a2005b6134a8565b346102b05760203660031901126102b057610cc66133eb565b6001600160a01b03165f9081525f516020613f155f395f51905f52602090815260409182902054915160ff9092161515825290f35b346102b05760203660031901126102b0576004356001600160401b0381116102b057610d2b903690600401613453565b805115610d9657604051610d55825191602081818601948086835e81016002815203019020613589565b60208151910120908251902003610d7157602060405160018152f35b6040516311bb0bc960e31b815260206004820152908190610516906024830190613629565b60405163f855236d60e01b815260206004820152908190610516906024830190613629565b346102b05760203660031901126102b057610dd46133eb565b6001600160a01b03165f9081525f516020613ed55f395f51905f52602090815260409182902054915160ff9092161515825290f35b346102b05760203660031901126102b057610e226133eb565b6001600160a01b038116908115610b6457610e8490610e3f613722565b5f516020613f555f395f51905f525f9081526020527fbce5fd3347e0dc338dcc0e895534dd4af2740eec95f56cd4ca4b4b2ada357ca154610e7f9061375e565b61399b565b507f964e50cb3bdb84c00a30f56ae15d538d23dc6db14f891d7d819761b161e990a66020604051428152a2005b346102b0575f3660031901126102b05760206040515f8152f35b346102b0576102ab7f69e94e373f69f3f945457a07b335722310788af9cd459a33df6f72cc9e964043610efd366134f6565b5f516020613ff55f395f51905f525f9081526020527ff3fa603c74bfe2a4719960e47343678c3dc690d2b27a2295acc6fc430833aafa5490939190610f419061375e565b61028f81613c0c565b346102b057610f583661364d565b335f9081525f516020613f355f395f51905f52602052604090205490919060ff161561055f57604051610fa1825191602081818601948086835e81016002815203019020613589565b602081519101208251908183201490811591611069575b5061054757600160ff600a60405160208187518088835e81016002815203019020015460b81c16151514611047577f3a9eebd240f4c9f631531ebc672c4c040de483b868ccebe8a3a1fdad70cde0d991600a6102ab926020604051809285518091835e8101600281520301902001600160b81b60ff60b81b1982541617905560405191829133954291846136b3565b604051636f5f944160e11b815260206004820152806105166024820185613629565b90501584610fb8565b346102b05760203660031901126102b0576004356001600160401b0381116102b0576110a2903690600401613453565b335f9081525f516020613fd55f395f51905f52602052604090205460ff161561055f576040516110e8825191602081818601948086835e81016002815203019020613589565b6020815191012082519081832014908115916111ad575b5061054757600160ff600a60405160208187518088835e81016002815203019020015460a81c1615151461118b57600a906020604051809285518091835e8101600281520301902001600160a81b60ff60a81b198254161790557f6eda99f8f5077fb5176954e99bbca45a2ff551306f2229344070a923de9ed609604051806102ab3394429083613697565b60405163701203b760e01b815260206004820152806105166024820185613629565b905015836110ff565b346102b05760403660031901126102b0576111cf613401565b6004355f525f60205260405f209060018060a01b03165f52602052602060ff60405f2054166040519015158152f35b346102b05760203660031901126102b0576112176133eb565b6001600160a01b03165f9081525f516020613f355f395f51905f52602090815260409182902054915160ff9092161515825290f35b346102b05760203660031901126102b0576004356001600160401b0381116102b05761127c903690600401613453565b604051906112a0815192602081818501958087835e81016002815203019020613589565b602081519101208151908184201490811591611422575b5061054757602090604051928391518091835e810160038152030190208054906112e0826136dc565b916112ee6040519384613432565b8083526020830180925f5260205f205f915b8383106113bb57848660405191829160208301906020845251809152604083019060408160051b85010192915f905b82821061133e57505050500390f35b919360019193955060208091603f19898203018552875190608080611394611382611372865160a0875260a0870190613629565b8787015186820389880152613629565b60408601518582036040870152613629565b93878060a01b0360608201511660608501520151910152960192019201859493919261132f565b600560206001926040516113ce81613417565b6113d786613589565b81526113e4858701613589565b838201526113f460028701613589565b6040820152848060a01b03600387015416606082015260048601546080820152815201920192019190611300565b905015836112b7565b346102b0576102ab7f71577b91708c73ee54b43c6709958ff42e4bcc084910648ce7c3d16928b51d5261145d366134f6565b5f516020613f555f395f51905f525f9081526020527fbce5fd3347e0dc338dcc0e895534dd4af2740eec95f56cd4ca4b4b2ada357ca154909391906114a19061375e565b61028f81613b8e565b346102b0575f3660031901126102b05760206040515f516020613ff55f395f51905f528152f35b346102b0575f3660031901126102b05760206040515f5160206140555f395f51905f528152f35b346102b05760203660031901126102b0576004356001600160401b0381116102b057611528903690600401613453565b335f9081525f5160206140955f395f51905f52602052604090205460ff161561055f576040519061156f815192602081818501958087835e81016002815203019020613589565b6020815191012081519081842014908115916116b2575b506105475760ff600a60405160208185518088835e81016002815203019020015460b01c168061168c575b156116675760ff600a6040938451606081527f10f4ba4c7bb6f0c442f54585004a6e24440bea5c2d2e6f36b688e3e624762e226115f16060830187613629565b916b54726164696e67526561647960a01b6020828503948582850152600c8152015242888201528733930190a2602083838751838189518088835e81016002815203019020015460b01c16948651928391518091835e81016002815203019020015460b81c168251911515825215156020820152f35b6040516348cddbdb60e11b815260206004820152908190610516906024830190613629565b5060ff600a60405160208185518088835e81016002815203019020015460b81c166115b1565b90501583611586565b346102b05760203660031901126102b0576116d46133eb565b6001600160a01b03165f9081525f516020613fb55f395f51905f52602090815260409182902054915160ff9092161515825290f35b346102b0575f3660031901126102b05760206040515f5160206140355f395f51905f528152f35b346102b0575f3660031901126102b05760206040515f5160206140155f395f51905f528152f35b346102b05760203660031901126102b0576117706133eb565b6001600160a01b038116908115610b64576117d29061178d613722565b5f5160206140555f395f51905f525f9081526020527f4130a4caca6023b0ba21488ee680ce5c3df22860b1cd8b02cd2a0bcb0de98852546117cd9061375e565b61391b565b507f4e3eede475de92d3e23765b737dbb67646352b3328c1a437d7f089766d7be7516020604051428152a2005b346102b05760203660031901126102b0576004356001600160401b0381116102b05761182f903690600401613453565b604051818192516020819201835e81016002815203602001902061185281613589565b61185e60018301613589565b9161186b60028201613589565b61187760038301613589565b600483015460058401549061188e60068601613589565b60078601546001600160a01b0316916118a960088801613589565b936118b660098901613589565b95600a89015498600b0154976040519b8c9b6102008d526102008d016118db91613629565b8c810360208e01526118ec91613629565b8b810360408d01526118fd91613629565b8a810360608c015261190e91613629565b9160808a015260a089015287810360c089015261192a91613629565b9060e087015285810361010087015261194291613629565b84810361012086015261195491613629565b91600160a01b6001900381166101408501528060a01c60ff1615156101608501528060a81c60ff1615156101808501528060b01c60ff1615156101a085015260b81c60ff1615156101c08401526101e08301520390f35b346102b0575f3660031901126102b05760206040515f516020613f555f395f51905f528152f35b346102b0576119e03661364d565b335f9081525f516020613ed55f395f51905f52602052604090205490919060ff161561055f57604051611a29825191602081818601948086835e81016002815203019020613589565b602081519101208251908183201490811591611af1575b5061054757600160ff600a60405160208187518088835e81016002815203019020015460b01c16151514611acf577fa9de1934279a83f8cfaaecf6a7002ac10aeaea244c8c763f3752f3fc4c3e631d91600a6102ab926020604051809285518091835e8101600281520301902001600160b01b60ff60b01b1982541617905560405191829133954291846136b3565b60405163c817400d60e01b815260206004820152806105166024820185613629565b90501584611a40565b346102b05760203660031901126102b057611b136133eb565b6001600160a01b038116908115610b6457611b7590611b30613722565b5f5160206140355f395f51905f525f9081526020527f0d2d6a5d08cb5d871289c0a3ca855d9da72909a111c24cce2d5c2b34a20daa5554611b709061375e565b61389b565b507f4a02edd19f09212e54b2ac85d7d3a4a2e3fbf424e6710c3f817d9b4cecc9cdb36020604051428152a2005b346102b05760c03660031901126102b0576004356001600160401b0381116102b057611bd2903690600401613453565b6024356001600160401b0381116102b057611bf1903690600401613453565b604435906064356001600160401b0381116102b057611c14903690600401613453565b916084359360a4356001600160401b0381116102b057611c38903690600401613453565b335f9081525f516020613f955f395f51905f52602052604090205490949060ff161561055f57815115612cce5780511561052957835115612cbf578215612cb05785158015612ca6575b612c97576050861115612c8457845115612c755760015493611ca3856136f3565b6001556040516020810190611ce5605460208386519a8288019b808d895e8201903360601b848301524260348301528482015203016034810184520182613432565b51902095604095865197611cf9888a613432565b600a89526020890190601f198901368337895115612c615760308253895160011015612c6157607860218b01535f5b60048110612bd2575050611d729160206001928a519b8c93885180918587015e840190602d60f81b84830152518092602183015e01015f838201520301601f198101895288613432565b85519061020082018281106001600160401b038211176124ec57875287825284602083015283878301528260608301528560808301528860a083015260c08201523360e08201528551611dc58782613432565b600381526252617760e81b60208201526101008201528551611de78782613432565b600d81526c26b4b734b7339021b2b73a32b960991b6020820152610120820152336101408201525f6101608201525f6101808201525f6101a08201525f6101c0820152426101e08201528551602081895180838c01835e810160028152030190209080518051906001600160401b0382116124ec578190611e688554613551565b601f8111612b85575b50602090601f8311600114612b1e575f92612b13575b50508160011b915f199060031b1c19161782555b60208101518051906001600160401b0382116124ec578190611ec06001860154613551565b601f8111612ac3575b50602090601f8311600114612a56575f92612a4b575b50508160011b915f199060031b1c19161760018301555b868101518051906001600160401b0382116124ec578190611f1a6002860154613551565b601f81116129fb575b50602090601f831160011461298e575f92612983575b50508160011b915f199060031b1c19161760028301555b6003820160608201518051906001600160401b0382116124ec578190611f768454613551565b601f8111612933575b50602090601f83116001146128d0575f926128c5575b50508160011b915f199060031b1c19161790555b6080810151600483015560a081015160058301556006820160c08201518051906001600160401b0382116124ec578190611fe38454613551565b601f8111612875575b50602090601f8311600114612812575f92612807575b50508160011b915f199060031b1c19161790555b60e08101516007830180546001600160a01b0319166001600160a01b0392909216919091179055610100810151805160088401916001600160401b0382116124ec5781906120648454613551565b601f81116127b7575b50602090601f8311600114612754575f92612749575b50508160011b915f199060031b1c19161790555b600982016101208201518051906001600160401b0382116124ec576120bc8354613551565b601f8111612704575b50602090601f831160011461269a5791806101e09492600b96945f9261268f575b50508160011b915f199060031b1c19161790555b610140810151600a850180546101608401516101808501516101a08601516101c08701516001600160c01b03199094166001600160a01b03969096169590951791151560a01b60ff60a01b169190911790151560a81b60ff60a81b161792151560b01b60ff60b01b169290921791151560b81b60ff60b81b169190911790550151910155845186516020908290808a8401835e8101600381520301902085519067027b934b3b4b71d160c51b60208301526121d2602883865180602089018484015e81015f838201520301601f198101845283613432565b8651916121de83613417565b8883528751906121ee8983613432565b600a825269149959da5cdd195c995960b21b602083015260208401918252888401908152606084019133835260808501934285528054680100000000000000008110156124ec5761224491600182018155613538565b95909561267c57518051906001600160401b0382116124ec5781906122698854613551565b601f811161262c575b50602090601f83116001146125c9575f926125be575b50508160011b915f199060031b1c19161785555b51805160018601916001600160401b0382116124ec5781906122be8454613551565b601f811161256e575b50602090601f831160011461250b575f92612500575b50508160011b915f199060031b1c19161790555b51805160028501916001600160401b0382116124ec576123118354613551565b601f81116124a7575b50602090601f831160011461240f57946104d7946124009e9894846123d799956004957f73c819068ba25b88a32cb91f9b552ab50d9cccb7c4abdeb2a04f44373b7153939e9d9a5f92612404575b50508160011b915f199060031b1c19161790555b516003840180546001600160a01b0319166001600160a01b039290921691909117905551910155885160e080825290966123ca916123bc9089018d613629565b9088820360208a0152613629565b908682038a880152613629565b93608083015260a08201524260c08201528033930390a251918291602083526020830190613629565b0390f35b015190505f80612368565b90601f19831691845f52815f20925f5b81811061248f5750946124009f9995856004957f73c819068ba25b88a32cb91f9b552ab50d9cccb7c4abdeb2a04f44373b7153939e9d9a956104d79a956123d79d9960019510612477575b505050811b01905561237c565b01515f1960f88460031b161c191690555f808061246a565b9293602060018192878601518155019501930161241f565b835f5260205f20601f840160051c810191602085106124e2575b601f0160051c01905b8181106124d7575061231a565b5f81556001016124ca565b90915081906124c1565b634e487b7160e01b5f52604160045260245ffd5b015190508e806122dd565b5f8581528281209350601f198516905b818110612556575090846001959493921061253e575b505050811b0190556122f1565b01515f1960f88460031b161c191690558e8080612531565b9293602060018192878601518155019501930161251b565b909150835f5260205f20601f840160051c810191602085106125b4575b90601f859493920160051c01905b8181106125a657506122c7565b5f8155849350600101612599565b909150819061258b565b015190508e80612288565b5f8981528281209350601f198516905b81811061261457509084600195949392106125fc575b505050811b01855561229c565b01515f1960f88460031b161c191690558e80806125ef565b929360206001819287860151815501950193016125d9565b909150875f5260205f20601f840160051c81019160208510612672575b90601f859493920160051c01905b8181106126645750612272565b5f8155849350600101612657565b9091508190612649565b634e487b7160e01b5f525f60045260245ffd5b015190508e806120e6565b90601f19831691845f52815f20925f5b8181106126ec5750926001928592600b98966101e09896106126d4575b505050811b0190556120fa565b01515f1960f88460031b161c191690558e80806126c7565b929360206001819287860151815501950193016126aa565b835f5260205f20601f840160051c8101916020851061273f575b601f0160051c01905b81811061273457506120c5565b5f8155600101612727565b909150819061271e565b015190508c80612083565b5f8581528281209350601f198516905b81811061279f5750908460019594939210612787575b505050811b019055612097565b01515f1960f88460031b161c191690558c808061277a565b92936020600181928786015181550195019301612764565b909150835f5260205f20601f840160051c810191602085106127fd575b90601f859493920160051c01905b8181106127ef575061206d565b5f81558493506001016127e2565b90915081906127d4565b015190508c80612002565b5f8581528281209350601f198516905b81811061285d5750908460019594939210612845575b505050811b019055612016565b01515f1960f88460031b161c191690558c8080612838565b92936020600181928786015181550195019301612822565b909150835f5260205f20601f840160051c810191602085106128bb575b90601f859493920160051c01905b8181106128ad5750611fec565b5f81558493506001016128a0565b9091508190612892565b015190508c80611f95565b5f8581528281209350601f198516905b81811061291b5750908460019594939210612903575b505050811b019055611fa9565b01515f1960f88460031b161c191690558c80806128f6565b929360206001819287860151815501950193016128e0565b909150835f5260205f20601f840160051c81019160208510612979575b90601f859493920160051c01905b81811061296b5750611f7f565b5f815584935060010161295e565b9091508190612950565b015190508b80611f39565b9250600285015f52805f20905f935b601f19841685106129e0576001945083601f198116106129c8575b505050811b016002830155611f50565b01515f1960f88460031b161c191690558b80806129b8565b8181015183556020948501946001909301929091019061299d565b909150600285015f5260205f20601f840160051c810160208510612a44575b90849392915b601f830160051c82018110612a36575050611f23565b5f8155859450600101612a20565b5080612a1a565b015190508b80611edf565b9250600185015f52805f20905f935b601f1984168510612aa8576001945083601f19811610612a90575b505050811b016001830155611ef6565b01515f1960f88460031b161c191690558b8080612a80565b81810151835560209485019460019093019290910190612a65565b909150600185015f5260205f20601f840160051c810160208510612b0c575b90849392915b601f830160051c82018110612afe575050611ec9565b5f8155859450600101612ae8565b5080612ae2565b015190508b80611e87565b9250845f52805f20905f935b601f1984168510612b6a576001945083601f19811610612b52575b505050811b018255611e9b565b01515f1960f88460031b161c191690558b8080612b45565b81810151835560209485019460019093019290910190612b2a565b909150845f5260205f20601f840160051c810160208510612bcb575b90849392915b601f830160051c82018110612bbd575050611e71565b5f8155859450600101612ba7565b5080612ba1565b6020811015612c615781811a90612bef600483901c600f16613e82565b918160011b9282840460021483151715612c4d57836002019182600211612c4d578e612c23612c2a94600f945f1a92613e71565b5316613e82565b9160030180600311612c4d57612c468d916001945f1a92613e71565b5301611d28565b634e487b7160e01b5f52601160045260245ffd5b634e487b7160e01b5f52603260045260245ffd5b63bfccc8e960e01b5f5260045ffd5b8563d05db01960e01b5f5260045260245ffd5b633abe7db760e21b5f5260045ffd5b5060648611611c82565b63fd83f8d960e01b5f5260045ffd5b63a765e58f60e01b5f5260045ffd5b630ac6e45360e31b5f5260045ffd5b346102b05760403660031901126102b057612cf6613401565b336001600160a01b03821603612d1257610bfe90600435613e04565b63334bd91960e11b5f5260045ffd5b346102b05760403660031901126102b0576004356001600160401b0381116102b057612d51903690600401613453565b604051815160243592602091839181908401835e8101600381520301902080548210156102b057612dd591612d8591613538565b50612d8f81613589565b90612d9c60018201613589565b612df1612dab60028401613589565b612de3600460018060a01b036003870154169501549360405197889760a0895260a0890190613629565b908782036020890152613629565b908582036040870152613629565b91606084015260808301520390f35b346102b05760203660031901126102b057612e196133eb565b6001600160a01b03165f9081525f516020613f955f395f51905f52602090815260409182902054915160ff9092161515825290f35b346102b0576102ab7f125f88db22967983b401f70f6804d47f43cb545fcb725d0b335fe7d43d9b4a4a612e80366134f6565b5f5160206140155f395f51905f525f9081526020527fbb3fcc25fbffa12ea463b3505377899a4d5ddb4858b9c7bd36764686d9425b375490939190612ec49061375e565b61028f81613b10565b346102b05760403660031901126102b057610bfe600435612eec613401565b90612f05610281825f525f602052600160405f20015490565b613a9b565b346102b05760203660031901126102b0576020612f346004355f525f602052600160405f20015490565b604051908152f35b346102b05760203660031901126102b0576004356001600160401b0381116102b057612f6c903690600401613453565b335f9081525f516020613f155f395f51905f52602052604090205460ff161561055f57604051612fb2825191602081818601948086835e81016002815203019020613589565b60208151910120825190818320149081159161323f575b5061054757600160ff600a60405160208187518088835e81016002815203019020015460a01c1615151461321d57335f9081525f5160206140955f395f51905f52602052604090205460ff161561055f5761303860405160208185518086835e81016002815203019020613589565b602081519101208251908183201490811591613214575b506105475760ff600a60405160208186518087835e81016002815203019020015460b01c16806131ee575b156131c457604051606081527f10f4ba4c7bb6f0c442f54585004a6e24440bea5c2d2e6f36b688e3e624762e226130b46060830185613629565b916b54726164696e67526561647960a01b6020828503948582850152600c81520152426040820152604033930190a260ff600a60405160208186518087835e81016002815203019020015460b01c1660ff600a60405160208187518088835e81016002815203019020015460b81c16816131e6575b50156131c457600a908160405160208186518086835e8101600281520301902001600160a01b60ff60a01b198254161790556020604051809285518091835e810160028152030190200160018060a01b0333166bffffffffffffffffffffffff60a01b8254161790557ffed1001c142a7ab386454a2f7d78b013ba7ff40595d10c128f2fb6463ccd7b7a604051806102ab3394429083613697565b6040516348cddbdb60e11b815260206004820152806105166024820185613629565b905083613129565b5060ff600a60405160208186518087835e81016002815203019020015460b81c1661307a565b9050158361304f565b604051632072bb0160e11b815260206004820152806105166024820185613629565b90501583612fc9565b346102b05760203660031901126102b0576132616133eb565b6001600160a01b038116908115610b64576132c39061327e613722565b5f516020613ff55f395f51905f525f9081526020527ff3fa603c74bfe2a4719960e47343678c3dc690d2b27a2295acc6fc430833aafa546132be9061375e565b61381b565b507ff8ed9ac482b0f7c12999b3f157f758f84e39cd339fa301ea203823ac29e975056020604051428152a2005b346102b05760203660031901126102b0576133096133eb565b6001600160a01b038116908115610b645761336b90613326613722565b5f5160206140155f395f51905f525f9081526020527fbb3fcc25fbffa12ea463b3505377899a4d5ddb4858b9c7bd36764686d9425b37546133669061375e565b613796565b507f593f046317558c2857b92915c62c99f2d2108f7bc6f1e1b3c5376cd559abf5596020604051428152a2005b346102b05760203660031901126102b0576004359063ffffffff60e01b82168092036102b057602091637965db0b60e01b81149081156133da575b5015158152f35b6301ffc9a760e01b149050836133d3565b600435906001600160a01b03821682036102b057565b602435906001600160a01b03821682036102b057565b60a081019081106001600160401b038211176124ec57604052565b90601f801991011681019081106001600160401b038211176124ec57604052565b81601f820112156102b0578035906001600160401b0382116124ec5760405192613487601f8401601f191660200185613432565b828452602083830101116102b057815f926020809301838601378301015290565b346102b05760203660031901126102b0576134c16133eb565b6001600160a01b03165f9081525f5160206140955f395f51905f52602090815260409182902054915160ff9092161515825290f35b9060406003198301126102b0576004356001600160a01b03811681036102b05791602435906001600160401b0382116102b05761353591600401613453565b90565b8054821015612c61575f52600560205f20910201905f90565b90600182811c9216801561357f575b602083101461356b57565b634e487b7160e01b5f52602260045260245ffd5b91607f1691613560565b9060405191825f82549261359c84613551565b808452936001811690811561360757506001146135c3575b506135c192500383613432565b565b90505f9291925260205f20905f915b8183106135eb5750509060206135c1928201015f6135b4565b60209193508060019154838589010152019101909184926135d2565b9050602092506135c194915060ff191682840152151560051b8201015f6135b4565b805180835260209291819084018484015e5f828201840152601f01601f1916010190565b9060406003198301126102b0576004356001600160401b0381116102b0578261367891600401613453565b91602435906001600160401b0382116102b05761353591600401613453565b9291906136ae602091604086526040860190613629565b930152565b9392916136ae906136ce604093606088526060880190613629565b908682036020880152613629565b6001600160401b0381116124ec5760051b60200190565b5f198114612c4d5760010190565b805115612c615760200190565b8051821015612c615760209160051b010190565b335f9081525f5160206140955f395f51905f52602052604090205460ff161561374757565b63e2517d3f60e01b5f52336004525f60245260445ffd5b5f8181526020818152604080832033845290915290205460ff16156137805750565b63e2517d3f60e01b5f523360045260245260445ffd5b6001600160a01b0381165f9081525f516020613f955f395f51905f52602052604090205460ff16613816576001600160a01b03165f8181525f516020613f955f395f51905f5260205260408120805460ff191660011790553391905f5160206140155f395f51905f52905f516020613ef55f395f51905f529080a4600190565b505f90565b6001600160a01b0381165f9081525f516020613f155f395f51905f52602052604090205460ff16613816576001600160a01b03165f8181525f516020613f155f395f51905f5260205260408120805460ff191660011790553391905f516020613ff55f395f51905f52905f516020613ef55f395f51905f529080a4600190565b6001600160a01b0381165f9081525f516020613ed55f395f51905f52602052604090205460ff16613816576001600160a01b03165f8181525f516020613ed55f395f51905f5260205260408120805460ff191660011790553391905f5160206140355f395f51905f52905f516020613ef55f395f51905f529080a4600190565b6001600160a01b0381165f9081525f516020613fd55f395f51905f52602052604090205460ff16613816576001600160a01b03165f8181525f516020613fd55f395f51905f5260205260408120805460ff191660011790553391905f5160206140555f395f51905f52905f516020613ef55f395f51905f529080a4600190565b6001600160a01b0381165f9081525f516020613fb55f395f51905f52602052604090205460ff16613816576001600160a01b03165f8181525f516020613fb55f395f51905f5260205260408120805460ff191660011790553391905f516020613f555f395f51905f52905f516020613ef55f395f51905f529080a4600190565b6001600160a01b0381165f9081525f516020613f355f395f51905f52602052604090205460ff16613816576001600160a01b03165f8181525f516020613f355f395f51905f5260205260408120805460ff191660011790553391905f516020613f755f395f51905f52905f516020613ef55f395f51905f529080a4600190565b5f818152602081815260408083206001600160a01b038616845290915290205460ff16613b0a575f818152602081815260408083206001600160a01b0395909516808452949091528120805460ff19166001179055339291905f516020613ef55f395f51905f529080a4600190565b50505f90565b6001600160a01b0381165f9081525f516020613f955f395f51905f52602052604090205460ff1615613816576001600160a01b03165f8181525f516020613f955f395f51905f5260205260408120805460ff191690553391905f5160206140155f395f51905f52905f5160206140755f395f51905f529080a4600190565b6001600160a01b0381165f9081525f516020613fb55f395f51905f52602052604090205460ff1615613816576001600160a01b03165f8181525f516020613fb55f395f51905f5260205260408120805460ff191690553391905f516020613f555f395f51905f52905f5160206140755f395f51905f529080a4600190565b6001600160a01b0381165f9081525f516020613f155f395f51905f52602052604090205460ff1615613816576001600160a01b03165f8181525f516020613f155f395f51905f5260205260408120805460ff191690553391905f516020613ff55f395f51905f52905f5160206140755f395f51905f529080a4600190565b6001600160a01b0381165f9081525f516020613f355f395f51905f52602052604090205460ff1615613816576001600160a01b03165f8181525f516020613f355f395f51905f5260205260408120805460ff191690553391905f516020613f755f395f51905f52905f5160206140755f395f51905f529080a4600190565b6001600160a01b0381165f9081525f516020613fd55f395f51905f52602052604090205460ff1615613816576001600160a01b03165f8181525f516020613fd55f395f51905f5260205260408120805460ff191690553391905f5160206140555f395f51905f52905f5160206140755f395f51905f529080a4600190565b6001600160a01b0381165f9081525f516020613ed55f395f51905f52602052604090205460ff1615613816576001600160a01b03165f8181525f516020613ed55f395f51905f5260205260408120805460ff191690553391905f5160206140355f395f51905f52905f5160206140755f395f51905f529080a4600190565b5f818152602081815260408083206001600160a01b038616845290915290205460ff1615613b0a575f818152602081815260408083206001600160a01b0395909516808452949091528120805460ff19169055339291905f5160206140755f395f51905f529080a4600190565b908151811015612c61570160200190565b60ff16600a811015613ea95760300160ff8111612c4d5760f81b6001600160f81b03191690565b60610160ff8111612c4d5760ff60091991160160ff8111612c4d5760f81b6001600160f81b0319169056fe0d2d6a5d08cb5d871289c0a3ca855d9da72909a111c24cce2d5c2b34a20daa542f8788117e7eff1d82e926ec794901d17c78024a50270940304540a733656f0df3fa603c74bfe2a4719960e47343678c3dc690d2b27a2295acc6fc430833aaf9acfff8a39fb957d9d1c8e3ef9f08385e3fcf7bb23ab7ba0ad0f8df93dbde6a68ddaa901e2fe3bda354fe0ede2785152d5c109282a613fe024a056a3e66c41bb3273dcf2136c7d8ef632bb8ef13dbca69a8f36fa620c7468671b3153d46a211c0bb3fcc25fbffa12ea463b3505377899a4d5ddb4858b9c7bd36764686d9425b36bce5fd3347e0dc338dcc0e895534dd4af2740eec95f56cd4ca4b4b2ada357ca04130a4caca6023b0ba21488ee680ce5c3df22860b1cd8b02cd2a0bcb0de98851f8cd32ed93fc2f9fc78152a14807c9609af3d99c5fe4dc6b106a801aaddfe90ea952726ef2588ad078edf35b066f7c7406e207cb0003bbaba8cb53eba9553e7259a1c48e5837ad7a7f3dcedcbe129bf3249ec4fbf651fd4f5e2600ead39fe2f5a977e1a3444218ff332edf735c56487bbe59922b15c88777d443eb8b78020f4df6391f5c32d9c69d2a47ea670b442974b53935d1edc7fd64eb21e047a839171bad3228b676f7d3cd4284a5443f17f1962b36e491b30a40b2405849e597ba5fb5a2646970667358221220a838365414c37da4a62cdc412b9d87979fe65e02a99349a0be14e9306775535464736f6c634300081d00330d2d6a5d08cb5d871289c0a3ca855d9da72909a111c24cce2d5c2b34a20daa542f8788117e7eff1d82e926ec794901d17c78024a50270940304540a733656f0df3fa603c74bfe2a4719960e47343678c3dc690d2b27a2295acc6fc430833aaf9acfff8a39fb957d9d1c8e3ef9f08385e3fcf7bb23ab7ba0ad0f8df93dbde6a68bb3fcc25fbffa12ea463b3505377899a4d5ddb4858b9c7bd36764686d9425b36bce5fd3347e0dc338dcc0e895534dd4af2740eec95f56cd4ca4b4b2ada357ca04130a4caca6023b0ba21488ee680ce5c3df22860b1cd8b02cd2a0bcb0de98851ad3228b676f7d3cd4284a5443f17f1962b36e491b30a40b2405849e597ba5fb5",
    "sourcePath": "/Users/0xjonaseb11/Documents/HACKATHONS/STONE.PROOF.BASE/packages/hardhat/contracts/core/RolesManager.sol",
    "compiler": {
        "name": "solc",
        "version": "0.8.29+commit.ab55807c"
    },
    "functionHashes": {
        "AUDITOR_ROLE()": "6e1d616e",
        "BUYER_ROLE()": "7a01a1da",
        "DEFAULT_ADMIN_ROLE()": "a217fddf",
        "INSPECTOR_ROLE()": "e3a3c522",
        "MINER_ROLE()": "6394f6e6",
        "REFINER_ROLE()": "79451cd7",
        "TRANSPORTER_ROLE()": "4eabbe77",
        "_auditMineral(string,string)": "4e2a3109",
        "assignAuditor(address)": "480d1dd3",
        "assignBuyer(address)": "0dacad2e",
        "assignInspector(address)": "cc82b090",
        "assignMiner(address)": "0958fc2d",
        "assignRefiner(address)": "6377741d",
        "assignTransporter(address)": "a917601b",
        "checkAuditAndInspectionStatus(string)": "75a2b0d4",
        "getMineralHistory(string)": "826fe0f5",
        "getRoleAdmin(bytes32)": "248a9ca3",
        "getRolesForAddress(address)": "df422bf2",
        "grantRole(bytes32,address)": "2f2ff15d",
        "hasAdminRole(address)": "c395fcb3",
        "hasAuditorRole(address)": "abaa536f",
        "hasBuyerRole(address)": "beae4615",
        "hasInspectorRole(address)": "8850845f",
        "hasMinerRole(address)": "3499c3a2",
        "hasRefinerRole(address)": "de7ce391",
        "hasRole(bytes32,address)": "91d14854",
        "hasTransporterRole(address)": "70e22e42",
        "inspectMineral(string,string)": "99691194",
        "isAdmin(address)": "24d7806c",
        "isMineralRegistered(string)": "ac851dfd",
        "mineralDetails(string)": "5aee1b15",
        "mineralHistories(string,uint256)": "35ba6207",
        "purchaseMineral(string)": "126ee338",
        "refineMineral(string)": "96dd28ce",
        "registerMineral(string,string,uint256,string,uint256,string)": "3a7adea5",
        "renounceRole(bytes32,address)": "36568abe",
        "revokeAuditor(address,string)": "fc1032eb",
        "revokeBuyer(address,string)": "9b188dd6",
        "revokeInspector(address,string)": "e438fdf8",
        "revokeMiner(address,string)": "309514df",
        "revokeRefiner(address,string)": "f5716a85",
        "revokeRole(bytes32,address)": "d547741f",
        "revokeTransporter(address,string)": "7ae9c160",
        "supportsInterface(bytes4)": "01ffc9a7",
        "transferMineral(string,address,string,string)": "f17f3523"
    },
    "gasEstimates": {
        "creation": {
            "codeDepositCost": "3323600",
            "executionCost": "infinite",
            "totalCost": "infinite"
        },
        "external": {
            "AUDITOR_ROLE()": "578",
            "BUYER_ROLE()": "666",
            "DEFAULT_ADMIN_ROLE()": "812",
            "INSPECTOR_ROLE()": "1062",
            "MINER_ROLE()": "556",
            "REFINER_ROLE()": "644",
            "TRANSPORTER_ROLE()": "490",
            "_auditMineral(string,string)": "infinite",
            "assignAuditor(address)": "infinite",
            "assignBuyer(address)": "infinite",
            "assignInspector(address)": "infinite",
            "assignMiner(address)": "infinite",
            "assignRefiner(address)": "infinite",
            "assignTransporter(address)": "infinite",
            "checkAuditAndInspectionStatus(string)": "infinite",
            "getMineralHistory(string)": "infinite",
            "getRoleAdmin(bytes32)": "2429",
            "getRolesForAddress(address)": "infinite",
            "grantRole(bytes32,address)": "33428",
            "hasAdminRole(address)": "infinite",
            "hasAuditorRole(address)": "infinite",
            "hasBuyerRole(address)": "infinite",
            "hasInspectorRole(address)": "infinite",
            "hasMinerRole(address)": "infinite",
            "hasRefinerRole(address)": "infinite",
            "hasRole(bytes32,address)": "3056",
            "hasTransporterRole(address)": "infinite",
            "inspectMineral(string,string)": "infinite",
            "isAdmin(address)": "infinite",
            "isMineralRegistered(string)": "infinite",
            "mineralDetails(string)": "infinite",
            "mineralHistories(string,uint256)": "infinite",
            "purchaseMineral(string)": "infinite",
            "refineMineral(string)": "infinite",
            "registerMineral(string,string,uint256,string,uint256,string)": "infinite",
            "renounceRole(bytes32,address)": "29084",
            "revokeAuditor(address,string)": "infinite",
            "revokeBuyer(address,string)": "infinite",
            "revokeInspector(address,string)": "infinite",
            "revokeMiner(address,string)": "infinite",
            "revokeRefiner(address,string)": "infinite",
            "revokeRole(bytes32,address)": "34107",
            "revokeTransporter(address,string)": "infinite",
            "supportsInterface(bytes4)": "270",
            "transferMineral(string,address,string,string)": "infinite"
        },
        "internal": {
            "_generateHashedMineralId(string memory)": "infinite",
            "_nibbleToHexChar(uint8)": "139",
            "_setupRole(bytes32,address)": "infinite",
            "isValidRole(bytes32)": "infinite"
        }
    }
}